{
	"contracts/HamPepeTraits.sol": {
		"HamPepeTraits": {
			"abi": [
				{
					"inputs": [],
					"stateMutability": "nonpayable",
					"type": "constructor"
				},
				{
					"inputs": [
						{
							"internalType": "uint256",
							"name": "",
							"type": "uint256"
						}
					],
					"name": "colours",
					"outputs": [
						{
							"internalType": "string",
							"name": "",
							"type": "string"
						}
					],
					"stateMutability": "view",
					"type": "function"
				},
				{
					"inputs": [
						{
							"internalType": "uint256",
							"name": "i",
							"type": "uint256"
						}
					],
					"name": "getEyes",
					"outputs": [
						{
							"internalType": "string",
							"name": "",
							"type": "string"
						}
					],
					"stateMutability": "view",
					"type": "function"
				},
				{
					"inputs": [
						{
							"internalType": "uint256",
							"name": "i",
							"type": "uint256"
						}
					],
					"name": "getHat",
					"outputs": [
						{
							"internalType": "string",
							"name": "",
							"type": "string"
						}
					],
					"stateMutability": "view",
					"type": "function"
				},
				{
					"inputs": [
						{
							"internalType": "uint256",
							"name": "i",
							"type": "uint256"
						}
					],
					"name": "getPants",
					"outputs": [
						{
							"internalType": "string",
							"name": "",
							"type": "string"
						}
					],
					"stateMutability": "view",
					"type": "function"
				},
				{
					"inputs": [
						{
							"internalType": "uint256",
							"name": "i",
							"type": "uint256"
						}
					],
					"name": "getShirt",
					"outputs": [
						{
							"internalType": "string",
							"name": "",
							"type": "string"
						}
					],
					"stateMutability": "view",
					"type": "function"
				},
				{
					"inputs": [
						{
							"internalType": "uint256",
							"name": "i",
							"type": "uint256"
						}
					],
					"name": "getSkin",
					"outputs": [
						{
							"internalType": "string",
							"name": "",
							"type": "string"
						}
					],
					"stateMutability": "view",
					"type": "function"
				},
				{
					"inputs": [
						{
							"internalType": "uint256",
							"name": "i",
							"type": "uint256"
						}
					],
					"name": "getSpecial",
					"outputs": [
						{
							"internalType": "string",
							"name": "",
							"type": "string"
						}
					],
					"stateMutability": "view",
					"type": "function"
				}
			],
			"devdoc": {
				"kind": "dev",
				"methods": {},
				"version": 1
			},
			"evm": {
				"assembly": "    /* \"contracts/HamPepeTraits.sol\":61:3192  contract HamPepeTraits {... */\n  mstore(0x40, 0x80)\n    /* \"contracts/HamPepeTraits.sol\":463:754  string [6] public colours =[... */\n  mload(0x40)\n  dup1\n  0xc0\n  add\n  0x40\n  mstore\n  dup1\n  mload(0x40)\n  dup1\n  0x40\n  add\n  0x40\n  mstore\n  dup1\n  0x07\n  dup2\n  mstore\n  0x20\n  add\n  0x2365613439343900000000000000000000000000000000000000000000000000\n  dup2\n  mstore\n  pop\n  dup2\n  mstore\n  0x20\n  add\n  mload(0x40)\n  dup1\n  0x40\n  add\n  0x40\n  mstore\n  dup1\n  0x07\n  dup2\n  mstore\n  0x20\n  add\n  0x2334666666626500000000000000000000000000000000000000000000000000\n  dup2\n  mstore\n  pop\n  dup2\n  mstore\n  0x20\n  add\n  mload(0x40)\n  dup1\n  0x40\n  add\n  0x40\n  mstore\n  dup1\n  0x07\n  dup2\n  mstore\n  0x20\n  add\n  0x2330306263666500000000000000000000000000000000000000000000000000\n  dup2\n  mstore\n  pop\n  dup2\n  mstore\n  0x20\n  add\n  mload(0x40)\n  dup1\n  0x40\n  add\n  0x40\n  mstore\n  dup1\n  0x07\n  dup2\n  mstore\n  0x20\n  add\n  0x2365646439303000000000000000000000000000000000000000000000000000\n  dup2\n  mstore\n  pop\n  dup2\n  mstore\n  0x20\n  add\n  mload(0x40)\n  dup1\n  0x40\n  add\n  0x40\n  mstore\n  dup1\n  0x07\n  dup2\n  mstore\n  0x20\n  add\n  0x2366666163656200000000000000000000000000000000000000000000000000\n  dup2\n  mstore\n  pop\n  dup2\n  mstore\n  0x20\n  add\n  mload(0x40)\n  dup1\n  0x40\n  add\n  0x40\n  mstore\n  dup1\n  0x07\n  dup2\n  mstore\n  0x20\n  add\n  0x2361356135613500000000000000000000000000000000000000000000000000\n  dup2\n  mstore\n  pop\n  dup2\n  mstore\n  pop\n  0x06\n  swap1\n  0x06\n  tag_1\n  swap3\n  swap2\n  swap1\n  tag_2\n  jump\t// in\ntag_1:\n  pop\n    /* \"contracts/HamPepeTraits.sol\":1488:3185  constructor() {... */\n  callvalue\n  dup1\n  iszero\n  tag_3\n  jumpi\n  0x00\n  dup1\n  revert\ntag_3:\n  pop\n    /* \"contracts/HamPepeTraits.sol\":1513:1537  skin.map[1] = \"Skeleton\" */\n  mload(0x40)\n  dup1\n  0x40\n  add\n  0x40\n  mstore\n  dup1\n  0x08\n  dup2\n  mstore\n  0x20\n  add\n  0x536b656c65746f6e000000000000000000000000000000000000000000000000\n  dup2\n  mstore\n  pop\n    /* \"contracts/HamPepeTraits.sol\":1513:1517  skin */\n  0x00\n    /* \"contracts/HamPepeTraits.sol\":1513:1521  skin.map */\n  dup1\n  add\n    /* \"contracts/HamPepeTraits.sol\":1513:1524  skin.map[1] */\n  0x00\n    /* \"contracts/HamPepeTraits.sol\":1522:1523  1 */\n  0x01\n    /* \"contracts/HamPepeTraits.sol\":1513:1524  skin.map[1] */\n  dup2\n  mstore\n  0x20\n  add\n  swap1\n  dup2\n  mstore\n  0x20\n  add\n  0x00\n  keccak256\n    /* \"contracts/HamPepeTraits.sol\":1513:1537  skin.map[1] = \"Skeleton\" */\n  swap1\n  dup2\n  tag_6\n  swap2\n  swap1\n  tag_7\n  jump\t// in\ntag_6:\n  pop\n    /* \"contracts/HamPepeTraits.sol\":1548:1569  skin.map[2] = \"Robot\" */\n  mload(0x40)\n  dup1\n  0x40\n  add\n  0x40\n  mstore\n  dup1\n  0x05\n  dup2\n  mstore\n  0x20\n  add\n  0x526f626f74000000000000000000000000000000000000000000000000000000\n  dup2\n  mstore\n  pop\n    /* \"contracts/HamPepeTraits.sol\":1548:1552  skin */\n  0x00\n    /* \"contracts/HamPepeTraits.sol\":1548:1556  skin.map */\n  dup1\n  add\n    /* \"contracts/HamPepeTraits.sol\":1548:1559  skin.map[2] */\n  0x00\n    /* \"contracts/HamPepeTraits.sol\":1557:1558  2 */\n  0x02\n    /* \"contracts/HamPepeTraits.sol\":1548:1559  skin.map[2] */\n  dup2\n  mstore\n  0x20\n  add\n  swap1\n  dup2\n  mstore\n  0x20\n  add\n  0x00\n  keccak256\n    /* \"contracts/HamPepeTraits.sol\":1548:1569  skin.map[2] = \"Robot\" */\n  swap1\n  dup2\n  tag_8\n  swap2\n  swap1\n  tag_7\n  jump\t// in\ntag_8:\n  pop\n    /* \"contracts/HamPepeTraits.sol\":1580:1601  skin.map[3] = \"Jelly\" */\n  mload(0x40)\n  dup1\n  0x40\n  add\n  0x40\n  mstore\n  dup1\n  0x05\n  dup2\n  mstore\n  0x20\n  add\n  0x4a656c6c79000000000000000000000000000000000000000000000000000000\n  dup2\n  mstore\n  pop\n    /* \"contracts/HamPepeTraits.sol\":1580:1584  skin */\n  0x00\n    /* \"contracts/HamPepeTraits.sol\":1580:1588  skin.map */\n  dup1\n  add\n    /* \"contracts/HamPepeTraits.sol\":1580:1591  skin.map[3] */\n  0x00\n    /* \"contracts/HamPepeTraits.sol\":1589:1590  3 */\n  0x03\n    /* \"contracts/HamPepeTraits.sol\":1580:1591  skin.map[3] */\n  dup2\n  mstore\n  0x20\n  add\n  swap1\n  dup2\n  mstore\n  0x20\n  add\n  0x00\n  keccak256\n    /* \"contracts/HamPepeTraits.sol\":1580:1601  skin.map[3] = \"Jelly\" */\n  swap1\n  dup2\n  tag_9\n  swap2\n  swap1\n  tag_7\n  jump\t// in\ntag_9:\n  pop\n    /* \"contracts/HamPepeTraits.sol\":1614:1644  pants.map[4] = \"Orange shorts\" */\n  mload(0x40)\n  dup1\n  0x40\n  add\n  0x40\n  mstore\n  dup1\n  0x0d\n  dup2\n  mstore\n  0x20\n  add\n  0x4f72616e67652073686f72747300000000000000000000000000000000000000\n  dup2\n  mstore\n  pop\n    /* \"contracts/HamPepeTraits.sol\":1614:1619  pants */\n  0x01\n    /* \"contracts/HamPepeTraits.sol\":1614:1623  pants.map */\n  0x00\n  add\n    /* \"contracts/HamPepeTraits.sol\":1614:1626  pants.map[4] */\n  0x00\n    /* \"contracts/HamPepeTraits.sol\":1624:1625  4 */\n  0x04\n    /* \"contracts/HamPepeTraits.sol\":1614:1626  pants.map[4] */\n  dup2\n  mstore\n  0x20\n  add\n  swap1\n  dup2\n  mstore\n  0x20\n  add\n  0x00\n  keccak256\n    /* \"contracts/HamPepeTraits.sol\":1614:1644  pants.map[4] = \"Orange shorts\" */\n  swap1\n  dup2\n  tag_10\n  swap2\n  swap1\n  tag_7\n  jump\t// in\ntag_10:\n  pop\n    /* \"contracts/HamPepeTraits.sol\":1655:1683  pants.map[5] = \"Pink shorts\" */\n  mload(0x40)\n  dup1\n  0x40\n  add\n  0x40\n  mstore\n  dup1\n  0x0b\n  dup2\n  mstore\n  0x20\n  add\n  0x50696e6b2073686f727473000000000000000000000000000000000000000000\n  dup2\n  mstore\n  pop\n    /* \"contracts/HamPepeTraits.sol\":1655:1660  pants */\n  0x01\n    /* \"contracts/HamPepeTraits.sol\":1655:1664  pants.map */\n  0x00\n  add\n    /* \"contracts/HamPepeTraits.sol\":1655:1667  pants.map[5] */\n  0x00\n    /* \"contracts/HamPepeTraits.sol\":1665:1666  5 */\n  0x05\n    /* \"contracts/HamPepeTraits.sol\":1655:1667  pants.map[5] */\n  dup2\n  mstore\n  0x20\n  add\n  swap1\n  dup2\n  mstore\n  0x20\n  add\n  0x00\n  keccak256\n    /* \"contracts/HamPepeTraits.sol\":1655:1683  pants.map[5] = \"Pink shorts\" */\n  swap1\n  dup2\n  tag_11\n  swap2\n  swap1\n  tag_7\n  jump\t// in\ntag_11:\n  pop\n    /* \"contracts/HamPepeTraits.sol\":1694:1722  pants.map[6] = \"Grey shorts\" */\n  mload(0x40)\n  dup1\n  0x40\n  add\n  0x40\n  mstore\n  dup1\n  0x0b\n  dup2\n  mstore\n  0x20\n  add\n  0x477265792073686f727473000000000000000000000000000000000000000000\n  dup2\n  mstore\n  pop\n    /* \"contracts/HamPepeTraits.sol\":1694:1699  pants */\n  0x01\n    /* \"contracts/HamPepeTraits.sol\":1694:1703  pants.map */\n  0x00\n  add\n    /* \"contracts/HamPepeTraits.sol\":1694:1706  pants.map[6] */\n  0x00\n    /* \"contracts/HamPepeTraits.sol\":1704:1705  6 */\n  0x06\n    /* \"contracts/HamPepeTraits.sol\":1694:1706  pants.map[6] */\n  dup2\n  mstore\n  0x20\n  add\n  swap1\n  dup2\n  mstore\n  0x20\n  add\n  0x00\n  keccak256\n    /* \"contracts/HamPepeTraits.sol\":1694:1722  pants.map[6] = \"Grey shorts\" */\n  swap1\n  dup2\n  tag_12\n  swap2\n  swap1\n  tag_7\n  jump\t// in\ntag_12:\n  pop\n    /* \"contracts/HamPepeTraits.sol\":1733:1762  pants.map[7] = \"Brown shorts\" */\n  mload(0x40)\n  dup1\n  0x40\n  add\n  0x40\n  mstore\n  dup1\n  0x0c\n  dup2\n  mstore\n  0x20\n  add\n  0x42726f776e2073686f7274730000000000000000000000000000000000000000\n  dup2\n  mstore\n  pop\n    /* \"contracts/HamPepeTraits.sol\":1733:1738  pants */\n  0x01\n    /* \"contracts/HamPepeTraits.sol\":1733:1742  pants.map */\n  0x00\n  add\n    /* \"contracts/HamPepeTraits.sol\":1733:1745  pants.map[7] */\n  0x00\n    /* \"contracts/HamPepeTraits.sol\":1743:1744  7 */\n  0x07\n    /* \"contracts/HamPepeTraits.sol\":1733:1745  pants.map[7] */\n  dup2\n  mstore\n  0x20\n  add\n  swap1\n  dup2\n  mstore\n  0x20\n  add\n  0x00\n  keccak256\n    /* \"contracts/HamPepeTraits.sol\":1733:1762  pants.map[7] = \"Brown shorts\" */\n  swap1\n  dup2\n  tag_13\n  swap2\n  swap1\n  tag_7\n  jump\t// in\ntag_13:\n  pop\n    /* \"contracts/HamPepeTraits.sol\":1775:1802  shirt.map[8] = \"Blue shirt\" */\n  mload(0x40)\n  dup1\n  0x40\n  add\n  0x40\n  mstore\n  dup1\n  0x0a\n  dup2\n  mstore\n  0x20\n  add\n  0x426c756520736869727400000000000000000000000000000000000000000000\n  dup2\n  mstore\n  pop\n    /* \"contracts/HamPepeTraits.sol\":1775:1780  shirt */\n  0x02\n    /* \"contracts/HamPepeTraits.sol\":1775:1784  shirt.map */\n  0x00\n  add\n    /* \"contracts/HamPepeTraits.sol\":1775:1787  shirt.map[8] */\n  0x00\n    /* \"contracts/HamPepeTraits.sol\":1785:1786  8 */\n  0x08\n    /* \"contracts/HamPepeTraits.sol\":1775:1787  shirt.map[8] */\n  dup2\n  mstore\n  0x20\n  add\n  swap1\n  dup2\n  mstore\n  0x20\n  add\n  0x00\n  keccak256\n    /* \"contracts/HamPepeTraits.sol\":1775:1802  shirt.map[8] = \"Blue shirt\" */\n  swap1\n  dup2\n  tag_14\n  swap2\n  swap1\n  tag_7\n  jump\t// in\ntag_14:\n  pop\n    /* \"contracts/HamPepeTraits.sol\":1813:1839  shirt.map[9] = \"Miami DAO\" */\n  mload(0x40)\n  dup1\n  0x40\n  add\n  0x40\n  mstore\n  dup1\n  0x09\n  dup2\n  mstore\n  0x20\n  add\n  0x4d69616d692044414f0000000000000000000000000000000000000000000000\n  dup2\n  mstore\n  pop\n    /* \"contracts/HamPepeTraits.sol\":1813:1818  shirt */\n  0x02\n    /* \"contracts/HamPepeTraits.sol\":1813:1822  shirt.map */\n  0x00\n  add\n    /* \"contracts/HamPepeTraits.sol\":1813:1825  shirt.map[9] */\n  0x00\n    /* \"contracts/HamPepeTraits.sol\":1823:1824  9 */\n  0x09\n    /* \"contracts/HamPepeTraits.sol\":1813:1825  shirt.map[9] */\n  dup2\n  mstore\n  0x20\n  add\n  swap1\n  dup2\n  mstore\n  0x20\n  add\n  0x00\n  keccak256\n    /* \"contracts/HamPepeTraits.sol\":1813:1839  shirt.map[9] = \"Miami DAO\" */\n  swap1\n  dup2\n  tag_15\n  swap2\n  swap1\n  tag_7\n  jump\t// in\ntag_15:\n  pop\n    /* \"contracts/HamPepeTraits.sol\":1850:1876  shirt.map[10] = \"Baseball\" */\n  mload(0x40)\n  dup1\n  0x40\n  add\n  0x40\n  mstore\n  dup1\n  0x08\n  dup2\n  mstore\n  0x20\n  add\n  0x4261736562616c6c000000000000000000000000000000000000000000000000\n  dup2\n  mstore\n  pop\n    /* \"contracts/HamPepeTraits.sol\":1850:1855  shirt */\n  0x02\n    /* \"contracts/HamPepeTraits.sol\":1850:1859  shirt.map */\n  0x00\n  add\n    /* \"contracts/HamPepeTraits.sol\":1850:1863  shirt.map[10] */\n  0x00\n    /* \"contracts/HamPepeTraits.sol\":1860:1862  10 */\n  0x0a\n    /* \"contracts/HamPepeTraits.sol\":1850:1863  shirt.map[10] */\n  dup2\n  mstore\n  0x20\n  add\n  swap1\n  dup2\n  mstore\n  0x20\n  add\n  0x00\n  keccak256\n    /* \"contracts/HamPepeTraits.sol\":1850:1876  shirt.map[10] = \"Baseball\" */\n  swap1\n  dup2\n  tag_16\n  swap2\n  swap1\n  tag_7\n  jump\t// in\ntag_16:\n  pop\n    /* \"contracts/HamPepeTraits.sol\":1887:1913  shirt.map[11] = \"Overalls\" */\n  mload(0x40)\n  dup1\n  0x40\n  add\n  0x40\n  mstore\n  dup1\n  0x08\n  dup2\n  mstore\n  0x20\n  add\n  0x4f766572616c6c73000000000000000000000000000000000000000000000000\n  dup2\n  mstore\n  pop\n    /* \"contracts/HamPepeTraits.sol\":1887:1892  shirt */\n  0x02\n    /* \"contracts/HamPepeTraits.sol\":1887:1896  shirt.map */\n  0x00\n  add\n    /* \"contracts/HamPepeTraits.sol\":1887:1900  shirt.map[11] */\n  0x00\n    /* \"contracts/HamPepeTraits.sol\":1897:1899  11 */\n  0x0b\n    /* \"contracts/HamPepeTraits.sol\":1887:1900  shirt.map[11] */\n  dup2\n  mstore\n  0x20\n  add\n  swap1\n  dup2\n  mstore\n  0x20\n  add\n  0x00\n  keccak256\n    /* \"contracts/HamPepeTraits.sol\":1887:1913  shirt.map[11] = \"Overalls\" */\n  swap1\n  dup2\n  tag_17\n  swap2\n  swap1\n  tag_7\n  jump\t// in\ntag_17:\n  pop\n    /* \"contracts/HamPepeTraits.sol\":1924:1956  shirt.map[12] = \"Unicorn floaty\" */\n  mload(0x40)\n  dup1\n  0x40\n  add\n  0x40\n  mstore\n  dup1\n  0x0e\n  dup2\n  mstore\n  0x20\n  add\n  0x556e69636f726e20666c6f617479000000000000000000000000000000000000\n  dup2\n  mstore\n  pop\n    /* \"contracts/HamPepeTraits.sol\":1924:1929  shirt */\n  0x02\n    /* \"contracts/HamPepeTraits.sol\":1924:1933  shirt.map */\n  0x00\n  add\n    /* \"contracts/HamPepeTraits.sol\":1924:1937  shirt.map[12] */\n  0x00\n    /* \"contracts/HamPepeTraits.sol\":1934:1936  12 */\n  0x0c\n    /* \"contracts/HamPepeTraits.sol\":1924:1937  shirt.map[12] */\n  dup2\n  mstore\n  0x20\n  add\n  swap1\n  dup2\n  mstore\n  0x20\n  add\n  0x00\n  keccak256\n    /* \"contracts/HamPepeTraits.sol\":1924:1956  shirt.map[12] = \"Unicorn floaty\" */\n  swap1\n  dup2\n  tag_18\n  swap2\n  swap1\n  tag_7\n  jump\t// in\ntag_18:\n  pop\n    /* \"contracts/HamPepeTraits.sol\":1967:2000  shirt.map[13] = \"Black tracksuit\" */\n  mload(0x40)\n  dup1\n  0x40\n  add\n  0x40\n  mstore\n  dup1\n  0x0f\n  dup2\n  mstore\n  0x20\n  add\n  0x426c61636b20747261636b737569740000000000000000000000000000000000\n  dup2\n  mstore\n  pop\n    /* \"contracts/HamPepeTraits.sol\":1967:1972  shirt */\n  0x02\n    /* \"contracts/HamPepeTraits.sol\":1967:1976  shirt.map */\n  0x00\n  add\n    /* \"contracts/HamPepeTraits.sol\":1967:1980  shirt.map[13] */\n  0x00\n    /* \"contracts/HamPepeTraits.sol\":1977:1979  13 */\n  0x0d\n    /* \"contracts/HamPepeTraits.sol\":1967:1980  shirt.map[13] */\n  dup2\n  mstore\n  0x20\n  add\n  swap1\n  dup2\n  mstore\n  0x20\n  add\n  0x00\n  keccak256\n    /* \"contracts/HamPepeTraits.sol\":1967:2000  shirt.map[13] = \"Black tracksuit\" */\n  swap1\n  dup2\n  tag_19\n  swap2\n  swap1\n  tag_7\n  jump\t// in\ntag_19:\n  pop\n    /* \"contracts/HamPepeTraits.sol\":2011:2042  shirt.map[14] = \"Red tracksuit\" */\n  mload(0x40)\n  dup1\n  0x40\n  add\n  0x40\n  mstore\n  dup1\n  0x0d\n  dup2\n  mstore\n  0x20\n  add\n  0x52656420747261636b7375697400000000000000000000000000000000000000\n  dup2\n  mstore\n  pop\n    /* \"contracts/HamPepeTraits.sol\":2011:2016  shirt */\n  0x02\n    /* \"contracts/HamPepeTraits.sol\":2011:2020  shirt.map */\n  0x00\n  add\n    /* \"contracts/HamPepeTraits.sol\":2011:2024  shirt.map[14] */\n  0x00\n    /* \"contracts/HamPepeTraits.sol\":2021:2023  14 */\n  0x0e\n    /* \"contracts/HamPepeTraits.sol\":2011:2024  shirt.map[14] */\n  dup2\n  mstore\n  0x20\n  add\n  swap1\n  dup2\n  mstore\n  0x20\n  add\n  0x00\n  keccak256\n    /* \"contracts/HamPepeTraits.sol\":2011:2042  shirt.map[14] = \"Red tracksuit\" */\n  swap1\n  dup2\n  tag_20\n  swap2\n  swap1\n  tag_7\n  jump\t// in\ntag_20:\n  pop\n    /* \"contracts/HamPepeTraits.sol\":2053:2079  shirt.map[15] = \"Raincoat\" */\n  mload(0x40)\n  dup1\n  0x40\n  add\n  0x40\n  mstore\n  dup1\n  0x08\n  dup2\n  mstore\n  0x20\n  add\n  0x5261696e636f6174000000000000000000000000000000000000000000000000\n  dup2\n  mstore\n  pop\n    /* \"contracts/HamPepeTraits.sol\":2053:2058  shirt */\n  0x02\n    /* \"contracts/HamPepeTraits.sol\":2053:2062  shirt.map */\n  0x00\n  add\n    /* \"contracts/HamPepeTraits.sol\":2053:2066  shirt.map[15] */\n  0x00\n    /* \"contracts/HamPepeTraits.sol\":2063:2065  15 */\n  0x0f\n    /* \"contracts/HamPepeTraits.sol\":2053:2066  shirt.map[15] */\n  dup2\n  mstore\n  0x20\n  add\n  swap1\n  dup2\n  mstore\n  0x20\n  add\n  0x00\n  keccak256\n    /* \"contracts/HamPepeTraits.sol\":2053:2079  shirt.map[15] = \"Raincoat\" */\n  swap1\n  dup2\n  tag_21\n  swap2\n  swap1\n  tag_7\n  jump\t// in\ntag_21:\n  pop\n    /* \"contracts/HamPepeTraits.sol\":2090:2117  shirt.map[16] = \"Fast food\" */\n  mload(0x40)\n  dup1\n  0x40\n  add\n  0x40\n  mstore\n  dup1\n  0x09\n  dup2\n  mstore\n  0x20\n  add\n  0x4661737420666f6f640000000000000000000000000000000000000000000000\n  dup2\n  mstore\n  pop\n    /* \"contracts/HamPepeTraits.sol\":2090:2095  shirt */\n  0x02\n    /* \"contracts/HamPepeTraits.sol\":2090:2099  shirt.map */\n  0x00\n  add\n    /* \"contracts/HamPepeTraits.sol\":2090:2103  shirt.map[16] */\n  0x00\n    /* \"contracts/HamPepeTraits.sol\":2100:2102  16 */\n  0x10\n    /* \"contracts/HamPepeTraits.sol\":2090:2103  shirt.map[16] */\n  dup2\n  mstore\n  0x20\n  add\n  swap1\n  dup2\n  mstore\n  0x20\n  add\n  0x00\n  keccak256\n    /* \"contracts/HamPepeTraits.sol\":2090:2117  shirt.map[16] = \"Fast food\" */\n  swap1\n  dup2\n  tag_22\n  swap2\n  swap1\n  tag_7\n  jump\t// in\ntag_22:\n  pop\n    /* \"contracts/HamPepeTraits.sol\":2130:2153  eyes.map[17] = \"Shades\" */\n  mload(0x40)\n  dup1\n  0x40\n  add\n  0x40\n  mstore\n  dup1\n  0x06\n  dup2\n  mstore\n  0x20\n  add\n  0x5368616465730000000000000000000000000000000000000000000000000000\n  dup2\n  mstore\n  pop\n    /* \"contracts/HamPepeTraits.sol\":2130:2134  eyes */\n  0x03\n    /* \"contracts/HamPepeTraits.sol\":2130:2138  eyes.map */\n  0x00\n  add\n    /* \"contracts/HamPepeTraits.sol\":2130:2142  eyes.map[17] */\n  0x00\n    /* \"contracts/HamPepeTraits.sol\":2139:2141  17 */\n  0x11\n    /* \"contracts/HamPepeTraits.sol\":2130:2142  eyes.map[17] */\n  dup2\n  mstore\n  0x20\n  add\n  swap1\n  dup2\n  mstore\n  0x20\n  add\n  0x00\n  keccak256\n    /* \"contracts/HamPepeTraits.sol\":2130:2153  eyes.map[17] = \"Shades\" */\n  swap1\n  dup2\n  tag_23\n  swap2\n  swap1\n  tag_7\n  jump\t// in\ntag_23:\n  pop\n    /* \"contracts/HamPepeTraits.sol\":2164:2190  eyes.map[18] = \"Sunnyside\" */\n  mload(0x40)\n  dup1\n  0x40\n  add\n  0x40\n  mstore\n  dup1\n  0x09\n  dup2\n  mstore\n  0x20\n  add\n  0x53756e6e79736964650000000000000000000000000000000000000000000000\n  dup2\n  mstore\n  pop\n    /* \"contracts/HamPepeTraits.sol\":2164:2168  eyes */\n  0x03\n    /* \"contracts/HamPepeTraits.sol\":2164:2172  eyes.map */\n  0x00\n  add\n    /* \"contracts/HamPepeTraits.sol\":2164:2176  eyes.map[18] */\n  0x00\n    /* \"contracts/HamPepeTraits.sol\":2173:2175  18 */\n  0x12\n    /* \"contracts/HamPepeTraits.sol\":2164:2176  eyes.map[18] */\n  dup2\n  mstore\n  0x20\n  add\n  swap1\n  dup2\n  mstore\n  0x20\n  add\n  0x00\n  keccak256\n    /* \"contracts/HamPepeTraits.sol\":2164:2190  eyes.map[18] = \"Sunnyside\" */\n  swap1\n  dup2\n  tag_24\n  swap2\n  swap1\n  tag_7\n  jump\t// in\ntag_24:\n  pop\n    /* \"contracts/HamPepeTraits.sol\":2201:2225  eyes.map[19] = \"Noggles\" */\n  mload(0x40)\n  dup1\n  0x40\n  add\n  0x40\n  mstore\n  dup1\n  0x07\n  dup2\n  mstore\n  0x20\n  add\n  0x4e6f67676c657300000000000000000000000000000000000000000000000000\n  dup2\n  mstore\n  pop\n    /* \"contracts/HamPepeTraits.sol\":2201:2205  eyes */\n  0x03\n    /* \"contracts/HamPepeTraits.sol\":2201:2209  eyes.map */\n  0x00\n  add\n    /* \"contracts/HamPepeTraits.sol\":2201:2213  eyes.map[19] */\n  0x00\n    /* \"contracts/HamPepeTraits.sol\":2210:2212  19 */\n  0x13\n    /* \"contracts/HamPepeTraits.sol\":2201:2213  eyes.map[19] */\n  dup2\n  mstore\n  0x20\n  add\n  swap1\n  dup2\n  mstore\n  0x20\n  add\n  0x00\n  keccak256\n    /* \"contracts/HamPepeTraits.sol\":2201:2225  eyes.map[19] = \"Noggles\" */\n  swap1\n  dup2\n  tag_25\n  swap2\n  swap1\n  tag_7\n  jump\t// in\ntag_25:\n  pop\n    /* \"contracts/HamPepeTraits.sol\":2236:2263  eyes.map[20] = \"3D Glasses\" */\n  mload(0x40)\n  dup1\n  0x40\n  add\n  0x40\n  mstore\n  dup1\n  0x0a\n  dup2\n  mstore\n  0x20\n  add\n  0x334420476c617373657300000000000000000000000000000000000000000000\n  dup2\n  mstore\n  pop\n    /* \"contracts/HamPepeTraits.sol\":2236:2240  eyes */\n  0x03\n    /* \"contracts/HamPepeTraits.sol\":2236:2244  eyes.map */\n  0x00\n  add\n    /* \"contracts/HamPepeTraits.sol\":2236:2248  eyes.map[20] */\n  0x00\n    /* \"contracts/HamPepeTraits.sol\":2245:2247  20 */\n  0x14\n    /* \"contracts/HamPepeTraits.sol\":2236:2248  eyes.map[20] */\n  dup2\n  mstore\n  0x20\n  add\n  swap1\n  dup2\n  mstore\n  0x20\n  add\n  0x00\n  keccak256\n    /* \"contracts/HamPepeTraits.sol\":2236:2263  eyes.map[20] = \"3D Glasses\" */\n  swap1\n  dup2\n  tag_26\n  swap2\n  swap1\n  tag_7\n  jump\t// in\ntag_26:\n  pop\n    /* \"contracts/HamPepeTraits.sol\":2274:2297  eyes.map[21] = \"Smoked\" */\n  mload(0x40)\n  dup1\n  0x40\n  add\n  0x40\n  mstore\n  dup1\n  0x06\n  dup2\n  mstore\n  0x20\n  add\n  0x536d6f6b65640000000000000000000000000000000000000000000000000000\n  dup2\n  mstore\n  pop\n    /* \"contracts/HamPepeTraits.sol\":2274:2278  eyes */\n  0x03\n    /* \"contracts/HamPepeTraits.sol\":2274:2282  eyes.map */\n  0x00\n  add\n    /* \"contracts/HamPepeTraits.sol\":2274:2286  eyes.map[21] */\n  0x00\n    /* \"contracts/HamPepeTraits.sol\":2283:2285  21 */\n  0x15\n    /* \"contracts/HamPepeTraits.sol\":2274:2286  eyes.map[21] */\n  dup2\n  mstore\n  0x20\n  add\n  swap1\n  dup2\n  mstore\n  0x20\n  add\n  0x00\n  keccak256\n    /* \"contracts/HamPepeTraits.sol\":2274:2297  eyes.map[21] = \"Smoked\" */\n  swap1\n  dup2\n  tag_27\n  swap2\n  swap1\n  tag_7\n  jump\t// in\ntag_27:\n  pop\n    /* \"contracts/HamPepeTraits.sol\":2308:2329  eyes.map[22] = \"Mask\" */\n  mload(0x40)\n  dup1\n  0x40\n  add\n  0x40\n  mstore\n  dup1\n  0x04\n  dup2\n  mstore\n  0x20\n  add\n  0x4d61736b00000000000000000000000000000000000000000000000000000000\n  dup2\n  mstore\n  pop\n    /* \"contracts/HamPepeTraits.sol\":2308:2312  eyes */\n  0x03\n    /* \"contracts/HamPepeTraits.sol\":2308:2316  eyes.map */\n  0x00\n  add\n    /* \"contracts/HamPepeTraits.sol\":2308:2320  eyes.map[22] */\n  0x00\n    /* \"contracts/HamPepeTraits.sol\":2317:2319  22 */\n  0x16\n    /* \"contracts/HamPepeTraits.sol\":2308:2320  eyes.map[22] */\n  dup2\n  mstore\n  0x20\n  add\n  swap1\n  dup2\n  mstore\n  0x20\n  add\n  0x00\n  keccak256\n    /* \"contracts/HamPepeTraits.sol\":2308:2329  eyes.map[22] = \"Mask\" */\n  swap1\n  dup2\n  tag_28\n  swap2\n  swap1\n  tag_7\n  jump\t// in\ntag_28:\n  pop\n    /* \"contracts/HamPepeTraits.sol\":2340:2361  eyes.map[23] = \"Cool\" */\n  mload(0x40)\n  dup1\n  0x40\n  add\n  0x40\n  mstore\n  dup1\n  0x04\n  dup2\n  mstore\n  0x20\n  add\n  0x436f6f6c00000000000000000000000000000000000000000000000000000000\n  dup2\n  mstore\n  pop\n    /* \"contracts/HamPepeTraits.sol\":2340:2344  eyes */\n  0x03\n    /* \"contracts/HamPepeTraits.sol\":2340:2348  eyes.map */\n  0x00\n  add\n    /* \"contracts/HamPepeTraits.sol\":2340:2352  eyes.map[23] */\n  0x00\n    /* \"contracts/HamPepeTraits.sol\":2349:2351  23 */\n  0x17\n    /* \"contracts/HamPepeTraits.sol\":2340:2352  eyes.map[23] */\n  dup2\n  mstore\n  0x20\n  add\n  swap1\n  dup2\n  mstore\n  0x20\n  add\n  0x00\n  keccak256\n    /* \"contracts/HamPepeTraits.sol\":2340:2361  eyes.map[23] = \"Cool\" */\n  swap1\n  dup2\n  tag_29\n  swap2\n  swap1\n  tag_7\n  jump\t// in\ntag_29:\n  pop\n    /* \"contracts/HamPepeTraits.sol\":2372:2394  eyes.map[24] = \"Viper\" */\n  mload(0x40)\n  dup1\n  0x40\n  add\n  0x40\n  mstore\n  dup1\n  0x05\n  dup2\n  mstore\n  0x20\n  add\n  0x5669706572000000000000000000000000000000000000000000000000000000\n  dup2\n  mstore\n  pop\n    /* \"contracts/HamPepeTraits.sol\":2372:2376  eyes */\n  0x03\n    /* \"contracts/HamPepeTraits.sol\":2372:2380  eyes.map */\n  0x00\n  add\n    /* \"contracts/HamPepeTraits.sol\":2372:2384  eyes.map[24] */\n  0x00\n    /* \"contracts/HamPepeTraits.sol\":2381:2383  24 */\n  0x18\n    /* \"contracts/HamPepeTraits.sol\":2372:2384  eyes.map[24] */\n  dup2\n  mstore\n  0x20\n  add\n  swap1\n  dup2\n  mstore\n  0x20\n  add\n  0x00\n  keccak256\n    /* \"contracts/HamPepeTraits.sol\":2372:2394  eyes.map[24] = \"Viper\" */\n  swap1\n  dup2\n  tag_30\n  swap2\n  swap1\n  tag_7\n  jump\t// in\ntag_30:\n  pop\n    /* \"contracts/HamPepeTraits.sol\":2407:2430  hat.map[25] = \"Classic\" */\n  mload(0x40)\n  dup1\n  0x40\n  add\n  0x40\n  mstore\n  dup1\n  0x07\n  dup2\n  mstore\n  0x20\n  add\n  0x436c617373696300000000000000000000000000000000000000000000000000\n  dup2\n  mstore\n  pop\n    /* \"contracts/HamPepeTraits.sol\":2407:2410  hat */\n  0x04\n    /* \"contracts/HamPepeTraits.sol\":2407:2414  hat.map */\n  0x00\n  add\n    /* \"contracts/HamPepeTraits.sol\":2407:2418  hat.map[25] */\n  0x00\n    /* \"contracts/HamPepeTraits.sol\":2415:2417  25 */\n  0x19\n    /* \"contracts/HamPepeTraits.sol\":2407:2418  hat.map[25] */\n  dup2\n  mstore\n  0x20\n  add\n  swap1\n  dup2\n  mstore\n  0x20\n  add\n  0x00\n  keccak256\n    /* \"contracts/HamPepeTraits.sol\":2407:2430  hat.map[25] = \"Classic\" */\n  swap1\n  dup2\n  tag_31\n  swap2\n  swap1\n  tag_7\n  jump\t// in\ntag_31:\n  pop\n    /* \"contracts/HamPepeTraits.sol\":2441:2462  hat.map[26] = \"Degen\" */\n  mload(0x40)\n  dup1\n  0x40\n  add\n  0x40\n  mstore\n  dup1\n  0x05\n  dup2\n  mstore\n  0x20\n  add\n  0x446567656e000000000000000000000000000000000000000000000000000000\n  dup2\n  mstore\n  pop\n    /* \"contracts/HamPepeTraits.sol\":2441:2444  hat */\n  0x04\n    /* \"contracts/HamPepeTraits.sol\":2441:2448  hat.map */\n  0x00\n  add\n    /* \"contracts/HamPepeTraits.sol\":2441:2452  hat.map[26] */\n  0x00\n    /* \"contracts/HamPepeTraits.sol\":2449:2451  26 */\n  0x1a\n    /* \"contracts/HamPepeTraits.sol\":2441:2452  hat.map[26] */\n  dup2\n  mstore\n  0x20\n  add\n  swap1\n  dup2\n  mstore\n  0x20\n  add\n  0x00\n  keccak256\n    /* \"contracts/HamPepeTraits.sol\":2441:2462  hat.map[26] = \"Degen\" */\n  swap1\n  dup2\n  tag_32\n  swap2\n  swap1\n  tag_7\n  jump\t// in\ntag_32:\n  pop\n    /* \"contracts/HamPepeTraits.sol\":2473:2495  hat.map[27] = \"Wizard\" */\n  mload(0x40)\n  dup1\n  0x40\n  add\n  0x40\n  mstore\n  dup1\n  0x06\n  dup2\n  mstore\n  0x20\n  add\n  0x57697a6172640000000000000000000000000000000000000000000000000000\n  dup2\n  mstore\n  pop\n    /* \"contracts/HamPepeTraits.sol\":2473:2476  hat */\n  0x04\n    /* \"contracts/HamPepeTraits.sol\":2473:2480  hat.map */\n  0x00\n  add\n    /* \"contracts/HamPepeTraits.sol\":2473:2484  hat.map[27] */\n  0x00\n    /* \"contracts/HamPepeTraits.sol\":2481:2483  27 */\n  0x1b\n    /* \"contracts/HamPepeTraits.sol\":2473:2484  hat.map[27] */\n  dup2\n  mstore\n  0x20\n  add\n  swap1\n  dup2\n  mstore\n  0x20\n  add\n  0x00\n  keccak256\n    /* \"contracts/HamPepeTraits.sol\":2473:2495  hat.map[27] = \"Wizard\" */\n  swap1\n  dup2\n  tag_33\n  swap2\n  swap1\n  tag_7\n  jump\t// in\ntag_33:\n  pop\n    /* \"contracts/HamPepeTraits.sol\":2506:2527  hat.map[28] = \"Based\" */\n  mload(0x40)\n  dup1\n  0x40\n  add\n  0x40\n  mstore\n  dup1\n  0x05\n  dup2\n  mstore\n  0x20\n  add\n  0x4261736564000000000000000000000000000000000000000000000000000000\n  dup2\n  mstore\n  pop\n    /* \"contracts/HamPepeTraits.sol\":2506:2509  hat */\n  0x04\n    /* \"contracts/HamPepeTraits.sol\":2506:2513  hat.map */\n  0x00\n  add\n    /* \"contracts/HamPepeTraits.sol\":2506:2517  hat.map[28] */\n  0x00\n    /* \"contracts/HamPepeTraits.sol\":2514:2516  28 */\n  0x1c\n    /* \"contracts/HamPepeTraits.sol\":2506:2517  hat.map[28] */\n  dup2\n  mstore\n  0x20\n  add\n  swap1\n  dup2\n  mstore\n  0x20\n  add\n  0x00\n  keccak256\n    /* \"contracts/HamPepeTraits.sol\":2506:2527  hat.map[28] = \"Based\" */\n  swap1\n  dup2\n  tag_34\n  swap2\n  swap1\n  tag_7\n  jump\t// in\ntag_34:\n  pop\n    /* \"contracts/HamPepeTraits.sol\":2538:2557  hat.map[29] = \"Fez\" */\n  mload(0x40)\n  dup1\n  0x40\n  add\n  0x40\n  mstore\n  dup1\n  0x03\n  dup2\n  mstore\n  0x20\n  add\n  0x46657a0000000000000000000000000000000000000000000000000000000000\n  dup2\n  mstore\n  pop\n    /* \"contracts/HamPepeTraits.sol\":2538:2541  hat */\n  0x04\n    /* \"contracts/HamPepeTraits.sol\":2538:2545  hat.map */\n  0x00\n  add\n    /* \"contracts/HamPepeTraits.sol\":2538:2549  hat.map[29] */\n  0x00\n    /* \"contracts/HamPepeTraits.sol\":2546:2548  29 */\n  0x1d\n    /* \"contracts/HamPepeTraits.sol\":2538:2549  hat.map[29] */\n  dup2\n  mstore\n  0x20\n  add\n  swap1\n  dup2\n  mstore\n  0x20\n  add\n  0x00\n  keccak256\n    /* \"contracts/HamPepeTraits.sol\":2538:2557  hat.map[29] = \"Fez\" */\n  swap1\n  dup2\n  tag_35\n  swap2\n  swap1\n  tag_7\n  jump\t// in\ntag_35:\n  pop\n    /* \"contracts/HamPepeTraits.sol\":2568:2594  hat.map[30] = \"Headphones\" */\n  mload(0x40)\n  dup1\n  0x40\n  add\n  0x40\n  mstore\n  dup1\n  0x0a\n  dup2\n  mstore\n  0x20\n  add\n  0x4865616470686f6e657300000000000000000000000000000000000000000000\n  dup2\n  mstore\n  pop\n    /* \"contracts/HamPepeTraits.sol\":2568:2571  hat */\n  0x04\n    /* \"contracts/HamPepeTraits.sol\":2568:2575  hat.map */\n  0x00\n  add\n    /* \"contracts/HamPepeTraits.sol\":2568:2579  hat.map[30] */\n  0x00\n    /* \"contracts/HamPepeTraits.sol\":2576:2578  30 */\n  0x1e\n    /* \"contracts/HamPepeTraits.sol\":2568:2579  hat.map[30] */\n  dup2\n  mstore\n  0x20\n  add\n  swap1\n  dup2\n  mstore\n  0x20\n  add\n  0x00\n  keccak256\n    /* \"contracts/HamPepeTraits.sol\":2568:2594  hat.map[30] = \"Headphones\" */\n  swap1\n  dup2\n  tag_36\n  swap2\n  swap1\n  tag_7\n  jump\t// in\ntag_36:\n  pop\n    /* \"contracts/HamPepeTraits.sol\":2605:2625  hat.map[31] = \"Halo\" */\n  mload(0x40)\n  dup1\n  0x40\n  add\n  0x40\n  mstore\n  dup1\n  0x04\n  dup2\n  mstore\n  0x20\n  add\n  0x48616c6f00000000000000000000000000000000000000000000000000000000\n  dup2\n  mstore\n  pop\n    /* \"contracts/HamPepeTraits.sol\":2605:2608  hat */\n  0x04\n    /* \"contracts/HamPepeTraits.sol\":2605:2612  hat.map */\n  0x00\n  add\n    /* \"contracts/HamPepeTraits.sol\":2605:2616  hat.map[31] */\n  0x00\n    /* \"contracts/HamPepeTraits.sol\":2613:2615  31 */\n  0x1f\n    /* \"contracts/HamPepeTraits.sol\":2605:2616  hat.map[31] */\n  dup2\n  mstore\n  0x20\n  add\n  swap1\n  dup2\n  mstore\n  0x20\n  add\n  0x00\n  keccak256\n    /* \"contracts/HamPepeTraits.sol\":2605:2625  hat.map[31] = \"Halo\" */\n  swap1\n  dup2\n  tag_37\n  swap2\n  swap1\n  tag_7\n  jump\t// in\ntag_37:\n  pop\n    /* \"contracts/HamPepeTraits.sol\":2636:2658  hat.map[32] = \"Cowboy\" */\n  mload(0x40)\n  dup1\n  0x40\n  add\n  0x40\n  mstore\n  dup1\n  0x06\n  dup2\n  mstore\n  0x20\n  add\n  0x436f77626f790000000000000000000000000000000000000000000000000000\n  dup2\n  mstore\n  pop\n    /* \"contracts/HamPepeTraits.sol\":2636:2639  hat */\n  0x04\n    /* \"contracts/HamPepeTraits.sol\":2636:2643  hat.map */\n  0x00\n  add\n    /* \"contracts/HamPepeTraits.sol\":2636:2647  hat.map[32] */\n  0x00\n    /* \"contracts/HamPepeTraits.sol\":2644:2646  32 */\n  0x20\n    /* \"contracts/HamPepeTraits.sol\":2636:2647  hat.map[32] */\n  dup2\n  mstore\n  0x20\n  add\n  swap1\n  dup2\n  mstore\n  0x20\n  add\n  0x00\n  keccak256\n    /* \"contracts/HamPepeTraits.sol\":2636:2658  hat.map[32] = \"Cowboy\" */\n  swap1\n  dup2\n  tag_38\n  swap2\n  swap1\n  tag_7\n  jump\t// in\ntag_38:\n  pop\n    /* \"contracts/HamPepeTraits.sol\":2669:2692  hat.map[33] = \"Spinner\" */\n  mload(0x40)\n  dup1\n  0x40\n  add\n  0x40\n  mstore\n  dup1\n  0x07\n  dup2\n  mstore\n  0x20\n  add\n  0x5370696e6e657200000000000000000000000000000000000000000000000000\n  dup2\n  mstore\n  pop\n    /* \"contracts/HamPepeTraits.sol\":2669:2672  hat */\n  0x04\n    /* \"contracts/HamPepeTraits.sol\":2669:2676  hat.map */\n  0x00\n  add\n    /* \"contracts/HamPepeTraits.sol\":2669:2680  hat.map[33] */\n  0x00\n    /* \"contracts/HamPepeTraits.sol\":2677:2679  33 */\n  0x21\n    /* \"contracts/HamPepeTraits.sol\":2669:2680  hat.map[33] */\n  dup2\n  mstore\n  0x20\n  add\n  swap1\n  dup2\n  mstore\n  0x20\n  add\n  0x00\n  keccak256\n    /* \"contracts/HamPepeTraits.sol\":2669:2692  hat.map[33] = \"Spinner\" */\n  swap1\n  dup2\n  tag_39\n  swap2\n  swap1\n  tag_7\n  jump\t// in\ntag_39:\n  pop\n    /* \"contracts/HamPepeTraits.sol\":2703:2723  hat.map[34] = \"Band\" */\n  mload(0x40)\n  dup1\n  0x40\n  add\n  0x40\n  mstore\n  dup1\n  0x04\n  dup2\n  mstore\n  0x20\n  add\n  0x42616e6400000000000000000000000000000000000000000000000000000000\n  dup2\n  mstore\n  pop\n    /* \"contracts/HamPepeTraits.sol\":2703:2706  hat */\n  0x04\n    /* \"contracts/HamPepeTraits.sol\":2703:2710  hat.map */\n  0x00\n  add\n    /* \"contracts/HamPepeTraits.sol\":2703:2714  hat.map[34] */\n  0x00\n    /* \"contracts/HamPepeTraits.sol\":2711:2713  34 */\n  0x22\n    /* \"contracts/HamPepeTraits.sol\":2703:2714  hat.map[34] */\n  dup2\n  mstore\n  0x20\n  add\n  swap1\n  dup2\n  mstore\n  0x20\n  add\n  0x00\n  keccak256\n    /* \"contracts/HamPepeTraits.sol\":2703:2723  hat.map[34] = \"Band\" */\n  swap1\n  dup2\n  tag_40\n  swap2\n  swap1\n  tag_7\n  jump\t// in\ntag_40:\n  pop\n    /* \"contracts/HamPepeTraits.sol\":2734:2756  hat.map[35] = \"Beanie\" */\n  mload(0x40)\n  dup1\n  0x40\n  add\n  0x40\n  mstore\n  dup1\n  0x06\n  dup2\n  mstore\n  0x20\n  add\n  0x4265616e69650000000000000000000000000000000000000000000000000000\n  dup2\n  mstore\n  pop\n    /* \"contracts/HamPepeTraits.sol\":2734:2737  hat */\n  0x04\n    /* \"contracts/HamPepeTraits.sol\":2734:2741  hat.map */\n  0x00\n  add\n    /* \"contracts/HamPepeTraits.sol\":2734:2745  hat.map[35] */\n  0x00\n    /* \"contracts/HamPepeTraits.sol\":2742:2744  35 */\n  0x23\n    /* \"contracts/HamPepeTraits.sol\":2734:2745  hat.map[35] */\n  dup2\n  mstore\n  0x20\n  add\n  swap1\n  dup2\n  mstore\n  0x20\n  add\n  0x00\n  keccak256\n    /* \"contracts/HamPepeTraits.sol\":2734:2756  hat.map[35] = \"Beanie\" */\n  swap1\n  dup2\n  tag_41\n  swap2\n  swap1\n  tag_7\n  jump\t// in\ntag_41:\n  pop\n    /* \"contracts/HamPepeTraits.sol\":2767:2789  hat.map[36] = \"Sprout\" */\n  mload(0x40)\n  dup1\n  0x40\n  add\n  0x40\n  mstore\n  dup1\n  0x06\n  dup2\n  mstore\n  0x20\n  add\n  0x5370726f75740000000000000000000000000000000000000000000000000000\n  dup2\n  mstore\n  pop\n    /* \"contracts/HamPepeTraits.sol\":2767:2770  hat */\n  0x04\n    /* \"contracts/HamPepeTraits.sol\":2767:2774  hat.map */\n  0x00\n  add\n    /* \"contracts/HamPepeTraits.sol\":2767:2778  hat.map[36] */\n  0x00\n    /* \"contracts/HamPepeTraits.sol\":2775:2777  36 */\n  0x24\n    /* \"contracts/HamPepeTraits.sol\":2767:2778  hat.map[36] */\n  dup2\n  mstore\n  0x20\n  add\n  swap1\n  dup2\n  mstore\n  0x20\n  add\n  0x00\n  keccak256\n    /* \"contracts/HamPepeTraits.sol\":2767:2789  hat.map[36] = \"Sprout\" */\n  swap1\n  dup2\n  tag_42\n  swap2\n  swap1\n  tag_7\n  jump\t// in\ntag_42:\n  pop\n    /* \"contracts/HamPepeTraits.sol\":2800:2821  hat.map[37] = \"Crown\" */\n  mload(0x40)\n  dup1\n  0x40\n  add\n  0x40\n  mstore\n  dup1\n  0x05\n  dup2\n  mstore\n  0x20\n  add\n  0x43726f776e000000000000000000000000000000000000000000000000000000\n  dup2\n  mstore\n  pop\n    /* \"contracts/HamPepeTraits.sol\":2800:2803  hat */\n  0x04\n    /* \"contracts/HamPepeTraits.sol\":2800:2807  hat.map */\n  0x00\n  add\n    /* \"contracts/HamPepeTraits.sol\":2800:2811  hat.map[37] */\n  0x00\n    /* \"contracts/HamPepeTraits.sol\":2808:2810  37 */\n  0x25\n    /* \"contracts/HamPepeTraits.sol\":2800:2811  hat.map[37] */\n  dup2\n  mstore\n  0x20\n  add\n  swap1\n  dup2\n  mstore\n  0x20\n  add\n  0x00\n  keccak256\n    /* \"contracts/HamPepeTraits.sol\":2800:2821  hat.map[37] = \"Crown\" */\n  swap1\n  dup2\n  tag_43\n  swap2\n  swap1\n  tag_7\n  jump\t// in\ntag_43:\n  pop\n    /* \"contracts/HamPepeTraits.sol\":2832:2854  hat.map[38] = \"Pirate\" */\n  mload(0x40)\n  dup1\n  0x40\n  add\n  0x40\n  mstore\n  dup1\n  0x06\n  dup2\n  mstore\n  0x20\n  add\n  0x5069726174650000000000000000000000000000000000000000000000000000\n  dup2\n  mstore\n  pop\n    /* \"contracts/HamPepeTraits.sol\":2832:2835  hat */\n  0x04\n    /* \"contracts/HamPepeTraits.sol\":2832:2839  hat.map */\n  0x00\n  add\n    /* \"contracts/HamPepeTraits.sol\":2832:2843  hat.map[38] */\n  0x00\n    /* \"contracts/HamPepeTraits.sol\":2840:2842  38 */\n  0x26\n    /* \"contracts/HamPepeTraits.sol\":2832:2843  hat.map[38] */\n  dup2\n  mstore\n  0x20\n  add\n  swap1\n  dup2\n  mstore\n  0x20\n  add\n  0x00\n  keccak256\n    /* \"contracts/HamPepeTraits.sol\":2832:2854  hat.map[38] = \"Pirate\" */\n  swap1\n  dup2\n  tag_44\n  swap2\n  swap1\n  tag_7\n  jump\t// in\ntag_44:\n  pop\n    /* \"contracts/HamPepeTraits.sol\":2865:2886  hat.map[39] = \"Party\" */\n  mload(0x40)\n  dup1\n  0x40\n  add\n  0x40\n  mstore\n  dup1\n  0x05\n  dup2\n  mstore\n  0x20\n  add\n  0x5061727479000000000000000000000000000000000000000000000000000000\n  dup2\n  mstore\n  pop\n    /* \"contracts/HamPepeTraits.sol\":2865:2868  hat */\n  0x04\n    /* \"contracts/HamPepeTraits.sol\":2865:2872  hat.map */\n  0x00\n  add\n    /* \"contracts/HamPepeTraits.sol\":2865:2876  hat.map[39] */\n  0x00\n    /* \"contracts/HamPepeTraits.sol\":2873:2875  39 */\n  0x27\n    /* \"contracts/HamPepeTraits.sol\":2865:2876  hat.map[39] */\n  dup2\n  mstore\n  0x20\n  add\n  swap1\n  dup2\n  mstore\n  0x20\n  add\n  0x00\n  keccak256\n    /* \"contracts/HamPepeTraits.sol\":2865:2886  hat.map[39] = \"Party\" */\n  swap1\n  dup2\n  tag_45\n  swap2\n  swap1\n  tag_7\n  jump\t// in\ntag_45:\n  pop\n    /* \"contracts/HamPepeTraits.sol\":2897:2923  hat.map[40] = \"Leprechaun\" */\n  mload(0x40)\n  dup1\n  0x40\n  add\n  0x40\n  mstore\n  dup1\n  0x0a\n  dup2\n  mstore\n  0x20\n  add\n  0x4c65707265636861756e00000000000000000000000000000000000000000000\n  dup2\n  mstore\n  pop\n    /* \"contracts/HamPepeTraits.sol\":2897:2900  hat */\n  0x04\n    /* \"contracts/HamPepeTraits.sol\":2897:2904  hat.map */\n  0x00\n  add\n    /* \"contracts/HamPepeTraits.sol\":2897:2908  hat.map[40] */\n  0x00\n    /* \"contracts/HamPepeTraits.sol\":2905:2907  40 */\n  0x28\n    /* \"contracts/HamPepeTraits.sol\":2897:2908  hat.map[40] */\n  dup2\n  mstore\n  0x20\n  add\n  swap1\n  dup2\n  mstore\n  0x20\n  add\n  0x00\n  keccak256\n    /* \"contracts/HamPepeTraits.sol\":2897:2923  hat.map[40] = \"Leprechaun\" */\n  swap1\n  dup2\n  tag_46\n  swap2\n  swap1\n  tag_7\n  jump\t// in\ntag_46:\n  pop\n    /* \"contracts/HamPepeTraits.sol\":2934:2957  hat.map[41] = \"Rooster\" */\n  mload(0x40)\n  dup1\n  0x40\n  add\n  0x40\n  mstore\n  dup1\n  0x07\n  dup2\n  mstore\n  0x20\n  add\n  0x526f6f7374657200000000000000000000000000000000000000000000000000\n  dup2\n  mstore\n  pop\n    /* \"contracts/HamPepeTraits.sol\":2934:2937  hat */\n  0x04\n    /* \"contracts/HamPepeTraits.sol\":2934:2941  hat.map */\n  0x00\n  add\n    /* \"contracts/HamPepeTraits.sol\":2934:2945  hat.map[41] */\n  0x00\n    /* \"contracts/HamPepeTraits.sol\":2942:2944  41 */\n  0x29\n    /* \"contracts/HamPepeTraits.sol\":2934:2945  hat.map[41] */\n  dup2\n  mstore\n  0x20\n  add\n  swap1\n  dup2\n  mstore\n  0x20\n  add\n  0x00\n  keccak256\n    /* \"contracts/HamPepeTraits.sol\":2934:2957  hat.map[41] = \"Rooster\" */\n  swap1\n  dup2\n  tag_47\n  swap2\n  swap1\n  tag_7\n  jump\t// in\ntag_47:\n  pop\n    /* \"contracts/HamPepeTraits.sol\":2970:2999  special.map[42] = \"Cigarette\" */\n  mload(0x40)\n  dup1\n  0x40\n  add\n  0x40\n  mstore\n  dup1\n  0x09\n  dup2\n  mstore\n  0x20\n  add\n  0x4369676172657474650000000000000000000000000000000000000000000000\n  dup2\n  mstore\n  pop\n    /* \"contracts/HamPepeTraits.sol\":2970:2977  special */\n  0x05\n    /* \"contracts/HamPepeTraits.sol\":2970:2981  special.map */\n  0x00\n  add\n    /* \"contracts/HamPepeTraits.sol\":2970:2985  special.map[42] */\n  0x00\n    /* \"contracts/HamPepeTraits.sol\":2982:2984  42 */\n  0x2a\n    /* \"contracts/HamPepeTraits.sol\":2970:2985  special.map[42] */\n  dup2\n  mstore\n  0x20\n  add\n  swap1\n  dup2\n  mstore\n  0x20\n  add\n  0x00\n  keccak256\n    /* \"contracts/HamPepeTraits.sol\":2970:2999  special.map[42] = \"Cigarette\" */\n  swap1\n  dup2\n  tag_48\n  swap2\n  swap1\n  tag_7\n  jump\t// in\ntag_48:\n  pop\n    /* \"contracts/HamPepeTraits.sol\":3010:3034  special.map[43] = \"Vape\" */\n  mload(0x40)\n  dup1\n  0x40\n  add\n  0x40\n  mstore\n  dup1\n  0x04\n  dup2\n  mstore\n  0x20\n  add\n  0x5661706500000000000000000000000000000000000000000000000000000000\n  dup2\n  mstore\n  pop\n    /* \"contracts/HamPepeTraits.sol\":3010:3017  special */\n  0x05\n    /* \"contracts/HamPepeTraits.sol\":3010:3021  special.map */\n  0x00\n  add\n    /* \"contracts/HamPepeTraits.sol\":3010:3025  special.map[43] */\n  0x00\n    /* \"contracts/HamPepeTraits.sol\":3022:3024  43 */\n  0x2b\n    /* \"contracts/HamPepeTraits.sol\":3010:3025  special.map[43] */\n  dup2\n  mstore\n  0x20\n  add\n  swap1\n  dup2\n  mstore\n  0x20\n  add\n  0x00\n  keccak256\n    /* \"contracts/HamPepeTraits.sol\":3010:3034  special.map[43] = \"Vape\" */\n  swap1\n  dup2\n  tag_49\n  swap2\n  swap1\n  tag_7\n  jump\t// in\ntag_49:\n  pop\n    /* \"contracts/HamPepeTraits.sol\":3045:3069  special.map[44] = \"Pipe\" */\n  mload(0x40)\n  dup1\n  0x40\n  add\n  0x40\n  mstore\n  dup1\n  0x04\n  dup2\n  mstore\n  0x20\n  add\n  0x5069706500000000000000000000000000000000000000000000000000000000\n  dup2\n  mstore\n  pop\n    /* \"contracts/HamPepeTraits.sol\":3045:3052  special */\n  0x05\n    /* \"contracts/HamPepeTraits.sol\":3045:3056  special.map */\n  0x00\n  add\n    /* \"contracts/HamPepeTraits.sol\":3045:3060  special.map[44] */\n  0x00\n    /* \"contracts/HamPepeTraits.sol\":3057:3059  44 */\n  0x2c\n    /* \"contracts/HamPepeTraits.sol\":3045:3060  special.map[44] */\n  dup2\n  mstore\n  0x20\n  add\n  swap1\n  dup2\n  mstore\n  0x20\n  add\n  0x00\n  keccak256\n    /* \"contracts/HamPepeTraits.sol\":3045:3069  special.map[44] = \"Pipe\" */\n  swap1\n  dup2\n  tag_50\n  swap2\n  swap1\n  tag_7\n  jump\t// in\ntag_50:\n  pop\n    /* \"contracts/HamPepeTraits.sol\":3080:3104  special.map[45] = \"Puke\" */\n  mload(0x40)\n  dup1\n  0x40\n  add\n  0x40\n  mstore\n  dup1\n  0x04\n  dup2\n  mstore\n  0x20\n  add\n  0x50756b6500000000000000000000000000000000000000000000000000000000\n  dup2\n  mstore\n  pop\n    /* \"contracts/HamPepeTraits.sol\":3080:3087  special */\n  0x05\n    /* \"contracts/HamPepeTraits.sol\":3080:3091  special.map */\n  0x00\n  add\n    /* \"contracts/HamPepeTraits.sol\":3080:3095  special.map[45] */\n  0x00\n    /* \"contracts/HamPepeTraits.sol\":3092:3094  45 */\n  0x2d\n    /* \"contracts/HamPepeTraits.sol\":3080:3095  special.map[45] */\n  dup2\n  mstore\n  0x20\n  add\n  swap1\n  dup2\n  mstore\n  0x20\n  add\n  0x00\n  keccak256\n    /* \"contracts/HamPepeTraits.sol\":3080:3104  special.map[45] = \"Puke\" */\n  swap1\n  dup2\n  tag_51\n  swap2\n  swap1\n  tag_7\n  jump\t// in\ntag_51:\n  pop\n    /* \"contracts/HamPepeTraits.sol\":3115:3141  special.map[46] = \"Bubble\" */\n  mload(0x40)\n  dup1\n  0x40\n  add\n  0x40\n  mstore\n  dup1\n  0x06\n  dup2\n  mstore\n  0x20\n  add\n  0x427562626c650000000000000000000000000000000000000000000000000000\n  dup2\n  mstore\n  pop\n    /* \"contracts/HamPepeTraits.sol\":3115:3122  special */\n  0x05\n    /* \"contracts/HamPepeTraits.sol\":3115:3126  special.map */\n  0x00\n  add\n    /* \"contracts/HamPepeTraits.sol\":3115:3130  special.map[46] */\n  0x00\n    /* \"contracts/HamPepeTraits.sol\":3127:3129  46 */\n  0x2e\n    /* \"contracts/HamPepeTraits.sol\":3115:3130  special.map[46] */\n  dup2\n  mstore\n  0x20\n  add\n  swap1\n  dup2\n  mstore\n  0x20\n  add\n  0x00\n  keccak256\n    /* \"contracts/HamPepeTraits.sol\":3115:3141  special.map[46] = \"Bubble\" */\n  swap1\n  dup2\n  tag_52\n  swap2\n  swap1\n  tag_7\n  jump\t// in\ntag_52:\n  pop\n    /* \"contracts/HamPepeTraits.sol\":3152:3177  special.map[47] = \"Cigar\" */\n  mload(0x40)\n  dup1\n  0x40\n  add\n  0x40\n  mstore\n  dup1\n  0x05\n  dup2\n  mstore\n  0x20\n  add\n  0x4369676172000000000000000000000000000000000000000000000000000000\n  dup2\n  mstore\n  pop\n    /* \"contracts/HamPepeTraits.sol\":3152:3159  special */\n  0x05\n    /* \"contracts/HamPepeTraits.sol\":3152:3163  special.map */\n  0x00\n  add\n    /* \"contracts/HamPepeTraits.sol\":3152:3167  special.map[47] */\n  0x00\n    /* \"contracts/HamPepeTraits.sol\":3164:3166  47 */\n  0x2f\n    /* \"contracts/HamPepeTraits.sol\":3152:3167  special.map[47] */\n  dup2\n  mstore\n  0x20\n  add\n  swap1\n  dup2\n  mstore\n  0x20\n  add\n  0x00\n  keccak256\n    /* \"contracts/HamPepeTraits.sol\":3152:3177  special.map[47] = \"Cigar\" */\n  swap1\n  dup2\n  tag_53\n  swap2\n  swap1\n  tag_7\n  jump\t// in\ntag_53:\n  pop\n    /* \"contracts/HamPepeTraits.sol\":61:3192  contract HamPepeTraits {... */\n  jump(tag_54)\ntag_2:\n  dup3\n  0x06\n  dup2\n  add\n  swap3\n  dup3\n  iszero\n  tag_55\n  jumpi\n  swap2\n  0x20\n  mul\n  dup3\n  add\ntag_56:\n  dup3\n  dup2\n  gt\n  iszero\n  tag_57\n  jumpi\n  dup3\n  mload\n  dup3\n  swap1\n  dup2\n  tag_58\n  swap2\n  swap1\n  tag_7\n  jump\t// in\ntag_58:\n  pop\n  swap2\n  0x20\n  add\n  swap2\n  swap1\n  0x01\n  add\n  swap1\n  jump(tag_56)\ntag_57:\ntag_55:\n  pop\n  swap1\n  pop\n  tag_59\n  swap2\n  swap1\n  tag_60\n  jump\t// in\ntag_59:\n  pop\n  swap1\n  jump\t// out\ntag_60:\ntag_61:\n  dup1\n  dup3\n  gt\n  iszero\n  tag_62\n  jumpi\n  0x00\n  dup2\n  dup2\n  tag_63\n  swap2\n  swap1\n  tag_64\n  jump\t// in\ntag_63:\n  pop\n  0x01\n  add\n  jump(tag_61)\ntag_62:\n  pop\n  swap1\n  jump\t// out\ntag_64:\n  pop\n  dup1\n  sload\n  tag_65\n  swap1\n  tag_66\n  jump\t// in\ntag_65:\n  0x00\n  dup3\n  sstore\n  dup1\n  0x1f\n  lt\n  tag_68\n  jumpi\n  pop\n  jump(tag_67)\ntag_68:\n  0x1f\n  add\n  0x20\n  swap1\n  div\n  swap1\n  0x00\n  mstore\n  keccak256(0x00, 0x20)\n  swap1\n  dup2\n  add\n  swap1\n  tag_69\n  swap2\n  swap1\n  tag_70\n  jump\t// in\ntag_69:\ntag_67:\n  pop\n  jump\t// out\ntag_70:\ntag_71:\n  dup1\n  dup3\n  gt\n  iszero\n  tag_72\n  jumpi\n  0x00\n  dup2\n  0x00\n  swap1\n  sstore\n  pop\n  0x01\n  add\n  jump(tag_71)\ntag_72:\n  pop\n  swap1\n  jump\t// out\n    /* \"#utility.yul\":7:106   */\ntag_73:\n    /* \"#utility.yul\":59:65   */\n  0x00\n    /* \"#utility.yul\":93:98   */\n  dup2\n    /* \"#utility.yul\":87:99   */\n  mload\n    /* \"#utility.yul\":77:99   */\n  swap1\n  pop\n    /* \"#utility.yul\":7:106   */\n  swap2\n  swap1\n  pop\n  jump\t// out\n    /* \"#utility.yul\":112:292   */\ntag_74:\n    /* \"#utility.yul\":160:237   */\n  0x4e487b7100000000000000000000000000000000000000000000000000000000\n    /* \"#utility.yul\":157:158   */\n  0x00\n    /* \"#utility.yul\":150:238   */\n  mstore\n    /* \"#utility.yul\":257:261   */\n  0x41\n    /* \"#utility.yul\":254:255   */\n  0x04\n    /* \"#utility.yul\":247:262   */\n  mstore\n    /* \"#utility.yul\":281:285   */\n  0x24\n    /* \"#utility.yul\":278:279   */\n  0x00\n    /* \"#utility.yul\":271:286   */\n  revert\n    /* \"#utility.yul\":298:478   */\ntag_75:\n    /* \"#utility.yul\":346:423   */\n  0x4e487b7100000000000000000000000000000000000000000000000000000000\n    /* \"#utility.yul\":343:344   */\n  0x00\n    /* \"#utility.yul\":336:424   */\n  mstore\n    /* \"#utility.yul\":443:447   */\n  0x22\n    /* \"#utility.yul\":440:441   */\n  0x04\n    /* \"#utility.yul\":433:448   */\n  mstore\n    /* \"#utility.yul\":467:471   */\n  0x24\n    /* \"#utility.yul\":464:465   */\n  0x00\n    /* \"#utility.yul\":457:472   */\n  revert\n    /* \"#utility.yul\":484:804   */\ntag_66:\n    /* \"#utility.yul\":528:534   */\n  0x00\n    /* \"#utility.yul\":565:566   */\n  0x02\n    /* \"#utility.yul\":559:563   */\n  dup3\n    /* \"#utility.yul\":555:567   */\n  div\n    /* \"#utility.yul\":545:567   */\n  swap1\n  pop\n    /* \"#utility.yul\":612:613   */\n  0x01\n    /* \"#utility.yul\":606:610   */\n  dup3\n    /* \"#utility.yul\":602:614   */\n  and\n    /* \"#utility.yul\":633:651   */\n  dup1\n    /* \"#utility.yul\":623:704   */\n  tag_97\n  jumpi\n    /* \"#utility.yul\":689:693   */\n  0x7f\n    /* \"#utility.yul\":681:687   */\n  dup3\n    /* \"#utility.yul\":677:694   */\n  and\n    /* \"#utility.yul\":667:694   */\n  swap2\n  pop\n    /* \"#utility.yul\":623:704   */\ntag_97:\n    /* \"#utility.yul\":751:753   */\n  0x20\n    /* \"#utility.yul\":743:749   */\n  dup3\n    /* \"#utility.yul\":740:754   */\n  lt\n    /* \"#utility.yul\":720:738   */\n  dup2\n    /* \"#utility.yul\":717:755   */\n  sub\n    /* \"#utility.yul\":714:798   */\n  tag_98\n  jumpi\n    /* \"#utility.yul\":770:788   */\n  tag_99\n  tag_75\n  jump\t// in\ntag_99:\n    /* \"#utility.yul\":714:798   */\ntag_98:\n    /* \"#utility.yul\":535:804   */\n  pop\n    /* \"#utility.yul\":484:804   */\n  swap2\n  swap1\n  pop\n  jump\t// out\n    /* \"#utility.yul\":810:951   */\ntag_76:\n    /* \"#utility.yul\":859:863   */\n  0x00\n    /* \"#utility.yul\":882:885   */\n  dup2\n    /* \"#utility.yul\":874:885   */\n  swap1\n  pop\n    /* \"#utility.yul\":905:908   */\n  dup2\n    /* \"#utility.yul\":902:903   */\n  0x00\n    /* \"#utility.yul\":895:909   */\n  mstore\n    /* \"#utility.yul\":939:943   */\n  0x20\n    /* \"#utility.yul\":936:937   */\n  0x00\n    /* \"#utility.yul\":926:944   */\n  keccak256\n    /* \"#utility.yul\":918:944   */\n  swap1\n  pop\n    /* \"#utility.yul\":810:951   */\n  swap2\n  swap1\n  pop\n  jump\t// out\n    /* \"#utility.yul\":957:1050   */\ntag_77:\n    /* \"#utility.yul\":994:1000   */\n  0x00\n    /* \"#utility.yul\":1041:1043   */\n  0x20\n    /* \"#utility.yul\":1036:1038   */\n  0x1f\n    /* \"#utility.yul\":1029:1034   */\n  dup4\n    /* \"#utility.yul\":1025:1039   */\n  add\n    /* \"#utility.yul\":1021:1044   */\n  div\n    /* \"#utility.yul\":1011:1044   */\n  swap1\n  pop\n    /* \"#utility.yul\":957:1050   */\n  swap2\n  swap1\n  pop\n  jump\t// out\n    /* \"#utility.yul\":1056:1163   */\ntag_78:\n    /* \"#utility.yul\":1100:1108   */\n  0x00\n    /* \"#utility.yul\":1150:1155   */\n  dup3\n    /* \"#utility.yul\":1144:1148   */\n  dup3\n    /* \"#utility.yul\":1140:1156   */\n  shl\n    /* \"#utility.yul\":1119:1156   */\n  swap1\n  pop\n    /* \"#utility.yul\":1056:1163   */\n  swap3\n  swap2\n  pop\n  pop\n  jump\t// out\n    /* \"#utility.yul\":1169:1562   */\ntag_79:\n    /* \"#utility.yul\":1238:1244   */\n  0x00\n    /* \"#utility.yul\":1288:1289   */\n  0x08\n    /* \"#utility.yul\":1276:1286   */\n  dup4\n    /* \"#utility.yul\":1272:1290   */\n  mul\n    /* \"#utility.yul\":1311:1408   */\n  tag_104\n    /* \"#utility.yul\":1341:1407   */\n  0xffffffffffffffffffffffffffffffffffffffffffffffffffffffffffffffff\n    /* \"#utility.yul\":1330:1339   */\n  dup3\n    /* \"#utility.yul\":1311:1408   */\n  tag_78\n  jump\t// in\ntag_104:\n    /* \"#utility.yul\":1429:1468   */\n  tag_105\n    /* \"#utility.yul\":1459:1467   */\n  dup7\n    /* \"#utility.yul\":1448:1457   */\n  dup4\n    /* \"#utility.yul\":1429:1468   */\n  tag_78\n  jump\t// in\ntag_105:\n    /* \"#utility.yul\":1417:1468   */\n  swap6\n  pop\n    /* \"#utility.yul\":1501:1505   */\n  dup1\n    /* \"#utility.yul\":1497:1506   */\n  not\n    /* \"#utility.yul\":1490:1495   */\n  dup5\n    /* \"#utility.yul\":1486:1507   */\n  and\n    /* \"#utility.yul\":1477:1507   */\n  swap4\n  pop\n    /* \"#utility.yul\":1550:1554   */\n  dup1\n    /* \"#utility.yul\":1540:1548   */\n  dup7\n    /* \"#utility.yul\":1536:1555   */\n  and\n    /* \"#utility.yul\":1529:1534   */\n  dup5\n    /* \"#utility.yul\":1526:1556   */\n  or\n    /* \"#utility.yul\":1516:1556   */\n  swap3\n  pop\n    /* \"#utility.yul\":1245:1562   */\n  pop\n  pop\n    /* \"#utility.yul\":1169:1562   */\n  swap4\n  swap3\n  pop\n  pop\n  pop\n  jump\t// out\n    /* \"#utility.yul\":1568:1645   */\ntag_80:\n    /* \"#utility.yul\":1605:1612   */\n  0x00\n    /* \"#utility.yul\":1634:1639   */\n  dup2\n    /* \"#utility.yul\":1623:1639   */\n  swap1\n  pop\n    /* \"#utility.yul\":1568:1645   */\n  swap2\n  swap1\n  pop\n  jump\t// out\n    /* \"#utility.yul\":1651:1711   */\ntag_81:\n    /* \"#utility.yul\":1679:1682   */\n  0x00\n    /* \"#utility.yul\":1700:1705   */\n  dup2\n    /* \"#utility.yul\":1693:1705   */\n  swap1\n  pop\n    /* \"#utility.yul\":1651:1711   */\n  swap2\n  swap1\n  pop\n  jump\t// out\n    /* \"#utility.yul\":1717:1859   */\ntag_82:\n    /* \"#utility.yul\":1767:1776   */\n  0x00\n    /* \"#utility.yul\":1800:1853   */\n  tag_109\n    /* \"#utility.yul\":1818:1852   */\n  tag_110\n    /* \"#utility.yul\":1827:1851   */\n  tag_111\n    /* \"#utility.yul\":1845:1850   */\n  dup5\n    /* \"#utility.yul\":1827:1851   */\n  tag_80\n  jump\t// in\ntag_111:\n    /* \"#utility.yul\":1818:1852   */\n  tag_81\n  jump\t// in\ntag_110:\n    /* \"#utility.yul\":1800:1853   */\n  tag_80\n  jump\t// in\ntag_109:\n    /* \"#utility.yul\":1787:1853   */\n  swap1\n  pop\n    /* \"#utility.yul\":1717:1859   */\n  swap2\n  swap1\n  pop\n  jump\t// out\n    /* \"#utility.yul\":1865:1940   */\ntag_83:\n    /* \"#utility.yul\":1908:1911   */\n  0x00\n    /* \"#utility.yul\":1929:1934   */\n  dup2\n    /* \"#utility.yul\":1922:1934   */\n  swap1\n  pop\n    /* \"#utility.yul\":1865:1940   */\n  swap2\n  swap1\n  pop\n  jump\t// out\n    /* \"#utility.yul\":1946:2215   */\ntag_84:\n    /* \"#utility.yul\":2056:2095   */\n  tag_114\n    /* \"#utility.yul\":2087:2094   */\n  dup4\n    /* \"#utility.yul\":2056:2095   */\n  tag_82\n  jump\t// in\ntag_114:\n    /* \"#utility.yul\":2117:2208   */\n  tag_115\n    /* \"#utility.yul\":2166:2207   */\n  tag_116\n    /* \"#utility.yul\":2190:2206   */\n  dup3\n    /* \"#utility.yul\":2166:2207   */\n  tag_83\n  jump\t// in\ntag_116:\n    /* \"#utility.yul\":2158:2164   */\n  dup5\n    /* \"#utility.yul\":2151:2155   */\n  dup5\n    /* \"#utility.yul\":2145:2156   */\n  sload\n    /* \"#utility.yul\":2117:2208   */\n  tag_79\n  jump\t// in\ntag_115:\n    /* \"#utility.yul\":2111:2115   */\n  dup3\n    /* \"#utility.yul\":2104:2209   */\n  sstore\n    /* \"#utility.yul\":2022:2215   */\n  pop\n    /* \"#utility.yul\":1946:2215   */\n  pop\n  pop\n  pop\n  jump\t// out\n    /* \"#utility.yul\":2221:2294   */\ntag_85:\n    /* \"#utility.yul\":2266:2269   */\n  0x00\n    /* \"#utility.yul\":2221:2294   */\n  swap1\n  jump\t// out\n    /* \"#utility.yul\":2300:2489   */\ntag_86:\n    /* \"#utility.yul\":2377:2409   */\n  tag_119\n  tag_85\n  jump\t// in\ntag_119:\n    /* \"#utility.yul\":2418:2483   */\n  tag_120\n    /* \"#utility.yul\":2476:2482   */\n  dup2\n    /* \"#utility.yul\":2468:2474   */\n  dup5\n    /* \"#utility.yul\":2462:2466   */\n  dup5\n    /* \"#utility.yul\":2418:2483   */\n  tag_84\n  jump\t// in\ntag_120:\n    /* \"#utility.yul\":2353:2489   */\n  pop\n    /* \"#utility.yul\":2300:2489   */\n  pop\n  pop\n  jump\t// out\n    /* \"#utility.yul\":2495:2681   */\ntag_87:\n    /* \"#utility.yul\":2555:2675   */\ntag_122:\n    /* \"#utility.yul\":2572:2575   */\n  dup2\n    /* \"#utility.yul\":2565:2570   */\n  dup2\n    /* \"#utility.yul\":2562:2576   */\n  lt\n    /* \"#utility.yul\":2555:2675   */\n  iszero\n  tag_124\n  jumpi\n    /* \"#utility.yul\":2626:2665   */\n  tag_125\n    /* \"#utility.yul\":2663:2664   */\n  0x00\n    /* \"#utility.yul\":2656:2661   */\n  dup3\n    /* \"#utility.yul\":2626:2665   */\n  tag_86\n  jump\t// in\ntag_125:\n    /* \"#utility.yul\":2599:2600   */\n  0x01\n    /* \"#utility.yul\":2592:2597   */\n  dup2\n    /* \"#utility.yul\":2588:2601   */\n  add\n    /* \"#utility.yul\":2579:2601   */\n  swap1\n  pop\n    /* \"#utility.yul\":2555:2675   */\n  jump(tag_122)\ntag_124:\n    /* \"#utility.yul\":2495:2681   */\n  pop\n  pop\n  jump\t// out\n    /* \"#utility.yul\":2687:3230   */\ntag_88:\n    /* \"#utility.yul\":2788:2790   */\n  0x1f\n    /* \"#utility.yul\":2783:2786   */\n  dup3\n    /* \"#utility.yul\":2780:2791   */\n  gt\n    /* \"#utility.yul\":2777:3223   */\n  iszero\n  tag_127\n  jumpi\n    /* \"#utility.yul\":2822:2860   */\n  tag_128\n    /* \"#utility.yul\":2854:2859   */\n  dup2\n    /* \"#utility.yul\":2822:2860   */\n  tag_76\n  jump\t// in\ntag_128:\n    /* \"#utility.yul\":2906:2935   */\n  tag_129\n    /* \"#utility.yul\":2924:2934   */\n  dup5\n    /* \"#utility.yul\":2906:2935   */\n  tag_77\n  jump\t// in\ntag_129:\n    /* \"#utility.yul\":2896:2904   */\n  dup2\n    /* \"#utility.yul\":2892:2936   */\n  add\n    /* \"#utility.yul\":3089:3091   */\n  0x20\n    /* \"#utility.yul\":3077:3087   */\n  dup6\n    /* \"#utility.yul\":3074:3092   */\n  lt\n    /* \"#utility.yul\":3071:3120   */\n  iszero\n  tag_130\n  jumpi\n    /* \"#utility.yul\":3110:3118   */\n  dup2\n    /* \"#utility.yul\":3095:3118   */\n  swap1\n  pop\n    /* \"#utility.yul\":3071:3120   */\ntag_130:\n    /* \"#utility.yul\":3133:3213   */\n  tag_131\n    /* \"#utility.yul\":3189:3211   */\n  tag_132\n    /* \"#utility.yul\":3207:3210   */\n  dup6\n    /* \"#utility.yul\":3189:3211   */\n  tag_77\n  jump\t// in\ntag_132:\n    /* \"#utility.yul\":3179:3187   */\n  dup4\n    /* \"#utility.yul\":3175:3212   */\n  add\n    /* \"#utility.yul\":3162:3173   */\n  dup3\n    /* \"#utility.yul\":3133:3213   */\n  tag_87\n  jump\t// in\ntag_131:\n    /* \"#utility.yul\":2792:3223   */\n  pop\n  pop\n    /* \"#utility.yul\":2777:3223   */\ntag_127:\n    /* \"#utility.yul\":2687:3230   */\n  pop\n  pop\n  pop\n  jump\t// out\n    /* \"#utility.yul\":3236:3353   */\ntag_89:\n    /* \"#utility.yul\":3290:3298   */\n  0x00\n    /* \"#utility.yul\":3340:3345   */\n  dup3\n    /* \"#utility.yul\":3334:3338   */\n  dup3\n    /* \"#utility.yul\":3330:3346   */\n  shr\n    /* \"#utility.yul\":3309:3346   */\n  swap1\n  pop\n    /* \"#utility.yul\":3236:3353   */\n  swap3\n  swap2\n  pop\n  pop\n  jump\t// out\n    /* \"#utility.yul\":3359:3528   */\ntag_90:\n    /* \"#utility.yul\":3403:3409   */\n  0x00\n    /* \"#utility.yul\":3436:3487   */\n  tag_135\n    /* \"#utility.yul\":3484:3485   */\n  0x00\n    /* \"#utility.yul\":3480:3486   */\n  not\n    /* \"#utility.yul\":3472:3477   */\n  dup5\n    /* \"#utility.yul\":3469:3470   */\n  0x08\n    /* \"#utility.yul\":3465:3478   */\n  mul\n    /* \"#utility.yul\":3436:3487   */\n  tag_89\n  jump\t// in\ntag_135:\n    /* \"#utility.yul\":3432:3488   */\n  not\n    /* \"#utility.yul\":3517:3521   */\n  dup1\n    /* \"#utility.yul\":3511:3515   */\n  dup4\n    /* \"#utility.yul\":3507:3522   */\n  and\n    /* \"#utility.yul\":3497:3522   */\n  swap2\n  pop\n    /* \"#utility.yul\":3410:3528   */\n  pop\n    /* \"#utility.yul\":3359:3528   */\n  swap3\n  swap2\n  pop\n  pop\n  jump\t// out\n    /* \"#utility.yul\":3533:3828   */\ntag_91:\n    /* \"#utility.yul\":3609:3613   */\n  0x00\n    /* \"#utility.yul\":3755:3784   */\n  tag_137\n    /* \"#utility.yul\":3780:3783   */\n  dup4\n    /* \"#utility.yul\":3774:3778   */\n  dup4\n    /* \"#utility.yul\":3755:3784   */\n  tag_90\n  jump\t// in\ntag_137:\n    /* \"#utility.yul\":3747:3784   */\n  swap2\n  pop\n    /* \"#utility.yul\":3817:3820   */\n  dup3\n    /* \"#utility.yul\":3814:3815   */\n  0x02\n    /* \"#utility.yul\":3810:3821   */\n  mul\n    /* \"#utility.yul\":3804:3808   */\n  dup3\n    /* \"#utility.yul\":3801:3822   */\n  or\n    /* \"#utility.yul\":3793:3822   */\n  swap1\n  pop\n    /* \"#utility.yul\":3533:3828   */\n  swap3\n  swap2\n  pop\n  pop\n  jump\t// out\n    /* \"#utility.yul\":3833:5228   */\ntag_7:\n    /* \"#utility.yul\":3950:3987   */\n  tag_139\n    /* \"#utility.yul\":3983:3986   */\n  dup3\n    /* \"#utility.yul\":3950:3987   */\n  tag_73\n  jump\t// in\ntag_139:\n    /* \"#utility.yul\":4052:4070   */\n  0xffffffffffffffff\n    /* \"#utility.yul\":4044:4050   */\n  dup2\n    /* \"#utility.yul\":4041:4071   */\n  gt\n    /* \"#utility.yul\":4038:4094   */\n  iszero\n  tag_140\n  jumpi\n    /* \"#utility.yul\":4074:4092   */\n  tag_141\n  tag_74\n  jump\t// in\ntag_141:\n    /* \"#utility.yul\":4038:4094   */\ntag_140:\n    /* \"#utility.yul\":4118:4156   */\n  tag_142\n    /* \"#utility.yul\":4150:4154   */\n  dup3\n    /* \"#utility.yul\":4144:4155   */\n  sload\n    /* \"#utility.yul\":4118:4156   */\n  tag_66\n  jump\t// in\ntag_142:\n    /* \"#utility.yul\":4203:4270   */\n  tag_143\n    /* \"#utility.yul\":4263:4269   */\n  dup3\n    /* \"#utility.yul\":4255:4261   */\n  dup3\n    /* \"#utility.yul\":4249:4253   */\n  dup6\n    /* \"#utility.yul\":4203:4270   */\n  tag_88\n  jump\t// in\ntag_143:\n    /* \"#utility.yul\":4297:4298   */\n  0x00\n    /* \"#utility.yul\":4321:4325   */\n  0x20\n    /* \"#utility.yul\":4308:4325   */\n  swap1\n  pop\n    /* \"#utility.yul\":4353:4355   */\n  0x1f\n    /* \"#utility.yul\":4345:4351   */\n  dup4\n    /* \"#utility.yul\":4342:4356   */\n  gt\n    /* \"#utility.yul\":4370:4371   */\n  0x01\n    /* \"#utility.yul\":4365:4983   */\n  dup2\n  eq\n  tag_145\n  jumpi\n    /* \"#utility.yul\":5027:5028   */\n  0x00\n    /* \"#utility.yul\":5044:5050   */\n  dup5\n    /* \"#utility.yul\":5041:5118   */\n  iszero\n  tag_146\n  jumpi\n    /* \"#utility.yul\":5093:5102   */\n  dup3\n    /* \"#utility.yul\":5088:5091   */\n  dup8\n    /* \"#utility.yul\":5084:5103   */\n  add\n    /* \"#utility.yul\":5078:5104   */\n  mload\n    /* \"#utility.yul\":5069:5104   */\n  swap1\n  pop\n    /* \"#utility.yul\":5041:5118   */\ntag_146:\n    /* \"#utility.yul\":5144:5211   */\n  tag_147\n    /* \"#utility.yul\":5204:5210   */\n  dup6\n    /* \"#utility.yul\":5197:5202   */\n  dup3\n    /* \"#utility.yul\":5144:5211   */\n  tag_91\n  jump\t// in\ntag_147:\n    /* \"#utility.yul\":5138:5142   */\n  dup7\n    /* \"#utility.yul\":5131:5212   */\n  sstore\n    /* \"#utility.yul\":5000:5222   */\n  pop\n    /* \"#utility.yul\":4335:5222   */\n  jump(tag_144)\n    /* \"#utility.yul\":4365:4983   */\ntag_145:\n    /* \"#utility.yul\":4417:4421   */\n  0x1f\n    /* \"#utility.yul\":4413:4422   */\n  not\n    /* \"#utility.yul\":4405:4411   */\n  dup5\n    /* \"#utility.yul\":4401:4423   */\n  and\n    /* \"#utility.yul\":4451:4488   */\n  tag_148\n    /* \"#utility.yul\":4483:4487   */\n  dup7\n    /* \"#utility.yul\":4451:4488   */\n  tag_76\n  jump\t// in\ntag_148:\n    /* \"#utility.yul\":4510:4511   */\n  0x00\n    /* \"#utility.yul\":4524:4732   */\ntag_149:\n    /* \"#utility.yul\":4538:4545   */\n  dup3\n    /* \"#utility.yul\":4535:4536   */\n  dup2\n    /* \"#utility.yul\":4532:4546   */\n  lt\n    /* \"#utility.yul\":4524:4732   */\n  iszero\n  tag_151\n  jumpi\n    /* \"#utility.yul\":4617:4626   */\n  dup5\n    /* \"#utility.yul\":4612:4615   */\n  dup10\n    /* \"#utility.yul\":4608:4627   */\n  add\n    /* \"#utility.yul\":4602:4628   */\n  mload\n    /* \"#utility.yul\":4594:4600   */\n  dup3\n    /* \"#utility.yul\":4587:4629   */\n  sstore\n    /* \"#utility.yul\":4668:4669   */\n  0x01\n    /* \"#utility.yul\":4660:4666   */\n  dup3\n    /* \"#utility.yul\":4656:4670   */\n  add\n    /* \"#utility.yul\":4646:4670   */\n  swap2\n  pop\n    /* \"#utility.yul\":4715:4717   */\n  0x20\n    /* \"#utility.yul\":4704:4713   */\n  dup6\n    /* \"#utility.yul\":4700:4718   */\n  add\n    /* \"#utility.yul\":4687:4718   */\n  swap5\n  pop\n    /* \"#utility.yul\":4561:4565   */\n  0x20\n    /* \"#utility.yul\":4558:4559   */\n  dup2\n    /* \"#utility.yul\":4554:4566   */\n  add\n    /* \"#utility.yul\":4549:4566   */\n  swap1\n  pop\n    /* \"#utility.yul\":4524:4732   */\n  jump(tag_149)\ntag_151:\n    /* \"#utility.yul\":4760:4766   */\n  dup7\n    /* \"#utility.yul\":4751:4758   */\n  dup4\n    /* \"#utility.yul\":4748:4767   */\n  lt\n    /* \"#utility.yul\":4745:4924   */\n  iszero\n  tag_152\n  jumpi\n    /* \"#utility.yul\":4818:4827   */\n  dup5\n    /* \"#utility.yul\":4813:4816   */\n  dup10\n    /* \"#utility.yul\":4809:4828   */\n  add\n    /* \"#utility.yul\":4803:4829   */\n  mload\n    /* \"#utility.yul\":4861:4909   */\n  tag_153\n    /* \"#utility.yul\":4903:4907   */\n  0x1f\n    /* \"#utility.yul\":4895:4901   */\n  dup10\n    /* \"#utility.yul\":4891:4908   */\n  and\n    /* \"#utility.yul\":4880:4889   */\n  dup3\n    /* \"#utility.yul\":4861:4909   */\n  tag_90\n  jump\t// in\ntag_153:\n    /* \"#utility.yul\":4853:4859   */\n  dup4\n    /* \"#utility.yul\":4846:4910   */\n  sstore\n    /* \"#utility.yul\":4768:4924   */\n  pop\n    /* \"#utility.yul\":4745:4924   */\ntag_152:\n    /* \"#utility.yul\":4970:4971   */\n  0x01\n    /* \"#utility.yul\":4966:4967   */\n  0x02\n    /* \"#utility.yul\":4958:4964   */\n  dup9\n    /* \"#utility.yul\":4954:4968   */\n  mul\n    /* \"#utility.yul\":4950:4972   */\n  add\n    /* \"#utility.yul\":4944:4948   */\n  dup9\n    /* \"#utility.yul\":4937:4973   */\n  sstore\n    /* \"#utility.yul\":4372:4983   */\n  pop\n  pop\n  pop\n    /* \"#utility.yul\":4335:5222   */\ntag_144:\n  pop\n    /* \"#utility.yul\":3925:5228   */\n  pop\n  pop\n  pop\n    /* \"#utility.yul\":3833:5228   */\n  pop\n  pop\n  jump\t// out\n    /* \"contracts/HamPepeTraits.sol\":61:3192  contract HamPepeTraits {... */\ntag_54:\n  dataSize(sub_0)\n  dup1\n  dataOffset(sub_0)\n  0x00\n  codecopy\n  0x00\n  return\nstop\n\nsub_0: assembly {\n        /* \"contracts/HamPepeTraits.sol\":61:3192  contract HamPepeTraits {... */\n      mstore(0x40, 0x80)\n      callvalue\n      dup1\n      iszero\n      tag_1\n      jumpi\n      0x00\n      dup1\n      revert\n    tag_1:\n      pop\n      jumpi(tag_2, lt(calldatasize, 0x04))\n      shr(0xe0, calldataload(0x00))\n      dup1\n      0xc4d30bfa\n      gt\n      tag_10\n      jumpi\n      dup1\n      0xc4d30bfa\n      eq\n      tag_6\n      jumpi\n      dup1\n      0xc76ab940\n      eq\n      tag_7\n      jumpi\n      dup1\n      0xd2571f88\n      eq\n      tag_8\n      jumpi\n      dup1\n      0xe1d916f7\n      eq\n      tag_9\n      jumpi\n      jump(tag_2)\n    tag_10:\n      dup1\n      0x4337932d\n      eq\n      tag_3\n      jumpi\n      dup1\n      0x4c9c05ea\n      eq\n      tag_4\n      jumpi\n      dup1\n      0x98e4f581\n      eq\n      tag_5\n      jumpi\n    tag_2:\n      0x00\n      dup1\n      revert\n        /* \"contracts/HamPepeTraits.sol\":935:1038  function getPants(uint256 i) public view returns (string memory) {... */\n    tag_3:\n      tag_11\n      0x04\n      dup1\n      calldatasize\n      sub\n      dup2\n      add\n      swap1\n      tag_12\n      swap2\n      swap1\n      tag_13\n      jump\t// in\n    tag_12:\n      tag_14\n      jump\t// in\n    tag_11:\n      mload(0x40)\n      tag_15\n      swap2\n      swap1\n      tag_16\n      jump\t// in\n    tag_15:\n      mload(0x40)\n      dup1\n      swap2\n      sub\n      swap1\n      return\n        /* \"contracts/HamPepeTraits.sol\":1046:1149  function getShirt(uint256 i) public view returns (string memory) {... */\n    tag_4:\n      tag_17\n      0x04\n      dup1\n      calldatasize\n      sub\n      dup2\n      add\n      swap1\n      tag_18\n      swap2\n      swap1\n      tag_13\n      jump\t// in\n    tag_18:\n      tag_19\n      jump\t// in\n    tag_17:\n      mload(0x40)\n      tag_20\n      swap2\n      swap1\n      tag_16\n      jump\t// in\n    tag_20:\n      mload(0x40)\n      dup1\n      swap2\n      sub\n      swap1\n      return\n        /* \"contracts/HamPepeTraits.sol\":826:927  function getSkin(uint256 i) public view returns (string memory) {... */\n    tag_5:\n      tag_21\n      0x04\n      dup1\n      calldatasize\n      sub\n      dup2\n      add\n      swap1\n      tag_22\n      swap2\n      swap1\n      tag_13\n      jump\t// in\n    tag_22:\n      tag_23\n      jump\t// in\n    tag_21:\n      mload(0x40)\n      tag_24\n      swap2\n      swap1\n      tag_16\n      jump\t// in\n    tag_24:\n      mload(0x40)\n      dup1\n      swap2\n      sub\n      swap1\n      return\n        /* \"contracts/HamPepeTraits.sol\":1157:1258  function getEyes(uint256 i) public view returns (string memory) {... */\n    tag_6:\n      tag_25\n      0x04\n      dup1\n      calldatasize\n      sub\n      dup2\n      add\n      swap1\n      tag_26\n      swap2\n      swap1\n      tag_13\n      jump\t// in\n    tag_26:\n      tag_27\n      jump\t// in\n    tag_25:\n      mload(0x40)\n      tag_28\n      swap2\n      swap1\n      tag_16\n      jump\t// in\n    tag_28:\n      mload(0x40)\n      dup1\n      swap2\n      sub\n      swap1\n      return\n        /* \"contracts/HamPepeTraits.sol\":463:754  string [6] public colours =[... */\n    tag_7:\n      tag_29\n      0x04\n      dup1\n      calldatasize\n      sub\n      dup2\n      add\n      swap1\n      tag_30\n      swap2\n      swap1\n      tag_13\n      jump\t// in\n    tag_30:\n      tag_31\n      jump\t// in\n    tag_29:\n      mload(0x40)\n      tag_32\n      swap2\n      swap1\n      tag_16\n      jump\t// in\n    tag_32:\n      mload(0x40)\n      dup1\n      swap2\n      sub\n      swap1\n      return\n        /* \"contracts/HamPepeTraits.sol\":1266:1365  function getHat(uint256 i) public view returns (string memory) {... */\n    tag_8:\n      tag_33\n      0x04\n      dup1\n      calldatasize\n      sub\n      dup2\n      add\n      swap1\n      tag_34\n      swap2\n      swap1\n      tag_13\n      jump\t// in\n    tag_34:\n      tag_35\n      jump\t// in\n    tag_33:\n      mload(0x40)\n      tag_36\n      swap2\n      swap1\n      tag_16\n      jump\t// in\n    tag_36:\n      mload(0x40)\n      dup1\n      swap2\n      sub\n      swap1\n      return\n        /* \"contracts/HamPepeTraits.sol\":1373:1480  function getSpecial(uint256 i) public view returns (string memory) {... */\n    tag_9:\n      tag_37\n      0x04\n      dup1\n      calldatasize\n      sub\n      dup2\n      add\n      swap1\n      tag_38\n      swap2\n      swap1\n      tag_13\n      jump\t// in\n    tag_38:\n      tag_39\n      jump\t// in\n    tag_37:\n      mload(0x40)\n      tag_40\n      swap2\n      swap1\n      tag_16\n      jump\t// in\n    tag_40:\n      mload(0x40)\n      dup1\n      swap2\n      sub\n      swap1\n      return\n        /* \"contracts/HamPepeTraits.sol\":935:1038  function getPants(uint256 i) public view returns (string memory) {... */\n    tag_14:\n        /* \"contracts/HamPepeTraits.sol\":985:998  string memory */\n      0x60\n        /* \"contracts/HamPepeTraits.sol\":1018:1023  pants */\n      0x01\n        /* \"contracts/HamPepeTraits.sol\":1018:1027  pants.map */\n      0x00\n      add\n        /* \"contracts/HamPepeTraits.sol\":1018:1030  pants.map[i] */\n      0x00\n        /* \"contracts/HamPepeTraits.sol\":1028:1029  i */\n      dup4\n        /* \"contracts/HamPepeTraits.sol\":1018:1030  pants.map[i] */\n      dup2\n      mstore\n      0x20\n      add\n      swap1\n      dup2\n      mstore\n      0x20\n      add\n      0x00\n      keccak256\n        /* \"contracts/HamPepeTraits.sol\":1011:1030  return pants.map[i] */\n      dup1\n      sload\n      tag_42\n      swap1\n      tag_43\n      jump\t// in\n    tag_42:\n      dup1\n      0x1f\n      add\n      0x20\n      dup1\n      swap2\n      div\n      mul\n      0x20\n      add\n      mload(0x40)\n      swap1\n      dup2\n      add\n      0x40\n      mstore\n      dup1\n      swap3\n      swap2\n      swap1\n      dup2\n      dup2\n      mstore\n      0x20\n      add\n      dup3\n      dup1\n      sload\n      tag_44\n      swap1\n      tag_43\n      jump\t// in\n    tag_44:\n      dup1\n      iszero\n      tag_45\n      jumpi\n      dup1\n      0x1f\n      lt\n      tag_46\n      jumpi\n      0x0100\n      dup1\n      dup4\n      sload\n      div\n      mul\n      dup4\n      mstore\n      swap2\n      0x20\n      add\n      swap2\n      jump(tag_45)\n    tag_46:\n      dup3\n      add\n      swap2\n      swap1\n      0x00\n      mstore\n      keccak256(0x00, 0x20)\n      swap1\n    tag_47:\n      dup2\n      sload\n      dup2\n      mstore\n      swap1\n      0x01\n      add\n      swap1\n      0x20\n      add\n      dup1\n      dup4\n      gt\n      tag_47\n      jumpi\n      dup3\n      swap1\n      sub\n      0x1f\n      and\n      dup3\n      add\n      swap2\n    tag_45:\n      pop\n      pop\n      pop\n      pop\n      pop\n      swap1\n      pop\n        /* \"contracts/HamPepeTraits.sol\":935:1038  function getPants(uint256 i) public view returns (string memory) {... */\n      swap2\n      swap1\n      pop\n      jump\t// out\n        /* \"contracts/HamPepeTraits.sol\":1046:1149  function getShirt(uint256 i) public view returns (string memory) {... */\n    tag_19:\n        /* \"contracts/HamPepeTraits.sol\":1096:1109  string memory */\n      0x60\n        /* \"contracts/HamPepeTraits.sol\":1129:1134  shirt */\n      0x02\n        /* \"contracts/HamPepeTraits.sol\":1129:1138  shirt.map */\n      0x00\n      add\n        /* \"contracts/HamPepeTraits.sol\":1129:1141  shirt.map[i] */\n      0x00\n        /* \"contracts/HamPepeTraits.sol\":1139:1140  i */\n      dup4\n        /* \"contracts/HamPepeTraits.sol\":1129:1141  shirt.map[i] */\n      dup2\n      mstore\n      0x20\n      add\n      swap1\n      dup2\n      mstore\n      0x20\n      add\n      0x00\n      keccak256\n        /* \"contracts/HamPepeTraits.sol\":1122:1141  return shirt.map[i] */\n      dup1\n      sload\n      tag_49\n      swap1\n      tag_43\n      jump\t// in\n    tag_49:\n      dup1\n      0x1f\n      add\n      0x20\n      dup1\n      swap2\n      div\n      mul\n      0x20\n      add\n      mload(0x40)\n      swap1\n      dup2\n      add\n      0x40\n      mstore\n      dup1\n      swap3\n      swap2\n      swap1\n      dup2\n      dup2\n      mstore\n      0x20\n      add\n      dup3\n      dup1\n      sload\n      tag_50\n      swap1\n      tag_43\n      jump\t// in\n    tag_50:\n      dup1\n      iszero\n      tag_51\n      jumpi\n      dup1\n      0x1f\n      lt\n      tag_52\n      jumpi\n      0x0100\n      dup1\n      dup4\n      sload\n      div\n      mul\n      dup4\n      mstore\n      swap2\n      0x20\n      add\n      swap2\n      jump(tag_51)\n    tag_52:\n      dup3\n      add\n      swap2\n      swap1\n      0x00\n      mstore\n      keccak256(0x00, 0x20)\n      swap1\n    tag_53:\n      dup2\n      sload\n      dup2\n      mstore\n      swap1\n      0x01\n      add\n      swap1\n      0x20\n      add\n      dup1\n      dup4\n      gt\n      tag_53\n      jumpi\n      dup3\n      swap1\n      sub\n      0x1f\n      and\n      dup3\n      add\n      swap2\n    tag_51:\n      pop\n      pop\n      pop\n      pop\n      pop\n      swap1\n      pop\n        /* \"contracts/HamPepeTraits.sol\":1046:1149  function getShirt(uint256 i) public view returns (string memory) {... */\n      swap2\n      swap1\n      pop\n      jump\t// out\n        /* \"contracts/HamPepeTraits.sol\":826:927  function getSkin(uint256 i) public view returns (string memory) {... */\n    tag_23:\n        /* \"contracts/HamPepeTraits.sol\":875:888  string memory */\n      0x60\n        /* \"contracts/HamPepeTraits.sol\":908:912  skin */\n      0x00\n        /* \"contracts/HamPepeTraits.sol\":908:916  skin.map */\n      dup1\n      add\n        /* \"contracts/HamPepeTraits.sol\":908:919  skin.map[i] */\n      0x00\n        /* \"contracts/HamPepeTraits.sol\":917:918  i */\n      dup4\n        /* \"contracts/HamPepeTraits.sol\":908:919  skin.map[i] */\n      dup2\n      mstore\n      0x20\n      add\n      swap1\n      dup2\n      mstore\n      0x20\n      add\n      0x00\n      keccak256\n        /* \"contracts/HamPepeTraits.sol\":901:919  return skin.map[i] */\n      dup1\n      sload\n      tag_55\n      swap1\n      tag_43\n      jump\t// in\n    tag_55:\n      dup1\n      0x1f\n      add\n      0x20\n      dup1\n      swap2\n      div\n      mul\n      0x20\n      add\n      mload(0x40)\n      swap1\n      dup2\n      add\n      0x40\n      mstore\n      dup1\n      swap3\n      swap2\n      swap1\n      dup2\n      dup2\n      mstore\n      0x20\n      add\n      dup3\n      dup1\n      sload\n      tag_56\n      swap1\n      tag_43\n      jump\t// in\n    tag_56:\n      dup1\n      iszero\n      tag_57\n      jumpi\n      dup1\n      0x1f\n      lt\n      tag_58\n      jumpi\n      0x0100\n      dup1\n      dup4\n      sload\n      div\n      mul\n      dup4\n      mstore\n      swap2\n      0x20\n      add\n      swap2\n      jump(tag_57)\n    tag_58:\n      dup3\n      add\n      swap2\n      swap1\n      0x00\n      mstore\n      keccak256(0x00, 0x20)\n      swap1\n    tag_59:\n      dup2\n      sload\n      dup2\n      mstore\n      swap1\n      0x01\n      add\n      swap1\n      0x20\n      add\n      dup1\n      dup4\n      gt\n      tag_59\n      jumpi\n      dup3\n      swap1\n      sub\n      0x1f\n      and\n      dup3\n      add\n      swap2\n    tag_57:\n      pop\n      pop\n      pop\n      pop\n      pop\n      swap1\n      pop\n        /* \"contracts/HamPepeTraits.sol\":826:927  function getSkin(uint256 i) public view returns (string memory) {... */\n      swap2\n      swap1\n      pop\n      jump\t// out\n        /* \"contracts/HamPepeTraits.sol\":1157:1258  function getEyes(uint256 i) public view returns (string memory) {... */\n    tag_27:\n        /* \"contracts/HamPepeTraits.sol\":1206:1219  string memory */\n      0x60\n        /* \"contracts/HamPepeTraits.sol\":1239:1243  eyes */\n      0x03\n        /* \"contracts/HamPepeTraits.sol\":1239:1247  eyes.map */\n      0x00\n      add\n        /* \"contracts/HamPepeTraits.sol\":1239:1250  eyes.map[i] */\n      0x00\n        /* \"contracts/HamPepeTraits.sol\":1248:1249  i */\n      dup4\n        /* \"contracts/HamPepeTraits.sol\":1239:1250  eyes.map[i] */\n      dup2\n      mstore\n      0x20\n      add\n      swap1\n      dup2\n      mstore\n      0x20\n      add\n      0x00\n      keccak256\n        /* \"contracts/HamPepeTraits.sol\":1232:1250  return eyes.map[i] */\n      dup1\n      sload\n      tag_61\n      swap1\n      tag_43\n      jump\t// in\n    tag_61:\n      dup1\n      0x1f\n      add\n      0x20\n      dup1\n      swap2\n      div\n      mul\n      0x20\n      add\n      mload(0x40)\n      swap1\n      dup2\n      add\n      0x40\n      mstore\n      dup1\n      swap3\n      swap2\n      swap1\n      dup2\n      dup2\n      mstore\n      0x20\n      add\n      dup3\n      dup1\n      sload\n      tag_62\n      swap1\n      tag_43\n      jump\t// in\n    tag_62:\n      dup1\n      iszero\n      tag_63\n      jumpi\n      dup1\n      0x1f\n      lt\n      tag_64\n      jumpi\n      0x0100\n      dup1\n      dup4\n      sload\n      div\n      mul\n      dup4\n      mstore\n      swap2\n      0x20\n      add\n      swap2\n      jump(tag_63)\n    tag_64:\n      dup3\n      add\n      swap2\n      swap1\n      0x00\n      mstore\n      keccak256(0x00, 0x20)\n      swap1\n    tag_65:\n      dup2\n      sload\n      dup2\n      mstore\n      swap1\n      0x01\n      add\n      swap1\n      0x20\n      add\n      dup1\n      dup4\n      gt\n      tag_65\n      jumpi\n      dup3\n      swap1\n      sub\n      0x1f\n      and\n      dup3\n      add\n      swap2\n    tag_63:\n      pop\n      pop\n      pop\n      pop\n      pop\n      swap1\n      pop\n        /* \"contracts/HamPepeTraits.sol\":1157:1258  function getEyes(uint256 i) public view returns (string memory) {... */\n      swap2\n      swap1\n      pop\n      jump\t// out\n        /* \"contracts/HamPepeTraits.sol\":463:754  string [6] public colours =[... */\n    tag_31:\n      0x06\n      dup2\n      0x06\n      dup2\n      lt\n      tag_66\n      jumpi\n      0x00\n      dup1\n      revert\n    tag_66:\n      add\n      0x00\n      swap2\n      pop\n      swap1\n      pop\n      dup1\n      sload\n      tag_68\n      swap1\n      tag_43\n      jump\t// in\n    tag_68:\n      dup1\n      0x1f\n      add\n      0x20\n      dup1\n      swap2\n      div\n      mul\n      0x20\n      add\n      mload(0x40)\n      swap1\n      dup2\n      add\n      0x40\n      mstore\n      dup1\n      swap3\n      swap2\n      swap1\n      dup2\n      dup2\n      mstore\n      0x20\n      add\n      dup3\n      dup1\n      sload\n      tag_69\n      swap1\n      tag_43\n      jump\t// in\n    tag_69:\n      dup1\n      iszero\n      tag_70\n      jumpi\n      dup1\n      0x1f\n      lt\n      tag_71\n      jumpi\n      0x0100\n      dup1\n      dup4\n      sload\n      div\n      mul\n      dup4\n      mstore\n      swap2\n      0x20\n      add\n      swap2\n      jump(tag_70)\n    tag_71:\n      dup3\n      add\n      swap2\n      swap1\n      0x00\n      mstore\n      keccak256(0x00, 0x20)\n      swap1\n    tag_72:\n      dup2\n      sload\n      dup2\n      mstore\n      swap1\n      0x01\n      add\n      swap1\n      0x20\n      add\n      dup1\n      dup4\n      gt\n      tag_72\n      jumpi\n      dup3\n      swap1\n      sub\n      0x1f\n      and\n      dup3\n      add\n      swap2\n    tag_70:\n      pop\n      pop\n      pop\n      pop\n      pop\n      dup2\n      jump\t// out\n        /* \"contracts/HamPepeTraits.sol\":1266:1365  function getHat(uint256 i) public view returns (string memory) {... */\n    tag_35:\n        /* \"contracts/HamPepeTraits.sol\":1314:1327  string memory */\n      0x60\n        /* \"contracts/HamPepeTraits.sol\":1347:1350  hat */\n      0x04\n        /* \"contracts/HamPepeTraits.sol\":1347:1354  hat.map */\n      0x00\n      add\n        /* \"contracts/HamPepeTraits.sol\":1347:1357  hat.map[i] */\n      0x00\n        /* \"contracts/HamPepeTraits.sol\":1355:1356  i */\n      dup4\n        /* \"contracts/HamPepeTraits.sol\":1347:1357  hat.map[i] */\n      dup2\n      mstore\n      0x20\n      add\n      swap1\n      dup2\n      mstore\n      0x20\n      add\n      0x00\n      keccak256\n        /* \"contracts/HamPepeTraits.sol\":1340:1357  return hat.map[i] */\n      dup1\n      sload\n      tag_74\n      swap1\n      tag_43\n      jump\t// in\n    tag_74:\n      dup1\n      0x1f\n      add\n      0x20\n      dup1\n      swap2\n      div\n      mul\n      0x20\n      add\n      mload(0x40)\n      swap1\n      dup2\n      add\n      0x40\n      mstore\n      dup1\n      swap3\n      swap2\n      swap1\n      dup2\n      dup2\n      mstore\n      0x20\n      add\n      dup3\n      dup1\n      sload\n      tag_75\n      swap1\n      tag_43\n      jump\t// in\n    tag_75:\n      dup1\n      iszero\n      tag_76\n      jumpi\n      dup1\n      0x1f\n      lt\n      tag_77\n      jumpi\n      0x0100\n      dup1\n      dup4\n      sload\n      div\n      mul\n      dup4\n      mstore\n      swap2\n      0x20\n      add\n      swap2\n      jump(tag_76)\n    tag_77:\n      dup3\n      add\n      swap2\n      swap1\n      0x00\n      mstore\n      keccak256(0x00, 0x20)\n      swap1\n    tag_78:\n      dup2\n      sload\n      dup2\n      mstore\n      swap1\n      0x01\n      add\n      swap1\n      0x20\n      add\n      dup1\n      dup4\n      gt\n      tag_78\n      jumpi\n      dup3\n      swap1\n      sub\n      0x1f\n      and\n      dup3\n      add\n      swap2\n    tag_76:\n      pop\n      pop\n      pop\n      pop\n      pop\n      swap1\n      pop\n        /* \"contracts/HamPepeTraits.sol\":1266:1365  function getHat(uint256 i) public view returns (string memory) {... */\n      swap2\n      swap1\n      pop\n      jump\t// out\n        /* \"contracts/HamPepeTraits.sol\":1373:1480  function getSpecial(uint256 i) public view returns (string memory) {... */\n    tag_39:\n        /* \"contracts/HamPepeTraits.sol\":1425:1438  string memory */\n      0x60\n        /* \"contracts/HamPepeTraits.sol\":1458:1465  special */\n      0x05\n        /* \"contracts/HamPepeTraits.sol\":1458:1469  special.map */\n      0x00\n      add\n        /* \"contracts/HamPepeTraits.sol\":1458:1472  special.map[i] */\n      0x00\n        /* \"contracts/HamPepeTraits.sol\":1470:1471  i */\n      dup4\n        /* \"contracts/HamPepeTraits.sol\":1458:1472  special.map[i] */\n      dup2\n      mstore\n      0x20\n      add\n      swap1\n      dup2\n      mstore\n      0x20\n      add\n      0x00\n      keccak256\n        /* \"contracts/HamPepeTraits.sol\":1451:1472  return special.map[i] */\n      dup1\n      sload\n      tag_80\n      swap1\n      tag_43\n      jump\t// in\n    tag_80:\n      dup1\n      0x1f\n      add\n      0x20\n      dup1\n      swap2\n      div\n      mul\n      0x20\n      add\n      mload(0x40)\n      swap1\n      dup2\n      add\n      0x40\n      mstore\n      dup1\n      swap3\n      swap2\n      swap1\n      dup2\n      dup2\n      mstore\n      0x20\n      add\n      dup3\n      dup1\n      sload\n      tag_81\n      swap1\n      tag_43\n      jump\t// in\n    tag_81:\n      dup1\n      iszero\n      tag_82\n      jumpi\n      dup1\n      0x1f\n      lt\n      tag_83\n      jumpi\n      0x0100\n      dup1\n      dup4\n      sload\n      div\n      mul\n      dup4\n      mstore\n      swap2\n      0x20\n      add\n      swap2\n      jump(tag_82)\n    tag_83:\n      dup3\n      add\n      swap2\n      swap1\n      0x00\n      mstore\n      keccak256(0x00, 0x20)\n      swap1\n    tag_84:\n      dup2\n      sload\n      dup2\n      mstore\n      swap1\n      0x01\n      add\n      swap1\n      0x20\n      add\n      dup1\n      dup4\n      gt\n      tag_84\n      jumpi\n      dup3\n      swap1\n      sub\n      0x1f\n      and\n      dup3\n      add\n      swap2\n    tag_82:\n      pop\n      pop\n      pop\n      pop\n      pop\n      swap1\n      pop\n        /* \"contracts/HamPepeTraits.sol\":1373:1480  function getSpecial(uint256 i) public view returns (string memory) {... */\n      swap2\n      swap1\n      pop\n      jump\t// out\n        /* \"#utility.yul\":88:205   */\n    tag_86:\n        /* \"#utility.yul\":197:198   */\n      0x00\n        /* \"#utility.yul\":194:195   */\n      dup1\n        /* \"#utility.yul\":187:199   */\n      revert\n        /* \"#utility.yul\":334:411   */\n    tag_88:\n        /* \"#utility.yul\":371:378   */\n      0x00\n        /* \"#utility.yul\":400:405   */\n      dup2\n        /* \"#utility.yul\":389:405   */\n      swap1\n      pop\n        /* \"#utility.yul\":334:411   */\n      swap2\n      swap1\n      pop\n      jump\t// out\n        /* \"#utility.yul\":417:539   */\n    tag_89:\n        /* \"#utility.yul\":490:514   */\n      tag_103\n        /* \"#utility.yul\":508:513   */\n      dup2\n        /* \"#utility.yul\":490:514   */\n      tag_88\n      jump\t// in\n    tag_103:\n        /* \"#utility.yul\":483:488   */\n      dup2\n        /* \"#utility.yul\":480:515   */\n      eq\n        /* \"#utility.yul\":470:533   */\n      tag_104\n      jumpi\n        /* \"#utility.yul\":529:530   */\n      0x00\n        /* \"#utility.yul\":526:527   */\n      dup1\n        /* \"#utility.yul\":519:531   */\n      revert\n        /* \"#utility.yul\":470:533   */\n    tag_104:\n        /* \"#utility.yul\":417:539   */\n      pop\n      jump\t// out\n        /* \"#utility.yul\":545:684   */\n    tag_90:\n        /* \"#utility.yul\":591:596   */\n      0x00\n        /* \"#utility.yul\":629:635   */\n      dup2\n        /* \"#utility.yul\":616:636   */\n      calldataload\n        /* \"#utility.yul\":607:636   */\n      swap1\n      pop\n        /* \"#utility.yul\":645:678   */\n      tag_106\n        /* \"#utility.yul\":672:677   */\n      dup2\n        /* \"#utility.yul\":645:678   */\n      tag_89\n      jump\t// in\n    tag_106:\n        /* \"#utility.yul\":545:684   */\n      swap3\n      swap2\n      pop\n      pop\n      jump\t// out\n        /* \"#utility.yul\":690:1019   */\n    tag_13:\n        /* \"#utility.yul\":749:755   */\n      0x00\n        /* \"#utility.yul\":798:800   */\n      0x20\n        /* \"#utility.yul\":786:795   */\n      dup3\n        /* \"#utility.yul\":777:784   */\n      dup5\n        /* \"#utility.yul\":773:796   */\n      sub\n        /* \"#utility.yul\":769:801   */\n      slt\n        /* \"#utility.yul\":766:885   */\n      iszero\n      tag_108\n      jumpi\n        /* \"#utility.yul\":804:883   */\n      tag_109\n      tag_86\n      jump\t// in\n    tag_109:\n        /* \"#utility.yul\":766:885   */\n    tag_108:\n        /* \"#utility.yul\":924:925   */\n      0x00\n        /* \"#utility.yul\":949:1002   */\n      tag_110\n        /* \"#utility.yul\":994:1001   */\n      dup5\n        /* \"#utility.yul\":985:991   */\n      dup3\n        /* \"#utility.yul\":974:983   */\n      dup6\n        /* \"#utility.yul\":970:992   */\n      add\n        /* \"#utility.yul\":949:1002   */\n      tag_90\n      jump\t// in\n    tag_110:\n        /* \"#utility.yul\":939:1002   */\n      swap2\n      pop\n        /* \"#utility.yul\":895:1012   */\n      pop\n        /* \"#utility.yul\":690:1019   */\n      swap3\n      swap2\n      pop\n      pop\n      jump\t// out\n        /* \"#utility.yul\":1025:1124   */\n    tag_91:\n        /* \"#utility.yul\":1077:1083   */\n      0x00\n        /* \"#utility.yul\":1111:1116   */\n      dup2\n        /* \"#utility.yul\":1105:1117   */\n      mload\n        /* \"#utility.yul\":1095:1117   */\n      swap1\n      pop\n        /* \"#utility.yul\":1025:1124   */\n      swap2\n      swap1\n      pop\n      jump\t// out\n        /* \"#utility.yul\":1130:1299   */\n    tag_92:\n        /* \"#utility.yul\":1214:1225   */\n      0x00\n        /* \"#utility.yul\":1248:1254   */\n      dup3\n        /* \"#utility.yul\":1243:1246   */\n      dup3\n        /* \"#utility.yul\":1236:1255   */\n      mstore\n        /* \"#utility.yul\":1288:1292   */\n      0x20\n        /* \"#utility.yul\":1283:1286   */\n      dup3\n        /* \"#utility.yul\":1279:1293   */\n      add\n        /* \"#utility.yul\":1264:1293   */\n      swap1\n      pop\n        /* \"#utility.yul\":1130:1299   */\n      swap3\n      swap2\n      pop\n      pop\n      jump\t// out\n        /* \"#utility.yul\":1305:1553   */\n    tag_93:\n        /* \"#utility.yul\":1387:1388   */\n      0x00\n        /* \"#utility.yul\":1397:1510   */\n    tag_114:\n        /* \"#utility.yul\":1411:1417   */\n      dup4\n        /* \"#utility.yul\":1408:1409   */\n      dup2\n        /* \"#utility.yul\":1405:1418   */\n      lt\n        /* \"#utility.yul\":1397:1510   */\n      iszero\n      tag_116\n      jumpi\n        /* \"#utility.yul\":1496:1497   */\n      dup1\n        /* \"#utility.yul\":1491:1494   */\n      dup3\n        /* \"#utility.yul\":1487:1498   */\n      add\n        /* \"#utility.yul\":1481:1499   */\n      mload\n        /* \"#utility.yul\":1477:1478   */\n      dup2\n        /* \"#utility.yul\":1472:1475   */\n      dup5\n        /* \"#utility.yul\":1468:1479   */\n      add\n        /* \"#utility.yul\":1461:1500   */\n      mstore\n        /* \"#utility.yul\":1433:1435   */\n      0x20\n        /* \"#utility.yul\":1430:1431   */\n      dup2\n        /* \"#utility.yul\":1426:1436   */\n      add\n        /* \"#utility.yul\":1421:1436   */\n      swap1\n      pop\n        /* \"#utility.yul\":1397:1510   */\n      jump(tag_114)\n    tag_116:\n        /* \"#utility.yul\":1544:1545   */\n      0x00\n        /* \"#utility.yul\":1535:1541   */\n      dup5\n        /* \"#utility.yul\":1530:1533   */\n      dup5\n        /* \"#utility.yul\":1526:1542   */\n      add\n        /* \"#utility.yul\":1519:1546   */\n      mstore\n        /* \"#utility.yul\":1367:1553   */\n      pop\n        /* \"#utility.yul\":1305:1553   */\n      pop\n      pop\n      pop\n      jump\t// out\n        /* \"#utility.yul\":1559:1661   */\n    tag_94:\n        /* \"#utility.yul\":1600:1606   */\n      0x00\n        /* \"#utility.yul\":1651:1653   */\n      0x1f\n        /* \"#utility.yul\":1647:1654   */\n      not\n        /* \"#utility.yul\":1642:1644   */\n      0x1f\n        /* \"#utility.yul\":1635:1640   */\n      dup4\n        /* \"#utility.yul\":1631:1645   */\n      add\n        /* \"#utility.yul\":1627:1655   */\n      and\n        /* \"#utility.yul\":1617:1655   */\n      swap1\n      pop\n        /* \"#utility.yul\":1559:1661   */\n      swap2\n      swap1\n      pop\n      jump\t// out\n        /* \"#utility.yul\":1667:2044   */\n    tag_95:\n        /* \"#utility.yul\":1755:1758   */\n      0x00\n        /* \"#utility.yul\":1783:1822   */\n      tag_119\n        /* \"#utility.yul\":1816:1821   */\n      dup3\n        /* \"#utility.yul\":1783:1822   */\n      tag_91\n      jump\t// in\n    tag_119:\n        /* \"#utility.yul\":1838:1909   */\n      tag_120\n        /* \"#utility.yul\":1902:1908   */\n      dup2\n        /* \"#utility.yul\":1897:1900   */\n      dup6\n        /* \"#utility.yul\":1838:1909   */\n      tag_92\n      jump\t// in\n    tag_120:\n        /* \"#utility.yul\":1831:1909   */\n      swap4\n      pop\n        /* \"#utility.yul\":1918:1983   */\n      tag_121\n        /* \"#utility.yul\":1976:1982   */\n      dup2\n        /* \"#utility.yul\":1971:1974   */\n      dup6\n        /* \"#utility.yul\":1964:1968   */\n      0x20\n        /* \"#utility.yul\":1957:1962   */\n      dup7\n        /* \"#utility.yul\":1953:1969   */\n      add\n        /* \"#utility.yul\":1918:1983   */\n      tag_93\n      jump\t// in\n    tag_121:\n        /* \"#utility.yul\":2008:2037   */\n      tag_122\n        /* \"#utility.yul\":2030:2036   */\n      dup2\n        /* \"#utility.yul\":2008:2037   */\n      tag_94\n      jump\t// in\n    tag_122:\n        /* \"#utility.yul\":2003:2006   */\n      dup5\n        /* \"#utility.yul\":1999:2038   */\n      add\n        /* \"#utility.yul\":1992:2038   */\n      swap2\n      pop\n        /* \"#utility.yul\":1759:2044   */\n      pop\n        /* \"#utility.yul\":1667:2044   */\n      swap3\n      swap2\n      pop\n      pop\n      jump\t// out\n        /* \"#utility.yul\":2050:2363   */\n    tag_16:\n        /* \"#utility.yul\":2163:2167   */\n      0x00\n        /* \"#utility.yul\":2201:2203   */\n      0x20\n        /* \"#utility.yul\":2190:2199   */\n      dup3\n        /* \"#utility.yul\":2186:2204   */\n      add\n        /* \"#utility.yul\":2178:2204   */\n      swap1\n      pop\n        /* \"#utility.yul\":2250:2259   */\n      dup2\n        /* \"#utility.yul\":2244:2248   */\n      dup2\n        /* \"#utility.yul\":2240:2260   */\n      sub\n        /* \"#utility.yul\":2236:2237   */\n      0x00\n        /* \"#utility.yul\":2225:2234   */\n      dup4\n        /* \"#utility.yul\":2221:2238   */\n      add\n        /* \"#utility.yul\":2214:2261   */\n      mstore\n        /* \"#utility.yul\":2278:2356   */\n      tag_124\n        /* \"#utility.yul\":2351:2355   */\n      dup2\n        /* \"#utility.yul\":2342:2348   */\n      dup5\n        /* \"#utility.yul\":2278:2356   */\n      tag_95\n      jump\t// in\n    tag_124:\n        /* \"#utility.yul\":2270:2356   */\n      swap1\n      pop\n        /* \"#utility.yul\":2050:2363   */\n      swap3\n      swap2\n      pop\n      pop\n      jump\t// out\n        /* \"#utility.yul\":2369:2549   */\n    tag_96:\n        /* \"#utility.yul\":2417:2494   */\n      0x4e487b7100000000000000000000000000000000000000000000000000000000\n        /* \"#utility.yul\":2414:2415   */\n      0x00\n        /* \"#utility.yul\":2407:2495   */\n      mstore\n        /* \"#utility.yul\":2514:2518   */\n      0x22\n        /* \"#utility.yul\":2511:2512   */\n      0x04\n        /* \"#utility.yul\":2504:2519   */\n      mstore\n        /* \"#utility.yul\":2538:2542   */\n      0x24\n        /* \"#utility.yul\":2535:2536   */\n      0x00\n        /* \"#utility.yul\":2528:2543   */\n      revert\n        /* \"#utility.yul\":2555:2875   */\n    tag_43:\n        /* \"#utility.yul\":2599:2605   */\n      0x00\n        /* \"#utility.yul\":2636:2637   */\n      0x02\n        /* \"#utility.yul\":2630:2634   */\n      dup3\n        /* \"#utility.yul\":2626:2638   */\n      div\n        /* \"#utility.yul\":2616:2638   */\n      swap1\n      pop\n        /* \"#utility.yul\":2683:2684   */\n      0x01\n        /* \"#utility.yul\":2677:2681   */\n      dup3\n        /* \"#utility.yul\":2673:2685   */\n      and\n        /* \"#utility.yul\":2704:2722   */\n      dup1\n        /* \"#utility.yul\":2694:2775   */\n      tag_127\n      jumpi\n        /* \"#utility.yul\":2760:2764   */\n      0x7f\n        /* \"#utility.yul\":2752:2758   */\n      dup3\n        /* \"#utility.yul\":2748:2765   */\n      and\n        /* \"#utility.yul\":2738:2765   */\n      swap2\n      pop\n        /* \"#utility.yul\":2694:2775   */\n    tag_127:\n        /* \"#utility.yul\":2822:2824   */\n      0x20\n        /* \"#utility.yul\":2814:2820   */\n      dup3\n        /* \"#utility.yul\":2811:2825   */\n      lt\n        /* \"#utility.yul\":2791:2809   */\n      dup2\n        /* \"#utility.yul\":2788:2826   */\n      sub\n        /* \"#utility.yul\":2785:2869   */\n      tag_128\n      jumpi\n        /* \"#utility.yul\":2841:2859   */\n      tag_129\n      tag_96\n      jump\t// in\n    tag_129:\n        /* \"#utility.yul\":2785:2869   */\n    tag_128:\n        /* \"#utility.yul\":2606:2875   */\n      pop\n        /* \"#utility.yul\":2555:2875   */\n      swap2\n      swap1\n      pop\n      jump\t// out\n\n    auxdata: 0xa2646970667358221220939da7e9378e21bf95c7768fe25d850e5a9c53d7a6d312dabe0eaeada766223f64736f6c634300081a0033\n}\n",
				"bytecode": {
					"linkReferences": {},
					"object": "60806040526040518060c001604052806040518060400160405280600781526020017f236561343934390000000000000000000000000000000000000000000000000081525081526020016040518060400160405280600781526020017f233466666662650000000000000000000000000000000000000000000000000081525081526020016040518060400160405280600781526020017f233030626366650000000000000000000000000000000000000000000000000081525081526020016040518060400160405280600781526020017f236564643930300000000000000000000000000000000000000000000000000081525081526020016040518060400160405280600781526020017f236666616365620000000000000000000000000000000000000000000000000081525081526020016040518060400160405280600781526020017f2361356135613500000000000000000000000000000000000000000000000000815250815250600690600661017f929190611187565b5034801561018b575f80fd5b506040518060400160405280600881526020017f536b656c65746f6e0000000000000000000000000000000000000000000000008152505f80015f600181526020019081526020015f2090816101e19190611488565b506040518060400160405280600581526020017f526f626f740000000000000000000000000000000000000000000000000000008152505f80015f600281526020019081526020015f2090816102379190611488565b506040518060400160405280600581526020017f4a656c6c790000000000000000000000000000000000000000000000000000008152505f80015f600381526020019081526020015f20908161028d9190611488565b506040518060400160405280600d81526020017f4f72616e67652073686f7274730000000000000000000000000000000000000081525060015f015f600481526020019081526020015f2090816102e49190611488565b506040518060400160405280600b81526020017f50696e6b2073686f72747300000000000000000000000000000000000000000081525060015f015f600581526020019081526020015f20908161033b9190611488565b506040518060400160405280600b81526020017f477265792073686f72747300000000000000000000000000000000000000000081525060015f015f600681526020019081526020015f2090816103929190611488565b506040518060400160405280600c81526020017f42726f776e2073686f727473000000000000000000000000000000000000000081525060015f015f600781526020019081526020015f2090816103e99190611488565b506040518060400160405280600a81526020017f426c75652073686972740000000000000000000000000000000000000000000081525060025f015f600881526020019081526020015f2090816104409190611488565b506040518060400160405280600981526020017f4d69616d692044414f000000000000000000000000000000000000000000000081525060025f015f600981526020019081526020015f2090816104979190611488565b506040518060400160405280600881526020017f4261736562616c6c00000000000000000000000000000000000000000000000081525060025f015f600a81526020019081526020015f2090816104ee9190611488565b506040518060400160405280600881526020017f4f766572616c6c7300000000000000000000000000000000000000000000000081525060025f015f600b81526020019081526020015f2090816105459190611488565b506040518060400160405280600e81526020017f556e69636f726e20666c6f61747900000000000000000000000000000000000081525060025f015f600c81526020019081526020015f20908161059c9190611488565b506040518060400160405280600f81526020017f426c61636b20747261636b73756974000000000000000000000000000000000081525060025f015f600d81526020019081526020015f2090816105f39190611488565b506040518060400160405280600d81526020017f52656420747261636b737569740000000000000000000000000000000000000081525060025f015f600e81526020019081526020015f20908161064a9190611488565b506040518060400160405280600881526020017f5261696e636f617400000000000000000000000000000000000000000000000081525060025f015f600f81526020019081526020015f2090816106a19190611488565b506040518060400160405280600981526020017f4661737420666f6f64000000000000000000000000000000000000000000000081525060025f015f601081526020019081526020015f2090816106f89190611488565b506040518060400160405280600681526020017f536861646573000000000000000000000000000000000000000000000000000081525060035f015f601181526020019081526020015f20908161074f9190611488565b506040518060400160405280600981526020017f53756e6e7973696465000000000000000000000000000000000000000000000081525060035f015f601281526020019081526020015f2090816107a69190611488565b506040518060400160405280600781526020017f4e6f67676c65730000000000000000000000000000000000000000000000000081525060035f015f601381526020019081526020015f2090816107fd9190611488565b506040518060400160405280600a81526020017f334420476c61737365730000000000000000000000000000000000000000000081525060035f015f601481526020019081526020015f2090816108549190611488565b506040518060400160405280600681526020017f536d6f6b6564000000000000000000000000000000000000000000000000000081525060035f015f601581526020019081526020015f2090816108ab9190611488565b506040518060400160405280600481526020017f4d61736b0000000000000000000000000000000000000000000000000000000081525060035f015f601681526020019081526020015f2090816109029190611488565b506040518060400160405280600481526020017f436f6f6c0000000000000000000000000000000000000000000000000000000081525060035f015f601781526020019081526020015f2090816109599190611488565b506040518060400160405280600581526020017f566970657200000000000000000000000000000000000000000000000000000081525060035f015f601881526020019081526020015f2090816109b09190611488565b506040518060400160405280600781526020017f436c61737369630000000000000000000000000000000000000000000000000081525060045f015f601981526020019081526020015f209081610a079190611488565b506040518060400160405280600581526020017f446567656e00000000000000000000000000000000000000000000000000000081525060045f015f601a81526020019081526020015f209081610a5e9190611488565b506040518060400160405280600681526020017f57697a617264000000000000000000000000000000000000000000000000000081525060045f015f601b81526020019081526020015f209081610ab59190611488565b506040518060400160405280600581526020017f426173656400000000000000000000000000000000000000000000000000000081525060045f015f601c81526020019081526020015f209081610b0c9190611488565b506040518060400160405280600381526020017f46657a000000000000000000000000000000000000000000000000000000000081525060045f015f601d81526020019081526020015f209081610b639190611488565b506040518060400160405280600a81526020017f4865616470686f6e65730000000000000000000000000000000000000000000081525060045f015f601e81526020019081526020015f209081610bba9190611488565b506040518060400160405280600481526020017f48616c6f0000000000000000000000000000000000000000000000000000000081525060045f015f601f81526020019081526020015f209081610c119190611488565b506040518060400160405280600681526020017f436f77626f79000000000000000000000000000000000000000000000000000081525060045f015f602081526020019081526020015f209081610c689190611488565b506040518060400160405280600781526020017f5370696e6e65720000000000000000000000000000000000000000000000000081525060045f015f602181526020019081526020015f209081610cbf9190611488565b506040518060400160405280600481526020017f42616e640000000000000000000000000000000000000000000000000000000081525060045f015f602281526020019081526020015f209081610d169190611488565b506040518060400160405280600681526020017f4265616e6965000000000000000000000000000000000000000000000000000081525060045f015f602381526020019081526020015f209081610d6d9190611488565b506040518060400160405280600681526020017f5370726f7574000000000000000000000000000000000000000000000000000081525060045f015f602481526020019081526020015f209081610dc49190611488565b506040518060400160405280600581526020017f43726f776e00000000000000000000000000000000000000000000000000000081525060045f015f602581526020019081526020015f209081610e1b9190611488565b506040518060400160405280600681526020017f506972617465000000000000000000000000000000000000000000000000000081525060045f015f602681526020019081526020015f209081610e729190611488565b506040518060400160405280600581526020017f506172747900000000000000000000000000000000000000000000000000000081525060045f015f602781526020019081526020015f209081610ec99190611488565b506040518060400160405280600a81526020017f4c65707265636861756e0000000000000000000000000000000000000000000081525060045f015f602881526020019081526020015f209081610f209190611488565b506040518060400160405280600781526020017f526f6f737465720000000000000000000000000000000000000000000000000081525060045f015f602981526020019081526020015f209081610f779190611488565b506040518060400160405280600981526020017f436967617265747465000000000000000000000000000000000000000000000081525060055f015f602a81526020019081526020015f209081610fce9190611488565b506040518060400160405280600481526020017f566170650000000000000000000000000000000000000000000000000000000081525060055f015f602b81526020019081526020015f2090816110259190611488565b506040518060400160405280600481526020017f506970650000000000000000000000000000000000000000000000000000000081525060055f015f602c81526020019081526020015f20908161107c9190611488565b506040518060400160405280600481526020017f50756b650000000000000000000000000000000000000000000000000000000081525060055f015f602d81526020019081526020015f2090816110d39190611488565b506040518060400160405280600681526020017f427562626c65000000000000000000000000000000000000000000000000000081525060055f015f602e81526020019081526020015f20908161112a9190611488565b506040518060400160405280600581526020017f436967617200000000000000000000000000000000000000000000000000000081525060055f015f602f81526020019081526020015f2090816111819190611488565b50611557565b82600681019282156111c2579160200282015b828111156111c15782518290816111b19190611488565b509160200191906001019061119a565b5b5090506111cf91906111d3565b5090565b5b808211156111f2575f81816111e991906111f6565b506001016111d4565b5090565b508054611202906112b2565b5f825580601f106112135750611230565b601f0160209004905f5260205f209081019061122f9190611233565b5b50565b5b8082111561124a575f815f905550600101611234565b5090565b5f81519050919050565b7f4e487b71000000000000000000000000000000000000000000000000000000005f52604160045260245ffd5b7f4e487b71000000000000000000000000000000000000000000000000000000005f52602260045260245ffd5b5f60028204905060018216806112c957607f821691505b6020821081036112dc576112db611285565b5b50919050565b5f819050815f5260205f209050919050565b5f6020601f8301049050919050565b5f82821b905092915050565b5f6008830261133e7fffffffffffffffffffffffffffffffffffffffffffffffffffffffffffffffff82611303565b6113488683611303565b95508019841693508086168417925050509392505050565b5f819050919050565b5f819050919050565b5f61138c61138761138284611360565b611369565b611360565b9050919050565b5f819050919050565b6113a583611372565b6113b96113b182611393565b84845461130f565b825550505050565b5f90565b6113cd6113c1565b6113d881848461139c565b505050565b5b818110156113fb576113f05f826113c5565b6001810190506113de565b5050565b601f82111561144057611411816112e2565b61141a846112f4565b81016020851015611429578190505b61143d611435856112f4565b8301826113dd565b50505b505050565b5f82821c905092915050565b5f6114605f1984600802611445565b1980831691505092915050565b5f6114788383611451565b9150826002028217905092915050565b6114918261124e565b67ffffffffffffffff8111156114aa576114a9611258565b5b6114b482546112b2565b6114bf8282856113ff565b5f60209050601f8311600181146114f0575f84156114de578287015190505b6114e8858261146d565b86555061154f565b601f1984166114fe866112e2565b5f5b8281101561152557848901518255600182019150602085019450602081019050611500565b86831015611542578489015161153e601f891682611451565b8355505b6001600288020188555050505b505050505050565b6107de806115645f395ff3fe608060405234801561000f575f80fd5b506004361061007b575f3560e01c8063c4d30bfa11610059578063c4d30bfa1461010f578063c76ab9401461013f578063d2571f881461016f578063e1d916f71461019f5761007b565b80634337932d1461007f5780634c9c05ea146100af57806398e4f581146100df575b5f80fd5b61009960048036038101906100949190610676565b6101cf565b6040516100a6919061072b565b60405180910390f35b6100c960048036038101906100c49190610676565b610272565b6040516100d6919061072b565b60405180910390f35b6100f960048036038101906100f49190610676565b610315565b604051610106919061072b565b60405180910390f35b61012960048036038101906101249190610676565b6103b7565b604051610136919061072b565b60405180910390f35b61015960048036038101906101549190610676565b61045a565b604051610166919061072b565b60405180910390f35b61018960048036038101906101849190610676565b6104f9565b604051610196919061072b565b60405180910390f35b6101b960048036038101906101b49190610676565b61059c565b6040516101c6919061072b565b60405180910390f35b606060015f015f8381526020019081526020015f2080546101ef90610778565b80601f016020809104026020016040519081016040528092919081815260200182805461021b90610778565b80156102665780601f1061023d57610100808354040283529160200191610266565b820191905f5260205f20905b81548152906001019060200180831161024957829003601f168201915b50505050509050919050565b606060025f015f8381526020019081526020015f20805461029290610778565b80601f01602080910402602001604051908101604052809291908181526020018280546102be90610778565b80156103095780601f106102e057610100808354040283529160200191610309565b820191905f5260205f20905b8154815290600101906020018083116102ec57829003601f168201915b50505050509050919050565b60605f80015f8381526020019081526020015f20805461033490610778565b80601f016020809104026020016040519081016040528092919081815260200182805461036090610778565b80156103ab5780601f10610382576101008083540402835291602001916103ab565b820191905f5260205f20905b81548152906001019060200180831161038e57829003601f168201915b50505050509050919050565b606060035f015f8381526020019081526020015f2080546103d790610778565b80601f016020809104026020016040519081016040528092919081815260200182805461040390610778565b801561044e5780601f106104255761010080835404028352916020019161044e565b820191905f5260205f20905b81548152906001019060200180831161043157829003601f168201915b50505050509050919050565b60068160068110610469575f80fd5b015f91509050805461047a90610778565b80601f01602080910402602001604051908101604052809291908181526020018280546104a690610778565b80156104f15780601f106104c8576101008083540402835291602001916104f1565b820191905f5260205f20905b8154815290600101906020018083116104d457829003601f168201915b505050505081565b606060045f015f8381526020019081526020015f20805461051990610778565b80601f016020809104026020016040519081016040528092919081815260200182805461054590610778565b80156105905780601f1061056757610100808354040283529160200191610590565b820191905f5260205f20905b81548152906001019060200180831161057357829003601f168201915b50505050509050919050565b606060055f015f8381526020019081526020015f2080546105bc90610778565b80601f01602080910402602001604051908101604052809291908181526020018280546105e890610778565b80156106335780601f1061060a57610100808354040283529160200191610633565b820191905f5260205f20905b81548152906001019060200180831161061657829003601f168201915b50505050509050919050565b5f80fd5b5f819050919050565b61065581610643565b811461065f575f80fd5b50565b5f813590506106708161064c565b92915050565b5f6020828403121561068b5761068a61063f565b5b5f61069884828501610662565b91505092915050565b5f81519050919050565b5f82825260208201905092915050565b5f5b838110156106d85780820151818401526020810190506106bd565b5f8484015250505050565b5f601f19601f8301169050919050565b5f6106fd826106a1565b61070781856106ab565b93506107178185602086016106bb565b610720816106e3565b840191505092915050565b5f6020820190508181035f83015261074381846106f3565b905092915050565b7f4e487b71000000000000000000000000000000000000000000000000000000005f52602260045260245ffd5b5f600282049050600182168061078f57607f821691505b6020821081036107a2576107a161074b565b5b5091905056fea2646970667358221220939da7e9378e21bf95c7768fe25d850e5a9c53d7a6d312dabe0eaeada766223f64736f6c634300081a0033",
					"opcodes": "PUSH1 0x80 PUSH1 0x40 MSTORE PUSH1 0x40 MLOAD DUP1 PUSH1 0xC0 ADD PUSH1 0x40 MSTORE DUP1 PUSH1 0x40 MLOAD DUP1 PUSH1 0x40 ADD PUSH1 0x40 MSTORE DUP1 PUSH1 0x7 DUP2 MSTORE PUSH1 0x20 ADD PUSH32 0x2365613439343900000000000000000000000000000000000000000000000000 DUP2 MSTORE POP DUP2 MSTORE PUSH1 0x20 ADD PUSH1 0x40 MLOAD DUP1 PUSH1 0x40 ADD PUSH1 0x40 MSTORE DUP1 PUSH1 0x7 DUP2 MSTORE PUSH1 0x20 ADD PUSH32 0x2334666666626500000000000000000000000000000000000000000000000000 DUP2 MSTORE POP DUP2 MSTORE PUSH1 0x20 ADD PUSH1 0x40 MLOAD DUP1 PUSH1 0x40 ADD PUSH1 0x40 MSTORE DUP1 PUSH1 0x7 DUP2 MSTORE PUSH1 0x20 ADD PUSH32 0x2330306263666500000000000000000000000000000000000000000000000000 DUP2 MSTORE POP DUP2 MSTORE PUSH1 0x20 ADD PUSH1 0x40 MLOAD DUP1 PUSH1 0x40 ADD PUSH1 0x40 MSTORE DUP1 PUSH1 0x7 DUP2 MSTORE PUSH1 0x20 ADD PUSH32 0x2365646439303000000000000000000000000000000000000000000000000000 DUP2 MSTORE POP DUP2 MSTORE PUSH1 0x20 ADD PUSH1 0x40 MLOAD DUP1 PUSH1 0x40 ADD PUSH1 0x40 MSTORE DUP1 PUSH1 0x7 DUP2 MSTORE PUSH1 0x20 ADD PUSH32 0x2366666163656200000000000000000000000000000000000000000000000000 DUP2 MSTORE POP DUP2 MSTORE PUSH1 0x20 ADD PUSH1 0x40 MLOAD DUP1 PUSH1 0x40 ADD PUSH1 0x40 MSTORE DUP1 PUSH1 0x7 DUP2 MSTORE PUSH1 0x20 ADD PUSH32 0x2361356135613500000000000000000000000000000000000000000000000000 DUP2 MSTORE POP DUP2 MSTORE POP PUSH1 0x6 SWAP1 PUSH1 0x6 PUSH2 0x17F SWAP3 SWAP2 SWAP1 PUSH2 0x1187 JUMP JUMPDEST POP CALLVALUE DUP1 ISZERO PUSH2 0x18B JUMPI PUSH0 DUP1 REVERT JUMPDEST POP PUSH1 0x40 MLOAD DUP1 PUSH1 0x40 ADD PUSH1 0x40 MSTORE DUP1 PUSH1 0x8 DUP2 MSTORE PUSH1 0x20 ADD PUSH32 0x536B656C65746F6E000000000000000000000000000000000000000000000000 DUP2 MSTORE POP PUSH0 DUP1 ADD PUSH0 PUSH1 0x1 DUP2 MSTORE PUSH1 0x20 ADD SWAP1 DUP2 MSTORE PUSH1 0x20 ADD PUSH0 KECCAK256 SWAP1 DUP2 PUSH2 0x1E1 SWAP2 SWAP1 PUSH2 0x1488 JUMP JUMPDEST POP PUSH1 0x40 MLOAD DUP1 PUSH1 0x40 ADD PUSH1 0x40 MSTORE DUP1 PUSH1 0x5 DUP2 MSTORE PUSH1 0x20 ADD PUSH32 0x526F626F74000000000000000000000000000000000000000000000000000000 DUP2 MSTORE POP PUSH0 DUP1 ADD PUSH0 PUSH1 0x2 DUP2 MSTORE PUSH1 0x20 ADD SWAP1 DUP2 MSTORE PUSH1 0x20 ADD PUSH0 KECCAK256 SWAP1 DUP2 PUSH2 0x237 SWAP2 SWAP1 PUSH2 0x1488 JUMP JUMPDEST POP PUSH1 0x40 MLOAD DUP1 PUSH1 0x40 ADD PUSH1 0x40 MSTORE DUP1 PUSH1 0x5 DUP2 MSTORE PUSH1 0x20 ADD PUSH32 0x4A656C6C79000000000000000000000000000000000000000000000000000000 DUP2 MSTORE POP PUSH0 DUP1 ADD PUSH0 PUSH1 0x3 DUP2 MSTORE PUSH1 0x20 ADD SWAP1 DUP2 MSTORE PUSH1 0x20 ADD PUSH0 KECCAK256 SWAP1 DUP2 PUSH2 0x28D SWAP2 SWAP1 PUSH2 0x1488 JUMP JUMPDEST POP PUSH1 0x40 MLOAD DUP1 PUSH1 0x40 ADD PUSH1 0x40 MSTORE DUP1 PUSH1 0xD DUP2 MSTORE PUSH1 0x20 ADD PUSH32 0x4F72616E67652073686F72747300000000000000000000000000000000000000 DUP2 MSTORE POP PUSH1 0x1 PUSH0 ADD PUSH0 PUSH1 0x4 DUP2 MSTORE PUSH1 0x20 ADD SWAP1 DUP2 MSTORE PUSH1 0x20 ADD PUSH0 KECCAK256 SWAP1 DUP2 PUSH2 0x2E4 SWAP2 SWAP1 PUSH2 0x1488 JUMP JUMPDEST POP PUSH1 0x40 MLOAD DUP1 PUSH1 0x40 ADD PUSH1 0x40 MSTORE DUP1 PUSH1 0xB DUP2 MSTORE PUSH1 0x20 ADD PUSH32 0x50696E6B2073686F727473000000000000000000000000000000000000000000 DUP2 MSTORE POP PUSH1 0x1 PUSH0 ADD PUSH0 PUSH1 0x5 DUP2 MSTORE PUSH1 0x20 ADD SWAP1 DUP2 MSTORE PUSH1 0x20 ADD PUSH0 KECCAK256 SWAP1 DUP2 PUSH2 0x33B SWAP2 SWAP1 PUSH2 0x1488 JUMP JUMPDEST POP PUSH1 0x40 MLOAD DUP1 PUSH1 0x40 ADD PUSH1 0x40 MSTORE DUP1 PUSH1 0xB DUP2 MSTORE PUSH1 0x20 ADD PUSH32 0x477265792073686F727473000000000000000000000000000000000000000000 DUP2 MSTORE POP PUSH1 0x1 PUSH0 ADD PUSH0 PUSH1 0x6 DUP2 MSTORE PUSH1 0x20 ADD SWAP1 DUP2 MSTORE PUSH1 0x20 ADD PUSH0 KECCAK256 SWAP1 DUP2 PUSH2 0x392 SWAP2 SWAP1 PUSH2 0x1488 JUMP JUMPDEST POP PUSH1 0x40 MLOAD DUP1 PUSH1 0x40 ADD PUSH1 0x40 MSTORE DUP1 PUSH1 0xC DUP2 MSTORE PUSH1 0x20 ADD PUSH32 0x42726F776E2073686F7274730000000000000000000000000000000000000000 DUP2 MSTORE POP PUSH1 0x1 PUSH0 ADD PUSH0 PUSH1 0x7 DUP2 MSTORE PUSH1 0x20 ADD SWAP1 DUP2 MSTORE PUSH1 0x20 ADD PUSH0 KECCAK256 SWAP1 DUP2 PUSH2 0x3E9 SWAP2 SWAP1 PUSH2 0x1488 JUMP JUMPDEST POP PUSH1 0x40 MLOAD DUP1 PUSH1 0x40 ADD PUSH1 0x40 MSTORE DUP1 PUSH1 0xA DUP2 MSTORE PUSH1 0x20 ADD PUSH32 0x426C756520736869727400000000000000000000000000000000000000000000 DUP2 MSTORE POP PUSH1 0x2 PUSH0 ADD PUSH0 PUSH1 0x8 DUP2 MSTORE PUSH1 0x20 ADD SWAP1 DUP2 MSTORE PUSH1 0x20 ADD PUSH0 KECCAK256 SWAP1 DUP2 PUSH2 0x440 SWAP2 SWAP1 PUSH2 0x1488 JUMP JUMPDEST POP PUSH1 0x40 MLOAD DUP1 PUSH1 0x40 ADD PUSH1 0x40 MSTORE DUP1 PUSH1 0x9 DUP2 MSTORE PUSH1 0x20 ADD PUSH32 0x4D69616D692044414F0000000000000000000000000000000000000000000000 DUP2 MSTORE POP PUSH1 0x2 PUSH0 ADD PUSH0 PUSH1 0x9 DUP2 MSTORE PUSH1 0x20 ADD SWAP1 DUP2 MSTORE PUSH1 0x20 ADD PUSH0 KECCAK256 SWAP1 DUP2 PUSH2 0x497 SWAP2 SWAP1 PUSH2 0x1488 JUMP JUMPDEST POP PUSH1 0x40 MLOAD DUP1 PUSH1 0x40 ADD PUSH1 0x40 MSTORE DUP1 PUSH1 0x8 DUP2 MSTORE PUSH1 0x20 ADD PUSH32 0x4261736562616C6C000000000000000000000000000000000000000000000000 DUP2 MSTORE POP PUSH1 0x2 PUSH0 ADD PUSH0 PUSH1 0xA DUP2 MSTORE PUSH1 0x20 ADD SWAP1 DUP2 MSTORE PUSH1 0x20 ADD PUSH0 KECCAK256 SWAP1 DUP2 PUSH2 0x4EE SWAP2 SWAP1 PUSH2 0x1488 JUMP JUMPDEST POP PUSH1 0x40 MLOAD DUP1 PUSH1 0x40 ADD PUSH1 0x40 MSTORE DUP1 PUSH1 0x8 DUP2 MSTORE PUSH1 0x20 ADD PUSH32 0x4F766572616C6C73000000000000000000000000000000000000000000000000 DUP2 MSTORE POP PUSH1 0x2 PUSH0 ADD PUSH0 PUSH1 0xB DUP2 MSTORE PUSH1 0x20 ADD SWAP1 DUP2 MSTORE PUSH1 0x20 ADD PUSH0 KECCAK256 SWAP1 DUP2 PUSH2 0x545 SWAP2 SWAP1 PUSH2 0x1488 JUMP JUMPDEST POP PUSH1 0x40 MLOAD DUP1 PUSH1 0x40 ADD PUSH1 0x40 MSTORE DUP1 PUSH1 0xE DUP2 MSTORE PUSH1 0x20 ADD PUSH32 0x556E69636F726E20666C6F617479000000000000000000000000000000000000 DUP2 MSTORE POP PUSH1 0x2 PUSH0 ADD PUSH0 PUSH1 0xC DUP2 MSTORE PUSH1 0x20 ADD SWAP1 DUP2 MSTORE PUSH1 0x20 ADD PUSH0 KECCAK256 SWAP1 DUP2 PUSH2 0x59C SWAP2 SWAP1 PUSH2 0x1488 JUMP JUMPDEST POP PUSH1 0x40 MLOAD DUP1 PUSH1 0x40 ADD PUSH1 0x40 MSTORE DUP1 PUSH1 0xF DUP2 MSTORE PUSH1 0x20 ADD PUSH32 0x426C61636B20747261636B737569740000000000000000000000000000000000 DUP2 MSTORE POP PUSH1 0x2 PUSH0 ADD PUSH0 PUSH1 0xD DUP2 MSTORE PUSH1 0x20 ADD SWAP1 DUP2 MSTORE PUSH1 0x20 ADD PUSH0 KECCAK256 SWAP1 DUP2 PUSH2 0x5F3 SWAP2 SWAP1 PUSH2 0x1488 JUMP JUMPDEST POP PUSH1 0x40 MLOAD DUP1 PUSH1 0x40 ADD PUSH1 0x40 MSTORE DUP1 PUSH1 0xD DUP2 MSTORE PUSH1 0x20 ADD PUSH32 0x52656420747261636B7375697400000000000000000000000000000000000000 DUP2 MSTORE POP PUSH1 0x2 PUSH0 ADD PUSH0 PUSH1 0xE DUP2 MSTORE PUSH1 0x20 ADD SWAP1 DUP2 MSTORE PUSH1 0x20 ADD PUSH0 KECCAK256 SWAP1 DUP2 PUSH2 0x64A SWAP2 SWAP1 PUSH2 0x1488 JUMP JUMPDEST POP PUSH1 0x40 MLOAD DUP1 PUSH1 0x40 ADD PUSH1 0x40 MSTORE DUP1 PUSH1 0x8 DUP2 MSTORE PUSH1 0x20 ADD PUSH32 0x5261696E636F6174000000000000000000000000000000000000000000000000 DUP2 MSTORE POP PUSH1 0x2 PUSH0 ADD PUSH0 PUSH1 0xF DUP2 MSTORE PUSH1 0x20 ADD SWAP1 DUP2 MSTORE PUSH1 0x20 ADD PUSH0 KECCAK256 SWAP1 DUP2 PUSH2 0x6A1 SWAP2 SWAP1 PUSH2 0x1488 JUMP JUMPDEST POP PUSH1 0x40 MLOAD DUP1 PUSH1 0x40 ADD PUSH1 0x40 MSTORE DUP1 PUSH1 0x9 DUP2 MSTORE PUSH1 0x20 ADD PUSH32 0x4661737420666F6F640000000000000000000000000000000000000000000000 DUP2 MSTORE POP PUSH1 0x2 PUSH0 ADD PUSH0 PUSH1 0x10 DUP2 MSTORE PUSH1 0x20 ADD SWAP1 DUP2 MSTORE PUSH1 0x20 ADD PUSH0 KECCAK256 SWAP1 DUP2 PUSH2 0x6F8 SWAP2 SWAP1 PUSH2 0x1488 JUMP JUMPDEST POP PUSH1 0x40 MLOAD DUP1 PUSH1 0x40 ADD PUSH1 0x40 MSTORE DUP1 PUSH1 0x6 DUP2 MSTORE PUSH1 0x20 ADD PUSH32 0x5368616465730000000000000000000000000000000000000000000000000000 DUP2 MSTORE POP PUSH1 0x3 PUSH0 ADD PUSH0 PUSH1 0x11 DUP2 MSTORE PUSH1 0x20 ADD SWAP1 DUP2 MSTORE PUSH1 0x20 ADD PUSH0 KECCAK256 SWAP1 DUP2 PUSH2 0x74F SWAP2 SWAP1 PUSH2 0x1488 JUMP JUMPDEST POP PUSH1 0x40 MLOAD DUP1 PUSH1 0x40 ADD PUSH1 0x40 MSTORE DUP1 PUSH1 0x9 DUP2 MSTORE PUSH1 0x20 ADD PUSH32 0x53756E6E79736964650000000000000000000000000000000000000000000000 DUP2 MSTORE POP PUSH1 0x3 PUSH0 ADD PUSH0 PUSH1 0x12 DUP2 MSTORE PUSH1 0x20 ADD SWAP1 DUP2 MSTORE PUSH1 0x20 ADD PUSH0 KECCAK256 SWAP1 DUP2 PUSH2 0x7A6 SWAP2 SWAP1 PUSH2 0x1488 JUMP JUMPDEST POP PUSH1 0x40 MLOAD DUP1 PUSH1 0x40 ADD PUSH1 0x40 MSTORE DUP1 PUSH1 0x7 DUP2 MSTORE PUSH1 0x20 ADD PUSH32 0x4E6F67676C657300000000000000000000000000000000000000000000000000 DUP2 MSTORE POP PUSH1 0x3 PUSH0 ADD PUSH0 PUSH1 0x13 DUP2 MSTORE PUSH1 0x20 ADD SWAP1 DUP2 MSTORE PUSH1 0x20 ADD PUSH0 KECCAK256 SWAP1 DUP2 PUSH2 0x7FD SWAP2 SWAP1 PUSH2 0x1488 JUMP JUMPDEST POP PUSH1 0x40 MLOAD DUP1 PUSH1 0x40 ADD PUSH1 0x40 MSTORE DUP1 PUSH1 0xA DUP2 MSTORE PUSH1 0x20 ADD PUSH32 0x334420476C617373657300000000000000000000000000000000000000000000 DUP2 MSTORE POP PUSH1 0x3 PUSH0 ADD PUSH0 PUSH1 0x14 DUP2 MSTORE PUSH1 0x20 ADD SWAP1 DUP2 MSTORE PUSH1 0x20 ADD PUSH0 KECCAK256 SWAP1 DUP2 PUSH2 0x854 SWAP2 SWAP1 PUSH2 0x1488 JUMP JUMPDEST POP PUSH1 0x40 MLOAD DUP1 PUSH1 0x40 ADD PUSH1 0x40 MSTORE DUP1 PUSH1 0x6 DUP2 MSTORE PUSH1 0x20 ADD PUSH32 0x536D6F6B65640000000000000000000000000000000000000000000000000000 DUP2 MSTORE POP PUSH1 0x3 PUSH0 ADD PUSH0 PUSH1 0x15 DUP2 MSTORE PUSH1 0x20 ADD SWAP1 DUP2 MSTORE PUSH1 0x20 ADD PUSH0 KECCAK256 SWAP1 DUP2 PUSH2 0x8AB SWAP2 SWAP1 PUSH2 0x1488 JUMP JUMPDEST POP PUSH1 0x40 MLOAD DUP1 PUSH1 0x40 ADD PUSH1 0x40 MSTORE DUP1 PUSH1 0x4 DUP2 MSTORE PUSH1 0x20 ADD PUSH32 0x4D61736B00000000000000000000000000000000000000000000000000000000 DUP2 MSTORE POP PUSH1 0x3 PUSH0 ADD PUSH0 PUSH1 0x16 DUP2 MSTORE PUSH1 0x20 ADD SWAP1 DUP2 MSTORE PUSH1 0x20 ADD PUSH0 KECCAK256 SWAP1 DUP2 PUSH2 0x902 SWAP2 SWAP1 PUSH2 0x1488 JUMP JUMPDEST POP PUSH1 0x40 MLOAD DUP1 PUSH1 0x40 ADD PUSH1 0x40 MSTORE DUP1 PUSH1 0x4 DUP2 MSTORE PUSH1 0x20 ADD PUSH32 0x436F6F6C00000000000000000000000000000000000000000000000000000000 DUP2 MSTORE POP PUSH1 0x3 PUSH0 ADD PUSH0 PUSH1 0x17 DUP2 MSTORE PUSH1 0x20 ADD SWAP1 DUP2 MSTORE PUSH1 0x20 ADD PUSH0 KECCAK256 SWAP1 DUP2 PUSH2 0x959 SWAP2 SWAP1 PUSH2 0x1488 JUMP JUMPDEST POP PUSH1 0x40 MLOAD DUP1 PUSH1 0x40 ADD PUSH1 0x40 MSTORE DUP1 PUSH1 0x5 DUP2 MSTORE PUSH1 0x20 ADD PUSH32 0x5669706572000000000000000000000000000000000000000000000000000000 DUP2 MSTORE POP PUSH1 0x3 PUSH0 ADD PUSH0 PUSH1 0x18 DUP2 MSTORE PUSH1 0x20 ADD SWAP1 DUP2 MSTORE PUSH1 0x20 ADD PUSH0 KECCAK256 SWAP1 DUP2 PUSH2 0x9B0 SWAP2 SWAP1 PUSH2 0x1488 JUMP JUMPDEST POP PUSH1 0x40 MLOAD DUP1 PUSH1 0x40 ADD PUSH1 0x40 MSTORE DUP1 PUSH1 0x7 DUP2 MSTORE PUSH1 0x20 ADD PUSH32 0x436C617373696300000000000000000000000000000000000000000000000000 DUP2 MSTORE POP PUSH1 0x4 PUSH0 ADD PUSH0 PUSH1 0x19 DUP2 MSTORE PUSH1 0x20 ADD SWAP1 DUP2 MSTORE PUSH1 0x20 ADD PUSH0 KECCAK256 SWAP1 DUP2 PUSH2 0xA07 SWAP2 SWAP1 PUSH2 0x1488 JUMP JUMPDEST POP PUSH1 0x40 MLOAD DUP1 PUSH1 0x40 ADD PUSH1 0x40 MSTORE DUP1 PUSH1 0x5 DUP2 MSTORE PUSH1 0x20 ADD PUSH32 0x446567656E000000000000000000000000000000000000000000000000000000 DUP2 MSTORE POP PUSH1 0x4 PUSH0 ADD PUSH0 PUSH1 0x1A DUP2 MSTORE PUSH1 0x20 ADD SWAP1 DUP2 MSTORE PUSH1 0x20 ADD PUSH0 KECCAK256 SWAP1 DUP2 PUSH2 0xA5E SWAP2 SWAP1 PUSH2 0x1488 JUMP JUMPDEST POP PUSH1 0x40 MLOAD DUP1 PUSH1 0x40 ADD PUSH1 0x40 MSTORE DUP1 PUSH1 0x6 DUP2 MSTORE PUSH1 0x20 ADD PUSH32 0x57697A6172640000000000000000000000000000000000000000000000000000 DUP2 MSTORE POP PUSH1 0x4 PUSH0 ADD PUSH0 PUSH1 0x1B DUP2 MSTORE PUSH1 0x20 ADD SWAP1 DUP2 MSTORE PUSH1 0x20 ADD PUSH0 KECCAK256 SWAP1 DUP2 PUSH2 0xAB5 SWAP2 SWAP1 PUSH2 0x1488 JUMP JUMPDEST POP PUSH1 0x40 MLOAD DUP1 PUSH1 0x40 ADD PUSH1 0x40 MSTORE DUP1 PUSH1 0x5 DUP2 MSTORE PUSH1 0x20 ADD PUSH32 0x4261736564000000000000000000000000000000000000000000000000000000 DUP2 MSTORE POP PUSH1 0x4 PUSH0 ADD PUSH0 PUSH1 0x1C DUP2 MSTORE PUSH1 0x20 ADD SWAP1 DUP2 MSTORE PUSH1 0x20 ADD PUSH0 KECCAK256 SWAP1 DUP2 PUSH2 0xB0C SWAP2 SWAP1 PUSH2 0x1488 JUMP JUMPDEST POP PUSH1 0x40 MLOAD DUP1 PUSH1 0x40 ADD PUSH1 0x40 MSTORE DUP1 PUSH1 0x3 DUP2 MSTORE PUSH1 0x20 ADD PUSH32 0x46657A0000000000000000000000000000000000000000000000000000000000 DUP2 MSTORE POP PUSH1 0x4 PUSH0 ADD PUSH0 PUSH1 0x1D DUP2 MSTORE PUSH1 0x20 ADD SWAP1 DUP2 MSTORE PUSH1 0x20 ADD PUSH0 KECCAK256 SWAP1 DUP2 PUSH2 0xB63 SWAP2 SWAP1 PUSH2 0x1488 JUMP JUMPDEST POP PUSH1 0x40 MLOAD DUP1 PUSH1 0x40 ADD PUSH1 0x40 MSTORE DUP1 PUSH1 0xA DUP2 MSTORE PUSH1 0x20 ADD PUSH32 0x4865616470686F6E657300000000000000000000000000000000000000000000 DUP2 MSTORE POP PUSH1 0x4 PUSH0 ADD PUSH0 PUSH1 0x1E DUP2 MSTORE PUSH1 0x20 ADD SWAP1 DUP2 MSTORE PUSH1 0x20 ADD PUSH0 KECCAK256 SWAP1 DUP2 PUSH2 0xBBA SWAP2 SWAP1 PUSH2 0x1488 JUMP JUMPDEST POP PUSH1 0x40 MLOAD DUP1 PUSH1 0x40 ADD PUSH1 0x40 MSTORE DUP1 PUSH1 0x4 DUP2 MSTORE PUSH1 0x20 ADD PUSH32 0x48616C6F00000000000000000000000000000000000000000000000000000000 DUP2 MSTORE POP PUSH1 0x4 PUSH0 ADD PUSH0 PUSH1 0x1F DUP2 MSTORE PUSH1 0x20 ADD SWAP1 DUP2 MSTORE PUSH1 0x20 ADD PUSH0 KECCAK256 SWAP1 DUP2 PUSH2 0xC11 SWAP2 SWAP1 PUSH2 0x1488 JUMP JUMPDEST POP PUSH1 0x40 MLOAD DUP1 PUSH1 0x40 ADD PUSH1 0x40 MSTORE DUP1 PUSH1 0x6 DUP2 MSTORE PUSH1 0x20 ADD PUSH32 0x436F77626F790000000000000000000000000000000000000000000000000000 DUP2 MSTORE POP PUSH1 0x4 PUSH0 ADD PUSH0 PUSH1 0x20 DUP2 MSTORE PUSH1 0x20 ADD SWAP1 DUP2 MSTORE PUSH1 0x20 ADD PUSH0 KECCAK256 SWAP1 DUP2 PUSH2 0xC68 SWAP2 SWAP1 PUSH2 0x1488 JUMP JUMPDEST POP PUSH1 0x40 MLOAD DUP1 PUSH1 0x40 ADD PUSH1 0x40 MSTORE DUP1 PUSH1 0x7 DUP2 MSTORE PUSH1 0x20 ADD PUSH32 0x5370696E6E657200000000000000000000000000000000000000000000000000 DUP2 MSTORE POP PUSH1 0x4 PUSH0 ADD PUSH0 PUSH1 0x21 DUP2 MSTORE PUSH1 0x20 ADD SWAP1 DUP2 MSTORE PUSH1 0x20 ADD PUSH0 KECCAK256 SWAP1 DUP2 PUSH2 0xCBF SWAP2 SWAP1 PUSH2 0x1488 JUMP JUMPDEST POP PUSH1 0x40 MLOAD DUP1 PUSH1 0x40 ADD PUSH1 0x40 MSTORE DUP1 PUSH1 0x4 DUP2 MSTORE PUSH1 0x20 ADD PUSH32 0x42616E6400000000000000000000000000000000000000000000000000000000 DUP2 MSTORE POP PUSH1 0x4 PUSH0 ADD PUSH0 PUSH1 0x22 DUP2 MSTORE PUSH1 0x20 ADD SWAP1 DUP2 MSTORE PUSH1 0x20 ADD PUSH0 KECCAK256 SWAP1 DUP2 PUSH2 0xD16 SWAP2 SWAP1 PUSH2 0x1488 JUMP JUMPDEST POP PUSH1 0x40 MLOAD DUP1 PUSH1 0x40 ADD PUSH1 0x40 MSTORE DUP1 PUSH1 0x6 DUP2 MSTORE PUSH1 0x20 ADD PUSH32 0x4265616E69650000000000000000000000000000000000000000000000000000 DUP2 MSTORE POP PUSH1 0x4 PUSH0 ADD PUSH0 PUSH1 0x23 DUP2 MSTORE PUSH1 0x20 ADD SWAP1 DUP2 MSTORE PUSH1 0x20 ADD PUSH0 KECCAK256 SWAP1 DUP2 PUSH2 0xD6D SWAP2 SWAP1 PUSH2 0x1488 JUMP JUMPDEST POP PUSH1 0x40 MLOAD DUP1 PUSH1 0x40 ADD PUSH1 0x40 MSTORE DUP1 PUSH1 0x6 DUP2 MSTORE PUSH1 0x20 ADD PUSH32 0x5370726F75740000000000000000000000000000000000000000000000000000 DUP2 MSTORE POP PUSH1 0x4 PUSH0 ADD PUSH0 PUSH1 0x24 DUP2 MSTORE PUSH1 0x20 ADD SWAP1 DUP2 MSTORE PUSH1 0x20 ADD PUSH0 KECCAK256 SWAP1 DUP2 PUSH2 0xDC4 SWAP2 SWAP1 PUSH2 0x1488 JUMP JUMPDEST POP PUSH1 0x40 MLOAD DUP1 PUSH1 0x40 ADD PUSH1 0x40 MSTORE DUP1 PUSH1 0x5 DUP2 MSTORE PUSH1 0x20 ADD PUSH32 0x43726F776E000000000000000000000000000000000000000000000000000000 DUP2 MSTORE POP PUSH1 0x4 PUSH0 ADD PUSH0 PUSH1 0x25 DUP2 MSTORE PUSH1 0x20 ADD SWAP1 DUP2 MSTORE PUSH1 0x20 ADD PUSH0 KECCAK256 SWAP1 DUP2 PUSH2 0xE1B SWAP2 SWAP1 PUSH2 0x1488 JUMP JUMPDEST POP PUSH1 0x40 MLOAD DUP1 PUSH1 0x40 ADD PUSH1 0x40 MSTORE DUP1 PUSH1 0x6 DUP2 MSTORE PUSH1 0x20 ADD PUSH32 0x5069726174650000000000000000000000000000000000000000000000000000 DUP2 MSTORE POP PUSH1 0x4 PUSH0 ADD PUSH0 PUSH1 0x26 DUP2 MSTORE PUSH1 0x20 ADD SWAP1 DUP2 MSTORE PUSH1 0x20 ADD PUSH0 KECCAK256 SWAP1 DUP2 PUSH2 0xE72 SWAP2 SWAP1 PUSH2 0x1488 JUMP JUMPDEST POP PUSH1 0x40 MLOAD DUP1 PUSH1 0x40 ADD PUSH1 0x40 MSTORE DUP1 PUSH1 0x5 DUP2 MSTORE PUSH1 0x20 ADD PUSH32 0x5061727479000000000000000000000000000000000000000000000000000000 DUP2 MSTORE POP PUSH1 0x4 PUSH0 ADD PUSH0 PUSH1 0x27 DUP2 MSTORE PUSH1 0x20 ADD SWAP1 DUP2 MSTORE PUSH1 0x20 ADD PUSH0 KECCAK256 SWAP1 DUP2 PUSH2 0xEC9 SWAP2 SWAP1 PUSH2 0x1488 JUMP JUMPDEST POP PUSH1 0x40 MLOAD DUP1 PUSH1 0x40 ADD PUSH1 0x40 MSTORE DUP1 PUSH1 0xA DUP2 MSTORE PUSH1 0x20 ADD PUSH32 0x4C65707265636861756E00000000000000000000000000000000000000000000 DUP2 MSTORE POP PUSH1 0x4 PUSH0 ADD PUSH0 PUSH1 0x28 DUP2 MSTORE PUSH1 0x20 ADD SWAP1 DUP2 MSTORE PUSH1 0x20 ADD PUSH0 KECCAK256 SWAP1 DUP2 PUSH2 0xF20 SWAP2 SWAP1 PUSH2 0x1488 JUMP JUMPDEST POP PUSH1 0x40 MLOAD DUP1 PUSH1 0x40 ADD PUSH1 0x40 MSTORE DUP1 PUSH1 0x7 DUP2 MSTORE PUSH1 0x20 ADD PUSH32 0x526F6F7374657200000000000000000000000000000000000000000000000000 DUP2 MSTORE POP PUSH1 0x4 PUSH0 ADD PUSH0 PUSH1 0x29 DUP2 MSTORE PUSH1 0x20 ADD SWAP1 DUP2 MSTORE PUSH1 0x20 ADD PUSH0 KECCAK256 SWAP1 DUP2 PUSH2 0xF77 SWAP2 SWAP1 PUSH2 0x1488 JUMP JUMPDEST POP PUSH1 0x40 MLOAD DUP1 PUSH1 0x40 ADD PUSH1 0x40 MSTORE DUP1 PUSH1 0x9 DUP2 MSTORE PUSH1 0x20 ADD PUSH32 0x4369676172657474650000000000000000000000000000000000000000000000 DUP2 MSTORE POP PUSH1 0x5 PUSH0 ADD PUSH0 PUSH1 0x2A DUP2 MSTORE PUSH1 0x20 ADD SWAP1 DUP2 MSTORE PUSH1 0x20 ADD PUSH0 KECCAK256 SWAP1 DUP2 PUSH2 0xFCE SWAP2 SWAP1 PUSH2 0x1488 JUMP JUMPDEST POP PUSH1 0x40 MLOAD DUP1 PUSH1 0x40 ADD PUSH1 0x40 MSTORE DUP1 PUSH1 0x4 DUP2 MSTORE PUSH1 0x20 ADD PUSH32 0x5661706500000000000000000000000000000000000000000000000000000000 DUP2 MSTORE POP PUSH1 0x5 PUSH0 ADD PUSH0 PUSH1 0x2B DUP2 MSTORE PUSH1 0x20 ADD SWAP1 DUP2 MSTORE PUSH1 0x20 ADD PUSH0 KECCAK256 SWAP1 DUP2 PUSH2 0x1025 SWAP2 SWAP1 PUSH2 0x1488 JUMP JUMPDEST POP PUSH1 0x40 MLOAD DUP1 PUSH1 0x40 ADD PUSH1 0x40 MSTORE DUP1 PUSH1 0x4 DUP2 MSTORE PUSH1 0x20 ADD PUSH32 0x5069706500000000000000000000000000000000000000000000000000000000 DUP2 MSTORE POP PUSH1 0x5 PUSH0 ADD PUSH0 PUSH1 0x2C DUP2 MSTORE PUSH1 0x20 ADD SWAP1 DUP2 MSTORE PUSH1 0x20 ADD PUSH0 KECCAK256 SWAP1 DUP2 PUSH2 0x107C SWAP2 SWAP1 PUSH2 0x1488 JUMP JUMPDEST POP PUSH1 0x40 MLOAD DUP1 PUSH1 0x40 ADD PUSH1 0x40 MSTORE DUP1 PUSH1 0x4 DUP2 MSTORE PUSH1 0x20 ADD PUSH32 0x50756B6500000000000000000000000000000000000000000000000000000000 DUP2 MSTORE POP PUSH1 0x5 PUSH0 ADD PUSH0 PUSH1 0x2D DUP2 MSTORE PUSH1 0x20 ADD SWAP1 DUP2 MSTORE PUSH1 0x20 ADD PUSH0 KECCAK256 SWAP1 DUP2 PUSH2 0x10D3 SWAP2 SWAP1 PUSH2 0x1488 JUMP JUMPDEST POP PUSH1 0x40 MLOAD DUP1 PUSH1 0x40 ADD PUSH1 0x40 MSTORE DUP1 PUSH1 0x6 DUP2 MSTORE PUSH1 0x20 ADD PUSH32 0x427562626C650000000000000000000000000000000000000000000000000000 DUP2 MSTORE POP PUSH1 0x5 PUSH0 ADD PUSH0 PUSH1 0x2E DUP2 MSTORE PUSH1 0x20 ADD SWAP1 DUP2 MSTORE PUSH1 0x20 ADD PUSH0 KECCAK256 SWAP1 DUP2 PUSH2 0x112A SWAP2 SWAP1 PUSH2 0x1488 JUMP JUMPDEST POP PUSH1 0x40 MLOAD DUP1 PUSH1 0x40 ADD PUSH1 0x40 MSTORE DUP1 PUSH1 0x5 DUP2 MSTORE PUSH1 0x20 ADD PUSH32 0x4369676172000000000000000000000000000000000000000000000000000000 DUP2 MSTORE POP PUSH1 0x5 PUSH0 ADD PUSH0 PUSH1 0x2F DUP2 MSTORE PUSH1 0x20 ADD SWAP1 DUP2 MSTORE PUSH1 0x20 ADD PUSH0 KECCAK256 SWAP1 DUP2 PUSH2 0x1181 SWAP2 SWAP1 PUSH2 0x1488 JUMP JUMPDEST POP PUSH2 0x1557 JUMP JUMPDEST DUP3 PUSH1 0x6 DUP2 ADD SWAP3 DUP3 ISZERO PUSH2 0x11C2 JUMPI SWAP2 PUSH1 0x20 MUL DUP3 ADD JUMPDEST DUP3 DUP2 GT ISZERO PUSH2 0x11C1 JUMPI DUP3 MLOAD DUP3 SWAP1 DUP2 PUSH2 0x11B1 SWAP2 SWAP1 PUSH2 0x1488 JUMP JUMPDEST POP SWAP2 PUSH1 0x20 ADD SWAP2 SWAP1 PUSH1 0x1 ADD SWAP1 PUSH2 0x119A JUMP JUMPDEST JUMPDEST POP SWAP1 POP PUSH2 0x11CF SWAP2 SWAP1 PUSH2 0x11D3 JUMP JUMPDEST POP SWAP1 JUMP JUMPDEST JUMPDEST DUP1 DUP3 GT ISZERO PUSH2 0x11F2 JUMPI PUSH0 DUP2 DUP2 PUSH2 0x11E9 SWAP2 SWAP1 PUSH2 0x11F6 JUMP JUMPDEST POP PUSH1 0x1 ADD PUSH2 0x11D4 JUMP JUMPDEST POP SWAP1 JUMP JUMPDEST POP DUP1 SLOAD PUSH2 0x1202 SWAP1 PUSH2 0x12B2 JUMP JUMPDEST PUSH0 DUP3 SSTORE DUP1 PUSH1 0x1F LT PUSH2 0x1213 JUMPI POP PUSH2 0x1230 JUMP JUMPDEST PUSH1 0x1F ADD PUSH1 0x20 SWAP1 DIV SWAP1 PUSH0 MSTORE PUSH1 0x20 PUSH0 KECCAK256 SWAP1 DUP2 ADD SWAP1 PUSH2 0x122F SWAP2 SWAP1 PUSH2 0x1233 JUMP JUMPDEST JUMPDEST POP JUMP JUMPDEST JUMPDEST DUP1 DUP3 GT ISZERO PUSH2 0x124A JUMPI PUSH0 DUP2 PUSH0 SWAP1 SSTORE POP PUSH1 0x1 ADD PUSH2 0x1234 JUMP JUMPDEST POP SWAP1 JUMP JUMPDEST PUSH0 DUP2 MLOAD SWAP1 POP SWAP2 SWAP1 POP JUMP JUMPDEST PUSH32 0x4E487B7100000000000000000000000000000000000000000000000000000000 PUSH0 MSTORE PUSH1 0x41 PUSH1 0x4 MSTORE PUSH1 0x24 PUSH0 REVERT JUMPDEST PUSH32 0x4E487B7100000000000000000000000000000000000000000000000000000000 PUSH0 MSTORE PUSH1 0x22 PUSH1 0x4 MSTORE PUSH1 0x24 PUSH0 REVERT JUMPDEST PUSH0 PUSH1 0x2 DUP3 DIV SWAP1 POP PUSH1 0x1 DUP3 AND DUP1 PUSH2 0x12C9 JUMPI PUSH1 0x7F DUP3 AND SWAP2 POP JUMPDEST PUSH1 0x20 DUP3 LT DUP2 SUB PUSH2 0x12DC JUMPI PUSH2 0x12DB PUSH2 0x1285 JUMP JUMPDEST JUMPDEST POP SWAP2 SWAP1 POP JUMP JUMPDEST PUSH0 DUP2 SWAP1 POP DUP2 PUSH0 MSTORE PUSH1 0x20 PUSH0 KECCAK256 SWAP1 POP SWAP2 SWAP1 POP JUMP JUMPDEST PUSH0 PUSH1 0x20 PUSH1 0x1F DUP4 ADD DIV SWAP1 POP SWAP2 SWAP1 POP JUMP JUMPDEST PUSH0 DUP3 DUP3 SHL SWAP1 POP SWAP3 SWAP2 POP POP JUMP JUMPDEST PUSH0 PUSH1 0x8 DUP4 MUL PUSH2 0x133E PUSH32 0xFFFFFFFFFFFFFFFFFFFFFFFFFFFFFFFFFFFFFFFFFFFFFFFFFFFFFFFFFFFFFFFF DUP3 PUSH2 0x1303 JUMP JUMPDEST PUSH2 0x1348 DUP7 DUP4 PUSH2 0x1303 JUMP JUMPDEST SWAP6 POP DUP1 NOT DUP5 AND SWAP4 POP DUP1 DUP7 AND DUP5 OR SWAP3 POP POP POP SWAP4 SWAP3 POP POP POP JUMP JUMPDEST PUSH0 DUP2 SWAP1 POP SWAP2 SWAP1 POP JUMP JUMPDEST PUSH0 DUP2 SWAP1 POP SWAP2 SWAP1 POP JUMP JUMPDEST PUSH0 PUSH2 0x138C PUSH2 0x1387 PUSH2 0x1382 DUP5 PUSH2 0x1360 JUMP JUMPDEST PUSH2 0x1369 JUMP JUMPDEST PUSH2 0x1360 JUMP JUMPDEST SWAP1 POP SWAP2 SWAP1 POP JUMP JUMPDEST PUSH0 DUP2 SWAP1 POP SWAP2 SWAP1 POP JUMP JUMPDEST PUSH2 0x13A5 DUP4 PUSH2 0x1372 JUMP JUMPDEST PUSH2 0x13B9 PUSH2 0x13B1 DUP3 PUSH2 0x1393 JUMP JUMPDEST DUP5 DUP5 SLOAD PUSH2 0x130F JUMP JUMPDEST DUP3 SSTORE POP POP POP POP JUMP JUMPDEST PUSH0 SWAP1 JUMP JUMPDEST PUSH2 0x13CD PUSH2 0x13C1 JUMP JUMPDEST PUSH2 0x13D8 DUP2 DUP5 DUP5 PUSH2 0x139C JUMP JUMPDEST POP POP POP JUMP JUMPDEST JUMPDEST DUP2 DUP2 LT ISZERO PUSH2 0x13FB JUMPI PUSH2 0x13F0 PUSH0 DUP3 PUSH2 0x13C5 JUMP JUMPDEST PUSH1 0x1 DUP2 ADD SWAP1 POP PUSH2 0x13DE JUMP JUMPDEST POP POP JUMP JUMPDEST PUSH1 0x1F DUP3 GT ISZERO PUSH2 0x1440 JUMPI PUSH2 0x1411 DUP2 PUSH2 0x12E2 JUMP JUMPDEST PUSH2 0x141A DUP5 PUSH2 0x12F4 JUMP JUMPDEST DUP2 ADD PUSH1 0x20 DUP6 LT ISZERO PUSH2 0x1429 JUMPI DUP2 SWAP1 POP JUMPDEST PUSH2 0x143D PUSH2 0x1435 DUP6 PUSH2 0x12F4 JUMP JUMPDEST DUP4 ADD DUP3 PUSH2 0x13DD JUMP JUMPDEST POP POP JUMPDEST POP POP POP JUMP JUMPDEST PUSH0 DUP3 DUP3 SHR SWAP1 POP SWAP3 SWAP2 POP POP JUMP JUMPDEST PUSH0 PUSH2 0x1460 PUSH0 NOT DUP5 PUSH1 0x8 MUL PUSH2 0x1445 JUMP JUMPDEST NOT DUP1 DUP4 AND SWAP2 POP POP SWAP3 SWAP2 POP POP JUMP JUMPDEST PUSH0 PUSH2 0x1478 DUP4 DUP4 PUSH2 0x1451 JUMP JUMPDEST SWAP2 POP DUP3 PUSH1 0x2 MUL DUP3 OR SWAP1 POP SWAP3 SWAP2 POP POP JUMP JUMPDEST PUSH2 0x1491 DUP3 PUSH2 0x124E JUMP JUMPDEST PUSH8 0xFFFFFFFFFFFFFFFF DUP2 GT ISZERO PUSH2 0x14AA JUMPI PUSH2 0x14A9 PUSH2 0x1258 JUMP JUMPDEST JUMPDEST PUSH2 0x14B4 DUP3 SLOAD PUSH2 0x12B2 JUMP JUMPDEST PUSH2 0x14BF DUP3 DUP3 DUP6 PUSH2 0x13FF JUMP JUMPDEST PUSH0 PUSH1 0x20 SWAP1 POP PUSH1 0x1F DUP4 GT PUSH1 0x1 DUP2 EQ PUSH2 0x14F0 JUMPI PUSH0 DUP5 ISZERO PUSH2 0x14DE JUMPI DUP3 DUP8 ADD MLOAD SWAP1 POP JUMPDEST PUSH2 0x14E8 DUP6 DUP3 PUSH2 0x146D JUMP JUMPDEST DUP7 SSTORE POP PUSH2 0x154F JUMP JUMPDEST PUSH1 0x1F NOT DUP5 AND PUSH2 0x14FE DUP7 PUSH2 0x12E2 JUMP JUMPDEST PUSH0 JUMPDEST DUP3 DUP2 LT ISZERO PUSH2 0x1525 JUMPI DUP5 DUP10 ADD MLOAD DUP3 SSTORE PUSH1 0x1 DUP3 ADD SWAP2 POP PUSH1 0x20 DUP6 ADD SWAP5 POP PUSH1 0x20 DUP2 ADD SWAP1 POP PUSH2 0x1500 JUMP JUMPDEST DUP7 DUP4 LT ISZERO PUSH2 0x1542 JUMPI DUP5 DUP10 ADD MLOAD PUSH2 0x153E PUSH1 0x1F DUP10 AND DUP3 PUSH2 0x1451 JUMP JUMPDEST DUP4 SSTORE POP JUMPDEST PUSH1 0x1 PUSH1 0x2 DUP9 MUL ADD DUP9 SSTORE POP POP POP JUMPDEST POP POP POP POP POP POP JUMP JUMPDEST PUSH2 0x7DE DUP1 PUSH2 0x1564 PUSH0 CODECOPY PUSH0 RETURN INVALID PUSH1 0x80 PUSH1 0x40 MSTORE CALLVALUE DUP1 ISZERO PUSH2 0xF JUMPI PUSH0 DUP1 REVERT JUMPDEST POP PUSH1 0x4 CALLDATASIZE LT PUSH2 0x7B JUMPI PUSH0 CALLDATALOAD PUSH1 0xE0 SHR DUP1 PUSH4 0xC4D30BFA GT PUSH2 0x59 JUMPI DUP1 PUSH4 0xC4D30BFA EQ PUSH2 0x10F JUMPI DUP1 PUSH4 0xC76AB940 EQ PUSH2 0x13F JUMPI DUP1 PUSH4 0xD2571F88 EQ PUSH2 0x16F JUMPI DUP1 PUSH4 0xE1D916F7 EQ PUSH2 0x19F JUMPI PUSH2 0x7B JUMP JUMPDEST DUP1 PUSH4 0x4337932D EQ PUSH2 0x7F JUMPI DUP1 PUSH4 0x4C9C05EA EQ PUSH2 0xAF JUMPI DUP1 PUSH4 0x98E4F581 EQ PUSH2 0xDF JUMPI JUMPDEST PUSH0 DUP1 REVERT JUMPDEST PUSH2 0x99 PUSH1 0x4 DUP1 CALLDATASIZE SUB DUP2 ADD SWAP1 PUSH2 0x94 SWAP2 SWAP1 PUSH2 0x676 JUMP JUMPDEST PUSH2 0x1CF JUMP JUMPDEST PUSH1 0x40 MLOAD PUSH2 0xA6 SWAP2 SWAP1 PUSH2 0x72B JUMP JUMPDEST PUSH1 0x40 MLOAD DUP1 SWAP2 SUB SWAP1 RETURN JUMPDEST PUSH2 0xC9 PUSH1 0x4 DUP1 CALLDATASIZE SUB DUP2 ADD SWAP1 PUSH2 0xC4 SWAP2 SWAP1 PUSH2 0x676 JUMP JUMPDEST PUSH2 0x272 JUMP JUMPDEST PUSH1 0x40 MLOAD PUSH2 0xD6 SWAP2 SWAP1 PUSH2 0x72B JUMP JUMPDEST PUSH1 0x40 MLOAD DUP1 SWAP2 SUB SWAP1 RETURN JUMPDEST PUSH2 0xF9 PUSH1 0x4 DUP1 CALLDATASIZE SUB DUP2 ADD SWAP1 PUSH2 0xF4 SWAP2 SWAP1 PUSH2 0x676 JUMP JUMPDEST PUSH2 0x315 JUMP JUMPDEST PUSH1 0x40 MLOAD PUSH2 0x106 SWAP2 SWAP1 PUSH2 0x72B JUMP JUMPDEST PUSH1 0x40 MLOAD DUP1 SWAP2 SUB SWAP1 RETURN JUMPDEST PUSH2 0x129 PUSH1 0x4 DUP1 CALLDATASIZE SUB DUP2 ADD SWAP1 PUSH2 0x124 SWAP2 SWAP1 PUSH2 0x676 JUMP JUMPDEST PUSH2 0x3B7 JUMP JUMPDEST PUSH1 0x40 MLOAD PUSH2 0x136 SWAP2 SWAP1 PUSH2 0x72B JUMP JUMPDEST PUSH1 0x40 MLOAD DUP1 SWAP2 SUB SWAP1 RETURN JUMPDEST PUSH2 0x159 PUSH1 0x4 DUP1 CALLDATASIZE SUB DUP2 ADD SWAP1 PUSH2 0x154 SWAP2 SWAP1 PUSH2 0x676 JUMP JUMPDEST PUSH2 0x45A JUMP JUMPDEST PUSH1 0x40 MLOAD PUSH2 0x166 SWAP2 SWAP1 PUSH2 0x72B JUMP JUMPDEST PUSH1 0x40 MLOAD DUP1 SWAP2 SUB SWAP1 RETURN JUMPDEST PUSH2 0x189 PUSH1 0x4 DUP1 CALLDATASIZE SUB DUP2 ADD SWAP1 PUSH2 0x184 SWAP2 SWAP1 PUSH2 0x676 JUMP JUMPDEST PUSH2 0x4F9 JUMP JUMPDEST PUSH1 0x40 MLOAD PUSH2 0x196 SWAP2 SWAP1 PUSH2 0x72B JUMP JUMPDEST PUSH1 0x40 MLOAD DUP1 SWAP2 SUB SWAP1 RETURN JUMPDEST PUSH2 0x1B9 PUSH1 0x4 DUP1 CALLDATASIZE SUB DUP2 ADD SWAP1 PUSH2 0x1B4 SWAP2 SWAP1 PUSH2 0x676 JUMP JUMPDEST PUSH2 0x59C JUMP JUMPDEST PUSH1 0x40 MLOAD PUSH2 0x1C6 SWAP2 SWAP1 PUSH2 0x72B JUMP JUMPDEST PUSH1 0x40 MLOAD DUP1 SWAP2 SUB SWAP1 RETURN JUMPDEST PUSH1 0x60 PUSH1 0x1 PUSH0 ADD PUSH0 DUP4 DUP2 MSTORE PUSH1 0x20 ADD SWAP1 DUP2 MSTORE PUSH1 0x20 ADD PUSH0 KECCAK256 DUP1 SLOAD PUSH2 0x1EF SWAP1 PUSH2 0x778 JUMP JUMPDEST DUP1 PUSH1 0x1F ADD PUSH1 0x20 DUP1 SWAP2 DIV MUL PUSH1 0x20 ADD PUSH1 0x40 MLOAD SWAP1 DUP2 ADD PUSH1 0x40 MSTORE DUP1 SWAP3 SWAP2 SWAP1 DUP2 DUP2 MSTORE PUSH1 0x20 ADD DUP3 DUP1 SLOAD PUSH2 0x21B SWAP1 PUSH2 0x778 JUMP JUMPDEST DUP1 ISZERO PUSH2 0x266 JUMPI DUP1 PUSH1 0x1F LT PUSH2 0x23D JUMPI PUSH2 0x100 DUP1 DUP4 SLOAD DIV MUL DUP4 MSTORE SWAP2 PUSH1 0x20 ADD SWAP2 PUSH2 0x266 JUMP JUMPDEST DUP3 ADD SWAP2 SWAP1 PUSH0 MSTORE PUSH1 0x20 PUSH0 KECCAK256 SWAP1 JUMPDEST DUP2 SLOAD DUP2 MSTORE SWAP1 PUSH1 0x1 ADD SWAP1 PUSH1 0x20 ADD DUP1 DUP4 GT PUSH2 0x249 JUMPI DUP3 SWAP1 SUB PUSH1 0x1F AND DUP3 ADD SWAP2 JUMPDEST POP POP POP POP POP SWAP1 POP SWAP2 SWAP1 POP JUMP JUMPDEST PUSH1 0x60 PUSH1 0x2 PUSH0 ADD PUSH0 DUP4 DUP2 MSTORE PUSH1 0x20 ADD SWAP1 DUP2 MSTORE PUSH1 0x20 ADD PUSH0 KECCAK256 DUP1 SLOAD PUSH2 0x292 SWAP1 PUSH2 0x778 JUMP JUMPDEST DUP1 PUSH1 0x1F ADD PUSH1 0x20 DUP1 SWAP2 DIV MUL PUSH1 0x20 ADD PUSH1 0x40 MLOAD SWAP1 DUP2 ADD PUSH1 0x40 MSTORE DUP1 SWAP3 SWAP2 SWAP1 DUP2 DUP2 MSTORE PUSH1 0x20 ADD DUP3 DUP1 SLOAD PUSH2 0x2BE SWAP1 PUSH2 0x778 JUMP JUMPDEST DUP1 ISZERO PUSH2 0x309 JUMPI DUP1 PUSH1 0x1F LT PUSH2 0x2E0 JUMPI PUSH2 0x100 DUP1 DUP4 SLOAD DIV MUL DUP4 MSTORE SWAP2 PUSH1 0x20 ADD SWAP2 PUSH2 0x309 JUMP JUMPDEST DUP3 ADD SWAP2 SWAP1 PUSH0 MSTORE PUSH1 0x20 PUSH0 KECCAK256 SWAP1 JUMPDEST DUP2 SLOAD DUP2 MSTORE SWAP1 PUSH1 0x1 ADD SWAP1 PUSH1 0x20 ADD DUP1 DUP4 GT PUSH2 0x2EC JUMPI DUP3 SWAP1 SUB PUSH1 0x1F AND DUP3 ADD SWAP2 JUMPDEST POP POP POP POP POP SWAP1 POP SWAP2 SWAP1 POP JUMP JUMPDEST PUSH1 0x60 PUSH0 DUP1 ADD PUSH0 DUP4 DUP2 MSTORE PUSH1 0x20 ADD SWAP1 DUP2 MSTORE PUSH1 0x20 ADD PUSH0 KECCAK256 DUP1 SLOAD PUSH2 0x334 SWAP1 PUSH2 0x778 JUMP JUMPDEST DUP1 PUSH1 0x1F ADD PUSH1 0x20 DUP1 SWAP2 DIV MUL PUSH1 0x20 ADD PUSH1 0x40 MLOAD SWAP1 DUP2 ADD PUSH1 0x40 MSTORE DUP1 SWAP3 SWAP2 SWAP1 DUP2 DUP2 MSTORE PUSH1 0x20 ADD DUP3 DUP1 SLOAD PUSH2 0x360 SWAP1 PUSH2 0x778 JUMP JUMPDEST DUP1 ISZERO PUSH2 0x3AB JUMPI DUP1 PUSH1 0x1F LT PUSH2 0x382 JUMPI PUSH2 0x100 DUP1 DUP4 SLOAD DIV MUL DUP4 MSTORE SWAP2 PUSH1 0x20 ADD SWAP2 PUSH2 0x3AB JUMP JUMPDEST DUP3 ADD SWAP2 SWAP1 PUSH0 MSTORE PUSH1 0x20 PUSH0 KECCAK256 SWAP1 JUMPDEST DUP2 SLOAD DUP2 MSTORE SWAP1 PUSH1 0x1 ADD SWAP1 PUSH1 0x20 ADD DUP1 DUP4 GT PUSH2 0x38E JUMPI DUP3 SWAP1 SUB PUSH1 0x1F AND DUP3 ADD SWAP2 JUMPDEST POP POP POP POP POP SWAP1 POP SWAP2 SWAP1 POP JUMP JUMPDEST PUSH1 0x60 PUSH1 0x3 PUSH0 ADD PUSH0 DUP4 DUP2 MSTORE PUSH1 0x20 ADD SWAP1 DUP2 MSTORE PUSH1 0x20 ADD PUSH0 KECCAK256 DUP1 SLOAD PUSH2 0x3D7 SWAP1 PUSH2 0x778 JUMP JUMPDEST DUP1 PUSH1 0x1F ADD PUSH1 0x20 DUP1 SWAP2 DIV MUL PUSH1 0x20 ADD PUSH1 0x40 MLOAD SWAP1 DUP2 ADD PUSH1 0x40 MSTORE DUP1 SWAP3 SWAP2 SWAP1 DUP2 DUP2 MSTORE PUSH1 0x20 ADD DUP3 DUP1 SLOAD PUSH2 0x403 SWAP1 PUSH2 0x778 JUMP JUMPDEST DUP1 ISZERO PUSH2 0x44E JUMPI DUP1 PUSH1 0x1F LT PUSH2 0x425 JUMPI PUSH2 0x100 DUP1 DUP4 SLOAD DIV MUL DUP4 MSTORE SWAP2 PUSH1 0x20 ADD SWAP2 PUSH2 0x44E JUMP JUMPDEST DUP3 ADD SWAP2 SWAP1 PUSH0 MSTORE PUSH1 0x20 PUSH0 KECCAK256 SWAP1 JUMPDEST DUP2 SLOAD DUP2 MSTORE SWAP1 PUSH1 0x1 ADD SWAP1 PUSH1 0x20 ADD DUP1 DUP4 GT PUSH2 0x431 JUMPI DUP3 SWAP1 SUB PUSH1 0x1F AND DUP3 ADD SWAP2 JUMPDEST POP POP POP POP POP SWAP1 POP SWAP2 SWAP1 POP JUMP JUMPDEST PUSH1 0x6 DUP2 PUSH1 0x6 DUP2 LT PUSH2 0x469 JUMPI PUSH0 DUP1 REVERT JUMPDEST ADD PUSH0 SWAP2 POP SWAP1 POP DUP1 SLOAD PUSH2 0x47A SWAP1 PUSH2 0x778 JUMP JUMPDEST DUP1 PUSH1 0x1F ADD PUSH1 0x20 DUP1 SWAP2 DIV MUL PUSH1 0x20 ADD PUSH1 0x40 MLOAD SWAP1 DUP2 ADD PUSH1 0x40 MSTORE DUP1 SWAP3 SWAP2 SWAP1 DUP2 DUP2 MSTORE PUSH1 0x20 ADD DUP3 DUP1 SLOAD PUSH2 0x4A6 SWAP1 PUSH2 0x778 JUMP JUMPDEST DUP1 ISZERO PUSH2 0x4F1 JUMPI DUP1 PUSH1 0x1F LT PUSH2 0x4C8 JUMPI PUSH2 0x100 DUP1 DUP4 SLOAD DIV MUL DUP4 MSTORE SWAP2 PUSH1 0x20 ADD SWAP2 PUSH2 0x4F1 JUMP JUMPDEST DUP3 ADD SWAP2 SWAP1 PUSH0 MSTORE PUSH1 0x20 PUSH0 KECCAK256 SWAP1 JUMPDEST DUP2 SLOAD DUP2 MSTORE SWAP1 PUSH1 0x1 ADD SWAP1 PUSH1 0x20 ADD DUP1 DUP4 GT PUSH2 0x4D4 JUMPI DUP3 SWAP1 SUB PUSH1 0x1F AND DUP3 ADD SWAP2 JUMPDEST POP POP POP POP POP DUP2 JUMP JUMPDEST PUSH1 0x60 PUSH1 0x4 PUSH0 ADD PUSH0 DUP4 DUP2 MSTORE PUSH1 0x20 ADD SWAP1 DUP2 MSTORE PUSH1 0x20 ADD PUSH0 KECCAK256 DUP1 SLOAD PUSH2 0x519 SWAP1 PUSH2 0x778 JUMP JUMPDEST DUP1 PUSH1 0x1F ADD PUSH1 0x20 DUP1 SWAP2 DIV MUL PUSH1 0x20 ADD PUSH1 0x40 MLOAD SWAP1 DUP2 ADD PUSH1 0x40 MSTORE DUP1 SWAP3 SWAP2 SWAP1 DUP2 DUP2 MSTORE PUSH1 0x20 ADD DUP3 DUP1 SLOAD PUSH2 0x545 SWAP1 PUSH2 0x778 JUMP JUMPDEST DUP1 ISZERO PUSH2 0x590 JUMPI DUP1 PUSH1 0x1F LT PUSH2 0x567 JUMPI PUSH2 0x100 DUP1 DUP4 SLOAD DIV MUL DUP4 MSTORE SWAP2 PUSH1 0x20 ADD SWAP2 PUSH2 0x590 JUMP JUMPDEST DUP3 ADD SWAP2 SWAP1 PUSH0 MSTORE PUSH1 0x20 PUSH0 KECCAK256 SWAP1 JUMPDEST DUP2 SLOAD DUP2 MSTORE SWAP1 PUSH1 0x1 ADD SWAP1 PUSH1 0x20 ADD DUP1 DUP4 GT PUSH2 0x573 JUMPI DUP3 SWAP1 SUB PUSH1 0x1F AND DUP3 ADD SWAP2 JUMPDEST POP POP POP POP POP SWAP1 POP SWAP2 SWAP1 POP JUMP JUMPDEST PUSH1 0x60 PUSH1 0x5 PUSH0 ADD PUSH0 DUP4 DUP2 MSTORE PUSH1 0x20 ADD SWAP1 DUP2 MSTORE PUSH1 0x20 ADD PUSH0 KECCAK256 DUP1 SLOAD PUSH2 0x5BC SWAP1 PUSH2 0x778 JUMP JUMPDEST DUP1 PUSH1 0x1F ADD PUSH1 0x20 DUP1 SWAP2 DIV MUL PUSH1 0x20 ADD PUSH1 0x40 MLOAD SWAP1 DUP2 ADD PUSH1 0x40 MSTORE DUP1 SWAP3 SWAP2 SWAP1 DUP2 DUP2 MSTORE PUSH1 0x20 ADD DUP3 DUP1 SLOAD PUSH2 0x5E8 SWAP1 PUSH2 0x778 JUMP JUMPDEST DUP1 ISZERO PUSH2 0x633 JUMPI DUP1 PUSH1 0x1F LT PUSH2 0x60A JUMPI PUSH2 0x100 DUP1 DUP4 SLOAD DIV MUL DUP4 MSTORE SWAP2 PUSH1 0x20 ADD SWAP2 PUSH2 0x633 JUMP JUMPDEST DUP3 ADD SWAP2 SWAP1 PUSH0 MSTORE PUSH1 0x20 PUSH0 KECCAK256 SWAP1 JUMPDEST DUP2 SLOAD DUP2 MSTORE SWAP1 PUSH1 0x1 ADD SWAP1 PUSH1 0x20 ADD DUP1 DUP4 GT PUSH2 0x616 JUMPI DUP3 SWAP1 SUB PUSH1 0x1F AND DUP3 ADD SWAP2 JUMPDEST POP POP POP POP POP SWAP1 POP SWAP2 SWAP1 POP JUMP JUMPDEST PUSH0 DUP1 REVERT JUMPDEST PUSH0 DUP2 SWAP1 POP SWAP2 SWAP1 POP JUMP JUMPDEST PUSH2 0x655 DUP2 PUSH2 0x643 JUMP JUMPDEST DUP2 EQ PUSH2 0x65F JUMPI PUSH0 DUP1 REVERT JUMPDEST POP JUMP JUMPDEST PUSH0 DUP2 CALLDATALOAD SWAP1 POP PUSH2 0x670 DUP2 PUSH2 0x64C JUMP JUMPDEST SWAP3 SWAP2 POP POP JUMP JUMPDEST PUSH0 PUSH1 0x20 DUP3 DUP5 SUB SLT ISZERO PUSH2 0x68B JUMPI PUSH2 0x68A PUSH2 0x63F JUMP JUMPDEST JUMPDEST PUSH0 PUSH2 0x698 DUP5 DUP3 DUP6 ADD PUSH2 0x662 JUMP JUMPDEST SWAP2 POP POP SWAP3 SWAP2 POP POP JUMP JUMPDEST PUSH0 DUP2 MLOAD SWAP1 POP SWAP2 SWAP1 POP JUMP JUMPDEST PUSH0 DUP3 DUP3 MSTORE PUSH1 0x20 DUP3 ADD SWAP1 POP SWAP3 SWAP2 POP POP JUMP JUMPDEST PUSH0 JUMPDEST DUP4 DUP2 LT ISZERO PUSH2 0x6D8 JUMPI DUP1 DUP3 ADD MLOAD DUP2 DUP5 ADD MSTORE PUSH1 0x20 DUP2 ADD SWAP1 POP PUSH2 0x6BD JUMP JUMPDEST PUSH0 DUP5 DUP5 ADD MSTORE POP POP POP POP JUMP JUMPDEST PUSH0 PUSH1 0x1F NOT PUSH1 0x1F DUP4 ADD AND SWAP1 POP SWAP2 SWAP1 POP JUMP JUMPDEST PUSH0 PUSH2 0x6FD DUP3 PUSH2 0x6A1 JUMP JUMPDEST PUSH2 0x707 DUP2 DUP6 PUSH2 0x6AB JUMP JUMPDEST SWAP4 POP PUSH2 0x717 DUP2 DUP6 PUSH1 0x20 DUP7 ADD PUSH2 0x6BB JUMP JUMPDEST PUSH2 0x720 DUP2 PUSH2 0x6E3 JUMP JUMPDEST DUP5 ADD SWAP2 POP POP SWAP3 SWAP2 POP POP JUMP JUMPDEST PUSH0 PUSH1 0x20 DUP3 ADD SWAP1 POP DUP2 DUP2 SUB PUSH0 DUP4 ADD MSTORE PUSH2 0x743 DUP2 DUP5 PUSH2 0x6F3 JUMP JUMPDEST SWAP1 POP SWAP3 SWAP2 POP POP JUMP JUMPDEST PUSH32 0x4E487B7100000000000000000000000000000000000000000000000000000000 PUSH0 MSTORE PUSH1 0x22 PUSH1 0x4 MSTORE PUSH1 0x24 PUSH0 REVERT JUMPDEST PUSH0 PUSH1 0x2 DUP3 DIV SWAP1 POP PUSH1 0x1 DUP3 AND DUP1 PUSH2 0x78F JUMPI PUSH1 0x7F DUP3 AND SWAP2 POP JUMPDEST PUSH1 0x20 DUP3 LT DUP2 SUB PUSH2 0x7A2 JUMPI PUSH2 0x7A1 PUSH2 0x74B JUMP JUMPDEST JUMPDEST POP SWAP2 SWAP1 POP JUMP INVALID LOG2 PUSH5 0x6970667358 0x22 SLT KECCAK256 SWAP4 SWAP14 0xA7 0xE9 CALLDATACOPY DUP15 0x21 0xBF SWAP6 0xC7 PUSH23 0x8FE25D850E5A9C53D7A6D312DABE0EAEADA766223F6473 PUSH16 0x6C634300081A00330000000000000000 "
				},
				"gasEstimates": {
					"creation": {
						"codeDepositCost": "402800",
						"executionCost": "infinite",
						"totalCost": "infinite"
					},
					"external": {
						"colours(uint256)": "infinite",
						"getEyes(uint256)": "infinite",
						"getHat(uint256)": "infinite",
						"getPants(uint256)": "infinite",
						"getShirt(uint256)": "infinite",
						"getSkin(uint256)": "infinite",
						"getSpecial(uint256)": "infinite"
					}
				},
				"methodIdentifiers": {
					"colours(uint256)": "c76ab940",
					"getEyes(uint256)": "c4d30bfa",
					"getHat(uint256)": "d2571f88",
					"getPants(uint256)": "4337932d",
					"getShirt(uint256)": "4c9c05ea",
					"getSkin(uint256)": "98e4f581",
					"getSpecial(uint256)": "e1d916f7"
				}
			},
			"storageLayout": {
				"storage": [
					{
						"astId": 9,
						"contract": "contracts/HamPepeTraits.sol:HamPepeTraits",
						"label": "skin",
						"offset": 0,
						"slot": "0",
						"type": "t_struct(TraitInfo)6_storage"
					},
					{
						"astId": 12,
						"contract": "contracts/HamPepeTraits.sol:HamPepeTraits",
						"label": "pants",
						"offset": 0,
						"slot": "1",
						"type": "t_struct(TraitInfo)6_storage"
					},
					{
						"astId": 15,
						"contract": "contracts/HamPepeTraits.sol:HamPepeTraits",
						"label": "shirt",
						"offset": 0,
						"slot": "2",
						"type": "t_struct(TraitInfo)6_storage"
					},
					{
						"astId": 18,
						"contract": "contracts/HamPepeTraits.sol:HamPepeTraits",
						"label": "eyes",
						"offset": 0,
						"slot": "3",
						"type": "t_struct(TraitInfo)6_storage"
					},
					{
						"astId": 21,
						"contract": "contracts/HamPepeTraits.sol:HamPepeTraits",
						"label": "hat",
						"offset": 0,
						"slot": "4",
						"type": "t_struct(TraitInfo)6_storage"
					},
					{
						"astId": 24,
						"contract": "contracts/HamPepeTraits.sol:HamPepeTraits",
						"label": "special",
						"offset": 0,
						"slot": "5",
						"type": "t_struct(TraitInfo)6_storage"
					},
					{
						"astId": 35,
						"contract": "contracts/HamPepeTraits.sol:HamPepeTraits",
						"label": "colours",
						"offset": 0,
						"slot": "6",
						"type": "t_array(t_string_storage)6_storage"
					}
				],
				"types": {
					"t_array(t_string_storage)6_storage": {
						"base": "t_string_storage",
						"encoding": "inplace",
						"label": "string[6]",
						"numberOfBytes": "192"
					},
					"t_mapping(t_uint256,t_string_storage)": {
						"encoding": "mapping",
						"key": "t_uint256",
						"label": "mapping(uint256 => string)",
						"numberOfBytes": "32",
						"value": "t_string_storage"
					},
					"t_string_storage": {
						"encoding": "bytes",
						"label": "string",
						"numberOfBytes": "32"
					},
					"t_struct(TraitInfo)6_storage": {
						"encoding": "inplace",
						"label": "struct HamPepeTraits.TraitInfo",
						"members": [
							{
								"astId": 5,
								"contract": "contracts/HamPepeTraits.sol:HamPepeTraits",
								"label": "map",
								"offset": 0,
								"slot": "0",
								"type": "t_mapping(t_uint256,t_string_storage)"
							}
						],
						"numberOfBytes": "32"
					},
					"t_uint256": {
						"encoding": "inplace",
						"label": "uint256",
						"numberOfBytes": "32"
					}
				}
			},
			"userdoc": {
				"kind": "user",
				"methods": {},
				"version": 1
			}
		}
	}
}