{
	"contracts/HamPepeTraits1.sol": {
		"HamPepeTraits1": {
			"abi": [
				{
					"inputs": [],
					"stateMutability": "nonpayable",
					"type": "constructor"
				},
				{
					"inputs": [
						{
							"internalType": "uint256",
							"name": "",
							"type": "uint256"
						}
					],
					"name": "colours",
					"outputs": [
						{
							"internalType": "string",
							"name": "",
							"type": "string"
						}
					],
					"stateMutability": "view",
					"type": "function"
				},
				{
					"inputs": [
						{
							"internalType": "uint256",
							"name": "i",
							"type": "uint256"
						}
					],
					"name": "getEyes",
					"outputs": [
						{
							"internalType": "string",
							"name": "",
							"type": "string"
						}
					],
					"stateMutability": "view",
					"type": "function"
				},
				{
					"inputs": [
						{
							"internalType": "uint256",
							"name": "i",
							"type": "uint256"
						}
					],
					"name": "getHat",
					"outputs": [
						{
							"internalType": "string",
							"name": "",
							"type": "string"
						}
					],
					"stateMutability": "view",
					"type": "function"
				},
				{
					"inputs": [
						{
							"internalType": "uint256",
							"name": "i",
							"type": "uint256"
						}
					],
					"name": "getPants",
					"outputs": [
						{
							"internalType": "string",
							"name": "",
							"type": "string"
						}
					],
					"stateMutability": "view",
					"type": "function"
				},
				{
					"inputs": [
						{
							"internalType": "uint256",
							"name": "i",
							"type": "uint256"
						}
					],
					"name": "getShirt",
					"outputs": [
						{
							"internalType": "string",
							"name": "",
							"type": "string"
						}
					],
					"stateMutability": "view",
					"type": "function"
				},
				{
					"inputs": [
						{
							"internalType": "uint256",
							"name": "i",
							"type": "uint256"
						}
					],
					"name": "getSkin",
					"outputs": [
						{
							"internalType": "string",
							"name": "",
							"type": "string"
						}
					],
					"stateMutability": "view",
					"type": "function"
				},
				{
					"inputs": [
						{
							"internalType": "uint256",
							"name": "i",
							"type": "uint256"
						}
					],
					"name": "getSpecial",
					"outputs": [
						{
							"internalType": "string",
							"name": "",
							"type": "string"
						}
					],
					"stateMutability": "view",
					"type": "function"
				}
			],
			"devdoc": {
				"kind": "dev",
				"methods": {},
				"version": 1
			},
			"evm": {
				"assembly": "    /* \"contracts/HamPepeTraits1.sol\":61:3424  contract HamPepeTraits1 {... */\n  mstore(0x40, 0x80)\n    /* \"contracts/HamPepeTraits1.sol\":464:759  string [6] public colours =[... */\n  mload(0x40)\n  dup1\n  0xc0\n  add\n  0x40\n  mstore\n  dup1\n  mload(0x40)\n  dup1\n  0x40\n  add\n  0x40\n  mstore\n  dup1\n  0x07\n  dup2\n  mstore\n  0x20\n  add\n  0x2337333037454100000000000000000000000000000000000000000000000000\n  dup2\n  mstore\n  pop\n  dup2\n  mstore\n  0x20\n  add\n  mload(0x40)\n  dup1\n  0x40\n  add\n  0x40\n  mstore\n  dup1\n  0x07\n  dup2\n  mstore\n  0x20\n  add\n  0x2334666666626500000000000000000000000000000000000000000000000000\n  dup2\n  mstore\n  pop\n  dup2\n  mstore\n  0x20\n  add\n  mload(0x40)\n  dup1\n  0x40\n  add\n  0x40\n  mstore\n  dup1\n  0x07\n  dup2\n  mstore\n  0x20\n  add\n  0x2330306263666500000000000000000000000000000000000000000000000000\n  dup2\n  mstore\n  pop\n  dup2\n  mstore\n  0x20\n  add\n  mload(0x40)\n  dup1\n  0x40\n  add\n  0x40\n  mstore\n  dup1\n  0x07\n  dup2\n  mstore\n  0x20\n  add\n  0x2365646439303000000000000000000000000000000000000000000000000000\n  dup2\n  mstore\n  pop\n  dup2\n  mstore\n  0x20\n  add\n  mload(0x40)\n  dup1\n  0x40\n  add\n  0x40\n  mstore\n  dup1\n  0x07\n  dup2\n  mstore\n  0x20\n  add\n  0x2366666163656200000000000000000000000000000000000000000000000000\n  dup2\n  mstore\n  pop\n  dup2\n  mstore\n  0x20\n  add\n  mload(0x40)\n  dup1\n  0x40\n  add\n  0x40\n  mstore\n  dup1\n  0x07\n  dup2\n  mstore\n  0x20\n  add\n  0x2361356135613500000000000000000000000000000000000000000000000000\n  dup2\n  mstore\n  pop\n  dup2\n  mstore\n  pop\n  0x06\n  swap1\n  0x06\n  tag_1\n  swap3\n  swap2\n  swap1\n  tag_2\n  jump\t// in\ntag_1:\n  pop\n    /* \"contracts/HamPepeTraits1.sol\":1493:3417  constructor() {... */\n  callvalue\n  dup1\n  iszero\n  tag_3\n  jumpi\n  0x00\n  dup1\n  revert\ntag_3:\n  pop\n    /* \"contracts/HamPepeTraits1.sol\":1518:1542  skin.map[1] = \"Skeleton\" */\n  mload(0x40)\n  dup1\n  0x40\n  add\n  0x40\n  mstore\n  dup1\n  0x08\n  dup2\n  mstore\n  0x20\n  add\n  0x536b656c65746f6e000000000000000000000000000000000000000000000000\n  dup2\n  mstore\n  pop\n    /* \"contracts/HamPepeTraits1.sol\":1518:1522  skin */\n  0x00\n    /* \"contracts/HamPepeTraits1.sol\":1518:1526  skin.map */\n  dup1\n  add\n    /* \"contracts/HamPepeTraits1.sol\":1518:1529  skin.map[1] */\n  0x00\n    /* \"contracts/HamPepeTraits1.sol\":1527:1528  1 */\n  0x01\n    /* \"contracts/HamPepeTraits1.sol\":1518:1529  skin.map[1] */\n  dup2\n  mstore\n  0x20\n  add\n  swap1\n  dup2\n  mstore\n  0x20\n  add\n  0x00\n  keccak256\n    /* \"contracts/HamPepeTraits1.sol\":1518:1542  skin.map[1] = \"Skeleton\" */\n  swap1\n  dup2\n  tag_6\n  swap2\n  swap1\n  tag_7\n  jump\t// in\ntag_6:\n  pop\n    /* \"contracts/HamPepeTraits1.sol\":1553:1574  skin.map[2] = \"Robot\" */\n  mload(0x40)\n  dup1\n  0x40\n  add\n  0x40\n  mstore\n  dup1\n  0x05\n  dup2\n  mstore\n  0x20\n  add\n  0x526f626f74000000000000000000000000000000000000000000000000000000\n  dup2\n  mstore\n  pop\n    /* \"contracts/HamPepeTraits1.sol\":1553:1557  skin */\n  0x00\n    /* \"contracts/HamPepeTraits1.sol\":1553:1561  skin.map */\n  dup1\n  add\n    /* \"contracts/HamPepeTraits1.sol\":1553:1564  skin.map[2] */\n  0x00\n    /* \"contracts/HamPepeTraits1.sol\":1562:1563  2 */\n  0x02\n    /* \"contracts/HamPepeTraits1.sol\":1553:1564  skin.map[2] */\n  dup2\n  mstore\n  0x20\n  add\n  swap1\n  dup2\n  mstore\n  0x20\n  add\n  0x00\n  keccak256\n    /* \"contracts/HamPepeTraits1.sol\":1553:1574  skin.map[2] = \"Robot\" */\n  swap1\n  dup2\n  tag_8\n  swap2\n  swap1\n  tag_7\n  jump\t// in\ntag_8:\n  pop\n    /* \"contracts/HamPepeTraits1.sol\":1585:1606  skin.map[3] = \"Jelly\" */\n  mload(0x40)\n  dup1\n  0x40\n  add\n  0x40\n  mstore\n  dup1\n  0x05\n  dup2\n  mstore\n  0x20\n  add\n  0x4a656c6c79000000000000000000000000000000000000000000000000000000\n  dup2\n  mstore\n  pop\n    /* \"contracts/HamPepeTraits1.sol\":1585:1589  skin */\n  0x00\n    /* \"contracts/HamPepeTraits1.sol\":1585:1593  skin.map */\n  dup1\n  add\n    /* \"contracts/HamPepeTraits1.sol\":1585:1596  skin.map[3] */\n  0x00\n    /* \"contracts/HamPepeTraits1.sol\":1594:1595  3 */\n  0x03\n    /* \"contracts/HamPepeTraits1.sol\":1585:1596  skin.map[3] */\n  dup2\n  mstore\n  0x20\n  add\n  swap1\n  dup2\n  mstore\n  0x20\n  add\n  0x00\n  keccak256\n    /* \"contracts/HamPepeTraits1.sol\":1585:1606  skin.map[3] = \"Jelly\" */\n  swap1\n  dup2\n  tag_9\n  swap2\n  swap1\n  tag_7\n  jump\t// in\ntag_9:\n  pop\n    /* \"contracts/HamPepeTraits1.sol\":1619:1649  pants.map[4] = \"Orange shorts\" */\n  mload(0x40)\n  dup1\n  0x40\n  add\n  0x40\n  mstore\n  dup1\n  0x0d\n  dup2\n  mstore\n  0x20\n  add\n  0x4f72616e67652073686f72747300000000000000000000000000000000000000\n  dup2\n  mstore\n  pop\n    /* \"contracts/HamPepeTraits1.sol\":1619:1624  pants */\n  0x01\n    /* \"contracts/HamPepeTraits1.sol\":1619:1628  pants.map */\n  0x00\n  add\n    /* \"contracts/HamPepeTraits1.sol\":1619:1631  pants.map[4] */\n  0x00\n    /* \"contracts/HamPepeTraits1.sol\":1629:1630  4 */\n  0x04\n    /* \"contracts/HamPepeTraits1.sol\":1619:1631  pants.map[4] */\n  dup2\n  mstore\n  0x20\n  add\n  swap1\n  dup2\n  mstore\n  0x20\n  add\n  0x00\n  keccak256\n    /* \"contracts/HamPepeTraits1.sol\":1619:1649  pants.map[4] = \"Orange shorts\" */\n  swap1\n  dup2\n  tag_10\n  swap2\n  swap1\n  tag_7\n  jump\t// in\ntag_10:\n  pop\n    /* \"contracts/HamPepeTraits1.sol\":1660:1688  pants.map[5] = \"Pink shorts\" */\n  mload(0x40)\n  dup1\n  0x40\n  add\n  0x40\n  mstore\n  dup1\n  0x0b\n  dup2\n  mstore\n  0x20\n  add\n  0x50696e6b2073686f727473000000000000000000000000000000000000000000\n  dup2\n  mstore\n  pop\n    /* \"contracts/HamPepeTraits1.sol\":1660:1665  pants */\n  0x01\n    /* \"contracts/HamPepeTraits1.sol\":1660:1669  pants.map */\n  0x00\n  add\n    /* \"contracts/HamPepeTraits1.sol\":1660:1672  pants.map[5] */\n  0x00\n    /* \"contracts/HamPepeTraits1.sol\":1670:1671  5 */\n  0x05\n    /* \"contracts/HamPepeTraits1.sol\":1660:1672  pants.map[5] */\n  dup2\n  mstore\n  0x20\n  add\n  swap1\n  dup2\n  mstore\n  0x20\n  add\n  0x00\n  keccak256\n    /* \"contracts/HamPepeTraits1.sol\":1660:1688  pants.map[5] = \"Pink shorts\" */\n  swap1\n  dup2\n  tag_11\n  swap2\n  swap1\n  tag_7\n  jump\t// in\ntag_11:\n  pop\n    /* \"contracts/HamPepeTraits1.sol\":1699:1727  pants.map[6] = \"Grey shorts\" */\n  mload(0x40)\n  dup1\n  0x40\n  add\n  0x40\n  mstore\n  dup1\n  0x0b\n  dup2\n  mstore\n  0x20\n  add\n  0x477265792073686f727473000000000000000000000000000000000000000000\n  dup2\n  mstore\n  pop\n    /* \"contracts/HamPepeTraits1.sol\":1699:1704  pants */\n  0x01\n    /* \"contracts/HamPepeTraits1.sol\":1699:1708  pants.map */\n  0x00\n  add\n    /* \"contracts/HamPepeTraits1.sol\":1699:1711  pants.map[6] */\n  0x00\n    /* \"contracts/HamPepeTraits1.sol\":1709:1710  6 */\n  0x06\n    /* \"contracts/HamPepeTraits1.sol\":1699:1711  pants.map[6] */\n  dup2\n  mstore\n  0x20\n  add\n  swap1\n  dup2\n  mstore\n  0x20\n  add\n  0x00\n  keccak256\n    /* \"contracts/HamPepeTraits1.sol\":1699:1727  pants.map[6] = \"Grey shorts\" */\n  swap1\n  dup2\n  tag_12\n  swap2\n  swap1\n  tag_7\n  jump\t// in\ntag_12:\n  pop\n    /* \"contracts/HamPepeTraits1.sol\":1738:1767  pants.map[7] = \"Brown shorts\" */\n  mload(0x40)\n  dup1\n  0x40\n  add\n  0x40\n  mstore\n  dup1\n  0x0c\n  dup2\n  mstore\n  0x20\n  add\n  0x42726f776e2073686f7274730000000000000000000000000000000000000000\n  dup2\n  mstore\n  pop\n    /* \"contracts/HamPepeTraits1.sol\":1738:1743  pants */\n  0x01\n    /* \"contracts/HamPepeTraits1.sol\":1738:1747  pants.map */\n  0x00\n  add\n    /* \"contracts/HamPepeTraits1.sol\":1738:1750  pants.map[7] */\n  0x00\n    /* \"contracts/HamPepeTraits1.sol\":1748:1749  7 */\n  0x07\n    /* \"contracts/HamPepeTraits1.sol\":1738:1750  pants.map[7] */\n  dup2\n  mstore\n  0x20\n  add\n  swap1\n  dup2\n  mstore\n  0x20\n  add\n  0x00\n  keccak256\n    /* \"contracts/HamPepeTraits1.sol\":1738:1767  pants.map[7] = \"Brown shorts\" */\n  swap1\n  dup2\n  tag_13\n  swap2\n  swap1\n  tag_7\n  jump\t// in\ntag_13:\n  pop\n    /* \"contracts/HamPepeTraits1.sol\":1778:1804  pants.map[8] = \"Tan pants\" */\n  mload(0x40)\n  dup1\n  0x40\n  add\n  0x40\n  mstore\n  dup1\n  0x09\n  dup2\n  mstore\n  0x20\n  add\n  0x54616e2070616e74730000000000000000000000000000000000000000000000\n  dup2\n  mstore\n  pop\n    /* \"contracts/HamPepeTraits1.sol\":1778:1783  pants */\n  0x01\n    /* \"contracts/HamPepeTraits1.sol\":1778:1787  pants.map */\n  0x00\n  add\n    /* \"contracts/HamPepeTraits1.sol\":1778:1790  pants.map[8] */\n  0x00\n    /* \"contracts/HamPepeTraits1.sol\":1788:1789  8 */\n  0x08\n    /* \"contracts/HamPepeTraits1.sol\":1778:1790  pants.map[8] */\n  dup2\n  mstore\n  0x20\n  add\n  swap1\n  dup2\n  mstore\n  0x20\n  add\n  0x00\n  keccak256\n    /* \"contracts/HamPepeTraits1.sol\":1778:1804  pants.map[8] = \"Tan pants\" */\n  swap1\n  dup2\n  tag_14\n  swap2\n  swap1\n  tag_7\n  jump\t// in\ntag_14:\n  pop\n    /* \"contracts/HamPepeTraits1.sol\":1815:1842  pants.map[9] = \"Blue jeans\" */\n  mload(0x40)\n  dup1\n  0x40\n  add\n  0x40\n  mstore\n  dup1\n  0x0a\n  dup2\n  mstore\n  0x20\n  add\n  0x426c7565206a65616e7300000000000000000000000000000000000000000000\n  dup2\n  mstore\n  pop\n    /* \"contracts/HamPepeTraits1.sol\":1815:1820  pants */\n  0x01\n    /* \"contracts/HamPepeTraits1.sol\":1815:1824  pants.map */\n  0x00\n  add\n    /* \"contracts/HamPepeTraits1.sol\":1815:1827  pants.map[9] */\n  0x00\n    /* \"contracts/HamPepeTraits1.sol\":1825:1826  9 */\n  0x09\n    /* \"contracts/HamPepeTraits1.sol\":1815:1827  pants.map[9] */\n  dup2\n  mstore\n  0x20\n  add\n  swap1\n  dup2\n  mstore\n  0x20\n  add\n  0x00\n  keccak256\n    /* \"contracts/HamPepeTraits1.sol\":1815:1842  pants.map[9] = \"Blue jeans\" */\n  swap1\n  dup2\n  tag_15\n  swap2\n  swap1\n  tag_7\n  jump\t// in\ntag_15:\n  pop\n    /* \"contracts/HamPepeTraits1.sol\":1853:1875  pants.map[10] = \"Kilt\" */\n  mload(0x40)\n  dup1\n  0x40\n  add\n  0x40\n  mstore\n  dup1\n  0x04\n  dup2\n  mstore\n  0x20\n  add\n  0x4b696c7400000000000000000000000000000000000000000000000000000000\n  dup2\n  mstore\n  pop\n    /* \"contracts/HamPepeTraits1.sol\":1853:1858  pants */\n  0x01\n    /* \"contracts/HamPepeTraits1.sol\":1853:1862  pants.map */\n  0x00\n  add\n    /* \"contracts/HamPepeTraits1.sol\":1853:1866  pants.map[10] */\n  0x00\n    /* \"contracts/HamPepeTraits1.sol\":1863:1865  10 */\n  0x0a\n    /* \"contracts/HamPepeTraits1.sol\":1853:1866  pants.map[10] */\n  dup2\n  mstore\n  0x20\n  add\n  swap1\n  dup2\n  mstore\n  0x20\n  add\n  0x00\n  keccak256\n    /* \"contracts/HamPepeTraits1.sol\":1853:1875  pants.map[10] = \"Kilt\" */\n  swap1\n  dup2\n  tag_16\n  swap2\n  swap1\n  tag_7\n  jump\t// in\ntag_16:\n  pop\n    /* \"contracts/HamPepeTraits1.sol\":1888:1916  shirt.map[11] = \"Blue shirt\" */\n  mload(0x40)\n  dup1\n  0x40\n  add\n  0x40\n  mstore\n  dup1\n  0x0a\n  dup2\n  mstore\n  0x20\n  add\n  0x426c756520736869727400000000000000000000000000000000000000000000\n  dup2\n  mstore\n  pop\n    /* \"contracts/HamPepeTraits1.sol\":1888:1893  shirt */\n  0x02\n    /* \"contracts/HamPepeTraits1.sol\":1888:1897  shirt.map */\n  0x00\n  add\n    /* \"contracts/HamPepeTraits1.sol\":1888:1901  shirt.map[11] */\n  0x00\n    /* \"contracts/HamPepeTraits1.sol\":1898:1900  11 */\n  0x0b\n    /* \"contracts/HamPepeTraits1.sol\":1888:1901  shirt.map[11] */\n  dup2\n  mstore\n  0x20\n  add\n  swap1\n  dup2\n  mstore\n  0x20\n  add\n  0x00\n  keccak256\n    /* \"contracts/HamPepeTraits1.sol\":1888:1916  shirt.map[11] = \"Blue shirt\" */\n  swap1\n  dup2\n  tag_17\n  swap2\n  swap1\n  tag_7\n  jump\t// in\ntag_17:\n  pop\n    /* \"contracts/HamPepeTraits1.sol\":1927:1954  shirt.map[12] = \"Miami DAO\" */\n  mload(0x40)\n  dup1\n  0x40\n  add\n  0x40\n  mstore\n  dup1\n  0x09\n  dup2\n  mstore\n  0x20\n  add\n  0x4d69616d692044414f0000000000000000000000000000000000000000000000\n  dup2\n  mstore\n  pop\n    /* \"contracts/HamPepeTraits1.sol\":1927:1932  shirt */\n  0x02\n    /* \"contracts/HamPepeTraits1.sol\":1927:1936  shirt.map */\n  0x00\n  add\n    /* \"contracts/HamPepeTraits1.sol\":1927:1940  shirt.map[12] */\n  0x00\n    /* \"contracts/HamPepeTraits1.sol\":1937:1939  12 */\n  0x0c\n    /* \"contracts/HamPepeTraits1.sol\":1927:1940  shirt.map[12] */\n  dup2\n  mstore\n  0x20\n  add\n  swap1\n  dup2\n  mstore\n  0x20\n  add\n  0x00\n  keccak256\n    /* \"contracts/HamPepeTraits1.sol\":1927:1954  shirt.map[12] = \"Miami DAO\" */\n  swap1\n  dup2\n  tag_18\n  swap2\n  swap1\n  tag_7\n  jump\t// in\ntag_18:\n  pop\n    /* \"contracts/HamPepeTraits1.sol\":1965:1991  shirt.map[13] = \"Baseball\" */\n  mload(0x40)\n  dup1\n  0x40\n  add\n  0x40\n  mstore\n  dup1\n  0x08\n  dup2\n  mstore\n  0x20\n  add\n  0x4261736562616c6c000000000000000000000000000000000000000000000000\n  dup2\n  mstore\n  pop\n    /* \"contracts/HamPepeTraits1.sol\":1965:1970  shirt */\n  0x02\n    /* \"contracts/HamPepeTraits1.sol\":1965:1974  shirt.map */\n  0x00\n  add\n    /* \"contracts/HamPepeTraits1.sol\":1965:1978  shirt.map[13] */\n  0x00\n    /* \"contracts/HamPepeTraits1.sol\":1975:1977  13 */\n  0x0d\n    /* \"contracts/HamPepeTraits1.sol\":1965:1978  shirt.map[13] */\n  dup2\n  mstore\n  0x20\n  add\n  swap1\n  dup2\n  mstore\n  0x20\n  add\n  0x00\n  keccak256\n    /* \"contracts/HamPepeTraits1.sol\":1965:1991  shirt.map[13] = \"Baseball\" */\n  swap1\n  dup2\n  tag_19\n  swap2\n  swap1\n  tag_7\n  jump\t// in\ntag_19:\n  pop\n    /* \"contracts/HamPepeTraits1.sol\":2002:2028  shirt.map[14] = \"Overalls\" */\n  mload(0x40)\n  dup1\n  0x40\n  add\n  0x40\n  mstore\n  dup1\n  0x08\n  dup2\n  mstore\n  0x20\n  add\n  0x4f766572616c6c73000000000000000000000000000000000000000000000000\n  dup2\n  mstore\n  pop\n    /* \"contracts/HamPepeTraits1.sol\":2002:2007  shirt */\n  0x02\n    /* \"contracts/HamPepeTraits1.sol\":2002:2011  shirt.map */\n  0x00\n  add\n    /* \"contracts/HamPepeTraits1.sol\":2002:2015  shirt.map[14] */\n  0x00\n    /* \"contracts/HamPepeTraits1.sol\":2012:2014  14 */\n  0x0e\n    /* \"contracts/HamPepeTraits1.sol\":2002:2015  shirt.map[14] */\n  dup2\n  mstore\n  0x20\n  add\n  swap1\n  dup2\n  mstore\n  0x20\n  add\n  0x00\n  keccak256\n    /* \"contracts/HamPepeTraits1.sol\":2002:2028  shirt.map[14] = \"Overalls\" */\n  swap1\n  dup2\n  tag_20\n  swap2\n  swap1\n  tag_7\n  jump\t// in\ntag_20:\n  pop\n    /* \"contracts/HamPepeTraits1.sol\":2039:2071  shirt.map[15] = \"Unicorn floaty\" */\n  mload(0x40)\n  dup1\n  0x40\n  add\n  0x40\n  mstore\n  dup1\n  0x0e\n  dup2\n  mstore\n  0x20\n  add\n  0x556e69636f726e20666c6f617479000000000000000000000000000000000000\n  dup2\n  mstore\n  pop\n    /* \"contracts/HamPepeTraits1.sol\":2039:2044  shirt */\n  0x02\n    /* \"contracts/HamPepeTraits1.sol\":2039:2048  shirt.map */\n  0x00\n  add\n    /* \"contracts/HamPepeTraits1.sol\":2039:2052  shirt.map[15] */\n  0x00\n    /* \"contracts/HamPepeTraits1.sol\":2049:2051  15 */\n  0x0f\n    /* \"contracts/HamPepeTraits1.sol\":2039:2052  shirt.map[15] */\n  dup2\n  mstore\n  0x20\n  add\n  swap1\n  dup2\n  mstore\n  0x20\n  add\n  0x00\n  keccak256\n    /* \"contracts/HamPepeTraits1.sol\":2039:2071  shirt.map[15] = \"Unicorn floaty\" */\n  swap1\n  dup2\n  tag_21\n  swap2\n  swap1\n  tag_7\n  jump\t// in\ntag_21:\n  pop\n    /* \"contracts/HamPepeTraits1.sol\":2082:2115  shirt.map[16] = \"Black tracksuit\" */\n  mload(0x40)\n  dup1\n  0x40\n  add\n  0x40\n  mstore\n  dup1\n  0x0f\n  dup2\n  mstore\n  0x20\n  add\n  0x426c61636b20747261636b737569740000000000000000000000000000000000\n  dup2\n  mstore\n  pop\n    /* \"contracts/HamPepeTraits1.sol\":2082:2087  shirt */\n  0x02\n    /* \"contracts/HamPepeTraits1.sol\":2082:2091  shirt.map */\n  0x00\n  add\n    /* \"contracts/HamPepeTraits1.sol\":2082:2095  shirt.map[16] */\n  0x00\n    /* \"contracts/HamPepeTraits1.sol\":2092:2094  16 */\n  0x10\n    /* \"contracts/HamPepeTraits1.sol\":2082:2095  shirt.map[16] */\n  dup2\n  mstore\n  0x20\n  add\n  swap1\n  dup2\n  mstore\n  0x20\n  add\n  0x00\n  keccak256\n    /* \"contracts/HamPepeTraits1.sol\":2082:2115  shirt.map[16] = \"Black tracksuit\" */\n  swap1\n  dup2\n  tag_22\n  swap2\n  swap1\n  tag_7\n  jump\t// in\ntag_22:\n  pop\n    /* \"contracts/HamPepeTraits1.sol\":2126:2157  shirt.map[17] = \"Red tracksuit\" */\n  mload(0x40)\n  dup1\n  0x40\n  add\n  0x40\n  mstore\n  dup1\n  0x0d\n  dup2\n  mstore\n  0x20\n  add\n  0x52656420747261636b7375697400000000000000000000000000000000000000\n  dup2\n  mstore\n  pop\n    /* \"contracts/HamPepeTraits1.sol\":2126:2131  shirt */\n  0x02\n    /* \"contracts/HamPepeTraits1.sol\":2126:2135  shirt.map */\n  0x00\n  add\n    /* \"contracts/HamPepeTraits1.sol\":2126:2139  shirt.map[17] */\n  0x00\n    /* \"contracts/HamPepeTraits1.sol\":2136:2138  17 */\n  0x11\n    /* \"contracts/HamPepeTraits1.sol\":2126:2139  shirt.map[17] */\n  dup2\n  mstore\n  0x20\n  add\n  swap1\n  dup2\n  mstore\n  0x20\n  add\n  0x00\n  keccak256\n    /* \"contracts/HamPepeTraits1.sol\":2126:2157  shirt.map[17] = \"Red tracksuit\" */\n  swap1\n  dup2\n  tag_23\n  swap2\n  swap1\n  tag_7\n  jump\t// in\ntag_23:\n  pop\n    /* \"contracts/HamPepeTraits1.sol\":2168:2194  shirt.map[18] = \"Raincoat\" */\n  mload(0x40)\n  dup1\n  0x40\n  add\n  0x40\n  mstore\n  dup1\n  0x08\n  dup2\n  mstore\n  0x20\n  add\n  0x5261696e636f6174000000000000000000000000000000000000000000000000\n  dup2\n  mstore\n  pop\n    /* \"contracts/HamPepeTraits1.sol\":2168:2173  shirt */\n  0x02\n    /* \"contracts/HamPepeTraits1.sol\":2168:2177  shirt.map */\n  0x00\n  add\n    /* \"contracts/HamPepeTraits1.sol\":2168:2181  shirt.map[18] */\n  0x00\n    /* \"contracts/HamPepeTraits1.sol\":2178:2180  18 */\n  0x12\n    /* \"contracts/HamPepeTraits1.sol\":2168:2181  shirt.map[18] */\n  dup2\n  mstore\n  0x20\n  add\n  swap1\n  dup2\n  mstore\n  0x20\n  add\n  0x00\n  keccak256\n    /* \"contracts/HamPepeTraits1.sol\":2168:2194  shirt.map[18] = \"Raincoat\" */\n  swap1\n  dup2\n  tag_24\n  swap2\n  swap1\n  tag_7\n  jump\t// in\ntag_24:\n  pop\n    /* \"contracts/HamPepeTraits1.sol\":2205:2232  shirt.map[19] = \"Fast food\" */\n  mload(0x40)\n  dup1\n  0x40\n  add\n  0x40\n  mstore\n  dup1\n  0x09\n  dup2\n  mstore\n  0x20\n  add\n  0x4661737420666f6f640000000000000000000000000000000000000000000000\n  dup2\n  mstore\n  pop\n    /* \"contracts/HamPepeTraits1.sol\":2205:2210  shirt */\n  0x02\n    /* \"contracts/HamPepeTraits1.sol\":2205:2214  shirt.map */\n  0x00\n  add\n    /* \"contracts/HamPepeTraits1.sol\":2205:2218  shirt.map[19] */\n  0x00\n    /* \"contracts/HamPepeTraits1.sol\":2215:2217  19 */\n  0x13\n    /* \"contracts/HamPepeTraits1.sol\":2205:2218  shirt.map[19] */\n  dup2\n  mstore\n  0x20\n  add\n  swap1\n  dup2\n  mstore\n  0x20\n  add\n  0x00\n  keccak256\n    /* \"contracts/HamPepeTraits1.sol\":2205:2232  shirt.map[19] = \"Fast food\" */\n  swap1\n  dup2\n  tag_25\n  swap2\n  swap1\n  tag_7\n  jump\t// in\ntag_25:\n  pop\n    /* \"contracts/HamPepeTraits1.sol\":2243:2267  shirt.map[20] = \"Intern\" */\n  mload(0x40)\n  dup1\n  0x40\n  add\n  0x40\n  mstore\n  dup1\n  0x06\n  dup2\n  mstore\n  0x20\n  add\n  0x496e7465726e0000000000000000000000000000000000000000000000000000\n  dup2\n  mstore\n  pop\n    /* \"contracts/HamPepeTraits1.sol\":2243:2248  shirt */\n  0x02\n    /* \"contracts/HamPepeTraits1.sol\":2243:2252  shirt.map */\n  0x00\n  add\n    /* \"contracts/HamPepeTraits1.sol\":2243:2256  shirt.map[20] */\n  0x00\n    /* \"contracts/HamPepeTraits1.sol\":2253:2255  20 */\n  0x14\n    /* \"contracts/HamPepeTraits1.sol\":2243:2256  shirt.map[20] */\n  dup2\n  mstore\n  0x20\n  add\n  swap1\n  dup2\n  mstore\n  0x20\n  add\n  0x00\n  keccak256\n    /* \"contracts/HamPepeTraits1.sol\":2243:2267  shirt.map[20] = \"Intern\" */\n  swap1\n  dup2\n  tag_26\n  swap2\n  swap1\n  tag_7\n  jump\t// in\ntag_26:\n  pop\n    /* \"contracts/HamPepeTraits1.sol\":2278:2309  shirt.map[21] = \"Bowling shirt\" */\n  mload(0x40)\n  dup1\n  0x40\n  add\n  0x40\n  mstore\n  dup1\n  0x0d\n  dup2\n  mstore\n  0x20\n  add\n  0x426f776c696e6720736869727400000000000000000000000000000000000000\n  dup2\n  mstore\n  pop\n    /* \"contracts/HamPepeTraits1.sol\":2278:2283  shirt */\n  0x02\n    /* \"contracts/HamPepeTraits1.sol\":2278:2287  shirt.map */\n  0x00\n  add\n    /* \"contracts/HamPepeTraits1.sol\":2278:2291  shirt.map[21] */\n  0x00\n    /* \"contracts/HamPepeTraits1.sol\":2288:2290  21 */\n  0x15\n    /* \"contracts/HamPepeTraits1.sol\":2278:2291  shirt.map[21] */\n  dup2\n  mstore\n  0x20\n  add\n  swap1\n  dup2\n  mstore\n  0x20\n  add\n  0x00\n  keccak256\n    /* \"contracts/HamPepeTraits1.sol\":2278:2309  shirt.map[21] = \"Bowling shirt\" */\n  swap1\n  dup2\n  tag_27\n  swap2\n  swap1\n  tag_7\n  jump\t// in\ntag_27:\n  pop\n    /* \"contracts/HamPepeTraits1.sol\":2320:2349  shirt.map[22] = \"Baja Hoodie\" */\n  mload(0x40)\n  dup1\n  0x40\n  add\n  0x40\n  mstore\n  dup1\n  0x0b\n  dup2\n  mstore\n  0x20\n  add\n  0x42616a6120486f6f646965000000000000000000000000000000000000000000\n  dup2\n  mstore\n  pop\n    /* \"contracts/HamPepeTraits1.sol\":2320:2325  shirt */\n  0x02\n    /* \"contracts/HamPepeTraits1.sol\":2320:2329  shirt.map */\n  0x00\n  add\n    /* \"contracts/HamPepeTraits1.sol\":2320:2333  shirt.map[22] */\n  0x00\n    /* \"contracts/HamPepeTraits1.sol\":2330:2332  22 */\n  0x16\n    /* \"contracts/HamPepeTraits1.sol\":2320:2333  shirt.map[22] */\n  dup2\n  mstore\n  0x20\n  add\n  swap1\n  dup2\n  mstore\n  0x20\n  add\n  0x00\n  keccak256\n    /* \"contracts/HamPepeTraits1.sol\":2320:2349  shirt.map[22] = \"Baja Hoodie\" */\n  swap1\n  dup2\n  tag_28\n  swap2\n  swap1\n  tag_7\n  jump\t// in\ntag_28:\n  pop\n    /* \"contracts/HamPepeTraits1.sol\":2362:2385  eyes.map[23] = \"Shades\" */\n  mload(0x40)\n  dup1\n  0x40\n  add\n  0x40\n  mstore\n  dup1\n  0x06\n  dup2\n  mstore\n  0x20\n  add\n  0x5368616465730000000000000000000000000000000000000000000000000000\n  dup2\n  mstore\n  pop\n    /* \"contracts/HamPepeTraits1.sol\":2362:2366  eyes */\n  0x03\n    /* \"contracts/HamPepeTraits1.sol\":2362:2370  eyes.map */\n  0x00\n  add\n    /* \"contracts/HamPepeTraits1.sol\":2362:2374  eyes.map[23] */\n  0x00\n    /* \"contracts/HamPepeTraits1.sol\":2371:2373  23 */\n  0x17\n    /* \"contracts/HamPepeTraits1.sol\":2362:2374  eyes.map[23] */\n  dup2\n  mstore\n  0x20\n  add\n  swap1\n  dup2\n  mstore\n  0x20\n  add\n  0x00\n  keccak256\n    /* \"contracts/HamPepeTraits1.sol\":2362:2385  eyes.map[23] = \"Shades\" */\n  swap1\n  dup2\n  tag_29\n  swap2\n  swap1\n  tag_7\n  jump\t// in\ntag_29:\n  pop\n    /* \"contracts/HamPepeTraits1.sol\":2396:2422  eyes.map[24] = \"Sunnyside\" */\n  mload(0x40)\n  dup1\n  0x40\n  add\n  0x40\n  mstore\n  dup1\n  0x09\n  dup2\n  mstore\n  0x20\n  add\n  0x53756e6e79736964650000000000000000000000000000000000000000000000\n  dup2\n  mstore\n  pop\n    /* \"contracts/HamPepeTraits1.sol\":2396:2400  eyes */\n  0x03\n    /* \"contracts/HamPepeTraits1.sol\":2396:2404  eyes.map */\n  0x00\n  add\n    /* \"contracts/HamPepeTraits1.sol\":2396:2408  eyes.map[24] */\n  0x00\n    /* \"contracts/HamPepeTraits1.sol\":2405:2407  24 */\n  0x18\n    /* \"contracts/HamPepeTraits1.sol\":2396:2408  eyes.map[24] */\n  dup2\n  mstore\n  0x20\n  add\n  swap1\n  dup2\n  mstore\n  0x20\n  add\n  0x00\n  keccak256\n    /* \"contracts/HamPepeTraits1.sol\":2396:2422  eyes.map[24] = \"Sunnyside\" */\n  swap1\n  dup2\n  tag_30\n  swap2\n  swap1\n  tag_7\n  jump\t// in\ntag_30:\n  pop\n    /* \"contracts/HamPepeTraits1.sol\":2433:2457  eyes.map[25] = \"Noggles\" */\n  mload(0x40)\n  dup1\n  0x40\n  add\n  0x40\n  mstore\n  dup1\n  0x07\n  dup2\n  mstore\n  0x20\n  add\n  0x4e6f67676c657300000000000000000000000000000000000000000000000000\n  dup2\n  mstore\n  pop\n    /* \"contracts/HamPepeTraits1.sol\":2433:2437  eyes */\n  0x03\n    /* \"contracts/HamPepeTraits1.sol\":2433:2441  eyes.map */\n  0x00\n  add\n    /* \"contracts/HamPepeTraits1.sol\":2433:2445  eyes.map[25] */\n  0x00\n    /* \"contracts/HamPepeTraits1.sol\":2442:2444  25 */\n  0x19\n    /* \"contracts/HamPepeTraits1.sol\":2433:2445  eyes.map[25] */\n  dup2\n  mstore\n  0x20\n  add\n  swap1\n  dup2\n  mstore\n  0x20\n  add\n  0x00\n  keccak256\n    /* \"contracts/HamPepeTraits1.sol\":2433:2457  eyes.map[25] = \"Noggles\" */\n  swap1\n  dup2\n  tag_31\n  swap2\n  swap1\n  tag_7\n  jump\t// in\ntag_31:\n  pop\n    /* \"contracts/HamPepeTraits1.sol\":2468:2495  eyes.map[26] = \"3D Glasses\" */\n  mload(0x40)\n  dup1\n  0x40\n  add\n  0x40\n  mstore\n  dup1\n  0x0a\n  dup2\n  mstore\n  0x20\n  add\n  0x334420476c617373657300000000000000000000000000000000000000000000\n  dup2\n  mstore\n  pop\n    /* \"contracts/HamPepeTraits1.sol\":2468:2472  eyes */\n  0x03\n    /* \"contracts/HamPepeTraits1.sol\":2468:2476  eyes.map */\n  0x00\n  add\n    /* \"contracts/HamPepeTraits1.sol\":2468:2480  eyes.map[26] */\n  0x00\n    /* \"contracts/HamPepeTraits1.sol\":2477:2479  26 */\n  0x1a\n    /* \"contracts/HamPepeTraits1.sol\":2468:2480  eyes.map[26] */\n  dup2\n  mstore\n  0x20\n  add\n  swap1\n  dup2\n  mstore\n  0x20\n  add\n  0x00\n  keccak256\n    /* \"contracts/HamPepeTraits1.sol\":2468:2495  eyes.map[26] = \"3D Glasses\" */\n  swap1\n  dup2\n  tag_32\n  swap2\n  swap1\n  tag_7\n  jump\t// in\ntag_32:\n  pop\n    /* \"contracts/HamPepeTraits1.sol\":2506:2529  eyes.map[27] = \"Smoked\" */\n  mload(0x40)\n  dup1\n  0x40\n  add\n  0x40\n  mstore\n  dup1\n  0x06\n  dup2\n  mstore\n  0x20\n  add\n  0x536d6f6b65640000000000000000000000000000000000000000000000000000\n  dup2\n  mstore\n  pop\n    /* \"contracts/HamPepeTraits1.sol\":2506:2510  eyes */\n  0x03\n    /* \"contracts/HamPepeTraits1.sol\":2506:2514  eyes.map */\n  0x00\n  add\n    /* \"contracts/HamPepeTraits1.sol\":2506:2518  eyes.map[27] */\n  0x00\n    /* \"contracts/HamPepeTraits1.sol\":2515:2517  27 */\n  0x1b\n    /* \"contracts/HamPepeTraits1.sol\":2506:2518  eyes.map[27] */\n  dup2\n  mstore\n  0x20\n  add\n  swap1\n  dup2\n  mstore\n  0x20\n  add\n  0x00\n  keccak256\n    /* \"contracts/HamPepeTraits1.sol\":2506:2529  eyes.map[27] = \"Smoked\" */\n  swap1\n  dup2\n  tag_33\n  swap2\n  swap1\n  tag_7\n  jump\t// in\ntag_33:\n  pop\n    /* \"contracts/HamPepeTraits1.sol\":2540:2561  eyes.map[28] = \"Mask\" */\n  mload(0x40)\n  dup1\n  0x40\n  add\n  0x40\n  mstore\n  dup1\n  0x04\n  dup2\n  mstore\n  0x20\n  add\n  0x4d61736b00000000000000000000000000000000000000000000000000000000\n  dup2\n  mstore\n  pop\n    /* \"contracts/HamPepeTraits1.sol\":2540:2544  eyes */\n  0x03\n    /* \"contracts/HamPepeTraits1.sol\":2540:2548  eyes.map */\n  0x00\n  add\n    /* \"contracts/HamPepeTraits1.sol\":2540:2552  eyes.map[28] */\n  0x00\n    /* \"contracts/HamPepeTraits1.sol\":2549:2551  28 */\n  0x1c\n    /* \"contracts/HamPepeTraits1.sol\":2540:2552  eyes.map[28] */\n  dup2\n  mstore\n  0x20\n  add\n  swap1\n  dup2\n  mstore\n  0x20\n  add\n  0x00\n  keccak256\n    /* \"contracts/HamPepeTraits1.sol\":2540:2561  eyes.map[28] = \"Mask\" */\n  swap1\n  dup2\n  tag_34\n  swap2\n  swap1\n  tag_7\n  jump\t// in\ntag_34:\n  pop\n    /* \"contracts/HamPepeTraits1.sol\":2572:2593  eyes.map[29] = \"Cool\" */\n  mload(0x40)\n  dup1\n  0x40\n  add\n  0x40\n  mstore\n  dup1\n  0x04\n  dup2\n  mstore\n  0x20\n  add\n  0x436f6f6c00000000000000000000000000000000000000000000000000000000\n  dup2\n  mstore\n  pop\n    /* \"contracts/HamPepeTraits1.sol\":2572:2576  eyes */\n  0x03\n    /* \"contracts/HamPepeTraits1.sol\":2572:2580  eyes.map */\n  0x00\n  add\n    /* \"contracts/HamPepeTraits1.sol\":2572:2584  eyes.map[29] */\n  0x00\n    /* \"contracts/HamPepeTraits1.sol\":2581:2583  29 */\n  0x1d\n    /* \"contracts/HamPepeTraits1.sol\":2572:2584  eyes.map[29] */\n  dup2\n  mstore\n  0x20\n  add\n  swap1\n  dup2\n  mstore\n  0x20\n  add\n  0x00\n  keccak256\n    /* \"contracts/HamPepeTraits1.sol\":2572:2593  eyes.map[29] = \"Cool\" */\n  swap1\n  dup2\n  tag_35\n  swap2\n  swap1\n  tag_7\n  jump\t// in\ntag_35:\n  pop\n    /* \"contracts/HamPepeTraits1.sol\":2604:2626  eyes.map[30] = \"Viper\" */\n  mload(0x40)\n  dup1\n  0x40\n  add\n  0x40\n  mstore\n  dup1\n  0x05\n  dup2\n  mstore\n  0x20\n  add\n  0x5669706572000000000000000000000000000000000000000000000000000000\n  dup2\n  mstore\n  pop\n    /* \"contracts/HamPepeTraits1.sol\":2604:2608  eyes */\n  0x03\n    /* \"contracts/HamPepeTraits1.sol\":2604:2612  eyes.map */\n  0x00\n  add\n    /* \"contracts/HamPepeTraits1.sol\":2604:2616  eyes.map[30] */\n  0x00\n    /* \"contracts/HamPepeTraits1.sol\":2613:2615  30 */\n  0x1e\n    /* \"contracts/HamPepeTraits1.sol\":2604:2616  eyes.map[30] */\n  dup2\n  mstore\n  0x20\n  add\n  swap1\n  dup2\n  mstore\n  0x20\n  add\n  0x00\n  keccak256\n    /* \"contracts/HamPepeTraits1.sol\":2604:2626  eyes.map[30] = \"Viper\" */\n  swap1\n  dup2\n  tag_36\n  swap2\n  swap1\n  tag_7\n  jump\t// in\ntag_36:\n  pop\n    /* \"contracts/HamPepeTraits1.sol\":2639:2662  hat.map[31] = \"Classic\" */\n  mload(0x40)\n  dup1\n  0x40\n  add\n  0x40\n  mstore\n  dup1\n  0x07\n  dup2\n  mstore\n  0x20\n  add\n  0x436c617373696300000000000000000000000000000000000000000000000000\n  dup2\n  mstore\n  pop\n    /* \"contracts/HamPepeTraits1.sol\":2639:2642  hat */\n  0x04\n    /* \"contracts/HamPepeTraits1.sol\":2639:2646  hat.map */\n  0x00\n  add\n    /* \"contracts/HamPepeTraits1.sol\":2639:2650  hat.map[31] */\n  0x00\n    /* \"contracts/HamPepeTraits1.sol\":2647:2649  31 */\n  0x1f\n    /* \"contracts/HamPepeTraits1.sol\":2639:2650  hat.map[31] */\n  dup2\n  mstore\n  0x20\n  add\n  swap1\n  dup2\n  mstore\n  0x20\n  add\n  0x00\n  keccak256\n    /* \"contracts/HamPepeTraits1.sol\":2639:2662  hat.map[31] = \"Classic\" */\n  swap1\n  dup2\n  tag_37\n  swap2\n  swap1\n  tag_7\n  jump\t// in\ntag_37:\n  pop\n    /* \"contracts/HamPepeTraits1.sol\":2673:2694  hat.map[32] = \"Degen\" */\n  mload(0x40)\n  dup1\n  0x40\n  add\n  0x40\n  mstore\n  dup1\n  0x05\n  dup2\n  mstore\n  0x20\n  add\n  0x446567656e000000000000000000000000000000000000000000000000000000\n  dup2\n  mstore\n  pop\n    /* \"contracts/HamPepeTraits1.sol\":2673:2676  hat */\n  0x04\n    /* \"contracts/HamPepeTraits1.sol\":2673:2680  hat.map */\n  0x00\n  add\n    /* \"contracts/HamPepeTraits1.sol\":2673:2684  hat.map[32] */\n  0x00\n    /* \"contracts/HamPepeTraits1.sol\":2681:2683  32 */\n  0x20\n    /* \"contracts/HamPepeTraits1.sol\":2673:2684  hat.map[32] */\n  dup2\n  mstore\n  0x20\n  add\n  swap1\n  dup2\n  mstore\n  0x20\n  add\n  0x00\n  keccak256\n    /* \"contracts/HamPepeTraits1.sol\":2673:2694  hat.map[32] = \"Degen\" */\n  swap1\n  dup2\n  tag_38\n  swap2\n  swap1\n  tag_7\n  jump\t// in\ntag_38:\n  pop\n    /* \"contracts/HamPepeTraits1.sol\":2705:2727  hat.map[33] = \"Wizard\" */\n  mload(0x40)\n  dup1\n  0x40\n  add\n  0x40\n  mstore\n  dup1\n  0x06\n  dup2\n  mstore\n  0x20\n  add\n  0x57697a6172640000000000000000000000000000000000000000000000000000\n  dup2\n  mstore\n  pop\n    /* \"contracts/HamPepeTraits1.sol\":2705:2708  hat */\n  0x04\n    /* \"contracts/HamPepeTraits1.sol\":2705:2712  hat.map */\n  0x00\n  add\n    /* \"contracts/HamPepeTraits1.sol\":2705:2716  hat.map[33] */\n  0x00\n    /* \"contracts/HamPepeTraits1.sol\":2713:2715  33 */\n  0x21\n    /* \"contracts/HamPepeTraits1.sol\":2705:2716  hat.map[33] */\n  dup2\n  mstore\n  0x20\n  add\n  swap1\n  dup2\n  mstore\n  0x20\n  add\n  0x00\n  keccak256\n    /* \"contracts/HamPepeTraits1.sol\":2705:2727  hat.map[33] = \"Wizard\" */\n  swap1\n  dup2\n  tag_39\n  swap2\n  swap1\n  tag_7\n  jump\t// in\ntag_39:\n  pop\n    /* \"contracts/HamPepeTraits1.sol\":2738:2759  hat.map[34] = \"Based\" */\n  mload(0x40)\n  dup1\n  0x40\n  add\n  0x40\n  mstore\n  dup1\n  0x05\n  dup2\n  mstore\n  0x20\n  add\n  0x4261736564000000000000000000000000000000000000000000000000000000\n  dup2\n  mstore\n  pop\n    /* \"contracts/HamPepeTraits1.sol\":2738:2741  hat */\n  0x04\n    /* \"contracts/HamPepeTraits1.sol\":2738:2745  hat.map */\n  0x00\n  add\n    /* \"contracts/HamPepeTraits1.sol\":2738:2749  hat.map[34] */\n  0x00\n    /* \"contracts/HamPepeTraits1.sol\":2746:2748  34 */\n  0x22\n    /* \"contracts/HamPepeTraits1.sol\":2738:2749  hat.map[34] */\n  dup2\n  mstore\n  0x20\n  add\n  swap1\n  dup2\n  mstore\n  0x20\n  add\n  0x00\n  keccak256\n    /* \"contracts/HamPepeTraits1.sol\":2738:2759  hat.map[34] = \"Based\" */\n  swap1\n  dup2\n  tag_40\n  swap2\n  swap1\n  tag_7\n  jump\t// in\ntag_40:\n  pop\n    /* \"contracts/HamPepeTraits1.sol\":2770:2789  hat.map[35] = \"Fez\" */\n  mload(0x40)\n  dup1\n  0x40\n  add\n  0x40\n  mstore\n  dup1\n  0x03\n  dup2\n  mstore\n  0x20\n  add\n  0x46657a0000000000000000000000000000000000000000000000000000000000\n  dup2\n  mstore\n  pop\n    /* \"contracts/HamPepeTraits1.sol\":2770:2773  hat */\n  0x04\n    /* \"contracts/HamPepeTraits1.sol\":2770:2777  hat.map */\n  0x00\n  add\n    /* \"contracts/HamPepeTraits1.sol\":2770:2781  hat.map[35] */\n  0x00\n    /* \"contracts/HamPepeTraits1.sol\":2778:2780  35 */\n  0x23\n    /* \"contracts/HamPepeTraits1.sol\":2770:2781  hat.map[35] */\n  dup2\n  mstore\n  0x20\n  add\n  swap1\n  dup2\n  mstore\n  0x20\n  add\n  0x00\n  keccak256\n    /* \"contracts/HamPepeTraits1.sol\":2770:2789  hat.map[35] = \"Fez\" */\n  swap1\n  dup2\n  tag_41\n  swap2\n  swap1\n  tag_7\n  jump\t// in\ntag_41:\n  pop\n    /* \"contracts/HamPepeTraits1.sol\":2800:2826  hat.map[36] = \"Headphones\" */\n  mload(0x40)\n  dup1\n  0x40\n  add\n  0x40\n  mstore\n  dup1\n  0x0a\n  dup2\n  mstore\n  0x20\n  add\n  0x4865616470686f6e657300000000000000000000000000000000000000000000\n  dup2\n  mstore\n  pop\n    /* \"contracts/HamPepeTraits1.sol\":2800:2803  hat */\n  0x04\n    /* \"contracts/HamPepeTraits1.sol\":2800:2807  hat.map */\n  0x00\n  add\n    /* \"contracts/HamPepeTraits1.sol\":2800:2811  hat.map[36] */\n  0x00\n    /* \"contracts/HamPepeTraits1.sol\":2808:2810  36 */\n  0x24\n    /* \"contracts/HamPepeTraits1.sol\":2800:2811  hat.map[36] */\n  dup2\n  mstore\n  0x20\n  add\n  swap1\n  dup2\n  mstore\n  0x20\n  add\n  0x00\n  keccak256\n    /* \"contracts/HamPepeTraits1.sol\":2800:2826  hat.map[36] = \"Headphones\" */\n  swap1\n  dup2\n  tag_42\n  swap2\n  swap1\n  tag_7\n  jump\t// in\ntag_42:\n  pop\n    /* \"contracts/HamPepeTraits1.sol\":2837:2857  hat.map[37] = \"Halo\" */\n  mload(0x40)\n  dup1\n  0x40\n  add\n  0x40\n  mstore\n  dup1\n  0x04\n  dup2\n  mstore\n  0x20\n  add\n  0x48616c6f00000000000000000000000000000000000000000000000000000000\n  dup2\n  mstore\n  pop\n    /* \"contracts/HamPepeTraits1.sol\":2837:2840  hat */\n  0x04\n    /* \"contracts/HamPepeTraits1.sol\":2837:2844  hat.map */\n  0x00\n  add\n    /* \"contracts/HamPepeTraits1.sol\":2837:2848  hat.map[37] */\n  0x00\n    /* \"contracts/HamPepeTraits1.sol\":2845:2847  37 */\n  0x25\n    /* \"contracts/HamPepeTraits1.sol\":2837:2848  hat.map[37] */\n  dup2\n  mstore\n  0x20\n  add\n  swap1\n  dup2\n  mstore\n  0x20\n  add\n  0x00\n  keccak256\n    /* \"contracts/HamPepeTraits1.sol\":2837:2857  hat.map[37] = \"Halo\" */\n  swap1\n  dup2\n  tag_43\n  swap2\n  swap1\n  tag_7\n  jump\t// in\ntag_43:\n  pop\n    /* \"contracts/HamPepeTraits1.sol\":2868:2890  hat.map[38] = \"Cowboy\" */\n  mload(0x40)\n  dup1\n  0x40\n  add\n  0x40\n  mstore\n  dup1\n  0x06\n  dup2\n  mstore\n  0x20\n  add\n  0x436f77626f790000000000000000000000000000000000000000000000000000\n  dup2\n  mstore\n  pop\n    /* \"contracts/HamPepeTraits1.sol\":2868:2871  hat */\n  0x04\n    /* \"contracts/HamPepeTraits1.sol\":2868:2875  hat.map */\n  0x00\n  add\n    /* \"contracts/HamPepeTraits1.sol\":2868:2879  hat.map[38] */\n  0x00\n    /* \"contracts/HamPepeTraits1.sol\":2876:2878  38 */\n  0x26\n    /* \"contracts/HamPepeTraits1.sol\":2868:2879  hat.map[38] */\n  dup2\n  mstore\n  0x20\n  add\n  swap1\n  dup2\n  mstore\n  0x20\n  add\n  0x00\n  keccak256\n    /* \"contracts/HamPepeTraits1.sol\":2868:2890  hat.map[38] = \"Cowboy\" */\n  swap1\n  dup2\n  tag_44\n  swap2\n  swap1\n  tag_7\n  jump\t// in\ntag_44:\n  pop\n    /* \"contracts/HamPepeTraits1.sol\":2901:2924  hat.map[39] = \"Spinner\" */\n  mload(0x40)\n  dup1\n  0x40\n  add\n  0x40\n  mstore\n  dup1\n  0x07\n  dup2\n  mstore\n  0x20\n  add\n  0x5370696e6e657200000000000000000000000000000000000000000000000000\n  dup2\n  mstore\n  pop\n    /* \"contracts/HamPepeTraits1.sol\":2901:2904  hat */\n  0x04\n    /* \"contracts/HamPepeTraits1.sol\":2901:2908  hat.map */\n  0x00\n  add\n    /* \"contracts/HamPepeTraits1.sol\":2901:2912  hat.map[39] */\n  0x00\n    /* \"contracts/HamPepeTraits1.sol\":2909:2911  39 */\n  0x27\n    /* \"contracts/HamPepeTraits1.sol\":2901:2912  hat.map[39] */\n  dup2\n  mstore\n  0x20\n  add\n  swap1\n  dup2\n  mstore\n  0x20\n  add\n  0x00\n  keccak256\n    /* \"contracts/HamPepeTraits1.sol\":2901:2924  hat.map[39] = \"Spinner\" */\n  swap1\n  dup2\n  tag_45\n  swap2\n  swap1\n  tag_7\n  jump\t// in\ntag_45:\n  pop\n    /* \"contracts/HamPepeTraits1.sol\":2935:2955  hat.map[40] = \"Band\" */\n  mload(0x40)\n  dup1\n  0x40\n  add\n  0x40\n  mstore\n  dup1\n  0x04\n  dup2\n  mstore\n  0x20\n  add\n  0x42616e6400000000000000000000000000000000000000000000000000000000\n  dup2\n  mstore\n  pop\n    /* \"contracts/HamPepeTraits1.sol\":2935:2938  hat */\n  0x04\n    /* \"contracts/HamPepeTraits1.sol\":2935:2942  hat.map */\n  0x00\n  add\n    /* \"contracts/HamPepeTraits1.sol\":2935:2946  hat.map[40] */\n  0x00\n    /* \"contracts/HamPepeTraits1.sol\":2943:2945  40 */\n  0x28\n    /* \"contracts/HamPepeTraits1.sol\":2935:2946  hat.map[40] */\n  dup2\n  mstore\n  0x20\n  add\n  swap1\n  dup2\n  mstore\n  0x20\n  add\n  0x00\n  keccak256\n    /* \"contracts/HamPepeTraits1.sol\":2935:2955  hat.map[40] = \"Band\" */\n  swap1\n  dup2\n  tag_46\n  swap2\n  swap1\n  tag_7\n  jump\t// in\ntag_46:\n  pop\n    /* \"contracts/HamPepeTraits1.sol\":2966:2988  hat.map[41] = \"Beanie\" */\n  mload(0x40)\n  dup1\n  0x40\n  add\n  0x40\n  mstore\n  dup1\n  0x06\n  dup2\n  mstore\n  0x20\n  add\n  0x4265616e69650000000000000000000000000000000000000000000000000000\n  dup2\n  mstore\n  pop\n    /* \"contracts/HamPepeTraits1.sol\":2966:2969  hat */\n  0x04\n    /* \"contracts/HamPepeTraits1.sol\":2966:2973  hat.map */\n  0x00\n  add\n    /* \"contracts/HamPepeTraits1.sol\":2966:2977  hat.map[41] */\n  0x00\n    /* \"contracts/HamPepeTraits1.sol\":2974:2976  41 */\n  0x29\n    /* \"contracts/HamPepeTraits1.sol\":2966:2977  hat.map[41] */\n  dup2\n  mstore\n  0x20\n  add\n  swap1\n  dup2\n  mstore\n  0x20\n  add\n  0x00\n  keccak256\n    /* \"contracts/HamPepeTraits1.sol\":2966:2988  hat.map[41] = \"Beanie\" */\n  swap1\n  dup2\n  tag_47\n  swap2\n  swap1\n  tag_7\n  jump\t// in\ntag_47:\n  pop\n    /* \"contracts/HamPepeTraits1.sol\":2999:3021  hat.map[42] = \"Sprout\" */\n  mload(0x40)\n  dup1\n  0x40\n  add\n  0x40\n  mstore\n  dup1\n  0x06\n  dup2\n  mstore\n  0x20\n  add\n  0x5370726f75740000000000000000000000000000000000000000000000000000\n  dup2\n  mstore\n  pop\n    /* \"contracts/HamPepeTraits1.sol\":2999:3002  hat */\n  0x04\n    /* \"contracts/HamPepeTraits1.sol\":2999:3006  hat.map */\n  0x00\n  add\n    /* \"contracts/HamPepeTraits1.sol\":2999:3010  hat.map[42] */\n  0x00\n    /* \"contracts/HamPepeTraits1.sol\":3007:3009  42 */\n  0x2a\n    /* \"contracts/HamPepeTraits1.sol\":2999:3010  hat.map[42] */\n  dup2\n  mstore\n  0x20\n  add\n  swap1\n  dup2\n  mstore\n  0x20\n  add\n  0x00\n  keccak256\n    /* \"contracts/HamPepeTraits1.sol\":2999:3021  hat.map[42] = \"Sprout\" */\n  swap1\n  dup2\n  tag_48\n  swap2\n  swap1\n  tag_7\n  jump\t// in\ntag_48:\n  pop\n    /* \"contracts/HamPepeTraits1.sol\":3032:3053  hat.map[43] = \"Crown\" */\n  mload(0x40)\n  dup1\n  0x40\n  add\n  0x40\n  mstore\n  dup1\n  0x05\n  dup2\n  mstore\n  0x20\n  add\n  0x43726f776e000000000000000000000000000000000000000000000000000000\n  dup2\n  mstore\n  pop\n    /* \"contracts/HamPepeTraits1.sol\":3032:3035  hat */\n  0x04\n    /* \"contracts/HamPepeTraits1.sol\":3032:3039  hat.map */\n  0x00\n  add\n    /* \"contracts/HamPepeTraits1.sol\":3032:3043  hat.map[43] */\n  0x00\n    /* \"contracts/HamPepeTraits1.sol\":3040:3042  43 */\n  0x2b\n    /* \"contracts/HamPepeTraits1.sol\":3032:3043  hat.map[43] */\n  dup2\n  mstore\n  0x20\n  add\n  swap1\n  dup2\n  mstore\n  0x20\n  add\n  0x00\n  keccak256\n    /* \"contracts/HamPepeTraits1.sol\":3032:3053  hat.map[43] = \"Crown\" */\n  swap1\n  dup2\n  tag_49\n  swap2\n  swap1\n  tag_7\n  jump\t// in\ntag_49:\n  pop\n    /* \"contracts/HamPepeTraits1.sol\":3064:3086  hat.map[44] = \"Pirate\" */\n  mload(0x40)\n  dup1\n  0x40\n  add\n  0x40\n  mstore\n  dup1\n  0x06\n  dup2\n  mstore\n  0x20\n  add\n  0x5069726174650000000000000000000000000000000000000000000000000000\n  dup2\n  mstore\n  pop\n    /* \"contracts/HamPepeTraits1.sol\":3064:3067  hat */\n  0x04\n    /* \"contracts/HamPepeTraits1.sol\":3064:3071  hat.map */\n  0x00\n  add\n    /* \"contracts/HamPepeTraits1.sol\":3064:3075  hat.map[44] */\n  0x00\n    /* \"contracts/HamPepeTraits1.sol\":3072:3074  44 */\n  0x2c\n    /* \"contracts/HamPepeTraits1.sol\":3064:3075  hat.map[44] */\n  dup2\n  mstore\n  0x20\n  add\n  swap1\n  dup2\n  mstore\n  0x20\n  add\n  0x00\n  keccak256\n    /* \"contracts/HamPepeTraits1.sol\":3064:3086  hat.map[44] = \"Pirate\" */\n  swap1\n  dup2\n  tag_50\n  swap2\n  swap1\n  tag_7\n  jump\t// in\ntag_50:\n  pop\n    /* \"contracts/HamPepeTraits1.sol\":3097:3118  hat.map[45] = \"Party\" */\n  mload(0x40)\n  dup1\n  0x40\n  add\n  0x40\n  mstore\n  dup1\n  0x05\n  dup2\n  mstore\n  0x20\n  add\n  0x5061727479000000000000000000000000000000000000000000000000000000\n  dup2\n  mstore\n  pop\n    /* \"contracts/HamPepeTraits1.sol\":3097:3100  hat */\n  0x04\n    /* \"contracts/HamPepeTraits1.sol\":3097:3104  hat.map */\n  0x00\n  add\n    /* \"contracts/HamPepeTraits1.sol\":3097:3108  hat.map[45] */\n  0x00\n    /* \"contracts/HamPepeTraits1.sol\":3105:3107  45 */\n  0x2d\n    /* \"contracts/HamPepeTraits1.sol\":3097:3108  hat.map[45] */\n  dup2\n  mstore\n  0x20\n  add\n  swap1\n  dup2\n  mstore\n  0x20\n  add\n  0x00\n  keccak256\n    /* \"contracts/HamPepeTraits1.sol\":3097:3118  hat.map[45] = \"Party\" */\n  swap1\n  dup2\n  tag_51\n  swap2\n  swap1\n  tag_7\n  jump\t// in\ntag_51:\n  pop\n    /* \"contracts/HamPepeTraits1.sol\":3129:3155  hat.map[46] = \"Leprechaun\" */\n  mload(0x40)\n  dup1\n  0x40\n  add\n  0x40\n  mstore\n  dup1\n  0x0a\n  dup2\n  mstore\n  0x20\n  add\n  0x4c65707265636861756e00000000000000000000000000000000000000000000\n  dup2\n  mstore\n  pop\n    /* \"contracts/HamPepeTraits1.sol\":3129:3132  hat */\n  0x04\n    /* \"contracts/HamPepeTraits1.sol\":3129:3136  hat.map */\n  0x00\n  add\n    /* \"contracts/HamPepeTraits1.sol\":3129:3140  hat.map[46] */\n  0x00\n    /* \"contracts/HamPepeTraits1.sol\":3137:3139  46 */\n  0x2e\n    /* \"contracts/HamPepeTraits1.sol\":3129:3140  hat.map[46] */\n  dup2\n  mstore\n  0x20\n  add\n  swap1\n  dup2\n  mstore\n  0x20\n  add\n  0x00\n  keccak256\n    /* \"contracts/HamPepeTraits1.sol\":3129:3155  hat.map[46] = \"Leprechaun\" */\n  swap1\n  dup2\n  tag_52\n  swap2\n  swap1\n  tag_7\n  jump\t// in\ntag_52:\n  pop\n    /* \"contracts/HamPepeTraits1.sol\":3166:3189  hat.map[47] = \"Rooster\" */\n  mload(0x40)\n  dup1\n  0x40\n  add\n  0x40\n  mstore\n  dup1\n  0x07\n  dup2\n  mstore\n  0x20\n  add\n  0x526f6f7374657200000000000000000000000000000000000000000000000000\n  dup2\n  mstore\n  pop\n    /* \"contracts/HamPepeTraits1.sol\":3166:3169  hat */\n  0x04\n    /* \"contracts/HamPepeTraits1.sol\":3166:3173  hat.map */\n  0x00\n  add\n    /* \"contracts/HamPepeTraits1.sol\":3166:3177  hat.map[47] */\n  0x00\n    /* \"contracts/HamPepeTraits1.sol\":3174:3176  47 */\n  0x2f\n    /* \"contracts/HamPepeTraits1.sol\":3166:3177  hat.map[47] */\n  dup2\n  mstore\n  0x20\n  add\n  swap1\n  dup2\n  mstore\n  0x20\n  add\n  0x00\n  keccak256\n    /* \"contracts/HamPepeTraits1.sol\":3166:3189  hat.map[47] = \"Rooster\" */\n  swap1\n  dup2\n  tag_53\n  swap2\n  swap1\n  tag_7\n  jump\t// in\ntag_53:\n  pop\n    /* \"contracts/HamPepeTraits1.sol\":3202:3231  special.map[48] = \"Cigarette\" */\n  mload(0x40)\n  dup1\n  0x40\n  add\n  0x40\n  mstore\n  dup1\n  0x09\n  dup2\n  mstore\n  0x20\n  add\n  0x4369676172657474650000000000000000000000000000000000000000000000\n  dup2\n  mstore\n  pop\n    /* \"contracts/HamPepeTraits1.sol\":3202:3209  special */\n  0x05\n    /* \"contracts/HamPepeTraits1.sol\":3202:3213  special.map */\n  0x00\n  add\n    /* \"contracts/HamPepeTraits1.sol\":3202:3217  special.map[48] */\n  0x00\n    /* \"contracts/HamPepeTraits1.sol\":3214:3216  48 */\n  0x30\n    /* \"contracts/HamPepeTraits1.sol\":3202:3217  special.map[48] */\n  dup2\n  mstore\n  0x20\n  add\n  swap1\n  dup2\n  mstore\n  0x20\n  add\n  0x00\n  keccak256\n    /* \"contracts/HamPepeTraits1.sol\":3202:3231  special.map[48] = \"Cigarette\" */\n  swap1\n  dup2\n  tag_54\n  swap2\n  swap1\n  tag_7\n  jump\t// in\ntag_54:\n  pop\n    /* \"contracts/HamPepeTraits1.sol\":3242:3266  special.map[49] = \"Vape\" */\n  mload(0x40)\n  dup1\n  0x40\n  add\n  0x40\n  mstore\n  dup1\n  0x04\n  dup2\n  mstore\n  0x20\n  add\n  0x5661706500000000000000000000000000000000000000000000000000000000\n  dup2\n  mstore\n  pop\n    /* \"contracts/HamPepeTraits1.sol\":3242:3249  special */\n  0x05\n    /* \"contracts/HamPepeTraits1.sol\":3242:3253  special.map */\n  0x00\n  add\n    /* \"contracts/HamPepeTraits1.sol\":3242:3257  special.map[49] */\n  0x00\n    /* \"contracts/HamPepeTraits1.sol\":3254:3256  49 */\n  0x31\n    /* \"contracts/HamPepeTraits1.sol\":3242:3257  special.map[49] */\n  dup2\n  mstore\n  0x20\n  add\n  swap1\n  dup2\n  mstore\n  0x20\n  add\n  0x00\n  keccak256\n    /* \"contracts/HamPepeTraits1.sol\":3242:3266  special.map[49] = \"Vape\" */\n  swap1\n  dup2\n  tag_55\n  swap2\n  swap1\n  tag_7\n  jump\t// in\ntag_55:\n  pop\n    /* \"contracts/HamPepeTraits1.sol\":3277:3301  special.map[50] = \"Pipe\" */\n  mload(0x40)\n  dup1\n  0x40\n  add\n  0x40\n  mstore\n  dup1\n  0x04\n  dup2\n  mstore\n  0x20\n  add\n  0x5069706500000000000000000000000000000000000000000000000000000000\n  dup2\n  mstore\n  pop\n    /* \"contracts/HamPepeTraits1.sol\":3277:3284  special */\n  0x05\n    /* \"contracts/HamPepeTraits1.sol\":3277:3288  special.map */\n  0x00\n  add\n    /* \"contracts/HamPepeTraits1.sol\":3277:3292  special.map[50] */\n  0x00\n    /* \"contracts/HamPepeTraits1.sol\":3289:3291  50 */\n  0x32\n    /* \"contracts/HamPepeTraits1.sol\":3277:3292  special.map[50] */\n  dup2\n  mstore\n  0x20\n  add\n  swap1\n  dup2\n  mstore\n  0x20\n  add\n  0x00\n  keccak256\n    /* \"contracts/HamPepeTraits1.sol\":3277:3301  special.map[50] = \"Pipe\" */\n  swap1\n  dup2\n  tag_56\n  swap2\n  swap1\n  tag_7\n  jump\t// in\ntag_56:\n  pop\n    /* \"contracts/HamPepeTraits1.sol\":3312:3336  special.map[51] = \"Puke\" */\n  mload(0x40)\n  dup1\n  0x40\n  add\n  0x40\n  mstore\n  dup1\n  0x04\n  dup2\n  mstore\n  0x20\n  add\n  0x50756b6500000000000000000000000000000000000000000000000000000000\n  dup2\n  mstore\n  pop\n    /* \"contracts/HamPepeTraits1.sol\":3312:3319  special */\n  0x05\n    /* \"contracts/HamPepeTraits1.sol\":3312:3323  special.map */\n  0x00\n  add\n    /* \"contracts/HamPepeTraits1.sol\":3312:3327  special.map[51] */\n  0x00\n    /* \"contracts/HamPepeTraits1.sol\":3324:3326  51 */\n  0x33\n    /* \"contracts/HamPepeTraits1.sol\":3312:3327  special.map[51] */\n  dup2\n  mstore\n  0x20\n  add\n  swap1\n  dup2\n  mstore\n  0x20\n  add\n  0x00\n  keccak256\n    /* \"contracts/HamPepeTraits1.sol\":3312:3336  special.map[51] = \"Puke\" */\n  swap1\n  dup2\n  tag_57\n  swap2\n  swap1\n  tag_7\n  jump\t// in\ntag_57:\n  pop\n    /* \"contracts/HamPepeTraits1.sol\":3347:3373  special.map[52] = \"Bubble\" */\n  mload(0x40)\n  dup1\n  0x40\n  add\n  0x40\n  mstore\n  dup1\n  0x06\n  dup2\n  mstore\n  0x20\n  add\n  0x427562626c650000000000000000000000000000000000000000000000000000\n  dup2\n  mstore\n  pop\n    /* \"contracts/HamPepeTraits1.sol\":3347:3354  special */\n  0x05\n    /* \"contracts/HamPepeTraits1.sol\":3347:3358  special.map */\n  0x00\n  add\n    /* \"contracts/HamPepeTraits1.sol\":3347:3362  special.map[52] */\n  0x00\n    /* \"contracts/HamPepeTraits1.sol\":3359:3361  52 */\n  0x34\n    /* \"contracts/HamPepeTraits1.sol\":3347:3362  special.map[52] */\n  dup2\n  mstore\n  0x20\n  add\n  swap1\n  dup2\n  mstore\n  0x20\n  add\n  0x00\n  keccak256\n    /* \"contracts/HamPepeTraits1.sol\":3347:3373  special.map[52] = \"Bubble\" */\n  swap1\n  dup2\n  tag_58\n  swap2\n  swap1\n  tag_7\n  jump\t// in\ntag_58:\n  pop\n    /* \"contracts/HamPepeTraits1.sol\":3384:3409  special.map[53] = \"Cigar\" */\n  mload(0x40)\n  dup1\n  0x40\n  add\n  0x40\n  mstore\n  dup1\n  0x05\n  dup2\n  mstore\n  0x20\n  add\n  0x4369676172000000000000000000000000000000000000000000000000000000\n  dup2\n  mstore\n  pop\n    /* \"contracts/HamPepeTraits1.sol\":3384:3391  special */\n  0x05\n    /* \"contracts/HamPepeTraits1.sol\":3384:3395  special.map */\n  0x00\n  add\n    /* \"contracts/HamPepeTraits1.sol\":3384:3399  special.map[53] */\n  0x00\n    /* \"contracts/HamPepeTraits1.sol\":3396:3398  53 */\n  0x35\n    /* \"contracts/HamPepeTraits1.sol\":3384:3399  special.map[53] */\n  dup2\n  mstore\n  0x20\n  add\n  swap1\n  dup2\n  mstore\n  0x20\n  add\n  0x00\n  keccak256\n    /* \"contracts/HamPepeTraits1.sol\":3384:3409  special.map[53] = \"Cigar\" */\n  swap1\n  dup2\n  tag_59\n  swap2\n  swap1\n  tag_7\n  jump\t// in\ntag_59:\n  pop\n    /* \"contracts/HamPepeTraits1.sol\":61:3424  contract HamPepeTraits1 {... */\n  jump(tag_60)\ntag_2:\n  dup3\n  0x06\n  dup2\n  add\n  swap3\n  dup3\n  iszero\n  tag_61\n  jumpi\n  swap2\n  0x20\n  mul\n  dup3\n  add\ntag_62:\n  dup3\n  dup2\n  gt\n  iszero\n  tag_63\n  jumpi\n  dup3\n  mload\n  dup3\n  swap1\n  dup2\n  tag_64\n  swap2\n  swap1\n  tag_7\n  jump\t// in\ntag_64:\n  pop\n  swap2\n  0x20\n  add\n  swap2\n  swap1\n  0x01\n  add\n  swap1\n  jump(tag_62)\ntag_63:\ntag_61:\n  pop\n  swap1\n  pop\n  tag_65\n  swap2\n  swap1\n  tag_66\n  jump\t// in\ntag_65:\n  pop\n  swap1\n  jump\t// out\ntag_66:\ntag_67:\n  dup1\n  dup3\n  gt\n  iszero\n  tag_68\n  jumpi\n  0x00\n  dup2\n  dup2\n  tag_69\n  swap2\n  swap1\n  tag_70\n  jump\t// in\ntag_69:\n  pop\n  0x01\n  add\n  jump(tag_67)\ntag_68:\n  pop\n  swap1\n  jump\t// out\ntag_70:\n  pop\n  dup1\n  sload\n  tag_71\n  swap1\n  tag_72\n  jump\t// in\ntag_71:\n  0x00\n  dup3\n  sstore\n  dup1\n  0x1f\n  lt\n  tag_74\n  jumpi\n  pop\n  jump(tag_73)\ntag_74:\n  0x1f\n  add\n  0x20\n  swap1\n  div\n  swap1\n  0x00\n  mstore\n  keccak256(0x00, 0x20)\n  swap1\n  dup2\n  add\n  swap1\n  tag_75\n  swap2\n  swap1\n  tag_76\n  jump\t// in\ntag_75:\ntag_73:\n  pop\n  jump\t// out\ntag_76:\ntag_77:\n  dup1\n  dup3\n  gt\n  iszero\n  tag_78\n  jumpi\n  0x00\n  dup2\n  0x00\n  swap1\n  sstore\n  pop\n  0x01\n  add\n  jump(tag_77)\ntag_78:\n  pop\n  swap1\n  jump\t// out\n    /* \"#utility.yul\":7:106   */\ntag_79:\n    /* \"#utility.yul\":59:65   */\n  0x00\n    /* \"#utility.yul\":93:98   */\n  dup2\n    /* \"#utility.yul\":87:99   */\n  mload\n    /* \"#utility.yul\":77:99   */\n  swap1\n  pop\n    /* \"#utility.yul\":7:106   */\n  swap2\n  swap1\n  pop\n  jump\t// out\n    /* \"#utility.yul\":112:292   */\ntag_80:\n    /* \"#utility.yul\":160:237   */\n  0x4e487b7100000000000000000000000000000000000000000000000000000000\n    /* \"#utility.yul\":157:158   */\n  0x00\n    /* \"#utility.yul\":150:238   */\n  mstore\n    /* \"#utility.yul\":257:261   */\n  0x41\n    /* \"#utility.yul\":254:255   */\n  0x04\n    /* \"#utility.yul\":247:262   */\n  mstore\n    /* \"#utility.yul\":281:285   */\n  0x24\n    /* \"#utility.yul\":278:279   */\n  0x00\n    /* \"#utility.yul\":271:286   */\n  revert\n    /* \"#utility.yul\":298:478   */\ntag_81:\n    /* \"#utility.yul\":346:423   */\n  0x4e487b7100000000000000000000000000000000000000000000000000000000\n    /* \"#utility.yul\":343:344   */\n  0x00\n    /* \"#utility.yul\":336:424   */\n  mstore\n    /* \"#utility.yul\":443:447   */\n  0x22\n    /* \"#utility.yul\":440:441   */\n  0x04\n    /* \"#utility.yul\":433:448   */\n  mstore\n    /* \"#utility.yul\":467:471   */\n  0x24\n    /* \"#utility.yul\":464:465   */\n  0x00\n    /* \"#utility.yul\":457:472   */\n  revert\n    /* \"#utility.yul\":484:804   */\ntag_72:\n    /* \"#utility.yul\":528:534   */\n  0x00\n    /* \"#utility.yul\":565:566   */\n  0x02\n    /* \"#utility.yul\":559:563   */\n  dup3\n    /* \"#utility.yul\":555:567   */\n  div\n    /* \"#utility.yul\":545:567   */\n  swap1\n  pop\n    /* \"#utility.yul\":612:613   */\n  0x01\n    /* \"#utility.yul\":606:610   */\n  dup3\n    /* \"#utility.yul\":602:614   */\n  and\n    /* \"#utility.yul\":633:651   */\n  dup1\n    /* \"#utility.yul\":623:704   */\n  tag_103\n  jumpi\n    /* \"#utility.yul\":689:693   */\n  0x7f\n    /* \"#utility.yul\":681:687   */\n  dup3\n    /* \"#utility.yul\":677:694   */\n  and\n    /* \"#utility.yul\":667:694   */\n  swap2\n  pop\n    /* \"#utility.yul\":623:704   */\ntag_103:\n    /* \"#utility.yul\":751:753   */\n  0x20\n    /* \"#utility.yul\":743:749   */\n  dup3\n    /* \"#utility.yul\":740:754   */\n  lt\n    /* \"#utility.yul\":720:738   */\n  dup2\n    /* \"#utility.yul\":717:755   */\n  sub\n    /* \"#utility.yul\":714:798   */\n  tag_104\n  jumpi\n    /* \"#utility.yul\":770:788   */\n  tag_105\n  tag_81\n  jump\t// in\ntag_105:\n    /* \"#utility.yul\":714:798   */\ntag_104:\n    /* \"#utility.yul\":535:804   */\n  pop\n    /* \"#utility.yul\":484:804   */\n  swap2\n  swap1\n  pop\n  jump\t// out\n    /* \"#utility.yul\":810:951   */\ntag_82:\n    /* \"#utility.yul\":859:863   */\n  0x00\n    /* \"#utility.yul\":882:885   */\n  dup2\n    /* \"#utility.yul\":874:885   */\n  swap1\n  pop\n    /* \"#utility.yul\":905:908   */\n  dup2\n    /* \"#utility.yul\":902:903   */\n  0x00\n    /* \"#utility.yul\":895:909   */\n  mstore\n    /* \"#utility.yul\":939:943   */\n  0x20\n    /* \"#utility.yul\":936:937   */\n  0x00\n    /* \"#utility.yul\":926:944   */\n  keccak256\n    /* \"#utility.yul\":918:944   */\n  swap1\n  pop\n    /* \"#utility.yul\":810:951   */\n  swap2\n  swap1\n  pop\n  jump\t// out\n    /* \"#utility.yul\":957:1050   */\ntag_83:\n    /* \"#utility.yul\":994:1000   */\n  0x00\n    /* \"#utility.yul\":1041:1043   */\n  0x20\n    /* \"#utility.yul\":1036:1038   */\n  0x1f\n    /* \"#utility.yul\":1029:1034   */\n  dup4\n    /* \"#utility.yul\":1025:1039   */\n  add\n    /* \"#utility.yul\":1021:1044   */\n  div\n    /* \"#utility.yul\":1011:1044   */\n  swap1\n  pop\n    /* \"#utility.yul\":957:1050   */\n  swap2\n  swap1\n  pop\n  jump\t// out\n    /* \"#utility.yul\":1056:1163   */\ntag_84:\n    /* \"#utility.yul\":1100:1108   */\n  0x00\n    /* \"#utility.yul\":1150:1155   */\n  dup3\n    /* \"#utility.yul\":1144:1148   */\n  dup3\n    /* \"#utility.yul\":1140:1156   */\n  shl\n    /* \"#utility.yul\":1119:1156   */\n  swap1\n  pop\n    /* \"#utility.yul\":1056:1163   */\n  swap3\n  swap2\n  pop\n  pop\n  jump\t// out\n    /* \"#utility.yul\":1169:1562   */\ntag_85:\n    /* \"#utility.yul\":1238:1244   */\n  0x00\n    /* \"#utility.yul\":1288:1289   */\n  0x08\n    /* \"#utility.yul\":1276:1286   */\n  dup4\n    /* \"#utility.yul\":1272:1290   */\n  mul\n    /* \"#utility.yul\":1311:1408   */\n  tag_110\n    /* \"#utility.yul\":1341:1407   */\n  0xffffffffffffffffffffffffffffffffffffffffffffffffffffffffffffffff\n    /* \"#utility.yul\":1330:1339   */\n  dup3\n    /* \"#utility.yul\":1311:1408   */\n  tag_84\n  jump\t// in\ntag_110:\n    /* \"#utility.yul\":1429:1468   */\n  tag_111\n    /* \"#utility.yul\":1459:1467   */\n  dup7\n    /* \"#utility.yul\":1448:1457   */\n  dup4\n    /* \"#utility.yul\":1429:1468   */\n  tag_84\n  jump\t// in\ntag_111:\n    /* \"#utility.yul\":1417:1468   */\n  swap6\n  pop\n    /* \"#utility.yul\":1501:1505   */\n  dup1\n    /* \"#utility.yul\":1497:1506   */\n  not\n    /* \"#utility.yul\":1490:1495   */\n  dup5\n    /* \"#utility.yul\":1486:1507   */\n  and\n    /* \"#utility.yul\":1477:1507   */\n  swap4\n  pop\n    /* \"#utility.yul\":1550:1554   */\n  dup1\n    /* \"#utility.yul\":1540:1548   */\n  dup7\n    /* \"#utility.yul\":1536:1555   */\n  and\n    /* \"#utility.yul\":1529:1534   */\n  dup5\n    /* \"#utility.yul\":1526:1556   */\n  or\n    /* \"#utility.yul\":1516:1556   */\n  swap3\n  pop\n    /* \"#utility.yul\":1245:1562   */\n  pop\n  pop\n    /* \"#utility.yul\":1169:1562   */\n  swap4\n  swap3\n  pop\n  pop\n  pop\n  jump\t// out\n    /* \"#utility.yul\":1568:1645   */\ntag_86:\n    /* \"#utility.yul\":1605:1612   */\n  0x00\n    /* \"#utility.yul\":1634:1639   */\n  dup2\n    /* \"#utility.yul\":1623:1639   */\n  swap1\n  pop\n    /* \"#utility.yul\":1568:1645   */\n  swap2\n  swap1\n  pop\n  jump\t// out\n    /* \"#utility.yul\":1651:1711   */\ntag_87:\n    /* \"#utility.yul\":1679:1682   */\n  0x00\n    /* \"#utility.yul\":1700:1705   */\n  dup2\n    /* \"#utility.yul\":1693:1705   */\n  swap1\n  pop\n    /* \"#utility.yul\":1651:1711   */\n  swap2\n  swap1\n  pop\n  jump\t// out\n    /* \"#utility.yul\":1717:1859   */\ntag_88:\n    /* \"#utility.yul\":1767:1776   */\n  0x00\n    /* \"#utility.yul\":1800:1853   */\n  tag_115\n    /* \"#utility.yul\":1818:1852   */\n  tag_116\n    /* \"#utility.yul\":1827:1851   */\n  tag_117\n    /* \"#utility.yul\":1845:1850   */\n  dup5\n    /* \"#utility.yul\":1827:1851   */\n  tag_86\n  jump\t// in\ntag_117:\n    /* \"#utility.yul\":1818:1852   */\n  tag_87\n  jump\t// in\ntag_116:\n    /* \"#utility.yul\":1800:1853   */\n  tag_86\n  jump\t// in\ntag_115:\n    /* \"#utility.yul\":1787:1853   */\n  swap1\n  pop\n    /* \"#utility.yul\":1717:1859   */\n  swap2\n  swap1\n  pop\n  jump\t// out\n    /* \"#utility.yul\":1865:1940   */\ntag_89:\n    /* \"#utility.yul\":1908:1911   */\n  0x00\n    /* \"#utility.yul\":1929:1934   */\n  dup2\n    /* \"#utility.yul\":1922:1934   */\n  swap1\n  pop\n    /* \"#utility.yul\":1865:1940   */\n  swap2\n  swap1\n  pop\n  jump\t// out\n    /* \"#utility.yul\":1946:2215   */\ntag_90:\n    /* \"#utility.yul\":2056:2095   */\n  tag_120\n    /* \"#utility.yul\":2087:2094   */\n  dup4\n    /* \"#utility.yul\":2056:2095   */\n  tag_88\n  jump\t// in\ntag_120:\n    /* \"#utility.yul\":2117:2208   */\n  tag_121\n    /* \"#utility.yul\":2166:2207   */\n  tag_122\n    /* \"#utility.yul\":2190:2206   */\n  dup3\n    /* \"#utility.yul\":2166:2207   */\n  tag_89\n  jump\t// in\ntag_122:\n    /* \"#utility.yul\":2158:2164   */\n  dup5\n    /* \"#utility.yul\":2151:2155   */\n  dup5\n    /* \"#utility.yul\":2145:2156   */\n  sload\n    /* \"#utility.yul\":2117:2208   */\n  tag_85\n  jump\t// in\ntag_121:\n    /* \"#utility.yul\":2111:2115   */\n  dup3\n    /* \"#utility.yul\":2104:2209   */\n  sstore\n    /* \"#utility.yul\":2022:2215   */\n  pop\n    /* \"#utility.yul\":1946:2215   */\n  pop\n  pop\n  pop\n  jump\t// out\n    /* \"#utility.yul\":2221:2294   */\ntag_91:\n    /* \"#utility.yul\":2266:2269   */\n  0x00\n    /* \"#utility.yul\":2221:2294   */\n  swap1\n  jump\t// out\n    /* \"#utility.yul\":2300:2489   */\ntag_92:\n    /* \"#utility.yul\":2377:2409   */\n  tag_125\n  tag_91\n  jump\t// in\ntag_125:\n    /* \"#utility.yul\":2418:2483   */\n  tag_126\n    /* \"#utility.yul\":2476:2482   */\n  dup2\n    /* \"#utility.yul\":2468:2474   */\n  dup5\n    /* \"#utility.yul\":2462:2466   */\n  dup5\n    /* \"#utility.yul\":2418:2483   */\n  tag_90\n  jump\t// in\ntag_126:\n    /* \"#utility.yul\":2353:2489   */\n  pop\n    /* \"#utility.yul\":2300:2489   */\n  pop\n  pop\n  jump\t// out\n    /* \"#utility.yul\":2495:2681   */\ntag_93:\n    /* \"#utility.yul\":2555:2675   */\ntag_128:\n    /* \"#utility.yul\":2572:2575   */\n  dup2\n    /* \"#utility.yul\":2565:2570   */\n  dup2\n    /* \"#utility.yul\":2562:2576   */\n  lt\n    /* \"#utility.yul\":2555:2675   */\n  iszero\n  tag_130\n  jumpi\n    /* \"#utility.yul\":2626:2665   */\n  tag_131\n    /* \"#utility.yul\":2663:2664   */\n  0x00\n    /* \"#utility.yul\":2656:2661   */\n  dup3\n    /* \"#utility.yul\":2626:2665   */\n  tag_92\n  jump\t// in\ntag_131:\n    /* \"#utility.yul\":2599:2600   */\n  0x01\n    /* \"#utility.yul\":2592:2597   */\n  dup2\n    /* \"#utility.yul\":2588:2601   */\n  add\n    /* \"#utility.yul\":2579:2601   */\n  swap1\n  pop\n    /* \"#utility.yul\":2555:2675   */\n  jump(tag_128)\ntag_130:\n    /* \"#utility.yul\":2495:2681   */\n  pop\n  pop\n  jump\t// out\n    /* \"#utility.yul\":2687:3230   */\ntag_94:\n    /* \"#utility.yul\":2788:2790   */\n  0x1f\n    /* \"#utility.yul\":2783:2786   */\n  dup3\n    /* \"#utility.yul\":2780:2791   */\n  gt\n    /* \"#utility.yul\":2777:3223   */\n  iszero\n  tag_133\n  jumpi\n    /* \"#utility.yul\":2822:2860   */\n  tag_134\n    /* \"#utility.yul\":2854:2859   */\n  dup2\n    /* \"#utility.yul\":2822:2860   */\n  tag_82\n  jump\t// in\ntag_134:\n    /* \"#utility.yul\":2906:2935   */\n  tag_135\n    /* \"#utility.yul\":2924:2934   */\n  dup5\n    /* \"#utility.yul\":2906:2935   */\n  tag_83\n  jump\t// in\ntag_135:\n    /* \"#utility.yul\":2896:2904   */\n  dup2\n    /* \"#utility.yul\":2892:2936   */\n  add\n    /* \"#utility.yul\":3089:3091   */\n  0x20\n    /* \"#utility.yul\":3077:3087   */\n  dup6\n    /* \"#utility.yul\":3074:3092   */\n  lt\n    /* \"#utility.yul\":3071:3120   */\n  iszero\n  tag_136\n  jumpi\n    /* \"#utility.yul\":3110:3118   */\n  dup2\n    /* \"#utility.yul\":3095:3118   */\n  swap1\n  pop\n    /* \"#utility.yul\":3071:3120   */\ntag_136:\n    /* \"#utility.yul\":3133:3213   */\n  tag_137\n    /* \"#utility.yul\":3189:3211   */\n  tag_138\n    /* \"#utility.yul\":3207:3210   */\n  dup6\n    /* \"#utility.yul\":3189:3211   */\n  tag_83\n  jump\t// in\ntag_138:\n    /* \"#utility.yul\":3179:3187   */\n  dup4\n    /* \"#utility.yul\":3175:3212   */\n  add\n    /* \"#utility.yul\":3162:3173   */\n  dup3\n    /* \"#utility.yul\":3133:3213   */\n  tag_93\n  jump\t// in\ntag_137:\n    /* \"#utility.yul\":2792:3223   */\n  pop\n  pop\n    /* \"#utility.yul\":2777:3223   */\ntag_133:\n    /* \"#utility.yul\":2687:3230   */\n  pop\n  pop\n  pop\n  jump\t// out\n    /* \"#utility.yul\":3236:3353   */\ntag_95:\n    /* \"#utility.yul\":3290:3298   */\n  0x00\n    /* \"#utility.yul\":3340:3345   */\n  dup3\n    /* \"#utility.yul\":3334:3338   */\n  dup3\n    /* \"#utility.yul\":3330:3346   */\n  shr\n    /* \"#utility.yul\":3309:3346   */\n  swap1\n  pop\n    /* \"#utility.yul\":3236:3353   */\n  swap3\n  swap2\n  pop\n  pop\n  jump\t// out\n    /* \"#utility.yul\":3359:3528   */\ntag_96:\n    /* \"#utility.yul\":3403:3409   */\n  0x00\n    /* \"#utility.yul\":3436:3487   */\n  tag_141\n    /* \"#utility.yul\":3484:3485   */\n  0x00\n    /* \"#utility.yul\":3480:3486   */\n  not\n    /* \"#utility.yul\":3472:3477   */\n  dup5\n    /* \"#utility.yul\":3469:3470   */\n  0x08\n    /* \"#utility.yul\":3465:3478   */\n  mul\n    /* \"#utility.yul\":3436:3487   */\n  tag_95\n  jump\t// in\ntag_141:\n    /* \"#utility.yul\":3432:3488   */\n  not\n    /* \"#utility.yul\":3517:3521   */\n  dup1\n    /* \"#utility.yul\":3511:3515   */\n  dup4\n    /* \"#utility.yul\":3507:3522   */\n  and\n    /* \"#utility.yul\":3497:3522   */\n  swap2\n  pop\n    /* \"#utility.yul\":3410:3528   */\n  pop\n    /* \"#utility.yul\":3359:3528   */\n  swap3\n  swap2\n  pop\n  pop\n  jump\t// out\n    /* \"#utility.yul\":3533:3828   */\ntag_97:\n    /* \"#utility.yul\":3609:3613   */\n  0x00\n    /* \"#utility.yul\":3755:3784   */\n  tag_143\n    /* \"#utility.yul\":3780:3783   */\n  dup4\n    /* \"#utility.yul\":3774:3778   */\n  dup4\n    /* \"#utility.yul\":3755:3784   */\n  tag_96\n  jump\t// in\ntag_143:\n    /* \"#utility.yul\":3747:3784   */\n  swap2\n  pop\n    /* \"#utility.yul\":3817:3820   */\n  dup3\n    /* \"#utility.yul\":3814:3815   */\n  0x02\n    /* \"#utility.yul\":3810:3821   */\n  mul\n    /* \"#utility.yul\":3804:3808   */\n  dup3\n    /* \"#utility.yul\":3801:3822   */\n  or\n    /* \"#utility.yul\":3793:3822   */\n  swap1\n  pop\n    /* \"#utility.yul\":3533:3828   */\n  swap3\n  swap2\n  pop\n  pop\n  jump\t// out\n    /* \"#utility.yul\":3833:5228   */\ntag_7:\n    /* \"#utility.yul\":3950:3987   */\n  tag_145\n    /* \"#utility.yul\":3983:3986   */\n  dup3\n    /* \"#utility.yul\":3950:3987   */\n  tag_79\n  jump\t// in\ntag_145:\n    /* \"#utility.yul\":4052:4070   */\n  0xffffffffffffffff\n    /* \"#utility.yul\":4044:4050   */\n  dup2\n    /* \"#utility.yul\":4041:4071   */\n  gt\n    /* \"#utility.yul\":4038:4094   */\n  iszero\n  tag_146\n  jumpi\n    /* \"#utility.yul\":4074:4092   */\n  tag_147\n  tag_80\n  jump\t// in\ntag_147:\n    /* \"#utility.yul\":4038:4094   */\ntag_146:\n    /* \"#utility.yul\":4118:4156   */\n  tag_148\n    /* \"#utility.yul\":4150:4154   */\n  dup3\n    /* \"#utility.yul\":4144:4155   */\n  sload\n    /* \"#utility.yul\":4118:4156   */\n  tag_72\n  jump\t// in\ntag_148:\n    /* \"#utility.yul\":4203:4270   */\n  tag_149\n    /* \"#utility.yul\":4263:4269   */\n  dup3\n    /* \"#utility.yul\":4255:4261   */\n  dup3\n    /* \"#utility.yul\":4249:4253   */\n  dup6\n    /* \"#utility.yul\":4203:4270   */\n  tag_94\n  jump\t// in\ntag_149:\n    /* \"#utility.yul\":4297:4298   */\n  0x00\n    /* \"#utility.yul\":4321:4325   */\n  0x20\n    /* \"#utility.yul\":4308:4325   */\n  swap1\n  pop\n    /* \"#utility.yul\":4353:4355   */\n  0x1f\n    /* \"#utility.yul\":4345:4351   */\n  dup4\n    /* \"#utility.yul\":4342:4356   */\n  gt\n    /* \"#utility.yul\":4370:4371   */\n  0x01\n    /* \"#utility.yul\":4365:4983   */\n  dup2\n  eq\n  tag_151\n  jumpi\n    /* \"#utility.yul\":5027:5028   */\n  0x00\n    /* \"#utility.yul\":5044:5050   */\n  dup5\n    /* \"#utility.yul\":5041:5118   */\n  iszero\n  tag_152\n  jumpi\n    /* \"#utility.yul\":5093:5102   */\n  dup3\n    /* \"#utility.yul\":5088:5091   */\n  dup8\n    /* \"#utility.yul\":5084:5103   */\n  add\n    /* \"#utility.yul\":5078:5104   */\n  mload\n    /* \"#utility.yul\":5069:5104   */\n  swap1\n  pop\n    /* \"#utility.yul\":5041:5118   */\ntag_152:\n    /* \"#utility.yul\":5144:5211   */\n  tag_153\n    /* \"#utility.yul\":5204:5210   */\n  dup6\n    /* \"#utility.yul\":5197:5202   */\n  dup3\n    /* \"#utility.yul\":5144:5211   */\n  tag_97\n  jump\t// in\ntag_153:\n    /* \"#utility.yul\":5138:5142   */\n  dup7\n    /* \"#utility.yul\":5131:5212   */\n  sstore\n    /* \"#utility.yul\":5000:5222   */\n  pop\n    /* \"#utility.yul\":4335:5222   */\n  jump(tag_150)\n    /* \"#utility.yul\":4365:4983   */\ntag_151:\n    /* \"#utility.yul\":4417:4421   */\n  0x1f\n    /* \"#utility.yul\":4413:4422   */\n  not\n    /* \"#utility.yul\":4405:4411   */\n  dup5\n    /* \"#utility.yul\":4401:4423   */\n  and\n    /* \"#utility.yul\":4451:4488   */\n  tag_154\n    /* \"#utility.yul\":4483:4487   */\n  dup7\n    /* \"#utility.yul\":4451:4488   */\n  tag_82\n  jump\t// in\ntag_154:\n    /* \"#utility.yul\":4510:4511   */\n  0x00\n    /* \"#utility.yul\":4524:4732   */\ntag_155:\n    /* \"#utility.yul\":4538:4545   */\n  dup3\n    /* \"#utility.yul\":4535:4536   */\n  dup2\n    /* \"#utility.yul\":4532:4546   */\n  lt\n    /* \"#utility.yul\":4524:4732   */\n  iszero\n  tag_157\n  jumpi\n    /* \"#utility.yul\":4617:4626   */\n  dup5\n    /* \"#utility.yul\":4612:4615   */\n  dup10\n    /* \"#utility.yul\":4608:4627   */\n  add\n    /* \"#utility.yul\":4602:4628   */\n  mload\n    /* \"#utility.yul\":4594:4600   */\n  dup3\n    /* \"#utility.yul\":4587:4629   */\n  sstore\n    /* \"#utility.yul\":4668:4669   */\n  0x01\n    /* \"#utility.yul\":4660:4666   */\n  dup3\n    /* \"#utility.yul\":4656:4670   */\n  add\n    /* \"#utility.yul\":4646:4670   */\n  swap2\n  pop\n    /* \"#utility.yul\":4715:4717   */\n  0x20\n    /* \"#utility.yul\":4704:4713   */\n  dup6\n    /* \"#utility.yul\":4700:4718   */\n  add\n    /* \"#utility.yul\":4687:4718   */\n  swap5\n  pop\n    /* \"#utility.yul\":4561:4565   */\n  0x20\n    /* \"#utility.yul\":4558:4559   */\n  dup2\n    /* \"#utility.yul\":4554:4566   */\n  add\n    /* \"#utility.yul\":4549:4566   */\n  swap1\n  pop\n    /* \"#utility.yul\":4524:4732   */\n  jump(tag_155)\ntag_157:\n    /* \"#utility.yul\":4760:4766   */\n  dup7\n    /* \"#utility.yul\":4751:4758   */\n  dup4\n    /* \"#utility.yul\":4748:4767   */\n  lt\n    /* \"#utility.yul\":4745:4924   */\n  iszero\n  tag_158\n  jumpi\n    /* \"#utility.yul\":4818:4827   */\n  dup5\n    /* \"#utility.yul\":4813:4816   */\n  dup10\n    /* \"#utility.yul\":4809:4828   */\n  add\n    /* \"#utility.yul\":4803:4829   */\n  mload\n    /* \"#utility.yul\":4861:4909   */\n  tag_159\n    /* \"#utility.yul\":4903:4907   */\n  0x1f\n    /* \"#utility.yul\":4895:4901   */\n  dup10\n    /* \"#utility.yul\":4891:4908   */\n  and\n    /* \"#utility.yul\":4880:4889   */\n  dup3\n    /* \"#utility.yul\":4861:4909   */\n  tag_96\n  jump\t// in\ntag_159:\n    /* \"#utility.yul\":4853:4859   */\n  dup4\n    /* \"#utility.yul\":4846:4910   */\n  sstore\n    /* \"#utility.yul\":4768:4924   */\n  pop\n    /* \"#utility.yul\":4745:4924   */\ntag_158:\n    /* \"#utility.yul\":4970:4971   */\n  0x01\n    /* \"#utility.yul\":4966:4967   */\n  0x02\n    /* \"#utility.yul\":4958:4964   */\n  dup9\n    /* \"#utility.yul\":4954:4968   */\n  mul\n    /* \"#utility.yul\":4950:4972   */\n  add\n    /* \"#utility.yul\":4944:4948   */\n  dup9\n    /* \"#utility.yul\":4937:4973   */\n  sstore\n    /* \"#utility.yul\":4372:4983   */\n  pop\n  pop\n  pop\n    /* \"#utility.yul\":4335:5222   */\ntag_150:\n  pop\n    /* \"#utility.yul\":3925:5228   */\n  pop\n  pop\n  pop\n    /* \"#utility.yul\":3833:5228   */\n  pop\n  pop\n  jump\t// out\n    /* \"contracts/HamPepeTraits1.sol\":61:3424  contract HamPepeTraits1 {... */\ntag_60:\n  dataSize(sub_0)\n  dup1\n  dataOffset(sub_0)\n  0x00\n  codecopy\n  0x00\n  return\nstop\n\nsub_0: assembly {\n        /* \"contracts/HamPepeTraits1.sol\":61:3424  contract HamPepeTraits1 {... */\n      mstore(0x40, 0x80)\n      callvalue\n      dup1\n      iszero\n      tag_1\n      jumpi\n      0x00\n      dup1\n      revert\n    tag_1:\n      pop\n      jumpi(tag_2, lt(calldatasize, 0x04))\n      shr(0xe0, calldataload(0x00))\n      dup1\n      0xc4d30bfa\n      gt\n      tag_10\n      jumpi\n      dup1\n      0xc4d30bfa\n      eq\n      tag_6\n      jumpi\n      dup1\n      0xc76ab940\n      eq\n      tag_7\n      jumpi\n      dup1\n      0xd2571f88\n      eq\n      tag_8\n      jumpi\n      dup1\n      0xe1d916f7\n      eq\n      tag_9\n      jumpi\n      jump(tag_2)\n    tag_10:\n      dup1\n      0x4337932d\n      eq\n      tag_3\n      jumpi\n      dup1\n      0x4c9c05ea\n      eq\n      tag_4\n      jumpi\n      dup1\n      0x98e4f581\n      eq\n      tag_5\n      jumpi\n    tag_2:\n      0x00\n      dup1\n      revert\n        /* \"contracts/HamPepeTraits1.sol\":940:1043  function getPants(uint256 i) public view returns (string memory) {... */\n    tag_3:\n      tag_11\n      0x04\n      dup1\n      calldatasize\n      sub\n      dup2\n      add\n      swap1\n      tag_12\n      swap2\n      swap1\n      tag_13\n      jump\t// in\n    tag_12:\n      tag_14\n      jump\t// in\n    tag_11:\n      mload(0x40)\n      tag_15\n      swap2\n      swap1\n      tag_16\n      jump\t// in\n    tag_15:\n      mload(0x40)\n      dup1\n      swap2\n      sub\n      swap1\n      return\n        /* \"contracts/HamPepeTraits1.sol\":1051:1154  function getShirt(uint256 i) public view returns (string memory) {... */\n    tag_4:\n      tag_17\n      0x04\n      dup1\n      calldatasize\n      sub\n      dup2\n      add\n      swap1\n      tag_18\n      swap2\n      swap1\n      tag_13\n      jump\t// in\n    tag_18:\n      tag_19\n      jump\t// in\n    tag_17:\n      mload(0x40)\n      tag_20\n      swap2\n      swap1\n      tag_16\n      jump\t// in\n    tag_20:\n      mload(0x40)\n      dup1\n      swap2\n      sub\n      swap1\n      return\n        /* \"contracts/HamPepeTraits1.sol\":831:932  function getSkin(uint256 i) public view returns (string memory) {... */\n    tag_5:\n      tag_21\n      0x04\n      dup1\n      calldatasize\n      sub\n      dup2\n      add\n      swap1\n      tag_22\n      swap2\n      swap1\n      tag_13\n      jump\t// in\n    tag_22:\n      tag_23\n      jump\t// in\n    tag_21:\n      mload(0x40)\n      tag_24\n      swap2\n      swap1\n      tag_16\n      jump\t// in\n    tag_24:\n      mload(0x40)\n      dup1\n      swap2\n      sub\n      swap1\n      return\n        /* \"contracts/HamPepeTraits1.sol\":1162:1263  function getEyes(uint256 i) public view returns (string memory) {... */\n    tag_6:\n      tag_25\n      0x04\n      dup1\n      calldatasize\n      sub\n      dup2\n      add\n      swap1\n      tag_26\n      swap2\n      swap1\n      tag_13\n      jump\t// in\n    tag_26:\n      tag_27\n      jump\t// in\n    tag_25:\n      mload(0x40)\n      tag_28\n      swap2\n      swap1\n      tag_16\n      jump\t// in\n    tag_28:\n      mload(0x40)\n      dup1\n      swap2\n      sub\n      swap1\n      return\n        /* \"contracts/HamPepeTraits1.sol\":464:759  string [6] public colours =[... */\n    tag_7:\n      tag_29\n      0x04\n      dup1\n      calldatasize\n      sub\n      dup2\n      add\n      swap1\n      tag_30\n      swap2\n      swap1\n      tag_13\n      jump\t// in\n    tag_30:\n      tag_31\n      jump\t// in\n    tag_29:\n      mload(0x40)\n      tag_32\n      swap2\n      swap1\n      tag_16\n      jump\t// in\n    tag_32:\n      mload(0x40)\n      dup1\n      swap2\n      sub\n      swap1\n      return\n        /* \"contracts/HamPepeTraits1.sol\":1271:1370  function getHat(uint256 i) public view returns (string memory) {... */\n    tag_8:\n      tag_33\n      0x04\n      dup1\n      calldatasize\n      sub\n      dup2\n      add\n      swap1\n      tag_34\n      swap2\n      swap1\n      tag_13\n      jump\t// in\n    tag_34:\n      tag_35\n      jump\t// in\n    tag_33:\n      mload(0x40)\n      tag_36\n      swap2\n      swap1\n      tag_16\n      jump\t// in\n    tag_36:\n      mload(0x40)\n      dup1\n      swap2\n      sub\n      swap1\n      return\n        /* \"contracts/HamPepeTraits1.sol\":1378:1485  function getSpecial(uint256 i) public view returns (string memory) {... */\n    tag_9:\n      tag_37\n      0x04\n      dup1\n      calldatasize\n      sub\n      dup2\n      add\n      swap1\n      tag_38\n      swap2\n      swap1\n      tag_13\n      jump\t// in\n    tag_38:\n      tag_39\n      jump\t// in\n    tag_37:\n      mload(0x40)\n      tag_40\n      swap2\n      swap1\n      tag_16\n      jump\t// in\n    tag_40:\n      mload(0x40)\n      dup1\n      swap2\n      sub\n      swap1\n      return\n        /* \"contracts/HamPepeTraits1.sol\":940:1043  function getPants(uint256 i) public view returns (string memory) {... */\n    tag_14:\n        /* \"contracts/HamPepeTraits1.sol\":990:1003  string memory */\n      0x60\n        /* \"contracts/HamPepeTraits1.sol\":1023:1028  pants */\n      0x01\n        /* \"contracts/HamPepeTraits1.sol\":1023:1032  pants.map */\n      0x00\n      add\n        /* \"contracts/HamPepeTraits1.sol\":1023:1035  pants.map[i] */\n      0x00\n        /* \"contracts/HamPepeTraits1.sol\":1033:1034  i */\n      dup4\n        /* \"contracts/HamPepeTraits1.sol\":1023:1035  pants.map[i] */\n      dup2\n      mstore\n      0x20\n      add\n      swap1\n      dup2\n      mstore\n      0x20\n      add\n      0x00\n      keccak256\n        /* \"contracts/HamPepeTraits1.sol\":1016:1035  return pants.map[i] */\n      dup1\n      sload\n      tag_42\n      swap1\n      tag_43\n      jump\t// in\n    tag_42:\n      dup1\n      0x1f\n      add\n      0x20\n      dup1\n      swap2\n      div\n      mul\n      0x20\n      add\n      mload(0x40)\n      swap1\n      dup2\n      add\n      0x40\n      mstore\n      dup1\n      swap3\n      swap2\n      swap1\n      dup2\n      dup2\n      mstore\n      0x20\n      add\n      dup3\n      dup1\n      sload\n      tag_44\n      swap1\n      tag_43\n      jump\t// in\n    tag_44:\n      dup1\n      iszero\n      tag_45\n      jumpi\n      dup1\n      0x1f\n      lt\n      tag_46\n      jumpi\n      0x0100\n      dup1\n      dup4\n      sload\n      div\n      mul\n      dup4\n      mstore\n      swap2\n      0x20\n      add\n      swap2\n      jump(tag_45)\n    tag_46:\n      dup3\n      add\n      swap2\n      swap1\n      0x00\n      mstore\n      keccak256(0x00, 0x20)\n      swap1\n    tag_47:\n      dup2\n      sload\n      dup2\n      mstore\n      swap1\n      0x01\n      add\n      swap1\n      0x20\n      add\n      dup1\n      dup4\n      gt\n      tag_47\n      jumpi\n      dup3\n      swap1\n      sub\n      0x1f\n      and\n      dup3\n      add\n      swap2\n    tag_45:\n      pop\n      pop\n      pop\n      pop\n      pop\n      swap1\n      pop\n        /* \"contracts/HamPepeTraits1.sol\":940:1043  function getPants(uint256 i) public view returns (string memory) {... */\n      swap2\n      swap1\n      pop\n      jump\t// out\n        /* \"contracts/HamPepeTraits1.sol\":1051:1154  function getShirt(uint256 i) public view returns (string memory) {... */\n    tag_19:\n        /* \"contracts/HamPepeTraits1.sol\":1101:1114  string memory */\n      0x60\n        /* \"contracts/HamPepeTraits1.sol\":1134:1139  shirt */\n      0x02\n        /* \"contracts/HamPepeTraits1.sol\":1134:1143  shirt.map */\n      0x00\n      add\n        /* \"contracts/HamPepeTraits1.sol\":1134:1146  shirt.map[i] */\n      0x00\n        /* \"contracts/HamPepeTraits1.sol\":1144:1145  i */\n      dup4\n        /* \"contracts/HamPepeTraits1.sol\":1134:1146  shirt.map[i] */\n      dup2\n      mstore\n      0x20\n      add\n      swap1\n      dup2\n      mstore\n      0x20\n      add\n      0x00\n      keccak256\n        /* \"contracts/HamPepeTraits1.sol\":1127:1146  return shirt.map[i] */\n      dup1\n      sload\n      tag_49\n      swap1\n      tag_43\n      jump\t// in\n    tag_49:\n      dup1\n      0x1f\n      add\n      0x20\n      dup1\n      swap2\n      div\n      mul\n      0x20\n      add\n      mload(0x40)\n      swap1\n      dup2\n      add\n      0x40\n      mstore\n      dup1\n      swap3\n      swap2\n      swap1\n      dup2\n      dup2\n      mstore\n      0x20\n      add\n      dup3\n      dup1\n      sload\n      tag_50\n      swap1\n      tag_43\n      jump\t// in\n    tag_50:\n      dup1\n      iszero\n      tag_51\n      jumpi\n      dup1\n      0x1f\n      lt\n      tag_52\n      jumpi\n      0x0100\n      dup1\n      dup4\n      sload\n      div\n      mul\n      dup4\n      mstore\n      swap2\n      0x20\n      add\n      swap2\n      jump(tag_51)\n    tag_52:\n      dup3\n      add\n      swap2\n      swap1\n      0x00\n      mstore\n      keccak256(0x00, 0x20)\n      swap1\n    tag_53:\n      dup2\n      sload\n      dup2\n      mstore\n      swap1\n      0x01\n      add\n      swap1\n      0x20\n      add\n      dup1\n      dup4\n      gt\n      tag_53\n      jumpi\n      dup3\n      swap1\n      sub\n      0x1f\n      and\n      dup3\n      add\n      swap2\n    tag_51:\n      pop\n      pop\n      pop\n      pop\n      pop\n      swap1\n      pop\n        /* \"contracts/HamPepeTraits1.sol\":1051:1154  function getShirt(uint256 i) public view returns (string memory) {... */\n      swap2\n      swap1\n      pop\n      jump\t// out\n        /* \"contracts/HamPepeTraits1.sol\":831:932  function getSkin(uint256 i) public view returns (string memory) {... */\n    tag_23:\n        /* \"contracts/HamPepeTraits1.sol\":880:893  string memory */\n      0x60\n        /* \"contracts/HamPepeTraits1.sol\":913:917  skin */\n      0x00\n        /* \"contracts/HamPepeTraits1.sol\":913:921  skin.map */\n      dup1\n      add\n        /* \"contracts/HamPepeTraits1.sol\":913:924  skin.map[i] */\n      0x00\n        /* \"contracts/HamPepeTraits1.sol\":922:923  i */\n      dup4\n        /* \"contracts/HamPepeTraits1.sol\":913:924  skin.map[i] */\n      dup2\n      mstore\n      0x20\n      add\n      swap1\n      dup2\n      mstore\n      0x20\n      add\n      0x00\n      keccak256\n        /* \"contracts/HamPepeTraits1.sol\":906:924  return skin.map[i] */\n      dup1\n      sload\n      tag_55\n      swap1\n      tag_43\n      jump\t// in\n    tag_55:\n      dup1\n      0x1f\n      add\n      0x20\n      dup1\n      swap2\n      div\n      mul\n      0x20\n      add\n      mload(0x40)\n      swap1\n      dup2\n      add\n      0x40\n      mstore\n      dup1\n      swap3\n      swap2\n      swap1\n      dup2\n      dup2\n      mstore\n      0x20\n      add\n      dup3\n      dup1\n      sload\n      tag_56\n      swap1\n      tag_43\n      jump\t// in\n    tag_56:\n      dup1\n      iszero\n      tag_57\n      jumpi\n      dup1\n      0x1f\n      lt\n      tag_58\n      jumpi\n      0x0100\n      dup1\n      dup4\n      sload\n      div\n      mul\n      dup4\n      mstore\n      swap2\n      0x20\n      add\n      swap2\n      jump(tag_57)\n    tag_58:\n      dup3\n      add\n      swap2\n      swap1\n      0x00\n      mstore\n      keccak256(0x00, 0x20)\n      swap1\n    tag_59:\n      dup2\n      sload\n      dup2\n      mstore\n      swap1\n      0x01\n      add\n      swap1\n      0x20\n      add\n      dup1\n      dup4\n      gt\n      tag_59\n      jumpi\n      dup3\n      swap1\n      sub\n      0x1f\n      and\n      dup3\n      add\n      swap2\n    tag_57:\n      pop\n      pop\n      pop\n      pop\n      pop\n      swap1\n      pop\n        /* \"contracts/HamPepeTraits1.sol\":831:932  function getSkin(uint256 i) public view returns (string memory) {... */\n      swap2\n      swap1\n      pop\n      jump\t// out\n        /* \"contracts/HamPepeTraits1.sol\":1162:1263  function getEyes(uint256 i) public view returns (string memory) {... */\n    tag_27:\n        /* \"contracts/HamPepeTraits1.sol\":1211:1224  string memory */\n      0x60\n        /* \"contracts/HamPepeTraits1.sol\":1244:1248  eyes */\n      0x03\n        /* \"contracts/HamPepeTraits1.sol\":1244:1252  eyes.map */\n      0x00\n      add\n        /* \"contracts/HamPepeTraits1.sol\":1244:1255  eyes.map[i] */\n      0x00\n        /* \"contracts/HamPepeTraits1.sol\":1253:1254  i */\n      dup4\n        /* \"contracts/HamPepeTraits1.sol\":1244:1255  eyes.map[i] */\n      dup2\n      mstore\n      0x20\n      add\n      swap1\n      dup2\n      mstore\n      0x20\n      add\n      0x00\n      keccak256\n        /* \"contracts/HamPepeTraits1.sol\":1237:1255  return eyes.map[i] */\n      dup1\n      sload\n      tag_61\n      swap1\n      tag_43\n      jump\t// in\n    tag_61:\n      dup1\n      0x1f\n      add\n      0x20\n      dup1\n      swap2\n      div\n      mul\n      0x20\n      add\n      mload(0x40)\n      swap1\n      dup2\n      add\n      0x40\n      mstore\n      dup1\n      swap3\n      swap2\n      swap1\n      dup2\n      dup2\n      mstore\n      0x20\n      add\n      dup3\n      dup1\n      sload\n      tag_62\n      swap1\n      tag_43\n      jump\t// in\n    tag_62:\n      dup1\n      iszero\n      tag_63\n      jumpi\n      dup1\n      0x1f\n      lt\n      tag_64\n      jumpi\n      0x0100\n      dup1\n      dup4\n      sload\n      div\n      mul\n      dup4\n      mstore\n      swap2\n      0x20\n      add\n      swap2\n      jump(tag_63)\n    tag_64:\n      dup3\n      add\n      swap2\n      swap1\n      0x00\n      mstore\n      keccak256(0x00, 0x20)\n      swap1\n    tag_65:\n      dup2\n      sload\n      dup2\n      mstore\n      swap1\n      0x01\n      add\n      swap1\n      0x20\n      add\n      dup1\n      dup4\n      gt\n      tag_65\n      jumpi\n      dup3\n      swap1\n      sub\n      0x1f\n      and\n      dup3\n      add\n      swap2\n    tag_63:\n      pop\n      pop\n      pop\n      pop\n      pop\n      swap1\n      pop\n        /* \"contracts/HamPepeTraits1.sol\":1162:1263  function getEyes(uint256 i) public view returns (string memory) {... */\n      swap2\n      swap1\n      pop\n      jump\t// out\n        /* \"contracts/HamPepeTraits1.sol\":464:759  string [6] public colours =[... */\n    tag_31:\n      0x06\n      dup2\n      0x06\n      dup2\n      lt\n      tag_66\n      jumpi\n      0x00\n      dup1\n      revert\n    tag_66:\n      add\n      0x00\n      swap2\n      pop\n      swap1\n      pop\n      dup1\n      sload\n      tag_68\n      swap1\n      tag_43\n      jump\t// in\n    tag_68:\n      dup1\n      0x1f\n      add\n      0x20\n      dup1\n      swap2\n      div\n      mul\n      0x20\n      add\n      mload(0x40)\n      swap1\n      dup2\n      add\n      0x40\n      mstore\n      dup1\n      swap3\n      swap2\n      swap1\n      dup2\n      dup2\n      mstore\n      0x20\n      add\n      dup3\n      dup1\n      sload\n      tag_69\n      swap1\n      tag_43\n      jump\t// in\n    tag_69:\n      dup1\n      iszero\n      tag_70\n      jumpi\n      dup1\n      0x1f\n      lt\n      tag_71\n      jumpi\n      0x0100\n      dup1\n      dup4\n      sload\n      div\n      mul\n      dup4\n      mstore\n      swap2\n      0x20\n      add\n      swap2\n      jump(tag_70)\n    tag_71:\n      dup3\n      add\n      swap2\n      swap1\n      0x00\n      mstore\n      keccak256(0x00, 0x20)\n      swap1\n    tag_72:\n      dup2\n      sload\n      dup2\n      mstore\n      swap1\n      0x01\n      add\n      swap1\n      0x20\n      add\n      dup1\n      dup4\n      gt\n      tag_72\n      jumpi\n      dup3\n      swap1\n      sub\n      0x1f\n      and\n      dup3\n      add\n      swap2\n    tag_70:\n      pop\n      pop\n      pop\n      pop\n      pop\n      dup2\n      jump\t// out\n        /* \"contracts/HamPepeTraits1.sol\":1271:1370  function getHat(uint256 i) public view returns (string memory) {... */\n    tag_35:\n        /* \"contracts/HamPepeTraits1.sol\":1319:1332  string memory */\n      0x60\n        /* \"contracts/HamPepeTraits1.sol\":1352:1355  hat */\n      0x04\n        /* \"contracts/HamPepeTraits1.sol\":1352:1359  hat.map */\n      0x00\n      add\n        /* \"contracts/HamPepeTraits1.sol\":1352:1362  hat.map[i] */\n      0x00\n        /* \"contracts/HamPepeTraits1.sol\":1360:1361  i */\n      dup4\n        /* \"contracts/HamPepeTraits1.sol\":1352:1362  hat.map[i] */\n      dup2\n      mstore\n      0x20\n      add\n      swap1\n      dup2\n      mstore\n      0x20\n      add\n      0x00\n      keccak256\n        /* \"contracts/HamPepeTraits1.sol\":1345:1362  return hat.map[i] */\n      dup1\n      sload\n      tag_74\n      swap1\n      tag_43\n      jump\t// in\n    tag_74:\n      dup1\n      0x1f\n      add\n      0x20\n      dup1\n      swap2\n      div\n      mul\n      0x20\n      add\n      mload(0x40)\n      swap1\n      dup2\n      add\n      0x40\n      mstore\n      dup1\n      swap3\n      swap2\n      swap1\n      dup2\n      dup2\n      mstore\n      0x20\n      add\n      dup3\n      dup1\n      sload\n      tag_75\n      swap1\n      tag_43\n      jump\t// in\n    tag_75:\n      dup1\n      iszero\n      tag_76\n      jumpi\n      dup1\n      0x1f\n      lt\n      tag_77\n      jumpi\n      0x0100\n      dup1\n      dup4\n      sload\n      div\n      mul\n      dup4\n      mstore\n      swap2\n      0x20\n      add\n      swap2\n      jump(tag_76)\n    tag_77:\n      dup3\n      add\n      swap2\n      swap1\n      0x00\n      mstore\n      keccak256(0x00, 0x20)\n      swap1\n    tag_78:\n      dup2\n      sload\n      dup2\n      mstore\n      swap1\n      0x01\n      add\n      swap1\n      0x20\n      add\n      dup1\n      dup4\n      gt\n      tag_78\n      jumpi\n      dup3\n      swap1\n      sub\n      0x1f\n      and\n      dup3\n      add\n      swap2\n    tag_76:\n      pop\n      pop\n      pop\n      pop\n      pop\n      swap1\n      pop\n        /* \"contracts/HamPepeTraits1.sol\":1271:1370  function getHat(uint256 i) public view returns (string memory) {... */\n      swap2\n      swap1\n      pop\n      jump\t// out\n        /* \"contracts/HamPepeTraits1.sol\":1378:1485  function getSpecial(uint256 i) public view returns (string memory) {... */\n    tag_39:\n        /* \"contracts/HamPepeTraits1.sol\":1430:1443  string memory */\n      0x60\n        /* \"contracts/HamPepeTraits1.sol\":1463:1470  special */\n      0x05\n        /* \"contracts/HamPepeTraits1.sol\":1463:1474  special.map */\n      0x00\n      add\n        /* \"contracts/HamPepeTraits1.sol\":1463:1477  special.map[i] */\n      0x00\n        /* \"contracts/HamPepeTraits1.sol\":1475:1476  i */\n      dup4\n        /* \"contracts/HamPepeTraits1.sol\":1463:1477  special.map[i] */\n      dup2\n      mstore\n      0x20\n      add\n      swap1\n      dup2\n      mstore\n      0x20\n      add\n      0x00\n      keccak256\n        /* \"contracts/HamPepeTraits1.sol\":1456:1477  return special.map[i] */\n      dup1\n      sload\n      tag_80\n      swap1\n      tag_43\n      jump\t// in\n    tag_80:\n      dup1\n      0x1f\n      add\n      0x20\n      dup1\n      swap2\n      div\n      mul\n      0x20\n      add\n      mload(0x40)\n      swap1\n      dup2\n      add\n      0x40\n      mstore\n      dup1\n      swap3\n      swap2\n      swap1\n      dup2\n      dup2\n      mstore\n      0x20\n      add\n      dup3\n      dup1\n      sload\n      tag_81\n      swap1\n      tag_43\n      jump\t// in\n    tag_81:\n      dup1\n      iszero\n      tag_82\n      jumpi\n      dup1\n      0x1f\n      lt\n      tag_83\n      jumpi\n      0x0100\n      dup1\n      dup4\n      sload\n      div\n      mul\n      dup4\n      mstore\n      swap2\n      0x20\n      add\n      swap2\n      jump(tag_82)\n    tag_83:\n      dup3\n      add\n      swap2\n      swap1\n      0x00\n      mstore\n      keccak256(0x00, 0x20)\n      swap1\n    tag_84:\n      dup2\n      sload\n      dup2\n      mstore\n      swap1\n      0x01\n      add\n      swap1\n      0x20\n      add\n      dup1\n      dup4\n      gt\n      tag_84\n      jumpi\n      dup3\n      swap1\n      sub\n      0x1f\n      and\n      dup3\n      add\n      swap2\n    tag_82:\n      pop\n      pop\n      pop\n      pop\n      pop\n      swap1\n      pop\n        /* \"contracts/HamPepeTraits1.sol\":1378:1485  function getSpecial(uint256 i) public view returns (string memory) {... */\n      swap2\n      swap1\n      pop\n      jump\t// out\n        /* \"#utility.yul\":88:205   */\n    tag_86:\n        /* \"#utility.yul\":197:198   */\n      0x00\n        /* \"#utility.yul\":194:195   */\n      dup1\n        /* \"#utility.yul\":187:199   */\n      revert\n        /* \"#utility.yul\":334:411   */\n    tag_88:\n        /* \"#utility.yul\":371:378   */\n      0x00\n        /* \"#utility.yul\":400:405   */\n      dup2\n        /* \"#utility.yul\":389:405   */\n      swap1\n      pop\n        /* \"#utility.yul\":334:411   */\n      swap2\n      swap1\n      pop\n      jump\t// out\n        /* \"#utility.yul\":417:539   */\n    tag_89:\n        /* \"#utility.yul\":490:514   */\n      tag_103\n        /* \"#utility.yul\":508:513   */\n      dup2\n        /* \"#utility.yul\":490:514   */\n      tag_88\n      jump\t// in\n    tag_103:\n        /* \"#utility.yul\":483:488   */\n      dup2\n        /* \"#utility.yul\":480:515   */\n      eq\n        /* \"#utility.yul\":470:533   */\n      tag_104\n      jumpi\n        /* \"#utility.yul\":529:530   */\n      0x00\n        /* \"#utility.yul\":526:527   */\n      dup1\n        /* \"#utility.yul\":519:531   */\n      revert\n        /* \"#utility.yul\":470:533   */\n    tag_104:\n        /* \"#utility.yul\":417:539   */\n      pop\n      jump\t// out\n        /* \"#utility.yul\":545:684   */\n    tag_90:\n        /* \"#utility.yul\":591:596   */\n      0x00\n        /* \"#utility.yul\":629:635   */\n      dup2\n        /* \"#utility.yul\":616:636   */\n      calldataload\n        /* \"#utility.yul\":607:636   */\n      swap1\n      pop\n        /* \"#utility.yul\":645:678   */\n      tag_106\n        /* \"#utility.yul\":672:677   */\n      dup2\n        /* \"#utility.yul\":645:678   */\n      tag_89\n      jump\t// in\n    tag_106:\n        /* \"#utility.yul\":545:684   */\n      swap3\n      swap2\n      pop\n      pop\n      jump\t// out\n        /* \"#utility.yul\":690:1019   */\n    tag_13:\n        /* \"#utility.yul\":749:755   */\n      0x00\n        /* \"#utility.yul\":798:800   */\n      0x20\n        /* \"#utility.yul\":786:795   */\n      dup3\n        /* \"#utility.yul\":777:784   */\n      dup5\n        /* \"#utility.yul\":773:796   */\n      sub\n        /* \"#utility.yul\":769:801   */\n      slt\n        /* \"#utility.yul\":766:885   */\n      iszero\n      tag_108\n      jumpi\n        /* \"#utility.yul\":804:883   */\n      tag_109\n      tag_86\n      jump\t// in\n    tag_109:\n        /* \"#utility.yul\":766:885   */\n    tag_108:\n        /* \"#utility.yul\":924:925   */\n      0x00\n        /* \"#utility.yul\":949:1002   */\n      tag_110\n        /* \"#utility.yul\":994:1001   */\n      dup5\n        /* \"#utility.yul\":985:991   */\n      dup3\n        /* \"#utility.yul\":974:983   */\n      dup6\n        /* \"#utility.yul\":970:992   */\n      add\n        /* \"#utility.yul\":949:1002   */\n      tag_90\n      jump\t// in\n    tag_110:\n        /* \"#utility.yul\":939:1002   */\n      swap2\n      pop\n        /* \"#utility.yul\":895:1012   */\n      pop\n        /* \"#utility.yul\":690:1019   */\n      swap3\n      swap2\n      pop\n      pop\n      jump\t// out\n        /* \"#utility.yul\":1025:1124   */\n    tag_91:\n        /* \"#utility.yul\":1077:1083   */\n      0x00\n        /* \"#utility.yul\":1111:1116   */\n      dup2\n        /* \"#utility.yul\":1105:1117   */\n      mload\n        /* \"#utility.yul\":1095:1117   */\n      swap1\n      pop\n        /* \"#utility.yul\":1025:1124   */\n      swap2\n      swap1\n      pop\n      jump\t// out\n        /* \"#utility.yul\":1130:1299   */\n    tag_92:\n        /* \"#utility.yul\":1214:1225   */\n      0x00\n        /* \"#utility.yul\":1248:1254   */\n      dup3\n        /* \"#utility.yul\":1243:1246   */\n      dup3\n        /* \"#utility.yul\":1236:1255   */\n      mstore\n        /* \"#utility.yul\":1288:1292   */\n      0x20\n        /* \"#utility.yul\":1283:1286   */\n      dup3\n        /* \"#utility.yul\":1279:1293   */\n      add\n        /* \"#utility.yul\":1264:1293   */\n      swap1\n      pop\n        /* \"#utility.yul\":1130:1299   */\n      swap3\n      swap2\n      pop\n      pop\n      jump\t// out\n        /* \"#utility.yul\":1305:1444   */\n    tag_93:\n        /* \"#utility.yul\":1394:1400   */\n      dup3\n        /* \"#utility.yul\":1389:1392   */\n      dup2\n        /* \"#utility.yul\":1384:1387   */\n      dup4\n        /* \"#utility.yul\":1378:1401   */\n      mcopy\n        /* \"#utility.yul\":1435:1436   */\n      0x00\n        /* \"#utility.yul\":1426:1432   */\n      dup4\n        /* \"#utility.yul\":1421:1424   */\n      dup4\n        /* \"#utility.yul\":1417:1433   */\n      add\n        /* \"#utility.yul\":1410:1437   */\n      mstore\n        /* \"#utility.yul\":1305:1444   */\n      pop\n      pop\n      pop\n      jump\t// out\n        /* \"#utility.yul\":1450:1552   */\n    tag_94:\n        /* \"#utility.yul\":1491:1497   */\n      0x00\n        /* \"#utility.yul\":1542:1544   */\n      0x1f\n        /* \"#utility.yul\":1538:1545   */\n      not\n        /* \"#utility.yul\":1533:1535   */\n      0x1f\n        /* \"#utility.yul\":1526:1531   */\n      dup4\n        /* \"#utility.yul\":1522:1536   */\n      add\n        /* \"#utility.yul\":1518:1546   */\n      and\n        /* \"#utility.yul\":1508:1546   */\n      swap1\n      pop\n        /* \"#utility.yul\":1450:1552   */\n      swap2\n      swap1\n      pop\n      jump\t// out\n        /* \"#utility.yul\":1558:1935   */\n    tag_95:\n        /* \"#utility.yul\":1646:1649   */\n      0x00\n        /* \"#utility.yul\":1674:1713   */\n      tag_116\n        /* \"#utility.yul\":1707:1712   */\n      dup3\n        /* \"#utility.yul\":1674:1713   */\n      tag_91\n      jump\t// in\n    tag_116:\n        /* \"#utility.yul\":1729:1800   */\n      tag_117\n        /* \"#utility.yul\":1793:1799   */\n      dup2\n        /* \"#utility.yul\":1788:1791   */\n      dup6\n        /* \"#utility.yul\":1729:1800   */\n      tag_92\n      jump\t// in\n    tag_117:\n        /* \"#utility.yul\":1722:1800   */\n      swap4\n      pop\n        /* \"#utility.yul\":1809:1874   */\n      tag_118\n        /* \"#utility.yul\":1867:1873   */\n      dup2\n        /* \"#utility.yul\":1862:1865   */\n      dup6\n        /* \"#utility.yul\":1855:1859   */\n      0x20\n        /* \"#utility.yul\":1848:1853   */\n      dup7\n        /* \"#utility.yul\":1844:1860   */\n      add\n        /* \"#utility.yul\":1809:1874   */\n      tag_93\n      jump\t// in\n    tag_118:\n        /* \"#utility.yul\":1899:1928   */\n      tag_119\n        /* \"#utility.yul\":1921:1927   */\n      dup2\n        /* \"#utility.yul\":1899:1928   */\n      tag_94\n      jump\t// in\n    tag_119:\n        /* \"#utility.yul\":1894:1897   */\n      dup5\n        /* \"#utility.yul\":1890:1929   */\n      add\n        /* \"#utility.yul\":1883:1929   */\n      swap2\n      pop\n        /* \"#utility.yul\":1650:1935   */\n      pop\n        /* \"#utility.yul\":1558:1935   */\n      swap3\n      swap2\n      pop\n      pop\n      jump\t// out\n        /* \"#utility.yul\":1941:2254   */\n    tag_16:\n        /* \"#utility.yul\":2054:2058   */\n      0x00\n        /* \"#utility.yul\":2092:2094   */\n      0x20\n        /* \"#utility.yul\":2081:2090   */\n      dup3\n        /* \"#utility.yul\":2077:2095   */\n      add\n        /* \"#utility.yul\":2069:2095   */\n      swap1\n      pop\n        /* \"#utility.yul\":2141:2150   */\n      dup2\n        /* \"#utility.yul\":2135:2139   */\n      dup2\n        /* \"#utility.yul\":2131:2151   */\n      sub\n        /* \"#utility.yul\":2127:2128   */\n      0x00\n        /* \"#utility.yul\":2116:2125   */\n      dup4\n        /* \"#utility.yul\":2112:2129   */\n      add\n        /* \"#utility.yul\":2105:2152   */\n      mstore\n        /* \"#utility.yul\":2169:2247   */\n      tag_121\n        /* \"#utility.yul\":2242:2246   */\n      dup2\n        /* \"#utility.yul\":2233:2239   */\n      dup5\n        /* \"#utility.yul\":2169:2247   */\n      tag_95\n      jump\t// in\n    tag_121:\n        /* \"#utility.yul\":2161:2247   */\n      swap1\n      pop\n        /* \"#utility.yul\":1941:2254   */\n      swap3\n      swap2\n      pop\n      pop\n      jump\t// out\n        /* \"#utility.yul\":2260:2440   */\n    tag_96:\n        /* \"#utility.yul\":2308:2385   */\n      0x4e487b7100000000000000000000000000000000000000000000000000000000\n        /* \"#utility.yul\":2305:2306   */\n      0x00\n        /* \"#utility.yul\":2298:2386   */\n      mstore\n        /* \"#utility.yul\":2405:2409   */\n      0x22\n        /* \"#utility.yul\":2402:2403   */\n      0x04\n        /* \"#utility.yul\":2395:2410   */\n      mstore\n        /* \"#utility.yul\":2429:2433   */\n      0x24\n        /* \"#utility.yul\":2426:2427   */\n      0x00\n        /* \"#utility.yul\":2419:2434   */\n      revert\n        /* \"#utility.yul\":2446:2766   */\n    tag_43:\n        /* \"#utility.yul\":2490:2496   */\n      0x00\n        /* \"#utility.yul\":2527:2528   */\n      0x02\n        /* \"#utility.yul\":2521:2525   */\n      dup3\n        /* \"#utility.yul\":2517:2529   */\n      div\n        /* \"#utility.yul\":2507:2529   */\n      swap1\n      pop\n        /* \"#utility.yul\":2574:2575   */\n      0x01\n        /* \"#utility.yul\":2568:2572   */\n      dup3\n        /* \"#utility.yul\":2564:2576   */\n      and\n        /* \"#utility.yul\":2595:2613   */\n      dup1\n        /* \"#utility.yul\":2585:2666   */\n      tag_124\n      jumpi\n        /* \"#utility.yul\":2651:2655   */\n      0x7f\n        /* \"#utility.yul\":2643:2649   */\n      dup3\n        /* \"#utility.yul\":2639:2656   */\n      and\n        /* \"#utility.yul\":2629:2656   */\n      swap2\n      pop\n        /* \"#utility.yul\":2585:2666   */\n    tag_124:\n        /* \"#utility.yul\":2713:2715   */\n      0x20\n        /* \"#utility.yul\":2705:2711   */\n      dup3\n        /* \"#utility.yul\":2702:2716   */\n      lt\n        /* \"#utility.yul\":2682:2700   */\n      dup2\n        /* \"#utility.yul\":2679:2717   */\n      sub\n        /* \"#utility.yul\":2676:2760   */\n      tag_125\n      jumpi\n        /* \"#utility.yul\":2732:2750   */\n      tag_126\n      tag_96\n      jump\t// in\n    tag_126:\n        /* \"#utility.yul\":2676:2760   */\n    tag_125:\n        /* \"#utility.yul\":2497:2766   */\n      pop\n        /* \"#utility.yul\":2446:2766   */\n      swap2\n      swap1\n      pop\n      jump\t// out\n\n    auxdata: 0xa26469706673582212208fcc80c4a9b6a943d0a42f4ff1d44cf3d03a8ce43be9c15e18762f6e81cabb2364736f6c634300081a0033\n}\n",
				"bytecode": {
					"linkReferences": {},
					"object": "60806040526040518060c001604052806040518060400160405280600781526020017f233733303745410000000000000000000000000000000000000000000000000081525081526020016040518060400160405280600781526020017f233466666662650000000000000000000000000000000000000000000000000081525081526020016040518060400160405280600781526020017f233030626366650000000000000000000000000000000000000000000000000081525081526020016040518060400160405280600781526020017f236564643930300000000000000000000000000000000000000000000000000081525081526020016040518060400160405280600781526020017f236666616365620000000000000000000000000000000000000000000000000081525081526020016040518060400160405280600781526020017f2361356135613500000000000000000000000000000000000000000000000000815250815250600690600661017f929190611391565b5034801561018b575f80fd5b506040518060400160405280600881526020017f536b656c65746f6e0000000000000000000000000000000000000000000000008152505f80015f600181526020019081526020015f2090816101e19190611692565b506040518060400160405280600581526020017f526f626f740000000000000000000000000000000000000000000000000000008152505f80015f600281526020019081526020015f2090816102379190611692565b506040518060400160405280600581526020017f4a656c6c790000000000000000000000000000000000000000000000000000008152505f80015f600381526020019081526020015f20908161028d9190611692565b506040518060400160405280600d81526020017f4f72616e67652073686f7274730000000000000000000000000000000000000081525060015f015f600481526020019081526020015f2090816102e49190611692565b506040518060400160405280600b81526020017f50696e6b2073686f72747300000000000000000000000000000000000000000081525060015f015f600581526020019081526020015f20908161033b9190611692565b506040518060400160405280600b81526020017f477265792073686f72747300000000000000000000000000000000000000000081525060015f015f600681526020019081526020015f2090816103929190611692565b506040518060400160405280600c81526020017f42726f776e2073686f727473000000000000000000000000000000000000000081525060015f015f600781526020019081526020015f2090816103e99190611692565b506040518060400160405280600981526020017f54616e2070616e7473000000000000000000000000000000000000000000000081525060015f015f600881526020019081526020015f2090816104409190611692565b506040518060400160405280600a81526020017f426c7565206a65616e730000000000000000000000000000000000000000000081525060015f015f600981526020019081526020015f2090816104979190611692565b506040518060400160405280600481526020017f4b696c740000000000000000000000000000000000000000000000000000000081525060015f015f600a81526020019081526020015f2090816104ee9190611692565b506040518060400160405280600a81526020017f426c75652073686972740000000000000000000000000000000000000000000081525060025f015f600b81526020019081526020015f2090816105459190611692565b506040518060400160405280600981526020017f4d69616d692044414f000000000000000000000000000000000000000000000081525060025f015f600c81526020019081526020015f20908161059c9190611692565b506040518060400160405280600881526020017f4261736562616c6c00000000000000000000000000000000000000000000000081525060025f015f600d81526020019081526020015f2090816105f39190611692565b506040518060400160405280600881526020017f4f766572616c6c7300000000000000000000000000000000000000000000000081525060025f015f600e81526020019081526020015f20908161064a9190611692565b506040518060400160405280600e81526020017f556e69636f726e20666c6f61747900000000000000000000000000000000000081525060025f015f600f81526020019081526020015f2090816106a19190611692565b506040518060400160405280600f81526020017f426c61636b20747261636b73756974000000000000000000000000000000000081525060025f015f601081526020019081526020015f2090816106f89190611692565b506040518060400160405280600d81526020017f52656420747261636b737569740000000000000000000000000000000000000081525060025f015f601181526020019081526020015f20908161074f9190611692565b506040518060400160405280600881526020017f5261696e636f617400000000000000000000000000000000000000000000000081525060025f015f601281526020019081526020015f2090816107a69190611692565b506040518060400160405280600981526020017f4661737420666f6f64000000000000000000000000000000000000000000000081525060025f015f601381526020019081526020015f2090816107fd9190611692565b506040518060400160405280600681526020017f496e7465726e000000000000000000000000000000000000000000000000000081525060025f015f601481526020019081526020015f2090816108549190611692565b506040518060400160405280600d81526020017f426f776c696e672073686972740000000000000000000000000000000000000081525060025f015f601581526020019081526020015f2090816108ab9190611692565b506040518060400160405280600b81526020017f42616a6120486f6f64696500000000000000000000000000000000000000000081525060025f015f601681526020019081526020015f2090816109029190611692565b506040518060400160405280600681526020017f536861646573000000000000000000000000000000000000000000000000000081525060035f015f601781526020019081526020015f2090816109599190611692565b506040518060400160405280600981526020017f53756e6e7973696465000000000000000000000000000000000000000000000081525060035f015f601881526020019081526020015f2090816109b09190611692565b506040518060400160405280600781526020017f4e6f67676c65730000000000000000000000000000000000000000000000000081525060035f015f601981526020019081526020015f209081610a079190611692565b506040518060400160405280600a81526020017f334420476c61737365730000000000000000000000000000000000000000000081525060035f015f601a81526020019081526020015f209081610a5e9190611692565b506040518060400160405280600681526020017f536d6f6b6564000000000000000000000000000000000000000000000000000081525060035f015f601b81526020019081526020015f209081610ab59190611692565b506040518060400160405280600481526020017f4d61736b0000000000000000000000000000000000000000000000000000000081525060035f015f601c81526020019081526020015f209081610b0c9190611692565b506040518060400160405280600481526020017f436f6f6c0000000000000000000000000000000000000000000000000000000081525060035f015f601d81526020019081526020015f209081610b639190611692565b506040518060400160405280600581526020017f566970657200000000000000000000000000000000000000000000000000000081525060035f015f601e81526020019081526020015f209081610bba9190611692565b506040518060400160405280600781526020017f436c61737369630000000000000000000000000000000000000000000000000081525060045f015f601f81526020019081526020015f209081610c119190611692565b506040518060400160405280600581526020017f446567656e00000000000000000000000000000000000000000000000000000081525060045f015f602081526020019081526020015f209081610c689190611692565b506040518060400160405280600681526020017f57697a617264000000000000000000000000000000000000000000000000000081525060045f015f602181526020019081526020015f209081610cbf9190611692565b506040518060400160405280600581526020017f426173656400000000000000000000000000000000000000000000000000000081525060045f015f602281526020019081526020015f209081610d169190611692565b506040518060400160405280600381526020017f46657a000000000000000000000000000000000000000000000000000000000081525060045f015f602381526020019081526020015f209081610d6d9190611692565b506040518060400160405280600a81526020017f4865616470686f6e65730000000000000000000000000000000000000000000081525060045f015f602481526020019081526020015f209081610dc49190611692565b506040518060400160405280600481526020017f48616c6f0000000000000000000000000000000000000000000000000000000081525060045f015f602581526020019081526020015f209081610e1b9190611692565b506040518060400160405280600681526020017f436f77626f79000000000000000000000000000000000000000000000000000081525060045f015f602681526020019081526020015f209081610e729190611692565b506040518060400160405280600781526020017f5370696e6e65720000000000000000000000000000000000000000000000000081525060045f015f602781526020019081526020015f209081610ec99190611692565b506040518060400160405280600481526020017f42616e640000000000000000000000000000000000000000000000000000000081525060045f015f602881526020019081526020015f209081610f209190611692565b506040518060400160405280600681526020017f4265616e6965000000000000000000000000000000000000000000000000000081525060045f015f602981526020019081526020015f209081610f779190611692565b506040518060400160405280600681526020017f5370726f7574000000000000000000000000000000000000000000000000000081525060045f015f602a81526020019081526020015f209081610fce9190611692565b506040518060400160405280600581526020017f43726f776e00000000000000000000000000000000000000000000000000000081525060045f015f602b81526020019081526020015f2090816110259190611692565b506040518060400160405280600681526020017f506972617465000000000000000000000000000000000000000000000000000081525060045f015f602c81526020019081526020015f20908161107c9190611692565b506040518060400160405280600581526020017f506172747900000000000000000000000000000000000000000000000000000081525060045f015f602d81526020019081526020015f2090816110d39190611692565b506040518060400160405280600a81526020017f4c65707265636861756e0000000000000000000000000000000000000000000081525060045f015f602e81526020019081526020015f20908161112a9190611692565b506040518060400160405280600781526020017f526f6f737465720000000000000000000000000000000000000000000000000081525060045f015f602f81526020019081526020015f2090816111819190611692565b506040518060400160405280600981526020017f436967617265747465000000000000000000000000000000000000000000000081525060055f015f603081526020019081526020015f2090816111d89190611692565b506040518060400160405280600481526020017f566170650000000000000000000000000000000000000000000000000000000081525060055f015f603181526020019081526020015f20908161122f9190611692565b506040518060400160405280600481526020017f506970650000000000000000000000000000000000000000000000000000000081525060055f015f603281526020019081526020015f2090816112869190611692565b506040518060400160405280600481526020017f50756b650000000000000000000000000000000000000000000000000000000081525060055f015f603381526020019081526020015f2090816112dd9190611692565b506040518060400160405280600681526020017f427562626c65000000000000000000000000000000000000000000000000000081525060055f015f603481526020019081526020015f2090816113349190611692565b506040518060400160405280600581526020017f436967617200000000000000000000000000000000000000000000000000000081525060055f015f603581526020019081526020015f20908161138b9190611692565b50611761565b82600681019282156113cc579160200282015b828111156113cb5782518290816113bb9190611692565b50916020019190600101906113a4565b5b5090506113d991906113dd565b5090565b5b808211156113fc575f81816113f39190611400565b506001016113de565b5090565b50805461140c906114bc565b5f825580601f1061141d575061143a565b601f0160209004905f5260205f2090810190611439919061143d565b5b50565b5b80821115611454575f815f90555060010161143e565b5090565b5f81519050919050565b7f4e487b71000000000000000000000000000000000000000000000000000000005f52604160045260245ffd5b7f4e487b71000000000000000000000000000000000000000000000000000000005f52602260045260245ffd5b5f60028204905060018216806114d357607f821691505b6020821081036114e6576114e561148f565b5b50919050565b5f819050815f5260205f209050919050565b5f6020601f8301049050919050565b5f82821b905092915050565b5f600883026115487fffffffffffffffffffffffffffffffffffffffffffffffffffffffffffffffff8261150d565b611552868361150d565b95508019841693508086168417925050509392505050565b5f819050919050565b5f819050919050565b5f61159661159161158c8461156a565b611573565b61156a565b9050919050565b5f819050919050565b6115af8361157c565b6115c36115bb8261159d565b848454611519565b825550505050565b5f90565b6115d76115cb565b6115e28184846115a6565b505050565b5b81811015611605576115fa5f826115cf565b6001810190506115e8565b5050565b601f82111561164a5761161b816114ec565b611624846114fe565b81016020851015611633578190505b61164761163f856114fe565b8301826115e7565b50505b505050565b5f82821c905092915050565b5f61166a5f198460080261164f565b1980831691505092915050565b5f611682838361165b565b9150826002028217905092915050565b61169b82611458565b67ffffffffffffffff8111156116b4576116b3611462565b5b6116be82546114bc565b6116c9828285611609565b5f60209050601f8311600181146116fa575f84156116e8578287015190505b6116f28582611677565b865550611759565b601f198416611708866114ec565b5f5b8281101561172f5784890151825560018201915060208501945060208101905061170a565b8683101561174c5784890151611748601f89168261165b565b8355505b6001600288020188555050505b505050505050565b6107c48061176e5f395ff3fe608060405234801561000f575f80fd5b506004361061007b575f3560e01c8063c4d30bfa11610059578063c4d30bfa1461010f578063c76ab9401461013f578063d2571f881461016f578063e1d916f71461019f5761007b565b80634337932d1461007f5780634c9c05ea146100af57806398e4f581146100df575b5f80fd5b61009960048036038101906100949190610676565b6101cf565b6040516100a69190610711565b60405180910390f35b6100c960048036038101906100c49190610676565b610272565b6040516100d69190610711565b60405180910390f35b6100f960048036038101906100f49190610676565b610315565b6040516101069190610711565b60405180910390f35b61012960048036038101906101249190610676565b6103b7565b6040516101369190610711565b60405180910390f35b61015960048036038101906101549190610676565b61045a565b6040516101669190610711565b60405180910390f35b61018960048036038101906101849190610676565b6104f9565b6040516101969190610711565b60405180910390f35b6101b960048036038101906101b49190610676565b61059c565b6040516101c69190610711565b60405180910390f35b606060015f015f8381526020019081526020015f2080546101ef9061075e565b80601f016020809104026020016040519081016040528092919081815260200182805461021b9061075e565b80156102665780601f1061023d57610100808354040283529160200191610266565b820191905f5260205f20905b81548152906001019060200180831161024957829003601f168201915b50505050509050919050565b606060025f015f8381526020019081526020015f2080546102929061075e565b80601f01602080910402602001604051908101604052809291908181526020018280546102be9061075e565b80156103095780601f106102e057610100808354040283529160200191610309565b820191905f5260205f20905b8154815290600101906020018083116102ec57829003601f168201915b50505050509050919050565b60605f80015f8381526020019081526020015f2080546103349061075e565b80601f01602080910402602001604051908101604052809291908181526020018280546103609061075e565b80156103ab5780601f10610382576101008083540402835291602001916103ab565b820191905f5260205f20905b81548152906001019060200180831161038e57829003601f168201915b50505050509050919050565b606060035f015f8381526020019081526020015f2080546103d79061075e565b80601f01602080910402602001604051908101604052809291908181526020018280546104039061075e565b801561044e5780601f106104255761010080835404028352916020019161044e565b820191905f5260205f20905b81548152906001019060200180831161043157829003601f168201915b50505050509050919050565b60068160068110610469575f80fd5b015f91509050805461047a9061075e565b80601f01602080910402602001604051908101604052809291908181526020018280546104a69061075e565b80156104f15780601f106104c8576101008083540402835291602001916104f1565b820191905f5260205f20905b8154815290600101906020018083116104d457829003601f168201915b505050505081565b606060045f015f8381526020019081526020015f2080546105199061075e565b80601f01602080910402602001604051908101604052809291908181526020018280546105459061075e565b80156105905780601f1061056757610100808354040283529160200191610590565b820191905f5260205f20905b81548152906001019060200180831161057357829003601f168201915b50505050509050919050565b606060055f015f8381526020019081526020015f2080546105bc9061075e565b80601f01602080910402602001604051908101604052809291908181526020018280546105e89061075e565b80156106335780601f1061060a57610100808354040283529160200191610633565b820191905f5260205f20905b81548152906001019060200180831161061657829003601f168201915b50505050509050919050565b5f80fd5b5f819050919050565b61065581610643565b811461065f575f80fd5b50565b5f813590506106708161064c565b92915050565b5f6020828403121561068b5761068a61063f565b5b5f61069884828501610662565b91505092915050565b5f81519050919050565b5f82825260208201905092915050565b8281835e5f83830152505050565b5f601f19601f8301169050919050565b5f6106e3826106a1565b6106ed81856106ab565b93506106fd8185602086016106bb565b610706816106c9565b840191505092915050565b5f6020820190508181035f83015261072981846106d9565b905092915050565b7f4e487b71000000000000000000000000000000000000000000000000000000005f52602260045260245ffd5b5f600282049050600182168061077557607f821691505b60208210810361078857610787610731565b5b5091905056fea26469706673582212208fcc80c4a9b6a943d0a42f4ff1d44cf3d03a8ce43be9c15e18762f6e81cabb2364736f6c634300081a0033",
					"opcodes": "PUSH1 0x80 PUSH1 0x40 MSTORE PUSH1 0x40 MLOAD DUP1 PUSH1 0xC0 ADD PUSH1 0x40 MSTORE DUP1 PUSH1 0x40 MLOAD DUP1 PUSH1 0x40 ADD PUSH1 0x40 MSTORE DUP1 PUSH1 0x7 DUP2 MSTORE PUSH1 0x20 ADD PUSH32 0x2337333037454100000000000000000000000000000000000000000000000000 DUP2 MSTORE POP DUP2 MSTORE PUSH1 0x20 ADD PUSH1 0x40 MLOAD DUP1 PUSH1 0x40 ADD PUSH1 0x40 MSTORE DUP1 PUSH1 0x7 DUP2 MSTORE PUSH1 0x20 ADD PUSH32 0x2334666666626500000000000000000000000000000000000000000000000000 DUP2 MSTORE POP DUP2 MSTORE PUSH1 0x20 ADD PUSH1 0x40 MLOAD DUP1 PUSH1 0x40 ADD PUSH1 0x40 MSTORE DUP1 PUSH1 0x7 DUP2 MSTORE PUSH1 0x20 ADD PUSH32 0x2330306263666500000000000000000000000000000000000000000000000000 DUP2 MSTORE POP DUP2 MSTORE PUSH1 0x20 ADD PUSH1 0x40 MLOAD DUP1 PUSH1 0x40 ADD PUSH1 0x40 MSTORE DUP1 PUSH1 0x7 DUP2 MSTORE PUSH1 0x20 ADD PUSH32 0x2365646439303000000000000000000000000000000000000000000000000000 DUP2 MSTORE POP DUP2 MSTORE PUSH1 0x20 ADD PUSH1 0x40 MLOAD DUP1 PUSH1 0x40 ADD PUSH1 0x40 MSTORE DUP1 PUSH1 0x7 DUP2 MSTORE PUSH1 0x20 ADD PUSH32 0x2366666163656200000000000000000000000000000000000000000000000000 DUP2 MSTORE POP DUP2 MSTORE PUSH1 0x20 ADD PUSH1 0x40 MLOAD DUP1 PUSH1 0x40 ADD PUSH1 0x40 MSTORE DUP1 PUSH1 0x7 DUP2 MSTORE PUSH1 0x20 ADD PUSH32 0x2361356135613500000000000000000000000000000000000000000000000000 DUP2 MSTORE POP DUP2 MSTORE POP PUSH1 0x6 SWAP1 PUSH1 0x6 PUSH2 0x17F SWAP3 SWAP2 SWAP1 PUSH2 0x1391 JUMP JUMPDEST POP CALLVALUE DUP1 ISZERO PUSH2 0x18B JUMPI PUSH0 DUP1 REVERT JUMPDEST POP PUSH1 0x40 MLOAD DUP1 PUSH1 0x40 ADD PUSH1 0x40 MSTORE DUP1 PUSH1 0x8 DUP2 MSTORE PUSH1 0x20 ADD PUSH32 0x536B656C65746F6E000000000000000000000000000000000000000000000000 DUP2 MSTORE POP PUSH0 DUP1 ADD PUSH0 PUSH1 0x1 DUP2 MSTORE PUSH1 0x20 ADD SWAP1 DUP2 MSTORE PUSH1 0x20 ADD PUSH0 KECCAK256 SWAP1 DUP2 PUSH2 0x1E1 SWAP2 SWAP1 PUSH2 0x1692 JUMP JUMPDEST POP PUSH1 0x40 MLOAD DUP1 PUSH1 0x40 ADD PUSH1 0x40 MSTORE DUP1 PUSH1 0x5 DUP2 MSTORE PUSH1 0x20 ADD PUSH32 0x526F626F74000000000000000000000000000000000000000000000000000000 DUP2 MSTORE POP PUSH0 DUP1 ADD PUSH0 PUSH1 0x2 DUP2 MSTORE PUSH1 0x20 ADD SWAP1 DUP2 MSTORE PUSH1 0x20 ADD PUSH0 KECCAK256 SWAP1 DUP2 PUSH2 0x237 SWAP2 SWAP1 PUSH2 0x1692 JUMP JUMPDEST POP PUSH1 0x40 MLOAD DUP1 PUSH1 0x40 ADD PUSH1 0x40 MSTORE DUP1 PUSH1 0x5 DUP2 MSTORE PUSH1 0x20 ADD PUSH32 0x4A656C6C79000000000000000000000000000000000000000000000000000000 DUP2 MSTORE POP PUSH0 DUP1 ADD PUSH0 PUSH1 0x3 DUP2 MSTORE PUSH1 0x20 ADD SWAP1 DUP2 MSTORE PUSH1 0x20 ADD PUSH0 KECCAK256 SWAP1 DUP2 PUSH2 0x28D SWAP2 SWAP1 PUSH2 0x1692 JUMP JUMPDEST POP PUSH1 0x40 MLOAD DUP1 PUSH1 0x40 ADD PUSH1 0x40 MSTORE DUP1 PUSH1 0xD DUP2 MSTORE PUSH1 0x20 ADD PUSH32 0x4F72616E67652073686F72747300000000000000000000000000000000000000 DUP2 MSTORE POP PUSH1 0x1 PUSH0 ADD PUSH0 PUSH1 0x4 DUP2 MSTORE PUSH1 0x20 ADD SWAP1 DUP2 MSTORE PUSH1 0x20 ADD PUSH0 KECCAK256 SWAP1 DUP2 PUSH2 0x2E4 SWAP2 SWAP1 PUSH2 0x1692 JUMP JUMPDEST POP PUSH1 0x40 MLOAD DUP1 PUSH1 0x40 ADD PUSH1 0x40 MSTORE DUP1 PUSH1 0xB DUP2 MSTORE PUSH1 0x20 ADD PUSH32 0x50696E6B2073686F727473000000000000000000000000000000000000000000 DUP2 MSTORE POP PUSH1 0x1 PUSH0 ADD PUSH0 PUSH1 0x5 DUP2 MSTORE PUSH1 0x20 ADD SWAP1 DUP2 MSTORE PUSH1 0x20 ADD PUSH0 KECCAK256 SWAP1 DUP2 PUSH2 0x33B SWAP2 SWAP1 PUSH2 0x1692 JUMP JUMPDEST POP PUSH1 0x40 MLOAD DUP1 PUSH1 0x40 ADD PUSH1 0x40 MSTORE DUP1 PUSH1 0xB DUP2 MSTORE PUSH1 0x20 ADD PUSH32 0x477265792073686F727473000000000000000000000000000000000000000000 DUP2 MSTORE POP PUSH1 0x1 PUSH0 ADD PUSH0 PUSH1 0x6 DUP2 MSTORE PUSH1 0x20 ADD SWAP1 DUP2 MSTORE PUSH1 0x20 ADD PUSH0 KECCAK256 SWAP1 DUP2 PUSH2 0x392 SWAP2 SWAP1 PUSH2 0x1692 JUMP JUMPDEST POP PUSH1 0x40 MLOAD DUP1 PUSH1 0x40 ADD PUSH1 0x40 MSTORE DUP1 PUSH1 0xC DUP2 MSTORE PUSH1 0x20 ADD PUSH32 0x42726F776E2073686F7274730000000000000000000000000000000000000000 DUP2 MSTORE POP PUSH1 0x1 PUSH0 ADD PUSH0 PUSH1 0x7 DUP2 MSTORE PUSH1 0x20 ADD SWAP1 DUP2 MSTORE PUSH1 0x20 ADD PUSH0 KECCAK256 SWAP1 DUP2 PUSH2 0x3E9 SWAP2 SWAP1 PUSH2 0x1692 JUMP JUMPDEST POP PUSH1 0x40 MLOAD DUP1 PUSH1 0x40 ADD PUSH1 0x40 MSTORE DUP1 PUSH1 0x9 DUP2 MSTORE PUSH1 0x20 ADD PUSH32 0x54616E2070616E74730000000000000000000000000000000000000000000000 DUP2 MSTORE POP PUSH1 0x1 PUSH0 ADD PUSH0 PUSH1 0x8 DUP2 MSTORE PUSH1 0x20 ADD SWAP1 DUP2 MSTORE PUSH1 0x20 ADD PUSH0 KECCAK256 SWAP1 DUP2 PUSH2 0x440 SWAP2 SWAP1 PUSH2 0x1692 JUMP JUMPDEST POP PUSH1 0x40 MLOAD DUP1 PUSH1 0x40 ADD PUSH1 0x40 MSTORE DUP1 PUSH1 0xA DUP2 MSTORE PUSH1 0x20 ADD PUSH32 0x426C7565206A65616E7300000000000000000000000000000000000000000000 DUP2 MSTORE POP PUSH1 0x1 PUSH0 ADD PUSH0 PUSH1 0x9 DUP2 MSTORE PUSH1 0x20 ADD SWAP1 DUP2 MSTORE PUSH1 0x20 ADD PUSH0 KECCAK256 SWAP1 DUP2 PUSH2 0x497 SWAP2 SWAP1 PUSH2 0x1692 JUMP JUMPDEST POP PUSH1 0x40 MLOAD DUP1 PUSH1 0x40 ADD PUSH1 0x40 MSTORE DUP1 PUSH1 0x4 DUP2 MSTORE PUSH1 0x20 ADD PUSH32 0x4B696C7400000000000000000000000000000000000000000000000000000000 DUP2 MSTORE POP PUSH1 0x1 PUSH0 ADD PUSH0 PUSH1 0xA DUP2 MSTORE PUSH1 0x20 ADD SWAP1 DUP2 MSTORE PUSH1 0x20 ADD PUSH0 KECCAK256 SWAP1 DUP2 PUSH2 0x4EE SWAP2 SWAP1 PUSH2 0x1692 JUMP JUMPDEST POP PUSH1 0x40 MLOAD DUP1 PUSH1 0x40 ADD PUSH1 0x40 MSTORE DUP1 PUSH1 0xA DUP2 MSTORE PUSH1 0x20 ADD PUSH32 0x426C756520736869727400000000000000000000000000000000000000000000 DUP2 MSTORE POP PUSH1 0x2 PUSH0 ADD PUSH0 PUSH1 0xB DUP2 MSTORE PUSH1 0x20 ADD SWAP1 DUP2 MSTORE PUSH1 0x20 ADD PUSH0 KECCAK256 SWAP1 DUP2 PUSH2 0x545 SWAP2 SWAP1 PUSH2 0x1692 JUMP JUMPDEST POP PUSH1 0x40 MLOAD DUP1 PUSH1 0x40 ADD PUSH1 0x40 MSTORE DUP1 PUSH1 0x9 DUP2 MSTORE PUSH1 0x20 ADD PUSH32 0x4D69616D692044414F0000000000000000000000000000000000000000000000 DUP2 MSTORE POP PUSH1 0x2 PUSH0 ADD PUSH0 PUSH1 0xC DUP2 MSTORE PUSH1 0x20 ADD SWAP1 DUP2 MSTORE PUSH1 0x20 ADD PUSH0 KECCAK256 SWAP1 DUP2 PUSH2 0x59C SWAP2 SWAP1 PUSH2 0x1692 JUMP JUMPDEST POP PUSH1 0x40 MLOAD DUP1 PUSH1 0x40 ADD PUSH1 0x40 MSTORE DUP1 PUSH1 0x8 DUP2 MSTORE PUSH1 0x20 ADD PUSH32 0x4261736562616C6C000000000000000000000000000000000000000000000000 DUP2 MSTORE POP PUSH1 0x2 PUSH0 ADD PUSH0 PUSH1 0xD DUP2 MSTORE PUSH1 0x20 ADD SWAP1 DUP2 MSTORE PUSH1 0x20 ADD PUSH0 KECCAK256 SWAP1 DUP2 PUSH2 0x5F3 SWAP2 SWAP1 PUSH2 0x1692 JUMP JUMPDEST POP PUSH1 0x40 MLOAD DUP1 PUSH1 0x40 ADD PUSH1 0x40 MSTORE DUP1 PUSH1 0x8 DUP2 MSTORE PUSH1 0x20 ADD PUSH32 0x4F766572616C6C73000000000000000000000000000000000000000000000000 DUP2 MSTORE POP PUSH1 0x2 PUSH0 ADD PUSH0 PUSH1 0xE DUP2 MSTORE PUSH1 0x20 ADD SWAP1 DUP2 MSTORE PUSH1 0x20 ADD PUSH0 KECCAK256 SWAP1 DUP2 PUSH2 0x64A SWAP2 SWAP1 PUSH2 0x1692 JUMP JUMPDEST POP PUSH1 0x40 MLOAD DUP1 PUSH1 0x40 ADD PUSH1 0x40 MSTORE DUP1 PUSH1 0xE DUP2 MSTORE PUSH1 0x20 ADD PUSH32 0x556E69636F726E20666C6F617479000000000000000000000000000000000000 DUP2 MSTORE POP PUSH1 0x2 PUSH0 ADD PUSH0 PUSH1 0xF DUP2 MSTORE PUSH1 0x20 ADD SWAP1 DUP2 MSTORE PUSH1 0x20 ADD PUSH0 KECCAK256 SWAP1 DUP2 PUSH2 0x6A1 SWAP2 SWAP1 PUSH2 0x1692 JUMP JUMPDEST POP PUSH1 0x40 MLOAD DUP1 PUSH1 0x40 ADD PUSH1 0x40 MSTORE DUP1 PUSH1 0xF DUP2 MSTORE PUSH1 0x20 ADD PUSH32 0x426C61636B20747261636B737569740000000000000000000000000000000000 DUP2 MSTORE POP PUSH1 0x2 PUSH0 ADD PUSH0 PUSH1 0x10 DUP2 MSTORE PUSH1 0x20 ADD SWAP1 DUP2 MSTORE PUSH1 0x20 ADD PUSH0 KECCAK256 SWAP1 DUP2 PUSH2 0x6F8 SWAP2 SWAP1 PUSH2 0x1692 JUMP JUMPDEST POP PUSH1 0x40 MLOAD DUP1 PUSH1 0x40 ADD PUSH1 0x40 MSTORE DUP1 PUSH1 0xD DUP2 MSTORE PUSH1 0x20 ADD PUSH32 0x52656420747261636B7375697400000000000000000000000000000000000000 DUP2 MSTORE POP PUSH1 0x2 PUSH0 ADD PUSH0 PUSH1 0x11 DUP2 MSTORE PUSH1 0x20 ADD SWAP1 DUP2 MSTORE PUSH1 0x20 ADD PUSH0 KECCAK256 SWAP1 DUP2 PUSH2 0x74F SWAP2 SWAP1 PUSH2 0x1692 JUMP JUMPDEST POP PUSH1 0x40 MLOAD DUP1 PUSH1 0x40 ADD PUSH1 0x40 MSTORE DUP1 PUSH1 0x8 DUP2 MSTORE PUSH1 0x20 ADD PUSH32 0x5261696E636F6174000000000000000000000000000000000000000000000000 DUP2 MSTORE POP PUSH1 0x2 PUSH0 ADD PUSH0 PUSH1 0x12 DUP2 MSTORE PUSH1 0x20 ADD SWAP1 DUP2 MSTORE PUSH1 0x20 ADD PUSH0 KECCAK256 SWAP1 DUP2 PUSH2 0x7A6 SWAP2 SWAP1 PUSH2 0x1692 JUMP JUMPDEST POP PUSH1 0x40 MLOAD DUP1 PUSH1 0x40 ADD PUSH1 0x40 MSTORE DUP1 PUSH1 0x9 DUP2 MSTORE PUSH1 0x20 ADD PUSH32 0x4661737420666F6F640000000000000000000000000000000000000000000000 DUP2 MSTORE POP PUSH1 0x2 PUSH0 ADD PUSH0 PUSH1 0x13 DUP2 MSTORE PUSH1 0x20 ADD SWAP1 DUP2 MSTORE PUSH1 0x20 ADD PUSH0 KECCAK256 SWAP1 DUP2 PUSH2 0x7FD SWAP2 SWAP1 PUSH2 0x1692 JUMP JUMPDEST POP PUSH1 0x40 MLOAD DUP1 PUSH1 0x40 ADD PUSH1 0x40 MSTORE DUP1 PUSH1 0x6 DUP2 MSTORE PUSH1 0x20 ADD PUSH32 0x496E7465726E0000000000000000000000000000000000000000000000000000 DUP2 MSTORE POP PUSH1 0x2 PUSH0 ADD PUSH0 PUSH1 0x14 DUP2 MSTORE PUSH1 0x20 ADD SWAP1 DUP2 MSTORE PUSH1 0x20 ADD PUSH0 KECCAK256 SWAP1 DUP2 PUSH2 0x854 SWAP2 SWAP1 PUSH2 0x1692 JUMP JUMPDEST POP PUSH1 0x40 MLOAD DUP1 PUSH1 0x40 ADD PUSH1 0x40 MSTORE DUP1 PUSH1 0xD DUP2 MSTORE PUSH1 0x20 ADD PUSH32 0x426F776C696E6720736869727400000000000000000000000000000000000000 DUP2 MSTORE POP PUSH1 0x2 PUSH0 ADD PUSH0 PUSH1 0x15 DUP2 MSTORE PUSH1 0x20 ADD SWAP1 DUP2 MSTORE PUSH1 0x20 ADD PUSH0 KECCAK256 SWAP1 DUP2 PUSH2 0x8AB SWAP2 SWAP1 PUSH2 0x1692 JUMP JUMPDEST POP PUSH1 0x40 MLOAD DUP1 PUSH1 0x40 ADD PUSH1 0x40 MSTORE DUP1 PUSH1 0xB DUP2 MSTORE PUSH1 0x20 ADD PUSH32 0x42616A6120486F6F646965000000000000000000000000000000000000000000 DUP2 MSTORE POP PUSH1 0x2 PUSH0 ADD PUSH0 PUSH1 0x16 DUP2 MSTORE PUSH1 0x20 ADD SWAP1 DUP2 MSTORE PUSH1 0x20 ADD PUSH0 KECCAK256 SWAP1 DUP2 PUSH2 0x902 SWAP2 SWAP1 PUSH2 0x1692 JUMP JUMPDEST POP PUSH1 0x40 MLOAD DUP1 PUSH1 0x40 ADD PUSH1 0x40 MSTORE DUP1 PUSH1 0x6 DUP2 MSTORE PUSH1 0x20 ADD PUSH32 0x5368616465730000000000000000000000000000000000000000000000000000 DUP2 MSTORE POP PUSH1 0x3 PUSH0 ADD PUSH0 PUSH1 0x17 DUP2 MSTORE PUSH1 0x20 ADD SWAP1 DUP2 MSTORE PUSH1 0x20 ADD PUSH0 KECCAK256 SWAP1 DUP2 PUSH2 0x959 SWAP2 SWAP1 PUSH2 0x1692 JUMP JUMPDEST POP PUSH1 0x40 MLOAD DUP1 PUSH1 0x40 ADD PUSH1 0x40 MSTORE DUP1 PUSH1 0x9 DUP2 MSTORE PUSH1 0x20 ADD PUSH32 0x53756E6E79736964650000000000000000000000000000000000000000000000 DUP2 MSTORE POP PUSH1 0x3 PUSH0 ADD PUSH0 PUSH1 0x18 DUP2 MSTORE PUSH1 0x20 ADD SWAP1 DUP2 MSTORE PUSH1 0x20 ADD PUSH0 KECCAK256 SWAP1 DUP2 PUSH2 0x9B0 SWAP2 SWAP1 PUSH2 0x1692 JUMP JUMPDEST POP PUSH1 0x40 MLOAD DUP1 PUSH1 0x40 ADD PUSH1 0x40 MSTORE DUP1 PUSH1 0x7 DUP2 MSTORE PUSH1 0x20 ADD PUSH32 0x4E6F67676C657300000000000000000000000000000000000000000000000000 DUP2 MSTORE POP PUSH1 0x3 PUSH0 ADD PUSH0 PUSH1 0x19 DUP2 MSTORE PUSH1 0x20 ADD SWAP1 DUP2 MSTORE PUSH1 0x20 ADD PUSH0 KECCAK256 SWAP1 DUP2 PUSH2 0xA07 SWAP2 SWAP1 PUSH2 0x1692 JUMP JUMPDEST POP PUSH1 0x40 MLOAD DUP1 PUSH1 0x40 ADD PUSH1 0x40 MSTORE DUP1 PUSH1 0xA DUP2 MSTORE PUSH1 0x20 ADD PUSH32 0x334420476C617373657300000000000000000000000000000000000000000000 DUP2 MSTORE POP PUSH1 0x3 PUSH0 ADD PUSH0 PUSH1 0x1A DUP2 MSTORE PUSH1 0x20 ADD SWAP1 DUP2 MSTORE PUSH1 0x20 ADD PUSH0 KECCAK256 SWAP1 DUP2 PUSH2 0xA5E SWAP2 SWAP1 PUSH2 0x1692 JUMP JUMPDEST POP PUSH1 0x40 MLOAD DUP1 PUSH1 0x40 ADD PUSH1 0x40 MSTORE DUP1 PUSH1 0x6 DUP2 MSTORE PUSH1 0x20 ADD PUSH32 0x536D6F6B65640000000000000000000000000000000000000000000000000000 DUP2 MSTORE POP PUSH1 0x3 PUSH0 ADD PUSH0 PUSH1 0x1B DUP2 MSTORE PUSH1 0x20 ADD SWAP1 DUP2 MSTORE PUSH1 0x20 ADD PUSH0 KECCAK256 SWAP1 DUP2 PUSH2 0xAB5 SWAP2 SWAP1 PUSH2 0x1692 JUMP JUMPDEST POP PUSH1 0x40 MLOAD DUP1 PUSH1 0x40 ADD PUSH1 0x40 MSTORE DUP1 PUSH1 0x4 DUP2 MSTORE PUSH1 0x20 ADD PUSH32 0x4D61736B00000000000000000000000000000000000000000000000000000000 DUP2 MSTORE POP PUSH1 0x3 PUSH0 ADD PUSH0 PUSH1 0x1C DUP2 MSTORE PUSH1 0x20 ADD SWAP1 DUP2 MSTORE PUSH1 0x20 ADD PUSH0 KECCAK256 SWAP1 DUP2 PUSH2 0xB0C SWAP2 SWAP1 PUSH2 0x1692 JUMP JUMPDEST POP PUSH1 0x40 MLOAD DUP1 PUSH1 0x40 ADD PUSH1 0x40 MSTORE DUP1 PUSH1 0x4 DUP2 MSTORE PUSH1 0x20 ADD PUSH32 0x436F6F6C00000000000000000000000000000000000000000000000000000000 DUP2 MSTORE POP PUSH1 0x3 PUSH0 ADD PUSH0 PUSH1 0x1D DUP2 MSTORE PUSH1 0x20 ADD SWAP1 DUP2 MSTORE PUSH1 0x20 ADD PUSH0 KECCAK256 SWAP1 DUP2 PUSH2 0xB63 SWAP2 SWAP1 PUSH2 0x1692 JUMP JUMPDEST POP PUSH1 0x40 MLOAD DUP1 PUSH1 0x40 ADD PUSH1 0x40 MSTORE DUP1 PUSH1 0x5 DUP2 MSTORE PUSH1 0x20 ADD PUSH32 0x5669706572000000000000000000000000000000000000000000000000000000 DUP2 MSTORE POP PUSH1 0x3 PUSH0 ADD PUSH0 PUSH1 0x1E DUP2 MSTORE PUSH1 0x20 ADD SWAP1 DUP2 MSTORE PUSH1 0x20 ADD PUSH0 KECCAK256 SWAP1 DUP2 PUSH2 0xBBA SWAP2 SWAP1 PUSH2 0x1692 JUMP JUMPDEST POP PUSH1 0x40 MLOAD DUP1 PUSH1 0x40 ADD PUSH1 0x40 MSTORE DUP1 PUSH1 0x7 DUP2 MSTORE PUSH1 0x20 ADD PUSH32 0x436C617373696300000000000000000000000000000000000000000000000000 DUP2 MSTORE POP PUSH1 0x4 PUSH0 ADD PUSH0 PUSH1 0x1F DUP2 MSTORE PUSH1 0x20 ADD SWAP1 DUP2 MSTORE PUSH1 0x20 ADD PUSH0 KECCAK256 SWAP1 DUP2 PUSH2 0xC11 SWAP2 SWAP1 PUSH2 0x1692 JUMP JUMPDEST POP PUSH1 0x40 MLOAD DUP1 PUSH1 0x40 ADD PUSH1 0x40 MSTORE DUP1 PUSH1 0x5 DUP2 MSTORE PUSH1 0x20 ADD PUSH32 0x446567656E000000000000000000000000000000000000000000000000000000 DUP2 MSTORE POP PUSH1 0x4 PUSH0 ADD PUSH0 PUSH1 0x20 DUP2 MSTORE PUSH1 0x20 ADD SWAP1 DUP2 MSTORE PUSH1 0x20 ADD PUSH0 KECCAK256 SWAP1 DUP2 PUSH2 0xC68 SWAP2 SWAP1 PUSH2 0x1692 JUMP JUMPDEST POP PUSH1 0x40 MLOAD DUP1 PUSH1 0x40 ADD PUSH1 0x40 MSTORE DUP1 PUSH1 0x6 DUP2 MSTORE PUSH1 0x20 ADD PUSH32 0x57697A6172640000000000000000000000000000000000000000000000000000 DUP2 MSTORE POP PUSH1 0x4 PUSH0 ADD PUSH0 PUSH1 0x21 DUP2 MSTORE PUSH1 0x20 ADD SWAP1 DUP2 MSTORE PUSH1 0x20 ADD PUSH0 KECCAK256 SWAP1 DUP2 PUSH2 0xCBF SWAP2 SWAP1 PUSH2 0x1692 JUMP JUMPDEST POP PUSH1 0x40 MLOAD DUP1 PUSH1 0x40 ADD PUSH1 0x40 MSTORE DUP1 PUSH1 0x5 DUP2 MSTORE PUSH1 0x20 ADD PUSH32 0x4261736564000000000000000000000000000000000000000000000000000000 DUP2 MSTORE POP PUSH1 0x4 PUSH0 ADD PUSH0 PUSH1 0x22 DUP2 MSTORE PUSH1 0x20 ADD SWAP1 DUP2 MSTORE PUSH1 0x20 ADD PUSH0 KECCAK256 SWAP1 DUP2 PUSH2 0xD16 SWAP2 SWAP1 PUSH2 0x1692 JUMP JUMPDEST POP PUSH1 0x40 MLOAD DUP1 PUSH1 0x40 ADD PUSH1 0x40 MSTORE DUP1 PUSH1 0x3 DUP2 MSTORE PUSH1 0x20 ADD PUSH32 0x46657A0000000000000000000000000000000000000000000000000000000000 DUP2 MSTORE POP PUSH1 0x4 PUSH0 ADD PUSH0 PUSH1 0x23 DUP2 MSTORE PUSH1 0x20 ADD SWAP1 DUP2 MSTORE PUSH1 0x20 ADD PUSH0 KECCAK256 SWAP1 DUP2 PUSH2 0xD6D SWAP2 SWAP1 PUSH2 0x1692 JUMP JUMPDEST POP PUSH1 0x40 MLOAD DUP1 PUSH1 0x40 ADD PUSH1 0x40 MSTORE DUP1 PUSH1 0xA DUP2 MSTORE PUSH1 0x20 ADD PUSH32 0x4865616470686F6E657300000000000000000000000000000000000000000000 DUP2 MSTORE POP PUSH1 0x4 PUSH0 ADD PUSH0 PUSH1 0x24 DUP2 MSTORE PUSH1 0x20 ADD SWAP1 DUP2 MSTORE PUSH1 0x20 ADD PUSH0 KECCAK256 SWAP1 DUP2 PUSH2 0xDC4 SWAP2 SWAP1 PUSH2 0x1692 JUMP JUMPDEST POP PUSH1 0x40 MLOAD DUP1 PUSH1 0x40 ADD PUSH1 0x40 MSTORE DUP1 PUSH1 0x4 DUP2 MSTORE PUSH1 0x20 ADD PUSH32 0x48616C6F00000000000000000000000000000000000000000000000000000000 DUP2 MSTORE POP PUSH1 0x4 PUSH0 ADD PUSH0 PUSH1 0x25 DUP2 MSTORE PUSH1 0x20 ADD SWAP1 DUP2 MSTORE PUSH1 0x20 ADD PUSH0 KECCAK256 SWAP1 DUP2 PUSH2 0xE1B SWAP2 SWAP1 PUSH2 0x1692 JUMP JUMPDEST POP PUSH1 0x40 MLOAD DUP1 PUSH1 0x40 ADD PUSH1 0x40 MSTORE DUP1 PUSH1 0x6 DUP2 MSTORE PUSH1 0x20 ADD PUSH32 0x436F77626F790000000000000000000000000000000000000000000000000000 DUP2 MSTORE POP PUSH1 0x4 PUSH0 ADD PUSH0 PUSH1 0x26 DUP2 MSTORE PUSH1 0x20 ADD SWAP1 DUP2 MSTORE PUSH1 0x20 ADD PUSH0 KECCAK256 SWAP1 DUP2 PUSH2 0xE72 SWAP2 SWAP1 PUSH2 0x1692 JUMP JUMPDEST POP PUSH1 0x40 MLOAD DUP1 PUSH1 0x40 ADD PUSH1 0x40 MSTORE DUP1 PUSH1 0x7 DUP2 MSTORE PUSH1 0x20 ADD PUSH32 0x5370696E6E657200000000000000000000000000000000000000000000000000 DUP2 MSTORE POP PUSH1 0x4 PUSH0 ADD PUSH0 PUSH1 0x27 DUP2 MSTORE PUSH1 0x20 ADD SWAP1 DUP2 MSTORE PUSH1 0x20 ADD PUSH0 KECCAK256 SWAP1 DUP2 PUSH2 0xEC9 SWAP2 SWAP1 PUSH2 0x1692 JUMP JUMPDEST POP PUSH1 0x40 MLOAD DUP1 PUSH1 0x40 ADD PUSH1 0x40 MSTORE DUP1 PUSH1 0x4 DUP2 MSTORE PUSH1 0x20 ADD PUSH32 0x42616E6400000000000000000000000000000000000000000000000000000000 DUP2 MSTORE POP PUSH1 0x4 PUSH0 ADD PUSH0 PUSH1 0x28 DUP2 MSTORE PUSH1 0x20 ADD SWAP1 DUP2 MSTORE PUSH1 0x20 ADD PUSH0 KECCAK256 SWAP1 DUP2 PUSH2 0xF20 SWAP2 SWAP1 PUSH2 0x1692 JUMP JUMPDEST POP PUSH1 0x40 MLOAD DUP1 PUSH1 0x40 ADD PUSH1 0x40 MSTORE DUP1 PUSH1 0x6 DUP2 MSTORE PUSH1 0x20 ADD PUSH32 0x4265616E69650000000000000000000000000000000000000000000000000000 DUP2 MSTORE POP PUSH1 0x4 PUSH0 ADD PUSH0 PUSH1 0x29 DUP2 MSTORE PUSH1 0x20 ADD SWAP1 DUP2 MSTORE PUSH1 0x20 ADD PUSH0 KECCAK256 SWAP1 DUP2 PUSH2 0xF77 SWAP2 SWAP1 PUSH2 0x1692 JUMP JUMPDEST POP PUSH1 0x40 MLOAD DUP1 PUSH1 0x40 ADD PUSH1 0x40 MSTORE DUP1 PUSH1 0x6 DUP2 MSTORE PUSH1 0x20 ADD PUSH32 0x5370726F75740000000000000000000000000000000000000000000000000000 DUP2 MSTORE POP PUSH1 0x4 PUSH0 ADD PUSH0 PUSH1 0x2A DUP2 MSTORE PUSH1 0x20 ADD SWAP1 DUP2 MSTORE PUSH1 0x20 ADD PUSH0 KECCAK256 SWAP1 DUP2 PUSH2 0xFCE SWAP2 SWAP1 PUSH2 0x1692 JUMP JUMPDEST POP PUSH1 0x40 MLOAD DUP1 PUSH1 0x40 ADD PUSH1 0x40 MSTORE DUP1 PUSH1 0x5 DUP2 MSTORE PUSH1 0x20 ADD PUSH32 0x43726F776E000000000000000000000000000000000000000000000000000000 DUP2 MSTORE POP PUSH1 0x4 PUSH0 ADD PUSH0 PUSH1 0x2B DUP2 MSTORE PUSH1 0x20 ADD SWAP1 DUP2 MSTORE PUSH1 0x20 ADD PUSH0 KECCAK256 SWAP1 DUP2 PUSH2 0x1025 SWAP2 SWAP1 PUSH2 0x1692 JUMP JUMPDEST POP PUSH1 0x40 MLOAD DUP1 PUSH1 0x40 ADD PUSH1 0x40 MSTORE DUP1 PUSH1 0x6 DUP2 MSTORE PUSH1 0x20 ADD PUSH32 0x5069726174650000000000000000000000000000000000000000000000000000 DUP2 MSTORE POP PUSH1 0x4 PUSH0 ADD PUSH0 PUSH1 0x2C DUP2 MSTORE PUSH1 0x20 ADD SWAP1 DUP2 MSTORE PUSH1 0x20 ADD PUSH0 KECCAK256 SWAP1 DUP2 PUSH2 0x107C SWAP2 SWAP1 PUSH2 0x1692 JUMP JUMPDEST POP PUSH1 0x40 MLOAD DUP1 PUSH1 0x40 ADD PUSH1 0x40 MSTORE DUP1 PUSH1 0x5 DUP2 MSTORE PUSH1 0x20 ADD PUSH32 0x5061727479000000000000000000000000000000000000000000000000000000 DUP2 MSTORE POP PUSH1 0x4 PUSH0 ADD PUSH0 PUSH1 0x2D DUP2 MSTORE PUSH1 0x20 ADD SWAP1 DUP2 MSTORE PUSH1 0x20 ADD PUSH0 KECCAK256 SWAP1 DUP2 PUSH2 0x10D3 SWAP2 SWAP1 PUSH2 0x1692 JUMP JUMPDEST POP PUSH1 0x40 MLOAD DUP1 PUSH1 0x40 ADD PUSH1 0x40 MSTORE DUP1 PUSH1 0xA DUP2 MSTORE PUSH1 0x20 ADD PUSH32 0x4C65707265636861756E00000000000000000000000000000000000000000000 DUP2 MSTORE POP PUSH1 0x4 PUSH0 ADD PUSH0 PUSH1 0x2E DUP2 MSTORE PUSH1 0x20 ADD SWAP1 DUP2 MSTORE PUSH1 0x20 ADD PUSH0 KECCAK256 SWAP1 DUP2 PUSH2 0x112A SWAP2 SWAP1 PUSH2 0x1692 JUMP JUMPDEST POP PUSH1 0x40 MLOAD DUP1 PUSH1 0x40 ADD PUSH1 0x40 MSTORE DUP1 PUSH1 0x7 DUP2 MSTORE PUSH1 0x20 ADD PUSH32 0x526F6F7374657200000000000000000000000000000000000000000000000000 DUP2 MSTORE POP PUSH1 0x4 PUSH0 ADD PUSH0 PUSH1 0x2F DUP2 MSTORE PUSH1 0x20 ADD SWAP1 DUP2 MSTORE PUSH1 0x20 ADD PUSH0 KECCAK256 SWAP1 DUP2 PUSH2 0x1181 SWAP2 SWAP1 PUSH2 0x1692 JUMP JUMPDEST POP PUSH1 0x40 MLOAD DUP1 PUSH1 0x40 ADD PUSH1 0x40 MSTORE DUP1 PUSH1 0x9 DUP2 MSTORE PUSH1 0x20 ADD PUSH32 0x4369676172657474650000000000000000000000000000000000000000000000 DUP2 MSTORE POP PUSH1 0x5 PUSH0 ADD PUSH0 PUSH1 0x30 DUP2 MSTORE PUSH1 0x20 ADD SWAP1 DUP2 MSTORE PUSH1 0x20 ADD PUSH0 KECCAK256 SWAP1 DUP2 PUSH2 0x11D8 SWAP2 SWAP1 PUSH2 0x1692 JUMP JUMPDEST POP PUSH1 0x40 MLOAD DUP1 PUSH1 0x40 ADD PUSH1 0x40 MSTORE DUP1 PUSH1 0x4 DUP2 MSTORE PUSH1 0x20 ADD PUSH32 0x5661706500000000000000000000000000000000000000000000000000000000 DUP2 MSTORE POP PUSH1 0x5 PUSH0 ADD PUSH0 PUSH1 0x31 DUP2 MSTORE PUSH1 0x20 ADD SWAP1 DUP2 MSTORE PUSH1 0x20 ADD PUSH0 KECCAK256 SWAP1 DUP2 PUSH2 0x122F SWAP2 SWAP1 PUSH2 0x1692 JUMP JUMPDEST POP PUSH1 0x40 MLOAD DUP1 PUSH1 0x40 ADD PUSH1 0x40 MSTORE DUP1 PUSH1 0x4 DUP2 MSTORE PUSH1 0x20 ADD PUSH32 0x5069706500000000000000000000000000000000000000000000000000000000 DUP2 MSTORE POP PUSH1 0x5 PUSH0 ADD PUSH0 PUSH1 0x32 DUP2 MSTORE PUSH1 0x20 ADD SWAP1 DUP2 MSTORE PUSH1 0x20 ADD PUSH0 KECCAK256 SWAP1 DUP2 PUSH2 0x1286 SWAP2 SWAP1 PUSH2 0x1692 JUMP JUMPDEST POP PUSH1 0x40 MLOAD DUP1 PUSH1 0x40 ADD PUSH1 0x40 MSTORE DUP1 PUSH1 0x4 DUP2 MSTORE PUSH1 0x20 ADD PUSH32 0x50756B6500000000000000000000000000000000000000000000000000000000 DUP2 MSTORE POP PUSH1 0x5 PUSH0 ADD PUSH0 PUSH1 0x33 DUP2 MSTORE PUSH1 0x20 ADD SWAP1 DUP2 MSTORE PUSH1 0x20 ADD PUSH0 KECCAK256 SWAP1 DUP2 PUSH2 0x12DD SWAP2 SWAP1 PUSH2 0x1692 JUMP JUMPDEST POP PUSH1 0x40 MLOAD DUP1 PUSH1 0x40 ADD PUSH1 0x40 MSTORE DUP1 PUSH1 0x6 DUP2 MSTORE PUSH1 0x20 ADD PUSH32 0x427562626C650000000000000000000000000000000000000000000000000000 DUP2 MSTORE POP PUSH1 0x5 PUSH0 ADD PUSH0 PUSH1 0x34 DUP2 MSTORE PUSH1 0x20 ADD SWAP1 DUP2 MSTORE PUSH1 0x20 ADD PUSH0 KECCAK256 SWAP1 DUP2 PUSH2 0x1334 SWAP2 SWAP1 PUSH2 0x1692 JUMP JUMPDEST POP PUSH1 0x40 MLOAD DUP1 PUSH1 0x40 ADD PUSH1 0x40 MSTORE DUP1 PUSH1 0x5 DUP2 MSTORE PUSH1 0x20 ADD PUSH32 0x4369676172000000000000000000000000000000000000000000000000000000 DUP2 MSTORE POP PUSH1 0x5 PUSH0 ADD PUSH0 PUSH1 0x35 DUP2 MSTORE PUSH1 0x20 ADD SWAP1 DUP2 MSTORE PUSH1 0x20 ADD PUSH0 KECCAK256 SWAP1 DUP2 PUSH2 0x138B SWAP2 SWAP1 PUSH2 0x1692 JUMP JUMPDEST POP PUSH2 0x1761 JUMP JUMPDEST DUP3 PUSH1 0x6 DUP2 ADD SWAP3 DUP3 ISZERO PUSH2 0x13CC JUMPI SWAP2 PUSH1 0x20 MUL DUP3 ADD JUMPDEST DUP3 DUP2 GT ISZERO PUSH2 0x13CB JUMPI DUP3 MLOAD DUP3 SWAP1 DUP2 PUSH2 0x13BB SWAP2 SWAP1 PUSH2 0x1692 JUMP JUMPDEST POP SWAP2 PUSH1 0x20 ADD SWAP2 SWAP1 PUSH1 0x1 ADD SWAP1 PUSH2 0x13A4 JUMP JUMPDEST JUMPDEST POP SWAP1 POP PUSH2 0x13D9 SWAP2 SWAP1 PUSH2 0x13DD JUMP JUMPDEST POP SWAP1 JUMP JUMPDEST JUMPDEST DUP1 DUP3 GT ISZERO PUSH2 0x13FC JUMPI PUSH0 DUP2 DUP2 PUSH2 0x13F3 SWAP2 SWAP1 PUSH2 0x1400 JUMP JUMPDEST POP PUSH1 0x1 ADD PUSH2 0x13DE JUMP JUMPDEST POP SWAP1 JUMP JUMPDEST POP DUP1 SLOAD PUSH2 0x140C SWAP1 PUSH2 0x14BC JUMP JUMPDEST PUSH0 DUP3 SSTORE DUP1 PUSH1 0x1F LT PUSH2 0x141D JUMPI POP PUSH2 0x143A JUMP JUMPDEST PUSH1 0x1F ADD PUSH1 0x20 SWAP1 DIV SWAP1 PUSH0 MSTORE PUSH1 0x20 PUSH0 KECCAK256 SWAP1 DUP2 ADD SWAP1 PUSH2 0x1439 SWAP2 SWAP1 PUSH2 0x143D JUMP JUMPDEST JUMPDEST POP JUMP JUMPDEST JUMPDEST DUP1 DUP3 GT ISZERO PUSH2 0x1454 JUMPI PUSH0 DUP2 PUSH0 SWAP1 SSTORE POP PUSH1 0x1 ADD PUSH2 0x143E JUMP JUMPDEST POP SWAP1 JUMP JUMPDEST PUSH0 DUP2 MLOAD SWAP1 POP SWAP2 SWAP1 POP JUMP JUMPDEST PUSH32 0x4E487B7100000000000000000000000000000000000000000000000000000000 PUSH0 MSTORE PUSH1 0x41 PUSH1 0x4 MSTORE PUSH1 0x24 PUSH0 REVERT JUMPDEST PUSH32 0x4E487B7100000000000000000000000000000000000000000000000000000000 PUSH0 MSTORE PUSH1 0x22 PUSH1 0x4 MSTORE PUSH1 0x24 PUSH0 REVERT JUMPDEST PUSH0 PUSH1 0x2 DUP3 DIV SWAP1 POP PUSH1 0x1 DUP3 AND DUP1 PUSH2 0x14D3 JUMPI PUSH1 0x7F DUP3 AND SWAP2 POP JUMPDEST PUSH1 0x20 DUP3 LT DUP2 SUB PUSH2 0x14E6 JUMPI PUSH2 0x14E5 PUSH2 0x148F JUMP JUMPDEST JUMPDEST POP SWAP2 SWAP1 POP JUMP JUMPDEST PUSH0 DUP2 SWAP1 POP DUP2 PUSH0 MSTORE PUSH1 0x20 PUSH0 KECCAK256 SWAP1 POP SWAP2 SWAP1 POP JUMP JUMPDEST PUSH0 PUSH1 0x20 PUSH1 0x1F DUP4 ADD DIV SWAP1 POP SWAP2 SWAP1 POP JUMP JUMPDEST PUSH0 DUP3 DUP3 SHL SWAP1 POP SWAP3 SWAP2 POP POP JUMP JUMPDEST PUSH0 PUSH1 0x8 DUP4 MUL PUSH2 0x1548 PUSH32 0xFFFFFFFFFFFFFFFFFFFFFFFFFFFFFFFFFFFFFFFFFFFFFFFFFFFFFFFFFFFFFFFF DUP3 PUSH2 0x150D JUMP JUMPDEST PUSH2 0x1552 DUP7 DUP4 PUSH2 0x150D JUMP JUMPDEST SWAP6 POP DUP1 NOT DUP5 AND SWAP4 POP DUP1 DUP7 AND DUP5 OR SWAP3 POP POP POP SWAP4 SWAP3 POP POP POP JUMP JUMPDEST PUSH0 DUP2 SWAP1 POP SWAP2 SWAP1 POP JUMP JUMPDEST PUSH0 DUP2 SWAP1 POP SWAP2 SWAP1 POP JUMP JUMPDEST PUSH0 PUSH2 0x1596 PUSH2 0x1591 PUSH2 0x158C DUP5 PUSH2 0x156A JUMP JUMPDEST PUSH2 0x1573 JUMP JUMPDEST PUSH2 0x156A JUMP JUMPDEST SWAP1 POP SWAP2 SWAP1 POP JUMP JUMPDEST PUSH0 DUP2 SWAP1 POP SWAP2 SWAP1 POP JUMP JUMPDEST PUSH2 0x15AF DUP4 PUSH2 0x157C JUMP JUMPDEST PUSH2 0x15C3 PUSH2 0x15BB DUP3 PUSH2 0x159D JUMP JUMPDEST DUP5 DUP5 SLOAD PUSH2 0x1519 JUMP JUMPDEST DUP3 SSTORE POP POP POP POP JUMP JUMPDEST PUSH0 SWAP1 JUMP JUMPDEST PUSH2 0x15D7 PUSH2 0x15CB JUMP JUMPDEST PUSH2 0x15E2 DUP2 DUP5 DUP5 PUSH2 0x15A6 JUMP JUMPDEST POP POP POP JUMP JUMPDEST JUMPDEST DUP2 DUP2 LT ISZERO PUSH2 0x1605 JUMPI PUSH2 0x15FA PUSH0 DUP3 PUSH2 0x15CF JUMP JUMPDEST PUSH1 0x1 DUP2 ADD SWAP1 POP PUSH2 0x15E8 JUMP JUMPDEST POP POP JUMP JUMPDEST PUSH1 0x1F DUP3 GT ISZERO PUSH2 0x164A JUMPI PUSH2 0x161B DUP2 PUSH2 0x14EC JUMP JUMPDEST PUSH2 0x1624 DUP5 PUSH2 0x14FE JUMP JUMPDEST DUP2 ADD PUSH1 0x20 DUP6 LT ISZERO PUSH2 0x1633 JUMPI DUP2 SWAP1 POP JUMPDEST PUSH2 0x1647 PUSH2 0x163F DUP6 PUSH2 0x14FE JUMP JUMPDEST DUP4 ADD DUP3 PUSH2 0x15E7 JUMP JUMPDEST POP POP JUMPDEST POP POP POP JUMP JUMPDEST PUSH0 DUP3 DUP3 SHR SWAP1 POP SWAP3 SWAP2 POP POP JUMP JUMPDEST PUSH0 PUSH2 0x166A PUSH0 NOT DUP5 PUSH1 0x8 MUL PUSH2 0x164F JUMP JUMPDEST NOT DUP1 DUP4 AND SWAP2 POP POP SWAP3 SWAP2 POP POP JUMP JUMPDEST PUSH0 PUSH2 0x1682 DUP4 DUP4 PUSH2 0x165B JUMP JUMPDEST SWAP2 POP DUP3 PUSH1 0x2 MUL DUP3 OR SWAP1 POP SWAP3 SWAP2 POP POP JUMP JUMPDEST PUSH2 0x169B DUP3 PUSH2 0x1458 JUMP JUMPDEST PUSH8 0xFFFFFFFFFFFFFFFF DUP2 GT ISZERO PUSH2 0x16B4 JUMPI PUSH2 0x16B3 PUSH2 0x1462 JUMP JUMPDEST JUMPDEST PUSH2 0x16BE DUP3 SLOAD PUSH2 0x14BC JUMP JUMPDEST PUSH2 0x16C9 DUP3 DUP3 DUP6 PUSH2 0x1609 JUMP JUMPDEST PUSH0 PUSH1 0x20 SWAP1 POP PUSH1 0x1F DUP4 GT PUSH1 0x1 DUP2 EQ PUSH2 0x16FA JUMPI PUSH0 DUP5 ISZERO PUSH2 0x16E8 JUMPI DUP3 DUP8 ADD MLOAD SWAP1 POP JUMPDEST PUSH2 0x16F2 DUP6 DUP3 PUSH2 0x1677 JUMP JUMPDEST DUP7 SSTORE POP PUSH2 0x1759 JUMP JUMPDEST PUSH1 0x1F NOT DUP5 AND PUSH2 0x1708 DUP7 PUSH2 0x14EC JUMP JUMPDEST PUSH0 JUMPDEST DUP3 DUP2 LT ISZERO PUSH2 0x172F JUMPI DUP5 DUP10 ADD MLOAD DUP3 SSTORE PUSH1 0x1 DUP3 ADD SWAP2 POP PUSH1 0x20 DUP6 ADD SWAP5 POP PUSH1 0x20 DUP2 ADD SWAP1 POP PUSH2 0x170A JUMP JUMPDEST DUP7 DUP4 LT ISZERO PUSH2 0x174C JUMPI DUP5 DUP10 ADD MLOAD PUSH2 0x1748 PUSH1 0x1F DUP10 AND DUP3 PUSH2 0x165B JUMP JUMPDEST DUP4 SSTORE POP JUMPDEST PUSH1 0x1 PUSH1 0x2 DUP9 MUL ADD DUP9 SSTORE POP POP POP JUMPDEST POP POP POP POP POP POP JUMP JUMPDEST PUSH2 0x7C4 DUP1 PUSH2 0x176E PUSH0 CODECOPY PUSH0 RETURN INVALID PUSH1 0x80 PUSH1 0x40 MSTORE CALLVALUE DUP1 ISZERO PUSH2 0xF JUMPI PUSH0 DUP1 REVERT JUMPDEST POP PUSH1 0x4 CALLDATASIZE LT PUSH2 0x7B JUMPI PUSH0 CALLDATALOAD PUSH1 0xE0 SHR DUP1 PUSH4 0xC4D30BFA GT PUSH2 0x59 JUMPI DUP1 PUSH4 0xC4D30BFA EQ PUSH2 0x10F JUMPI DUP1 PUSH4 0xC76AB940 EQ PUSH2 0x13F JUMPI DUP1 PUSH4 0xD2571F88 EQ PUSH2 0x16F JUMPI DUP1 PUSH4 0xE1D916F7 EQ PUSH2 0x19F JUMPI PUSH2 0x7B JUMP JUMPDEST DUP1 PUSH4 0x4337932D EQ PUSH2 0x7F JUMPI DUP1 PUSH4 0x4C9C05EA EQ PUSH2 0xAF JUMPI DUP1 PUSH4 0x98E4F581 EQ PUSH2 0xDF JUMPI JUMPDEST PUSH0 DUP1 REVERT JUMPDEST PUSH2 0x99 PUSH1 0x4 DUP1 CALLDATASIZE SUB DUP2 ADD SWAP1 PUSH2 0x94 SWAP2 SWAP1 PUSH2 0x676 JUMP JUMPDEST PUSH2 0x1CF JUMP JUMPDEST PUSH1 0x40 MLOAD PUSH2 0xA6 SWAP2 SWAP1 PUSH2 0x711 JUMP JUMPDEST PUSH1 0x40 MLOAD DUP1 SWAP2 SUB SWAP1 RETURN JUMPDEST PUSH2 0xC9 PUSH1 0x4 DUP1 CALLDATASIZE SUB DUP2 ADD SWAP1 PUSH2 0xC4 SWAP2 SWAP1 PUSH2 0x676 JUMP JUMPDEST PUSH2 0x272 JUMP JUMPDEST PUSH1 0x40 MLOAD PUSH2 0xD6 SWAP2 SWAP1 PUSH2 0x711 JUMP JUMPDEST PUSH1 0x40 MLOAD DUP1 SWAP2 SUB SWAP1 RETURN JUMPDEST PUSH2 0xF9 PUSH1 0x4 DUP1 CALLDATASIZE SUB DUP2 ADD SWAP1 PUSH2 0xF4 SWAP2 SWAP1 PUSH2 0x676 JUMP JUMPDEST PUSH2 0x315 JUMP JUMPDEST PUSH1 0x40 MLOAD PUSH2 0x106 SWAP2 SWAP1 PUSH2 0x711 JUMP JUMPDEST PUSH1 0x40 MLOAD DUP1 SWAP2 SUB SWAP1 RETURN JUMPDEST PUSH2 0x129 PUSH1 0x4 DUP1 CALLDATASIZE SUB DUP2 ADD SWAP1 PUSH2 0x124 SWAP2 SWAP1 PUSH2 0x676 JUMP JUMPDEST PUSH2 0x3B7 JUMP JUMPDEST PUSH1 0x40 MLOAD PUSH2 0x136 SWAP2 SWAP1 PUSH2 0x711 JUMP JUMPDEST PUSH1 0x40 MLOAD DUP1 SWAP2 SUB SWAP1 RETURN JUMPDEST PUSH2 0x159 PUSH1 0x4 DUP1 CALLDATASIZE SUB DUP2 ADD SWAP1 PUSH2 0x154 SWAP2 SWAP1 PUSH2 0x676 JUMP JUMPDEST PUSH2 0x45A JUMP JUMPDEST PUSH1 0x40 MLOAD PUSH2 0x166 SWAP2 SWAP1 PUSH2 0x711 JUMP JUMPDEST PUSH1 0x40 MLOAD DUP1 SWAP2 SUB SWAP1 RETURN JUMPDEST PUSH2 0x189 PUSH1 0x4 DUP1 CALLDATASIZE SUB DUP2 ADD SWAP1 PUSH2 0x184 SWAP2 SWAP1 PUSH2 0x676 JUMP JUMPDEST PUSH2 0x4F9 JUMP JUMPDEST PUSH1 0x40 MLOAD PUSH2 0x196 SWAP2 SWAP1 PUSH2 0x711 JUMP JUMPDEST PUSH1 0x40 MLOAD DUP1 SWAP2 SUB SWAP1 RETURN JUMPDEST PUSH2 0x1B9 PUSH1 0x4 DUP1 CALLDATASIZE SUB DUP2 ADD SWAP1 PUSH2 0x1B4 SWAP2 SWAP1 PUSH2 0x676 JUMP JUMPDEST PUSH2 0x59C JUMP JUMPDEST PUSH1 0x40 MLOAD PUSH2 0x1C6 SWAP2 SWAP1 PUSH2 0x711 JUMP JUMPDEST PUSH1 0x40 MLOAD DUP1 SWAP2 SUB SWAP1 RETURN JUMPDEST PUSH1 0x60 PUSH1 0x1 PUSH0 ADD PUSH0 DUP4 DUP2 MSTORE PUSH1 0x20 ADD SWAP1 DUP2 MSTORE PUSH1 0x20 ADD PUSH0 KECCAK256 DUP1 SLOAD PUSH2 0x1EF SWAP1 PUSH2 0x75E JUMP JUMPDEST DUP1 PUSH1 0x1F ADD PUSH1 0x20 DUP1 SWAP2 DIV MUL PUSH1 0x20 ADD PUSH1 0x40 MLOAD SWAP1 DUP2 ADD PUSH1 0x40 MSTORE DUP1 SWAP3 SWAP2 SWAP1 DUP2 DUP2 MSTORE PUSH1 0x20 ADD DUP3 DUP1 SLOAD PUSH2 0x21B SWAP1 PUSH2 0x75E JUMP JUMPDEST DUP1 ISZERO PUSH2 0x266 JUMPI DUP1 PUSH1 0x1F LT PUSH2 0x23D JUMPI PUSH2 0x100 DUP1 DUP4 SLOAD DIV MUL DUP4 MSTORE SWAP2 PUSH1 0x20 ADD SWAP2 PUSH2 0x266 JUMP JUMPDEST DUP3 ADD SWAP2 SWAP1 PUSH0 MSTORE PUSH1 0x20 PUSH0 KECCAK256 SWAP1 JUMPDEST DUP2 SLOAD DUP2 MSTORE SWAP1 PUSH1 0x1 ADD SWAP1 PUSH1 0x20 ADD DUP1 DUP4 GT PUSH2 0x249 JUMPI DUP3 SWAP1 SUB PUSH1 0x1F AND DUP3 ADD SWAP2 JUMPDEST POP POP POP POP POP SWAP1 POP SWAP2 SWAP1 POP JUMP JUMPDEST PUSH1 0x60 PUSH1 0x2 PUSH0 ADD PUSH0 DUP4 DUP2 MSTORE PUSH1 0x20 ADD SWAP1 DUP2 MSTORE PUSH1 0x20 ADD PUSH0 KECCAK256 DUP1 SLOAD PUSH2 0x292 SWAP1 PUSH2 0x75E JUMP JUMPDEST DUP1 PUSH1 0x1F ADD PUSH1 0x20 DUP1 SWAP2 DIV MUL PUSH1 0x20 ADD PUSH1 0x40 MLOAD SWAP1 DUP2 ADD PUSH1 0x40 MSTORE DUP1 SWAP3 SWAP2 SWAP1 DUP2 DUP2 MSTORE PUSH1 0x20 ADD DUP3 DUP1 SLOAD PUSH2 0x2BE SWAP1 PUSH2 0x75E JUMP JUMPDEST DUP1 ISZERO PUSH2 0x309 JUMPI DUP1 PUSH1 0x1F LT PUSH2 0x2E0 JUMPI PUSH2 0x100 DUP1 DUP4 SLOAD DIV MUL DUP4 MSTORE SWAP2 PUSH1 0x20 ADD SWAP2 PUSH2 0x309 JUMP JUMPDEST DUP3 ADD SWAP2 SWAP1 PUSH0 MSTORE PUSH1 0x20 PUSH0 KECCAK256 SWAP1 JUMPDEST DUP2 SLOAD DUP2 MSTORE SWAP1 PUSH1 0x1 ADD SWAP1 PUSH1 0x20 ADD DUP1 DUP4 GT PUSH2 0x2EC JUMPI DUP3 SWAP1 SUB PUSH1 0x1F AND DUP3 ADD SWAP2 JUMPDEST POP POP POP POP POP SWAP1 POP SWAP2 SWAP1 POP JUMP JUMPDEST PUSH1 0x60 PUSH0 DUP1 ADD PUSH0 DUP4 DUP2 MSTORE PUSH1 0x20 ADD SWAP1 DUP2 MSTORE PUSH1 0x20 ADD PUSH0 KECCAK256 DUP1 SLOAD PUSH2 0x334 SWAP1 PUSH2 0x75E JUMP JUMPDEST DUP1 PUSH1 0x1F ADD PUSH1 0x20 DUP1 SWAP2 DIV MUL PUSH1 0x20 ADD PUSH1 0x40 MLOAD SWAP1 DUP2 ADD PUSH1 0x40 MSTORE DUP1 SWAP3 SWAP2 SWAP1 DUP2 DUP2 MSTORE PUSH1 0x20 ADD DUP3 DUP1 SLOAD PUSH2 0x360 SWAP1 PUSH2 0x75E JUMP JUMPDEST DUP1 ISZERO PUSH2 0x3AB JUMPI DUP1 PUSH1 0x1F LT PUSH2 0x382 JUMPI PUSH2 0x100 DUP1 DUP4 SLOAD DIV MUL DUP4 MSTORE SWAP2 PUSH1 0x20 ADD SWAP2 PUSH2 0x3AB JUMP JUMPDEST DUP3 ADD SWAP2 SWAP1 PUSH0 MSTORE PUSH1 0x20 PUSH0 KECCAK256 SWAP1 JUMPDEST DUP2 SLOAD DUP2 MSTORE SWAP1 PUSH1 0x1 ADD SWAP1 PUSH1 0x20 ADD DUP1 DUP4 GT PUSH2 0x38E JUMPI DUP3 SWAP1 SUB PUSH1 0x1F AND DUP3 ADD SWAP2 JUMPDEST POP POP POP POP POP SWAP1 POP SWAP2 SWAP1 POP JUMP JUMPDEST PUSH1 0x60 PUSH1 0x3 PUSH0 ADD PUSH0 DUP4 DUP2 MSTORE PUSH1 0x20 ADD SWAP1 DUP2 MSTORE PUSH1 0x20 ADD PUSH0 KECCAK256 DUP1 SLOAD PUSH2 0x3D7 SWAP1 PUSH2 0x75E JUMP JUMPDEST DUP1 PUSH1 0x1F ADD PUSH1 0x20 DUP1 SWAP2 DIV MUL PUSH1 0x20 ADD PUSH1 0x40 MLOAD SWAP1 DUP2 ADD PUSH1 0x40 MSTORE DUP1 SWAP3 SWAP2 SWAP1 DUP2 DUP2 MSTORE PUSH1 0x20 ADD DUP3 DUP1 SLOAD PUSH2 0x403 SWAP1 PUSH2 0x75E JUMP JUMPDEST DUP1 ISZERO PUSH2 0x44E JUMPI DUP1 PUSH1 0x1F LT PUSH2 0x425 JUMPI PUSH2 0x100 DUP1 DUP4 SLOAD DIV MUL DUP4 MSTORE SWAP2 PUSH1 0x20 ADD SWAP2 PUSH2 0x44E JUMP JUMPDEST DUP3 ADD SWAP2 SWAP1 PUSH0 MSTORE PUSH1 0x20 PUSH0 KECCAK256 SWAP1 JUMPDEST DUP2 SLOAD DUP2 MSTORE SWAP1 PUSH1 0x1 ADD SWAP1 PUSH1 0x20 ADD DUP1 DUP4 GT PUSH2 0x431 JUMPI DUP3 SWAP1 SUB PUSH1 0x1F AND DUP3 ADD SWAP2 JUMPDEST POP POP POP POP POP SWAP1 POP SWAP2 SWAP1 POP JUMP JUMPDEST PUSH1 0x6 DUP2 PUSH1 0x6 DUP2 LT PUSH2 0x469 JUMPI PUSH0 DUP1 REVERT JUMPDEST ADD PUSH0 SWAP2 POP SWAP1 POP DUP1 SLOAD PUSH2 0x47A SWAP1 PUSH2 0x75E JUMP JUMPDEST DUP1 PUSH1 0x1F ADD PUSH1 0x20 DUP1 SWAP2 DIV MUL PUSH1 0x20 ADD PUSH1 0x40 MLOAD SWAP1 DUP2 ADD PUSH1 0x40 MSTORE DUP1 SWAP3 SWAP2 SWAP1 DUP2 DUP2 MSTORE PUSH1 0x20 ADD DUP3 DUP1 SLOAD PUSH2 0x4A6 SWAP1 PUSH2 0x75E JUMP JUMPDEST DUP1 ISZERO PUSH2 0x4F1 JUMPI DUP1 PUSH1 0x1F LT PUSH2 0x4C8 JUMPI PUSH2 0x100 DUP1 DUP4 SLOAD DIV MUL DUP4 MSTORE SWAP2 PUSH1 0x20 ADD SWAP2 PUSH2 0x4F1 JUMP JUMPDEST DUP3 ADD SWAP2 SWAP1 PUSH0 MSTORE PUSH1 0x20 PUSH0 KECCAK256 SWAP1 JUMPDEST DUP2 SLOAD DUP2 MSTORE SWAP1 PUSH1 0x1 ADD SWAP1 PUSH1 0x20 ADD DUP1 DUP4 GT PUSH2 0x4D4 JUMPI DUP3 SWAP1 SUB PUSH1 0x1F AND DUP3 ADD SWAP2 JUMPDEST POP POP POP POP POP DUP2 JUMP JUMPDEST PUSH1 0x60 PUSH1 0x4 PUSH0 ADD PUSH0 DUP4 DUP2 MSTORE PUSH1 0x20 ADD SWAP1 DUP2 MSTORE PUSH1 0x20 ADD PUSH0 KECCAK256 DUP1 SLOAD PUSH2 0x519 SWAP1 PUSH2 0x75E JUMP JUMPDEST DUP1 PUSH1 0x1F ADD PUSH1 0x20 DUP1 SWAP2 DIV MUL PUSH1 0x20 ADD PUSH1 0x40 MLOAD SWAP1 DUP2 ADD PUSH1 0x40 MSTORE DUP1 SWAP3 SWAP2 SWAP1 DUP2 DUP2 MSTORE PUSH1 0x20 ADD DUP3 DUP1 SLOAD PUSH2 0x545 SWAP1 PUSH2 0x75E JUMP JUMPDEST DUP1 ISZERO PUSH2 0x590 JUMPI DUP1 PUSH1 0x1F LT PUSH2 0x567 JUMPI PUSH2 0x100 DUP1 DUP4 SLOAD DIV MUL DUP4 MSTORE SWAP2 PUSH1 0x20 ADD SWAP2 PUSH2 0x590 JUMP JUMPDEST DUP3 ADD SWAP2 SWAP1 PUSH0 MSTORE PUSH1 0x20 PUSH0 KECCAK256 SWAP1 JUMPDEST DUP2 SLOAD DUP2 MSTORE SWAP1 PUSH1 0x1 ADD SWAP1 PUSH1 0x20 ADD DUP1 DUP4 GT PUSH2 0x573 JUMPI DUP3 SWAP1 SUB PUSH1 0x1F AND DUP3 ADD SWAP2 JUMPDEST POP POP POP POP POP SWAP1 POP SWAP2 SWAP1 POP JUMP JUMPDEST PUSH1 0x60 PUSH1 0x5 PUSH0 ADD PUSH0 DUP4 DUP2 MSTORE PUSH1 0x20 ADD SWAP1 DUP2 MSTORE PUSH1 0x20 ADD PUSH0 KECCAK256 DUP1 SLOAD PUSH2 0x5BC SWAP1 PUSH2 0x75E JUMP JUMPDEST DUP1 PUSH1 0x1F ADD PUSH1 0x20 DUP1 SWAP2 DIV MUL PUSH1 0x20 ADD PUSH1 0x40 MLOAD SWAP1 DUP2 ADD PUSH1 0x40 MSTORE DUP1 SWAP3 SWAP2 SWAP1 DUP2 DUP2 MSTORE PUSH1 0x20 ADD DUP3 DUP1 SLOAD PUSH2 0x5E8 SWAP1 PUSH2 0x75E JUMP JUMPDEST DUP1 ISZERO PUSH2 0x633 JUMPI DUP1 PUSH1 0x1F LT PUSH2 0x60A JUMPI PUSH2 0x100 DUP1 DUP4 SLOAD DIV MUL DUP4 MSTORE SWAP2 PUSH1 0x20 ADD SWAP2 PUSH2 0x633 JUMP JUMPDEST DUP3 ADD SWAP2 SWAP1 PUSH0 MSTORE PUSH1 0x20 PUSH0 KECCAK256 SWAP1 JUMPDEST DUP2 SLOAD DUP2 MSTORE SWAP1 PUSH1 0x1 ADD SWAP1 PUSH1 0x20 ADD DUP1 DUP4 GT PUSH2 0x616 JUMPI DUP3 SWAP1 SUB PUSH1 0x1F AND DUP3 ADD SWAP2 JUMPDEST POP POP POP POP POP SWAP1 POP SWAP2 SWAP1 POP JUMP JUMPDEST PUSH0 DUP1 REVERT JUMPDEST PUSH0 DUP2 SWAP1 POP SWAP2 SWAP1 POP JUMP JUMPDEST PUSH2 0x655 DUP2 PUSH2 0x643 JUMP JUMPDEST DUP2 EQ PUSH2 0x65F JUMPI PUSH0 DUP1 REVERT JUMPDEST POP JUMP JUMPDEST PUSH0 DUP2 CALLDATALOAD SWAP1 POP PUSH2 0x670 DUP2 PUSH2 0x64C JUMP JUMPDEST SWAP3 SWAP2 POP POP JUMP JUMPDEST PUSH0 PUSH1 0x20 DUP3 DUP5 SUB SLT ISZERO PUSH2 0x68B JUMPI PUSH2 0x68A PUSH2 0x63F JUMP JUMPDEST JUMPDEST PUSH0 PUSH2 0x698 DUP5 DUP3 DUP6 ADD PUSH2 0x662 JUMP JUMPDEST SWAP2 POP POP SWAP3 SWAP2 POP POP JUMP JUMPDEST PUSH0 DUP2 MLOAD SWAP1 POP SWAP2 SWAP1 POP JUMP JUMPDEST PUSH0 DUP3 DUP3 MSTORE PUSH1 0x20 DUP3 ADD SWAP1 POP SWAP3 SWAP2 POP POP JUMP JUMPDEST DUP3 DUP2 DUP4 MCOPY PUSH0 DUP4 DUP4 ADD MSTORE POP POP POP JUMP JUMPDEST PUSH0 PUSH1 0x1F NOT PUSH1 0x1F DUP4 ADD AND SWAP1 POP SWAP2 SWAP1 POP JUMP JUMPDEST PUSH0 PUSH2 0x6E3 DUP3 PUSH2 0x6A1 JUMP JUMPDEST PUSH2 0x6ED DUP2 DUP6 PUSH2 0x6AB JUMP JUMPDEST SWAP4 POP PUSH2 0x6FD DUP2 DUP6 PUSH1 0x20 DUP7 ADD PUSH2 0x6BB JUMP JUMPDEST PUSH2 0x706 DUP2 PUSH2 0x6C9 JUMP JUMPDEST DUP5 ADD SWAP2 POP POP SWAP3 SWAP2 POP POP JUMP JUMPDEST PUSH0 PUSH1 0x20 DUP3 ADD SWAP1 POP DUP2 DUP2 SUB PUSH0 DUP4 ADD MSTORE PUSH2 0x729 DUP2 DUP5 PUSH2 0x6D9 JUMP JUMPDEST SWAP1 POP SWAP3 SWAP2 POP POP JUMP JUMPDEST PUSH32 0x4E487B7100000000000000000000000000000000000000000000000000000000 PUSH0 MSTORE PUSH1 0x22 PUSH1 0x4 MSTORE PUSH1 0x24 PUSH0 REVERT JUMPDEST PUSH0 PUSH1 0x2 DUP3 DIV SWAP1 POP PUSH1 0x1 DUP3 AND DUP1 PUSH2 0x775 JUMPI PUSH1 0x7F DUP3 AND SWAP2 POP JUMPDEST PUSH1 0x20 DUP3 LT DUP2 SUB PUSH2 0x788 JUMPI PUSH2 0x787 PUSH2 0x731 JUMP JUMPDEST JUMPDEST POP SWAP2 SWAP1 POP JUMP INVALID LOG2 PUSH5 0x6970667358 0x22 SLT KECCAK256 DUP16 0xCC DUP1 0xC4 0xA9 0xB6 0xA9 NUMBER 0xD0 LOG4 0x2F 0x4F CALL 0xD4 0x4C RETURN 0xD0 GASPRICE DUP13 0xE4 EXTCODESIZE 0xE9 0xC1 MCOPY XOR PUSH23 0x2F6E81CABB2364736F6C634300081A0033000000000000 "
				},
				"gasEstimates": {
					"creation": {
						"codeDepositCost": "397600",
						"executionCost": "infinite",
						"totalCost": "infinite"
					},
					"external": {
						"colours(uint256)": "infinite",
						"getEyes(uint256)": "infinite",
						"getHat(uint256)": "infinite",
						"getPants(uint256)": "infinite",
						"getShirt(uint256)": "infinite",
						"getSkin(uint256)": "infinite",
						"getSpecial(uint256)": "infinite"
					}
				},
				"methodIdentifiers": {
					"colours(uint256)": "c76ab940",
					"getEyes(uint256)": "c4d30bfa",
					"getHat(uint256)": "d2571f88",
					"getPants(uint256)": "4337932d",
					"getShirt(uint256)": "4c9c05ea",
					"getSkin(uint256)": "98e4f581",
					"getSpecial(uint256)": "e1d916f7"
				}
			},
			"storageLayout": {
				"storage": [
					{
						"astId": 9,
						"contract": "contracts/HamPepeTraits1.sol:HamPepeTraits1",
						"label": "skin",
						"offset": 0,
						"slot": "0",
						"type": "t_struct(TraitInfo)6_storage"
					},
					{
						"astId": 12,
						"contract": "contracts/HamPepeTraits1.sol:HamPepeTraits1",
						"label": "pants",
						"offset": 0,
						"slot": "1",
						"type": "t_struct(TraitInfo)6_storage"
					},
					{
						"astId": 15,
						"contract": "contracts/HamPepeTraits1.sol:HamPepeTraits1",
						"label": "shirt",
						"offset": 0,
						"slot": "2",
						"type": "t_struct(TraitInfo)6_storage"
					},
					{
						"astId": 18,
						"contract": "contracts/HamPepeTraits1.sol:HamPepeTraits1",
						"label": "eyes",
						"offset": 0,
						"slot": "3",
						"type": "t_struct(TraitInfo)6_storage"
					},
					{
						"astId": 21,
						"contract": "contracts/HamPepeTraits1.sol:HamPepeTraits1",
						"label": "hat",
						"offset": 0,
						"slot": "4",
						"type": "t_struct(TraitInfo)6_storage"
					},
					{
						"astId": 24,
						"contract": "contracts/HamPepeTraits1.sol:HamPepeTraits1",
						"label": "special",
						"offset": 0,
						"slot": "5",
						"type": "t_struct(TraitInfo)6_storage"
					},
					{
						"astId": 35,
						"contract": "contracts/HamPepeTraits1.sol:HamPepeTraits1",
						"label": "colours",
						"offset": 0,
						"slot": "6",
						"type": "t_array(t_string_storage)6_storage"
					}
				],
				"types": {
					"t_array(t_string_storage)6_storage": {
						"base": "t_string_storage",
						"encoding": "inplace",
						"label": "string[6]",
						"numberOfBytes": "192"
					},
					"t_mapping(t_uint256,t_string_storage)": {
						"encoding": "mapping",
						"key": "t_uint256",
						"label": "mapping(uint256 => string)",
						"numberOfBytes": "32",
						"value": "t_string_storage"
					},
					"t_string_storage": {
						"encoding": "bytes",
						"label": "string",
						"numberOfBytes": "32"
					},
					"t_struct(TraitInfo)6_storage": {
						"encoding": "inplace",
						"label": "struct HamPepeTraits1.TraitInfo",
						"members": [
							{
								"astId": 5,
								"contract": "contracts/HamPepeTraits1.sol:HamPepeTraits1",
								"label": "map",
								"offset": 0,
								"slot": "0",
								"type": "t_mapping(t_uint256,t_string_storage)"
							}
						],
						"numberOfBytes": "32"
					},
					"t_uint256": {
						"encoding": "inplace",
						"label": "uint256",
						"numberOfBytes": "32"
					}
				}
			},
			"userdoc": {
				"kind": "user",
				"methods": {},
				"version": 1
			}
		}
	}
}