{
	"data": {
		"bytecode": {
			"linkReferences": {},
			"object": "60806040526040518060c001604052806040518060400160405280600781526020017f233733303745410000000000000000000000000000000000000000000000000081525081526020016040518060400160405280600781526020017f233466666662650000000000000000000000000000000000000000000000000081525081526020016040518060400160405280600781526020017f233030626366650000000000000000000000000000000000000000000000000081525081526020016040518060400160405280600781526020017f236564643930300000000000000000000000000000000000000000000000000081525081526020016040518060400160405280600781526020017f236666616365620000000000000000000000000000000000000000000000000081525081526020016040518060400160405280600781526020017f2361356135613500000000000000000000000000000000000000000000000000815250815250600690600661017f929190611391565b5034801561018b575f80fd5b506040518060400160405280600881526020017f536b656c65746f6e0000000000000000000000000000000000000000000000008152505f80015f600181526020019081526020015f2090816101e19190611692565b506040518060400160405280600581526020017f526f626f740000000000000000000000000000000000000000000000000000008152505f80015f600281526020019081526020015f2090816102379190611692565b506040518060400160405280600581526020017f4a656c6c790000000000000000000000000000000000000000000000000000008152505f80015f600381526020019081526020015f20908161028d9190611692565b506040518060400160405280600d81526020017f4f72616e67652073686f7274730000000000000000000000000000000000000081525060015f015f600481526020019081526020015f2090816102e49190611692565b506040518060400160405280600b81526020017f50696e6b2073686f72747300000000000000000000000000000000000000000081525060015f015f600581526020019081526020015f20908161033b9190611692565b506040518060400160405280600b81526020017f477265792073686f72747300000000000000000000000000000000000000000081525060015f015f600681526020019081526020015f2090816103929190611692565b506040518060400160405280600c81526020017f42726f776e2073686f727473000000000000000000000000000000000000000081525060015f015f600781526020019081526020015f2090816103e99190611692565b506040518060400160405280600981526020017f54616e2070616e7473000000000000000000000000000000000000000000000081525060015f015f600881526020019081526020015f2090816104409190611692565b506040518060400160405280600a81526020017f426c7565206a65616e730000000000000000000000000000000000000000000081525060015f015f600981526020019081526020015f2090816104979190611692565b506040518060400160405280600481526020017f4b696c740000000000000000000000000000000000000000000000000000000081525060015f015f600a81526020019081526020015f2090816104ee9190611692565b506040518060400160405280600a81526020017f426c75652073686972740000000000000000000000000000000000000000000081525060025f015f600b81526020019081526020015f2090816105459190611692565b506040518060400160405280600981526020017f4d69616d692044414f000000000000000000000000000000000000000000000081525060025f015f600c81526020019081526020015f20908161059c9190611692565b506040518060400160405280600881526020017f4261736562616c6c00000000000000000000000000000000000000000000000081525060025f015f600d81526020019081526020015f2090816105f39190611692565b506040518060400160405280600881526020017f4f766572616c6c7300000000000000000000000000000000000000000000000081525060025f015f600e81526020019081526020015f20908161064a9190611692565b506040518060400160405280600e81526020017f556e69636f726e20666c6f61747900000000000000000000000000000000000081525060025f015f600f81526020019081526020015f2090816106a19190611692565b506040518060400160405280600f81526020017f426c61636b20747261636b73756974000000000000000000000000000000000081525060025f015f601081526020019081526020015f2090816106f89190611692565b506040518060400160405280600d81526020017f52656420747261636b737569740000000000000000000000000000000000000081525060025f015f601181526020019081526020015f20908161074f9190611692565b506040518060400160405280600881526020017f5261696e636f617400000000000000000000000000000000000000000000000081525060025f015f601281526020019081526020015f2090816107a69190611692565b506040518060400160405280600981526020017f4661737420666f6f64000000000000000000000000000000000000000000000081525060025f015f601381526020019081526020015f2090816107fd9190611692565b506040518060400160405280600681526020017f496e7465726e000000000000000000000000000000000000000000000000000081525060025f015f601481526020019081526020015f2090816108549190611692565b506040518060400160405280600d81526020017f426f776c696e672073686972740000000000000000000000000000000000000081525060025f015f601581526020019081526020015f2090816108ab9190611692565b506040518060400160405280600b81526020017f42616a6120486f6f64696500000000000000000000000000000000000000000081525060025f015f601681526020019081526020015f2090816109029190611692565b506040518060400160405280600681526020017f536861646573000000000000000000000000000000000000000000000000000081525060035f015f601781526020019081526020015f2090816109599190611692565b506040518060400160405280600981526020017f53756e6e7973696465000000000000000000000000000000000000000000000081525060035f015f601881526020019081526020015f2090816109b09190611692565b506040518060400160405280600781526020017f4e6f67676c65730000000000000000000000000000000000000000000000000081525060035f015f601981526020019081526020015f209081610a079190611692565b506040518060400160405280600a81526020017f334420476c61737365730000000000000000000000000000000000000000000081525060035f015f601a81526020019081526020015f209081610a5e9190611692565b506040518060400160405280600681526020017f536d6f6b6564000000000000000000000000000000000000000000000000000081525060035f015f601b81526020019081526020015f209081610ab59190611692565b506040518060400160405280600481526020017f4d61736b0000000000000000000000000000000000000000000000000000000081525060035f015f601c81526020019081526020015f209081610b0c9190611692565b506040518060400160405280600481526020017f436f6f6c0000000000000000000000000000000000000000000000000000000081525060035f015f601d81526020019081526020015f209081610b639190611692565b506040518060400160405280600581526020017f566970657200000000000000000000000000000000000000000000000000000081525060035f015f601e81526020019081526020015f209081610bba9190611692565b506040518060400160405280600781526020017f436c61737369630000000000000000000000000000000000000000000000000081525060045f015f601f81526020019081526020015f209081610c119190611692565b506040518060400160405280600581526020017f446567656e00000000000000000000000000000000000000000000000000000081525060045f015f602081526020019081526020015f209081610c689190611692565b506040518060400160405280600681526020017f57697a617264000000000000000000000000000000000000000000000000000081525060045f015f602181526020019081526020015f209081610cbf9190611692565b506040518060400160405280600581526020017f426173656400000000000000000000000000000000000000000000000000000081525060045f015f602281526020019081526020015f209081610d169190611692565b506040518060400160405280600381526020017f46657a000000000000000000000000000000000000000000000000000000000081525060045f015f602381526020019081526020015f209081610d6d9190611692565b506040518060400160405280600a81526020017f4865616470686f6e65730000000000000000000000000000000000000000000081525060045f015f602481526020019081526020015f209081610dc49190611692565b506040518060400160405280600481526020017f48616c6f0000000000000000000000000000000000000000000000000000000081525060045f015f602581526020019081526020015f209081610e1b9190611692565b506040518060400160405280600681526020017f436f77626f79000000000000000000000000000000000000000000000000000081525060045f015f602681526020019081526020015f209081610e729190611692565b506040518060400160405280600781526020017f5370696e6e65720000000000000000000000000000000000000000000000000081525060045f015f602781526020019081526020015f209081610ec99190611692565b506040518060400160405280600481526020017f42616e640000000000000000000000000000000000000000000000000000000081525060045f015f602881526020019081526020015f209081610f209190611692565b506040518060400160405280600681526020017f4265616e6965000000000000000000000000000000000000000000000000000081525060045f015f602981526020019081526020015f209081610f779190611692565b506040518060400160405280600681526020017f5370726f7574000000000000000000000000000000000000000000000000000081525060045f015f602a81526020019081526020015f209081610fce9190611692565b506040518060400160405280600581526020017f43726f776e00000000000000000000000000000000000000000000000000000081525060045f015f602b81526020019081526020015f2090816110259190611692565b506040518060400160405280600681526020017f506972617465000000000000000000000000000000000000000000000000000081525060045f015f602c81526020019081526020015f20908161107c9190611692565b506040518060400160405280600581526020017f506172747900000000000000000000000000000000000000000000000000000081525060045f015f602d81526020019081526020015f2090816110d39190611692565b506040518060400160405280600a81526020017f4c65707265636861756e0000000000000000000000000000000000000000000081525060045f015f602e81526020019081526020015f20908161112a9190611692565b506040518060400160405280600781526020017f526f6f737465720000000000000000000000000000000000000000000000000081525060045f015f602f81526020019081526020015f2090816111819190611692565b506040518060400160405280600981526020017f436967617265747465000000000000000000000000000000000000000000000081525060055f015f603081526020019081526020015f2090816111d89190611692565b506040518060400160405280600481526020017f566170650000000000000000000000000000000000000000000000000000000081525060055f015f603181526020019081526020015f20908161122f9190611692565b506040518060400160405280600481526020017f506970650000000000000000000000000000000000000000000000000000000081525060055f015f603281526020019081526020015f2090816112869190611692565b506040518060400160405280600481526020017f50756b650000000000000000000000000000000000000000000000000000000081525060055f015f603381526020019081526020015f2090816112dd9190611692565b506040518060400160405280600681526020017f427562626c65000000000000000000000000000000000000000000000000000081525060055f015f603481526020019081526020015f2090816113349190611692565b506040518060400160405280600581526020017f436967617200000000000000000000000000000000000000000000000000000081525060055f015f603581526020019081526020015f20908161138b9190611692565b50611761565b82600681019282156113cc579160200282015b828111156113cb5782518290816113bb9190611692565b50916020019190600101906113a4565b5b5090506113d991906113dd565b5090565b5b808211156113fc575f81816113f39190611400565b506001016113de565b5090565b50805461140c906114bc565b5f825580601f1061141d575061143a565b601f0160209004905f5260205f2090810190611439919061143d565b5b50565b5b80821115611454575f815f90555060010161143e565b5090565b5f81519050919050565b7f4e487b71000000000000000000000000000000000000000000000000000000005f52604160045260245ffd5b7f4e487b71000000000000000000000000000000000000000000000000000000005f52602260045260245ffd5b5f60028204905060018216806114d357607f821691505b6020821081036114e6576114e561148f565b5b50919050565b5f819050815f5260205f209050919050565b5f6020601f8301049050919050565b5f82821b905092915050565b5f600883026115487fffffffffffffffffffffffffffffffffffffffffffffffffffffffffffffffff8261150d565b611552868361150d565b95508019841693508086168417925050509392505050565b5f819050919050565b5f819050919050565b5f61159661159161158c8461156a565b611573565b61156a565b9050919050565b5f819050919050565b6115af8361157c565b6115c36115bb8261159d565b848454611519565b825550505050565b5f90565b6115d76115cb565b6115e28184846115a6565b505050565b5b81811015611605576115fa5f826115cf565b6001810190506115e8565b5050565b601f82111561164a5761161b816114ec565b611624846114fe565b81016020851015611633578190505b61164761163f856114fe565b8301826115e7565b50505b505050565b5f82821c905092915050565b5f61166a5f198460080261164f565b1980831691505092915050565b5f611682838361165b565b9150826002028217905092915050565b61169b82611458565b67ffffffffffffffff8111156116b4576116b3611462565b5b6116be82546114bc565b6116c9828285611609565b5f60209050601f8311600181146116fa575f84156116e8578287015190505b6116f28582611677565b865550611759565b601f198416611708866114ec565b5f5b8281101561172f5784890151825560018201915060208501945060208101905061170a565b8683101561174c5784890151611748601f89168261165b565b8355505b6001600288020188555050505b505050505050565b6107c48061176e5f395ff3fe608060405234801561000f575f80fd5b506004361061007b575f3560e01c8063c4d30bfa11610059578063c4d30bfa1461010f578063c76ab9401461013f578063d2571f881461016f578063e1d916f71461019f5761007b565b80634337932d1461007f5780634c9c05ea146100af57806398e4f581146100df575b5f80fd5b61009960048036038101906100949190610676565b6101cf565b6040516100a69190610711565b60405180910390f35b6100c960048036038101906100c49190610676565b610272565b6040516100d69190610711565b60405180910390f35b6100f960048036038101906100f49190610676565b610315565b6040516101069190610711565b60405180910390f35b61012960048036038101906101249190610676565b6103b7565b6040516101369190610711565b60405180910390f35b61015960048036038101906101549190610676565b61045a565b6040516101669190610711565b60405180910390f35b61018960048036038101906101849190610676565b6104f9565b6040516101969190610711565b60405180910390f35b6101b960048036038101906101b49190610676565b61059c565b6040516101c69190610711565b60405180910390f35b606060015f015f8381526020019081526020015f2080546101ef9061075e565b80601f016020809104026020016040519081016040528092919081815260200182805461021b9061075e565b80156102665780601f1061023d57610100808354040283529160200191610266565b820191905f5260205f20905b81548152906001019060200180831161024957829003601f168201915b50505050509050919050565b606060025f015f8381526020019081526020015f2080546102929061075e565b80601f01602080910402602001604051908101604052809291908181526020018280546102be9061075e565b80156103095780601f106102e057610100808354040283529160200191610309565b820191905f5260205f20905b8154815290600101906020018083116102ec57829003601f168201915b50505050509050919050565b60605f80015f8381526020019081526020015f2080546103349061075e565b80601f01602080910402602001604051908101604052809291908181526020018280546103609061075e565b80156103ab5780601f10610382576101008083540402835291602001916103ab565b820191905f5260205f20905b81548152906001019060200180831161038e57829003601f168201915b50505050509050919050565b606060035f015f8381526020019081526020015f2080546103d79061075e565b80601f01602080910402602001604051908101604052809291908181526020018280546104039061075e565b801561044e5780601f106104255761010080835404028352916020019161044e565b820191905f5260205f20905b81548152906001019060200180831161043157829003601f168201915b50505050509050919050565b60068160068110610469575f80fd5b015f91509050805461047a9061075e565b80601f01602080910402602001604051908101604052809291908181526020018280546104a69061075e565b80156104f15780601f106104c8576101008083540402835291602001916104f1565b820191905f5260205f20905b8154815290600101906020018083116104d457829003601f168201915b505050505081565b606060045f015f8381526020019081526020015f2080546105199061075e565b80601f01602080910402602001604051908101604052809291908181526020018280546105459061075e565b80156105905780601f1061056757610100808354040283529160200191610590565b820191905f5260205f20905b81548152906001019060200180831161057357829003601f168201915b50505050509050919050565b606060055f015f8381526020019081526020015f2080546105bc9061075e565b80601f01602080910402602001604051908101604052809291908181526020018280546105e89061075e565b80156106335780601f1061060a57610100808354040283529160200191610633565b820191905f5260205f20905b81548152906001019060200180831161061657829003601f168201915b50505050509050919050565b5f80fd5b5f819050919050565b61065581610643565b811461065f575f80fd5b50565b5f813590506106708161064c565b92915050565b5f6020828403121561068b5761068a61063f565b5b5f61069884828501610662565b91505092915050565b5f81519050919050565b5f82825260208201905092915050565b8281835e5f83830152505050565b5f601f19601f8301169050919050565b5f6106e3826106a1565b6106ed81856106ab565b93506106fd8185602086016106bb565b610706816106c9565b840191505092915050565b5f6020820190508181035f83015261072981846106d9565b905092915050565b7f4e487b71000000000000000000000000000000000000000000000000000000005f52602260045260245ffd5b5f600282049050600182168061077557607f821691505b60208210810361078857610787610731565b5b5091905056fea2646970667358221220401c075cd8af1ebe467cdc02604b45de97bc5f66f98dc70446907159fbbea5e164736f6c634300081a0033",
			"opcodes": "PUSH1 0x80 PUSH1 0x40 MSTORE PUSH1 0x40 MLOAD DUP1 PUSH1 0xC0 ADD PUSH1 0x40 MSTORE DUP1 PUSH1 0x40 MLOAD DUP1 PUSH1 0x40 ADD PUSH1 0x40 MSTORE DUP1 PUSH1 0x7 DUP2 MSTORE PUSH1 0x20 ADD PUSH32 0x2337333037454100000000000000000000000000000000000000000000000000 DUP2 MSTORE POP DUP2 MSTORE PUSH1 0x20 ADD PUSH1 0x40 MLOAD DUP1 PUSH1 0x40 ADD PUSH1 0x40 MSTORE DUP1 PUSH1 0x7 DUP2 MSTORE PUSH1 0x20 ADD PUSH32 0x2334666666626500000000000000000000000000000000000000000000000000 DUP2 MSTORE POP DUP2 MSTORE PUSH1 0x20 ADD PUSH1 0x40 MLOAD DUP1 PUSH1 0x40 ADD PUSH1 0x40 MSTORE DUP1 PUSH1 0x7 DUP2 MSTORE PUSH1 0x20 ADD PUSH32 0x2330306263666500000000000000000000000000000000000000000000000000 DUP2 MSTORE POP DUP2 MSTORE PUSH1 0x20 ADD PUSH1 0x40 MLOAD DUP1 PUSH1 0x40 ADD PUSH1 0x40 MSTORE DUP1 PUSH1 0x7 DUP2 MSTORE PUSH1 0x20 ADD PUSH32 0x2365646439303000000000000000000000000000000000000000000000000000 DUP2 MSTORE POP DUP2 MSTORE PUSH1 0x20 ADD PUSH1 0x40 MLOAD DUP1 PUSH1 0x40 ADD PUSH1 0x40 MSTORE DUP1 PUSH1 0x7 DUP2 MSTORE PUSH1 0x20 ADD PUSH32 0x2366666163656200000000000000000000000000000000000000000000000000 DUP2 MSTORE POP DUP2 MSTORE PUSH1 0x20 ADD PUSH1 0x40 MLOAD DUP1 PUSH1 0x40 ADD PUSH1 0x40 MSTORE DUP1 PUSH1 0x7 DUP2 MSTORE PUSH1 0x20 ADD PUSH32 0x2361356135613500000000000000000000000000000000000000000000000000 DUP2 MSTORE POP DUP2 MSTORE POP PUSH1 0x6 SWAP1 PUSH1 0x6 PUSH2 0x17F SWAP3 SWAP2 SWAP1 PUSH2 0x1391 JUMP JUMPDEST POP CALLVALUE DUP1 ISZERO PUSH2 0x18B JUMPI PUSH0 DUP1 REVERT JUMPDEST POP PUSH1 0x40 MLOAD DUP1 PUSH1 0x40 ADD PUSH1 0x40 MSTORE DUP1 PUSH1 0x8 DUP2 MSTORE PUSH1 0x20 ADD PUSH32 0x536B656C65746F6E000000000000000000000000000000000000000000000000 DUP2 MSTORE POP PUSH0 DUP1 ADD PUSH0 PUSH1 0x1 DUP2 MSTORE PUSH1 0x20 ADD SWAP1 DUP2 MSTORE PUSH1 0x20 ADD PUSH0 KECCAK256 SWAP1 DUP2 PUSH2 0x1E1 SWAP2 SWAP1 PUSH2 0x1692 JUMP JUMPDEST POP PUSH1 0x40 MLOAD DUP1 PUSH1 0x40 ADD PUSH1 0x40 MSTORE DUP1 PUSH1 0x5 DUP2 MSTORE PUSH1 0x20 ADD PUSH32 0x526F626F74000000000000000000000000000000000000000000000000000000 DUP2 MSTORE POP PUSH0 DUP1 ADD PUSH0 PUSH1 0x2 DUP2 MSTORE PUSH1 0x20 ADD SWAP1 DUP2 MSTORE PUSH1 0x20 ADD PUSH0 KECCAK256 SWAP1 DUP2 PUSH2 0x237 SWAP2 SWAP1 PUSH2 0x1692 JUMP JUMPDEST POP PUSH1 0x40 MLOAD DUP1 PUSH1 0x40 ADD PUSH1 0x40 MSTORE DUP1 PUSH1 0x5 DUP2 MSTORE PUSH1 0x20 ADD PUSH32 0x4A656C6C79000000000000000000000000000000000000000000000000000000 DUP2 MSTORE POP PUSH0 DUP1 ADD PUSH0 PUSH1 0x3 DUP2 MSTORE PUSH1 0x20 ADD SWAP1 DUP2 MSTORE PUSH1 0x20 ADD PUSH0 KECCAK256 SWAP1 DUP2 PUSH2 0x28D SWAP2 SWAP1 PUSH2 0x1692 JUMP JUMPDEST POP PUSH1 0x40 MLOAD DUP1 PUSH1 0x40 ADD PUSH1 0x40 MSTORE DUP1 PUSH1 0xD DUP2 MSTORE PUSH1 0x20 ADD PUSH32 0x4F72616E67652073686F72747300000000000000000000000000000000000000 DUP2 MSTORE POP PUSH1 0x1 PUSH0 ADD PUSH0 PUSH1 0x4 DUP2 MSTORE PUSH1 0x20 ADD SWAP1 DUP2 MSTORE PUSH1 0x20 ADD PUSH0 KECCAK256 SWAP1 DUP2 PUSH2 0x2E4 SWAP2 SWAP1 PUSH2 0x1692 JUMP JUMPDEST POP PUSH1 0x40 MLOAD DUP1 PUSH1 0x40 ADD PUSH1 0x40 MSTORE DUP1 PUSH1 0xB DUP2 MSTORE PUSH1 0x20 ADD PUSH32 0x50696E6B2073686F727473000000000000000000000000000000000000000000 DUP2 MSTORE POP PUSH1 0x1 PUSH0 ADD PUSH0 PUSH1 0x5 DUP2 MSTORE PUSH1 0x20 ADD SWAP1 DUP2 MSTORE PUSH1 0x20 ADD PUSH0 KECCAK256 SWAP1 DUP2 PUSH2 0x33B SWAP2 SWAP1 PUSH2 0x1692 JUMP JUMPDEST POP PUSH1 0x40 MLOAD DUP1 PUSH1 0x40 ADD PUSH1 0x40 MSTORE DUP1 PUSH1 0xB DUP2 MSTORE PUSH1 0x20 ADD PUSH32 0x477265792073686F727473000000000000000000000000000000000000000000 DUP2 MSTORE POP PUSH1 0x1 PUSH0 ADD PUSH0 PUSH1 0x6 DUP2 MSTORE PUSH1 0x20 ADD SWAP1 DUP2 MSTORE PUSH1 0x20 ADD PUSH0 KECCAK256 SWAP1 DUP2 PUSH2 0x392 SWAP2 SWAP1 PUSH2 0x1692 JUMP JUMPDEST POP PUSH1 0x40 MLOAD DUP1 PUSH1 0x40 ADD PUSH1 0x40 MSTORE DUP1 PUSH1 0xC DUP2 MSTORE PUSH1 0x20 ADD PUSH32 0x42726F776E2073686F7274730000000000000000000000000000000000000000 DUP2 MSTORE POP PUSH1 0x1 PUSH0 ADD PUSH0 PUSH1 0x7 DUP2 MSTORE PUSH1 0x20 ADD SWAP1 DUP2 MSTORE PUSH1 0x20 ADD PUSH0 KECCAK256 SWAP1 DUP2 PUSH2 0x3E9 SWAP2 SWAP1 PUSH2 0x1692 JUMP JUMPDEST POP PUSH1 0x40 MLOAD DUP1 PUSH1 0x40 ADD PUSH1 0x40 MSTORE DUP1 PUSH1 0x9 DUP2 MSTORE PUSH1 0x20 ADD PUSH32 0x54616E2070616E74730000000000000000000000000000000000000000000000 DUP2 MSTORE POP PUSH1 0x1 PUSH0 ADD PUSH0 PUSH1 0x8 DUP2 MSTORE PUSH1 0x20 ADD SWAP1 DUP2 MSTORE PUSH1 0x20 ADD PUSH0 KECCAK256 SWAP1 DUP2 PUSH2 0x440 SWAP2 SWAP1 PUSH2 0x1692 JUMP JUMPDEST POP PUSH1 0x40 MLOAD DUP1 PUSH1 0x40 ADD PUSH1 0x40 MSTORE DUP1 PUSH1 0xA DUP2 MSTORE PUSH1 0x20 ADD PUSH32 0x426C7565206A65616E7300000000000000000000000000000000000000000000 DUP2 MSTORE POP PUSH1 0x1 PUSH0 ADD PUSH0 PUSH1 0x9 DUP2 MSTORE PUSH1 0x20 ADD SWAP1 DUP2 MSTORE PUSH1 0x20 ADD PUSH0 KECCAK256 SWAP1 DUP2 PUSH2 0x497 SWAP2 SWAP1 PUSH2 0x1692 JUMP JUMPDEST POP PUSH1 0x40 MLOAD DUP1 PUSH1 0x40 ADD PUSH1 0x40 MSTORE DUP1 PUSH1 0x4 DUP2 MSTORE PUSH1 0x20 ADD PUSH32 0x4B696C7400000000000000000000000000000000000000000000000000000000 DUP2 MSTORE POP PUSH1 0x1 PUSH0 ADD PUSH0 PUSH1 0xA DUP2 MSTORE PUSH1 0x20 ADD SWAP1 DUP2 MSTORE PUSH1 0x20 ADD PUSH0 KECCAK256 SWAP1 DUP2 PUSH2 0x4EE SWAP2 SWAP1 PUSH2 0x1692 JUMP JUMPDEST POP PUSH1 0x40 MLOAD DUP1 PUSH1 0x40 ADD PUSH1 0x40 MSTORE DUP1 PUSH1 0xA DUP2 MSTORE PUSH1 0x20 ADD PUSH32 0x426C756520736869727400000000000000000000000000000000000000000000 DUP2 MSTORE POP PUSH1 0x2 PUSH0 ADD PUSH0 PUSH1 0xB DUP2 MSTORE PUSH1 0x20 ADD SWAP1 DUP2 MSTORE PUSH1 0x20 ADD PUSH0 KECCAK256 SWAP1 DUP2 PUSH2 0x545 SWAP2 SWAP1 PUSH2 0x1692 JUMP JUMPDEST POP PUSH1 0x40 MLOAD DUP1 PUSH1 0x40 ADD PUSH1 0x40 MSTORE DUP1 PUSH1 0x9 DUP2 MSTORE PUSH1 0x20 ADD PUSH32 0x4D69616D692044414F0000000000000000000000000000000000000000000000 DUP2 MSTORE POP PUSH1 0x2 PUSH0 ADD PUSH0 PUSH1 0xC DUP2 MSTORE PUSH1 0x20 ADD SWAP1 DUP2 MSTORE PUSH1 0x20 ADD PUSH0 KECCAK256 SWAP1 DUP2 PUSH2 0x59C SWAP2 SWAP1 PUSH2 0x1692 JUMP JUMPDEST POP PUSH1 0x40 MLOAD DUP1 PUSH1 0x40 ADD PUSH1 0x40 MSTORE DUP1 PUSH1 0x8 DUP2 MSTORE PUSH1 0x20 ADD PUSH32 0x4261736562616C6C000000000000000000000000000000000000000000000000 DUP2 MSTORE POP PUSH1 0x2 PUSH0 ADD PUSH0 PUSH1 0xD DUP2 MSTORE PUSH1 0x20 ADD SWAP1 DUP2 MSTORE PUSH1 0x20 ADD PUSH0 KECCAK256 SWAP1 DUP2 PUSH2 0x5F3 SWAP2 SWAP1 PUSH2 0x1692 JUMP JUMPDEST POP PUSH1 0x40 MLOAD DUP1 PUSH1 0x40 ADD PUSH1 0x40 MSTORE DUP1 PUSH1 0x8 DUP2 MSTORE PUSH1 0x20 ADD PUSH32 0x4F766572616C6C73000000000000000000000000000000000000000000000000 DUP2 MSTORE POP PUSH1 0x2 PUSH0 ADD PUSH0 PUSH1 0xE DUP2 MSTORE PUSH1 0x20 ADD SWAP1 DUP2 MSTORE PUSH1 0x20 ADD PUSH0 KECCAK256 SWAP1 DUP2 PUSH2 0x64A SWAP2 SWAP1 PUSH2 0x1692 JUMP JUMPDEST POP PUSH1 0x40 MLOAD DUP1 PUSH1 0x40 ADD PUSH1 0x40 MSTORE DUP1 PUSH1 0xE DUP2 MSTORE PUSH1 0x20 ADD PUSH32 0x556E69636F726E20666C6F617479000000000000000000000000000000000000 DUP2 MSTORE POP PUSH1 0x2 PUSH0 ADD PUSH0 PUSH1 0xF DUP2 MSTORE PUSH1 0x20 ADD SWAP1 DUP2 MSTORE PUSH1 0x20 ADD PUSH0 KECCAK256 SWAP1 DUP2 PUSH2 0x6A1 SWAP2 SWAP1 PUSH2 0x1692 JUMP JUMPDEST POP PUSH1 0x40 MLOAD DUP1 PUSH1 0x40 ADD PUSH1 0x40 MSTORE DUP1 PUSH1 0xF DUP2 MSTORE PUSH1 0x20 ADD PUSH32 0x426C61636B20747261636B737569740000000000000000000000000000000000 DUP2 MSTORE POP PUSH1 0x2 PUSH0 ADD PUSH0 PUSH1 0x10 DUP2 MSTORE PUSH1 0x20 ADD SWAP1 DUP2 MSTORE PUSH1 0x20 ADD PUSH0 KECCAK256 SWAP1 DUP2 PUSH2 0x6F8 SWAP2 SWAP1 PUSH2 0x1692 JUMP JUMPDEST POP PUSH1 0x40 MLOAD DUP1 PUSH1 0x40 ADD PUSH1 0x40 MSTORE DUP1 PUSH1 0xD DUP2 MSTORE PUSH1 0x20 ADD PUSH32 0x52656420747261636B7375697400000000000000000000000000000000000000 DUP2 MSTORE POP PUSH1 0x2 PUSH0 ADD PUSH0 PUSH1 0x11 DUP2 MSTORE PUSH1 0x20 ADD SWAP1 DUP2 MSTORE PUSH1 0x20 ADD PUSH0 KECCAK256 SWAP1 DUP2 PUSH2 0x74F SWAP2 SWAP1 PUSH2 0x1692 JUMP JUMPDEST POP PUSH1 0x40 MLOAD DUP1 PUSH1 0x40 ADD PUSH1 0x40 MSTORE DUP1 PUSH1 0x8 DUP2 MSTORE PUSH1 0x20 ADD PUSH32 0x5261696E636F6174000000000000000000000000000000000000000000000000 DUP2 MSTORE POP PUSH1 0x2 PUSH0 ADD PUSH0 PUSH1 0x12 DUP2 MSTORE PUSH1 0x20 ADD SWAP1 DUP2 MSTORE PUSH1 0x20 ADD PUSH0 KECCAK256 SWAP1 DUP2 PUSH2 0x7A6 SWAP2 SWAP1 PUSH2 0x1692 JUMP JUMPDEST POP PUSH1 0x40 MLOAD DUP1 PUSH1 0x40 ADD PUSH1 0x40 MSTORE DUP1 PUSH1 0x9 DUP2 MSTORE PUSH1 0x20 ADD PUSH32 0x4661737420666F6F640000000000000000000000000000000000000000000000 DUP2 MSTORE POP PUSH1 0x2 PUSH0 ADD PUSH0 PUSH1 0x13 DUP2 MSTORE PUSH1 0x20 ADD SWAP1 DUP2 MSTORE PUSH1 0x20 ADD PUSH0 KECCAK256 SWAP1 DUP2 PUSH2 0x7FD SWAP2 SWAP1 PUSH2 0x1692 JUMP JUMPDEST POP PUSH1 0x40 MLOAD DUP1 PUSH1 0x40 ADD PUSH1 0x40 MSTORE DUP1 PUSH1 0x6 DUP2 MSTORE PUSH1 0x20 ADD PUSH32 0x496E7465726E0000000000000000000000000000000000000000000000000000 DUP2 MSTORE POP PUSH1 0x2 PUSH0 ADD PUSH0 PUSH1 0x14 DUP2 MSTORE PUSH1 0x20 ADD SWAP1 DUP2 MSTORE PUSH1 0x20 ADD PUSH0 KECCAK256 SWAP1 DUP2 PUSH2 0x854 SWAP2 SWAP1 PUSH2 0x1692 JUMP JUMPDEST POP PUSH1 0x40 MLOAD DUP1 PUSH1 0x40 ADD PUSH1 0x40 MSTORE DUP1 PUSH1 0xD DUP2 MSTORE PUSH1 0x20 ADD PUSH32 0x426F776C696E6720736869727400000000000000000000000000000000000000 DUP2 MSTORE POP PUSH1 0x2 PUSH0 ADD PUSH0 PUSH1 0x15 DUP2 MSTORE PUSH1 0x20 ADD SWAP1 DUP2 MSTORE PUSH1 0x20 ADD PUSH0 KECCAK256 SWAP1 DUP2 PUSH2 0x8AB SWAP2 SWAP1 PUSH2 0x1692 JUMP JUMPDEST POP PUSH1 0x40 MLOAD DUP1 PUSH1 0x40 ADD PUSH1 0x40 MSTORE DUP1 PUSH1 0xB DUP2 MSTORE PUSH1 0x20 ADD PUSH32 0x42616A6120486F6F646965000000000000000000000000000000000000000000 DUP2 MSTORE POP PUSH1 0x2 PUSH0 ADD PUSH0 PUSH1 0x16 DUP2 MSTORE PUSH1 0x20 ADD SWAP1 DUP2 MSTORE PUSH1 0x20 ADD PUSH0 KECCAK256 SWAP1 DUP2 PUSH2 0x902 SWAP2 SWAP1 PUSH2 0x1692 JUMP JUMPDEST POP PUSH1 0x40 MLOAD DUP1 PUSH1 0x40 ADD PUSH1 0x40 MSTORE DUP1 PUSH1 0x6 DUP2 MSTORE PUSH1 0x20 ADD PUSH32 0x5368616465730000000000000000000000000000000000000000000000000000 DUP2 MSTORE POP PUSH1 0x3 PUSH0 ADD PUSH0 PUSH1 0x17 DUP2 MSTORE PUSH1 0x20 ADD SWAP1 DUP2 MSTORE PUSH1 0x20 ADD PUSH0 KECCAK256 SWAP1 DUP2 PUSH2 0x959 SWAP2 SWAP1 PUSH2 0x1692 JUMP JUMPDEST POP PUSH1 0x40 MLOAD DUP1 PUSH1 0x40 ADD PUSH1 0x40 MSTORE DUP1 PUSH1 0x9 DUP2 MSTORE PUSH1 0x20 ADD PUSH32 0x53756E6E79736964650000000000000000000000000000000000000000000000 DUP2 MSTORE POP PUSH1 0x3 PUSH0 ADD PUSH0 PUSH1 0x18 DUP2 MSTORE PUSH1 0x20 ADD SWAP1 DUP2 MSTORE PUSH1 0x20 ADD PUSH0 KECCAK256 SWAP1 DUP2 PUSH2 0x9B0 SWAP2 SWAP1 PUSH2 0x1692 JUMP JUMPDEST POP PUSH1 0x40 MLOAD DUP1 PUSH1 0x40 ADD PUSH1 0x40 MSTORE DUP1 PUSH1 0x7 DUP2 MSTORE PUSH1 0x20 ADD PUSH32 0x4E6F67676C657300000000000000000000000000000000000000000000000000 DUP2 MSTORE POP PUSH1 0x3 PUSH0 ADD PUSH0 PUSH1 0x19 DUP2 MSTORE PUSH1 0x20 ADD SWAP1 DUP2 MSTORE PUSH1 0x20 ADD PUSH0 KECCAK256 SWAP1 DUP2 PUSH2 0xA07 SWAP2 SWAP1 PUSH2 0x1692 JUMP JUMPDEST POP PUSH1 0x40 MLOAD DUP1 PUSH1 0x40 ADD PUSH1 0x40 MSTORE DUP1 PUSH1 0xA DUP2 MSTORE PUSH1 0x20 ADD PUSH32 0x334420476C617373657300000000000000000000000000000000000000000000 DUP2 MSTORE POP PUSH1 0x3 PUSH0 ADD PUSH0 PUSH1 0x1A DUP2 MSTORE PUSH1 0x20 ADD SWAP1 DUP2 MSTORE PUSH1 0x20 ADD PUSH0 KECCAK256 SWAP1 DUP2 PUSH2 0xA5E SWAP2 SWAP1 PUSH2 0x1692 JUMP JUMPDEST POP PUSH1 0x40 MLOAD DUP1 PUSH1 0x40 ADD PUSH1 0x40 MSTORE DUP1 PUSH1 0x6 DUP2 MSTORE PUSH1 0x20 ADD PUSH32 0x536D6F6B65640000000000000000000000000000000000000000000000000000 DUP2 MSTORE POP PUSH1 0x3 PUSH0 ADD PUSH0 PUSH1 0x1B DUP2 MSTORE PUSH1 0x20 ADD SWAP1 DUP2 MSTORE PUSH1 0x20 ADD PUSH0 KECCAK256 SWAP1 DUP2 PUSH2 0xAB5 SWAP2 SWAP1 PUSH2 0x1692 JUMP JUMPDEST POP PUSH1 0x40 MLOAD DUP1 PUSH1 0x40 ADD PUSH1 0x40 MSTORE DUP1 PUSH1 0x4 DUP2 MSTORE PUSH1 0x20 ADD PUSH32 0x4D61736B00000000000000000000000000000000000000000000000000000000 DUP2 MSTORE POP PUSH1 0x3 PUSH0 ADD PUSH0 PUSH1 0x1C DUP2 MSTORE PUSH1 0x20 ADD SWAP1 DUP2 MSTORE PUSH1 0x20 ADD PUSH0 KECCAK256 SWAP1 DUP2 PUSH2 0xB0C SWAP2 SWAP1 PUSH2 0x1692 JUMP JUMPDEST POP PUSH1 0x40 MLOAD DUP1 PUSH1 0x40 ADD PUSH1 0x40 MSTORE DUP1 PUSH1 0x4 DUP2 MSTORE PUSH1 0x20 ADD PUSH32 0x436F6F6C00000000000000000000000000000000000000000000000000000000 DUP2 MSTORE POP PUSH1 0x3 PUSH0 ADD PUSH0 PUSH1 0x1D DUP2 MSTORE PUSH1 0x20 ADD SWAP1 DUP2 MSTORE PUSH1 0x20 ADD PUSH0 KECCAK256 SWAP1 DUP2 PUSH2 0xB63 SWAP2 SWAP1 PUSH2 0x1692 JUMP JUMPDEST POP PUSH1 0x40 MLOAD DUP1 PUSH1 0x40 ADD PUSH1 0x40 MSTORE DUP1 PUSH1 0x5 DUP2 MSTORE PUSH1 0x20 ADD PUSH32 0x5669706572000000000000000000000000000000000000000000000000000000 DUP2 MSTORE POP PUSH1 0x3 PUSH0 ADD PUSH0 PUSH1 0x1E DUP2 MSTORE PUSH1 0x20 ADD SWAP1 DUP2 MSTORE PUSH1 0x20 ADD PUSH0 KECCAK256 SWAP1 DUP2 PUSH2 0xBBA SWAP2 SWAP1 PUSH2 0x1692 JUMP JUMPDEST POP PUSH1 0x40 MLOAD DUP1 PUSH1 0x40 ADD PUSH1 0x40 MSTORE DUP1 PUSH1 0x7 DUP2 MSTORE PUSH1 0x20 ADD PUSH32 0x436C617373696300000000000000000000000000000000000000000000000000 DUP2 MSTORE POP PUSH1 0x4 PUSH0 ADD PUSH0 PUSH1 0x1F DUP2 MSTORE PUSH1 0x20 ADD SWAP1 DUP2 MSTORE PUSH1 0x20 ADD PUSH0 KECCAK256 SWAP1 DUP2 PUSH2 0xC11 SWAP2 SWAP1 PUSH2 0x1692 JUMP JUMPDEST POP PUSH1 0x40 MLOAD DUP1 PUSH1 0x40 ADD PUSH1 0x40 MSTORE DUP1 PUSH1 0x5 DUP2 MSTORE PUSH1 0x20 ADD PUSH32 0x446567656E000000000000000000000000000000000000000000000000000000 DUP2 MSTORE POP PUSH1 0x4 PUSH0 ADD PUSH0 PUSH1 0x20 DUP2 MSTORE PUSH1 0x20 ADD SWAP1 DUP2 MSTORE PUSH1 0x20 ADD PUSH0 KECCAK256 SWAP1 DUP2 PUSH2 0xC68 SWAP2 SWAP1 PUSH2 0x1692 JUMP JUMPDEST POP PUSH1 0x40 MLOAD DUP1 PUSH1 0x40 ADD PUSH1 0x40 MSTORE DUP1 PUSH1 0x6 DUP2 MSTORE PUSH1 0x20 ADD PUSH32 0x57697A6172640000000000000000000000000000000000000000000000000000 DUP2 MSTORE POP PUSH1 0x4 PUSH0 ADD PUSH0 PUSH1 0x21 DUP2 MSTORE PUSH1 0x20 ADD SWAP1 DUP2 MSTORE PUSH1 0x20 ADD PUSH0 KECCAK256 SWAP1 DUP2 PUSH2 0xCBF SWAP2 SWAP1 PUSH2 0x1692 JUMP JUMPDEST POP PUSH1 0x40 MLOAD DUP1 PUSH1 0x40 ADD PUSH1 0x40 MSTORE DUP1 PUSH1 0x5 DUP2 MSTORE PUSH1 0x20 ADD PUSH32 0x4261736564000000000000000000000000000000000000000000000000000000 DUP2 MSTORE POP PUSH1 0x4 PUSH0 ADD PUSH0 PUSH1 0x22 DUP2 MSTORE PUSH1 0x20 ADD SWAP1 DUP2 MSTORE PUSH1 0x20 ADD PUSH0 KECCAK256 SWAP1 DUP2 PUSH2 0xD16 SWAP2 SWAP1 PUSH2 0x1692 JUMP JUMPDEST POP PUSH1 0x40 MLOAD DUP1 PUSH1 0x40 ADD PUSH1 0x40 MSTORE DUP1 PUSH1 0x3 DUP2 MSTORE PUSH1 0x20 ADD PUSH32 0x46657A0000000000000000000000000000000000000000000000000000000000 DUP2 MSTORE POP PUSH1 0x4 PUSH0 ADD PUSH0 PUSH1 0x23 DUP2 MSTORE PUSH1 0x20 ADD SWAP1 DUP2 MSTORE PUSH1 0x20 ADD PUSH0 KECCAK256 SWAP1 DUP2 PUSH2 0xD6D SWAP2 SWAP1 PUSH2 0x1692 JUMP JUMPDEST POP PUSH1 0x40 MLOAD DUP1 PUSH1 0x40 ADD PUSH1 0x40 MSTORE DUP1 PUSH1 0xA DUP2 MSTORE PUSH1 0x20 ADD PUSH32 0x4865616470686F6E657300000000000000000000000000000000000000000000 DUP2 MSTORE POP PUSH1 0x4 PUSH0 ADD PUSH0 PUSH1 0x24 DUP2 MSTORE PUSH1 0x20 ADD SWAP1 DUP2 MSTORE PUSH1 0x20 ADD PUSH0 KECCAK256 SWAP1 DUP2 PUSH2 0xDC4 SWAP2 SWAP1 PUSH2 0x1692 JUMP JUMPDEST POP PUSH1 0x40 MLOAD DUP1 PUSH1 0x40 ADD PUSH1 0x40 MSTORE DUP1 PUSH1 0x4 DUP2 MSTORE PUSH1 0x20 ADD PUSH32 0x48616C6F00000000000000000000000000000000000000000000000000000000 DUP2 MSTORE POP PUSH1 0x4 PUSH0 ADD PUSH0 PUSH1 0x25 DUP2 MSTORE PUSH1 0x20 ADD SWAP1 DUP2 MSTORE PUSH1 0x20 ADD PUSH0 KECCAK256 SWAP1 DUP2 PUSH2 0xE1B SWAP2 SWAP1 PUSH2 0x1692 JUMP JUMPDEST POP PUSH1 0x40 MLOAD DUP1 PUSH1 0x40 ADD PUSH1 0x40 MSTORE DUP1 PUSH1 0x6 DUP2 MSTORE PUSH1 0x20 ADD PUSH32 0x436F77626F790000000000000000000000000000000000000000000000000000 DUP2 MSTORE POP PUSH1 0x4 PUSH0 ADD PUSH0 PUSH1 0x26 DUP2 MSTORE PUSH1 0x20 ADD SWAP1 DUP2 MSTORE PUSH1 0x20 ADD PUSH0 KECCAK256 SWAP1 DUP2 PUSH2 0xE72 SWAP2 SWAP1 PUSH2 0x1692 JUMP JUMPDEST POP PUSH1 0x40 MLOAD DUP1 PUSH1 0x40 ADD PUSH1 0x40 MSTORE DUP1 PUSH1 0x7 DUP2 MSTORE PUSH1 0x20 ADD PUSH32 0x5370696E6E657200000000000000000000000000000000000000000000000000 DUP2 MSTORE POP PUSH1 0x4 PUSH0 ADD PUSH0 PUSH1 0x27 DUP2 MSTORE PUSH1 0x20 ADD SWAP1 DUP2 MSTORE PUSH1 0x20 ADD PUSH0 KECCAK256 SWAP1 DUP2 PUSH2 0xEC9 SWAP2 SWAP1 PUSH2 0x1692 JUMP JUMPDEST POP PUSH1 0x40 MLOAD DUP1 PUSH1 0x40 ADD PUSH1 0x40 MSTORE DUP1 PUSH1 0x4 DUP2 MSTORE PUSH1 0x20 ADD PUSH32 0x42616E6400000000000000000000000000000000000000000000000000000000 DUP2 MSTORE POP PUSH1 0x4 PUSH0 ADD PUSH0 PUSH1 0x28 DUP2 MSTORE PUSH1 0x20 ADD SWAP1 DUP2 MSTORE PUSH1 0x20 ADD PUSH0 KECCAK256 SWAP1 DUP2 PUSH2 0xF20 SWAP2 SWAP1 PUSH2 0x1692 JUMP JUMPDEST POP PUSH1 0x40 MLOAD DUP1 PUSH1 0x40 ADD PUSH1 0x40 MSTORE DUP1 PUSH1 0x6 DUP2 MSTORE PUSH1 0x20 ADD PUSH32 0x4265616E69650000000000000000000000000000000000000000000000000000 DUP2 MSTORE POP PUSH1 0x4 PUSH0 ADD PUSH0 PUSH1 0x29 DUP2 MSTORE PUSH1 0x20 ADD SWAP1 DUP2 MSTORE PUSH1 0x20 ADD PUSH0 KECCAK256 SWAP1 DUP2 PUSH2 0xF77 SWAP2 SWAP1 PUSH2 0x1692 JUMP JUMPDEST POP PUSH1 0x40 MLOAD DUP1 PUSH1 0x40 ADD PUSH1 0x40 MSTORE DUP1 PUSH1 0x6 DUP2 MSTORE PUSH1 0x20 ADD PUSH32 0x5370726F75740000000000000000000000000000000000000000000000000000 DUP2 MSTORE POP PUSH1 0x4 PUSH0 ADD PUSH0 PUSH1 0x2A DUP2 MSTORE PUSH1 0x20 ADD SWAP1 DUP2 MSTORE PUSH1 0x20 ADD PUSH0 KECCAK256 SWAP1 DUP2 PUSH2 0xFCE SWAP2 SWAP1 PUSH2 0x1692 JUMP JUMPDEST POP PUSH1 0x40 MLOAD DUP1 PUSH1 0x40 ADD PUSH1 0x40 MSTORE DUP1 PUSH1 0x5 DUP2 MSTORE PUSH1 0x20 ADD PUSH32 0x43726F776E000000000000000000000000000000000000000000000000000000 DUP2 MSTORE POP PUSH1 0x4 PUSH0 ADD PUSH0 PUSH1 0x2B DUP2 MSTORE PUSH1 0x20 ADD SWAP1 DUP2 MSTORE PUSH1 0x20 ADD PUSH0 KECCAK256 SWAP1 DUP2 PUSH2 0x1025 SWAP2 SWAP1 PUSH2 0x1692 JUMP JUMPDEST POP PUSH1 0x40 MLOAD DUP1 PUSH1 0x40 ADD PUSH1 0x40 MSTORE DUP1 PUSH1 0x6 DUP2 MSTORE PUSH1 0x20 ADD PUSH32 0x5069726174650000000000000000000000000000000000000000000000000000 DUP2 MSTORE POP PUSH1 0x4 PUSH0 ADD PUSH0 PUSH1 0x2C DUP2 MSTORE PUSH1 0x20 ADD SWAP1 DUP2 MSTORE PUSH1 0x20 ADD PUSH0 KECCAK256 SWAP1 DUP2 PUSH2 0x107C SWAP2 SWAP1 PUSH2 0x1692 JUMP JUMPDEST POP PUSH1 0x40 MLOAD DUP1 PUSH1 0x40 ADD PUSH1 0x40 MSTORE DUP1 PUSH1 0x5 DUP2 MSTORE PUSH1 0x20 ADD PUSH32 0x5061727479000000000000000000000000000000000000000000000000000000 DUP2 MSTORE POP PUSH1 0x4 PUSH0 ADD PUSH0 PUSH1 0x2D DUP2 MSTORE PUSH1 0x20 ADD SWAP1 DUP2 MSTORE PUSH1 0x20 ADD PUSH0 KECCAK256 SWAP1 DUP2 PUSH2 0x10D3 SWAP2 SWAP1 PUSH2 0x1692 JUMP JUMPDEST POP PUSH1 0x40 MLOAD DUP1 PUSH1 0x40 ADD PUSH1 0x40 MSTORE DUP1 PUSH1 0xA DUP2 MSTORE PUSH1 0x20 ADD PUSH32 0x4C65707265636861756E00000000000000000000000000000000000000000000 DUP2 MSTORE POP PUSH1 0x4 PUSH0 ADD PUSH0 PUSH1 0x2E DUP2 MSTORE PUSH1 0x20 ADD SWAP1 DUP2 MSTORE PUSH1 0x20 ADD PUSH0 KECCAK256 SWAP1 DUP2 PUSH2 0x112A SWAP2 SWAP1 PUSH2 0x1692 JUMP JUMPDEST POP PUSH1 0x40 MLOAD DUP1 PUSH1 0x40 ADD PUSH1 0x40 MSTORE DUP1 PUSH1 0x7 DUP2 MSTORE PUSH1 0x20 ADD PUSH32 0x526F6F7374657200000000000000000000000000000000000000000000000000 DUP2 MSTORE POP PUSH1 0x4 PUSH0 ADD PUSH0 PUSH1 0x2F DUP2 MSTORE PUSH1 0x20 ADD SWAP1 DUP2 MSTORE PUSH1 0x20 ADD PUSH0 KECCAK256 SWAP1 DUP2 PUSH2 0x1181 SWAP2 SWAP1 PUSH2 0x1692 JUMP JUMPDEST POP PUSH1 0x40 MLOAD DUP1 PUSH1 0x40 ADD PUSH1 0x40 MSTORE DUP1 PUSH1 0x9 DUP2 MSTORE PUSH1 0x20 ADD PUSH32 0x4369676172657474650000000000000000000000000000000000000000000000 DUP2 MSTORE POP PUSH1 0x5 PUSH0 ADD PUSH0 PUSH1 0x30 DUP2 MSTORE PUSH1 0x20 ADD SWAP1 DUP2 MSTORE PUSH1 0x20 ADD PUSH0 KECCAK256 SWAP1 DUP2 PUSH2 0x11D8 SWAP2 SWAP1 PUSH2 0x1692 JUMP JUMPDEST POP PUSH1 0x40 MLOAD DUP1 PUSH1 0x40 ADD PUSH1 0x40 MSTORE DUP1 PUSH1 0x4 DUP2 MSTORE PUSH1 0x20 ADD PUSH32 0x5661706500000000000000000000000000000000000000000000000000000000 DUP2 MSTORE POP PUSH1 0x5 PUSH0 ADD PUSH0 PUSH1 0x31 DUP2 MSTORE PUSH1 0x20 ADD SWAP1 DUP2 MSTORE PUSH1 0x20 ADD PUSH0 KECCAK256 SWAP1 DUP2 PUSH2 0x122F SWAP2 SWAP1 PUSH2 0x1692 JUMP JUMPDEST POP PUSH1 0x40 MLOAD DUP1 PUSH1 0x40 ADD PUSH1 0x40 MSTORE DUP1 PUSH1 0x4 DUP2 MSTORE PUSH1 0x20 ADD PUSH32 0x5069706500000000000000000000000000000000000000000000000000000000 DUP2 MSTORE POP PUSH1 0x5 PUSH0 ADD PUSH0 PUSH1 0x32 DUP2 MSTORE PUSH1 0x20 ADD SWAP1 DUP2 MSTORE PUSH1 0x20 ADD PUSH0 KECCAK256 SWAP1 DUP2 PUSH2 0x1286 SWAP2 SWAP1 PUSH2 0x1692 JUMP JUMPDEST POP PUSH1 0x40 MLOAD DUP1 PUSH1 0x40 ADD PUSH1 0x40 MSTORE DUP1 PUSH1 0x4 DUP2 MSTORE PUSH1 0x20 ADD PUSH32 0x50756B6500000000000000000000000000000000000000000000000000000000 DUP2 MSTORE POP PUSH1 0x5 PUSH0 ADD PUSH0 PUSH1 0x33 DUP2 MSTORE PUSH1 0x20 ADD SWAP1 DUP2 MSTORE PUSH1 0x20 ADD PUSH0 KECCAK256 SWAP1 DUP2 PUSH2 0x12DD SWAP2 SWAP1 PUSH2 0x1692 JUMP JUMPDEST POP PUSH1 0x40 MLOAD DUP1 PUSH1 0x40 ADD PUSH1 0x40 MSTORE DUP1 PUSH1 0x6 DUP2 MSTORE PUSH1 0x20 ADD PUSH32 0x427562626C650000000000000000000000000000000000000000000000000000 DUP2 MSTORE POP PUSH1 0x5 PUSH0 ADD PUSH0 PUSH1 0x34 DUP2 MSTORE PUSH1 0x20 ADD SWAP1 DUP2 MSTORE PUSH1 0x20 ADD PUSH0 KECCAK256 SWAP1 DUP2 PUSH2 0x1334 SWAP2 SWAP1 PUSH2 0x1692 JUMP JUMPDEST POP PUSH1 0x40 MLOAD DUP1 PUSH1 0x40 ADD PUSH1 0x40 MSTORE DUP1 PUSH1 0x5 DUP2 MSTORE PUSH1 0x20 ADD PUSH32 0x4369676172000000000000000000000000000000000000000000000000000000 DUP2 MSTORE POP PUSH1 0x5 PUSH0 ADD PUSH0 PUSH1 0x35 DUP2 MSTORE PUSH1 0x20 ADD SWAP1 DUP2 MSTORE PUSH1 0x20 ADD PUSH0 KECCAK256 SWAP1 DUP2 PUSH2 0x138B SWAP2 SWAP1 PUSH2 0x1692 JUMP JUMPDEST POP PUSH2 0x1761 JUMP JUMPDEST DUP3 PUSH1 0x6 DUP2 ADD SWAP3 DUP3 ISZERO PUSH2 0x13CC JUMPI SWAP2 PUSH1 0x20 MUL DUP3 ADD JUMPDEST DUP3 DUP2 GT ISZERO PUSH2 0x13CB JUMPI DUP3 MLOAD DUP3 SWAP1 DUP2 PUSH2 0x13BB SWAP2 SWAP1 PUSH2 0x1692 JUMP JUMPDEST POP SWAP2 PUSH1 0x20 ADD SWAP2 SWAP1 PUSH1 0x1 ADD SWAP1 PUSH2 0x13A4 JUMP JUMPDEST JUMPDEST POP SWAP1 POP PUSH2 0x13D9 SWAP2 SWAP1 PUSH2 0x13DD JUMP JUMPDEST POP SWAP1 JUMP JUMPDEST JUMPDEST DUP1 DUP3 GT ISZERO PUSH2 0x13FC JUMPI PUSH0 DUP2 DUP2 PUSH2 0x13F3 SWAP2 SWAP1 PUSH2 0x1400 JUMP JUMPDEST POP PUSH1 0x1 ADD PUSH2 0x13DE JUMP JUMPDEST POP SWAP1 JUMP JUMPDEST POP DUP1 SLOAD PUSH2 0x140C SWAP1 PUSH2 0x14BC JUMP JUMPDEST PUSH0 DUP3 SSTORE DUP1 PUSH1 0x1F LT PUSH2 0x141D JUMPI POP PUSH2 0x143A JUMP JUMPDEST PUSH1 0x1F ADD PUSH1 0x20 SWAP1 DIV SWAP1 PUSH0 MSTORE PUSH1 0x20 PUSH0 KECCAK256 SWAP1 DUP2 ADD SWAP1 PUSH2 0x1439 SWAP2 SWAP1 PUSH2 0x143D JUMP JUMPDEST JUMPDEST POP JUMP JUMPDEST JUMPDEST DUP1 DUP3 GT ISZERO PUSH2 0x1454 JUMPI PUSH0 DUP2 PUSH0 SWAP1 SSTORE POP PUSH1 0x1 ADD PUSH2 0x143E JUMP JUMPDEST POP SWAP1 JUMP JUMPDEST PUSH0 DUP2 MLOAD SWAP1 POP SWAP2 SWAP1 POP JUMP JUMPDEST PUSH32 0x4E487B7100000000000000000000000000000000000000000000000000000000 PUSH0 MSTORE PUSH1 0x41 PUSH1 0x4 MSTORE PUSH1 0x24 PUSH0 REVERT JUMPDEST PUSH32 0x4E487B7100000000000000000000000000000000000000000000000000000000 PUSH0 MSTORE PUSH1 0x22 PUSH1 0x4 MSTORE PUSH1 0x24 PUSH0 REVERT JUMPDEST PUSH0 PUSH1 0x2 DUP3 DIV SWAP1 POP PUSH1 0x1 DUP3 AND DUP1 PUSH2 0x14D3 JUMPI PUSH1 0x7F DUP3 AND SWAP2 POP JUMPDEST PUSH1 0x20 DUP3 LT DUP2 SUB PUSH2 0x14E6 JUMPI PUSH2 0x14E5 PUSH2 0x148F JUMP JUMPDEST JUMPDEST POP SWAP2 SWAP1 POP JUMP JUMPDEST PUSH0 DUP2 SWAP1 POP DUP2 PUSH0 MSTORE PUSH1 0x20 PUSH0 KECCAK256 SWAP1 POP SWAP2 SWAP1 POP JUMP JUMPDEST PUSH0 PUSH1 0x20 PUSH1 0x1F DUP4 ADD DIV SWAP1 POP SWAP2 SWAP1 POP JUMP JUMPDEST PUSH0 DUP3 DUP3 SHL SWAP1 POP SWAP3 SWAP2 POP POP JUMP JUMPDEST PUSH0 PUSH1 0x8 DUP4 MUL PUSH2 0x1548 PUSH32 0xFFFFFFFFFFFFFFFFFFFFFFFFFFFFFFFFFFFFFFFFFFFFFFFFFFFFFFFFFFFFFFFF DUP3 PUSH2 0x150D JUMP JUMPDEST PUSH2 0x1552 DUP7 DUP4 PUSH2 0x150D JUMP JUMPDEST SWAP6 POP DUP1 NOT DUP5 AND SWAP4 POP DUP1 DUP7 AND DUP5 OR SWAP3 POP POP POP SWAP4 SWAP3 POP POP POP JUMP JUMPDEST PUSH0 DUP2 SWAP1 POP SWAP2 SWAP1 POP JUMP JUMPDEST PUSH0 DUP2 SWAP1 POP SWAP2 SWAP1 POP JUMP JUMPDEST PUSH0 PUSH2 0x1596 PUSH2 0x1591 PUSH2 0x158C DUP5 PUSH2 0x156A JUMP JUMPDEST PUSH2 0x1573 JUMP JUMPDEST PUSH2 0x156A JUMP JUMPDEST SWAP1 POP SWAP2 SWAP1 POP JUMP JUMPDEST PUSH0 DUP2 SWAP1 POP SWAP2 SWAP1 POP JUMP JUMPDEST PUSH2 0x15AF DUP4 PUSH2 0x157C JUMP JUMPDEST PUSH2 0x15C3 PUSH2 0x15BB DUP3 PUSH2 0x159D JUMP JUMPDEST DUP5 DUP5 SLOAD PUSH2 0x1519 JUMP JUMPDEST DUP3 SSTORE POP POP POP POP JUMP JUMPDEST PUSH0 SWAP1 JUMP JUMPDEST PUSH2 0x15D7 PUSH2 0x15CB JUMP JUMPDEST PUSH2 0x15E2 DUP2 DUP5 DUP5 PUSH2 0x15A6 JUMP JUMPDEST POP POP POP JUMP JUMPDEST JUMPDEST DUP2 DUP2 LT ISZERO PUSH2 0x1605 JUMPI PUSH2 0x15FA PUSH0 DUP3 PUSH2 0x15CF JUMP JUMPDEST PUSH1 0x1 DUP2 ADD SWAP1 POP PUSH2 0x15E8 JUMP JUMPDEST POP POP JUMP JUMPDEST PUSH1 0x1F DUP3 GT ISZERO PUSH2 0x164A JUMPI PUSH2 0x161B DUP2 PUSH2 0x14EC JUMP JUMPDEST PUSH2 0x1624 DUP5 PUSH2 0x14FE JUMP JUMPDEST DUP2 ADD PUSH1 0x20 DUP6 LT ISZERO PUSH2 0x1633 JUMPI DUP2 SWAP1 POP JUMPDEST PUSH2 0x1647 PUSH2 0x163F DUP6 PUSH2 0x14FE JUMP JUMPDEST DUP4 ADD DUP3 PUSH2 0x15E7 JUMP JUMPDEST POP POP JUMPDEST POP POP POP JUMP JUMPDEST PUSH0 DUP3 DUP3 SHR SWAP1 POP SWAP3 SWAP2 POP POP JUMP JUMPDEST PUSH0 PUSH2 0x166A PUSH0 NOT DUP5 PUSH1 0x8 MUL PUSH2 0x164F JUMP JUMPDEST NOT DUP1 DUP4 AND SWAP2 POP POP SWAP3 SWAP2 POP POP JUMP JUMPDEST PUSH0 PUSH2 0x1682 DUP4 DUP4 PUSH2 0x165B JUMP JUMPDEST SWAP2 POP DUP3 PUSH1 0x2 MUL DUP3 OR SWAP1 POP SWAP3 SWAP2 POP POP JUMP JUMPDEST PUSH2 0x169B DUP3 PUSH2 0x1458 JUMP JUMPDEST PUSH8 0xFFFFFFFFFFFFFFFF DUP2 GT ISZERO PUSH2 0x16B4 JUMPI PUSH2 0x16B3 PUSH2 0x1462 JUMP JUMPDEST JUMPDEST PUSH2 0x16BE DUP3 SLOAD PUSH2 0x14BC JUMP JUMPDEST PUSH2 0x16C9 DUP3 DUP3 DUP6 PUSH2 0x1609 JUMP JUMPDEST PUSH0 PUSH1 0x20 SWAP1 POP PUSH1 0x1F DUP4 GT PUSH1 0x1 DUP2 EQ PUSH2 0x16FA JUMPI PUSH0 DUP5 ISZERO PUSH2 0x16E8 JUMPI DUP3 DUP8 ADD MLOAD SWAP1 POP JUMPDEST PUSH2 0x16F2 DUP6 DUP3 PUSH2 0x1677 JUMP JUMPDEST DUP7 SSTORE POP PUSH2 0x1759 JUMP JUMPDEST PUSH1 0x1F NOT DUP5 AND PUSH2 0x1708 DUP7 PUSH2 0x14EC JUMP JUMPDEST PUSH0 JUMPDEST DUP3 DUP2 LT ISZERO PUSH2 0x172F JUMPI DUP5 DUP10 ADD MLOAD DUP3 SSTORE PUSH1 0x1 DUP3 ADD SWAP2 POP PUSH1 0x20 DUP6 ADD SWAP5 POP PUSH1 0x20 DUP2 ADD SWAP1 POP PUSH2 0x170A JUMP JUMPDEST DUP7 DUP4 LT ISZERO PUSH2 0x174C JUMPI DUP5 DUP10 ADD MLOAD PUSH2 0x1748 PUSH1 0x1F DUP10 AND DUP3 PUSH2 0x165B JUMP JUMPDEST DUP4 SSTORE POP JUMPDEST PUSH1 0x1 PUSH1 0x2 DUP9 MUL ADD DUP9 SSTORE POP POP POP JUMPDEST POP POP POP POP POP POP JUMP JUMPDEST PUSH2 0x7C4 DUP1 PUSH2 0x176E PUSH0 CODECOPY PUSH0 RETURN INVALID PUSH1 0x80 PUSH1 0x40 MSTORE CALLVALUE DUP1 ISZERO PUSH2 0xF JUMPI PUSH0 DUP1 REVERT JUMPDEST POP PUSH1 0x4 CALLDATASIZE LT PUSH2 0x7B JUMPI PUSH0 CALLDATALOAD PUSH1 0xE0 SHR DUP1 PUSH4 0xC4D30BFA GT PUSH2 0x59 JUMPI DUP1 PUSH4 0xC4D30BFA EQ PUSH2 0x10F JUMPI DUP1 PUSH4 0xC76AB940 EQ PUSH2 0x13F JUMPI DUP1 PUSH4 0xD2571F88 EQ PUSH2 0x16F JUMPI DUP1 PUSH4 0xE1D916F7 EQ PUSH2 0x19F JUMPI PUSH2 0x7B JUMP JUMPDEST DUP1 PUSH4 0x4337932D EQ PUSH2 0x7F JUMPI DUP1 PUSH4 0x4C9C05EA EQ PUSH2 0xAF JUMPI DUP1 PUSH4 0x98E4F581 EQ PUSH2 0xDF JUMPI JUMPDEST PUSH0 DUP1 REVERT JUMPDEST PUSH2 0x99 PUSH1 0x4 DUP1 CALLDATASIZE SUB DUP2 ADD SWAP1 PUSH2 0x94 SWAP2 SWAP1 PUSH2 0x676 JUMP JUMPDEST PUSH2 0x1CF JUMP JUMPDEST PUSH1 0x40 MLOAD PUSH2 0xA6 SWAP2 SWAP1 PUSH2 0x711 JUMP JUMPDEST PUSH1 0x40 MLOAD DUP1 SWAP2 SUB SWAP1 RETURN JUMPDEST PUSH2 0xC9 PUSH1 0x4 DUP1 CALLDATASIZE SUB DUP2 ADD SWAP1 PUSH2 0xC4 SWAP2 SWAP1 PUSH2 0x676 JUMP JUMPDEST PUSH2 0x272 JUMP JUMPDEST PUSH1 0x40 MLOAD PUSH2 0xD6 SWAP2 SWAP1 PUSH2 0x711 JUMP JUMPDEST PUSH1 0x40 MLOAD DUP1 SWAP2 SUB SWAP1 RETURN JUMPDEST PUSH2 0xF9 PUSH1 0x4 DUP1 CALLDATASIZE SUB DUP2 ADD SWAP1 PUSH2 0xF4 SWAP2 SWAP1 PUSH2 0x676 JUMP JUMPDEST PUSH2 0x315 JUMP JUMPDEST PUSH1 0x40 MLOAD PUSH2 0x106 SWAP2 SWAP1 PUSH2 0x711 JUMP JUMPDEST PUSH1 0x40 MLOAD DUP1 SWAP2 SUB SWAP1 RETURN JUMPDEST PUSH2 0x129 PUSH1 0x4 DUP1 CALLDATASIZE SUB DUP2 ADD SWAP1 PUSH2 0x124 SWAP2 SWAP1 PUSH2 0x676 JUMP JUMPDEST PUSH2 0x3B7 JUMP JUMPDEST PUSH1 0x40 MLOAD PUSH2 0x136 SWAP2 SWAP1 PUSH2 0x711 JUMP JUMPDEST PUSH1 0x40 MLOAD DUP1 SWAP2 SUB SWAP1 RETURN JUMPDEST PUSH2 0x159 PUSH1 0x4 DUP1 CALLDATASIZE SUB DUP2 ADD SWAP1 PUSH2 0x154 SWAP2 SWAP1 PUSH2 0x676 JUMP JUMPDEST PUSH2 0x45A JUMP JUMPDEST PUSH1 0x40 MLOAD PUSH2 0x166 SWAP2 SWAP1 PUSH2 0x711 JUMP JUMPDEST PUSH1 0x40 MLOAD DUP1 SWAP2 SUB SWAP1 RETURN JUMPDEST PUSH2 0x189 PUSH1 0x4 DUP1 CALLDATASIZE SUB DUP2 ADD SWAP1 PUSH2 0x184 SWAP2 SWAP1 PUSH2 0x676 JUMP JUMPDEST PUSH2 0x4F9 JUMP JUMPDEST PUSH1 0x40 MLOAD PUSH2 0x196 SWAP2 SWAP1 PUSH2 0x711 JUMP JUMPDEST PUSH1 0x40 MLOAD DUP1 SWAP2 SUB SWAP1 RETURN JUMPDEST PUSH2 0x1B9 PUSH1 0x4 DUP1 CALLDATASIZE SUB DUP2 ADD SWAP1 PUSH2 0x1B4 SWAP2 SWAP1 PUSH2 0x676 JUMP JUMPDEST PUSH2 0x59C JUMP JUMPDEST PUSH1 0x40 MLOAD PUSH2 0x1C6 SWAP2 SWAP1 PUSH2 0x711 JUMP JUMPDEST PUSH1 0x40 MLOAD DUP1 SWAP2 SUB SWAP1 RETURN JUMPDEST PUSH1 0x60 PUSH1 0x1 PUSH0 ADD PUSH0 DUP4 DUP2 MSTORE PUSH1 0x20 ADD SWAP1 DUP2 MSTORE PUSH1 0x20 ADD PUSH0 KECCAK256 DUP1 SLOAD PUSH2 0x1EF SWAP1 PUSH2 0x75E JUMP JUMPDEST DUP1 PUSH1 0x1F ADD PUSH1 0x20 DUP1 SWAP2 DIV MUL PUSH1 0x20 ADD PUSH1 0x40 MLOAD SWAP1 DUP2 ADD PUSH1 0x40 MSTORE DUP1 SWAP3 SWAP2 SWAP1 DUP2 DUP2 MSTORE PUSH1 0x20 ADD DUP3 DUP1 SLOAD PUSH2 0x21B SWAP1 PUSH2 0x75E JUMP JUMPDEST DUP1 ISZERO PUSH2 0x266 JUMPI DUP1 PUSH1 0x1F LT PUSH2 0x23D JUMPI PUSH2 0x100 DUP1 DUP4 SLOAD DIV MUL DUP4 MSTORE SWAP2 PUSH1 0x20 ADD SWAP2 PUSH2 0x266 JUMP JUMPDEST DUP3 ADD SWAP2 SWAP1 PUSH0 MSTORE PUSH1 0x20 PUSH0 KECCAK256 SWAP1 JUMPDEST DUP2 SLOAD DUP2 MSTORE SWAP1 PUSH1 0x1 ADD SWAP1 PUSH1 0x20 ADD DUP1 DUP4 GT PUSH2 0x249 JUMPI DUP3 SWAP1 SUB PUSH1 0x1F AND DUP3 ADD SWAP2 JUMPDEST POP POP POP POP POP SWAP1 POP SWAP2 SWAP1 POP JUMP JUMPDEST PUSH1 0x60 PUSH1 0x2 PUSH0 ADD PUSH0 DUP4 DUP2 MSTORE PUSH1 0x20 ADD SWAP1 DUP2 MSTORE PUSH1 0x20 ADD PUSH0 KECCAK256 DUP1 SLOAD PUSH2 0x292 SWAP1 PUSH2 0x75E JUMP JUMPDEST DUP1 PUSH1 0x1F ADD PUSH1 0x20 DUP1 SWAP2 DIV MUL PUSH1 0x20 ADD PUSH1 0x40 MLOAD SWAP1 DUP2 ADD PUSH1 0x40 MSTORE DUP1 SWAP3 SWAP2 SWAP1 DUP2 DUP2 MSTORE PUSH1 0x20 ADD DUP3 DUP1 SLOAD PUSH2 0x2BE SWAP1 PUSH2 0x75E JUMP JUMPDEST DUP1 ISZERO PUSH2 0x309 JUMPI DUP1 PUSH1 0x1F LT PUSH2 0x2E0 JUMPI PUSH2 0x100 DUP1 DUP4 SLOAD DIV MUL DUP4 MSTORE SWAP2 PUSH1 0x20 ADD SWAP2 PUSH2 0x309 JUMP JUMPDEST DUP3 ADD SWAP2 SWAP1 PUSH0 MSTORE PUSH1 0x20 PUSH0 KECCAK256 SWAP1 JUMPDEST DUP2 SLOAD DUP2 MSTORE SWAP1 PUSH1 0x1 ADD SWAP1 PUSH1 0x20 ADD DUP1 DUP4 GT PUSH2 0x2EC JUMPI DUP3 SWAP1 SUB PUSH1 0x1F AND DUP3 ADD SWAP2 JUMPDEST POP POP POP POP POP SWAP1 POP SWAP2 SWAP1 POP JUMP JUMPDEST PUSH1 0x60 PUSH0 DUP1 ADD PUSH0 DUP4 DUP2 MSTORE PUSH1 0x20 ADD SWAP1 DUP2 MSTORE PUSH1 0x20 ADD PUSH0 KECCAK256 DUP1 SLOAD PUSH2 0x334 SWAP1 PUSH2 0x75E JUMP JUMPDEST DUP1 PUSH1 0x1F ADD PUSH1 0x20 DUP1 SWAP2 DIV MUL PUSH1 0x20 ADD PUSH1 0x40 MLOAD SWAP1 DUP2 ADD PUSH1 0x40 MSTORE DUP1 SWAP3 SWAP2 SWAP1 DUP2 DUP2 MSTORE PUSH1 0x20 ADD DUP3 DUP1 SLOAD PUSH2 0x360 SWAP1 PUSH2 0x75E JUMP JUMPDEST DUP1 ISZERO PUSH2 0x3AB JUMPI DUP1 PUSH1 0x1F LT PUSH2 0x382 JUMPI PUSH2 0x100 DUP1 DUP4 SLOAD DIV MUL DUP4 MSTORE SWAP2 PUSH1 0x20 ADD SWAP2 PUSH2 0x3AB JUMP JUMPDEST DUP3 ADD SWAP2 SWAP1 PUSH0 MSTORE PUSH1 0x20 PUSH0 KECCAK256 SWAP1 JUMPDEST DUP2 SLOAD DUP2 MSTORE SWAP1 PUSH1 0x1 ADD SWAP1 PUSH1 0x20 ADD DUP1 DUP4 GT PUSH2 0x38E JUMPI DUP3 SWAP1 SUB PUSH1 0x1F AND DUP3 ADD SWAP2 JUMPDEST POP POP POP POP POP SWAP1 POP SWAP2 SWAP1 POP JUMP JUMPDEST PUSH1 0x60 PUSH1 0x3 PUSH0 ADD PUSH0 DUP4 DUP2 MSTORE PUSH1 0x20 ADD SWAP1 DUP2 MSTORE PUSH1 0x20 ADD PUSH0 KECCAK256 DUP1 SLOAD PUSH2 0x3D7 SWAP1 PUSH2 0x75E JUMP JUMPDEST DUP1 PUSH1 0x1F ADD PUSH1 0x20 DUP1 SWAP2 DIV MUL PUSH1 0x20 ADD PUSH1 0x40 MLOAD SWAP1 DUP2 ADD PUSH1 0x40 MSTORE DUP1 SWAP3 SWAP2 SWAP1 DUP2 DUP2 MSTORE PUSH1 0x20 ADD DUP3 DUP1 SLOAD PUSH2 0x403 SWAP1 PUSH2 0x75E JUMP JUMPDEST DUP1 ISZERO PUSH2 0x44E JUMPI DUP1 PUSH1 0x1F LT PUSH2 0x425 JUMPI PUSH2 0x100 DUP1 DUP4 SLOAD DIV MUL DUP4 MSTORE SWAP2 PUSH1 0x20 ADD SWAP2 PUSH2 0x44E JUMP JUMPDEST DUP3 ADD SWAP2 SWAP1 PUSH0 MSTORE PUSH1 0x20 PUSH0 KECCAK256 SWAP1 JUMPDEST DUP2 SLOAD DUP2 MSTORE SWAP1 PUSH1 0x1 ADD SWAP1 PUSH1 0x20 ADD DUP1 DUP4 GT PUSH2 0x431 JUMPI DUP3 SWAP1 SUB PUSH1 0x1F AND DUP3 ADD SWAP2 JUMPDEST POP POP POP POP POP SWAP1 POP SWAP2 SWAP1 POP JUMP JUMPDEST PUSH1 0x6 DUP2 PUSH1 0x6 DUP2 LT PUSH2 0x469 JUMPI PUSH0 DUP1 REVERT JUMPDEST ADD PUSH0 SWAP2 POP SWAP1 POP DUP1 SLOAD PUSH2 0x47A SWAP1 PUSH2 0x75E JUMP JUMPDEST DUP1 PUSH1 0x1F ADD PUSH1 0x20 DUP1 SWAP2 DIV MUL PUSH1 0x20 ADD PUSH1 0x40 MLOAD SWAP1 DUP2 ADD PUSH1 0x40 MSTORE DUP1 SWAP3 SWAP2 SWAP1 DUP2 DUP2 MSTORE PUSH1 0x20 ADD DUP3 DUP1 SLOAD PUSH2 0x4A6 SWAP1 PUSH2 0x75E JUMP JUMPDEST DUP1 ISZERO PUSH2 0x4F1 JUMPI DUP1 PUSH1 0x1F LT PUSH2 0x4C8 JUMPI PUSH2 0x100 DUP1 DUP4 SLOAD DIV MUL DUP4 MSTORE SWAP2 PUSH1 0x20 ADD SWAP2 PUSH2 0x4F1 JUMP JUMPDEST DUP3 ADD SWAP2 SWAP1 PUSH0 MSTORE PUSH1 0x20 PUSH0 KECCAK256 SWAP1 JUMPDEST DUP2 SLOAD DUP2 MSTORE SWAP1 PUSH1 0x1 ADD SWAP1 PUSH1 0x20 ADD DUP1 DUP4 GT PUSH2 0x4D4 JUMPI DUP3 SWAP1 SUB PUSH1 0x1F AND DUP3 ADD SWAP2 JUMPDEST POP POP POP POP POP DUP2 JUMP JUMPDEST PUSH1 0x60 PUSH1 0x4 PUSH0 ADD PUSH0 DUP4 DUP2 MSTORE PUSH1 0x20 ADD SWAP1 DUP2 MSTORE PUSH1 0x20 ADD PUSH0 KECCAK256 DUP1 SLOAD PUSH2 0x519 SWAP1 PUSH2 0x75E JUMP JUMPDEST DUP1 PUSH1 0x1F ADD PUSH1 0x20 DUP1 SWAP2 DIV MUL PUSH1 0x20 ADD PUSH1 0x40 MLOAD SWAP1 DUP2 ADD PUSH1 0x40 MSTORE DUP1 SWAP3 SWAP2 SWAP1 DUP2 DUP2 MSTORE PUSH1 0x20 ADD DUP3 DUP1 SLOAD PUSH2 0x545 SWAP1 PUSH2 0x75E JUMP JUMPDEST DUP1 ISZERO PUSH2 0x590 JUMPI DUP1 PUSH1 0x1F LT PUSH2 0x567 JUMPI PUSH2 0x100 DUP1 DUP4 SLOAD DIV MUL DUP4 MSTORE SWAP2 PUSH1 0x20 ADD SWAP2 PUSH2 0x590 JUMP JUMPDEST DUP3 ADD SWAP2 SWAP1 PUSH0 MSTORE PUSH1 0x20 PUSH0 KECCAK256 SWAP1 JUMPDEST DUP2 SLOAD DUP2 MSTORE SWAP1 PUSH1 0x1 ADD SWAP1 PUSH1 0x20 ADD DUP1 DUP4 GT PUSH2 0x573 JUMPI DUP3 SWAP1 SUB PUSH1 0x1F AND DUP3 ADD SWAP2 JUMPDEST POP POP POP POP POP SWAP1 POP SWAP2 SWAP1 POP JUMP JUMPDEST PUSH1 0x60 PUSH1 0x5 PUSH0 ADD PUSH0 DUP4 DUP2 MSTORE PUSH1 0x20 ADD SWAP1 DUP2 MSTORE PUSH1 0x20 ADD PUSH0 KECCAK256 DUP1 SLOAD PUSH2 0x5BC SWAP1 PUSH2 0x75E JUMP JUMPDEST DUP1 PUSH1 0x1F ADD PUSH1 0x20 DUP1 SWAP2 DIV MUL PUSH1 0x20 ADD PUSH1 0x40 MLOAD SWAP1 DUP2 ADD PUSH1 0x40 MSTORE DUP1 SWAP3 SWAP2 SWAP1 DUP2 DUP2 MSTORE PUSH1 0x20 ADD DUP3 DUP1 SLOAD PUSH2 0x5E8 SWAP1 PUSH2 0x75E JUMP JUMPDEST DUP1 ISZERO PUSH2 0x633 JUMPI DUP1 PUSH1 0x1F LT PUSH2 0x60A JUMPI PUSH2 0x100 DUP1 DUP4 SLOAD DIV MUL DUP4 MSTORE SWAP2 PUSH1 0x20 ADD SWAP2 PUSH2 0x633 JUMP JUMPDEST DUP3 ADD SWAP2 SWAP1 PUSH0 MSTORE PUSH1 0x20 PUSH0 KECCAK256 SWAP1 JUMPDEST DUP2 SLOAD DUP2 MSTORE SWAP1 PUSH1 0x1 ADD SWAP1 PUSH1 0x20 ADD DUP1 DUP4 GT PUSH2 0x616 JUMPI DUP3 SWAP1 SUB PUSH1 0x1F AND DUP3 ADD SWAP2 JUMPDEST POP POP POP POP POP SWAP1 POP SWAP2 SWAP1 POP JUMP JUMPDEST PUSH0 DUP1 REVERT JUMPDEST PUSH0 DUP2 SWAP1 POP SWAP2 SWAP1 POP JUMP JUMPDEST PUSH2 0x655 DUP2 PUSH2 0x643 JUMP JUMPDEST DUP2 EQ PUSH2 0x65F JUMPI PUSH0 DUP1 REVERT JUMPDEST POP JUMP JUMPDEST PUSH0 DUP2 CALLDATALOAD SWAP1 POP PUSH2 0x670 DUP2 PUSH2 0x64C JUMP JUMPDEST SWAP3 SWAP2 POP POP JUMP JUMPDEST PUSH0 PUSH1 0x20 DUP3 DUP5 SUB SLT ISZERO PUSH2 0x68B JUMPI PUSH2 0x68A PUSH2 0x63F JUMP JUMPDEST JUMPDEST PUSH0 PUSH2 0x698 DUP5 DUP3 DUP6 ADD PUSH2 0x662 JUMP JUMPDEST SWAP2 POP POP SWAP3 SWAP2 POP POP JUMP JUMPDEST PUSH0 DUP2 MLOAD SWAP1 POP SWAP2 SWAP1 POP JUMP JUMPDEST PUSH0 DUP3 DUP3 MSTORE PUSH1 0x20 DUP3 ADD SWAP1 POP SWAP3 SWAP2 POP POP JUMP JUMPDEST DUP3 DUP2 DUP4 MCOPY PUSH0 DUP4 DUP4 ADD MSTORE POP POP POP JUMP JUMPDEST PUSH0 PUSH1 0x1F NOT PUSH1 0x1F DUP4 ADD AND SWAP1 POP SWAP2 SWAP1 POP JUMP JUMPDEST PUSH0 PUSH2 0x6E3 DUP3 PUSH2 0x6A1 JUMP JUMPDEST PUSH2 0x6ED DUP2 DUP6 PUSH2 0x6AB JUMP JUMPDEST SWAP4 POP PUSH2 0x6FD DUP2 DUP6 PUSH1 0x20 DUP7 ADD PUSH2 0x6BB JUMP JUMPDEST PUSH2 0x706 DUP2 PUSH2 0x6C9 JUMP JUMPDEST DUP5 ADD SWAP2 POP POP SWAP3 SWAP2 POP POP JUMP JUMPDEST PUSH0 PUSH1 0x20 DUP3 ADD SWAP1 POP DUP2 DUP2 SUB PUSH0 DUP4 ADD MSTORE PUSH2 0x729 DUP2 DUP5 PUSH2 0x6D9 JUMP JUMPDEST SWAP1 POP SWAP3 SWAP2 POP POP JUMP JUMPDEST PUSH32 0x4E487B7100000000000000000000000000000000000000000000000000000000 PUSH0 MSTORE PUSH1 0x22 PUSH1 0x4 MSTORE PUSH1 0x24 PUSH0 REVERT JUMPDEST PUSH0 PUSH1 0x2 DUP3 DIV SWAP1 POP PUSH1 0x1 DUP3 AND DUP1 PUSH2 0x775 JUMPI PUSH1 0x7F DUP3 AND SWAP2 POP JUMPDEST PUSH1 0x20 DUP3 LT DUP2 SUB PUSH2 0x788 JUMPI PUSH2 0x787 PUSH2 0x731 JUMP JUMPDEST JUMPDEST POP SWAP2 SWAP1 POP JUMP INVALID LOG2 PUSH5 0x6970667358 0x22 SLT KECCAK256 BLOCKHASH SHR SMOD TLOAD 0xD8 0xAF 0x1E 0xBE CHAINID PUSH29 0xDC02604B45DE97BC5F66F98DC70446907159FBBEA5E164736F6C634300 ADDMOD BYTE STOP CALLER "
		},
		"gasEstimates": {
			"creation": {
				"codeDepositCost": "397600",
				"executionCost": "infinite",
				"totalCost": "infinite"
			},
			"external": {
				"colours(uint256)": "infinite",
				"getEyes(uint256)": "infinite",
				"getHat(uint256)": "infinite",
				"getPants(uint256)": "infinite",
				"getShirt(uint256)": "infinite",
				"getSkin(uint256)": "infinite",
				"getSpecial(uint256)": "infinite"
			}
		},
		"methodIdentifiers": {
			"colours(uint256)": "c76ab940",
			"getEyes(uint256)": "c4d30bfa",
			"getHat(uint256)": "d2571f88",
			"getPants(uint256)": "4337932d",
			"getShirt(uint256)": "4c9c05ea",
			"getSkin(uint256)": "98e4f581",
			"getSpecial(uint256)": "e1d916f7"
		}
	},
	"abi": [
		{
			"inputs": [],
			"stateMutability": "nonpayable",
			"type": "constructor"
		},
		{
			"inputs": [
				{
					"internalType": "uint256",
					"name": "",
					"type": "uint256"
				}
			],
			"name": "colours",
			"outputs": [
				{
					"internalType": "string",
					"name": "",
					"type": "string"
				}
			],
			"stateMutability": "view",
			"type": "function"
		},
		{
			"inputs": [
				{
					"internalType": "uint256",
					"name": "i",
					"type": "uint256"
				}
			],
			"name": "getEyes",
			"outputs": [
				{
					"internalType": "string",
					"name": "",
					"type": "string"
				}
			],
			"stateMutability": "view",
			"type": "function"
		},
		{
			"inputs": [
				{
					"internalType": "uint256",
					"name": "i",
					"type": "uint256"
				}
			],
			"name": "getHat",
			"outputs": [
				{
					"internalType": "string",
					"name": "",
					"type": "string"
				}
			],
			"stateMutability": "view",
			"type": "function"
		},
		{
			"inputs": [
				{
					"internalType": "uint256",
					"name": "i",
					"type": "uint256"
				}
			],
			"name": "getPants",
			"outputs": [
				{
					"internalType": "string",
					"name": "",
					"type": "string"
				}
			],
			"stateMutability": "view",
			"type": "function"
		},
		{
			"inputs": [
				{
					"internalType": "uint256",
					"name": "i",
					"type": "uint256"
				}
			],
			"name": "getShirt",
			"outputs": [
				{
					"internalType": "string",
					"name": "",
					"type": "string"
				}
			],
			"stateMutability": "view",
			"type": "function"
		},
		{
			"inputs": [
				{
					"internalType": "uint256",
					"name": "i",
					"type": "uint256"
				}
			],
			"name": "getSkin",
			"outputs": [
				{
					"internalType": "string",
					"name": "",
					"type": "string"
				}
			],
			"stateMutability": "view",
			"type": "function"
		},
		{
			"inputs": [
				{
					"internalType": "uint256",
					"name": "i",
					"type": "uint256"
				}
			],
			"name": "getSpecial",
			"outputs": [
				{
					"internalType": "string",
					"name": "",
					"type": "string"
				}
			],
			"stateMutability": "view",
			"type": "function"
		}
	]
}