{
	"data": {
		"bytecode": {
			"linkReferences": {},
			"object": "60806040526001600a556103e8600c55660aa87bee538000600d556001600e555f600f5f6101000a81548160ff0219169083151502179055505f600f60016101000a81548160ff0219169083151502179055505f600f60026101000a81548160ff021916908315150217905550348015610077575f80fd5b506040516141533803806141538339818101604052810190610099919061033e565b336040518060400160405280600981526020017f48616d20506570657300000000000000000000000000000000000000000000008152506040518060400160405280600581526020017f4850455045000000000000000000000000000000000000000000000000000000815250816002908161011591906105a3565b50806003908161012591906105a3565b506101346102a960201b60201c565b5f819055506101476102a960201b60201c565b6101556102b160201b60201c565b10156101725761017163fed8210f60e01b6102d860201b60201c565b5b50508060095f6101000a81548173ffffffffffffffffffffffffffffffffffffffff021916908373ffffffffffffffffffffffffffffffffffffffff1602179055508073ffffffffffffffffffffffffffffffffffffffff165f73ffffffffffffffffffffffffffffffffffffffff167f8be0079c531659141344cd1fd0a4f28419497f9722a3daafe3b4186f6b6457e060405160405180910390a35080600b5f6101000a81548173ffffffffffffffffffffffffffffffffffffffff021916908373ffffffffffffffffffffffffffffffffffffffff160217905550735b38da6a701c568545dcfcb03fcb875f56beddc460135f6101000a81548173ffffffffffffffffffffffffffffffffffffffff021916908373ffffffffffffffffffffffffffffffffffffffff16021790555050610672565b5f6001905090565b5f7fffffffffffffffffffffffffffffffffffffffffffffffffffffffffffffffff905090565b805f5260045ffd5b5f80fd5b5f73ffffffffffffffffffffffffffffffffffffffff82169050919050565b5f61030d826102e4565b9050919050565b61031d81610303565b8114610327575f80fd5b50565b5f8151905061033881610314565b92915050565b5f60208284031215610353576103526102e0565b5b5f6103608482850161032a565b91505092915050565b5f81519050919050565b7f4e487b71000000000000000000000000000000000000000000000000000000005f52604160045260245ffd5b7f4e487b71000000000000000000000000000000000000000000000000000000005f52602260045260245ffd5b5f60028204905060018216806103e457607f821691505b6020821081036103f7576103f66103a0565b5b50919050565b5f819050815f5260205f209050919050565b5f6020601f8301049050919050565b5f82821b905092915050565b5f600883026104597fffffffffffffffffffffffffffffffffffffffffffffffffffffffffffffffff8261041e565b610463868361041e565b95508019841693508086168417925050509392505050565b5f819050919050565b5f819050919050565b5f6104a76104a261049d8461047b565b610484565b61047b565b9050919050565b5f819050919050565b6104c08361048d565b6104d46104cc826104ae565b84845461042a565b825550505050565b5f90565b6104e86104dc565b6104f38184846104b7565b505050565b5b818110156105165761050b5f826104e0565b6001810190506104f9565b5050565b601f82111561055b5761052c816103fd565b6105358461040f565b81016020851015610544578190505b6105586105508561040f565b8301826104f8565b50505b505050565b5f82821c905092915050565b5f61057b5f1984600802610560565b1980831691505092915050565b5f610593838361056c565b9150826002028217905092915050565b6105ac82610369565b67ffffffffffffffff8111156105c5576105c4610373565b5b6105cf82546103cd565b6105da82828561051a565b5f60209050601f83116001811461060b575f84156105f9578287015190505b6106038582610588565b86555061066a565b601f198416610619866103fd565b5f5b828110156106405784890151825560018201915060208501945060208101905061061b565b8683101561065d5784890151610659601f89168261056c565b8355505b6001600288020188555050505b505050505050565b613ad48061067f5f395ff3fe608060405260043610610224575f3560e01c8063740d73f311610122578063beb81891116100aa578063e985e9c51161006e578063e985e9c5146107ce578063ea9945301461080a578063ed6661c214610846578063f2fde38b14610870578063fa0fca841461089857610224565b8063beb81891146106d8578063c23dc68f14610702578063c662e4811461073e578063c87b56dd14610768578063d12f743a146107a457610224565b80638da5cb5b116100f15780638da5cb5b1461060457806395d89b411461062e57806399a2557a14610658578063a22cb46514610694578063b88d4fde146106bc57610224565b8063740d73f31461053c57806375e91691146105645780637c928fe9146105a05780638462151c146105c857610224565b8063367b2a20116101b05780634a7d3e81116101745780634a7d3e811461045c5780635bbb2177146104725780636352211e146104ae5780636b8a21fc146104ea57806370a082311461050057610224565b8063367b2a201461039c5780633ccfd60b146103c657806342842e0e146103dc578063438a67e7146103f8578063481231a51461043457610224565b806318160ddd116101f757806318160ddd146102e6578063187e0f171461031057806323b872dd1461033a5780632db115441461035657806332cb6b0c1461037257610224565b806301ffc9a71461022857806306fdde0314610264578063081812fc1461028e578063095ea7b3146102ca575b5f80fd5b348015610233575f80fd5b5061024e60048036038101906102499190612a4a565b6108d4565b60405161025b9190612a8f565b60405180910390f35b34801561026f575f80fd5b50610278610965565b6040516102859190612b18565b60405180910390f35b348015610299575f80fd5b506102b460048036038101906102af9190612b6b565b6109f5565b6040516102c19190612bd5565b60405180910390f35b6102e460048036038101906102df9190612c18565b610a4e565b005b3480156102f1575f80fd5b506102fa610a5e565b6040516103079190612c65565b60405180910390f35b34801561031b575f80fd5b50610324610aa9565b6040516103319190612a8f565b60405180910390f35b610354600480360381019061034f9190612c7e565b610abc565b005b610370600480360381019061036b9190612b6b565b610d67565b005b34801561037d575f80fd5b50610386611067565b6040516103939190612c65565b60405180910390f35b3480156103a7575f80fd5b506103b061106d565b6040516103bd9190612bd5565b60405180910390f35b3480156103d1575f80fd5b506103da611092565b005b6103f660048036038101906103f19190612c7e565b611221565b005b348015610403575f80fd5b5061041e60048036038101906104199190612cce565b611240565b60405161042b9190612c65565b60405180910390f35b34801561043f575f80fd5b5061045a60048036038101906104559190612cce565b611255565b005b348015610467575f80fd5b50610470611327565b005b34801561047d575f80fd5b5061049860048036038101906104939190612d5a565b6113e0565b6040516104a59190612efd565b60405180910390f35b3480156104b9575f80fd5b506104d460048036038101906104cf9190612b6b565b61143c565b6040516104e19190612bd5565b60405180910390f35b3480156104f5575f80fd5b506104fe61144d565b005b34801561050b575f80fd5b5061052660048036038101906105219190612cce565b611508565b6040516105339190612c65565b60405180910390f35b348015610547575f80fd5b50610562600480360381019061055d9190612f72565b61159c565b005b34801561056f575f80fd5b5061058a60048036038101906105859190612b6b565b61171b565b6040516105979190612fd5565b60405180910390f35b3480156105ab575f80fd5b506105c660048036038101906105c19190612b6b565b611730565b005b3480156105d3575f80fd5b506105ee60048036038101906105e99190612cce565b6119ea565b6040516105fb91906130a5565b60405180910390f35b34801561060f575f80fd5b50610618611a63565b6040516106259190612bd5565b60405180910390f35b348015610639575f80fd5b50610642611a88565b60405161064f9190612b18565b60405180910390f35b348015610663575f80fd5b5061067e600480360381019061067991906130c5565b611b18565b60405161068b91906130a5565b60405180910390f35b34801561069f575f80fd5b506106ba60048036038101906106b5919061313f565b611b2e565b005b6106d660048036038101906106d191906132a5565b611c34565b005b3480156106e3575f80fd5b506106ec611c85565b6040516106f99190612a8f565b60405180910390f35b34801561070d575f80fd5b5061072860048036038101906107239190612b6b565b611c97565b6040516107359190613378565b60405180910390f35b348015610749575f80fd5b50610752611d0c565b60405161075f9190612c65565b60405180910390f35b348015610773575f80fd5b5061078e60048036038101906107899190612b6b565b611d12565b60405161079b9190612b18565b60405180910390f35b3480156107af575f80fd5b506107b8611dca565b6040516107c59190612a8f565b60405180910390f35b3480156107d9575f80fd5b506107f460048036038101906107ef9190613391565b611ddd565b6040516108019190612a8f565b60405180910390f35b348015610815575f80fd5b50610830600480360381019061082b9190612cce565b611e6b565b60405161083d9190612c65565b60405180910390f35b348015610851575f80fd5b5061085a611e80565b6040516108679190612c65565b60405180910390f35b34801561087b575f80fd5b5061089660048036038101906108919190612cce565b611e86565b005b3480156108a3575f80fd5b506108be60048036038101906108b99190612cce565b611fb2565b6040516108cb9190612a8f565b60405180910390f35b5f6301ffc9a760e01b827bffffffffffffffffffffffffffffffffffffffffffffffffffffffff1916148061092e57506380ac58cd60e01b827bffffffffffffffffffffffffffffffffffffffffffffffffffffffff1916145b8061095e5750635b5e139f60e01b827bffffffffffffffffffffffffffffffffffffffffffffffffffffffff1916145b9050919050565b606060028054610974906133fc565b80601f01602080910402602001604051908101604052809291908181526020018280546109a0906133fc565b80156109eb5780601f106109c2576101008083540402835291602001916109eb565b820191905f5260205f20905b8154815290600101906020018083116109ce57829003601f168201915b5050505050905090565b5f6109ff82611fcf565b610a1457610a1363cf4700e460e01b612072565b5b60065f8381526020019081526020015f205f015f9054906101000a900473ffffffffffffffffffffffffffffffffffffffff169050919050565b610a5a8282600161207a565b5050565b5f610a676121a4565b6001545f54030390507fffffffffffffffffffffffffffffffffffffffffffffffffffffffffffffffff610a996121ac565b14610aa657600854810190505b90565b600f60029054906101000a900460ff1681565b5f610ac6826121d3565b905073ffffffffffffffffffffffffffffffffffffffff8473ffffffffffffffffffffffffffffffffffffffff161693508373ffffffffffffffffffffffffffffffffffffffff168173ffffffffffffffffffffffffffffffffffffffff1614610b3b57610b3a63a114810060e01b612072565b5b5f80610b46846122e2565b91509150610b5c8187610b57612305565b61230c565b610b8757610b7186610b6c612305565b611ddd565b610b8657610b856359c896be60e01b612072565b5b5b610b94868686600161234f565b8015610b9e575f82555b60055f8773ffffffffffffffffffffffffffffffffffffffff1673ffffffffffffffffffffffffffffffffffffffff1681526020019081526020015f205f8154600190039190508190555060055f8673ffffffffffffffffffffffffffffffffffffffff1673ffffffffffffffffffffffffffffffffffffffff1681526020019081526020015f205f815460010191905081905550610c6685610c42888887612355565b7c02000000000000000000000000000000000000000000000000000000001761237c565b60045f8681526020019081526020015f20819055505f7c0200000000000000000000000000000000000000000000000000000000841603610ce2575f6001850190505f60045f8381526020019081526020015f205403610ce0575f548114610cdf578360045f8381526020019081526020015f20819055505b5b505b5f73ffffffffffffffffffffffffffffffffffffffff8673ffffffffffffffffffffffffffffffffffffffff161690508481887fddf252ad1be2c89b69c2b068fc378daa952ba7f163c4a11628f55a4df523b3ef5f80a45f8103610d5157610d5063ea553b3460e01b612072565b5b610d5e87878760016123a6565b50505050505050565b6001600a5414610dac576040517f08c379a0000000000000000000000000000000000000000000000000000000008152600401610da390613476565b60405180910390fd5b6002600a819055506001600f60026101000a81548160ff0219169083151502179055610dd6575f80fd5b60048160145f3373ffffffffffffffffffffffffffffffffffffffff1673ffffffffffffffffffffffffffffffffffffffff1681526020019081526020015f2054610e2191906134c1565b1115610e59576040517f58c7943400000000000000000000000000000000000000000000000000000000815260040160405180910390fd5b8060145f3373ffffffffffffffffffffffffffffffffffffffff1673ffffffffffffffffffffffffffffffffffffffff1681526020019081526020015f205f828254610ea591906134c1565b925050819055505f610eb56123ac565b9050600c548103610ef2576040517f52df9fe500000000000000000000000000000000000000000000000000000000815260040160405180910390fd5b5f8211610f2b576040517fd43e607500000000000000000000000000000000000000000000000000000000815260040160405180910390fd5b5f8282610f3891906134c1565b9050600c54811115610f76576040517f3ffc0da600000000000000000000000000000000000000000000000000000000815260040160405180910390fd5b5f600d5484610f8591906134f4565b905080341015610fc1576040517f356680b700000000000000000000000000000000000000000000000000000000815260040160405180910390fd5b5f610fca6123f3565b90505f60018683610fdb91906134c1565b610fe59190613535565b90505b80821161104d57600143610ffc9190613535565b408260405160200161100f9291906135a8565b6040516020818303038152906040528051906020012060105f8481526020019081526020015f20819055508180611045906135d3565b925050610fe8565b61105733876123fb565b50505050506001600a8190555050565b600c5481565b60135f9054906101000a900473ffffffffffffffffffffffffffffffffffffffff1681565b60095f9054906101000a900473ffffffffffffffffffffffffffffffffffffffff1673ffffffffffffffffffffffffffffffffffffffff163373ffffffffffffffffffffffffffffffffffffffff1614611121576040517f08c379a000000000000000000000000000000000000000000000000000000000815260040161111890613664565b60405180910390fd5b6001600a5414611166576040517f08c379a000000000000000000000000000000000000000000000000000000000815260040161115d90613476565b60405180910390fd5b6002600a819055505f3373ffffffffffffffffffffffffffffffffffffffff1647604051611193906136af565b5f6040518083038185875af1925050503d805f81146111cd576040519150601f19603f3d011682016040523d82523d5f602084013e6111d2565b606091505b5050905080611216576040517f08c379a000000000000000000000000000000000000000000000000000000000815260040161120d9061370d565b60405180910390fd5b506001600a81905550565b61123b83838360405180602001604052805f815250611c34565b505050565b6014602052805f5260405f205f915090505481565b60095f9054906101000a900473ffffffffffffffffffffffffffffffffffffffff1673ffffffffffffffffffffffffffffffffffffffff163373ffffffffffffffffffffffffffffffffffffffff16146112e4576040517f08c379a00000000000000000000000000000000000000000000000000000000081526004016112db90613664565b60405180910390fd5b8060135f6101000a81548173ffffffffffffffffffffffffffffffffffffffff021916908373ffffffffffffffffffffffffffffffffffffffff16021790555050565b60095f9054906101000a900473ffffffffffffffffffffffffffffffffffffffff1673ffffffffffffffffffffffffffffffffffffffff163373ffffffffffffffffffffffffffffffffffffffff16146113b6576040517f08c379a00000000000000000000000000000000000000000000000000000000081526004016113ad90613664565b60405180910390fd5b600f5f9054906101000a900460ff1615600f5f6101000a81548160ff021916908315150217905550565b6060805f84849050905060405191508082528060051b90508060208301016040525b5f8114611431575f6020820391508186013590505f61142082611c97565b905080836020860101525050611402565b819250505092915050565b5f611446826121d3565b9050919050565b60095f9054906101000a900473ffffffffffffffffffffffffffffffffffffffff1673ffffffffffffffffffffffffffffffffffffffff163373ffffffffffffffffffffffffffffffffffffffff16146114dc576040517f08c379a00000000000000000000000000000000000000000000000000000000081526004016114d390613664565b60405180910390fd5b600f60029054906101000a900460ff1615600f60026101000a81548160ff021916908315150217905550565b5f8073ffffffffffffffffffffffffffffffffffffffff168273ffffffffffffffffffffffffffffffffffffffff160361154d5761154c638f4eb60460e01b612072565b5b67ffffffffffffffff60055f8473ffffffffffffffffffffffffffffffffffffffff1673ffffffffffffffffffffffffffffffffffffffff1681526020019081526020015f2054169050919050565b60135f9054906101000a900473ffffffffffffffffffffffffffffffffffffffff1673ffffffffffffffffffffffffffffffffffffffff163373ffffffffffffffffffffffffffffffffffffffff161461162b576040517f08c379a000000000000000000000000000000000000000000000000000000000815260040161162290613775565b60405180910390fd5b6001600a5414611670576040517f08c379a000000000000000000000000000000000000000000000000000000000815260040161166790613476565b60405180910390fd5b6002600a819055505f5b8282905081101561170e57600160125f85858581811061169d5761169c613793565b5b90506020020160208101906116b29190612cce565b73ffffffffffffffffffffffffffffffffffffffff1673ffffffffffffffffffffffffffffffffffffffff1681526020019081526020015f205f6101000a81548160ff021916908315150217905550808060010191505061167a565b506001600a819055505050565b6010602052805f5260405f205f915090505481565b6001600a5414611775576040517f08c379a000000000000000000000000000000000000000000000000000000000815260040161176c90613476565b60405180910390fd5b6002600a819055506001600f5f6101000a81548160ff021916908315150217905561179e575f80fd5b6001151560125f3373ffffffffffffffffffffffffffffffffffffffff1673ffffffffffffffffffffffffffffffffffffffff1681526020019081526020015f205f9054906101000a900460ff1615151461182e576040517f08c379a00000000000000000000000000000000000000000000000000000000081526004016118259061380a565b60405180910390fd5b600e548160115f3373ffffffffffffffffffffffffffffffffffffffff1673ffffffffffffffffffffffffffffffffffffffff1681526020019081526020015f205461187a91906134c1565b11156118bb576040517f08c379a00000000000000000000000000000000000000000000000000000000081526004016118b290613872565b60405180910390fd5b5f81116118f4576040517fd43e607500000000000000000000000000000000000000000000000000000000815260040160405180910390fd5b5f6118fd6123f3565b90505f6001838361190e91906134c1565b6119189190613535565b90505b8082116119805760014361192f9190613535565b40826040516020016119429291906135a8565b6040516020818303038152906040528051906020012060105f8481526020019081526020015f20819055508180611978906135d3565b92505061191b565b8260115f3373ffffffffffffffffffffffffffffffffffffffff1673ffffffffffffffffffffffffffffffffffffffff1681526020019081526020015f205f8282546119cc91906134c1565b925050819055506119dd33846123fb565b50506001600a8190555050565b60607fffffffffffffffffffffffffffffffffffffffffffffffffffffffffffffffff611a156121ac565b14611a2b57611a2a63bdba09d760e01b612072565b5b5f611a346121a4565b90505f611a3f6123f3565b90506060818314611a5857611a5585848461256f565b90505b809350505050919050565b60095f9054906101000a900473ffffffffffffffffffffffffffffffffffffffff1681565b606060038054611a97906133fc565b80601f0160208091040260200160405190810160405280929190818152602001828054611ac3906133fc565b8015611b0e5780601f10611ae557610100808354040283529160200191611b0e565b820191905f5260205f20905b815481529060010190602001808311611af157829003601f168201915b5050505050905090565b6060611b2584848461256f565b90509392505050565b8060075f611b3a612305565b73ffffffffffffffffffffffffffffffffffffffff1673ffffffffffffffffffffffffffffffffffffffff1681526020019081526020015f205f8473ffffffffffffffffffffffffffffffffffffffff1673ffffffffffffffffffffffffffffffffffffffff1681526020019081526020015f205f6101000a81548160ff0219169083151502179055508173ffffffffffffffffffffffffffffffffffffffff16611be3612305565b73ffffffffffffffffffffffffffffffffffffffff167f17307eab39ab6107e8899845ad3d59bd9653f200f220920489ca2b5937696c3183604051611c289190612a8f565b60405180910390a35050565b611c3f848484610abc565b5f8373ffffffffffffffffffffffffffffffffffffffff163b14611c7f57611c698484848461271e565b611c7e57611c7d63d1a57ed660e01b612072565b5b5b50505050565b600f5f9054906101000a900460ff1681565b611c9f612999565b611ca76121a4565b8210611d0657611cb56121ac565b821115611ccc57611cc582612848565b9050611d07565b611cd46123f3565b821015611d05575b611ce582612871565b611cf55781600190039150611cdc565b611cfe82612848565b9050611d07565b5b5b919050565b600d5481565b6060600b5f9054906101000a900473ffffffffffffffffffffffffffffffffffffffff1673ffffffffffffffffffffffffffffffffffffffff1663c649c9a88360105f8681526020019081526020015f20546040518363ffffffff1660e01b8152600401611d81929190613890565b5f60405180830381865afa158015611d9b573d5f803e3d5ffd5b505050506040513d5f823e3d601f19601f82011682018060405250810190611dc39190613955565b9050919050565b600f60019054906101000a900460ff1681565b5f60075f8473ffffffffffffffffffffffffffffffffffffffff1673ffffffffffffffffffffffffffffffffffffffff1681526020019081526020015f205f8373ffffffffffffffffffffffffffffffffffffffff1673ffffffffffffffffffffffffffffffffffffffff1681526020019081526020015f205f9054906101000a900460ff16905092915050565b6011602052805f5260405f205f915090505481565b600e5481565b60095f9054906101000a900473ffffffffffffffffffffffffffffffffffffffff1673ffffffffffffffffffffffffffffffffffffffff163373ffffffffffffffffffffffffffffffffffffffff1614611f15576040517f08c379a0000000000000000000000000000000000000000000000000000000008152600401611f0c90613664565b60405180910390fd5b8060095f6101000a81548173ffffffffffffffffffffffffffffffffffffffff021916908373ffffffffffffffffffffffffffffffffffffffff1602179055508073ffffffffffffffffffffffffffffffffffffffff163373ffffffffffffffffffffffffffffffffffffffff167f8be0079c531659141344cd1fd0a4f28419497f9722a3daafe3b4186f6b6457e060405160405180910390a350565b6012602052805f5260405f205f915054906101000a900460ff1681565b5f81611fd96121a4565b1161206c57611fe66121ac565b82111561200e5761200760045f8481526020019081526020015f205461288e565b905061206d565b5f5482101561206b575f5b5f60045f8581526020019081526020015f205491508103612045578261203e9061399c565b9250612019565b5f7c01000000000000000000000000000000000000000000000000000000008216149150505b5b5b919050565b805f5260045ffd5b5f6120848361143c565b90508180156120c657508073ffffffffffffffffffffffffffffffffffffffff166120ad612305565b73ffffffffffffffffffffffffffffffffffffffff1614155b156120f2576120dc816120d7612305565b611ddd565b6120f1576120f063cfb3b94260e01b612072565b5b5b8360065f8581526020019081526020015f205f015f6101000a81548173ffffffffffffffffffffffffffffffffffffffff021916908373ffffffffffffffffffffffffffffffffffffffff160217905550828473ffffffffffffffffffffffffffffffffffffffff168273ffffffffffffffffffffffffffffffffffffffff167f8c5be1e5ebec7d5bd14f71427d1e84f3dd0314c0f7b2291e5b200ac8c7c3b92560405160405180910390a450505050565b5f6001905090565b5f7fffffffffffffffffffffffffffffffffffffffffffffffffffffffffffffffff905090565b5f816121dd6121a4565b116122cc5760045f8381526020019081526020015f205490506121fe6121ac565b8211156122235761220e8161288e565b6122dd5761222263df2d9b4260e01b612072565b5b5f81036122a4575f5482106122435761224263df2d9b4260e01b612072565b5b5b60045f836001900393508381526020019081526020015f205490505f81031561229f575f7c0100000000000000000000000000000000000000000000000000000000821603156122dd5761229e63df2d9b4260e01b612072565b5b612244565b5f7c0100000000000000000000000000000000000000000000000000000000821603156122dd575b6122dc63df2d9b4260e01b612072565b5b919050565b5f805f60065f8581526020019081526020015f2090508092508254915050915091565b5f33905090565b5f73ffffffffffffffffffffffffffffffffffffffff8316925073ffffffffffffffffffffffffffffffffffffffff821691508382148383141790509392505050565b50505050565b5f8060e883901c905060e861236b8686846128ce565b62ffffff16901b9150509392505050565b5f73ffffffffffffffffffffffffffffffffffffffff83169250814260a01b178317905092915050565b50505050565b5f6123b56121a4565b5f540390507fffffffffffffffffffffffffffffffffffffffffffffffffffffffffffffffff6123e36121ac565b146123f057600854810190505b90565b5f8054905090565b5f805490505f82036124185761241763b562e8dd60e01b612072565b5b6124245f84838561234f565b612442836124335f865f612355565b61243c856128d6565b1761237c565b60045f8381526020019081526020015f2081905550600160406001901b17820260055f8573ffffffffffffffffffffffffffffffffffffffff1673ffffffffffffffffffffffffffffffffffffffff1681526020019081526020015f205f82825401925050819055505f73ffffffffffffffffffffffffffffffffffffffff8473ffffffffffffffffffffffffffffffffffffffff161690505f81036124f3576124f2632e07630060e01b612072565b5b5f83830190505f8390506125056121ac565b6001830311156125205761251f6381647e3a60e01b612072565b5b5b80835f7fddf252ad1be2c89b69c2b068fc378daa952ba7f163c4a11628f55a4df523b3ef5f80a481816001019150810361252157815f8190555050505061256a5f8483856123a6565b505050565b6060818310612589576125886332c1995a60e01b612072565b5b6125916121a4565b8310156125a3576125a06121a4565b92505b5f6125ac6123f3565b90505f7fffffffffffffffffffffffffffffffffffffffffffffffffffffffffffffffff6125d86121ac565b036125e357816125e5565b835b90508084106125f2578093505b5f6125fc87611508565b9050848610612609575f90505b5f811461271457808686031161261f5785850390505b5f60405194506001820160051b85019050806040525f61263e88611c97565b90505f816040015161265157815f015190505b5f5b7fffffffffffffffffffffffffffffffffffffffffffffffffffffffffffffffff61267c6121ac565b146126aa57868a036126965760016126926121ac565b0199505b61269e6121ac565b8a11156126a9575f91505b5b6126b38a612848565b925060408301515f81146126c9575f92506126ef565b8351156126d557835192505b8b831860601b6126ee576001820191508a8260051b8a01525b5b5060018a01995083604052888a148061270757508481145b1561265357808852505050505b5050509392505050565b5f8373ffffffffffffffffffffffffffffffffffffffff1663150b7a02612743612305565b8786866040518563ffffffff1660e01b81526004016127659493929190613a15565b6020604051808303815f875af19250505080156127a057506040513d601f19601f8201168201806040525081019061279d9190613a73565b60015b6127f5573d805f81146127ce576040519150601f19603f3d011682016040523d82523d5f602084013e6127d3565b606091505b505f8151036127ed576127ec63d1a57ed660e01b612072565b5b805181602001fd5b63150b7a0260e01b7bffffffffffffffffffffffffffffffffffffffffffffffffffffffff1916817bffffffffffffffffffffffffffffffffffffffffffffffffffffffff191614915050949350505050565b612850612999565b61286a60045f8481526020019081526020015f20546128e5565b9050919050565b5f8060045f8481526020019081526020015f205414159050919050565b5f7c0100000000000000000000000000000000000000000000000000000000821673ffffffffffffffffffffffffffffffffffffffff8316119050919050565b5f9392505050565b5f6001821460e11b9050919050565b6128ed612999565b81815f019073ffffffffffffffffffffffffffffffffffffffff16908173ffffffffffffffffffffffffffffffffffffffff168152505060a082901c816020019067ffffffffffffffff16908167ffffffffffffffff16815250505f7c01000000000000000000000000000000000000000000000000000000008316141581604001901515908115158152505060e882901c816060019062ffffff16908162ffffff1681525050919050565b60405180608001604052805f73ffffffffffffffffffffffffffffffffffffffff1681526020015f67ffffffffffffffff1681526020015f151581526020015f62ffffff1681525090565b5f604051905090565b5f80fd5b5f80fd5b5f7fffffffff0000000000000000000000000000000000000000000000000000000082169050919050565b612a29816129f5565b8114612a33575f80fd5b50565b5f81359050612a4481612a20565b92915050565b5f60208284031215612a5f57612a5e6129ed565b5b5f612a6c84828501612a36565b91505092915050565b5f8115159050919050565b612a8981612a75565b82525050565b5f602082019050612aa25f830184612a80565b92915050565b5f81519050919050565b5f82825260208201905092915050565b8281835e5f83830152505050565b5f601f19601f8301169050919050565b5f612aea82612aa8565b612af48185612ab2565b9350612b04818560208601612ac2565b612b0d81612ad0565b840191505092915050565b5f6020820190508181035f830152612b308184612ae0565b905092915050565b5f819050919050565b612b4a81612b38565b8114612b54575f80fd5b50565b5f81359050612b6581612b41565b92915050565b5f60208284031215612b8057612b7f6129ed565b5b5f612b8d84828501612b57565b91505092915050565b5f73ffffffffffffffffffffffffffffffffffffffff82169050919050565b5f612bbf82612b96565b9050919050565b612bcf81612bb5565b82525050565b5f602082019050612be85f830184612bc6565b92915050565b612bf781612bb5565b8114612c01575f80fd5b50565b5f81359050612c1281612bee565b92915050565b5f8060408385031215612c2e57612c2d6129ed565b5b5f612c3b85828601612c04565b9250506020612c4c85828601612b57565b9150509250929050565b612c5f81612b38565b82525050565b5f602082019050612c785f830184612c56565b92915050565b5f805f60608486031215612c9557612c946129ed565b5b5f612ca286828701612c04565b9350506020612cb386828701612c04565b9250506040612cc486828701612b57565b9150509250925092565b5f60208284031215612ce357612ce26129ed565b5b5f612cf084828501612c04565b91505092915050565b5f80fd5b5f80fd5b5f80fd5b5f8083601f840112612d1a57612d19612cf9565b5b8235905067ffffffffffffffff811115612d3757612d36612cfd565b5b602083019150836020820283011115612d5357612d52612d01565b5b9250929050565b5f8060208385031215612d7057612d6f6129ed565b5b5f83013567ffffffffffffffff811115612d8d57612d8c6129f1565b5b612d9985828601612d05565b92509250509250929050565b5f81519050919050565b5f82825260208201905092915050565b5f819050602082019050919050565b612dd781612bb5565b82525050565b5f67ffffffffffffffff82169050919050565b612df981612ddd565b82525050565b612e0881612a75565b82525050565b5f62ffffff82169050919050565b612e2581612e0e565b82525050565b608082015f820151612e3f5f850182612dce565b506020820151612e526020850182612df0565b506040820151612e656040850182612dff565b506060820151612e786060850182612e1c565b50505050565b5f612e898383612e2b565b60808301905092915050565b5f602082019050919050565b5f612eab82612da5565b612eb58185612daf565b9350612ec083612dbf565b805f5b83811015612ef0578151612ed78882612e7e565b9750612ee283612e95565b925050600181019050612ec3565b5085935050505092915050565b5f6020820190508181035f830152612f158184612ea1565b905092915050565b5f8083601f840112612f3257612f31612cf9565b5b8235905067ffffffffffffffff811115612f4f57612f4e612cfd565b5b602083019150836020820283011115612f6b57612f6a612d01565b5b9250929050565b5f8060208385031215612f8857612f876129ed565b5b5f83013567ffffffffffffffff811115612fa557612fa46129f1565b5b612fb185828601612f1d565b92509250509250929050565b5f819050919050565b612fcf81612fbd565b82525050565b5f602082019050612fe85f830184612fc6565b92915050565b5f81519050919050565b5f82825260208201905092915050565b5f819050602082019050919050565b61302081612b38565b82525050565b5f6130318383613017565b60208301905092915050565b5f602082019050919050565b5f61305382612fee565b61305d8185612ff8565b935061306883613008565b805f5b8381101561309857815161307f8882613026565b975061308a8361303d565b92505060018101905061306b565b5085935050505092915050565b5f6020820190508181035f8301526130bd8184613049565b905092915050565b5f805f606084860312156130dc576130db6129ed565b5b5f6130e986828701612c04565b93505060206130fa86828701612b57565b925050604061310b86828701612b57565b9150509250925092565b61311e81612a75565b8114613128575f80fd5b50565b5f8135905061313981613115565b92915050565b5f8060408385031215613155576131546129ed565b5b5f61316285828601612c04565b92505060206131738582860161312b565b9150509250929050565b5f80fd5b7f4e487b71000000000000000000000000000000000000000000000000000000005f52604160045260245ffd5b6131b782612ad0565b810181811067ffffffffffffffff821117156131d6576131d5613181565b5b80604052505050565b5f6131e86129e4565b90506131f482826131ae565b919050565b5f67ffffffffffffffff82111561321357613212613181565b5b61321c82612ad0565b9050602081019050919050565b828183375f83830152505050565b5f613249613244846131f9565b6131df565b9050828152602081018484840111156132655761326461317d565b5b613270848285613229565b509392505050565b5f82601f83011261328c5761328b612cf9565b5b813561329c848260208601613237565b91505092915050565b5f805f80608085870312156132bd576132bc6129ed565b5b5f6132ca87828801612c04565b94505060206132db87828801612c04565b93505060406132ec87828801612b57565b925050606085013567ffffffffffffffff81111561330d5761330c6129f1565b5b61331987828801613278565b91505092959194509250565b608082015f8201516133395f850182612dce565b50602082015161334c6020850182612df0565b50604082015161335f6040850182612dff565b5060608201516133726060850182612e1c565b50505050565b5f60808201905061338b5f830184613325565b92915050565b5f80604083850312156133a7576133a66129ed565b5b5f6133b485828601612c04565b92505060206133c585828601612c04565b9150509250929050565b7f4e487b71000000000000000000000000000000000000000000000000000000005f52602260045260245ffd5b5f600282049050600182168061341357607f821691505b602082108103613426576134256133cf565b5b50919050565b7f5245454e5452414e4359000000000000000000000000000000000000000000005f82015250565b5f613460600a83612ab2565b915061346b8261342c565b602082019050919050565b5f6020820190508181035f83015261348d81613454565b9050919050565b7f4e487b71000000000000000000000000000000000000000000000000000000005f52601160045260245ffd5b5f6134cb82612b38565b91506134d683612b38565b92508282019050808211156134ee576134ed613494565b5b92915050565b5f6134fe82612b38565b915061350983612b38565b925082820261351781612b38565b9150828204841483151761352e5761352d613494565b5b5092915050565b5f61353f82612b38565b915061354a83612b38565b925082820390508181111561356257613561613494565b5b92915050565b5f819050919050565b61358261357d82612fbd565b613568565b82525050565b5f819050919050565b6135a261359d82612b38565b613588565b82525050565b5f6135b38285613571565b6020820191506135c38284613591565b6020820191508190509392505050565b5f6135dd82612b38565b91507fffffffffffffffffffffffffffffffffffffffffffffffffffffffffffffffff820361360f5761360e613494565b5b600182019050919050565b7f554e415554484f52495a454400000000000000000000000000000000000000005f82015250565b5f61364e600c83612ab2565b91506136598261361a565b602082019050919050565b5f6020820190508181035f83015261367b81613642565b9050919050565b5f81905092915050565b50565b5f61369a5f83613682565b91506136a58261368c565b5f82019050919050565b5f6136b98261368f565b9150819050919050565b7f5472616e73666572206661696c65642e000000000000000000000000000000005f82015250565b5f6136f7601083612ab2565b9150613702826136c3565b602082019050919050565b5f6020820190508181035f830152613724816136eb565b9050919050565b7f436f6e74726f6c6c6572204f6e6c7900000000000000000000000000000000005f82015250565b5f61375f600f83612ab2565b915061376a8261372b565b602082019050919050565b5f6020820190508181035f83015261378c81613753565b9050919050565b7f4e487b71000000000000000000000000000000000000000000000000000000005f52603260045260245ffd5b7f4e6f74206f6e2077686974656c697374000000000000000000000000000000005f82015250565b5f6137f4601083612ab2565b91506137ff826137c0565b602082019050919050565b5f6020820190508181035f830152613821816137e8565b9050919050565b7f6f6e6c79206f6e652066726565205065706500000000000000000000000000005f82015250565b5f61385c601283612ab2565b915061386782613828565b602082019050919050565b5f6020820190508181035f83015261388981613850565b9050919050565b5f6040820190506138a35f830185612c56565b6138b06020830184612fc6565b9392505050565b5f67ffffffffffffffff8211156138d1576138d0613181565b5b6138da82612ad0565b9050602081019050919050565b5f6138f96138f4846138b7565b6131df565b9050828152602081018484840111156139155761391461317d565b5b613920848285612ac2565b509392505050565b5f82601f83011261393c5761393b612cf9565b5b815161394c8482602086016138e7565b91505092915050565b5f6020828403121561396a576139696129ed565b5b5f82015167ffffffffffffffff811115613987576139866129f1565b5b61399384828501613928565b91505092915050565b5f6139a682612b38565b91505f82036139b8576139b7613494565b5b600182039050919050565b5f81519050919050565b5f82825260208201905092915050565b5f6139e7826139c3565b6139f181856139cd565b9350613a01818560208601612ac2565b613a0a81612ad0565b840191505092915050565b5f608082019050613a285f830187612bc6565b613a356020830186612bc6565b613a426040830185612c56565b8181036060830152613a5481846139dd565b905095945050505050565b5f81519050613a6d81612a20565b92915050565b5f60208284031215613a8857613a876129ed565b5b5f613a9584828501613a5f565b9150509291505056fea2646970667358221220ff5ea61f9a15bc5c5fda29ad7773bd82690b12d3421fd20346c5bbcce9764d8164736f6c634300081a0033",
			"opcodes": "PUSH1 0x80 PUSH1 0x40 MSTORE PUSH1 0x1 PUSH1 0xA SSTORE PUSH2 0x3E8 PUSH1 0xC SSTORE PUSH7 0xAA87BEE538000 PUSH1 0xD SSTORE PUSH1 0x1 PUSH1 0xE SSTORE PUSH0 PUSH1 0xF PUSH0 PUSH2 0x100 EXP DUP2 SLOAD DUP2 PUSH1 0xFF MUL NOT AND SWAP1 DUP4 ISZERO ISZERO MUL OR SWAP1 SSTORE POP PUSH0 PUSH1 0xF PUSH1 0x1 PUSH2 0x100 EXP DUP2 SLOAD DUP2 PUSH1 0xFF MUL NOT AND SWAP1 DUP4 ISZERO ISZERO MUL OR SWAP1 SSTORE POP PUSH0 PUSH1 0xF PUSH1 0x2 PUSH2 0x100 EXP DUP2 SLOAD DUP2 PUSH1 0xFF MUL NOT AND SWAP1 DUP4 ISZERO ISZERO MUL OR SWAP1 SSTORE POP CALLVALUE DUP1 ISZERO PUSH2 0x77 JUMPI PUSH0 DUP1 REVERT JUMPDEST POP PUSH1 0x40 MLOAD PUSH2 0x4153 CODESIZE SUB DUP1 PUSH2 0x4153 DUP4 CODECOPY DUP2 DUP2 ADD PUSH1 0x40 MSTORE DUP2 ADD SWAP1 PUSH2 0x99 SWAP2 SWAP1 PUSH2 0x33E JUMP JUMPDEST CALLER PUSH1 0x40 MLOAD DUP1 PUSH1 0x40 ADD PUSH1 0x40 MSTORE DUP1 PUSH1 0x9 DUP2 MSTORE PUSH1 0x20 ADD PUSH32 0x48616D2050657065730000000000000000000000000000000000000000000000 DUP2 MSTORE POP PUSH1 0x40 MLOAD DUP1 PUSH1 0x40 ADD PUSH1 0x40 MSTORE DUP1 PUSH1 0x5 DUP2 MSTORE PUSH1 0x20 ADD PUSH32 0x4850455045000000000000000000000000000000000000000000000000000000 DUP2 MSTORE POP DUP2 PUSH1 0x2 SWAP1 DUP2 PUSH2 0x115 SWAP2 SWAP1 PUSH2 0x5A3 JUMP JUMPDEST POP DUP1 PUSH1 0x3 SWAP1 DUP2 PUSH2 0x125 SWAP2 SWAP1 PUSH2 0x5A3 JUMP JUMPDEST POP PUSH2 0x134 PUSH2 0x2A9 PUSH1 0x20 SHL PUSH1 0x20 SHR JUMP JUMPDEST PUSH0 DUP2 SWAP1 SSTORE POP PUSH2 0x147 PUSH2 0x2A9 PUSH1 0x20 SHL PUSH1 0x20 SHR JUMP JUMPDEST PUSH2 0x155 PUSH2 0x2B1 PUSH1 0x20 SHL PUSH1 0x20 SHR JUMP JUMPDEST LT ISZERO PUSH2 0x172 JUMPI PUSH2 0x171 PUSH4 0xFED8210F PUSH1 0xE0 SHL PUSH2 0x2D8 PUSH1 0x20 SHL PUSH1 0x20 SHR JUMP JUMPDEST JUMPDEST POP POP DUP1 PUSH1 0x9 PUSH0 PUSH2 0x100 EXP DUP2 SLOAD DUP2 PUSH20 0xFFFFFFFFFFFFFFFFFFFFFFFFFFFFFFFFFFFFFFFF MUL NOT AND SWAP1 DUP4 PUSH20 0xFFFFFFFFFFFFFFFFFFFFFFFFFFFFFFFFFFFFFFFF AND MUL OR SWAP1 SSTORE POP DUP1 PUSH20 0xFFFFFFFFFFFFFFFFFFFFFFFFFFFFFFFFFFFFFFFF AND PUSH0 PUSH20 0xFFFFFFFFFFFFFFFFFFFFFFFFFFFFFFFFFFFFFFFF AND PUSH32 0x8BE0079C531659141344CD1FD0A4F28419497F9722A3DAAFE3B4186F6B6457E0 PUSH1 0x40 MLOAD PUSH1 0x40 MLOAD DUP1 SWAP2 SUB SWAP1 LOG3 POP DUP1 PUSH1 0xB PUSH0 PUSH2 0x100 EXP DUP2 SLOAD DUP2 PUSH20 0xFFFFFFFFFFFFFFFFFFFFFFFFFFFFFFFFFFFFFFFF MUL NOT AND SWAP1 DUP4 PUSH20 0xFFFFFFFFFFFFFFFFFFFFFFFFFFFFFFFFFFFFFFFF AND MUL OR SWAP1 SSTORE POP PUSH20 0x5B38DA6A701C568545DCFCB03FCB875F56BEDDC4 PUSH1 0x13 PUSH0 PUSH2 0x100 EXP DUP2 SLOAD DUP2 PUSH20 0xFFFFFFFFFFFFFFFFFFFFFFFFFFFFFFFFFFFFFFFF MUL NOT AND SWAP1 DUP4 PUSH20 0xFFFFFFFFFFFFFFFFFFFFFFFFFFFFFFFFFFFFFFFF AND MUL OR SWAP1 SSTORE POP POP PUSH2 0x672 JUMP JUMPDEST PUSH0 PUSH1 0x1 SWAP1 POP SWAP1 JUMP JUMPDEST PUSH0 PUSH32 0xFFFFFFFFFFFFFFFFFFFFFFFFFFFFFFFFFFFFFFFFFFFFFFFFFFFFFFFFFFFFFFFF SWAP1 POP SWAP1 JUMP JUMPDEST DUP1 PUSH0 MSTORE PUSH1 0x4 PUSH0 REVERT JUMPDEST PUSH0 DUP1 REVERT JUMPDEST PUSH0 PUSH20 0xFFFFFFFFFFFFFFFFFFFFFFFFFFFFFFFFFFFFFFFF DUP3 AND SWAP1 POP SWAP2 SWAP1 POP JUMP JUMPDEST PUSH0 PUSH2 0x30D DUP3 PUSH2 0x2E4 JUMP JUMPDEST SWAP1 POP SWAP2 SWAP1 POP JUMP JUMPDEST PUSH2 0x31D DUP2 PUSH2 0x303 JUMP JUMPDEST DUP2 EQ PUSH2 0x327 JUMPI PUSH0 DUP1 REVERT JUMPDEST POP JUMP JUMPDEST PUSH0 DUP2 MLOAD SWAP1 POP PUSH2 0x338 DUP2 PUSH2 0x314 JUMP JUMPDEST SWAP3 SWAP2 POP POP JUMP JUMPDEST PUSH0 PUSH1 0x20 DUP3 DUP5 SUB SLT ISZERO PUSH2 0x353 JUMPI PUSH2 0x352 PUSH2 0x2E0 JUMP JUMPDEST JUMPDEST PUSH0 PUSH2 0x360 DUP5 DUP3 DUP6 ADD PUSH2 0x32A JUMP JUMPDEST SWAP2 POP POP SWAP3 SWAP2 POP POP JUMP JUMPDEST PUSH0 DUP2 MLOAD SWAP1 POP SWAP2 SWAP1 POP JUMP JUMPDEST PUSH32 0x4E487B7100000000000000000000000000000000000000000000000000000000 PUSH0 MSTORE PUSH1 0x41 PUSH1 0x4 MSTORE PUSH1 0x24 PUSH0 REVERT JUMPDEST PUSH32 0x4E487B7100000000000000000000000000000000000000000000000000000000 PUSH0 MSTORE PUSH1 0x22 PUSH1 0x4 MSTORE PUSH1 0x24 PUSH0 REVERT JUMPDEST PUSH0 PUSH1 0x2 DUP3 DIV SWAP1 POP PUSH1 0x1 DUP3 AND DUP1 PUSH2 0x3E4 JUMPI PUSH1 0x7F DUP3 AND SWAP2 POP JUMPDEST PUSH1 0x20 DUP3 LT DUP2 SUB PUSH2 0x3F7 JUMPI PUSH2 0x3F6 PUSH2 0x3A0 JUMP JUMPDEST JUMPDEST POP SWAP2 SWAP1 POP JUMP JUMPDEST PUSH0 DUP2 SWAP1 POP DUP2 PUSH0 MSTORE PUSH1 0x20 PUSH0 KECCAK256 SWAP1 POP SWAP2 SWAP1 POP JUMP JUMPDEST PUSH0 PUSH1 0x20 PUSH1 0x1F DUP4 ADD DIV SWAP1 POP SWAP2 SWAP1 POP JUMP JUMPDEST PUSH0 DUP3 DUP3 SHL SWAP1 POP SWAP3 SWAP2 POP POP JUMP JUMPDEST PUSH0 PUSH1 0x8 DUP4 MUL PUSH2 0x459 PUSH32 0xFFFFFFFFFFFFFFFFFFFFFFFFFFFFFFFFFFFFFFFFFFFFFFFFFFFFFFFFFFFFFFFF DUP3 PUSH2 0x41E JUMP JUMPDEST PUSH2 0x463 DUP7 DUP4 PUSH2 0x41E JUMP JUMPDEST SWAP6 POP DUP1 NOT DUP5 AND SWAP4 POP DUP1 DUP7 AND DUP5 OR SWAP3 POP POP POP SWAP4 SWAP3 POP POP POP JUMP JUMPDEST PUSH0 DUP2 SWAP1 POP SWAP2 SWAP1 POP JUMP JUMPDEST PUSH0 DUP2 SWAP1 POP SWAP2 SWAP1 POP JUMP JUMPDEST PUSH0 PUSH2 0x4A7 PUSH2 0x4A2 PUSH2 0x49D DUP5 PUSH2 0x47B JUMP JUMPDEST PUSH2 0x484 JUMP JUMPDEST PUSH2 0x47B JUMP JUMPDEST SWAP1 POP SWAP2 SWAP1 POP JUMP JUMPDEST PUSH0 DUP2 SWAP1 POP SWAP2 SWAP1 POP JUMP JUMPDEST PUSH2 0x4C0 DUP4 PUSH2 0x48D JUMP JUMPDEST PUSH2 0x4D4 PUSH2 0x4CC DUP3 PUSH2 0x4AE JUMP JUMPDEST DUP5 DUP5 SLOAD PUSH2 0x42A JUMP JUMPDEST DUP3 SSTORE POP POP POP POP JUMP JUMPDEST PUSH0 SWAP1 JUMP JUMPDEST PUSH2 0x4E8 PUSH2 0x4DC JUMP JUMPDEST PUSH2 0x4F3 DUP2 DUP5 DUP5 PUSH2 0x4B7 JUMP JUMPDEST POP POP POP JUMP JUMPDEST JUMPDEST DUP2 DUP2 LT ISZERO PUSH2 0x516 JUMPI PUSH2 0x50B PUSH0 DUP3 PUSH2 0x4E0 JUMP JUMPDEST PUSH1 0x1 DUP2 ADD SWAP1 POP PUSH2 0x4F9 JUMP JUMPDEST POP POP JUMP JUMPDEST PUSH1 0x1F DUP3 GT ISZERO PUSH2 0x55B JUMPI PUSH2 0x52C DUP2 PUSH2 0x3FD JUMP JUMPDEST PUSH2 0x535 DUP5 PUSH2 0x40F JUMP JUMPDEST DUP2 ADD PUSH1 0x20 DUP6 LT ISZERO PUSH2 0x544 JUMPI DUP2 SWAP1 POP JUMPDEST PUSH2 0x558 PUSH2 0x550 DUP6 PUSH2 0x40F JUMP JUMPDEST DUP4 ADD DUP3 PUSH2 0x4F8 JUMP JUMPDEST POP POP JUMPDEST POP POP POP JUMP JUMPDEST PUSH0 DUP3 DUP3 SHR SWAP1 POP SWAP3 SWAP2 POP POP JUMP JUMPDEST PUSH0 PUSH2 0x57B PUSH0 NOT DUP5 PUSH1 0x8 MUL PUSH2 0x560 JUMP JUMPDEST NOT DUP1 DUP4 AND SWAP2 POP POP SWAP3 SWAP2 POP POP JUMP JUMPDEST PUSH0 PUSH2 0x593 DUP4 DUP4 PUSH2 0x56C JUMP JUMPDEST SWAP2 POP DUP3 PUSH1 0x2 MUL DUP3 OR SWAP1 POP SWAP3 SWAP2 POP POP JUMP JUMPDEST PUSH2 0x5AC DUP3 PUSH2 0x369 JUMP JUMPDEST PUSH8 0xFFFFFFFFFFFFFFFF DUP2 GT ISZERO PUSH2 0x5C5 JUMPI PUSH2 0x5C4 PUSH2 0x373 JUMP JUMPDEST JUMPDEST PUSH2 0x5CF DUP3 SLOAD PUSH2 0x3CD JUMP JUMPDEST PUSH2 0x5DA DUP3 DUP3 DUP6 PUSH2 0x51A JUMP JUMPDEST PUSH0 PUSH1 0x20 SWAP1 POP PUSH1 0x1F DUP4 GT PUSH1 0x1 DUP2 EQ PUSH2 0x60B JUMPI PUSH0 DUP5 ISZERO PUSH2 0x5F9 JUMPI DUP3 DUP8 ADD MLOAD SWAP1 POP JUMPDEST PUSH2 0x603 DUP6 DUP3 PUSH2 0x588 JUMP JUMPDEST DUP7 SSTORE POP PUSH2 0x66A JUMP JUMPDEST PUSH1 0x1F NOT DUP5 AND PUSH2 0x619 DUP7 PUSH2 0x3FD JUMP JUMPDEST PUSH0 JUMPDEST DUP3 DUP2 LT ISZERO PUSH2 0x640 JUMPI DUP5 DUP10 ADD MLOAD DUP3 SSTORE PUSH1 0x1 DUP3 ADD SWAP2 POP PUSH1 0x20 DUP6 ADD SWAP5 POP PUSH1 0x20 DUP2 ADD SWAP1 POP PUSH2 0x61B JUMP JUMPDEST DUP7 DUP4 LT ISZERO PUSH2 0x65D JUMPI DUP5 DUP10 ADD MLOAD PUSH2 0x659 PUSH1 0x1F DUP10 AND DUP3 PUSH2 0x56C JUMP JUMPDEST DUP4 SSTORE POP JUMPDEST PUSH1 0x1 PUSH1 0x2 DUP9 MUL ADD DUP9 SSTORE POP POP POP JUMPDEST POP POP POP POP POP POP JUMP JUMPDEST PUSH2 0x3AD4 DUP1 PUSH2 0x67F PUSH0 CODECOPY PUSH0 RETURN INVALID PUSH1 0x80 PUSH1 0x40 MSTORE PUSH1 0x4 CALLDATASIZE LT PUSH2 0x224 JUMPI PUSH0 CALLDATALOAD PUSH1 0xE0 SHR DUP1 PUSH4 0x740D73F3 GT PUSH2 0x122 JUMPI DUP1 PUSH4 0xBEB81891 GT PUSH2 0xAA JUMPI DUP1 PUSH4 0xE985E9C5 GT PUSH2 0x6E JUMPI DUP1 PUSH4 0xE985E9C5 EQ PUSH2 0x7CE JUMPI DUP1 PUSH4 0xEA994530 EQ PUSH2 0x80A JUMPI DUP1 PUSH4 0xED6661C2 EQ PUSH2 0x846 JUMPI DUP1 PUSH4 0xF2FDE38B EQ PUSH2 0x870 JUMPI DUP1 PUSH4 0xFA0FCA84 EQ PUSH2 0x898 JUMPI PUSH2 0x224 JUMP JUMPDEST DUP1 PUSH4 0xBEB81891 EQ PUSH2 0x6D8 JUMPI DUP1 PUSH4 0xC23DC68F EQ PUSH2 0x702 JUMPI DUP1 PUSH4 0xC662E481 EQ PUSH2 0x73E JUMPI DUP1 PUSH4 0xC87B56DD EQ PUSH2 0x768 JUMPI DUP1 PUSH4 0xD12F743A EQ PUSH2 0x7A4 JUMPI PUSH2 0x224 JUMP JUMPDEST DUP1 PUSH4 0x8DA5CB5B GT PUSH2 0xF1 JUMPI DUP1 PUSH4 0x8DA5CB5B EQ PUSH2 0x604 JUMPI DUP1 PUSH4 0x95D89B41 EQ PUSH2 0x62E JUMPI DUP1 PUSH4 0x99A2557A EQ PUSH2 0x658 JUMPI DUP1 PUSH4 0xA22CB465 EQ PUSH2 0x694 JUMPI DUP1 PUSH4 0xB88D4FDE EQ PUSH2 0x6BC JUMPI PUSH2 0x224 JUMP JUMPDEST DUP1 PUSH4 0x740D73F3 EQ PUSH2 0x53C JUMPI DUP1 PUSH4 0x75E91691 EQ PUSH2 0x564 JUMPI DUP1 PUSH4 0x7C928FE9 EQ PUSH2 0x5A0 JUMPI DUP1 PUSH4 0x8462151C EQ PUSH2 0x5C8 JUMPI PUSH2 0x224 JUMP JUMPDEST DUP1 PUSH4 0x367B2A20 GT PUSH2 0x1B0 JUMPI DUP1 PUSH4 0x4A7D3E81 GT PUSH2 0x174 JUMPI DUP1 PUSH4 0x4A7D3E81 EQ PUSH2 0x45C JUMPI DUP1 PUSH4 0x5BBB2177 EQ PUSH2 0x472 JUMPI DUP1 PUSH4 0x6352211E EQ PUSH2 0x4AE JUMPI DUP1 PUSH4 0x6B8A21FC EQ PUSH2 0x4EA JUMPI DUP1 PUSH4 0x70A08231 EQ PUSH2 0x500 JUMPI PUSH2 0x224 JUMP JUMPDEST DUP1 PUSH4 0x367B2A20 EQ PUSH2 0x39C JUMPI DUP1 PUSH4 0x3CCFD60B EQ PUSH2 0x3C6 JUMPI DUP1 PUSH4 0x42842E0E EQ PUSH2 0x3DC JUMPI DUP1 PUSH4 0x438A67E7 EQ PUSH2 0x3F8 JUMPI DUP1 PUSH4 0x481231A5 EQ PUSH2 0x434 JUMPI PUSH2 0x224 JUMP JUMPDEST DUP1 PUSH4 0x18160DDD GT PUSH2 0x1F7 JUMPI DUP1 PUSH4 0x18160DDD EQ PUSH2 0x2E6 JUMPI DUP1 PUSH4 0x187E0F17 EQ PUSH2 0x310 JUMPI DUP1 PUSH4 0x23B872DD EQ PUSH2 0x33A JUMPI DUP1 PUSH4 0x2DB11544 EQ PUSH2 0x356 JUMPI DUP1 PUSH4 0x32CB6B0C EQ PUSH2 0x372 JUMPI PUSH2 0x224 JUMP JUMPDEST DUP1 PUSH4 0x1FFC9A7 EQ PUSH2 0x228 JUMPI DUP1 PUSH4 0x6FDDE03 EQ PUSH2 0x264 JUMPI DUP1 PUSH4 0x81812FC EQ PUSH2 0x28E JUMPI DUP1 PUSH4 0x95EA7B3 EQ PUSH2 0x2CA JUMPI JUMPDEST PUSH0 DUP1 REVERT JUMPDEST CALLVALUE DUP1 ISZERO PUSH2 0x233 JUMPI PUSH0 DUP1 REVERT JUMPDEST POP PUSH2 0x24E PUSH1 0x4 DUP1 CALLDATASIZE SUB DUP2 ADD SWAP1 PUSH2 0x249 SWAP2 SWAP1 PUSH2 0x2A4A JUMP JUMPDEST PUSH2 0x8D4 JUMP JUMPDEST PUSH1 0x40 MLOAD PUSH2 0x25B SWAP2 SWAP1 PUSH2 0x2A8F JUMP JUMPDEST PUSH1 0x40 MLOAD DUP1 SWAP2 SUB SWAP1 RETURN JUMPDEST CALLVALUE DUP1 ISZERO PUSH2 0x26F JUMPI PUSH0 DUP1 REVERT JUMPDEST POP PUSH2 0x278 PUSH2 0x965 JUMP JUMPDEST PUSH1 0x40 MLOAD PUSH2 0x285 SWAP2 SWAP1 PUSH2 0x2B18 JUMP JUMPDEST PUSH1 0x40 MLOAD DUP1 SWAP2 SUB SWAP1 RETURN JUMPDEST CALLVALUE DUP1 ISZERO PUSH2 0x299 JUMPI PUSH0 DUP1 REVERT JUMPDEST POP PUSH2 0x2B4 PUSH1 0x4 DUP1 CALLDATASIZE SUB DUP2 ADD SWAP1 PUSH2 0x2AF SWAP2 SWAP1 PUSH2 0x2B6B JUMP JUMPDEST PUSH2 0x9F5 JUMP JUMPDEST PUSH1 0x40 MLOAD PUSH2 0x2C1 SWAP2 SWAP1 PUSH2 0x2BD5 JUMP JUMPDEST PUSH1 0x40 MLOAD DUP1 SWAP2 SUB SWAP1 RETURN JUMPDEST PUSH2 0x2E4 PUSH1 0x4 DUP1 CALLDATASIZE SUB DUP2 ADD SWAP1 PUSH2 0x2DF SWAP2 SWAP1 PUSH2 0x2C18 JUMP JUMPDEST PUSH2 0xA4E JUMP JUMPDEST STOP JUMPDEST CALLVALUE DUP1 ISZERO PUSH2 0x2F1 JUMPI PUSH0 DUP1 REVERT JUMPDEST POP PUSH2 0x2FA PUSH2 0xA5E JUMP JUMPDEST PUSH1 0x40 MLOAD PUSH2 0x307 SWAP2 SWAP1 PUSH2 0x2C65 JUMP JUMPDEST PUSH1 0x40 MLOAD DUP1 SWAP2 SUB SWAP1 RETURN JUMPDEST CALLVALUE DUP1 ISZERO PUSH2 0x31B JUMPI PUSH0 DUP1 REVERT JUMPDEST POP PUSH2 0x324 PUSH2 0xAA9 JUMP JUMPDEST PUSH1 0x40 MLOAD PUSH2 0x331 SWAP2 SWAP1 PUSH2 0x2A8F JUMP JUMPDEST PUSH1 0x40 MLOAD DUP1 SWAP2 SUB SWAP1 RETURN JUMPDEST PUSH2 0x354 PUSH1 0x4 DUP1 CALLDATASIZE SUB DUP2 ADD SWAP1 PUSH2 0x34F SWAP2 SWAP1 PUSH2 0x2C7E JUMP JUMPDEST PUSH2 0xABC JUMP JUMPDEST STOP JUMPDEST PUSH2 0x370 PUSH1 0x4 DUP1 CALLDATASIZE SUB DUP2 ADD SWAP1 PUSH2 0x36B SWAP2 SWAP1 PUSH2 0x2B6B JUMP JUMPDEST PUSH2 0xD67 JUMP JUMPDEST STOP JUMPDEST CALLVALUE DUP1 ISZERO PUSH2 0x37D JUMPI PUSH0 DUP1 REVERT JUMPDEST POP PUSH2 0x386 PUSH2 0x1067 JUMP JUMPDEST PUSH1 0x40 MLOAD PUSH2 0x393 SWAP2 SWAP1 PUSH2 0x2C65 JUMP JUMPDEST PUSH1 0x40 MLOAD DUP1 SWAP2 SUB SWAP1 RETURN JUMPDEST CALLVALUE DUP1 ISZERO PUSH2 0x3A7 JUMPI PUSH0 DUP1 REVERT JUMPDEST POP PUSH2 0x3B0 PUSH2 0x106D JUMP JUMPDEST PUSH1 0x40 MLOAD PUSH2 0x3BD SWAP2 SWAP1 PUSH2 0x2BD5 JUMP JUMPDEST PUSH1 0x40 MLOAD DUP1 SWAP2 SUB SWAP1 RETURN JUMPDEST CALLVALUE DUP1 ISZERO PUSH2 0x3D1 JUMPI PUSH0 DUP1 REVERT JUMPDEST POP PUSH2 0x3DA PUSH2 0x1092 JUMP JUMPDEST STOP JUMPDEST PUSH2 0x3F6 PUSH1 0x4 DUP1 CALLDATASIZE SUB DUP2 ADD SWAP1 PUSH2 0x3F1 SWAP2 SWAP1 PUSH2 0x2C7E JUMP JUMPDEST PUSH2 0x1221 JUMP JUMPDEST STOP JUMPDEST CALLVALUE DUP1 ISZERO PUSH2 0x403 JUMPI PUSH0 DUP1 REVERT JUMPDEST POP PUSH2 0x41E PUSH1 0x4 DUP1 CALLDATASIZE SUB DUP2 ADD SWAP1 PUSH2 0x419 SWAP2 SWAP1 PUSH2 0x2CCE JUMP JUMPDEST PUSH2 0x1240 JUMP JUMPDEST PUSH1 0x40 MLOAD PUSH2 0x42B SWAP2 SWAP1 PUSH2 0x2C65 JUMP JUMPDEST PUSH1 0x40 MLOAD DUP1 SWAP2 SUB SWAP1 RETURN JUMPDEST CALLVALUE DUP1 ISZERO PUSH2 0x43F JUMPI PUSH0 DUP1 REVERT JUMPDEST POP PUSH2 0x45A PUSH1 0x4 DUP1 CALLDATASIZE SUB DUP2 ADD SWAP1 PUSH2 0x455 SWAP2 SWAP1 PUSH2 0x2CCE JUMP JUMPDEST PUSH2 0x1255 JUMP JUMPDEST STOP JUMPDEST CALLVALUE DUP1 ISZERO PUSH2 0x467 JUMPI PUSH0 DUP1 REVERT JUMPDEST POP PUSH2 0x470 PUSH2 0x1327 JUMP JUMPDEST STOP JUMPDEST CALLVALUE DUP1 ISZERO PUSH2 0x47D JUMPI PUSH0 DUP1 REVERT JUMPDEST POP PUSH2 0x498 PUSH1 0x4 DUP1 CALLDATASIZE SUB DUP2 ADD SWAP1 PUSH2 0x493 SWAP2 SWAP1 PUSH2 0x2D5A JUMP JUMPDEST PUSH2 0x13E0 JUMP JUMPDEST PUSH1 0x40 MLOAD PUSH2 0x4A5 SWAP2 SWAP1 PUSH2 0x2EFD JUMP JUMPDEST PUSH1 0x40 MLOAD DUP1 SWAP2 SUB SWAP1 RETURN JUMPDEST CALLVALUE DUP1 ISZERO PUSH2 0x4B9 JUMPI PUSH0 DUP1 REVERT JUMPDEST POP PUSH2 0x4D4 PUSH1 0x4 DUP1 CALLDATASIZE SUB DUP2 ADD SWAP1 PUSH2 0x4CF SWAP2 SWAP1 PUSH2 0x2B6B JUMP JUMPDEST PUSH2 0x143C JUMP JUMPDEST PUSH1 0x40 MLOAD PUSH2 0x4E1 SWAP2 SWAP1 PUSH2 0x2BD5 JUMP JUMPDEST PUSH1 0x40 MLOAD DUP1 SWAP2 SUB SWAP1 RETURN JUMPDEST CALLVALUE DUP1 ISZERO PUSH2 0x4F5 JUMPI PUSH0 DUP1 REVERT JUMPDEST POP PUSH2 0x4FE PUSH2 0x144D JUMP JUMPDEST STOP JUMPDEST CALLVALUE DUP1 ISZERO PUSH2 0x50B JUMPI PUSH0 DUP1 REVERT JUMPDEST POP PUSH2 0x526 PUSH1 0x4 DUP1 CALLDATASIZE SUB DUP2 ADD SWAP1 PUSH2 0x521 SWAP2 SWAP1 PUSH2 0x2CCE JUMP JUMPDEST PUSH2 0x1508 JUMP JUMPDEST PUSH1 0x40 MLOAD PUSH2 0x533 SWAP2 SWAP1 PUSH2 0x2C65 JUMP JUMPDEST PUSH1 0x40 MLOAD DUP1 SWAP2 SUB SWAP1 RETURN JUMPDEST CALLVALUE DUP1 ISZERO PUSH2 0x547 JUMPI PUSH0 DUP1 REVERT JUMPDEST POP PUSH2 0x562 PUSH1 0x4 DUP1 CALLDATASIZE SUB DUP2 ADD SWAP1 PUSH2 0x55D SWAP2 SWAP1 PUSH2 0x2F72 JUMP JUMPDEST PUSH2 0x159C JUMP JUMPDEST STOP JUMPDEST CALLVALUE DUP1 ISZERO PUSH2 0x56F JUMPI PUSH0 DUP1 REVERT JUMPDEST POP PUSH2 0x58A PUSH1 0x4 DUP1 CALLDATASIZE SUB DUP2 ADD SWAP1 PUSH2 0x585 SWAP2 SWAP1 PUSH2 0x2B6B JUMP JUMPDEST PUSH2 0x171B JUMP JUMPDEST PUSH1 0x40 MLOAD PUSH2 0x597 SWAP2 SWAP1 PUSH2 0x2FD5 JUMP JUMPDEST PUSH1 0x40 MLOAD DUP1 SWAP2 SUB SWAP1 RETURN JUMPDEST CALLVALUE DUP1 ISZERO PUSH2 0x5AB JUMPI PUSH0 DUP1 REVERT JUMPDEST POP PUSH2 0x5C6 PUSH1 0x4 DUP1 CALLDATASIZE SUB DUP2 ADD SWAP1 PUSH2 0x5C1 SWAP2 SWAP1 PUSH2 0x2B6B JUMP JUMPDEST PUSH2 0x1730 JUMP JUMPDEST STOP JUMPDEST CALLVALUE DUP1 ISZERO PUSH2 0x5D3 JUMPI PUSH0 DUP1 REVERT JUMPDEST POP PUSH2 0x5EE PUSH1 0x4 DUP1 CALLDATASIZE SUB DUP2 ADD SWAP1 PUSH2 0x5E9 SWAP2 SWAP1 PUSH2 0x2CCE JUMP JUMPDEST PUSH2 0x19EA JUMP JUMPDEST PUSH1 0x40 MLOAD PUSH2 0x5FB SWAP2 SWAP1 PUSH2 0x30A5 JUMP JUMPDEST PUSH1 0x40 MLOAD DUP1 SWAP2 SUB SWAP1 RETURN JUMPDEST CALLVALUE DUP1 ISZERO PUSH2 0x60F JUMPI PUSH0 DUP1 REVERT JUMPDEST POP PUSH2 0x618 PUSH2 0x1A63 JUMP JUMPDEST PUSH1 0x40 MLOAD PUSH2 0x625 SWAP2 SWAP1 PUSH2 0x2BD5 JUMP JUMPDEST PUSH1 0x40 MLOAD DUP1 SWAP2 SUB SWAP1 RETURN JUMPDEST CALLVALUE DUP1 ISZERO PUSH2 0x639 JUMPI PUSH0 DUP1 REVERT JUMPDEST POP PUSH2 0x642 PUSH2 0x1A88 JUMP JUMPDEST PUSH1 0x40 MLOAD PUSH2 0x64F SWAP2 SWAP1 PUSH2 0x2B18 JUMP JUMPDEST PUSH1 0x40 MLOAD DUP1 SWAP2 SUB SWAP1 RETURN JUMPDEST CALLVALUE DUP1 ISZERO PUSH2 0x663 JUMPI PUSH0 DUP1 REVERT JUMPDEST POP PUSH2 0x67E PUSH1 0x4 DUP1 CALLDATASIZE SUB DUP2 ADD SWAP1 PUSH2 0x679 SWAP2 SWAP1 PUSH2 0x30C5 JUMP JUMPDEST PUSH2 0x1B18 JUMP JUMPDEST PUSH1 0x40 MLOAD PUSH2 0x68B SWAP2 SWAP1 PUSH2 0x30A5 JUMP JUMPDEST PUSH1 0x40 MLOAD DUP1 SWAP2 SUB SWAP1 RETURN JUMPDEST CALLVALUE DUP1 ISZERO PUSH2 0x69F JUMPI PUSH0 DUP1 REVERT JUMPDEST POP PUSH2 0x6BA PUSH1 0x4 DUP1 CALLDATASIZE SUB DUP2 ADD SWAP1 PUSH2 0x6B5 SWAP2 SWAP1 PUSH2 0x313F JUMP JUMPDEST PUSH2 0x1B2E JUMP JUMPDEST STOP JUMPDEST PUSH2 0x6D6 PUSH1 0x4 DUP1 CALLDATASIZE SUB DUP2 ADD SWAP1 PUSH2 0x6D1 SWAP2 SWAP1 PUSH2 0x32A5 JUMP JUMPDEST PUSH2 0x1C34 JUMP JUMPDEST STOP JUMPDEST CALLVALUE DUP1 ISZERO PUSH2 0x6E3 JUMPI PUSH0 DUP1 REVERT JUMPDEST POP PUSH2 0x6EC PUSH2 0x1C85 JUMP JUMPDEST PUSH1 0x40 MLOAD PUSH2 0x6F9 SWAP2 SWAP1 PUSH2 0x2A8F JUMP JUMPDEST PUSH1 0x40 MLOAD DUP1 SWAP2 SUB SWAP1 RETURN JUMPDEST CALLVALUE DUP1 ISZERO PUSH2 0x70D JUMPI PUSH0 DUP1 REVERT JUMPDEST POP PUSH2 0x728 PUSH1 0x4 DUP1 CALLDATASIZE SUB DUP2 ADD SWAP1 PUSH2 0x723 SWAP2 SWAP1 PUSH2 0x2B6B JUMP JUMPDEST PUSH2 0x1C97 JUMP JUMPDEST PUSH1 0x40 MLOAD PUSH2 0x735 SWAP2 SWAP1 PUSH2 0x3378 JUMP JUMPDEST PUSH1 0x40 MLOAD DUP1 SWAP2 SUB SWAP1 RETURN JUMPDEST CALLVALUE DUP1 ISZERO PUSH2 0x749 JUMPI PUSH0 DUP1 REVERT JUMPDEST POP PUSH2 0x752 PUSH2 0x1D0C JUMP JUMPDEST PUSH1 0x40 MLOAD PUSH2 0x75F SWAP2 SWAP1 PUSH2 0x2C65 JUMP JUMPDEST PUSH1 0x40 MLOAD DUP1 SWAP2 SUB SWAP1 RETURN JUMPDEST CALLVALUE DUP1 ISZERO PUSH2 0x773 JUMPI PUSH0 DUP1 REVERT JUMPDEST POP PUSH2 0x78E PUSH1 0x4 DUP1 CALLDATASIZE SUB DUP2 ADD SWAP1 PUSH2 0x789 SWAP2 SWAP1 PUSH2 0x2B6B JUMP JUMPDEST PUSH2 0x1D12 JUMP JUMPDEST PUSH1 0x40 MLOAD PUSH2 0x79B SWAP2 SWAP1 PUSH2 0x2B18 JUMP JUMPDEST PUSH1 0x40 MLOAD DUP1 SWAP2 SUB SWAP1 RETURN JUMPDEST CALLVALUE DUP1 ISZERO PUSH2 0x7AF JUMPI PUSH0 DUP1 REVERT JUMPDEST POP PUSH2 0x7B8 PUSH2 0x1DCA JUMP JUMPDEST PUSH1 0x40 MLOAD PUSH2 0x7C5 SWAP2 SWAP1 PUSH2 0x2A8F JUMP JUMPDEST PUSH1 0x40 MLOAD DUP1 SWAP2 SUB SWAP1 RETURN JUMPDEST CALLVALUE DUP1 ISZERO PUSH2 0x7D9 JUMPI PUSH0 DUP1 REVERT JUMPDEST POP PUSH2 0x7F4 PUSH1 0x4 DUP1 CALLDATASIZE SUB DUP2 ADD SWAP1 PUSH2 0x7EF SWAP2 SWAP1 PUSH2 0x3391 JUMP JUMPDEST PUSH2 0x1DDD JUMP JUMPDEST PUSH1 0x40 MLOAD PUSH2 0x801 SWAP2 SWAP1 PUSH2 0x2A8F JUMP JUMPDEST PUSH1 0x40 MLOAD DUP1 SWAP2 SUB SWAP1 RETURN JUMPDEST CALLVALUE DUP1 ISZERO PUSH2 0x815 JUMPI PUSH0 DUP1 REVERT JUMPDEST POP PUSH2 0x830 PUSH1 0x4 DUP1 CALLDATASIZE SUB DUP2 ADD SWAP1 PUSH2 0x82B SWAP2 SWAP1 PUSH2 0x2CCE JUMP JUMPDEST PUSH2 0x1E6B JUMP JUMPDEST PUSH1 0x40 MLOAD PUSH2 0x83D SWAP2 SWAP1 PUSH2 0x2C65 JUMP JUMPDEST PUSH1 0x40 MLOAD DUP1 SWAP2 SUB SWAP1 RETURN JUMPDEST CALLVALUE DUP1 ISZERO PUSH2 0x851 JUMPI PUSH0 DUP1 REVERT JUMPDEST POP PUSH2 0x85A PUSH2 0x1E80 JUMP JUMPDEST PUSH1 0x40 MLOAD PUSH2 0x867 SWAP2 SWAP1 PUSH2 0x2C65 JUMP JUMPDEST PUSH1 0x40 MLOAD DUP1 SWAP2 SUB SWAP1 RETURN JUMPDEST CALLVALUE DUP1 ISZERO PUSH2 0x87B JUMPI PUSH0 DUP1 REVERT JUMPDEST POP PUSH2 0x896 PUSH1 0x4 DUP1 CALLDATASIZE SUB DUP2 ADD SWAP1 PUSH2 0x891 SWAP2 SWAP1 PUSH2 0x2CCE JUMP JUMPDEST PUSH2 0x1E86 JUMP JUMPDEST STOP JUMPDEST CALLVALUE DUP1 ISZERO PUSH2 0x8A3 JUMPI PUSH0 DUP1 REVERT JUMPDEST POP PUSH2 0x8BE PUSH1 0x4 DUP1 CALLDATASIZE SUB DUP2 ADD SWAP1 PUSH2 0x8B9 SWAP2 SWAP1 PUSH2 0x2CCE JUMP JUMPDEST PUSH2 0x1FB2 JUMP JUMPDEST PUSH1 0x40 MLOAD PUSH2 0x8CB SWAP2 SWAP1 PUSH2 0x2A8F JUMP JUMPDEST PUSH1 0x40 MLOAD DUP1 SWAP2 SUB SWAP1 RETURN JUMPDEST PUSH0 PUSH4 0x1FFC9A7 PUSH1 0xE0 SHL DUP3 PUSH28 0xFFFFFFFFFFFFFFFFFFFFFFFFFFFFFFFFFFFFFFFFFFFFFFFFFFFFFFFF NOT AND EQ DUP1 PUSH2 0x92E JUMPI POP PUSH4 0x80AC58CD PUSH1 0xE0 SHL DUP3 PUSH28 0xFFFFFFFFFFFFFFFFFFFFFFFFFFFFFFFFFFFFFFFFFFFFFFFFFFFFFFFF NOT AND EQ JUMPDEST DUP1 PUSH2 0x95E JUMPI POP PUSH4 0x5B5E139F PUSH1 0xE0 SHL DUP3 PUSH28 0xFFFFFFFFFFFFFFFFFFFFFFFFFFFFFFFFFFFFFFFFFFFFFFFFFFFFFFFF NOT AND EQ JUMPDEST SWAP1 POP SWAP2 SWAP1 POP JUMP JUMPDEST PUSH1 0x60 PUSH1 0x2 DUP1 SLOAD PUSH2 0x974 SWAP1 PUSH2 0x33FC JUMP JUMPDEST DUP1 PUSH1 0x1F ADD PUSH1 0x20 DUP1 SWAP2 DIV MUL PUSH1 0x20 ADD PUSH1 0x40 MLOAD SWAP1 DUP2 ADD PUSH1 0x40 MSTORE DUP1 SWAP3 SWAP2 SWAP1 DUP2 DUP2 MSTORE PUSH1 0x20 ADD DUP3 DUP1 SLOAD PUSH2 0x9A0 SWAP1 PUSH2 0x33FC JUMP JUMPDEST DUP1 ISZERO PUSH2 0x9EB JUMPI DUP1 PUSH1 0x1F LT PUSH2 0x9C2 JUMPI PUSH2 0x100 DUP1 DUP4 SLOAD DIV MUL DUP4 MSTORE SWAP2 PUSH1 0x20 ADD SWAP2 PUSH2 0x9EB JUMP JUMPDEST DUP3 ADD SWAP2 SWAP1 PUSH0 MSTORE PUSH1 0x20 PUSH0 KECCAK256 SWAP1 JUMPDEST DUP2 SLOAD DUP2 MSTORE SWAP1 PUSH1 0x1 ADD SWAP1 PUSH1 0x20 ADD DUP1 DUP4 GT PUSH2 0x9CE JUMPI DUP3 SWAP1 SUB PUSH1 0x1F AND DUP3 ADD SWAP2 JUMPDEST POP POP POP POP POP SWAP1 POP SWAP1 JUMP JUMPDEST PUSH0 PUSH2 0x9FF DUP3 PUSH2 0x1FCF JUMP JUMPDEST PUSH2 0xA14 JUMPI PUSH2 0xA13 PUSH4 0xCF4700E4 PUSH1 0xE0 SHL PUSH2 0x2072 JUMP JUMPDEST JUMPDEST PUSH1 0x6 PUSH0 DUP4 DUP2 MSTORE PUSH1 0x20 ADD SWAP1 DUP2 MSTORE PUSH1 0x20 ADD PUSH0 KECCAK256 PUSH0 ADD PUSH0 SWAP1 SLOAD SWAP1 PUSH2 0x100 EXP SWAP1 DIV PUSH20 0xFFFFFFFFFFFFFFFFFFFFFFFFFFFFFFFFFFFFFFFF AND SWAP1 POP SWAP2 SWAP1 POP JUMP JUMPDEST PUSH2 0xA5A DUP3 DUP3 PUSH1 0x1 PUSH2 0x207A JUMP JUMPDEST POP POP JUMP JUMPDEST PUSH0 PUSH2 0xA67 PUSH2 0x21A4 JUMP JUMPDEST PUSH1 0x1 SLOAD PUSH0 SLOAD SUB SUB SWAP1 POP PUSH32 0xFFFFFFFFFFFFFFFFFFFFFFFFFFFFFFFFFFFFFFFFFFFFFFFFFFFFFFFFFFFFFFFF PUSH2 0xA99 PUSH2 0x21AC JUMP JUMPDEST EQ PUSH2 0xAA6 JUMPI PUSH1 0x8 SLOAD DUP2 ADD SWAP1 POP JUMPDEST SWAP1 JUMP JUMPDEST PUSH1 0xF PUSH1 0x2 SWAP1 SLOAD SWAP1 PUSH2 0x100 EXP SWAP1 DIV PUSH1 0xFF AND DUP2 JUMP JUMPDEST PUSH0 PUSH2 0xAC6 DUP3 PUSH2 0x21D3 JUMP JUMPDEST SWAP1 POP PUSH20 0xFFFFFFFFFFFFFFFFFFFFFFFFFFFFFFFFFFFFFFFF DUP5 PUSH20 0xFFFFFFFFFFFFFFFFFFFFFFFFFFFFFFFFFFFFFFFF AND AND SWAP4 POP DUP4 PUSH20 0xFFFFFFFFFFFFFFFFFFFFFFFFFFFFFFFFFFFFFFFF AND DUP2 PUSH20 0xFFFFFFFFFFFFFFFFFFFFFFFFFFFFFFFFFFFFFFFF AND EQ PUSH2 0xB3B JUMPI PUSH2 0xB3A PUSH4 0xA1148100 PUSH1 0xE0 SHL PUSH2 0x2072 JUMP JUMPDEST JUMPDEST PUSH0 DUP1 PUSH2 0xB46 DUP5 PUSH2 0x22E2 JUMP JUMPDEST SWAP2 POP SWAP2 POP PUSH2 0xB5C DUP2 DUP8 PUSH2 0xB57 PUSH2 0x2305 JUMP JUMPDEST PUSH2 0x230C JUMP JUMPDEST PUSH2 0xB87 JUMPI PUSH2 0xB71 DUP7 PUSH2 0xB6C PUSH2 0x2305 JUMP JUMPDEST PUSH2 0x1DDD JUMP JUMPDEST PUSH2 0xB86 JUMPI PUSH2 0xB85 PUSH4 0x59C896BE PUSH1 0xE0 SHL PUSH2 0x2072 JUMP JUMPDEST JUMPDEST JUMPDEST PUSH2 0xB94 DUP7 DUP7 DUP7 PUSH1 0x1 PUSH2 0x234F JUMP JUMPDEST DUP1 ISZERO PUSH2 0xB9E JUMPI PUSH0 DUP3 SSTORE JUMPDEST PUSH1 0x5 PUSH0 DUP8 PUSH20 0xFFFFFFFFFFFFFFFFFFFFFFFFFFFFFFFFFFFFFFFF AND PUSH20 0xFFFFFFFFFFFFFFFFFFFFFFFFFFFFFFFFFFFFFFFF AND DUP2 MSTORE PUSH1 0x20 ADD SWAP1 DUP2 MSTORE PUSH1 0x20 ADD PUSH0 KECCAK256 PUSH0 DUP2 SLOAD PUSH1 0x1 SWAP1 SUB SWAP2 SWAP1 POP DUP2 SWAP1 SSTORE POP PUSH1 0x5 PUSH0 DUP7 PUSH20 0xFFFFFFFFFFFFFFFFFFFFFFFFFFFFFFFFFFFFFFFF AND PUSH20 0xFFFFFFFFFFFFFFFFFFFFFFFFFFFFFFFFFFFFFFFF AND DUP2 MSTORE PUSH1 0x20 ADD SWAP1 DUP2 MSTORE PUSH1 0x20 ADD PUSH0 KECCAK256 PUSH0 DUP2 SLOAD PUSH1 0x1 ADD SWAP2 SWAP1 POP DUP2 SWAP1 SSTORE POP PUSH2 0xC66 DUP6 PUSH2 0xC42 DUP9 DUP9 DUP8 PUSH2 0x2355 JUMP JUMPDEST PUSH29 0x200000000000000000000000000000000000000000000000000000000 OR PUSH2 0x237C JUMP JUMPDEST PUSH1 0x4 PUSH0 DUP7 DUP2 MSTORE PUSH1 0x20 ADD SWAP1 DUP2 MSTORE PUSH1 0x20 ADD PUSH0 KECCAK256 DUP2 SWAP1 SSTORE POP PUSH0 PUSH29 0x200000000000000000000000000000000000000000000000000000000 DUP5 AND SUB PUSH2 0xCE2 JUMPI PUSH0 PUSH1 0x1 DUP6 ADD SWAP1 POP PUSH0 PUSH1 0x4 PUSH0 DUP4 DUP2 MSTORE PUSH1 0x20 ADD SWAP1 DUP2 MSTORE PUSH1 0x20 ADD PUSH0 KECCAK256 SLOAD SUB PUSH2 0xCE0 JUMPI PUSH0 SLOAD DUP2 EQ PUSH2 0xCDF JUMPI DUP4 PUSH1 0x4 PUSH0 DUP4 DUP2 MSTORE PUSH1 0x20 ADD SWAP1 DUP2 MSTORE PUSH1 0x20 ADD PUSH0 KECCAK256 DUP2 SWAP1 SSTORE POP JUMPDEST JUMPDEST POP JUMPDEST PUSH0 PUSH20 0xFFFFFFFFFFFFFFFFFFFFFFFFFFFFFFFFFFFFFFFF DUP7 PUSH20 0xFFFFFFFFFFFFFFFFFFFFFFFFFFFFFFFFFFFFFFFF AND AND SWAP1 POP DUP5 DUP2 DUP9 PUSH32 0xDDF252AD1BE2C89B69C2B068FC378DAA952BA7F163C4A11628F55A4DF523B3EF PUSH0 DUP1 LOG4 PUSH0 DUP2 SUB PUSH2 0xD51 JUMPI PUSH2 0xD50 PUSH4 0xEA553B34 PUSH1 0xE0 SHL PUSH2 0x2072 JUMP JUMPDEST JUMPDEST PUSH2 0xD5E DUP8 DUP8 DUP8 PUSH1 0x1 PUSH2 0x23A6 JUMP JUMPDEST POP POP POP POP POP POP POP JUMP JUMPDEST PUSH1 0x1 PUSH1 0xA SLOAD EQ PUSH2 0xDAC JUMPI PUSH1 0x40 MLOAD PUSH32 0x8C379A000000000000000000000000000000000000000000000000000000000 DUP2 MSTORE PUSH1 0x4 ADD PUSH2 0xDA3 SWAP1 PUSH2 0x3476 JUMP JUMPDEST PUSH1 0x40 MLOAD DUP1 SWAP2 SUB SWAP1 REVERT JUMPDEST PUSH1 0x2 PUSH1 0xA DUP2 SWAP1 SSTORE POP PUSH1 0x1 PUSH1 0xF PUSH1 0x2 PUSH2 0x100 EXP DUP2 SLOAD DUP2 PUSH1 0xFF MUL NOT AND SWAP1 DUP4 ISZERO ISZERO MUL OR SWAP1 SSTORE PUSH2 0xDD6 JUMPI PUSH0 DUP1 REVERT JUMPDEST PUSH1 0x4 DUP2 PUSH1 0x14 PUSH0 CALLER PUSH20 0xFFFFFFFFFFFFFFFFFFFFFFFFFFFFFFFFFFFFFFFF AND PUSH20 0xFFFFFFFFFFFFFFFFFFFFFFFFFFFFFFFFFFFFFFFF AND DUP2 MSTORE PUSH1 0x20 ADD SWAP1 DUP2 MSTORE PUSH1 0x20 ADD PUSH0 KECCAK256 SLOAD PUSH2 0xE21 SWAP2 SWAP1 PUSH2 0x34C1 JUMP JUMPDEST GT ISZERO PUSH2 0xE59 JUMPI PUSH1 0x40 MLOAD PUSH32 0x58C7943400000000000000000000000000000000000000000000000000000000 DUP2 MSTORE PUSH1 0x4 ADD PUSH1 0x40 MLOAD DUP1 SWAP2 SUB SWAP1 REVERT JUMPDEST DUP1 PUSH1 0x14 PUSH0 CALLER PUSH20 0xFFFFFFFFFFFFFFFFFFFFFFFFFFFFFFFFFFFFFFFF AND PUSH20 0xFFFFFFFFFFFFFFFFFFFFFFFFFFFFFFFFFFFFFFFF AND DUP2 MSTORE PUSH1 0x20 ADD SWAP1 DUP2 MSTORE PUSH1 0x20 ADD PUSH0 KECCAK256 PUSH0 DUP3 DUP3 SLOAD PUSH2 0xEA5 SWAP2 SWAP1 PUSH2 0x34C1 JUMP JUMPDEST SWAP3 POP POP DUP2 SWAP1 SSTORE POP PUSH0 PUSH2 0xEB5 PUSH2 0x23AC JUMP JUMPDEST SWAP1 POP PUSH1 0xC SLOAD DUP2 SUB PUSH2 0xEF2 JUMPI PUSH1 0x40 MLOAD PUSH32 0x52DF9FE500000000000000000000000000000000000000000000000000000000 DUP2 MSTORE PUSH1 0x4 ADD PUSH1 0x40 MLOAD DUP1 SWAP2 SUB SWAP1 REVERT JUMPDEST PUSH0 DUP3 GT PUSH2 0xF2B JUMPI PUSH1 0x40 MLOAD PUSH32 0xD43E607500000000000000000000000000000000000000000000000000000000 DUP2 MSTORE PUSH1 0x4 ADD PUSH1 0x40 MLOAD DUP1 SWAP2 SUB SWAP1 REVERT JUMPDEST PUSH0 DUP3 DUP3 PUSH2 0xF38 SWAP2 SWAP1 PUSH2 0x34C1 JUMP JUMPDEST SWAP1 POP PUSH1 0xC SLOAD DUP2 GT ISZERO PUSH2 0xF76 JUMPI PUSH1 0x40 MLOAD PUSH32 0x3FFC0DA600000000000000000000000000000000000000000000000000000000 DUP2 MSTORE PUSH1 0x4 ADD PUSH1 0x40 MLOAD DUP1 SWAP2 SUB SWAP1 REVERT JUMPDEST PUSH0 PUSH1 0xD SLOAD DUP5 PUSH2 0xF85 SWAP2 SWAP1 PUSH2 0x34F4 JUMP JUMPDEST SWAP1 POP DUP1 CALLVALUE LT ISZERO PUSH2 0xFC1 JUMPI PUSH1 0x40 MLOAD PUSH32 0x356680B700000000000000000000000000000000000000000000000000000000 DUP2 MSTORE PUSH1 0x4 ADD PUSH1 0x40 MLOAD DUP1 SWAP2 SUB SWAP1 REVERT JUMPDEST PUSH0 PUSH2 0xFCA PUSH2 0x23F3 JUMP JUMPDEST SWAP1 POP PUSH0 PUSH1 0x1 DUP7 DUP4 PUSH2 0xFDB SWAP2 SWAP1 PUSH2 0x34C1 JUMP JUMPDEST PUSH2 0xFE5 SWAP2 SWAP1 PUSH2 0x3535 JUMP JUMPDEST SWAP1 POP JUMPDEST DUP1 DUP3 GT PUSH2 0x104D JUMPI PUSH1 0x1 NUMBER PUSH2 0xFFC SWAP2 SWAP1 PUSH2 0x3535 JUMP JUMPDEST BLOCKHASH DUP3 PUSH1 0x40 MLOAD PUSH1 0x20 ADD PUSH2 0x100F SWAP3 SWAP2 SWAP1 PUSH2 0x35A8 JUMP JUMPDEST PUSH1 0x40 MLOAD PUSH1 0x20 DUP2 DUP4 SUB SUB DUP2 MSTORE SWAP1 PUSH1 0x40 MSTORE DUP1 MLOAD SWAP1 PUSH1 0x20 ADD KECCAK256 PUSH1 0x10 PUSH0 DUP5 DUP2 MSTORE PUSH1 0x20 ADD SWAP1 DUP2 MSTORE PUSH1 0x20 ADD PUSH0 KECCAK256 DUP2 SWAP1 SSTORE POP DUP2 DUP1 PUSH2 0x1045 SWAP1 PUSH2 0x35D3 JUMP JUMPDEST SWAP3 POP POP PUSH2 0xFE8 JUMP JUMPDEST PUSH2 0x1057 CALLER DUP8 PUSH2 0x23FB JUMP JUMPDEST POP POP POP POP POP PUSH1 0x1 PUSH1 0xA DUP2 SWAP1 SSTORE POP POP JUMP JUMPDEST PUSH1 0xC SLOAD DUP2 JUMP JUMPDEST PUSH1 0x13 PUSH0 SWAP1 SLOAD SWAP1 PUSH2 0x100 EXP SWAP1 DIV PUSH20 0xFFFFFFFFFFFFFFFFFFFFFFFFFFFFFFFFFFFFFFFF AND DUP2 JUMP JUMPDEST PUSH1 0x9 PUSH0 SWAP1 SLOAD SWAP1 PUSH2 0x100 EXP SWAP1 DIV PUSH20 0xFFFFFFFFFFFFFFFFFFFFFFFFFFFFFFFFFFFFFFFF AND PUSH20 0xFFFFFFFFFFFFFFFFFFFFFFFFFFFFFFFFFFFFFFFF AND CALLER PUSH20 0xFFFFFFFFFFFFFFFFFFFFFFFFFFFFFFFFFFFFFFFF AND EQ PUSH2 0x1121 JUMPI PUSH1 0x40 MLOAD PUSH32 0x8C379A000000000000000000000000000000000000000000000000000000000 DUP2 MSTORE PUSH1 0x4 ADD PUSH2 0x1118 SWAP1 PUSH2 0x3664 JUMP JUMPDEST PUSH1 0x40 MLOAD DUP1 SWAP2 SUB SWAP1 REVERT JUMPDEST PUSH1 0x1 PUSH1 0xA SLOAD EQ PUSH2 0x1166 JUMPI PUSH1 0x40 MLOAD PUSH32 0x8C379A000000000000000000000000000000000000000000000000000000000 DUP2 MSTORE PUSH1 0x4 ADD PUSH2 0x115D SWAP1 PUSH2 0x3476 JUMP JUMPDEST PUSH1 0x40 MLOAD DUP1 SWAP2 SUB SWAP1 REVERT JUMPDEST PUSH1 0x2 PUSH1 0xA DUP2 SWAP1 SSTORE POP PUSH0 CALLER PUSH20 0xFFFFFFFFFFFFFFFFFFFFFFFFFFFFFFFFFFFFFFFF AND SELFBALANCE PUSH1 0x40 MLOAD PUSH2 0x1193 SWAP1 PUSH2 0x36AF JUMP JUMPDEST PUSH0 PUSH1 0x40 MLOAD DUP1 DUP4 SUB DUP2 DUP6 DUP8 GAS CALL SWAP3 POP POP POP RETURNDATASIZE DUP1 PUSH0 DUP2 EQ PUSH2 0x11CD JUMPI PUSH1 0x40 MLOAD SWAP2 POP PUSH1 0x1F NOT PUSH1 0x3F RETURNDATASIZE ADD AND DUP3 ADD PUSH1 0x40 MSTORE RETURNDATASIZE DUP3 MSTORE RETURNDATASIZE PUSH0 PUSH1 0x20 DUP5 ADD RETURNDATACOPY PUSH2 0x11D2 JUMP JUMPDEST PUSH1 0x60 SWAP2 POP JUMPDEST POP POP SWAP1 POP DUP1 PUSH2 0x1216 JUMPI PUSH1 0x40 MLOAD PUSH32 0x8C379A000000000000000000000000000000000000000000000000000000000 DUP2 MSTORE PUSH1 0x4 ADD PUSH2 0x120D SWAP1 PUSH2 0x370D JUMP JUMPDEST PUSH1 0x40 MLOAD DUP1 SWAP2 SUB SWAP1 REVERT JUMPDEST POP PUSH1 0x1 PUSH1 0xA DUP2 SWAP1 SSTORE POP JUMP JUMPDEST PUSH2 0x123B DUP4 DUP4 DUP4 PUSH1 0x40 MLOAD DUP1 PUSH1 0x20 ADD PUSH1 0x40 MSTORE DUP1 PUSH0 DUP2 MSTORE POP PUSH2 0x1C34 JUMP JUMPDEST POP POP POP JUMP JUMPDEST PUSH1 0x14 PUSH1 0x20 MSTORE DUP1 PUSH0 MSTORE PUSH1 0x40 PUSH0 KECCAK256 PUSH0 SWAP2 POP SWAP1 POP SLOAD DUP2 JUMP JUMPDEST PUSH1 0x9 PUSH0 SWAP1 SLOAD SWAP1 PUSH2 0x100 EXP SWAP1 DIV PUSH20 0xFFFFFFFFFFFFFFFFFFFFFFFFFFFFFFFFFFFFFFFF AND PUSH20 0xFFFFFFFFFFFFFFFFFFFFFFFFFFFFFFFFFFFFFFFF AND CALLER PUSH20 0xFFFFFFFFFFFFFFFFFFFFFFFFFFFFFFFFFFFFFFFF AND EQ PUSH2 0x12E4 JUMPI PUSH1 0x40 MLOAD PUSH32 0x8C379A000000000000000000000000000000000000000000000000000000000 DUP2 MSTORE PUSH1 0x4 ADD PUSH2 0x12DB SWAP1 PUSH2 0x3664 JUMP JUMPDEST PUSH1 0x40 MLOAD DUP1 SWAP2 SUB SWAP1 REVERT JUMPDEST DUP1 PUSH1 0x13 PUSH0 PUSH2 0x100 EXP DUP2 SLOAD DUP2 PUSH20 0xFFFFFFFFFFFFFFFFFFFFFFFFFFFFFFFFFFFFFFFF MUL NOT AND SWAP1 DUP4 PUSH20 0xFFFFFFFFFFFFFFFFFFFFFFFFFFFFFFFFFFFFFFFF AND MUL OR SWAP1 SSTORE POP POP JUMP JUMPDEST PUSH1 0x9 PUSH0 SWAP1 SLOAD SWAP1 PUSH2 0x100 EXP SWAP1 DIV PUSH20 0xFFFFFFFFFFFFFFFFFFFFFFFFFFFFFFFFFFFFFFFF AND PUSH20 0xFFFFFFFFFFFFFFFFFFFFFFFFFFFFFFFFFFFFFFFF AND CALLER PUSH20 0xFFFFFFFFFFFFFFFFFFFFFFFFFFFFFFFFFFFFFFFF AND EQ PUSH2 0x13B6 JUMPI PUSH1 0x40 MLOAD PUSH32 0x8C379A000000000000000000000000000000000000000000000000000000000 DUP2 MSTORE PUSH1 0x4 ADD PUSH2 0x13AD SWAP1 PUSH2 0x3664 JUMP JUMPDEST PUSH1 0x40 MLOAD DUP1 SWAP2 SUB SWAP1 REVERT JUMPDEST PUSH1 0xF PUSH0 SWAP1 SLOAD SWAP1 PUSH2 0x100 EXP SWAP1 DIV PUSH1 0xFF AND ISZERO PUSH1 0xF PUSH0 PUSH2 0x100 EXP DUP2 SLOAD DUP2 PUSH1 0xFF MUL NOT AND SWAP1 DUP4 ISZERO ISZERO MUL OR SWAP1 SSTORE POP JUMP JUMPDEST PUSH1 0x60 DUP1 PUSH0 DUP5 DUP5 SWAP1 POP SWAP1 POP PUSH1 0x40 MLOAD SWAP2 POP DUP1 DUP3 MSTORE DUP1 PUSH1 0x5 SHL SWAP1 POP DUP1 PUSH1 0x20 DUP4 ADD ADD PUSH1 0x40 MSTORE JUMPDEST PUSH0 DUP2 EQ PUSH2 0x1431 JUMPI PUSH0 PUSH1 0x20 DUP3 SUB SWAP2 POP DUP2 DUP7 ADD CALLDATALOAD SWAP1 POP PUSH0 PUSH2 0x1420 DUP3 PUSH2 0x1C97 JUMP JUMPDEST SWAP1 POP DUP1 DUP4 PUSH1 0x20 DUP7 ADD ADD MSTORE POP POP PUSH2 0x1402 JUMP JUMPDEST DUP2 SWAP3 POP POP POP SWAP3 SWAP2 POP POP JUMP JUMPDEST PUSH0 PUSH2 0x1446 DUP3 PUSH2 0x21D3 JUMP JUMPDEST SWAP1 POP SWAP2 SWAP1 POP JUMP JUMPDEST PUSH1 0x9 PUSH0 SWAP1 SLOAD SWAP1 PUSH2 0x100 EXP SWAP1 DIV PUSH20 0xFFFFFFFFFFFFFFFFFFFFFFFFFFFFFFFFFFFFFFFF AND PUSH20 0xFFFFFFFFFFFFFFFFFFFFFFFFFFFFFFFFFFFFFFFF AND CALLER PUSH20 0xFFFFFFFFFFFFFFFFFFFFFFFFFFFFFFFFFFFFFFFF AND EQ PUSH2 0x14DC JUMPI PUSH1 0x40 MLOAD PUSH32 0x8C379A000000000000000000000000000000000000000000000000000000000 DUP2 MSTORE PUSH1 0x4 ADD PUSH2 0x14D3 SWAP1 PUSH2 0x3664 JUMP JUMPDEST PUSH1 0x40 MLOAD DUP1 SWAP2 SUB SWAP1 REVERT JUMPDEST PUSH1 0xF PUSH1 0x2 SWAP1 SLOAD SWAP1 PUSH2 0x100 EXP SWAP1 DIV PUSH1 0xFF AND ISZERO PUSH1 0xF PUSH1 0x2 PUSH2 0x100 EXP DUP2 SLOAD DUP2 PUSH1 0xFF MUL NOT AND SWAP1 DUP4 ISZERO ISZERO MUL OR SWAP1 SSTORE POP JUMP JUMPDEST PUSH0 DUP1 PUSH20 0xFFFFFFFFFFFFFFFFFFFFFFFFFFFFFFFFFFFFFFFF AND DUP3 PUSH20 0xFFFFFFFFFFFFFFFFFFFFFFFFFFFFFFFFFFFFFFFF AND SUB PUSH2 0x154D JUMPI PUSH2 0x154C PUSH4 0x8F4EB604 PUSH1 0xE0 SHL PUSH2 0x2072 JUMP JUMPDEST JUMPDEST PUSH8 0xFFFFFFFFFFFFFFFF PUSH1 0x5 PUSH0 DUP5 PUSH20 0xFFFFFFFFFFFFFFFFFFFFFFFFFFFFFFFFFFFFFFFF AND PUSH20 0xFFFFFFFFFFFFFFFFFFFFFFFFFFFFFFFFFFFFFFFF AND DUP2 MSTORE PUSH1 0x20 ADD SWAP1 DUP2 MSTORE PUSH1 0x20 ADD PUSH0 KECCAK256 SLOAD AND SWAP1 POP SWAP2 SWAP1 POP JUMP JUMPDEST PUSH1 0x13 PUSH0 SWAP1 SLOAD SWAP1 PUSH2 0x100 EXP SWAP1 DIV PUSH20 0xFFFFFFFFFFFFFFFFFFFFFFFFFFFFFFFFFFFFFFFF AND PUSH20 0xFFFFFFFFFFFFFFFFFFFFFFFFFFFFFFFFFFFFFFFF AND CALLER PUSH20 0xFFFFFFFFFFFFFFFFFFFFFFFFFFFFFFFFFFFFFFFF AND EQ PUSH2 0x162B JUMPI PUSH1 0x40 MLOAD PUSH32 0x8C379A000000000000000000000000000000000000000000000000000000000 DUP2 MSTORE PUSH1 0x4 ADD PUSH2 0x1622 SWAP1 PUSH2 0x3775 JUMP JUMPDEST PUSH1 0x40 MLOAD DUP1 SWAP2 SUB SWAP1 REVERT JUMPDEST PUSH1 0x1 PUSH1 0xA SLOAD EQ PUSH2 0x1670 JUMPI PUSH1 0x40 MLOAD PUSH32 0x8C379A000000000000000000000000000000000000000000000000000000000 DUP2 MSTORE PUSH1 0x4 ADD PUSH2 0x1667 SWAP1 PUSH2 0x3476 JUMP JUMPDEST PUSH1 0x40 MLOAD DUP1 SWAP2 SUB SWAP1 REVERT JUMPDEST PUSH1 0x2 PUSH1 0xA DUP2 SWAP1 SSTORE POP PUSH0 JUMPDEST DUP3 DUP3 SWAP1 POP DUP2 LT ISZERO PUSH2 0x170E JUMPI PUSH1 0x1 PUSH1 0x12 PUSH0 DUP6 DUP6 DUP6 DUP2 DUP2 LT PUSH2 0x169D JUMPI PUSH2 0x169C PUSH2 0x3793 JUMP JUMPDEST JUMPDEST SWAP1 POP PUSH1 0x20 MUL ADD PUSH1 0x20 DUP2 ADD SWAP1 PUSH2 0x16B2 SWAP2 SWAP1 PUSH2 0x2CCE JUMP JUMPDEST PUSH20 0xFFFFFFFFFFFFFFFFFFFFFFFFFFFFFFFFFFFFFFFF AND PUSH20 0xFFFFFFFFFFFFFFFFFFFFFFFFFFFFFFFFFFFFFFFF AND DUP2 MSTORE PUSH1 0x20 ADD SWAP1 DUP2 MSTORE PUSH1 0x20 ADD PUSH0 KECCAK256 PUSH0 PUSH2 0x100 EXP DUP2 SLOAD DUP2 PUSH1 0xFF MUL NOT AND SWAP1 DUP4 ISZERO ISZERO MUL OR SWAP1 SSTORE POP DUP1 DUP1 PUSH1 0x1 ADD SWAP2 POP POP PUSH2 0x167A JUMP JUMPDEST POP PUSH1 0x1 PUSH1 0xA DUP2 SWAP1 SSTORE POP POP POP JUMP JUMPDEST PUSH1 0x10 PUSH1 0x20 MSTORE DUP1 PUSH0 MSTORE PUSH1 0x40 PUSH0 KECCAK256 PUSH0 SWAP2 POP SWAP1 POP SLOAD DUP2 JUMP JUMPDEST PUSH1 0x1 PUSH1 0xA SLOAD EQ PUSH2 0x1775 JUMPI PUSH1 0x40 MLOAD PUSH32 0x8C379A000000000000000000000000000000000000000000000000000000000 DUP2 MSTORE PUSH1 0x4 ADD PUSH2 0x176C SWAP1 PUSH2 0x3476 JUMP JUMPDEST PUSH1 0x40 MLOAD DUP1 SWAP2 SUB SWAP1 REVERT JUMPDEST PUSH1 0x2 PUSH1 0xA DUP2 SWAP1 SSTORE POP PUSH1 0x1 PUSH1 0xF PUSH0 PUSH2 0x100 EXP DUP2 SLOAD DUP2 PUSH1 0xFF MUL NOT AND SWAP1 DUP4 ISZERO ISZERO MUL OR SWAP1 SSTORE PUSH2 0x179E JUMPI PUSH0 DUP1 REVERT JUMPDEST PUSH1 0x1 ISZERO ISZERO PUSH1 0x12 PUSH0 CALLER PUSH20 0xFFFFFFFFFFFFFFFFFFFFFFFFFFFFFFFFFFFFFFFF AND PUSH20 0xFFFFFFFFFFFFFFFFFFFFFFFFFFFFFFFFFFFFFFFF AND DUP2 MSTORE PUSH1 0x20 ADD SWAP1 DUP2 MSTORE PUSH1 0x20 ADD PUSH0 KECCAK256 PUSH0 SWAP1 SLOAD SWAP1 PUSH2 0x100 EXP SWAP1 DIV PUSH1 0xFF AND ISZERO ISZERO EQ PUSH2 0x182E JUMPI PUSH1 0x40 MLOAD PUSH32 0x8C379A000000000000000000000000000000000000000000000000000000000 DUP2 MSTORE PUSH1 0x4 ADD PUSH2 0x1825 SWAP1 PUSH2 0x380A JUMP JUMPDEST PUSH1 0x40 MLOAD DUP1 SWAP2 SUB SWAP1 REVERT JUMPDEST PUSH1 0xE SLOAD DUP2 PUSH1 0x11 PUSH0 CALLER PUSH20 0xFFFFFFFFFFFFFFFFFFFFFFFFFFFFFFFFFFFFFFFF AND PUSH20 0xFFFFFFFFFFFFFFFFFFFFFFFFFFFFFFFFFFFFFFFF AND DUP2 MSTORE PUSH1 0x20 ADD SWAP1 DUP2 MSTORE PUSH1 0x20 ADD PUSH0 KECCAK256 SLOAD PUSH2 0x187A SWAP2 SWAP1 PUSH2 0x34C1 JUMP JUMPDEST GT ISZERO PUSH2 0x18BB JUMPI PUSH1 0x40 MLOAD PUSH32 0x8C379A000000000000000000000000000000000000000000000000000000000 DUP2 MSTORE PUSH1 0x4 ADD PUSH2 0x18B2 SWAP1 PUSH2 0x3872 JUMP JUMPDEST PUSH1 0x40 MLOAD DUP1 SWAP2 SUB SWAP1 REVERT JUMPDEST PUSH0 DUP2 GT PUSH2 0x18F4 JUMPI PUSH1 0x40 MLOAD PUSH32 0xD43E607500000000000000000000000000000000000000000000000000000000 DUP2 MSTORE PUSH1 0x4 ADD PUSH1 0x40 MLOAD DUP1 SWAP2 SUB SWAP1 REVERT JUMPDEST PUSH0 PUSH2 0x18FD PUSH2 0x23F3 JUMP JUMPDEST SWAP1 POP PUSH0 PUSH1 0x1 DUP4 DUP4 PUSH2 0x190E SWAP2 SWAP1 PUSH2 0x34C1 JUMP JUMPDEST PUSH2 0x1918 SWAP2 SWAP1 PUSH2 0x3535 JUMP JUMPDEST SWAP1 POP JUMPDEST DUP1 DUP3 GT PUSH2 0x1980 JUMPI PUSH1 0x1 NUMBER PUSH2 0x192F SWAP2 SWAP1 PUSH2 0x3535 JUMP JUMPDEST BLOCKHASH DUP3 PUSH1 0x40 MLOAD PUSH1 0x20 ADD PUSH2 0x1942 SWAP3 SWAP2 SWAP1 PUSH2 0x35A8 JUMP JUMPDEST PUSH1 0x40 MLOAD PUSH1 0x20 DUP2 DUP4 SUB SUB DUP2 MSTORE SWAP1 PUSH1 0x40 MSTORE DUP1 MLOAD SWAP1 PUSH1 0x20 ADD KECCAK256 PUSH1 0x10 PUSH0 DUP5 DUP2 MSTORE PUSH1 0x20 ADD SWAP1 DUP2 MSTORE PUSH1 0x20 ADD PUSH0 KECCAK256 DUP2 SWAP1 SSTORE POP DUP2 DUP1 PUSH2 0x1978 SWAP1 PUSH2 0x35D3 JUMP JUMPDEST SWAP3 POP POP PUSH2 0x191B JUMP JUMPDEST DUP3 PUSH1 0x11 PUSH0 CALLER PUSH20 0xFFFFFFFFFFFFFFFFFFFFFFFFFFFFFFFFFFFFFFFF AND PUSH20 0xFFFFFFFFFFFFFFFFFFFFFFFFFFFFFFFFFFFFFFFF AND DUP2 MSTORE PUSH1 0x20 ADD SWAP1 DUP2 MSTORE PUSH1 0x20 ADD PUSH0 KECCAK256 PUSH0 DUP3 DUP3 SLOAD PUSH2 0x19CC SWAP2 SWAP1 PUSH2 0x34C1 JUMP JUMPDEST SWAP3 POP POP DUP2 SWAP1 SSTORE POP PUSH2 0x19DD CALLER DUP5 PUSH2 0x23FB JUMP JUMPDEST POP POP PUSH1 0x1 PUSH1 0xA DUP2 SWAP1 SSTORE POP POP JUMP JUMPDEST PUSH1 0x60 PUSH32 0xFFFFFFFFFFFFFFFFFFFFFFFFFFFFFFFFFFFFFFFFFFFFFFFFFFFFFFFFFFFFFFFF PUSH2 0x1A15 PUSH2 0x21AC JUMP JUMPDEST EQ PUSH2 0x1A2B JUMPI PUSH2 0x1A2A PUSH4 0xBDBA09D7 PUSH1 0xE0 SHL PUSH2 0x2072 JUMP JUMPDEST JUMPDEST PUSH0 PUSH2 0x1A34 PUSH2 0x21A4 JUMP JUMPDEST SWAP1 POP PUSH0 PUSH2 0x1A3F PUSH2 0x23F3 JUMP JUMPDEST SWAP1 POP PUSH1 0x60 DUP2 DUP4 EQ PUSH2 0x1A58 JUMPI PUSH2 0x1A55 DUP6 DUP5 DUP5 PUSH2 0x256F JUMP JUMPDEST SWAP1 POP JUMPDEST DUP1 SWAP4 POP POP POP POP SWAP2 SWAP1 POP JUMP JUMPDEST PUSH1 0x9 PUSH0 SWAP1 SLOAD SWAP1 PUSH2 0x100 EXP SWAP1 DIV PUSH20 0xFFFFFFFFFFFFFFFFFFFFFFFFFFFFFFFFFFFFFFFF AND DUP2 JUMP JUMPDEST PUSH1 0x60 PUSH1 0x3 DUP1 SLOAD PUSH2 0x1A97 SWAP1 PUSH2 0x33FC JUMP JUMPDEST DUP1 PUSH1 0x1F ADD PUSH1 0x20 DUP1 SWAP2 DIV MUL PUSH1 0x20 ADD PUSH1 0x40 MLOAD SWAP1 DUP2 ADD PUSH1 0x40 MSTORE DUP1 SWAP3 SWAP2 SWAP1 DUP2 DUP2 MSTORE PUSH1 0x20 ADD DUP3 DUP1 SLOAD PUSH2 0x1AC3 SWAP1 PUSH2 0x33FC JUMP JUMPDEST DUP1 ISZERO PUSH2 0x1B0E JUMPI DUP1 PUSH1 0x1F LT PUSH2 0x1AE5 JUMPI PUSH2 0x100 DUP1 DUP4 SLOAD DIV MUL DUP4 MSTORE SWAP2 PUSH1 0x20 ADD SWAP2 PUSH2 0x1B0E JUMP JUMPDEST DUP3 ADD SWAP2 SWAP1 PUSH0 MSTORE PUSH1 0x20 PUSH0 KECCAK256 SWAP1 JUMPDEST DUP2 SLOAD DUP2 MSTORE SWAP1 PUSH1 0x1 ADD SWAP1 PUSH1 0x20 ADD DUP1 DUP4 GT PUSH2 0x1AF1 JUMPI DUP3 SWAP1 SUB PUSH1 0x1F AND DUP3 ADD SWAP2 JUMPDEST POP POP POP POP POP SWAP1 POP SWAP1 JUMP JUMPDEST PUSH1 0x60 PUSH2 0x1B25 DUP5 DUP5 DUP5 PUSH2 0x256F JUMP JUMPDEST SWAP1 POP SWAP4 SWAP3 POP POP POP JUMP JUMPDEST DUP1 PUSH1 0x7 PUSH0 PUSH2 0x1B3A PUSH2 0x2305 JUMP JUMPDEST PUSH20 0xFFFFFFFFFFFFFFFFFFFFFFFFFFFFFFFFFFFFFFFF AND PUSH20 0xFFFFFFFFFFFFFFFFFFFFFFFFFFFFFFFFFFFFFFFF AND DUP2 MSTORE PUSH1 0x20 ADD SWAP1 DUP2 MSTORE PUSH1 0x20 ADD PUSH0 KECCAK256 PUSH0 DUP5 PUSH20 0xFFFFFFFFFFFFFFFFFFFFFFFFFFFFFFFFFFFFFFFF AND PUSH20 0xFFFFFFFFFFFFFFFFFFFFFFFFFFFFFFFFFFFFFFFF AND DUP2 MSTORE PUSH1 0x20 ADD SWAP1 DUP2 MSTORE PUSH1 0x20 ADD PUSH0 KECCAK256 PUSH0 PUSH2 0x100 EXP DUP2 SLOAD DUP2 PUSH1 0xFF MUL NOT AND SWAP1 DUP4 ISZERO ISZERO MUL OR SWAP1 SSTORE POP DUP2 PUSH20 0xFFFFFFFFFFFFFFFFFFFFFFFFFFFFFFFFFFFFFFFF AND PUSH2 0x1BE3 PUSH2 0x2305 JUMP JUMPDEST PUSH20 0xFFFFFFFFFFFFFFFFFFFFFFFFFFFFFFFFFFFFFFFF AND PUSH32 0x17307EAB39AB6107E8899845AD3D59BD9653F200F220920489CA2B5937696C31 DUP4 PUSH1 0x40 MLOAD PUSH2 0x1C28 SWAP2 SWAP1 PUSH2 0x2A8F JUMP JUMPDEST PUSH1 0x40 MLOAD DUP1 SWAP2 SUB SWAP1 LOG3 POP POP JUMP JUMPDEST PUSH2 0x1C3F DUP5 DUP5 DUP5 PUSH2 0xABC JUMP JUMPDEST PUSH0 DUP4 PUSH20 0xFFFFFFFFFFFFFFFFFFFFFFFFFFFFFFFFFFFFFFFF AND EXTCODESIZE EQ PUSH2 0x1C7F JUMPI PUSH2 0x1C69 DUP5 DUP5 DUP5 DUP5 PUSH2 0x271E JUMP JUMPDEST PUSH2 0x1C7E JUMPI PUSH2 0x1C7D PUSH4 0xD1A57ED6 PUSH1 0xE0 SHL PUSH2 0x2072 JUMP JUMPDEST JUMPDEST JUMPDEST POP POP POP POP JUMP JUMPDEST PUSH1 0xF PUSH0 SWAP1 SLOAD SWAP1 PUSH2 0x100 EXP SWAP1 DIV PUSH1 0xFF AND DUP2 JUMP JUMPDEST PUSH2 0x1C9F PUSH2 0x2999 JUMP JUMPDEST PUSH2 0x1CA7 PUSH2 0x21A4 JUMP JUMPDEST DUP3 LT PUSH2 0x1D06 JUMPI PUSH2 0x1CB5 PUSH2 0x21AC JUMP JUMPDEST DUP3 GT ISZERO PUSH2 0x1CCC JUMPI PUSH2 0x1CC5 DUP3 PUSH2 0x2848 JUMP JUMPDEST SWAP1 POP PUSH2 0x1D07 JUMP JUMPDEST PUSH2 0x1CD4 PUSH2 0x23F3 JUMP JUMPDEST DUP3 LT ISZERO PUSH2 0x1D05 JUMPI JUMPDEST PUSH2 0x1CE5 DUP3 PUSH2 0x2871 JUMP JUMPDEST PUSH2 0x1CF5 JUMPI DUP2 PUSH1 0x1 SWAP1 SUB SWAP2 POP PUSH2 0x1CDC JUMP JUMPDEST PUSH2 0x1CFE DUP3 PUSH2 0x2848 JUMP JUMPDEST SWAP1 POP PUSH2 0x1D07 JUMP JUMPDEST JUMPDEST JUMPDEST SWAP2 SWAP1 POP JUMP JUMPDEST PUSH1 0xD SLOAD DUP2 JUMP JUMPDEST PUSH1 0x60 PUSH1 0xB PUSH0 SWAP1 SLOAD SWAP1 PUSH2 0x100 EXP SWAP1 DIV PUSH20 0xFFFFFFFFFFFFFFFFFFFFFFFFFFFFFFFFFFFFFFFF AND PUSH20 0xFFFFFFFFFFFFFFFFFFFFFFFFFFFFFFFFFFFFFFFF AND PUSH4 0xC649C9A8 DUP4 PUSH1 0x10 PUSH0 DUP7 DUP2 MSTORE PUSH1 0x20 ADD SWAP1 DUP2 MSTORE PUSH1 0x20 ADD PUSH0 KECCAK256 SLOAD PUSH1 0x40 MLOAD DUP4 PUSH4 0xFFFFFFFF AND PUSH1 0xE0 SHL DUP2 MSTORE PUSH1 0x4 ADD PUSH2 0x1D81 SWAP3 SWAP2 SWAP1 PUSH2 0x3890 JUMP JUMPDEST PUSH0 PUSH1 0x40 MLOAD DUP1 DUP4 SUB DUP2 DUP7 GAS STATICCALL ISZERO DUP1 ISZERO PUSH2 0x1D9B JUMPI RETURNDATASIZE PUSH0 DUP1 RETURNDATACOPY RETURNDATASIZE PUSH0 REVERT JUMPDEST POP POP POP POP PUSH1 0x40 MLOAD RETURNDATASIZE PUSH0 DUP3 RETURNDATACOPY RETURNDATASIZE PUSH1 0x1F NOT PUSH1 0x1F DUP3 ADD AND DUP3 ADD DUP1 PUSH1 0x40 MSTORE POP DUP2 ADD SWAP1 PUSH2 0x1DC3 SWAP2 SWAP1 PUSH2 0x3955 JUMP JUMPDEST SWAP1 POP SWAP2 SWAP1 POP JUMP JUMPDEST PUSH1 0xF PUSH1 0x1 SWAP1 SLOAD SWAP1 PUSH2 0x100 EXP SWAP1 DIV PUSH1 0xFF AND DUP2 JUMP JUMPDEST PUSH0 PUSH1 0x7 PUSH0 DUP5 PUSH20 0xFFFFFFFFFFFFFFFFFFFFFFFFFFFFFFFFFFFFFFFF AND PUSH20 0xFFFFFFFFFFFFFFFFFFFFFFFFFFFFFFFFFFFFFFFF AND DUP2 MSTORE PUSH1 0x20 ADD SWAP1 DUP2 MSTORE PUSH1 0x20 ADD PUSH0 KECCAK256 PUSH0 DUP4 PUSH20 0xFFFFFFFFFFFFFFFFFFFFFFFFFFFFFFFFFFFFFFFF AND PUSH20 0xFFFFFFFFFFFFFFFFFFFFFFFFFFFFFFFFFFFFFFFF AND DUP2 MSTORE PUSH1 0x20 ADD SWAP1 DUP2 MSTORE PUSH1 0x20 ADD PUSH0 KECCAK256 PUSH0 SWAP1 SLOAD SWAP1 PUSH2 0x100 EXP SWAP1 DIV PUSH1 0xFF AND SWAP1 POP SWAP3 SWAP2 POP POP JUMP JUMPDEST PUSH1 0x11 PUSH1 0x20 MSTORE DUP1 PUSH0 MSTORE PUSH1 0x40 PUSH0 KECCAK256 PUSH0 SWAP2 POP SWAP1 POP SLOAD DUP2 JUMP JUMPDEST PUSH1 0xE SLOAD DUP2 JUMP JUMPDEST PUSH1 0x9 PUSH0 SWAP1 SLOAD SWAP1 PUSH2 0x100 EXP SWAP1 DIV PUSH20 0xFFFFFFFFFFFFFFFFFFFFFFFFFFFFFFFFFFFFFFFF AND PUSH20 0xFFFFFFFFFFFFFFFFFFFFFFFFFFFFFFFFFFFFFFFF AND CALLER PUSH20 0xFFFFFFFFFFFFFFFFFFFFFFFFFFFFFFFFFFFFFFFF AND EQ PUSH2 0x1F15 JUMPI PUSH1 0x40 MLOAD PUSH32 0x8C379A000000000000000000000000000000000000000000000000000000000 DUP2 MSTORE PUSH1 0x4 ADD PUSH2 0x1F0C SWAP1 PUSH2 0x3664 JUMP JUMPDEST PUSH1 0x40 MLOAD DUP1 SWAP2 SUB SWAP1 REVERT JUMPDEST DUP1 PUSH1 0x9 PUSH0 PUSH2 0x100 EXP DUP2 SLOAD DUP2 PUSH20 0xFFFFFFFFFFFFFFFFFFFFFFFFFFFFFFFFFFFFFFFF MUL NOT AND SWAP1 DUP4 PUSH20 0xFFFFFFFFFFFFFFFFFFFFFFFFFFFFFFFFFFFFFFFF AND MUL OR SWAP1 SSTORE POP DUP1 PUSH20 0xFFFFFFFFFFFFFFFFFFFFFFFFFFFFFFFFFFFFFFFF AND CALLER PUSH20 0xFFFFFFFFFFFFFFFFFFFFFFFFFFFFFFFFFFFFFFFF AND PUSH32 0x8BE0079C531659141344CD1FD0A4F28419497F9722A3DAAFE3B4186F6B6457E0 PUSH1 0x40 MLOAD PUSH1 0x40 MLOAD DUP1 SWAP2 SUB SWAP1 LOG3 POP JUMP JUMPDEST PUSH1 0x12 PUSH1 0x20 MSTORE DUP1 PUSH0 MSTORE PUSH1 0x40 PUSH0 KECCAK256 PUSH0 SWAP2 POP SLOAD SWAP1 PUSH2 0x100 EXP SWAP1 DIV PUSH1 0xFF AND DUP2 JUMP JUMPDEST PUSH0 DUP2 PUSH2 0x1FD9 PUSH2 0x21A4 JUMP JUMPDEST GT PUSH2 0x206C JUMPI PUSH2 0x1FE6 PUSH2 0x21AC JUMP JUMPDEST DUP3 GT ISZERO PUSH2 0x200E JUMPI PUSH2 0x2007 PUSH1 0x4 PUSH0 DUP5 DUP2 MSTORE PUSH1 0x20 ADD SWAP1 DUP2 MSTORE PUSH1 0x20 ADD PUSH0 KECCAK256 SLOAD PUSH2 0x288E JUMP JUMPDEST SWAP1 POP PUSH2 0x206D JUMP JUMPDEST PUSH0 SLOAD DUP3 LT ISZERO PUSH2 0x206B JUMPI PUSH0 JUMPDEST PUSH0 PUSH1 0x4 PUSH0 DUP6 DUP2 MSTORE PUSH1 0x20 ADD SWAP1 DUP2 MSTORE PUSH1 0x20 ADD PUSH0 KECCAK256 SLOAD SWAP2 POP DUP2 SUB PUSH2 0x2045 JUMPI DUP3 PUSH2 0x203E SWAP1 PUSH2 0x399C JUMP JUMPDEST SWAP3 POP PUSH2 0x2019 JUMP JUMPDEST PUSH0 PUSH29 0x100000000000000000000000000000000000000000000000000000000 DUP3 AND EQ SWAP2 POP POP JUMPDEST JUMPDEST JUMPDEST SWAP2 SWAP1 POP JUMP JUMPDEST DUP1 PUSH0 MSTORE PUSH1 0x4 PUSH0 REVERT JUMPDEST PUSH0 PUSH2 0x2084 DUP4 PUSH2 0x143C JUMP JUMPDEST SWAP1 POP DUP2 DUP1 ISZERO PUSH2 0x20C6 JUMPI POP DUP1 PUSH20 0xFFFFFFFFFFFFFFFFFFFFFFFFFFFFFFFFFFFFFFFF AND PUSH2 0x20AD PUSH2 0x2305 JUMP JUMPDEST PUSH20 0xFFFFFFFFFFFFFFFFFFFFFFFFFFFFFFFFFFFFFFFF AND EQ ISZERO JUMPDEST ISZERO PUSH2 0x20F2 JUMPI PUSH2 0x20DC DUP2 PUSH2 0x20D7 PUSH2 0x2305 JUMP JUMPDEST PUSH2 0x1DDD JUMP JUMPDEST PUSH2 0x20F1 JUMPI PUSH2 0x20F0 PUSH4 0xCFB3B942 PUSH1 0xE0 SHL PUSH2 0x2072 JUMP JUMPDEST JUMPDEST JUMPDEST DUP4 PUSH1 0x6 PUSH0 DUP6 DUP2 MSTORE PUSH1 0x20 ADD SWAP1 DUP2 MSTORE PUSH1 0x20 ADD PUSH0 KECCAK256 PUSH0 ADD PUSH0 PUSH2 0x100 EXP DUP2 SLOAD DUP2 PUSH20 0xFFFFFFFFFFFFFFFFFFFFFFFFFFFFFFFFFFFFFFFF MUL NOT AND SWAP1 DUP4 PUSH20 0xFFFFFFFFFFFFFFFFFFFFFFFFFFFFFFFFFFFFFFFF AND MUL OR SWAP1 SSTORE POP DUP3 DUP5 PUSH20 0xFFFFFFFFFFFFFFFFFFFFFFFFFFFFFFFFFFFFFFFF AND DUP3 PUSH20 0xFFFFFFFFFFFFFFFFFFFFFFFFFFFFFFFFFFFFFFFF AND PUSH32 0x8C5BE1E5EBEC7D5BD14F71427D1E84F3DD0314C0F7B2291E5B200AC8C7C3B925 PUSH1 0x40 MLOAD PUSH1 0x40 MLOAD DUP1 SWAP2 SUB SWAP1 LOG4 POP POP POP POP JUMP JUMPDEST PUSH0 PUSH1 0x1 SWAP1 POP SWAP1 JUMP JUMPDEST PUSH0 PUSH32 0xFFFFFFFFFFFFFFFFFFFFFFFFFFFFFFFFFFFFFFFFFFFFFFFFFFFFFFFFFFFFFFFF SWAP1 POP SWAP1 JUMP JUMPDEST PUSH0 DUP2 PUSH2 0x21DD PUSH2 0x21A4 JUMP JUMPDEST GT PUSH2 0x22CC JUMPI PUSH1 0x4 PUSH0 DUP4 DUP2 MSTORE PUSH1 0x20 ADD SWAP1 DUP2 MSTORE PUSH1 0x20 ADD PUSH0 KECCAK256 SLOAD SWAP1 POP PUSH2 0x21FE PUSH2 0x21AC JUMP JUMPDEST DUP3 GT ISZERO PUSH2 0x2223 JUMPI PUSH2 0x220E DUP2 PUSH2 0x288E JUMP JUMPDEST PUSH2 0x22DD JUMPI PUSH2 0x2222 PUSH4 0xDF2D9B42 PUSH1 0xE0 SHL PUSH2 0x2072 JUMP JUMPDEST JUMPDEST PUSH0 DUP2 SUB PUSH2 0x22A4 JUMPI PUSH0 SLOAD DUP3 LT PUSH2 0x2243 JUMPI PUSH2 0x2242 PUSH4 0xDF2D9B42 PUSH1 0xE0 SHL PUSH2 0x2072 JUMP JUMPDEST JUMPDEST JUMPDEST PUSH1 0x4 PUSH0 DUP4 PUSH1 0x1 SWAP1 SUB SWAP4 POP DUP4 DUP2 MSTORE PUSH1 0x20 ADD SWAP1 DUP2 MSTORE PUSH1 0x20 ADD PUSH0 KECCAK256 SLOAD SWAP1 POP PUSH0 DUP2 SUB ISZERO PUSH2 0x229F JUMPI PUSH0 PUSH29 0x100000000000000000000000000000000000000000000000000000000 DUP3 AND SUB ISZERO PUSH2 0x22DD JUMPI PUSH2 0x229E PUSH4 0xDF2D9B42 PUSH1 0xE0 SHL PUSH2 0x2072 JUMP JUMPDEST JUMPDEST PUSH2 0x2244 JUMP JUMPDEST PUSH0 PUSH29 0x100000000000000000000000000000000000000000000000000000000 DUP3 AND SUB ISZERO PUSH2 0x22DD JUMPI JUMPDEST PUSH2 0x22DC PUSH4 0xDF2D9B42 PUSH1 0xE0 SHL PUSH2 0x2072 JUMP JUMPDEST JUMPDEST SWAP2 SWAP1 POP JUMP JUMPDEST PUSH0 DUP1 PUSH0 PUSH1 0x6 PUSH0 DUP6 DUP2 MSTORE PUSH1 0x20 ADD SWAP1 DUP2 MSTORE PUSH1 0x20 ADD PUSH0 KECCAK256 SWAP1 POP DUP1 SWAP3 POP DUP3 SLOAD SWAP2 POP POP SWAP2 POP SWAP2 JUMP JUMPDEST PUSH0 CALLER SWAP1 POP SWAP1 JUMP JUMPDEST PUSH0 PUSH20 0xFFFFFFFFFFFFFFFFFFFFFFFFFFFFFFFFFFFFFFFF DUP4 AND SWAP3 POP PUSH20 0xFFFFFFFFFFFFFFFFFFFFFFFFFFFFFFFFFFFFFFFF DUP3 AND SWAP2 POP DUP4 DUP3 EQ DUP4 DUP4 EQ OR SWAP1 POP SWAP4 SWAP3 POP POP POP JUMP JUMPDEST POP POP POP POP JUMP JUMPDEST PUSH0 DUP1 PUSH1 0xE8 DUP4 SWAP1 SHR SWAP1 POP PUSH1 0xE8 PUSH2 0x236B DUP7 DUP7 DUP5 PUSH2 0x28CE JUMP JUMPDEST PUSH3 0xFFFFFF AND SWAP1 SHL SWAP2 POP POP SWAP4 SWAP3 POP POP POP JUMP JUMPDEST PUSH0 PUSH20 0xFFFFFFFFFFFFFFFFFFFFFFFFFFFFFFFFFFFFFFFF DUP4 AND SWAP3 POP DUP2 TIMESTAMP PUSH1 0xA0 SHL OR DUP4 OR SWAP1 POP SWAP3 SWAP2 POP POP JUMP JUMPDEST POP POP POP POP JUMP JUMPDEST PUSH0 PUSH2 0x23B5 PUSH2 0x21A4 JUMP JUMPDEST PUSH0 SLOAD SUB SWAP1 POP PUSH32 0xFFFFFFFFFFFFFFFFFFFFFFFFFFFFFFFFFFFFFFFFFFFFFFFFFFFFFFFFFFFFFFFF PUSH2 0x23E3 PUSH2 0x21AC JUMP JUMPDEST EQ PUSH2 0x23F0 JUMPI PUSH1 0x8 SLOAD DUP2 ADD SWAP1 POP JUMPDEST SWAP1 JUMP JUMPDEST PUSH0 DUP1 SLOAD SWAP1 POP SWAP1 JUMP JUMPDEST PUSH0 DUP1 SLOAD SWAP1 POP PUSH0 DUP3 SUB PUSH2 0x2418 JUMPI PUSH2 0x2417 PUSH4 0xB562E8DD PUSH1 0xE0 SHL PUSH2 0x2072 JUMP JUMPDEST JUMPDEST PUSH2 0x2424 PUSH0 DUP5 DUP4 DUP6 PUSH2 0x234F JUMP JUMPDEST PUSH2 0x2442 DUP4 PUSH2 0x2433 PUSH0 DUP7 PUSH0 PUSH2 0x2355 JUMP JUMPDEST PUSH2 0x243C DUP6 PUSH2 0x28D6 JUMP JUMPDEST OR PUSH2 0x237C JUMP JUMPDEST PUSH1 0x4 PUSH0 DUP4 DUP2 MSTORE PUSH1 0x20 ADD SWAP1 DUP2 MSTORE PUSH1 0x20 ADD PUSH0 KECCAK256 DUP2 SWAP1 SSTORE POP PUSH1 0x1 PUSH1 0x40 PUSH1 0x1 SWAP1 SHL OR DUP3 MUL PUSH1 0x5 PUSH0 DUP6 PUSH20 0xFFFFFFFFFFFFFFFFFFFFFFFFFFFFFFFFFFFFFFFF AND PUSH20 0xFFFFFFFFFFFFFFFFFFFFFFFFFFFFFFFFFFFFFFFF AND DUP2 MSTORE PUSH1 0x20 ADD SWAP1 DUP2 MSTORE PUSH1 0x20 ADD PUSH0 KECCAK256 PUSH0 DUP3 DUP3 SLOAD ADD SWAP3 POP POP DUP2 SWAP1 SSTORE POP PUSH0 PUSH20 0xFFFFFFFFFFFFFFFFFFFFFFFFFFFFFFFFFFFFFFFF DUP5 PUSH20 0xFFFFFFFFFFFFFFFFFFFFFFFFFFFFFFFFFFFFFFFF AND AND SWAP1 POP PUSH0 DUP2 SUB PUSH2 0x24F3 JUMPI PUSH2 0x24F2 PUSH4 0x2E076300 PUSH1 0xE0 SHL PUSH2 0x2072 JUMP JUMPDEST JUMPDEST PUSH0 DUP4 DUP4 ADD SWAP1 POP PUSH0 DUP4 SWAP1 POP PUSH2 0x2505 PUSH2 0x21AC JUMP JUMPDEST PUSH1 0x1 DUP4 SUB GT ISZERO PUSH2 0x2520 JUMPI PUSH2 0x251F PUSH4 0x81647E3A PUSH1 0xE0 SHL PUSH2 0x2072 JUMP JUMPDEST JUMPDEST JUMPDEST DUP1 DUP4 PUSH0 PUSH32 0xDDF252AD1BE2C89B69C2B068FC378DAA952BA7F163C4A11628F55A4DF523B3EF PUSH0 DUP1 LOG4 DUP2 DUP2 PUSH1 0x1 ADD SWAP2 POP DUP2 SUB PUSH2 0x2521 JUMPI DUP2 PUSH0 DUP2 SWAP1 SSTORE POP POP POP POP PUSH2 0x256A PUSH0 DUP5 DUP4 DUP6 PUSH2 0x23A6 JUMP JUMPDEST POP POP POP JUMP JUMPDEST PUSH1 0x60 DUP2 DUP4 LT PUSH2 0x2589 JUMPI PUSH2 0x2588 PUSH4 0x32C1995A PUSH1 0xE0 SHL PUSH2 0x2072 JUMP JUMPDEST JUMPDEST PUSH2 0x2591 PUSH2 0x21A4 JUMP JUMPDEST DUP4 LT ISZERO PUSH2 0x25A3 JUMPI PUSH2 0x25A0 PUSH2 0x21A4 JUMP JUMPDEST SWAP3 POP JUMPDEST PUSH0 PUSH2 0x25AC PUSH2 0x23F3 JUMP JUMPDEST SWAP1 POP PUSH0 PUSH32 0xFFFFFFFFFFFFFFFFFFFFFFFFFFFFFFFFFFFFFFFFFFFFFFFFFFFFFFFFFFFFFFFF PUSH2 0x25D8 PUSH2 0x21AC JUMP JUMPDEST SUB PUSH2 0x25E3 JUMPI DUP2 PUSH2 0x25E5 JUMP JUMPDEST DUP4 JUMPDEST SWAP1 POP DUP1 DUP5 LT PUSH2 0x25F2 JUMPI DUP1 SWAP4 POP JUMPDEST PUSH0 PUSH2 0x25FC DUP8 PUSH2 0x1508 JUMP JUMPDEST SWAP1 POP DUP5 DUP7 LT PUSH2 0x2609 JUMPI PUSH0 SWAP1 POP JUMPDEST PUSH0 DUP2 EQ PUSH2 0x2714 JUMPI DUP1 DUP7 DUP7 SUB GT PUSH2 0x261F JUMPI DUP6 DUP6 SUB SWAP1 POP JUMPDEST PUSH0 PUSH1 0x40 MLOAD SWAP5 POP PUSH1 0x1 DUP3 ADD PUSH1 0x5 SHL DUP6 ADD SWAP1 POP DUP1 PUSH1 0x40 MSTORE PUSH0 PUSH2 0x263E DUP9 PUSH2 0x1C97 JUMP JUMPDEST SWAP1 POP PUSH0 DUP2 PUSH1 0x40 ADD MLOAD PUSH2 0x2651 JUMPI DUP2 PUSH0 ADD MLOAD SWAP1 POP JUMPDEST PUSH0 JUMPDEST PUSH32 0xFFFFFFFFFFFFFFFFFFFFFFFFFFFFFFFFFFFFFFFFFFFFFFFFFFFFFFFFFFFFFFFF PUSH2 0x267C PUSH2 0x21AC JUMP JUMPDEST EQ PUSH2 0x26AA JUMPI DUP7 DUP11 SUB PUSH2 0x2696 JUMPI PUSH1 0x1 PUSH2 0x2692 PUSH2 0x21AC JUMP JUMPDEST ADD SWAP10 POP JUMPDEST PUSH2 0x269E PUSH2 0x21AC JUMP JUMPDEST DUP11 GT ISZERO PUSH2 0x26A9 JUMPI PUSH0 SWAP2 POP JUMPDEST JUMPDEST PUSH2 0x26B3 DUP11 PUSH2 0x2848 JUMP JUMPDEST SWAP3 POP PUSH1 0x40 DUP4 ADD MLOAD PUSH0 DUP2 EQ PUSH2 0x26C9 JUMPI PUSH0 SWAP3 POP PUSH2 0x26EF JUMP JUMPDEST DUP4 MLOAD ISZERO PUSH2 0x26D5 JUMPI DUP4 MLOAD SWAP3 POP JUMPDEST DUP12 DUP4 XOR PUSH1 0x60 SHL PUSH2 0x26EE JUMPI PUSH1 0x1 DUP3 ADD SWAP2 POP DUP11 DUP3 PUSH1 0x5 SHL DUP11 ADD MSTORE JUMPDEST JUMPDEST POP PUSH1 0x1 DUP11 ADD SWAP10 POP DUP4 PUSH1 0x40 MSTORE DUP9 DUP11 EQ DUP1 PUSH2 0x2707 JUMPI POP DUP5 DUP2 EQ JUMPDEST ISZERO PUSH2 0x2653 JUMPI DUP1 DUP9 MSTORE POP POP POP POP JUMPDEST POP POP POP SWAP4 SWAP3 POP POP POP JUMP JUMPDEST PUSH0 DUP4 PUSH20 0xFFFFFFFFFFFFFFFFFFFFFFFFFFFFFFFFFFFFFFFF AND PUSH4 0x150B7A02 PUSH2 0x2743 PUSH2 0x2305 JUMP JUMPDEST DUP8 DUP7 DUP7 PUSH1 0x40 MLOAD DUP6 PUSH4 0xFFFFFFFF AND PUSH1 0xE0 SHL DUP2 MSTORE PUSH1 0x4 ADD PUSH2 0x2765 SWAP5 SWAP4 SWAP3 SWAP2 SWAP1 PUSH2 0x3A15 JUMP JUMPDEST PUSH1 0x20 PUSH1 0x40 MLOAD DUP1 DUP4 SUB DUP2 PUSH0 DUP8 GAS CALL SWAP3 POP POP POP DUP1 ISZERO PUSH2 0x27A0 JUMPI POP PUSH1 0x40 MLOAD RETURNDATASIZE PUSH1 0x1F NOT PUSH1 0x1F DUP3 ADD AND DUP3 ADD DUP1 PUSH1 0x40 MSTORE POP DUP2 ADD SWAP1 PUSH2 0x279D SWAP2 SWAP1 PUSH2 0x3A73 JUMP JUMPDEST PUSH1 0x1 JUMPDEST PUSH2 0x27F5 JUMPI RETURNDATASIZE DUP1 PUSH0 DUP2 EQ PUSH2 0x27CE JUMPI PUSH1 0x40 MLOAD SWAP2 POP PUSH1 0x1F NOT PUSH1 0x3F RETURNDATASIZE ADD AND DUP3 ADD PUSH1 0x40 MSTORE RETURNDATASIZE DUP3 MSTORE RETURNDATASIZE PUSH0 PUSH1 0x20 DUP5 ADD RETURNDATACOPY PUSH2 0x27D3 JUMP JUMPDEST PUSH1 0x60 SWAP2 POP JUMPDEST POP PUSH0 DUP2 MLOAD SUB PUSH2 0x27ED JUMPI PUSH2 0x27EC PUSH4 0xD1A57ED6 PUSH1 0xE0 SHL PUSH2 0x2072 JUMP JUMPDEST JUMPDEST DUP1 MLOAD DUP2 PUSH1 0x20 ADD REVERT JUMPDEST PUSH4 0x150B7A02 PUSH1 0xE0 SHL PUSH28 0xFFFFFFFFFFFFFFFFFFFFFFFFFFFFFFFFFFFFFFFFFFFFFFFFFFFFFFFF NOT AND DUP2 PUSH28 0xFFFFFFFFFFFFFFFFFFFFFFFFFFFFFFFFFFFFFFFFFFFFFFFFFFFFFFFF NOT AND EQ SWAP2 POP POP SWAP5 SWAP4 POP POP POP POP JUMP JUMPDEST PUSH2 0x2850 PUSH2 0x2999 JUMP JUMPDEST PUSH2 0x286A PUSH1 0x4 PUSH0 DUP5 DUP2 MSTORE PUSH1 0x20 ADD SWAP1 DUP2 MSTORE PUSH1 0x20 ADD PUSH0 KECCAK256 SLOAD PUSH2 0x28E5 JUMP JUMPDEST SWAP1 POP SWAP2 SWAP1 POP JUMP JUMPDEST PUSH0 DUP1 PUSH1 0x4 PUSH0 DUP5 DUP2 MSTORE PUSH1 0x20 ADD SWAP1 DUP2 MSTORE PUSH1 0x20 ADD PUSH0 KECCAK256 SLOAD EQ ISZERO SWAP1 POP SWAP2 SWAP1 POP JUMP JUMPDEST PUSH0 PUSH29 0x100000000000000000000000000000000000000000000000000000000 DUP3 AND PUSH20 0xFFFFFFFFFFFFFFFFFFFFFFFFFFFFFFFFFFFFFFFF DUP4 AND GT SWAP1 POP SWAP2 SWAP1 POP JUMP JUMPDEST PUSH0 SWAP4 SWAP3 POP POP POP JUMP JUMPDEST PUSH0 PUSH1 0x1 DUP3 EQ PUSH1 0xE1 SHL SWAP1 POP SWAP2 SWAP1 POP JUMP JUMPDEST PUSH2 0x28ED PUSH2 0x2999 JUMP JUMPDEST DUP2 DUP2 PUSH0 ADD SWAP1 PUSH20 0xFFFFFFFFFFFFFFFFFFFFFFFFFFFFFFFFFFFFFFFF AND SWAP1 DUP2 PUSH20 0xFFFFFFFFFFFFFFFFFFFFFFFFFFFFFFFFFFFFFFFF AND DUP2 MSTORE POP POP PUSH1 0xA0 DUP3 SWAP1 SHR DUP2 PUSH1 0x20 ADD SWAP1 PUSH8 0xFFFFFFFFFFFFFFFF AND SWAP1 DUP2 PUSH8 0xFFFFFFFFFFFFFFFF AND DUP2 MSTORE POP POP PUSH0 PUSH29 0x100000000000000000000000000000000000000000000000000000000 DUP4 AND EQ ISZERO DUP2 PUSH1 0x40 ADD SWAP1 ISZERO ISZERO SWAP1 DUP2 ISZERO ISZERO DUP2 MSTORE POP POP PUSH1 0xE8 DUP3 SWAP1 SHR DUP2 PUSH1 0x60 ADD SWAP1 PUSH3 0xFFFFFF AND SWAP1 DUP2 PUSH3 0xFFFFFF AND DUP2 MSTORE POP POP SWAP2 SWAP1 POP JUMP JUMPDEST PUSH1 0x40 MLOAD DUP1 PUSH1 0x80 ADD PUSH1 0x40 MSTORE DUP1 PUSH0 PUSH20 0xFFFFFFFFFFFFFFFFFFFFFFFFFFFFFFFFFFFFFFFF AND DUP2 MSTORE PUSH1 0x20 ADD PUSH0 PUSH8 0xFFFFFFFFFFFFFFFF AND DUP2 MSTORE PUSH1 0x20 ADD PUSH0 ISZERO ISZERO DUP2 MSTORE PUSH1 0x20 ADD PUSH0 PUSH3 0xFFFFFF AND DUP2 MSTORE POP SWAP1 JUMP JUMPDEST PUSH0 PUSH1 0x40 MLOAD SWAP1 POP SWAP1 JUMP JUMPDEST PUSH0 DUP1 REVERT JUMPDEST PUSH0 DUP1 REVERT JUMPDEST PUSH0 PUSH32 0xFFFFFFFF00000000000000000000000000000000000000000000000000000000 DUP3 AND SWAP1 POP SWAP2 SWAP1 POP JUMP JUMPDEST PUSH2 0x2A29 DUP2 PUSH2 0x29F5 JUMP JUMPDEST DUP2 EQ PUSH2 0x2A33 JUMPI PUSH0 DUP1 REVERT JUMPDEST POP JUMP JUMPDEST PUSH0 DUP2 CALLDATALOAD SWAP1 POP PUSH2 0x2A44 DUP2 PUSH2 0x2A20 JUMP JUMPDEST SWAP3 SWAP2 POP POP JUMP JUMPDEST PUSH0 PUSH1 0x20 DUP3 DUP5 SUB SLT ISZERO PUSH2 0x2A5F JUMPI PUSH2 0x2A5E PUSH2 0x29ED JUMP JUMPDEST JUMPDEST PUSH0 PUSH2 0x2A6C DUP5 DUP3 DUP6 ADD PUSH2 0x2A36 JUMP JUMPDEST SWAP2 POP POP SWAP3 SWAP2 POP POP JUMP JUMPDEST PUSH0 DUP2 ISZERO ISZERO SWAP1 POP SWAP2 SWAP1 POP JUMP JUMPDEST PUSH2 0x2A89 DUP2 PUSH2 0x2A75 JUMP JUMPDEST DUP3 MSTORE POP POP JUMP JUMPDEST PUSH0 PUSH1 0x20 DUP3 ADD SWAP1 POP PUSH2 0x2AA2 PUSH0 DUP4 ADD DUP5 PUSH2 0x2A80 JUMP JUMPDEST SWAP3 SWAP2 POP POP JUMP JUMPDEST PUSH0 DUP2 MLOAD SWAP1 POP SWAP2 SWAP1 POP JUMP JUMPDEST PUSH0 DUP3 DUP3 MSTORE PUSH1 0x20 DUP3 ADD SWAP1 POP SWAP3 SWAP2 POP POP JUMP JUMPDEST DUP3 DUP2 DUP4 MCOPY PUSH0 DUP4 DUP4 ADD MSTORE POP POP POP JUMP JUMPDEST PUSH0 PUSH1 0x1F NOT PUSH1 0x1F DUP4 ADD AND SWAP1 POP SWAP2 SWAP1 POP JUMP JUMPDEST PUSH0 PUSH2 0x2AEA DUP3 PUSH2 0x2AA8 JUMP JUMPDEST PUSH2 0x2AF4 DUP2 DUP6 PUSH2 0x2AB2 JUMP JUMPDEST SWAP4 POP PUSH2 0x2B04 DUP2 DUP6 PUSH1 0x20 DUP7 ADD PUSH2 0x2AC2 JUMP JUMPDEST PUSH2 0x2B0D DUP2 PUSH2 0x2AD0 JUMP JUMPDEST DUP5 ADD SWAP2 POP POP SWAP3 SWAP2 POP POP JUMP JUMPDEST PUSH0 PUSH1 0x20 DUP3 ADD SWAP1 POP DUP2 DUP2 SUB PUSH0 DUP4 ADD MSTORE PUSH2 0x2B30 DUP2 DUP5 PUSH2 0x2AE0 JUMP JUMPDEST SWAP1 POP SWAP3 SWAP2 POP POP JUMP JUMPDEST PUSH0 DUP2 SWAP1 POP SWAP2 SWAP1 POP JUMP JUMPDEST PUSH2 0x2B4A DUP2 PUSH2 0x2B38 JUMP JUMPDEST DUP2 EQ PUSH2 0x2B54 JUMPI PUSH0 DUP1 REVERT JUMPDEST POP JUMP JUMPDEST PUSH0 DUP2 CALLDATALOAD SWAP1 POP PUSH2 0x2B65 DUP2 PUSH2 0x2B41 JUMP JUMPDEST SWAP3 SWAP2 POP POP JUMP JUMPDEST PUSH0 PUSH1 0x20 DUP3 DUP5 SUB SLT ISZERO PUSH2 0x2B80 JUMPI PUSH2 0x2B7F PUSH2 0x29ED JUMP JUMPDEST JUMPDEST PUSH0 PUSH2 0x2B8D DUP5 DUP3 DUP6 ADD PUSH2 0x2B57 JUMP JUMPDEST SWAP2 POP POP SWAP3 SWAP2 POP POP JUMP JUMPDEST PUSH0 PUSH20 0xFFFFFFFFFFFFFFFFFFFFFFFFFFFFFFFFFFFFFFFF DUP3 AND SWAP1 POP SWAP2 SWAP1 POP JUMP JUMPDEST PUSH0 PUSH2 0x2BBF DUP3 PUSH2 0x2B96 JUMP JUMPDEST SWAP1 POP SWAP2 SWAP1 POP JUMP JUMPDEST PUSH2 0x2BCF DUP2 PUSH2 0x2BB5 JUMP JUMPDEST DUP3 MSTORE POP POP JUMP JUMPDEST PUSH0 PUSH1 0x20 DUP3 ADD SWAP1 POP PUSH2 0x2BE8 PUSH0 DUP4 ADD DUP5 PUSH2 0x2BC6 JUMP JUMPDEST SWAP3 SWAP2 POP POP JUMP JUMPDEST PUSH2 0x2BF7 DUP2 PUSH2 0x2BB5 JUMP JUMPDEST DUP2 EQ PUSH2 0x2C01 JUMPI PUSH0 DUP1 REVERT JUMPDEST POP JUMP JUMPDEST PUSH0 DUP2 CALLDATALOAD SWAP1 POP PUSH2 0x2C12 DUP2 PUSH2 0x2BEE JUMP JUMPDEST SWAP3 SWAP2 POP POP JUMP JUMPDEST PUSH0 DUP1 PUSH1 0x40 DUP4 DUP6 SUB SLT ISZERO PUSH2 0x2C2E JUMPI PUSH2 0x2C2D PUSH2 0x29ED JUMP JUMPDEST JUMPDEST PUSH0 PUSH2 0x2C3B DUP6 DUP3 DUP7 ADD PUSH2 0x2C04 JUMP JUMPDEST SWAP3 POP POP PUSH1 0x20 PUSH2 0x2C4C DUP6 DUP3 DUP7 ADD PUSH2 0x2B57 JUMP JUMPDEST SWAP2 POP POP SWAP3 POP SWAP3 SWAP1 POP JUMP JUMPDEST PUSH2 0x2C5F DUP2 PUSH2 0x2B38 JUMP JUMPDEST DUP3 MSTORE POP POP JUMP JUMPDEST PUSH0 PUSH1 0x20 DUP3 ADD SWAP1 POP PUSH2 0x2C78 PUSH0 DUP4 ADD DUP5 PUSH2 0x2C56 JUMP JUMPDEST SWAP3 SWAP2 POP POP JUMP JUMPDEST PUSH0 DUP1 PUSH0 PUSH1 0x60 DUP5 DUP7 SUB SLT ISZERO PUSH2 0x2C95 JUMPI PUSH2 0x2C94 PUSH2 0x29ED JUMP JUMPDEST JUMPDEST PUSH0 PUSH2 0x2CA2 DUP7 DUP3 DUP8 ADD PUSH2 0x2C04 JUMP JUMPDEST SWAP4 POP POP PUSH1 0x20 PUSH2 0x2CB3 DUP7 DUP3 DUP8 ADD PUSH2 0x2C04 JUMP JUMPDEST SWAP3 POP POP PUSH1 0x40 PUSH2 0x2CC4 DUP7 DUP3 DUP8 ADD PUSH2 0x2B57 JUMP JUMPDEST SWAP2 POP POP SWAP3 POP SWAP3 POP SWAP3 JUMP JUMPDEST PUSH0 PUSH1 0x20 DUP3 DUP5 SUB SLT ISZERO PUSH2 0x2CE3 JUMPI PUSH2 0x2CE2 PUSH2 0x29ED JUMP JUMPDEST JUMPDEST PUSH0 PUSH2 0x2CF0 DUP5 DUP3 DUP6 ADD PUSH2 0x2C04 JUMP JUMPDEST SWAP2 POP POP SWAP3 SWAP2 POP POP JUMP JUMPDEST PUSH0 DUP1 REVERT JUMPDEST PUSH0 DUP1 REVERT JUMPDEST PUSH0 DUP1 REVERT JUMPDEST PUSH0 DUP1 DUP4 PUSH1 0x1F DUP5 ADD SLT PUSH2 0x2D1A JUMPI PUSH2 0x2D19 PUSH2 0x2CF9 JUMP JUMPDEST JUMPDEST DUP3 CALLDATALOAD SWAP1 POP PUSH8 0xFFFFFFFFFFFFFFFF DUP2 GT ISZERO PUSH2 0x2D37 JUMPI PUSH2 0x2D36 PUSH2 0x2CFD JUMP JUMPDEST JUMPDEST PUSH1 0x20 DUP4 ADD SWAP2 POP DUP4 PUSH1 0x20 DUP3 MUL DUP4 ADD GT ISZERO PUSH2 0x2D53 JUMPI PUSH2 0x2D52 PUSH2 0x2D01 JUMP JUMPDEST JUMPDEST SWAP3 POP SWAP3 SWAP1 POP JUMP JUMPDEST PUSH0 DUP1 PUSH1 0x20 DUP4 DUP6 SUB SLT ISZERO PUSH2 0x2D70 JUMPI PUSH2 0x2D6F PUSH2 0x29ED JUMP JUMPDEST JUMPDEST PUSH0 DUP4 ADD CALLDATALOAD PUSH8 0xFFFFFFFFFFFFFFFF DUP2 GT ISZERO PUSH2 0x2D8D JUMPI PUSH2 0x2D8C PUSH2 0x29F1 JUMP JUMPDEST JUMPDEST PUSH2 0x2D99 DUP6 DUP3 DUP7 ADD PUSH2 0x2D05 JUMP JUMPDEST SWAP3 POP SWAP3 POP POP SWAP3 POP SWAP3 SWAP1 POP JUMP JUMPDEST PUSH0 DUP2 MLOAD SWAP1 POP SWAP2 SWAP1 POP JUMP JUMPDEST PUSH0 DUP3 DUP3 MSTORE PUSH1 0x20 DUP3 ADD SWAP1 POP SWAP3 SWAP2 POP POP JUMP JUMPDEST PUSH0 DUP2 SWAP1 POP PUSH1 0x20 DUP3 ADD SWAP1 POP SWAP2 SWAP1 POP JUMP JUMPDEST PUSH2 0x2DD7 DUP2 PUSH2 0x2BB5 JUMP JUMPDEST DUP3 MSTORE POP POP JUMP JUMPDEST PUSH0 PUSH8 0xFFFFFFFFFFFFFFFF DUP3 AND SWAP1 POP SWAP2 SWAP1 POP JUMP JUMPDEST PUSH2 0x2DF9 DUP2 PUSH2 0x2DDD JUMP JUMPDEST DUP3 MSTORE POP POP JUMP JUMPDEST PUSH2 0x2E08 DUP2 PUSH2 0x2A75 JUMP JUMPDEST DUP3 MSTORE POP POP JUMP JUMPDEST PUSH0 PUSH3 0xFFFFFF DUP3 AND SWAP1 POP SWAP2 SWAP1 POP JUMP JUMPDEST PUSH2 0x2E25 DUP2 PUSH2 0x2E0E JUMP JUMPDEST DUP3 MSTORE POP POP JUMP JUMPDEST PUSH1 0x80 DUP3 ADD PUSH0 DUP3 ADD MLOAD PUSH2 0x2E3F PUSH0 DUP6 ADD DUP3 PUSH2 0x2DCE JUMP JUMPDEST POP PUSH1 0x20 DUP3 ADD MLOAD PUSH2 0x2E52 PUSH1 0x20 DUP6 ADD DUP3 PUSH2 0x2DF0 JUMP JUMPDEST POP PUSH1 0x40 DUP3 ADD MLOAD PUSH2 0x2E65 PUSH1 0x40 DUP6 ADD DUP3 PUSH2 0x2DFF JUMP JUMPDEST POP PUSH1 0x60 DUP3 ADD MLOAD PUSH2 0x2E78 PUSH1 0x60 DUP6 ADD DUP3 PUSH2 0x2E1C JUMP JUMPDEST POP POP POP POP JUMP JUMPDEST PUSH0 PUSH2 0x2E89 DUP4 DUP4 PUSH2 0x2E2B JUMP JUMPDEST PUSH1 0x80 DUP4 ADD SWAP1 POP SWAP3 SWAP2 POP POP JUMP JUMPDEST PUSH0 PUSH1 0x20 DUP3 ADD SWAP1 POP SWAP2 SWAP1 POP JUMP JUMPDEST PUSH0 PUSH2 0x2EAB DUP3 PUSH2 0x2DA5 JUMP JUMPDEST PUSH2 0x2EB5 DUP2 DUP6 PUSH2 0x2DAF JUMP JUMPDEST SWAP4 POP PUSH2 0x2EC0 DUP4 PUSH2 0x2DBF JUMP JUMPDEST DUP1 PUSH0 JUMPDEST DUP4 DUP2 LT ISZERO PUSH2 0x2EF0 JUMPI DUP2 MLOAD PUSH2 0x2ED7 DUP9 DUP3 PUSH2 0x2E7E JUMP JUMPDEST SWAP8 POP PUSH2 0x2EE2 DUP4 PUSH2 0x2E95 JUMP JUMPDEST SWAP3 POP POP PUSH1 0x1 DUP2 ADD SWAP1 POP PUSH2 0x2EC3 JUMP JUMPDEST POP DUP6 SWAP4 POP POP POP POP SWAP3 SWAP2 POP POP JUMP JUMPDEST PUSH0 PUSH1 0x20 DUP3 ADD SWAP1 POP DUP2 DUP2 SUB PUSH0 DUP4 ADD MSTORE PUSH2 0x2F15 DUP2 DUP5 PUSH2 0x2EA1 JUMP JUMPDEST SWAP1 POP SWAP3 SWAP2 POP POP JUMP JUMPDEST PUSH0 DUP1 DUP4 PUSH1 0x1F DUP5 ADD SLT PUSH2 0x2F32 JUMPI PUSH2 0x2F31 PUSH2 0x2CF9 JUMP JUMPDEST JUMPDEST DUP3 CALLDATALOAD SWAP1 POP PUSH8 0xFFFFFFFFFFFFFFFF DUP2 GT ISZERO PUSH2 0x2F4F JUMPI PUSH2 0x2F4E PUSH2 0x2CFD JUMP JUMPDEST JUMPDEST PUSH1 0x20 DUP4 ADD SWAP2 POP DUP4 PUSH1 0x20 DUP3 MUL DUP4 ADD GT ISZERO PUSH2 0x2F6B JUMPI PUSH2 0x2F6A PUSH2 0x2D01 JUMP JUMPDEST JUMPDEST SWAP3 POP SWAP3 SWAP1 POP JUMP JUMPDEST PUSH0 DUP1 PUSH1 0x20 DUP4 DUP6 SUB SLT ISZERO PUSH2 0x2F88 JUMPI PUSH2 0x2F87 PUSH2 0x29ED JUMP JUMPDEST JUMPDEST PUSH0 DUP4 ADD CALLDATALOAD PUSH8 0xFFFFFFFFFFFFFFFF DUP2 GT ISZERO PUSH2 0x2FA5 JUMPI PUSH2 0x2FA4 PUSH2 0x29F1 JUMP JUMPDEST JUMPDEST PUSH2 0x2FB1 DUP6 DUP3 DUP7 ADD PUSH2 0x2F1D JUMP JUMPDEST SWAP3 POP SWAP3 POP POP SWAP3 POP SWAP3 SWAP1 POP JUMP JUMPDEST PUSH0 DUP2 SWAP1 POP SWAP2 SWAP1 POP JUMP JUMPDEST PUSH2 0x2FCF DUP2 PUSH2 0x2FBD JUMP JUMPDEST DUP3 MSTORE POP POP JUMP JUMPDEST PUSH0 PUSH1 0x20 DUP3 ADD SWAP1 POP PUSH2 0x2FE8 PUSH0 DUP4 ADD DUP5 PUSH2 0x2FC6 JUMP JUMPDEST SWAP3 SWAP2 POP POP JUMP JUMPDEST PUSH0 DUP2 MLOAD SWAP1 POP SWAP2 SWAP1 POP JUMP JUMPDEST PUSH0 DUP3 DUP3 MSTORE PUSH1 0x20 DUP3 ADD SWAP1 POP SWAP3 SWAP2 POP POP JUMP JUMPDEST PUSH0 DUP2 SWAP1 POP PUSH1 0x20 DUP3 ADD SWAP1 POP SWAP2 SWAP1 POP JUMP JUMPDEST PUSH2 0x3020 DUP2 PUSH2 0x2B38 JUMP JUMPDEST DUP3 MSTORE POP POP JUMP JUMPDEST PUSH0 PUSH2 0x3031 DUP4 DUP4 PUSH2 0x3017 JUMP JUMPDEST PUSH1 0x20 DUP4 ADD SWAP1 POP SWAP3 SWAP2 POP POP JUMP JUMPDEST PUSH0 PUSH1 0x20 DUP3 ADD SWAP1 POP SWAP2 SWAP1 POP JUMP JUMPDEST PUSH0 PUSH2 0x3053 DUP3 PUSH2 0x2FEE JUMP JUMPDEST PUSH2 0x305D DUP2 DUP6 PUSH2 0x2FF8 JUMP JUMPDEST SWAP4 POP PUSH2 0x3068 DUP4 PUSH2 0x3008 JUMP JUMPDEST DUP1 PUSH0 JUMPDEST DUP4 DUP2 LT ISZERO PUSH2 0x3098 JUMPI DUP2 MLOAD PUSH2 0x307F DUP9 DUP3 PUSH2 0x3026 JUMP JUMPDEST SWAP8 POP PUSH2 0x308A DUP4 PUSH2 0x303D JUMP JUMPDEST SWAP3 POP POP PUSH1 0x1 DUP2 ADD SWAP1 POP PUSH2 0x306B JUMP JUMPDEST POP DUP6 SWAP4 POP POP POP POP SWAP3 SWAP2 POP POP JUMP JUMPDEST PUSH0 PUSH1 0x20 DUP3 ADD SWAP1 POP DUP2 DUP2 SUB PUSH0 DUP4 ADD MSTORE PUSH2 0x30BD DUP2 DUP5 PUSH2 0x3049 JUMP JUMPDEST SWAP1 POP SWAP3 SWAP2 POP POP JUMP JUMPDEST PUSH0 DUP1 PUSH0 PUSH1 0x60 DUP5 DUP7 SUB SLT ISZERO PUSH2 0x30DC JUMPI PUSH2 0x30DB PUSH2 0x29ED JUMP JUMPDEST JUMPDEST PUSH0 PUSH2 0x30E9 DUP7 DUP3 DUP8 ADD PUSH2 0x2C04 JUMP JUMPDEST SWAP4 POP POP PUSH1 0x20 PUSH2 0x30FA DUP7 DUP3 DUP8 ADD PUSH2 0x2B57 JUMP JUMPDEST SWAP3 POP POP PUSH1 0x40 PUSH2 0x310B DUP7 DUP3 DUP8 ADD PUSH2 0x2B57 JUMP JUMPDEST SWAP2 POP POP SWAP3 POP SWAP3 POP SWAP3 JUMP JUMPDEST PUSH2 0x311E DUP2 PUSH2 0x2A75 JUMP JUMPDEST DUP2 EQ PUSH2 0x3128 JUMPI PUSH0 DUP1 REVERT JUMPDEST POP JUMP JUMPDEST PUSH0 DUP2 CALLDATALOAD SWAP1 POP PUSH2 0x3139 DUP2 PUSH2 0x3115 JUMP JUMPDEST SWAP3 SWAP2 POP POP JUMP JUMPDEST PUSH0 DUP1 PUSH1 0x40 DUP4 DUP6 SUB SLT ISZERO PUSH2 0x3155 JUMPI PUSH2 0x3154 PUSH2 0x29ED JUMP JUMPDEST JUMPDEST PUSH0 PUSH2 0x3162 DUP6 DUP3 DUP7 ADD PUSH2 0x2C04 JUMP JUMPDEST SWAP3 POP POP PUSH1 0x20 PUSH2 0x3173 DUP6 DUP3 DUP7 ADD PUSH2 0x312B JUMP JUMPDEST SWAP2 POP POP SWAP3 POP SWAP3 SWAP1 POP JUMP JUMPDEST PUSH0 DUP1 REVERT JUMPDEST PUSH32 0x4E487B7100000000000000000000000000000000000000000000000000000000 PUSH0 MSTORE PUSH1 0x41 PUSH1 0x4 MSTORE PUSH1 0x24 PUSH0 REVERT JUMPDEST PUSH2 0x31B7 DUP3 PUSH2 0x2AD0 JUMP JUMPDEST DUP2 ADD DUP2 DUP2 LT PUSH8 0xFFFFFFFFFFFFFFFF DUP3 GT OR ISZERO PUSH2 0x31D6 JUMPI PUSH2 0x31D5 PUSH2 0x3181 JUMP JUMPDEST JUMPDEST DUP1 PUSH1 0x40 MSTORE POP POP POP JUMP JUMPDEST PUSH0 PUSH2 0x31E8 PUSH2 0x29E4 JUMP JUMPDEST SWAP1 POP PUSH2 0x31F4 DUP3 DUP3 PUSH2 0x31AE JUMP JUMPDEST SWAP2 SWAP1 POP JUMP JUMPDEST PUSH0 PUSH8 0xFFFFFFFFFFFFFFFF DUP3 GT ISZERO PUSH2 0x3213 JUMPI PUSH2 0x3212 PUSH2 0x3181 JUMP JUMPDEST JUMPDEST PUSH2 0x321C DUP3 PUSH2 0x2AD0 JUMP JUMPDEST SWAP1 POP PUSH1 0x20 DUP2 ADD SWAP1 POP SWAP2 SWAP1 POP JUMP JUMPDEST DUP3 DUP2 DUP4 CALLDATACOPY PUSH0 DUP4 DUP4 ADD MSTORE POP POP POP JUMP JUMPDEST PUSH0 PUSH2 0x3249 PUSH2 0x3244 DUP5 PUSH2 0x31F9 JUMP JUMPDEST PUSH2 0x31DF JUMP JUMPDEST SWAP1 POP DUP3 DUP2 MSTORE PUSH1 0x20 DUP2 ADD DUP5 DUP5 DUP5 ADD GT ISZERO PUSH2 0x3265 JUMPI PUSH2 0x3264 PUSH2 0x317D JUMP JUMPDEST JUMPDEST PUSH2 0x3270 DUP5 DUP3 DUP6 PUSH2 0x3229 JUMP JUMPDEST POP SWAP4 SWAP3 POP POP POP JUMP JUMPDEST PUSH0 DUP3 PUSH1 0x1F DUP4 ADD SLT PUSH2 0x328C JUMPI PUSH2 0x328B PUSH2 0x2CF9 JUMP JUMPDEST JUMPDEST DUP2 CALLDATALOAD PUSH2 0x329C DUP5 DUP3 PUSH1 0x20 DUP7 ADD PUSH2 0x3237 JUMP JUMPDEST SWAP2 POP POP SWAP3 SWAP2 POP POP JUMP JUMPDEST PUSH0 DUP1 PUSH0 DUP1 PUSH1 0x80 DUP6 DUP8 SUB SLT ISZERO PUSH2 0x32BD JUMPI PUSH2 0x32BC PUSH2 0x29ED JUMP JUMPDEST JUMPDEST PUSH0 PUSH2 0x32CA DUP8 DUP3 DUP9 ADD PUSH2 0x2C04 JUMP JUMPDEST SWAP5 POP POP PUSH1 0x20 PUSH2 0x32DB DUP8 DUP3 DUP9 ADD PUSH2 0x2C04 JUMP JUMPDEST SWAP4 POP POP PUSH1 0x40 PUSH2 0x32EC DUP8 DUP3 DUP9 ADD PUSH2 0x2B57 JUMP JUMPDEST SWAP3 POP POP PUSH1 0x60 DUP6 ADD CALLDATALOAD PUSH8 0xFFFFFFFFFFFFFFFF DUP2 GT ISZERO PUSH2 0x330D JUMPI PUSH2 0x330C PUSH2 0x29F1 JUMP JUMPDEST JUMPDEST PUSH2 0x3319 DUP8 DUP3 DUP9 ADD PUSH2 0x3278 JUMP JUMPDEST SWAP2 POP POP SWAP3 SWAP6 SWAP2 SWAP5 POP SWAP3 POP JUMP JUMPDEST PUSH1 0x80 DUP3 ADD PUSH0 DUP3 ADD MLOAD PUSH2 0x3339 PUSH0 DUP6 ADD DUP3 PUSH2 0x2DCE JUMP JUMPDEST POP PUSH1 0x20 DUP3 ADD MLOAD PUSH2 0x334C PUSH1 0x20 DUP6 ADD DUP3 PUSH2 0x2DF0 JUMP JUMPDEST POP PUSH1 0x40 DUP3 ADD MLOAD PUSH2 0x335F PUSH1 0x40 DUP6 ADD DUP3 PUSH2 0x2DFF JUMP JUMPDEST POP PUSH1 0x60 DUP3 ADD MLOAD PUSH2 0x3372 PUSH1 0x60 DUP6 ADD DUP3 PUSH2 0x2E1C JUMP JUMPDEST POP POP POP POP JUMP JUMPDEST PUSH0 PUSH1 0x80 DUP3 ADD SWAP1 POP PUSH2 0x338B PUSH0 DUP4 ADD DUP5 PUSH2 0x3325 JUMP JUMPDEST SWAP3 SWAP2 POP POP JUMP JUMPDEST PUSH0 DUP1 PUSH1 0x40 DUP4 DUP6 SUB SLT ISZERO PUSH2 0x33A7 JUMPI PUSH2 0x33A6 PUSH2 0x29ED JUMP JUMPDEST JUMPDEST PUSH0 PUSH2 0x33B4 DUP6 DUP3 DUP7 ADD PUSH2 0x2C04 JUMP JUMPDEST SWAP3 POP POP PUSH1 0x20 PUSH2 0x33C5 DUP6 DUP3 DUP7 ADD PUSH2 0x2C04 JUMP JUMPDEST SWAP2 POP POP SWAP3 POP SWAP3 SWAP1 POP JUMP JUMPDEST PUSH32 0x4E487B7100000000000000000000000000000000000000000000000000000000 PUSH0 MSTORE PUSH1 0x22 PUSH1 0x4 MSTORE PUSH1 0x24 PUSH0 REVERT JUMPDEST PUSH0 PUSH1 0x2 DUP3 DIV SWAP1 POP PUSH1 0x1 DUP3 AND DUP1 PUSH2 0x3413 JUMPI PUSH1 0x7F DUP3 AND SWAP2 POP JUMPDEST PUSH1 0x20 DUP3 LT DUP2 SUB PUSH2 0x3426 JUMPI PUSH2 0x3425 PUSH2 0x33CF JUMP JUMPDEST JUMPDEST POP SWAP2 SWAP1 POP JUMP JUMPDEST PUSH32 0x5245454E5452414E435900000000000000000000000000000000000000000000 PUSH0 DUP3 ADD MSTORE POP JUMP JUMPDEST PUSH0 PUSH2 0x3460 PUSH1 0xA DUP4 PUSH2 0x2AB2 JUMP JUMPDEST SWAP2 POP PUSH2 0x346B DUP3 PUSH2 0x342C JUMP JUMPDEST PUSH1 0x20 DUP3 ADD SWAP1 POP SWAP2 SWAP1 POP JUMP JUMPDEST PUSH0 PUSH1 0x20 DUP3 ADD SWAP1 POP DUP2 DUP2 SUB PUSH0 DUP4 ADD MSTORE PUSH2 0x348D DUP2 PUSH2 0x3454 JUMP JUMPDEST SWAP1 POP SWAP2 SWAP1 POP JUMP JUMPDEST PUSH32 0x4E487B7100000000000000000000000000000000000000000000000000000000 PUSH0 MSTORE PUSH1 0x11 PUSH1 0x4 MSTORE PUSH1 0x24 PUSH0 REVERT JUMPDEST PUSH0 PUSH2 0x34CB DUP3 PUSH2 0x2B38 JUMP JUMPDEST SWAP2 POP PUSH2 0x34D6 DUP4 PUSH2 0x2B38 JUMP JUMPDEST SWAP3 POP DUP3 DUP3 ADD SWAP1 POP DUP1 DUP3 GT ISZERO PUSH2 0x34EE JUMPI PUSH2 0x34ED PUSH2 0x3494 JUMP JUMPDEST JUMPDEST SWAP3 SWAP2 POP POP JUMP JUMPDEST PUSH0 PUSH2 0x34FE DUP3 PUSH2 0x2B38 JUMP JUMPDEST SWAP2 POP PUSH2 0x3509 DUP4 PUSH2 0x2B38 JUMP JUMPDEST SWAP3 POP DUP3 DUP3 MUL PUSH2 0x3517 DUP2 PUSH2 0x2B38 JUMP JUMPDEST SWAP2 POP DUP3 DUP3 DIV DUP5 EQ DUP4 ISZERO OR PUSH2 0x352E JUMPI PUSH2 0x352D PUSH2 0x3494 JUMP JUMPDEST JUMPDEST POP SWAP3 SWAP2 POP POP JUMP JUMPDEST PUSH0 PUSH2 0x353F DUP3 PUSH2 0x2B38 JUMP JUMPDEST SWAP2 POP PUSH2 0x354A DUP4 PUSH2 0x2B38 JUMP JUMPDEST SWAP3 POP DUP3 DUP3 SUB SWAP1 POP DUP2 DUP2 GT ISZERO PUSH2 0x3562 JUMPI PUSH2 0x3561 PUSH2 0x3494 JUMP JUMPDEST JUMPDEST SWAP3 SWAP2 POP POP JUMP JUMPDEST PUSH0 DUP2 SWAP1 POP SWAP2 SWAP1 POP JUMP JUMPDEST PUSH2 0x3582 PUSH2 0x357D DUP3 PUSH2 0x2FBD JUMP JUMPDEST PUSH2 0x3568 JUMP JUMPDEST DUP3 MSTORE POP POP JUMP JUMPDEST PUSH0 DUP2 SWAP1 POP SWAP2 SWAP1 POP JUMP JUMPDEST PUSH2 0x35A2 PUSH2 0x359D DUP3 PUSH2 0x2B38 JUMP JUMPDEST PUSH2 0x3588 JUMP JUMPDEST DUP3 MSTORE POP POP JUMP JUMPDEST PUSH0 PUSH2 0x35B3 DUP3 DUP6 PUSH2 0x3571 JUMP JUMPDEST PUSH1 0x20 DUP3 ADD SWAP2 POP PUSH2 0x35C3 DUP3 DUP5 PUSH2 0x3591 JUMP JUMPDEST PUSH1 0x20 DUP3 ADD SWAP2 POP DUP2 SWAP1 POP SWAP4 SWAP3 POP POP POP JUMP JUMPDEST PUSH0 PUSH2 0x35DD DUP3 PUSH2 0x2B38 JUMP JUMPDEST SWAP2 POP PUSH32 0xFFFFFFFFFFFFFFFFFFFFFFFFFFFFFFFFFFFFFFFFFFFFFFFFFFFFFFFFFFFFFFFF DUP3 SUB PUSH2 0x360F JUMPI PUSH2 0x360E PUSH2 0x3494 JUMP JUMPDEST JUMPDEST PUSH1 0x1 DUP3 ADD SWAP1 POP SWAP2 SWAP1 POP JUMP JUMPDEST PUSH32 0x554E415554484F52495A45440000000000000000000000000000000000000000 PUSH0 DUP3 ADD MSTORE POP JUMP JUMPDEST PUSH0 PUSH2 0x364E PUSH1 0xC DUP4 PUSH2 0x2AB2 JUMP JUMPDEST SWAP2 POP PUSH2 0x3659 DUP3 PUSH2 0x361A JUMP JUMPDEST PUSH1 0x20 DUP3 ADD SWAP1 POP SWAP2 SWAP1 POP JUMP JUMPDEST PUSH0 PUSH1 0x20 DUP3 ADD SWAP1 POP DUP2 DUP2 SUB PUSH0 DUP4 ADD MSTORE PUSH2 0x367B DUP2 PUSH2 0x3642 JUMP JUMPDEST SWAP1 POP SWAP2 SWAP1 POP JUMP JUMPDEST PUSH0 DUP2 SWAP1 POP SWAP3 SWAP2 POP POP JUMP JUMPDEST POP JUMP JUMPDEST PUSH0 PUSH2 0x369A PUSH0 DUP4 PUSH2 0x3682 JUMP JUMPDEST SWAP2 POP PUSH2 0x36A5 DUP3 PUSH2 0x368C JUMP JUMPDEST PUSH0 DUP3 ADD SWAP1 POP SWAP2 SWAP1 POP JUMP JUMPDEST PUSH0 PUSH2 0x36B9 DUP3 PUSH2 0x368F JUMP JUMPDEST SWAP2 POP DUP2 SWAP1 POP SWAP2 SWAP1 POP JUMP JUMPDEST PUSH32 0x5472616E73666572206661696C65642E00000000000000000000000000000000 PUSH0 DUP3 ADD MSTORE POP JUMP JUMPDEST PUSH0 PUSH2 0x36F7 PUSH1 0x10 DUP4 PUSH2 0x2AB2 JUMP JUMPDEST SWAP2 POP PUSH2 0x3702 DUP3 PUSH2 0x36C3 JUMP JUMPDEST PUSH1 0x20 DUP3 ADD SWAP1 POP SWAP2 SWAP1 POP JUMP JUMPDEST PUSH0 PUSH1 0x20 DUP3 ADD SWAP1 POP DUP2 DUP2 SUB PUSH0 DUP4 ADD MSTORE PUSH2 0x3724 DUP2 PUSH2 0x36EB JUMP JUMPDEST SWAP1 POP SWAP2 SWAP1 POP JUMP JUMPDEST PUSH32 0x436F6E74726F6C6C6572204F6E6C790000000000000000000000000000000000 PUSH0 DUP3 ADD MSTORE POP JUMP JUMPDEST PUSH0 PUSH2 0x375F PUSH1 0xF DUP4 PUSH2 0x2AB2 JUMP JUMPDEST SWAP2 POP PUSH2 0x376A DUP3 PUSH2 0x372B JUMP JUMPDEST PUSH1 0x20 DUP3 ADD SWAP1 POP SWAP2 SWAP1 POP JUMP JUMPDEST PUSH0 PUSH1 0x20 DUP3 ADD SWAP1 POP DUP2 DUP2 SUB PUSH0 DUP4 ADD MSTORE PUSH2 0x378C DUP2 PUSH2 0x3753 JUMP JUMPDEST SWAP1 POP SWAP2 SWAP1 POP JUMP JUMPDEST PUSH32 0x4E487B7100000000000000000000000000000000000000000000000000000000 PUSH0 MSTORE PUSH1 0x32 PUSH1 0x4 MSTORE PUSH1 0x24 PUSH0 REVERT JUMPDEST PUSH32 0x4E6F74206F6E2077686974656C69737400000000000000000000000000000000 PUSH0 DUP3 ADD MSTORE POP JUMP JUMPDEST PUSH0 PUSH2 0x37F4 PUSH1 0x10 DUP4 PUSH2 0x2AB2 JUMP JUMPDEST SWAP2 POP PUSH2 0x37FF DUP3 PUSH2 0x37C0 JUMP JUMPDEST PUSH1 0x20 DUP3 ADD SWAP1 POP SWAP2 SWAP1 POP JUMP JUMPDEST PUSH0 PUSH1 0x20 DUP3 ADD SWAP1 POP DUP2 DUP2 SUB PUSH0 DUP4 ADD MSTORE PUSH2 0x3821 DUP2 PUSH2 0x37E8 JUMP JUMPDEST SWAP1 POP SWAP2 SWAP1 POP JUMP JUMPDEST PUSH32 0x6F6E6C79206F6E65206672656520506570650000000000000000000000000000 PUSH0 DUP3 ADD MSTORE POP JUMP JUMPDEST PUSH0 PUSH2 0x385C PUSH1 0x12 DUP4 PUSH2 0x2AB2 JUMP JUMPDEST SWAP2 POP PUSH2 0x3867 DUP3 PUSH2 0x3828 JUMP JUMPDEST PUSH1 0x20 DUP3 ADD SWAP1 POP SWAP2 SWAP1 POP JUMP JUMPDEST PUSH0 PUSH1 0x20 DUP3 ADD SWAP1 POP DUP2 DUP2 SUB PUSH0 DUP4 ADD MSTORE PUSH2 0x3889 DUP2 PUSH2 0x3850 JUMP JUMPDEST SWAP1 POP SWAP2 SWAP1 POP JUMP JUMPDEST PUSH0 PUSH1 0x40 DUP3 ADD SWAP1 POP PUSH2 0x38A3 PUSH0 DUP4 ADD DUP6 PUSH2 0x2C56 JUMP JUMPDEST PUSH2 0x38B0 PUSH1 0x20 DUP4 ADD DUP5 PUSH2 0x2FC6 JUMP JUMPDEST SWAP4 SWAP3 POP POP POP JUMP JUMPDEST PUSH0 PUSH8 0xFFFFFFFFFFFFFFFF DUP3 GT ISZERO PUSH2 0x38D1 JUMPI PUSH2 0x38D0 PUSH2 0x3181 JUMP JUMPDEST JUMPDEST PUSH2 0x38DA DUP3 PUSH2 0x2AD0 JUMP JUMPDEST SWAP1 POP PUSH1 0x20 DUP2 ADD SWAP1 POP SWAP2 SWAP1 POP JUMP JUMPDEST PUSH0 PUSH2 0x38F9 PUSH2 0x38F4 DUP5 PUSH2 0x38B7 JUMP JUMPDEST PUSH2 0x31DF JUMP JUMPDEST SWAP1 POP DUP3 DUP2 MSTORE PUSH1 0x20 DUP2 ADD DUP5 DUP5 DUP5 ADD GT ISZERO PUSH2 0x3915 JUMPI PUSH2 0x3914 PUSH2 0x317D JUMP JUMPDEST JUMPDEST PUSH2 0x3920 DUP5 DUP3 DUP6 PUSH2 0x2AC2 JUMP JUMPDEST POP SWAP4 SWAP3 POP POP POP JUMP JUMPDEST PUSH0 DUP3 PUSH1 0x1F DUP4 ADD SLT PUSH2 0x393C JUMPI PUSH2 0x393B PUSH2 0x2CF9 JUMP JUMPDEST JUMPDEST DUP2 MLOAD PUSH2 0x394C DUP5 DUP3 PUSH1 0x20 DUP7 ADD PUSH2 0x38E7 JUMP JUMPDEST SWAP2 POP POP SWAP3 SWAP2 POP POP JUMP JUMPDEST PUSH0 PUSH1 0x20 DUP3 DUP5 SUB SLT ISZERO PUSH2 0x396A JUMPI PUSH2 0x3969 PUSH2 0x29ED JUMP JUMPDEST JUMPDEST PUSH0 DUP3 ADD MLOAD PUSH8 0xFFFFFFFFFFFFFFFF DUP2 GT ISZERO PUSH2 0x3987 JUMPI PUSH2 0x3986 PUSH2 0x29F1 JUMP JUMPDEST JUMPDEST PUSH2 0x3993 DUP5 DUP3 DUP6 ADD PUSH2 0x3928 JUMP JUMPDEST SWAP2 POP POP SWAP3 SWAP2 POP POP JUMP JUMPDEST PUSH0 PUSH2 0x39A6 DUP3 PUSH2 0x2B38 JUMP JUMPDEST SWAP2 POP PUSH0 DUP3 SUB PUSH2 0x39B8 JUMPI PUSH2 0x39B7 PUSH2 0x3494 JUMP JUMPDEST JUMPDEST PUSH1 0x1 DUP3 SUB SWAP1 POP SWAP2 SWAP1 POP JUMP JUMPDEST PUSH0 DUP2 MLOAD SWAP1 POP SWAP2 SWAP1 POP JUMP JUMPDEST PUSH0 DUP3 DUP3 MSTORE PUSH1 0x20 DUP3 ADD SWAP1 POP SWAP3 SWAP2 POP POP JUMP JUMPDEST PUSH0 PUSH2 0x39E7 DUP3 PUSH2 0x39C3 JUMP JUMPDEST PUSH2 0x39F1 DUP2 DUP6 PUSH2 0x39CD JUMP JUMPDEST SWAP4 POP PUSH2 0x3A01 DUP2 DUP6 PUSH1 0x20 DUP7 ADD PUSH2 0x2AC2 JUMP JUMPDEST PUSH2 0x3A0A DUP2 PUSH2 0x2AD0 JUMP JUMPDEST DUP5 ADD SWAP2 POP POP SWAP3 SWAP2 POP POP JUMP JUMPDEST PUSH0 PUSH1 0x80 DUP3 ADD SWAP1 POP PUSH2 0x3A28 PUSH0 DUP4 ADD DUP8 PUSH2 0x2BC6 JUMP JUMPDEST PUSH2 0x3A35 PUSH1 0x20 DUP4 ADD DUP7 PUSH2 0x2BC6 JUMP JUMPDEST PUSH2 0x3A42 PUSH1 0x40 DUP4 ADD DUP6 PUSH2 0x2C56 JUMP JUMPDEST DUP2 DUP2 SUB PUSH1 0x60 DUP4 ADD MSTORE PUSH2 0x3A54 DUP2 DUP5 PUSH2 0x39DD JUMP JUMPDEST SWAP1 POP SWAP6 SWAP5 POP POP POP POP POP JUMP JUMPDEST PUSH0 DUP2 MLOAD SWAP1 POP PUSH2 0x3A6D DUP2 PUSH2 0x2A20 JUMP JUMPDEST SWAP3 SWAP2 POP POP JUMP JUMPDEST PUSH0 PUSH1 0x20 DUP3 DUP5 SUB SLT ISZERO PUSH2 0x3A88 JUMPI PUSH2 0x3A87 PUSH2 0x29ED JUMP JUMPDEST JUMPDEST PUSH0 PUSH2 0x3A95 DUP5 DUP3 DUP6 ADD PUSH2 0x3A5F JUMP JUMPDEST SWAP2 POP POP SWAP3 SWAP2 POP POP JUMP INVALID LOG2 PUSH5 0x6970667358 0x22 SLT KECCAK256 SELFDESTRUCT MCOPY 0xA6 0x1F SWAP11 ISZERO 0xBC TLOAD PUSH0 0xDA 0x29 0xAD PUSH24 0x73BD82690B12D3421FD20346C5BBCCE9764D8164736F6C63 NUMBER STOP ADDMOD BYTE STOP CALLER "
		},
		"gasEstimates": {
			"creation": {
				"codeDepositCost": "3012000",
				"executionCost": "infinite",
				"totalCost": "infinite"
			},
			"external": {
				"MAX_FREE()": "2513",
				"MAX_SUPPLY()": "2559",
				"MINT_COST()": "2514",
				"addToWhiteList(address[])": "infinite",
				"amountMinted(address)": "2914",
				"approve(address,uint256)": "infinite",
				"balanceOf(address)": "3003",
				"changelistController(address)": "27018",
				"explicitOwnershipOf(uint256)": "infinite",
				"explicitOwnershipsOf(uint256[])": "infinite",
				"freeMint(uint256)": "infinite",
				"freePepes(address)": "2868",
				"freePhaseActive()": "2511",
				"getApproved(uint256)": "infinite",
				"isApprovedForAll(address,address)": "infinite",
				"listController()": "2554",
				"name()": "infinite",
				"owner()": "2553",
				"ownerOf(uint256)": "infinite",
				"publicMint(uint256)": "infinite",
				"publicPhaseActive()": "2585",
				"safeTransferFrom(address,address,uint256)": "infinite",
				"safeTransferFrom(address,address,uint256,bytes)": "infinite",
				"setApprovalForAll(address,bool)": "infinite",
				"supportsInterface(bytes4)": "759",
				"symbol()": "infinite",
				"toggleFreeMinting()": "28761",
				"togglePublicMinting()": "28929",
				"tokenIdToSeed(uint256)": "2822",
				"tokenURI(uint256)": "infinite",
				"tokensOfOwner(address)": "infinite",
				"tokensOfOwnerIn(address,uint256,uint256)": "infinite",
				"totalSupply()": "4680",
				"transferFrom(address,address,uint256)": "infinite",
				"transferOwnership(address)": "28538",
				"whiteListed(address)": "2965",
				"whitelistPhaseActive()": "2650",
				"withdraw()": "infinite"
			},
			"internal": {
				"_startTokenId()": "22"
			}
		},
		"methodIdentifiers": {
			"MAX_FREE()": "ed6661c2",
			"MAX_SUPPLY()": "32cb6b0c",
			"MINT_COST()": "c662e481",
			"addToWhiteList(address[])": "740d73f3",
			"amountMinted(address)": "438a67e7",
			"approve(address,uint256)": "095ea7b3",
			"balanceOf(address)": "70a08231",
			"changelistController(address)": "481231a5",
			"explicitOwnershipOf(uint256)": "c23dc68f",
			"explicitOwnershipsOf(uint256[])": "5bbb2177",
			"freeMint(uint256)": "7c928fe9",
			"freePepes(address)": "ea994530",
			"freePhaseActive()": "beb81891",
			"getApproved(uint256)": "081812fc",
			"isApprovedForAll(address,address)": "e985e9c5",
			"listController()": "367b2a20",
			"name()": "06fdde03",
			"owner()": "8da5cb5b",
			"ownerOf(uint256)": "6352211e",
			"publicMint(uint256)": "2db11544",
			"publicPhaseActive()": "187e0f17",
			"safeTransferFrom(address,address,uint256)": "42842e0e",
			"safeTransferFrom(address,address,uint256,bytes)": "b88d4fde",
			"setApprovalForAll(address,bool)": "a22cb465",
			"supportsInterface(bytes4)": "01ffc9a7",
			"symbol()": "95d89b41",
			"toggleFreeMinting()": "4a7d3e81",
			"togglePublicMinting()": "6b8a21fc",
			"tokenIdToSeed(uint256)": "75e91691",
			"tokenURI(uint256)": "c87b56dd",
			"tokensOfOwner(address)": "8462151c",
			"tokensOfOwnerIn(address,uint256,uint256)": "99a2557a",
			"totalSupply()": "18160ddd",
			"transferFrom(address,address,uint256)": "23b872dd",
			"transferOwnership(address)": "f2fde38b",
			"whiteListed(address)": "fa0fca84",
			"whitelistPhaseActive()": "d12f743a",
			"withdraw()": "3ccfd60b"
		}
	},
	"abi": [
		{
			"inputs": [
				{
					"internalType": "address",
					"name": "_renderer",
					"type": "address"
				}
			],
			"stateMutability": "nonpayable",
			"type": "constructor"
		},
		{
			"inputs": [],
			"name": "AmountExceedsAvailableSupply",
			"type": "error"
		},
		{
			"inputs": [],
			"name": "AmountRequired",
			"type": "error"
		},
		{
			"inputs": [],
			"name": "ApprovalCallerNotOwnerNorApproved",
			"type": "error"
		},
		{
			"inputs": [],
			"name": "ApprovalQueryForNonexistentToken",
			"type": "error"
		},
		{
			"inputs": [],
			"name": "BalanceQueryForZeroAddress",
			"type": "error"
		},
		{
			"inputs": [],
			"name": "InsufficientFunds",
			"type": "error"
		},
		{
			"inputs": [],
			"name": "InvalidQueryRange",
			"type": "error"
		},
		{
			"inputs": [],
			"name": "MaxMintWouldBeExceeded",
			"type": "error"
		},
		{
			"inputs": [],
			"name": "MintERC2309QuantityExceedsLimit",
			"type": "error"
		},
		{
			"inputs": [],
			"name": "MintToZeroAddress",
			"type": "error"
		},
		{
			"inputs": [],
			"name": "MintZeroQuantity",
			"type": "error"
		},
		{
			"inputs": [],
			"name": "NotCompatibleWithSpotMints",
			"type": "error"
		},
		{
			"inputs": [],
			"name": "OnlyOneFreeMint",
			"type": "error"
		},
		{
			"inputs": [],
			"name": "OwnerQueryForNonexistentToken",
			"type": "error"
		},
		{
			"inputs": [],
			"name": "OwnershipNotInitializedForExtraData",
			"type": "error"
		},
		{
			"inputs": [],
			"name": "SequentialMintExceedsLimit",
			"type": "error"
		},
		{
			"inputs": [],
			"name": "SequentialUpToTooSmall",
			"type": "error"
		},
		{
			"inputs": [],
			"name": "SoldOut",
			"type": "error"
		},
		{
			"inputs": [],
			"name": "SpotMintTokenIdTooSmall",
			"type": "error"
		},
		{
			"inputs": [],
			"name": "TokenAlreadyExists",
			"type": "error"
		},
		{
			"inputs": [],
			"name": "TransferCallerNotOwnerNorApproved",
			"type": "error"
		},
		{
			"inputs": [],
			"name": "TransferFromIncorrectOwner",
			"type": "error"
		},
		{
			"inputs": [],
			"name": "TransferToNonERC721ReceiverImplementer",
			"type": "error"
		},
		{
			"inputs": [],
			"name": "TransferToZeroAddress",
			"type": "error"
		},
		{
			"inputs": [],
			"name": "URIQueryForNonexistentToken",
			"type": "error"
		},
		{
			"anonymous": false,
			"inputs": [
				{
					"indexed": true,
					"internalType": "address",
					"name": "owner",
					"type": "address"
				},
				{
					"indexed": true,
					"internalType": "address",
					"name": "approved",
					"type": "address"
				},
				{
					"indexed": true,
					"internalType": "uint256",
					"name": "tokenId",
					"type": "uint256"
				}
			],
			"name": "Approval",
			"type": "event"
		},
		{
			"anonymous": false,
			"inputs": [
				{
					"indexed": true,
					"internalType": "address",
					"name": "owner",
					"type": "address"
				},
				{
					"indexed": true,
					"internalType": "address",
					"name": "operator",
					"type": "address"
				},
				{
					"indexed": false,
					"internalType": "bool",
					"name": "approved",
					"type": "bool"
				}
			],
			"name": "ApprovalForAll",
			"type": "event"
		},
		{
			"anonymous": false,
			"inputs": [
				{
					"indexed": true,
					"internalType": "uint256",
					"name": "fromTokenId",
					"type": "uint256"
				},
				{
					"indexed": false,
					"internalType": "uint256",
					"name": "toTokenId",
					"type": "uint256"
				},
				{
					"indexed": true,
					"internalType": "address",
					"name": "from",
					"type": "address"
				},
				{
					"indexed": true,
					"internalType": "address",
					"name": "to",
					"type": "address"
				}
			],
			"name": "ConsecutiveTransfer",
			"type": "event"
		},
		{
			"anonymous": false,
			"inputs": [
				{
					"indexed": true,
					"internalType": "address",
					"name": "user",
					"type": "address"
				},
				{
					"indexed": true,
					"internalType": "address",
					"name": "newOwner",
					"type": "address"
				}
			],
			"name": "OwnershipTransferred",
			"type": "event"
		},
		{
			"anonymous": false,
			"inputs": [
				{
					"indexed": false,
					"internalType": "address",
					"name": "from",
					"type": "address"
				},
				{
					"indexed": false,
					"internalType": "uint256",
					"name": "amount",
					"type": "uint256"
				}
			],
			"name": "PaymentReceived",
			"type": "event"
		},
		{
			"anonymous": false,
			"inputs": [
				{
					"indexed": true,
					"internalType": "address",
					"name": "from",
					"type": "address"
				},
				{
					"indexed": true,
					"internalType": "address",
					"name": "to",
					"type": "address"
				},
				{
					"indexed": true,
					"internalType": "uint256",
					"name": "tokenId",
					"type": "uint256"
				}
			],
			"name": "Transfer",
			"type": "event"
		},
		{
			"inputs": [],
			"name": "MAX_FREE",
			"outputs": [
				{
					"internalType": "uint256",
					"name": "",
					"type": "uint256"
				}
			],
			"stateMutability": "view",
			"type": "function"
		},
		{
			"inputs": [],
			"name": "MAX_SUPPLY",
			"outputs": [
				{
					"internalType": "uint256",
					"name": "",
					"type": "uint256"
				}
			],
			"stateMutability": "view",
			"type": "function"
		},
		{
			"inputs": [],
			"name": "MINT_COST",
			"outputs": [
				{
					"internalType": "uint256",
					"name": "",
					"type": "uint256"
				}
			],
			"stateMutability": "view",
			"type": "function"
		},
		{
			"inputs": [
				{
					"internalType": "address[]",
					"name": "addresses",
					"type": "address[]"
				}
			],
			"name": "addToWhiteList",
			"outputs": [],
			"stateMutability": "nonpayable",
			"type": "function"
		},
		{
			"inputs": [
				{
					"internalType": "address",
					"name": "",
					"type": "address"
				}
			],
			"name": "amountMinted",
			"outputs": [
				{
					"internalType": "uint256",
					"name": "",
					"type": "uint256"
				}
			],
			"stateMutability": "view",
			"type": "function"
		},
		{
			"inputs": [
				{
					"internalType": "address",
					"name": "to",
					"type": "address"
				},
				{
					"internalType": "uint256",
					"name": "tokenId",
					"type": "uint256"
				}
			],
			"name": "approve",
			"outputs": [],
			"stateMutability": "payable",
			"type": "function"
		},
		{
			"inputs": [
				{
					"internalType": "address",
					"name": "owner",
					"type": "address"
				}
			],
			"name": "balanceOf",
			"outputs": [
				{
					"internalType": "uint256",
					"name": "",
					"type": "uint256"
				}
			],
			"stateMutability": "view",
			"type": "function"
		},
		{
			"inputs": [
				{
					"internalType": "address",
					"name": "_address",
					"type": "address"
				}
			],
			"name": "changelistController",
			"outputs": [],
			"stateMutability": "nonpayable",
			"type": "function"
		},
		{
			"inputs": [
				{
					"internalType": "uint256",
					"name": "tokenId",
					"type": "uint256"
				}
			],
			"name": "explicitOwnershipOf",
			"outputs": [
				{
					"components": [
						{
							"internalType": "address",
							"name": "addr",
							"type": "address"
						},
						{
							"internalType": "uint64",
							"name": "startTimestamp",
							"type": "uint64"
						},
						{
							"internalType": "bool",
							"name": "burned",
							"type": "bool"
						},
						{
							"internalType": "uint24",
							"name": "extraData",
							"type": "uint24"
						}
					],
					"internalType": "struct IERC721A.TokenOwnership",
					"name": "ownership",
					"type": "tuple"
				}
			],
			"stateMutability": "view",
			"type": "function"
		},
		{
			"inputs": [
				{
					"internalType": "uint256[]",
					"name": "tokenIds",
					"type": "uint256[]"
				}
			],
			"name": "explicitOwnershipsOf",
			"outputs": [
				{
					"components": [
						{
							"internalType": "address",
							"name": "addr",
							"type": "address"
						},
						{
							"internalType": "uint64",
							"name": "startTimestamp",
							"type": "uint64"
						},
						{
							"internalType": "bool",
							"name": "burned",
							"type": "bool"
						},
						{
							"internalType": "uint24",
							"name": "extraData",
							"type": "uint24"
						}
					],
					"internalType": "struct IERC721A.TokenOwnership[]",
					"name": "",
					"type": "tuple[]"
				}
			],
			"stateMutability": "view",
			"type": "function"
		},
		{
			"inputs": [
				{
					"internalType": "uint256",
					"name": "amount",
					"type": "uint256"
				}
			],
			"name": "freeMint",
			"outputs": [],
			"stateMutability": "nonpayable",
			"type": "function"
		},
		{
			"inputs": [
				{
					"internalType": "address",
					"name": "",
					"type": "address"
				}
			],
			"name": "freePepes",
			"outputs": [
				{
					"internalType": "uint256",
					"name": "",
					"type": "uint256"
				}
			],
			"stateMutability": "view",
			"type": "function"
		},
		{
			"inputs": [],
			"name": "freePhaseActive",
			"outputs": [
				{
					"internalType": "bool",
					"name": "",
					"type": "bool"
				}
			],
			"stateMutability": "view",
			"type": "function"
		},
		{
			"inputs": [
				{
					"internalType": "uint256",
					"name": "tokenId",
					"type": "uint256"
				}
			],
			"name": "getApproved",
			"outputs": [
				{
					"internalType": "address",
					"name": "",
					"type": "address"
				}
			],
			"stateMutability": "view",
			"type": "function"
		},
		{
			"inputs": [
				{
					"internalType": "address",
					"name": "owner",
					"type": "address"
				},
				{
					"internalType": "address",
					"name": "operator",
					"type": "address"
				}
			],
			"name": "isApprovedForAll",
			"outputs": [
				{
					"internalType": "bool",
					"name": "",
					"type": "bool"
				}
			],
			"stateMutability": "view",
			"type": "function"
		},
		{
			"inputs": [],
			"name": "listController",
			"outputs": [
				{
					"internalType": "address",
					"name": "",
					"type": "address"
				}
			],
			"stateMutability": "view",
			"type": "function"
		},
		{
			"inputs": [],
			"name": "name",
			"outputs": [
				{
					"internalType": "string",
					"name": "",
					"type": "string"
				}
			],
			"stateMutability": "view",
			"type": "function"
		},
		{
			"inputs": [],
			"name": "owner",
			"outputs": [
				{
					"internalType": "address",
					"name": "",
					"type": "address"
				}
			],
			"stateMutability": "view",
			"type": "function"
		},
		{
			"inputs": [
				{
					"internalType": "uint256",
					"name": "tokenId",
					"type": "uint256"
				}
			],
			"name": "ownerOf",
			"outputs": [
				{
					"internalType": "address",
					"name": "",
					"type": "address"
				}
			],
			"stateMutability": "view",
			"type": "function"
		},
		{
			"inputs": [
				{
					"internalType": "uint256",
					"name": "amount",
					"type": "uint256"
				}
			],
			"name": "publicMint",
			"outputs": [],
			"stateMutability": "payable",
			"type": "function"
		},
		{
			"inputs": [],
			"name": "publicPhaseActive",
			"outputs": [
				{
					"internalType": "bool",
					"name": "",
					"type": "bool"
				}
			],
			"stateMutability": "view",
			"type": "function"
		},
		{
			"inputs": [
				{
					"internalType": "address",
					"name": "from",
					"type": "address"
				},
				{
					"internalType": "address",
					"name": "to",
					"type": "address"
				},
				{
					"internalType": "uint256",
					"name": "tokenId",
					"type": "uint256"
				}
			],
			"name": "safeTransferFrom",
			"outputs": [],
			"stateMutability": "payable",
			"type": "function"
		},
		{
			"inputs": [
				{
					"internalType": "address",
					"name": "from",
					"type": "address"
				},
				{
					"internalType": "address",
					"name": "to",
					"type": "address"
				},
				{
					"internalType": "uint256",
					"name": "tokenId",
					"type": "uint256"
				},
				{
					"internalType": "bytes",
					"name": "_data",
					"type": "bytes"
				}
			],
			"name": "safeTransferFrom",
			"outputs": [],
			"stateMutability": "payable",
			"type": "function"
		},
		{
			"inputs": [
				{
					"internalType": "address",
					"name": "operator",
					"type": "address"
				},
				{
					"internalType": "bool",
					"name": "approved",
					"type": "bool"
				}
			],
			"name": "setApprovalForAll",
			"outputs": [],
			"stateMutability": "nonpayable",
			"type": "function"
		},
		{
			"inputs": [
				{
					"internalType": "bytes4",
					"name": "interfaceId",
					"type": "bytes4"
				}
			],
			"name": "supportsInterface",
			"outputs": [
				{
					"internalType": "bool",
					"name": "",
					"type": "bool"
				}
			],
			"stateMutability": "view",
			"type": "function"
		},
		{
			"inputs": [],
			"name": "symbol",
			"outputs": [
				{
					"internalType": "string",
					"name": "",
					"type": "string"
				}
			],
			"stateMutability": "view",
			"type": "function"
		},
		{
			"inputs": [],
			"name": "toggleFreeMinting",
			"outputs": [],
			"stateMutability": "nonpayable",
			"type": "function"
		},
		{
			"inputs": [],
			"name": "togglePublicMinting",
			"outputs": [],
			"stateMutability": "nonpayable",
			"type": "function"
		},
		{
			"inputs": [
				{
					"internalType": "uint256",
					"name": "",
					"type": "uint256"
				}
			],
			"name": "tokenIdToSeed",
			"outputs": [
				{
					"internalType": "bytes32",
					"name": "",
					"type": "bytes32"
				}
			],
			"stateMutability": "view",
			"type": "function"
		},
		{
			"inputs": [
				{
					"internalType": "uint256",
					"name": "tokenId",
					"type": "uint256"
				}
			],
			"name": "tokenURI",
			"outputs": [
				{
					"internalType": "string",
					"name": "",
					"type": "string"
				}
			],
			"stateMutability": "view",
			"type": "function"
		},
		{
			"inputs": [
				{
					"internalType": "address",
					"name": "owner",
					"type": "address"
				}
			],
			"name": "tokensOfOwner",
			"outputs": [
				{
					"internalType": "uint256[]",
					"name": "",
					"type": "uint256[]"
				}
			],
			"stateMutability": "view",
			"type": "function"
		},
		{
			"inputs": [
				{
					"internalType": "address",
					"name": "owner",
					"type": "address"
				},
				{
					"internalType": "uint256",
					"name": "start",
					"type": "uint256"
				},
				{
					"internalType": "uint256",
					"name": "stop",
					"type": "uint256"
				}
			],
			"name": "tokensOfOwnerIn",
			"outputs": [
				{
					"internalType": "uint256[]",
					"name": "",
					"type": "uint256[]"
				}
			],
			"stateMutability": "view",
			"type": "function"
		},
		{
			"inputs": [],
			"name": "totalSupply",
			"outputs": [
				{
					"internalType": "uint256",
					"name": "result",
					"type": "uint256"
				}
			],
			"stateMutability": "view",
			"type": "function"
		},
		{
			"inputs": [
				{
					"internalType": "address",
					"name": "from",
					"type": "address"
				},
				{
					"internalType": "address",
					"name": "to",
					"type": "address"
				},
				{
					"internalType": "uint256",
					"name": "tokenId",
					"type": "uint256"
				}
			],
			"name": "transferFrom",
			"outputs": [],
			"stateMutability": "payable",
			"type": "function"
		},
		{
			"inputs": [
				{
					"internalType": "address",
					"name": "newOwner",
					"type": "address"
				}
			],
			"name": "transferOwnership",
			"outputs": [],
			"stateMutability": "nonpayable",
			"type": "function"
		},
		{
			"inputs": [
				{
					"internalType": "address",
					"name": "",
					"type": "address"
				}
			],
			"name": "whiteListed",
			"outputs": [
				{
					"internalType": "bool",
					"name": "",
					"type": "bool"
				}
			],
			"stateMutability": "view",
			"type": "function"
		},
		{
			"inputs": [],
			"name": "whitelistPhaseActive",
			"outputs": [
				{
					"internalType": "bool",
					"name": "",
					"type": "bool"
				}
			],
			"stateMutability": "view",
			"type": "function"
		},
		{
			"inputs": [],
			"name": "withdraw",
			"outputs": [],
			"stateMutability": "nonpayable",
			"type": "function"
		}
	]
}