{
	"data": {
		"bytecode": {
			"linkReferences": {},
			"object": "60806040526001600a556103e8600c55660aa87bee538000600e556001600f555f60105f6101000a81548160ff0219169083151502179055505f601060016101000a81548160ff0219169083151502179055505f601060026101000a81548160ff021916908315150217905550348015610077575f80fd5b506040516144a33803806144a38339818101604052810190610099919061032a565b336040518060400160405280600981526020017f48616d20506570657300000000000000000000000000000000000000000000008152506040518060400160405280600581526020017f48504550450000000000000000000000000000000000000000000000000000008152508160029081610115919061058f565b508060039081610125919061058f565b5061013461029560201b60201c565b5f8190555061014761029560201b60201c565b61015561029d60201b60201c565b10156101725761017163fed8210f60e01b6102c460201b60201c565b5b50508060095f6101000a81548173ffffffffffffffffffffffffffffffffffffffff021916908373ffffffffffffffffffffffffffffffffffffffff1602179055508073ffffffffffffffffffffffffffffffffffffffff165f73ffffffffffffffffffffffffffffffffffffffff167f8be0079c531659141344cd1fd0a4f28419497f9722a3daafe3b4186f6b6457e060405160405180910390a35080600b5f6101000a81548173ffffffffffffffffffffffffffffffffffffffff021916908373ffffffffffffffffffffffffffffffffffffffff1602179055503360145f6101000a81548173ffffffffffffffffffffffffffffffffffffffff021916908373ffffffffffffffffffffffffffffffffffffffff1602179055505061065e565b5f6001905090565b5f7fffffffffffffffffffffffffffffffffffffffffffffffffffffffffffffffff905090565b805f5260045ffd5b5f80fd5b5f73ffffffffffffffffffffffffffffffffffffffff82169050919050565b5f6102f9826102d0565b9050919050565b610309816102ef565b8114610313575f80fd5b50565b5f8151905061032481610300565b92915050565b5f6020828403121561033f5761033e6102cc565b5b5f61034c84828501610316565b91505092915050565b5f81519050919050565b7f4e487b71000000000000000000000000000000000000000000000000000000005f52604160045260245ffd5b7f4e487b71000000000000000000000000000000000000000000000000000000005f52602260045260245ffd5b5f60028204905060018216806103d057607f821691505b6020821081036103e3576103e261038c565b5b50919050565b5f819050815f5260205f209050919050565b5f6020601f8301049050919050565b5f82821b905092915050565b5f600883026104457fffffffffffffffffffffffffffffffffffffffffffffffffffffffffffffffff8261040a565b61044f868361040a565b95508019841693508086168417925050509392505050565b5f819050919050565b5f819050919050565b5f61049361048e61048984610467565b610470565b610467565b9050919050565b5f819050919050565b6104ac83610479565b6104c06104b88261049a565b848454610416565b825550505050565b5f90565b6104d46104c8565b6104df8184846104a3565b505050565b5b81811015610502576104f75f826104cc565b6001810190506104e5565b5050565b601f82111561054757610518816103e9565b610521846103fb565b81016020851015610530578190505b61054461053c856103fb565b8301826104e4565b50505b505050565b5f82821c905092915050565b5f6105675f198460080261054c565b1980831691505092915050565b5f61057f8383610558565b9150826002028217905092915050565b61059882610355565b67ffffffffffffffff8111156105b1576105b061035f565b5b6105bb82546103b9565b6105c6828285610506565b5f60209050601f8311600181146105f7575f84156105e5578287015190505b6105ef8582610574565b865550610656565b601f198416610605866103e9565b5f5b8281101561062c57848901518255600182019150602085019450602081019050610607565b868310156106495784890151610645601f891682610558565b8355505b6001600288020188555050505b505050505050565b613e388061066b5f395ff3fe60806040526004361061023a575f3560e01c806370a082311161012d578063beb81891116100aa578063e985e9c51161006e578063e985e9c514610836578063ea99453014610872578063ed6661c2146108ae578063f2fde38b146108d8578063fa0fca84146109005761023a565b8063beb8189114610740578063c23dc68f1461076a578063c662e481146107a6578063c87b56dd146107d0578063d12f743a1461080c5761023a565b80638da5cb5b116100f15780638da5cb5b1461066c57806395d89b411461069657806399a2557a146106c0578063a22cb465146106fc578063b88d4fde146107245761023a565b806370a0823114610568578063740d73f3146105a457806375e91691146105cc5780637c928fe9146106085780638462151c146106305761023a565b8063367b2a20116101bb5780634a7d3e811161017f5780634a7d3e811461049c5780635bbb2177146104b25780636352211e146104ee5780636b8a21fc1461052a5780636dc41da7146105405761023a565b8063367b2a20146103dc5780633ccfd60b1461040657806342842e0e1461041c578063438a67e714610438578063481231a5146104745761023a565b8063187e0f1711610202578063187e0f171461032657806323b872dd146103505780632db115441461036c578063306d6e871461038857806332cb6b0c146103b25761023a565b806301ffc9a71461023e57806306fdde031461027a578063081812fc146102a4578063095ea7b3146102e057806318160ddd146102fc575b5f80fd5b348015610249575f80fd5b50610264600480360381019061025f9190612cde565b61093c565b6040516102719190612d23565b60405180910390f35b348015610285575f80fd5b5061028e6109cd565b60405161029b9190612dac565b60405180910390f35b3480156102af575f80fd5b506102ca60048036038101906102c59190612dff565b610a5d565b6040516102d79190612e69565b60405180910390f35b6102fa60048036038101906102f59190612eac565b610ab6565b005b348015610307575f80fd5b50610310610ac6565b60405161031d9190612ef9565b60405180910390f35b348015610331575f80fd5b5061033a610b11565b6040516103479190612d23565b60405180910390f35b61036a60048036038101906103659190612f12565b610b24565b005b61038660048036038101906103819190612dff565b610dcf565b005b348015610393575f80fd5b5061039c611106565b6040516103a99190612ef9565b60405180910390f35b3480156103bd575f80fd5b506103c661110c565b6040516103d39190612ef9565b60405180910390f35b3480156103e7575f80fd5b506103f0611112565b6040516103fd9190612e69565b60405180910390f35b348015610411575f80fd5b5061041a611137565b005b61043660048036038101906104319190612f12565b6112c6565b005b348015610443575f80fd5b5061045e60048036038101906104599190612f62565b6112e5565b60405161046b9190612ef9565b60405180910390f35b34801561047f575f80fd5b5061049a60048036038101906104959190612f62565b6112fa565b005b3480156104a7575f80fd5b506104b06113cc565b005b3480156104bd575f80fd5b506104d860048036038101906104d39190612fee565b611485565b6040516104e59190613191565b60405180910390f35b3480156104f9575f80fd5b50610514600480360381019061050f9190612dff565b6114e1565b6040516105219190612e69565b60405180910390f35b348015610535575f80fd5b5061053e6114f2565b005b34801561054b575f80fd5b5061056660048036038101906105619190612dff565b6115ad565b005b348015610573575f80fd5b5061058e60048036038101906105899190612f62565b611765565b60405161059b9190612ef9565b60405180910390f35b3480156105af575f80fd5b506105ca60048036038101906105c59190613206565b6117f9565b005b3480156105d7575f80fd5b506105f260048036038101906105ed9190612dff565b611978565b6040516105ff9190613269565b60405180910390f35b348015610613575f80fd5b5061062e60048036038101906106299190612dff565b61198d565b005b34801561063b575f80fd5b5061065660048036038101906106519190612f62565b611c7e565b6040516106639190613339565b60405180910390f35b348015610677575f80fd5b50610680611cf7565b60405161068d9190612e69565b60405180910390f35b3480156106a1575f80fd5b506106aa611d1c565b6040516106b79190612dac565b60405180910390f35b3480156106cb575f80fd5b506106e660048036038101906106e19190613359565b611dac565b6040516106f39190613339565b60405180910390f35b348015610707575f80fd5b50610722600480360381019061071d91906133d3565b611dc2565b005b61073e60048036038101906107399190613539565b611ec8565b005b34801561074b575f80fd5b50610754611f19565b6040516107619190612d23565b60405180910390f35b348015610775575f80fd5b50610790600480360381019061078b9190612dff565b611f2b565b60405161079d919061360c565b60405180910390f35b3480156107b1575f80fd5b506107ba611fa0565b6040516107c79190612ef9565b60405180910390f35b3480156107db575f80fd5b506107f660048036038101906107f19190612dff565b611fa6565b6040516108039190612dac565b60405180910390f35b348015610817575f80fd5b5061082061205e565b60405161082d9190612d23565b60405180910390f35b348015610841575f80fd5b5061085c60048036038101906108579190613625565b612071565b6040516108699190612d23565b60405180910390f35b34801561087d575f80fd5b5061089860048036038101906108939190612f62565b6120ff565b6040516108a59190612ef9565b60405180910390f35b3480156108b9575f80fd5b506108c2612114565b6040516108cf9190612ef9565b60405180910390f35b3480156108e3575f80fd5b506108fe60048036038101906108f99190612f62565b61211a565b005b34801561090b575f80fd5b5061092660048036038101906109219190612f62565b612246565b6040516109339190612d23565b60405180910390f35b5f6301ffc9a760e01b827bffffffffffffffffffffffffffffffffffffffffffffffffffffffff1916148061099657506380ac58cd60e01b827bffffffffffffffffffffffffffffffffffffffffffffffffffffffff1916145b806109c65750635b5e139f60e01b827bffffffffffffffffffffffffffffffffffffffffffffffffffffffff1916145b9050919050565b6060600280546109dc90613690565b80601f0160208091040260200160405190810160405280929190818152602001828054610a0890613690565b8015610a535780601f10610a2a57610100808354040283529160200191610a53565b820191905f5260205f20905b815481529060010190602001808311610a3657829003601f168201915b5050505050905090565b5f610a6782612263565b610a7c57610a7b63cf4700e460e01b612306565b5b60065f8381526020019081526020015f205f015f9054906101000a900473ffffffffffffffffffffffffffffffffffffffff169050919050565b610ac28282600161230e565b5050565b5f610acf612438565b6001545f54030390507fffffffffffffffffffffffffffffffffffffffffffffffffffffffffffffffff610b01612440565b14610b0e57600854810190505b90565b601060029054906101000a900460ff1681565b5f610b2e82612467565b905073ffffffffffffffffffffffffffffffffffffffff8473ffffffffffffffffffffffffffffffffffffffff161693508373ffffffffffffffffffffffffffffffffffffffff168173ffffffffffffffffffffffffffffffffffffffff1614610ba357610ba263a114810060e01b612306565b5b5f80610bae84612576565b91509150610bc48187610bbf612599565b6125a0565b610bef57610bd986610bd4612599565b612071565b610bee57610bed6359c896be60e01b612306565b5b5b610bfc86868660016125e3565b8015610c06575f82555b60055f8773ffffffffffffffffffffffffffffffffffffffff1673ffffffffffffffffffffffffffffffffffffffff1681526020019081526020015f205f8154600190039190508190555060055f8673ffffffffffffffffffffffffffffffffffffffff1673ffffffffffffffffffffffffffffffffffffffff1681526020019081526020015f205f815460010191905081905550610cce85610caa8888876125e9565b7c020000000000000000000000000000000000000000000000000000000017612610565b60045f8681526020019081526020015f20819055505f7c0200000000000000000000000000000000000000000000000000000000841603610d4a575f6001850190505f60045f8381526020019081526020015f205403610d48575f548114610d47578360045f8381526020019081526020015f20819055505b5b505b5f73ffffffffffffffffffffffffffffffffffffffff8673ffffffffffffffffffffffffffffffffffffffff161690508481887fddf252ad1be2c89b69c2b068fc378daa952ba7f163c4a11628f55a4df523b3ef5f80a45f8103610db957610db863ea553b3460e01b612306565b5b610dc6878787600161263a565b50505050505050565b6001600a5414610e14576040517f08c379a0000000000000000000000000000000000000000000000000000000008152600401610e0b9061370a565b60405180910390fd5b6002600a819055506001601060026101000a81548160ff0219169083151502179055610e75576040517f08c379a0000000000000000000000000000000000000000000000000000000008152600401610e6c90613772565b60405180910390fd5b60048160155f3373ffffffffffffffffffffffffffffffffffffffff1673ffffffffffffffffffffffffffffffffffffffff1681526020019081526020015f2054610ec091906137bd565b1115610ef8576040517f58c7943400000000000000000000000000000000000000000000000000000000815260040160405180910390fd5b8060155f3373ffffffffffffffffffffffffffffffffffffffff1673ffffffffffffffffffffffffffffffffffffffff1681526020019081526020015f205f828254610f4491906137bd565b925050819055505f610f54612640565b9050600c548103610f91576040517f52df9fe500000000000000000000000000000000000000000000000000000000815260040160405180910390fd5b5f8211610fca576040517fd43e607500000000000000000000000000000000000000000000000000000000815260040160405180910390fd5b5f8282610fd791906137bd565b9050600c54811115611015576040517f3ffc0da600000000000000000000000000000000000000000000000000000000815260040160405180910390fd5b5f600e548461102491906137f0565b905080341015611060576040517f356680b700000000000000000000000000000000000000000000000000000000815260040160405180910390fd5b5f611069612687565b90505f6001868361107a91906137bd565b6110849190613831565b90505b8082116110ec5760014361109b9190613831565b40826040516020016110ae9291906138a4565b6040516020818303038152906040528051906020012060115f8481526020019081526020015f208190555081806110e4906138cf565b925050611087565b6110f6338761268f565b50505050506001600a8190555050565b600d5481565b600c5481565b60145f9054906101000a900473ffffffffffffffffffffffffffffffffffffffff1681565b60095f9054906101000a900473ffffffffffffffffffffffffffffffffffffffff1673ffffffffffffffffffffffffffffffffffffffff163373ffffffffffffffffffffffffffffffffffffffff16146111c6576040517f08c379a00000000000000000000000000000000000000000000000000000000081526004016111bd90613960565b60405180910390fd5b6001600a541461120b576040517f08c379a00000000000000000000000000000000000000000000000000000000081526004016112029061370a565b60405180910390fd5b6002600a819055505f3373ffffffffffffffffffffffffffffffffffffffff1647604051611238906139ab565b5f6040518083038185875af1925050503d805f8114611272576040519150601f19603f3d011682016040523d82523d5f602084013e611277565b606091505b50509050806112bb576040517f08c379a00000000000000000000000000000000000000000000000000000000081526004016112b290613a09565b60405180910390fd5b506001600a81905550565b6112e083838360405180602001604052805f815250611ec8565b505050565b6015602052805f5260405f205f915090505481565b60095f9054906101000a900473ffffffffffffffffffffffffffffffffffffffff1673ffffffffffffffffffffffffffffffffffffffff163373ffffffffffffffffffffffffffffffffffffffff1614611389576040517f08c379a000000000000000000000000000000000000000000000000000000000815260040161138090613960565b60405180910390fd5b8060145f6101000a81548173ffffffffffffffffffffffffffffffffffffffff021916908373ffffffffffffffffffffffffffffffffffffffff16021790555050565b60095f9054906101000a900473ffffffffffffffffffffffffffffffffffffffff1673ffffffffffffffffffffffffffffffffffffffff163373ffffffffffffffffffffffffffffffffffffffff161461145b576040517f08c379a000000000000000000000000000000000000000000000000000000000815260040161145290613960565b60405180910390fd5b60105f9054906101000a900460ff161560105f6101000a81548160ff021916908315150217905550565b6060805f84849050905060405191508082528060051b90508060208301016040525b5f81146114d6575f6020820391508186013590505f6114c582611f2b565b9050808360208601015250506114a7565b819250505092915050565b5f6114eb82612467565b9050919050565b60095f9054906101000a900473ffffffffffffffffffffffffffffffffffffffff1673ffffffffffffffffffffffffffffffffffffffff163373ffffffffffffffffffffffffffffffffffffffff1614611581576040517f08c379a000000000000000000000000000000000000000000000000000000000815260040161157890613960565b60405180910390fd5b601060029054906101000a900460ff1615601060026101000a81548160ff021916908315150217905550565b60095f9054906101000a900473ffffffffffffffffffffffffffffffffffffffff1673ffffffffffffffffffffffffffffffffffffffff163373ffffffffffffffffffffffffffffffffffffffff161461163c576040517f08c379a000000000000000000000000000000000000000000000000000000000815260040161163390613960565b60405180910390fd5b6001600a5414611681576040517f08c379a00000000000000000000000000000000000000000000000000000000081526004016116789061370a565b60405180910390fd5b6002600a819055505f81116116c2576040517fd43e607500000000000000000000000000000000000000000000000000000000815260040160405180910390fd5b5f6116cb612687565b90505f600183836116dc91906137bd565b6116e69190613831565b90505b80821161174e576001436116fd9190613831565b40826040516020016117109291906138a4565b6040516020818303038152906040528051906020012060115f8481526020019081526020015f20819055508180611746906138cf565b9250506116e9565b611758338461268f565b50506001600a8190555050565b5f8073ffffffffffffffffffffffffffffffffffffffff168273ffffffffffffffffffffffffffffffffffffffff16036117aa576117a9638f4eb60460e01b612306565b5b67ffffffffffffffff60055f8473ffffffffffffffffffffffffffffffffffffffff1673ffffffffffffffffffffffffffffffffffffffff1681526020019081526020015f2054169050919050565b60145f9054906101000a900473ffffffffffffffffffffffffffffffffffffffff1673ffffffffffffffffffffffffffffffffffffffff163373ffffffffffffffffffffffffffffffffffffffff1614611888576040517f08c379a000000000000000000000000000000000000000000000000000000000815260040161187f90613a71565b60405180910390fd5b6001600a54146118cd576040517f08c379a00000000000000000000000000000000000000000000000000000000081526004016118c49061370a565b60405180910390fd5b6002600a819055505f5b8282905081101561196b57600160135f8585858181106118fa576118f9613a8f565b5b905060200201602081019061190f9190612f62565b73ffffffffffffffffffffffffffffffffffffffff1673ffffffffffffffffffffffffffffffffffffffff1681526020019081526020015f205f6101000a81548160ff02191690831515021790555080806001019150506118d7565b506001600a819055505050565b6011602052805f5260405f205f915090505481565b6001600a54146119d2576040517f08c379a00000000000000000000000000000000000000000000000000000000081526004016119c99061370a565b60405180910390fd5b6002600a81905550600160105f6101000a81548160ff0219169083151502179055611a32576040517f08c379a0000000000000000000000000000000000000000000000000000000008152600401611a2990613b06565b60405180910390fd5b6001151560135f3373ffffffffffffffffffffffffffffffffffffffff1673ffffffffffffffffffffffffffffffffffffffff1681526020019081526020015f205f9054906101000a900460ff16151514611ac2576040517f08c379a0000000000000000000000000000000000000000000000000000000008152600401611ab990613b6e565b60405180910390fd5b600f548160125f3373ffffffffffffffffffffffffffffffffffffffff1673ffffffffffffffffffffffffffffffffffffffff1681526020019081526020015f2054611b0e91906137bd565b1115611b4f576040517f08c379a0000000000000000000000000000000000000000000000000000000008152600401611b4690613bd6565b60405180910390fd5b5f8111611b88576040517fd43e607500000000000000000000000000000000000000000000000000000000815260040160405180910390fd5b5f611b91612687565b90505f60018383611ba291906137bd565b611bac9190613831565b90505b808211611c1457600143611bc39190613831565b4082604051602001611bd69291906138a4565b6040516020818303038152906040528051906020012060115f8481526020019081526020015f20819055508180611c0c906138cf565b925050611baf565b8260125f3373ffffffffffffffffffffffffffffffffffffffff1673ffffffffffffffffffffffffffffffffffffffff1681526020019081526020015f205f828254611c6091906137bd565b92505081905550611c71338461268f565b50506001600a8190555050565b60607fffffffffffffffffffffffffffffffffffffffffffffffffffffffffffffffff611ca9612440565b14611cbf57611cbe63bdba09d760e01b612306565b5b5f611cc8612438565b90505f611cd3612687565b90506060818314611cec57611ce9858484612803565b90505b809350505050919050565b60095f9054906101000a900473ffffffffffffffffffffffffffffffffffffffff1681565b606060038054611d2b90613690565b80601f0160208091040260200160405190810160405280929190818152602001828054611d5790613690565b8015611da25780601f10611d7957610100808354040283529160200191611da2565b820191905f5260205f20905b815481529060010190602001808311611d8557829003601f168201915b5050505050905090565b6060611db9848484612803565b90509392505050565b8060075f611dce612599565b73ffffffffffffffffffffffffffffffffffffffff1673ffffffffffffffffffffffffffffffffffffffff1681526020019081526020015f205f8473ffffffffffffffffffffffffffffffffffffffff1673ffffffffffffffffffffffffffffffffffffffff1681526020019081526020015f205f6101000a81548160ff0219169083151502179055508173ffffffffffffffffffffffffffffffffffffffff16611e77612599565b73ffffffffffffffffffffffffffffffffffffffff167f17307eab39ab6107e8899845ad3d59bd9653f200f220920489ca2b5937696c3183604051611ebc9190612d23565b60405180910390a35050565b611ed3848484610b24565b5f8373ffffffffffffffffffffffffffffffffffffffff163b14611f1357611efd848484846129b2565b611f1257611f1163d1a57ed660e01b612306565b5b5b50505050565b60105f9054906101000a900460ff1681565b611f33612c2d565b611f3b612438565b8210611f9a57611f49612440565b821115611f6057611f5982612adc565b9050611f9b565b611f68612687565b821015611f99575b611f7982612b05565b611f895781600190039150611f70565b611f9282612adc565b9050611f9b565b5b5b919050565b600e5481565b6060600b5f9054906101000a900473ffffffffffffffffffffffffffffffffffffffff1673ffffffffffffffffffffffffffffffffffffffff1663c649c9a88360115f8681526020019081526020015f20546040518363ffffffff1660e01b8152600401612015929190613bf4565b5f60405180830381865afa15801561202f573d5f803e3d5ffd5b505050506040513d5f823e3d601f19601f820116820180604052508101906120579190613cb9565b9050919050565b601060019054906101000a900460ff1681565b5f60075f8473ffffffffffffffffffffffffffffffffffffffff1673ffffffffffffffffffffffffffffffffffffffff1681526020019081526020015f205f8373ffffffffffffffffffffffffffffffffffffffff1673ffffffffffffffffffffffffffffffffffffffff1681526020019081526020015f205f9054906101000a900460ff16905092915050565b6012602052805f5260405f205f915090505481565b600f5481565b60095f9054906101000a900473ffffffffffffffffffffffffffffffffffffffff1673ffffffffffffffffffffffffffffffffffffffff163373ffffffffffffffffffffffffffffffffffffffff16146121a9576040517f08c379a00000000000000000000000000000000000000000000000000000000081526004016121a090613960565b60405180910390fd5b8060095f6101000a81548173ffffffffffffffffffffffffffffffffffffffff021916908373ffffffffffffffffffffffffffffffffffffffff1602179055508073ffffffffffffffffffffffffffffffffffffffff163373ffffffffffffffffffffffffffffffffffffffff167f8be0079c531659141344cd1fd0a4f28419497f9722a3daafe3b4186f6b6457e060405160405180910390a350565b6013602052805f5260405f205f915054906101000a900460ff1681565b5f8161226d612438565b116123005761227a612440565b8211156122a25761229b60045f8481526020019081526020015f2054612b22565b9050612301565b5f548210156122ff575f5b5f60045f8581526020019081526020015f2054915081036122d957826122d290613d00565b92506122ad565b5f7c01000000000000000000000000000000000000000000000000000000008216149150505b5b5b919050565b805f5260045ffd5b5f612318836114e1565b905081801561235a57508073ffffffffffffffffffffffffffffffffffffffff16612341612599565b73ffffffffffffffffffffffffffffffffffffffff1614155b15612386576123708161236b612599565b612071565b6123855761238463cfb3b94260e01b612306565b5b5b8360065f8581526020019081526020015f205f015f6101000a81548173ffffffffffffffffffffffffffffffffffffffff021916908373ffffffffffffffffffffffffffffffffffffffff160217905550828473ffffffffffffffffffffffffffffffffffffffff168273ffffffffffffffffffffffffffffffffffffffff167f8c5be1e5ebec7d5bd14f71427d1e84f3dd0314c0f7b2291e5b200ac8c7c3b92560405160405180910390a450505050565b5f6001905090565b5f7fffffffffffffffffffffffffffffffffffffffffffffffffffffffffffffffff905090565b5f81612471612438565b116125605760045f8381526020019081526020015f20549050612492612440565b8211156124b7576124a281612b22565b612571576124b663df2d9b4260e01b612306565b5b5f8103612538575f5482106124d7576124d663df2d9b4260e01b612306565b5b5b60045f836001900393508381526020019081526020015f205490505f810315612533575f7c0100000000000000000000000000000000000000000000000000000000821603156125715761253263df2d9b4260e01b612306565b5b6124d8565b5f7c010000000000000000000000000000000000000000000000000000000082160315612571575b61257063df2d9b4260e01b612306565b5b919050565b5f805f60065f8581526020019081526020015f2090508092508254915050915091565b5f33905090565b5f73ffffffffffffffffffffffffffffffffffffffff8316925073ffffffffffffffffffffffffffffffffffffffff821691508382148383141790509392505050565b50505050565b5f8060e883901c905060e86125ff868684612b62565b62ffffff16901b9150509392505050565b5f73ffffffffffffffffffffffffffffffffffffffff83169250814260a01b178317905092915050565b50505050565b5f612649612438565b5f540390507fffffffffffffffffffffffffffffffffffffffffffffffffffffffffffffffff612677612440565b1461268457600854810190505b90565b5f8054905090565b5f805490505f82036126ac576126ab63b562e8dd60e01b612306565b5b6126b85f8483856125e3565b6126d6836126c75f865f6125e9565b6126d085612b6a565b17612610565b60045f8381526020019081526020015f2081905550600160406001901b17820260055f8573ffffffffffffffffffffffffffffffffffffffff1673ffffffffffffffffffffffffffffffffffffffff1681526020019081526020015f205f82825401925050819055505f73ffffffffffffffffffffffffffffffffffffffff8473ffffffffffffffffffffffffffffffffffffffff161690505f810361278757612786632e07630060e01b612306565b5b5f83830190505f839050612799612440565b6001830311156127b4576127b36381647e3a60e01b612306565b5b5b80835f7fddf252ad1be2c89b69c2b068fc378daa952ba7f163c4a11628f55a4df523b3ef5f80a48181600101915081036127b557815f819055505050506127fe5f84838561263a565b505050565b606081831061281d5761281c6332c1995a60e01b612306565b5b612825612438565b83101561283757612834612438565b92505b5f612840612687565b90505f7fffffffffffffffffffffffffffffffffffffffffffffffffffffffffffffffff61286c612440565b036128775781612879565b835b9050808410612886578093505b5f61289087611765565b905084861061289d575f90505b5f81146129a85780868603116128b35785850390505b5f60405194506001820160051b85019050806040525f6128d288611f2b565b90505f81604001516128e557815f015190505b5f5b7fffffffffffffffffffffffffffffffffffffffffffffffffffffffffffffffff612910612440565b1461293e57868a0361292a576001612926612440565b0199505b612932612440565b8a111561293d575f91505b5b6129478a612adc565b925060408301515f811461295d575f9250612983565b83511561296957835192505b8b831860601b612982576001820191508a8260051b8a01525b5b5060018a01995083604052888a148061299b57508481145b156128e757808852505050505b5050509392505050565b5f8373ffffffffffffffffffffffffffffffffffffffff1663150b7a026129d7612599565b8786866040518563ffffffff1660e01b81526004016129f99493929190613d79565b6020604051808303815f875af1925050508015612a3457506040513d601f19601f82011682018060405250810190612a319190613dd7565b60015b612a89573d805f8114612a62576040519150601f19603f3d011682016040523d82523d5f602084013e612a67565b606091505b505f815103612a8157612a8063d1a57ed660e01b612306565b5b805181602001fd5b63150b7a0260e01b7bffffffffffffffffffffffffffffffffffffffffffffffffffffffff1916817bffffffffffffffffffffffffffffffffffffffffffffffffffffffff191614915050949350505050565b612ae4612c2d565b612afe60045f8481526020019081526020015f2054612b79565b9050919050565b5f8060045f8481526020019081526020015f205414159050919050565b5f7c0100000000000000000000000000000000000000000000000000000000821673ffffffffffffffffffffffffffffffffffffffff8316119050919050565b5f9392505050565b5f6001821460e11b9050919050565b612b81612c2d565b81815f019073ffffffffffffffffffffffffffffffffffffffff16908173ffffffffffffffffffffffffffffffffffffffff168152505060a082901c816020019067ffffffffffffffff16908167ffffffffffffffff16815250505f7c01000000000000000000000000000000000000000000000000000000008316141581604001901515908115158152505060e882901c816060019062ffffff16908162ffffff1681525050919050565b60405180608001604052805f73ffffffffffffffffffffffffffffffffffffffff1681526020015f67ffffffffffffffff1681526020015f151581526020015f62ffffff1681525090565b5f604051905090565b5f80fd5b5f80fd5b5f7fffffffff0000000000000000000000000000000000000000000000000000000082169050919050565b612cbd81612c89565b8114612cc7575f80fd5b50565b5f81359050612cd881612cb4565b92915050565b5f60208284031215612cf357612cf2612c81565b5b5f612d0084828501612cca565b91505092915050565b5f8115159050919050565b612d1d81612d09565b82525050565b5f602082019050612d365f830184612d14565b92915050565b5f81519050919050565b5f82825260208201905092915050565b8281835e5f83830152505050565b5f601f19601f8301169050919050565b5f612d7e82612d3c565b612d888185612d46565b9350612d98818560208601612d56565b612da181612d64565b840191505092915050565b5f6020820190508181035f830152612dc48184612d74565b905092915050565b5f819050919050565b612dde81612dcc565b8114612de8575f80fd5b50565b5f81359050612df981612dd5565b92915050565b5f60208284031215612e1457612e13612c81565b5b5f612e2184828501612deb565b91505092915050565b5f73ffffffffffffffffffffffffffffffffffffffff82169050919050565b5f612e5382612e2a565b9050919050565b612e6381612e49565b82525050565b5f602082019050612e7c5f830184612e5a565b92915050565b612e8b81612e49565b8114612e95575f80fd5b50565b5f81359050612ea681612e82565b92915050565b5f8060408385031215612ec257612ec1612c81565b5b5f612ecf85828601612e98565b9250506020612ee085828601612deb565b9150509250929050565b612ef381612dcc565b82525050565b5f602082019050612f0c5f830184612eea565b92915050565b5f805f60608486031215612f2957612f28612c81565b5b5f612f3686828701612e98565b9350506020612f4786828701612e98565b9250506040612f5886828701612deb565b9150509250925092565b5f60208284031215612f7757612f76612c81565b5b5f612f8484828501612e98565b91505092915050565b5f80fd5b5f80fd5b5f80fd5b5f8083601f840112612fae57612fad612f8d565b5b8235905067ffffffffffffffff811115612fcb57612fca612f91565b5b602083019150836020820283011115612fe757612fe6612f95565b5b9250929050565b5f806020838503121561300457613003612c81565b5b5f83013567ffffffffffffffff81111561302157613020612c85565b5b61302d85828601612f99565b92509250509250929050565b5f81519050919050565b5f82825260208201905092915050565b5f819050602082019050919050565b61306b81612e49565b82525050565b5f67ffffffffffffffff82169050919050565b61308d81613071565b82525050565b61309c81612d09565b82525050565b5f62ffffff82169050919050565b6130b9816130a2565b82525050565b608082015f8201516130d35f850182613062565b5060208201516130e66020850182613084565b5060408201516130f96040850182613093565b50606082015161310c60608501826130b0565b50505050565b5f61311d83836130bf565b60808301905092915050565b5f602082019050919050565b5f61313f82613039565b6131498185613043565b935061315483613053565b805f5b8381101561318457815161316b8882613112565b975061317683613129565b925050600181019050613157565b5085935050505092915050565b5f6020820190508181035f8301526131a98184613135565b905092915050565b5f8083601f8401126131c6576131c5612f8d565b5b8235905067ffffffffffffffff8111156131e3576131e2612f91565b5b6020830191508360208202830111156131ff576131fe612f95565b5b9250929050565b5f806020838503121561321c5761321b612c81565b5b5f83013567ffffffffffffffff81111561323957613238612c85565b5b613245858286016131b1565b92509250509250929050565b5f819050919050565b61326381613251565b82525050565b5f60208201905061327c5f83018461325a565b92915050565b5f81519050919050565b5f82825260208201905092915050565b5f819050602082019050919050565b6132b481612dcc565b82525050565b5f6132c583836132ab565b60208301905092915050565b5f602082019050919050565b5f6132e782613282565b6132f1818561328c565b93506132fc8361329c565b805f5b8381101561332c57815161331388826132ba565b975061331e836132d1565b9250506001810190506132ff565b5085935050505092915050565b5f6020820190508181035f83015261335181846132dd565b905092915050565b5f805f606084860312156133705761336f612c81565b5b5f61337d86828701612e98565b935050602061338e86828701612deb565b925050604061339f86828701612deb565b9150509250925092565b6133b281612d09565b81146133bc575f80fd5b50565b5f813590506133cd816133a9565b92915050565b5f80604083850312156133e9576133e8612c81565b5b5f6133f685828601612e98565b9250506020613407858286016133bf565b9150509250929050565b5f80fd5b7f4e487b71000000000000000000000000000000000000000000000000000000005f52604160045260245ffd5b61344b82612d64565b810181811067ffffffffffffffff8211171561346a57613469613415565b5b80604052505050565b5f61347c612c78565b90506134888282613442565b919050565b5f67ffffffffffffffff8211156134a7576134a6613415565b5b6134b082612d64565b9050602081019050919050565b828183375f83830152505050565b5f6134dd6134d88461348d565b613473565b9050828152602081018484840111156134f9576134f8613411565b5b6135048482856134bd565b509392505050565b5f82601f8301126135205761351f612f8d565b5b81356135308482602086016134cb565b91505092915050565b5f805f806080858703121561355157613550612c81565b5b5f61355e87828801612e98565b945050602061356f87828801612e98565b935050604061358087828801612deb565b925050606085013567ffffffffffffffff8111156135a1576135a0612c85565b5b6135ad8782880161350c565b91505092959194509250565b608082015f8201516135cd5f850182613062565b5060208201516135e06020850182613084565b5060408201516135f36040850182613093565b50606082015161360660608501826130b0565b50505050565b5f60808201905061361f5f8301846135b9565b92915050565b5f806040838503121561363b5761363a612c81565b5b5f61364885828601612e98565b925050602061365985828601612e98565b9150509250929050565b7f4e487b71000000000000000000000000000000000000000000000000000000005f52602260045260245ffd5b5f60028204905060018216806136a757607f821691505b6020821081036136ba576136b9613663565b5b50919050565b7f5245454e5452414e4359000000000000000000000000000000000000000000005f82015250565b5f6136f4600a83612d46565b91506136ff826136c0565b602082019050919050565b5f6020820190508181035f830152613721816136e8565b9050919050565b7f7075626c6963206d696e74207068617365206973206e6f7420616374697665005f82015250565b5f61375c601f83612d46565b915061376782613728565b602082019050919050565b5f6020820190508181035f83015261378981613750565b9050919050565b7f4e487b71000000000000000000000000000000000000000000000000000000005f52601160045260245ffd5b5f6137c782612dcc565b91506137d283612dcc565b92508282019050808211156137ea576137e9613790565b5b92915050565b5f6137fa82612dcc565b915061380583612dcc565b925082820261381381612dcc565b9150828204841483151761382a57613829613790565b5b5092915050565b5f61383b82612dcc565b915061384683612dcc565b925082820390508181111561385e5761385d613790565b5b92915050565b5f819050919050565b61387e61387982613251565b613864565b82525050565b5f819050919050565b61389e61389982612dcc565b613884565b82525050565b5f6138af828561386d565b6020820191506138bf828461388d565b6020820191508190509392505050565b5f6138d982612dcc565b91507fffffffffffffffffffffffffffffffffffffffffffffffffffffffffffffffff820361390b5761390a613790565b5b600182019050919050565b7f554e415554484f52495a454400000000000000000000000000000000000000005f82015250565b5f61394a600c83612d46565b915061395582613916565b602082019050919050565b5f6020820190508181035f8301526139778161393e565b9050919050565b5f81905092915050565b50565b5f6139965f8361397e565b91506139a182613988565b5f82019050919050565b5f6139b58261398b565b9150819050919050565b7f5472616e73666572206661696c65642e000000000000000000000000000000005f82015250565b5f6139f3601083612d46565b91506139fe826139bf565b602082019050919050565b5f6020820190508181035f830152613a20816139e7565b9050919050565b7f436f6e74726f6c6c6572204f6e6c7900000000000000000000000000000000005f82015250565b5f613a5b600f83612d46565b9150613a6682613a27565b602082019050919050565b5f6020820190508181035f830152613a8881613a4f565b9050919050565b7f4e487b71000000000000000000000000000000000000000000000000000000005f52603260045260245ffd5b7f46726565206d696e74207068617365206973206e6f74206163746976650000005f82015250565b5f613af0601d83612d46565b9150613afb82613abc565b602082019050919050565b5f6020820190508181035f830152613b1d81613ae4565b9050919050565b7f4e6f74206f6e2077686974656c697374000000000000000000000000000000005f82015250565b5f613b58601083612d46565b9150613b6382613b24565b602082019050919050565b5f6020820190508181035f830152613b8581613b4c565b9050919050565b7f6f6e6c79206f6e652066726565205065706500000000000000000000000000005f82015250565b5f613bc0601283612d46565b9150613bcb82613b8c565b602082019050919050565b5f6020820190508181035f830152613bed81613bb4565b9050919050565b5f604082019050613c075f830185612eea565b613c14602083018461325a565b9392505050565b5f67ffffffffffffffff821115613c3557613c34613415565b5b613c3e82612d64565b9050602081019050919050565b5f613c5d613c5884613c1b565b613473565b905082815260208101848484011115613c7957613c78613411565b5b613c84848285612d56565b509392505050565b5f82601f830112613ca057613c9f612f8d565b5b8151613cb0848260208601613c4b565b91505092915050565b5f60208284031215613cce57613ccd612c81565b5b5f82015167ffffffffffffffff811115613ceb57613cea612c85565b5b613cf784828501613c8c565b91505092915050565b5f613d0a82612dcc565b91505f8203613d1c57613d1b613790565b5b600182039050919050565b5f81519050919050565b5f82825260208201905092915050565b5f613d4b82613d27565b613d558185613d31565b9350613d65818560208601612d56565b613d6e81612d64565b840191505092915050565b5f608082019050613d8c5f830187612e5a565b613d996020830186612e5a565b613da66040830185612eea565b8181036060830152613db88184613d41565b905095945050505050565b5f81519050613dd181612cb4565b92915050565b5f60208284031215613dec57613deb612c81565b5b5f613df984828501613dc3565b9150509291505056fea26469706673582212209cca72ef51d53cfce46ba41536b08e84644240a91c9c2aaf7ffb059e4996da5b64736f6c634300081a0033",
			"opcodes": "PUSH1 0x80 PUSH1 0x40 MSTORE PUSH1 0x1 PUSH1 0xA SSTORE PUSH2 0x3E8 PUSH1 0xC SSTORE PUSH7 0xAA87BEE538000 PUSH1 0xE SSTORE PUSH1 0x1 PUSH1 0xF SSTORE PUSH0 PUSH1 0x10 PUSH0 PUSH2 0x100 EXP DUP2 SLOAD DUP2 PUSH1 0xFF MUL NOT AND SWAP1 DUP4 ISZERO ISZERO MUL OR SWAP1 SSTORE POP PUSH0 PUSH1 0x10 PUSH1 0x1 PUSH2 0x100 EXP DUP2 SLOAD DUP2 PUSH1 0xFF MUL NOT AND SWAP1 DUP4 ISZERO ISZERO MUL OR SWAP1 SSTORE POP PUSH0 PUSH1 0x10 PUSH1 0x2 PUSH2 0x100 EXP DUP2 SLOAD DUP2 PUSH1 0xFF MUL NOT AND SWAP1 DUP4 ISZERO ISZERO MUL OR SWAP1 SSTORE POP CALLVALUE DUP1 ISZERO PUSH2 0x77 JUMPI PUSH0 DUP1 REVERT JUMPDEST POP PUSH1 0x40 MLOAD PUSH2 0x44A3 CODESIZE SUB DUP1 PUSH2 0x44A3 DUP4 CODECOPY DUP2 DUP2 ADD PUSH1 0x40 MSTORE DUP2 ADD SWAP1 PUSH2 0x99 SWAP2 SWAP1 PUSH2 0x32A JUMP JUMPDEST CALLER PUSH1 0x40 MLOAD DUP1 PUSH1 0x40 ADD PUSH1 0x40 MSTORE DUP1 PUSH1 0x9 DUP2 MSTORE PUSH1 0x20 ADD PUSH32 0x48616D2050657065730000000000000000000000000000000000000000000000 DUP2 MSTORE POP PUSH1 0x40 MLOAD DUP1 PUSH1 0x40 ADD PUSH1 0x40 MSTORE DUP1 PUSH1 0x5 DUP2 MSTORE PUSH1 0x20 ADD PUSH32 0x4850455045000000000000000000000000000000000000000000000000000000 DUP2 MSTORE POP DUP2 PUSH1 0x2 SWAP1 DUP2 PUSH2 0x115 SWAP2 SWAP1 PUSH2 0x58F JUMP JUMPDEST POP DUP1 PUSH1 0x3 SWAP1 DUP2 PUSH2 0x125 SWAP2 SWAP1 PUSH2 0x58F JUMP JUMPDEST POP PUSH2 0x134 PUSH2 0x295 PUSH1 0x20 SHL PUSH1 0x20 SHR JUMP JUMPDEST PUSH0 DUP2 SWAP1 SSTORE POP PUSH2 0x147 PUSH2 0x295 PUSH1 0x20 SHL PUSH1 0x20 SHR JUMP JUMPDEST PUSH2 0x155 PUSH2 0x29D PUSH1 0x20 SHL PUSH1 0x20 SHR JUMP JUMPDEST LT ISZERO PUSH2 0x172 JUMPI PUSH2 0x171 PUSH4 0xFED8210F PUSH1 0xE0 SHL PUSH2 0x2C4 PUSH1 0x20 SHL PUSH1 0x20 SHR JUMP JUMPDEST JUMPDEST POP POP DUP1 PUSH1 0x9 PUSH0 PUSH2 0x100 EXP DUP2 SLOAD DUP2 PUSH20 0xFFFFFFFFFFFFFFFFFFFFFFFFFFFFFFFFFFFFFFFF MUL NOT AND SWAP1 DUP4 PUSH20 0xFFFFFFFFFFFFFFFFFFFFFFFFFFFFFFFFFFFFFFFF AND MUL OR SWAP1 SSTORE POP DUP1 PUSH20 0xFFFFFFFFFFFFFFFFFFFFFFFFFFFFFFFFFFFFFFFF AND PUSH0 PUSH20 0xFFFFFFFFFFFFFFFFFFFFFFFFFFFFFFFFFFFFFFFF AND PUSH32 0x8BE0079C531659141344CD1FD0A4F28419497F9722A3DAAFE3B4186F6B6457E0 PUSH1 0x40 MLOAD PUSH1 0x40 MLOAD DUP1 SWAP2 SUB SWAP1 LOG3 POP DUP1 PUSH1 0xB PUSH0 PUSH2 0x100 EXP DUP2 SLOAD DUP2 PUSH20 0xFFFFFFFFFFFFFFFFFFFFFFFFFFFFFFFFFFFFFFFF MUL NOT AND SWAP1 DUP4 PUSH20 0xFFFFFFFFFFFFFFFFFFFFFFFFFFFFFFFFFFFFFFFF AND MUL OR SWAP1 SSTORE POP CALLER PUSH1 0x14 PUSH0 PUSH2 0x100 EXP DUP2 SLOAD DUP2 PUSH20 0xFFFFFFFFFFFFFFFFFFFFFFFFFFFFFFFFFFFFFFFF MUL NOT AND SWAP1 DUP4 PUSH20 0xFFFFFFFFFFFFFFFFFFFFFFFFFFFFFFFFFFFFFFFF AND MUL OR SWAP1 SSTORE POP POP PUSH2 0x65E JUMP JUMPDEST PUSH0 PUSH1 0x1 SWAP1 POP SWAP1 JUMP JUMPDEST PUSH0 PUSH32 0xFFFFFFFFFFFFFFFFFFFFFFFFFFFFFFFFFFFFFFFFFFFFFFFFFFFFFFFFFFFFFFFF SWAP1 POP SWAP1 JUMP JUMPDEST DUP1 PUSH0 MSTORE PUSH1 0x4 PUSH0 REVERT JUMPDEST PUSH0 DUP1 REVERT JUMPDEST PUSH0 PUSH20 0xFFFFFFFFFFFFFFFFFFFFFFFFFFFFFFFFFFFFFFFF DUP3 AND SWAP1 POP SWAP2 SWAP1 POP JUMP JUMPDEST PUSH0 PUSH2 0x2F9 DUP3 PUSH2 0x2D0 JUMP JUMPDEST SWAP1 POP SWAP2 SWAP1 POP JUMP JUMPDEST PUSH2 0x309 DUP2 PUSH2 0x2EF JUMP JUMPDEST DUP2 EQ PUSH2 0x313 JUMPI PUSH0 DUP1 REVERT JUMPDEST POP JUMP JUMPDEST PUSH0 DUP2 MLOAD SWAP1 POP PUSH2 0x324 DUP2 PUSH2 0x300 JUMP JUMPDEST SWAP3 SWAP2 POP POP JUMP JUMPDEST PUSH0 PUSH1 0x20 DUP3 DUP5 SUB SLT ISZERO PUSH2 0x33F JUMPI PUSH2 0x33E PUSH2 0x2CC JUMP JUMPDEST JUMPDEST PUSH0 PUSH2 0x34C DUP5 DUP3 DUP6 ADD PUSH2 0x316 JUMP JUMPDEST SWAP2 POP POP SWAP3 SWAP2 POP POP JUMP JUMPDEST PUSH0 DUP2 MLOAD SWAP1 POP SWAP2 SWAP1 POP JUMP JUMPDEST PUSH32 0x4E487B7100000000000000000000000000000000000000000000000000000000 PUSH0 MSTORE PUSH1 0x41 PUSH1 0x4 MSTORE PUSH1 0x24 PUSH0 REVERT JUMPDEST PUSH32 0x4E487B7100000000000000000000000000000000000000000000000000000000 PUSH0 MSTORE PUSH1 0x22 PUSH1 0x4 MSTORE PUSH1 0x24 PUSH0 REVERT JUMPDEST PUSH0 PUSH1 0x2 DUP3 DIV SWAP1 POP PUSH1 0x1 DUP3 AND DUP1 PUSH2 0x3D0 JUMPI PUSH1 0x7F DUP3 AND SWAP2 POP JUMPDEST PUSH1 0x20 DUP3 LT DUP2 SUB PUSH2 0x3E3 JUMPI PUSH2 0x3E2 PUSH2 0x38C JUMP JUMPDEST JUMPDEST POP SWAP2 SWAP1 POP JUMP JUMPDEST PUSH0 DUP2 SWAP1 POP DUP2 PUSH0 MSTORE PUSH1 0x20 PUSH0 KECCAK256 SWAP1 POP SWAP2 SWAP1 POP JUMP JUMPDEST PUSH0 PUSH1 0x20 PUSH1 0x1F DUP4 ADD DIV SWAP1 POP SWAP2 SWAP1 POP JUMP JUMPDEST PUSH0 DUP3 DUP3 SHL SWAP1 POP SWAP3 SWAP2 POP POP JUMP JUMPDEST PUSH0 PUSH1 0x8 DUP4 MUL PUSH2 0x445 PUSH32 0xFFFFFFFFFFFFFFFFFFFFFFFFFFFFFFFFFFFFFFFFFFFFFFFFFFFFFFFFFFFFFFFF DUP3 PUSH2 0x40A JUMP JUMPDEST PUSH2 0x44F DUP7 DUP4 PUSH2 0x40A JUMP JUMPDEST SWAP6 POP DUP1 NOT DUP5 AND SWAP4 POP DUP1 DUP7 AND DUP5 OR SWAP3 POP POP POP SWAP4 SWAP3 POP POP POP JUMP JUMPDEST PUSH0 DUP2 SWAP1 POP SWAP2 SWAP1 POP JUMP JUMPDEST PUSH0 DUP2 SWAP1 POP SWAP2 SWAP1 POP JUMP JUMPDEST PUSH0 PUSH2 0x493 PUSH2 0x48E PUSH2 0x489 DUP5 PUSH2 0x467 JUMP JUMPDEST PUSH2 0x470 JUMP JUMPDEST PUSH2 0x467 JUMP JUMPDEST SWAP1 POP SWAP2 SWAP1 POP JUMP JUMPDEST PUSH0 DUP2 SWAP1 POP SWAP2 SWAP1 POP JUMP JUMPDEST PUSH2 0x4AC DUP4 PUSH2 0x479 JUMP JUMPDEST PUSH2 0x4C0 PUSH2 0x4B8 DUP3 PUSH2 0x49A JUMP JUMPDEST DUP5 DUP5 SLOAD PUSH2 0x416 JUMP JUMPDEST DUP3 SSTORE POP POP POP POP JUMP JUMPDEST PUSH0 SWAP1 JUMP JUMPDEST PUSH2 0x4D4 PUSH2 0x4C8 JUMP JUMPDEST PUSH2 0x4DF DUP2 DUP5 DUP5 PUSH2 0x4A3 JUMP JUMPDEST POP POP POP JUMP JUMPDEST JUMPDEST DUP2 DUP2 LT ISZERO PUSH2 0x502 JUMPI PUSH2 0x4F7 PUSH0 DUP3 PUSH2 0x4CC JUMP JUMPDEST PUSH1 0x1 DUP2 ADD SWAP1 POP PUSH2 0x4E5 JUMP JUMPDEST POP POP JUMP JUMPDEST PUSH1 0x1F DUP3 GT ISZERO PUSH2 0x547 JUMPI PUSH2 0x518 DUP2 PUSH2 0x3E9 JUMP JUMPDEST PUSH2 0x521 DUP5 PUSH2 0x3FB JUMP JUMPDEST DUP2 ADD PUSH1 0x20 DUP6 LT ISZERO PUSH2 0x530 JUMPI DUP2 SWAP1 POP JUMPDEST PUSH2 0x544 PUSH2 0x53C DUP6 PUSH2 0x3FB JUMP JUMPDEST DUP4 ADD DUP3 PUSH2 0x4E4 JUMP JUMPDEST POP POP JUMPDEST POP POP POP JUMP JUMPDEST PUSH0 DUP3 DUP3 SHR SWAP1 POP SWAP3 SWAP2 POP POP JUMP JUMPDEST PUSH0 PUSH2 0x567 PUSH0 NOT DUP5 PUSH1 0x8 MUL PUSH2 0x54C JUMP JUMPDEST NOT DUP1 DUP4 AND SWAP2 POP POP SWAP3 SWAP2 POP POP JUMP JUMPDEST PUSH0 PUSH2 0x57F DUP4 DUP4 PUSH2 0x558 JUMP JUMPDEST SWAP2 POP DUP3 PUSH1 0x2 MUL DUP3 OR SWAP1 POP SWAP3 SWAP2 POP POP JUMP JUMPDEST PUSH2 0x598 DUP3 PUSH2 0x355 JUMP JUMPDEST PUSH8 0xFFFFFFFFFFFFFFFF DUP2 GT ISZERO PUSH2 0x5B1 JUMPI PUSH2 0x5B0 PUSH2 0x35F JUMP JUMPDEST JUMPDEST PUSH2 0x5BB DUP3 SLOAD PUSH2 0x3B9 JUMP JUMPDEST PUSH2 0x5C6 DUP3 DUP3 DUP6 PUSH2 0x506 JUMP JUMPDEST PUSH0 PUSH1 0x20 SWAP1 POP PUSH1 0x1F DUP4 GT PUSH1 0x1 DUP2 EQ PUSH2 0x5F7 JUMPI PUSH0 DUP5 ISZERO PUSH2 0x5E5 JUMPI DUP3 DUP8 ADD MLOAD SWAP1 POP JUMPDEST PUSH2 0x5EF DUP6 DUP3 PUSH2 0x574 JUMP JUMPDEST DUP7 SSTORE POP PUSH2 0x656 JUMP JUMPDEST PUSH1 0x1F NOT DUP5 AND PUSH2 0x605 DUP7 PUSH2 0x3E9 JUMP JUMPDEST PUSH0 JUMPDEST DUP3 DUP2 LT ISZERO PUSH2 0x62C JUMPI DUP5 DUP10 ADD MLOAD DUP3 SSTORE PUSH1 0x1 DUP3 ADD SWAP2 POP PUSH1 0x20 DUP6 ADD SWAP5 POP PUSH1 0x20 DUP2 ADD SWAP1 POP PUSH2 0x607 JUMP JUMPDEST DUP7 DUP4 LT ISZERO PUSH2 0x649 JUMPI DUP5 DUP10 ADD MLOAD PUSH2 0x645 PUSH1 0x1F DUP10 AND DUP3 PUSH2 0x558 JUMP JUMPDEST DUP4 SSTORE POP JUMPDEST PUSH1 0x1 PUSH1 0x2 DUP9 MUL ADD DUP9 SSTORE POP POP POP JUMPDEST POP POP POP POP POP POP JUMP JUMPDEST PUSH2 0x3E38 DUP1 PUSH2 0x66B PUSH0 CODECOPY PUSH0 RETURN INVALID PUSH1 0x80 PUSH1 0x40 MSTORE PUSH1 0x4 CALLDATASIZE LT PUSH2 0x23A JUMPI PUSH0 CALLDATALOAD PUSH1 0xE0 SHR DUP1 PUSH4 0x70A08231 GT PUSH2 0x12D JUMPI DUP1 PUSH4 0xBEB81891 GT PUSH2 0xAA JUMPI DUP1 PUSH4 0xE985E9C5 GT PUSH2 0x6E JUMPI DUP1 PUSH4 0xE985E9C5 EQ PUSH2 0x836 JUMPI DUP1 PUSH4 0xEA994530 EQ PUSH2 0x872 JUMPI DUP1 PUSH4 0xED6661C2 EQ PUSH2 0x8AE JUMPI DUP1 PUSH4 0xF2FDE38B EQ PUSH2 0x8D8 JUMPI DUP1 PUSH4 0xFA0FCA84 EQ PUSH2 0x900 JUMPI PUSH2 0x23A JUMP JUMPDEST DUP1 PUSH4 0xBEB81891 EQ PUSH2 0x740 JUMPI DUP1 PUSH4 0xC23DC68F EQ PUSH2 0x76A JUMPI DUP1 PUSH4 0xC662E481 EQ PUSH2 0x7A6 JUMPI DUP1 PUSH4 0xC87B56DD EQ PUSH2 0x7D0 JUMPI DUP1 PUSH4 0xD12F743A EQ PUSH2 0x80C JUMPI PUSH2 0x23A JUMP JUMPDEST DUP1 PUSH4 0x8DA5CB5B GT PUSH2 0xF1 JUMPI DUP1 PUSH4 0x8DA5CB5B EQ PUSH2 0x66C JUMPI DUP1 PUSH4 0x95D89B41 EQ PUSH2 0x696 JUMPI DUP1 PUSH4 0x99A2557A EQ PUSH2 0x6C0 JUMPI DUP1 PUSH4 0xA22CB465 EQ PUSH2 0x6FC JUMPI DUP1 PUSH4 0xB88D4FDE EQ PUSH2 0x724 JUMPI PUSH2 0x23A JUMP JUMPDEST DUP1 PUSH4 0x70A08231 EQ PUSH2 0x568 JUMPI DUP1 PUSH4 0x740D73F3 EQ PUSH2 0x5A4 JUMPI DUP1 PUSH4 0x75E91691 EQ PUSH2 0x5CC JUMPI DUP1 PUSH4 0x7C928FE9 EQ PUSH2 0x608 JUMPI DUP1 PUSH4 0x8462151C EQ PUSH2 0x630 JUMPI PUSH2 0x23A JUMP JUMPDEST DUP1 PUSH4 0x367B2A20 GT PUSH2 0x1BB JUMPI DUP1 PUSH4 0x4A7D3E81 GT PUSH2 0x17F JUMPI DUP1 PUSH4 0x4A7D3E81 EQ PUSH2 0x49C JUMPI DUP1 PUSH4 0x5BBB2177 EQ PUSH2 0x4B2 JUMPI DUP1 PUSH4 0x6352211E EQ PUSH2 0x4EE JUMPI DUP1 PUSH4 0x6B8A21FC EQ PUSH2 0x52A JUMPI DUP1 PUSH4 0x6DC41DA7 EQ PUSH2 0x540 JUMPI PUSH2 0x23A JUMP JUMPDEST DUP1 PUSH4 0x367B2A20 EQ PUSH2 0x3DC JUMPI DUP1 PUSH4 0x3CCFD60B EQ PUSH2 0x406 JUMPI DUP1 PUSH4 0x42842E0E EQ PUSH2 0x41C JUMPI DUP1 PUSH4 0x438A67E7 EQ PUSH2 0x438 JUMPI DUP1 PUSH4 0x481231A5 EQ PUSH2 0x474 JUMPI PUSH2 0x23A JUMP JUMPDEST DUP1 PUSH4 0x187E0F17 GT PUSH2 0x202 JUMPI DUP1 PUSH4 0x187E0F17 EQ PUSH2 0x326 JUMPI DUP1 PUSH4 0x23B872DD EQ PUSH2 0x350 JUMPI DUP1 PUSH4 0x2DB11544 EQ PUSH2 0x36C JUMPI DUP1 PUSH4 0x306D6E87 EQ PUSH2 0x388 JUMPI DUP1 PUSH4 0x32CB6B0C EQ PUSH2 0x3B2 JUMPI PUSH2 0x23A JUMP JUMPDEST DUP1 PUSH4 0x1FFC9A7 EQ PUSH2 0x23E JUMPI DUP1 PUSH4 0x6FDDE03 EQ PUSH2 0x27A JUMPI DUP1 PUSH4 0x81812FC EQ PUSH2 0x2A4 JUMPI DUP1 PUSH4 0x95EA7B3 EQ PUSH2 0x2E0 JUMPI DUP1 PUSH4 0x18160DDD EQ PUSH2 0x2FC JUMPI JUMPDEST PUSH0 DUP1 REVERT JUMPDEST CALLVALUE DUP1 ISZERO PUSH2 0x249 JUMPI PUSH0 DUP1 REVERT JUMPDEST POP PUSH2 0x264 PUSH1 0x4 DUP1 CALLDATASIZE SUB DUP2 ADD SWAP1 PUSH2 0x25F SWAP2 SWAP1 PUSH2 0x2CDE JUMP JUMPDEST PUSH2 0x93C JUMP JUMPDEST PUSH1 0x40 MLOAD PUSH2 0x271 SWAP2 SWAP1 PUSH2 0x2D23 JUMP JUMPDEST PUSH1 0x40 MLOAD DUP1 SWAP2 SUB SWAP1 RETURN JUMPDEST CALLVALUE DUP1 ISZERO PUSH2 0x285 JUMPI PUSH0 DUP1 REVERT JUMPDEST POP PUSH2 0x28E PUSH2 0x9CD JUMP JUMPDEST PUSH1 0x40 MLOAD PUSH2 0x29B SWAP2 SWAP1 PUSH2 0x2DAC JUMP JUMPDEST PUSH1 0x40 MLOAD DUP1 SWAP2 SUB SWAP1 RETURN JUMPDEST CALLVALUE DUP1 ISZERO PUSH2 0x2AF JUMPI PUSH0 DUP1 REVERT JUMPDEST POP PUSH2 0x2CA PUSH1 0x4 DUP1 CALLDATASIZE SUB DUP2 ADD SWAP1 PUSH2 0x2C5 SWAP2 SWAP1 PUSH2 0x2DFF JUMP JUMPDEST PUSH2 0xA5D JUMP JUMPDEST PUSH1 0x40 MLOAD PUSH2 0x2D7 SWAP2 SWAP1 PUSH2 0x2E69 JUMP JUMPDEST PUSH1 0x40 MLOAD DUP1 SWAP2 SUB SWAP1 RETURN JUMPDEST PUSH2 0x2FA PUSH1 0x4 DUP1 CALLDATASIZE SUB DUP2 ADD SWAP1 PUSH2 0x2F5 SWAP2 SWAP1 PUSH2 0x2EAC JUMP JUMPDEST PUSH2 0xAB6 JUMP JUMPDEST STOP JUMPDEST CALLVALUE DUP1 ISZERO PUSH2 0x307 JUMPI PUSH0 DUP1 REVERT JUMPDEST POP PUSH2 0x310 PUSH2 0xAC6 JUMP JUMPDEST PUSH1 0x40 MLOAD PUSH2 0x31D SWAP2 SWAP1 PUSH2 0x2EF9 JUMP JUMPDEST PUSH1 0x40 MLOAD DUP1 SWAP2 SUB SWAP1 RETURN JUMPDEST CALLVALUE DUP1 ISZERO PUSH2 0x331 JUMPI PUSH0 DUP1 REVERT JUMPDEST POP PUSH2 0x33A PUSH2 0xB11 JUMP JUMPDEST PUSH1 0x40 MLOAD PUSH2 0x347 SWAP2 SWAP1 PUSH2 0x2D23 JUMP JUMPDEST PUSH1 0x40 MLOAD DUP1 SWAP2 SUB SWAP1 RETURN JUMPDEST PUSH2 0x36A PUSH1 0x4 DUP1 CALLDATASIZE SUB DUP2 ADD SWAP1 PUSH2 0x365 SWAP2 SWAP1 PUSH2 0x2F12 JUMP JUMPDEST PUSH2 0xB24 JUMP JUMPDEST STOP JUMPDEST PUSH2 0x386 PUSH1 0x4 DUP1 CALLDATASIZE SUB DUP2 ADD SWAP1 PUSH2 0x381 SWAP2 SWAP1 PUSH2 0x2DFF JUMP JUMPDEST PUSH2 0xDCF JUMP JUMPDEST STOP JUMPDEST CALLVALUE DUP1 ISZERO PUSH2 0x393 JUMPI PUSH0 DUP1 REVERT JUMPDEST POP PUSH2 0x39C PUSH2 0x1106 JUMP JUMPDEST PUSH1 0x40 MLOAD PUSH2 0x3A9 SWAP2 SWAP1 PUSH2 0x2EF9 JUMP JUMPDEST PUSH1 0x40 MLOAD DUP1 SWAP2 SUB SWAP1 RETURN JUMPDEST CALLVALUE DUP1 ISZERO PUSH2 0x3BD JUMPI PUSH0 DUP1 REVERT JUMPDEST POP PUSH2 0x3C6 PUSH2 0x110C JUMP JUMPDEST PUSH1 0x40 MLOAD PUSH2 0x3D3 SWAP2 SWAP1 PUSH2 0x2EF9 JUMP JUMPDEST PUSH1 0x40 MLOAD DUP1 SWAP2 SUB SWAP1 RETURN JUMPDEST CALLVALUE DUP1 ISZERO PUSH2 0x3E7 JUMPI PUSH0 DUP1 REVERT JUMPDEST POP PUSH2 0x3F0 PUSH2 0x1112 JUMP JUMPDEST PUSH1 0x40 MLOAD PUSH2 0x3FD SWAP2 SWAP1 PUSH2 0x2E69 JUMP JUMPDEST PUSH1 0x40 MLOAD DUP1 SWAP2 SUB SWAP1 RETURN JUMPDEST CALLVALUE DUP1 ISZERO PUSH2 0x411 JUMPI PUSH0 DUP1 REVERT JUMPDEST POP PUSH2 0x41A PUSH2 0x1137 JUMP JUMPDEST STOP JUMPDEST PUSH2 0x436 PUSH1 0x4 DUP1 CALLDATASIZE SUB DUP2 ADD SWAP1 PUSH2 0x431 SWAP2 SWAP1 PUSH2 0x2F12 JUMP JUMPDEST PUSH2 0x12C6 JUMP JUMPDEST STOP JUMPDEST CALLVALUE DUP1 ISZERO PUSH2 0x443 JUMPI PUSH0 DUP1 REVERT JUMPDEST POP PUSH2 0x45E PUSH1 0x4 DUP1 CALLDATASIZE SUB DUP2 ADD SWAP1 PUSH2 0x459 SWAP2 SWAP1 PUSH2 0x2F62 JUMP JUMPDEST PUSH2 0x12E5 JUMP JUMPDEST PUSH1 0x40 MLOAD PUSH2 0x46B SWAP2 SWAP1 PUSH2 0x2EF9 JUMP JUMPDEST PUSH1 0x40 MLOAD DUP1 SWAP2 SUB SWAP1 RETURN JUMPDEST CALLVALUE DUP1 ISZERO PUSH2 0x47F JUMPI PUSH0 DUP1 REVERT JUMPDEST POP PUSH2 0x49A PUSH1 0x4 DUP1 CALLDATASIZE SUB DUP2 ADD SWAP1 PUSH2 0x495 SWAP2 SWAP1 PUSH2 0x2F62 JUMP JUMPDEST PUSH2 0x12FA JUMP JUMPDEST STOP JUMPDEST CALLVALUE DUP1 ISZERO PUSH2 0x4A7 JUMPI PUSH0 DUP1 REVERT JUMPDEST POP PUSH2 0x4B0 PUSH2 0x13CC JUMP JUMPDEST STOP JUMPDEST CALLVALUE DUP1 ISZERO PUSH2 0x4BD JUMPI PUSH0 DUP1 REVERT JUMPDEST POP PUSH2 0x4D8 PUSH1 0x4 DUP1 CALLDATASIZE SUB DUP2 ADD SWAP1 PUSH2 0x4D3 SWAP2 SWAP1 PUSH2 0x2FEE JUMP JUMPDEST PUSH2 0x1485 JUMP JUMPDEST PUSH1 0x40 MLOAD PUSH2 0x4E5 SWAP2 SWAP1 PUSH2 0x3191 JUMP JUMPDEST PUSH1 0x40 MLOAD DUP1 SWAP2 SUB SWAP1 RETURN JUMPDEST CALLVALUE DUP1 ISZERO PUSH2 0x4F9 JUMPI PUSH0 DUP1 REVERT JUMPDEST POP PUSH2 0x514 PUSH1 0x4 DUP1 CALLDATASIZE SUB DUP2 ADD SWAP1 PUSH2 0x50F SWAP2 SWAP1 PUSH2 0x2DFF JUMP JUMPDEST PUSH2 0x14E1 JUMP JUMPDEST PUSH1 0x40 MLOAD PUSH2 0x521 SWAP2 SWAP1 PUSH2 0x2E69 JUMP JUMPDEST PUSH1 0x40 MLOAD DUP1 SWAP2 SUB SWAP1 RETURN JUMPDEST CALLVALUE DUP1 ISZERO PUSH2 0x535 JUMPI PUSH0 DUP1 REVERT JUMPDEST POP PUSH2 0x53E PUSH2 0x14F2 JUMP JUMPDEST STOP JUMPDEST CALLVALUE DUP1 ISZERO PUSH2 0x54B JUMPI PUSH0 DUP1 REVERT JUMPDEST POP PUSH2 0x566 PUSH1 0x4 DUP1 CALLDATASIZE SUB DUP2 ADD SWAP1 PUSH2 0x561 SWAP2 SWAP1 PUSH2 0x2DFF JUMP JUMPDEST PUSH2 0x15AD JUMP JUMPDEST STOP JUMPDEST CALLVALUE DUP1 ISZERO PUSH2 0x573 JUMPI PUSH0 DUP1 REVERT JUMPDEST POP PUSH2 0x58E PUSH1 0x4 DUP1 CALLDATASIZE SUB DUP2 ADD SWAP1 PUSH2 0x589 SWAP2 SWAP1 PUSH2 0x2F62 JUMP JUMPDEST PUSH2 0x1765 JUMP JUMPDEST PUSH1 0x40 MLOAD PUSH2 0x59B SWAP2 SWAP1 PUSH2 0x2EF9 JUMP JUMPDEST PUSH1 0x40 MLOAD DUP1 SWAP2 SUB SWAP1 RETURN JUMPDEST CALLVALUE DUP1 ISZERO PUSH2 0x5AF JUMPI PUSH0 DUP1 REVERT JUMPDEST POP PUSH2 0x5CA PUSH1 0x4 DUP1 CALLDATASIZE SUB DUP2 ADD SWAP1 PUSH2 0x5C5 SWAP2 SWAP1 PUSH2 0x3206 JUMP JUMPDEST PUSH2 0x17F9 JUMP JUMPDEST STOP JUMPDEST CALLVALUE DUP1 ISZERO PUSH2 0x5D7 JUMPI PUSH0 DUP1 REVERT JUMPDEST POP PUSH2 0x5F2 PUSH1 0x4 DUP1 CALLDATASIZE SUB DUP2 ADD SWAP1 PUSH2 0x5ED SWAP2 SWAP1 PUSH2 0x2DFF JUMP JUMPDEST PUSH2 0x1978 JUMP JUMPDEST PUSH1 0x40 MLOAD PUSH2 0x5FF SWAP2 SWAP1 PUSH2 0x3269 JUMP JUMPDEST PUSH1 0x40 MLOAD DUP1 SWAP2 SUB SWAP1 RETURN JUMPDEST CALLVALUE DUP1 ISZERO PUSH2 0x613 JUMPI PUSH0 DUP1 REVERT JUMPDEST POP PUSH2 0x62E PUSH1 0x4 DUP1 CALLDATASIZE SUB DUP2 ADD SWAP1 PUSH2 0x629 SWAP2 SWAP1 PUSH2 0x2DFF JUMP JUMPDEST PUSH2 0x198D JUMP JUMPDEST STOP JUMPDEST CALLVALUE DUP1 ISZERO PUSH2 0x63B JUMPI PUSH0 DUP1 REVERT JUMPDEST POP PUSH2 0x656 PUSH1 0x4 DUP1 CALLDATASIZE SUB DUP2 ADD SWAP1 PUSH2 0x651 SWAP2 SWAP1 PUSH2 0x2F62 JUMP JUMPDEST PUSH2 0x1C7E JUMP JUMPDEST PUSH1 0x40 MLOAD PUSH2 0x663 SWAP2 SWAP1 PUSH2 0x3339 JUMP JUMPDEST PUSH1 0x40 MLOAD DUP1 SWAP2 SUB SWAP1 RETURN JUMPDEST CALLVALUE DUP1 ISZERO PUSH2 0x677 JUMPI PUSH0 DUP1 REVERT JUMPDEST POP PUSH2 0x680 PUSH2 0x1CF7 JUMP JUMPDEST PUSH1 0x40 MLOAD PUSH2 0x68D SWAP2 SWAP1 PUSH2 0x2E69 JUMP JUMPDEST PUSH1 0x40 MLOAD DUP1 SWAP2 SUB SWAP1 RETURN JUMPDEST CALLVALUE DUP1 ISZERO PUSH2 0x6A1 JUMPI PUSH0 DUP1 REVERT JUMPDEST POP PUSH2 0x6AA PUSH2 0x1D1C JUMP JUMPDEST PUSH1 0x40 MLOAD PUSH2 0x6B7 SWAP2 SWAP1 PUSH2 0x2DAC JUMP JUMPDEST PUSH1 0x40 MLOAD DUP1 SWAP2 SUB SWAP1 RETURN JUMPDEST CALLVALUE DUP1 ISZERO PUSH2 0x6CB JUMPI PUSH0 DUP1 REVERT JUMPDEST POP PUSH2 0x6E6 PUSH1 0x4 DUP1 CALLDATASIZE SUB DUP2 ADD SWAP1 PUSH2 0x6E1 SWAP2 SWAP1 PUSH2 0x3359 JUMP JUMPDEST PUSH2 0x1DAC JUMP JUMPDEST PUSH1 0x40 MLOAD PUSH2 0x6F3 SWAP2 SWAP1 PUSH2 0x3339 JUMP JUMPDEST PUSH1 0x40 MLOAD DUP1 SWAP2 SUB SWAP1 RETURN JUMPDEST CALLVALUE DUP1 ISZERO PUSH2 0x707 JUMPI PUSH0 DUP1 REVERT JUMPDEST POP PUSH2 0x722 PUSH1 0x4 DUP1 CALLDATASIZE SUB DUP2 ADD SWAP1 PUSH2 0x71D SWAP2 SWAP1 PUSH2 0x33D3 JUMP JUMPDEST PUSH2 0x1DC2 JUMP JUMPDEST STOP JUMPDEST PUSH2 0x73E PUSH1 0x4 DUP1 CALLDATASIZE SUB DUP2 ADD SWAP1 PUSH2 0x739 SWAP2 SWAP1 PUSH2 0x3539 JUMP JUMPDEST PUSH2 0x1EC8 JUMP JUMPDEST STOP JUMPDEST CALLVALUE DUP1 ISZERO PUSH2 0x74B JUMPI PUSH0 DUP1 REVERT JUMPDEST POP PUSH2 0x754 PUSH2 0x1F19 JUMP JUMPDEST PUSH1 0x40 MLOAD PUSH2 0x761 SWAP2 SWAP1 PUSH2 0x2D23 JUMP JUMPDEST PUSH1 0x40 MLOAD DUP1 SWAP2 SUB SWAP1 RETURN JUMPDEST CALLVALUE DUP1 ISZERO PUSH2 0x775 JUMPI PUSH0 DUP1 REVERT JUMPDEST POP PUSH2 0x790 PUSH1 0x4 DUP1 CALLDATASIZE SUB DUP2 ADD SWAP1 PUSH2 0x78B SWAP2 SWAP1 PUSH2 0x2DFF JUMP JUMPDEST PUSH2 0x1F2B JUMP JUMPDEST PUSH1 0x40 MLOAD PUSH2 0x79D SWAP2 SWAP1 PUSH2 0x360C JUMP JUMPDEST PUSH1 0x40 MLOAD DUP1 SWAP2 SUB SWAP1 RETURN JUMPDEST CALLVALUE DUP1 ISZERO PUSH2 0x7B1 JUMPI PUSH0 DUP1 REVERT JUMPDEST POP PUSH2 0x7BA PUSH2 0x1FA0 JUMP JUMPDEST PUSH1 0x40 MLOAD PUSH2 0x7C7 SWAP2 SWAP1 PUSH2 0x2EF9 JUMP JUMPDEST PUSH1 0x40 MLOAD DUP1 SWAP2 SUB SWAP1 RETURN JUMPDEST CALLVALUE DUP1 ISZERO PUSH2 0x7DB JUMPI PUSH0 DUP1 REVERT JUMPDEST POP PUSH2 0x7F6 PUSH1 0x4 DUP1 CALLDATASIZE SUB DUP2 ADD SWAP1 PUSH2 0x7F1 SWAP2 SWAP1 PUSH2 0x2DFF JUMP JUMPDEST PUSH2 0x1FA6 JUMP JUMPDEST PUSH1 0x40 MLOAD PUSH2 0x803 SWAP2 SWAP1 PUSH2 0x2DAC JUMP JUMPDEST PUSH1 0x40 MLOAD DUP1 SWAP2 SUB SWAP1 RETURN JUMPDEST CALLVALUE DUP1 ISZERO PUSH2 0x817 JUMPI PUSH0 DUP1 REVERT JUMPDEST POP PUSH2 0x820 PUSH2 0x205E JUMP JUMPDEST PUSH1 0x40 MLOAD PUSH2 0x82D SWAP2 SWAP1 PUSH2 0x2D23 JUMP JUMPDEST PUSH1 0x40 MLOAD DUP1 SWAP2 SUB SWAP1 RETURN JUMPDEST CALLVALUE DUP1 ISZERO PUSH2 0x841 JUMPI PUSH0 DUP1 REVERT JUMPDEST POP PUSH2 0x85C PUSH1 0x4 DUP1 CALLDATASIZE SUB DUP2 ADD SWAP1 PUSH2 0x857 SWAP2 SWAP1 PUSH2 0x3625 JUMP JUMPDEST PUSH2 0x2071 JUMP JUMPDEST PUSH1 0x40 MLOAD PUSH2 0x869 SWAP2 SWAP1 PUSH2 0x2D23 JUMP JUMPDEST PUSH1 0x40 MLOAD DUP1 SWAP2 SUB SWAP1 RETURN JUMPDEST CALLVALUE DUP1 ISZERO PUSH2 0x87D JUMPI PUSH0 DUP1 REVERT JUMPDEST POP PUSH2 0x898 PUSH1 0x4 DUP1 CALLDATASIZE SUB DUP2 ADD SWAP1 PUSH2 0x893 SWAP2 SWAP1 PUSH2 0x2F62 JUMP JUMPDEST PUSH2 0x20FF JUMP JUMPDEST PUSH1 0x40 MLOAD PUSH2 0x8A5 SWAP2 SWAP1 PUSH2 0x2EF9 JUMP JUMPDEST PUSH1 0x40 MLOAD DUP1 SWAP2 SUB SWAP1 RETURN JUMPDEST CALLVALUE DUP1 ISZERO PUSH2 0x8B9 JUMPI PUSH0 DUP1 REVERT JUMPDEST POP PUSH2 0x8C2 PUSH2 0x2114 JUMP JUMPDEST PUSH1 0x40 MLOAD PUSH2 0x8CF SWAP2 SWAP1 PUSH2 0x2EF9 JUMP JUMPDEST PUSH1 0x40 MLOAD DUP1 SWAP2 SUB SWAP1 RETURN JUMPDEST CALLVALUE DUP1 ISZERO PUSH2 0x8E3 JUMPI PUSH0 DUP1 REVERT JUMPDEST POP PUSH2 0x8FE PUSH1 0x4 DUP1 CALLDATASIZE SUB DUP2 ADD SWAP1 PUSH2 0x8F9 SWAP2 SWAP1 PUSH2 0x2F62 JUMP JUMPDEST PUSH2 0x211A JUMP JUMPDEST STOP JUMPDEST CALLVALUE DUP1 ISZERO PUSH2 0x90B JUMPI PUSH0 DUP1 REVERT JUMPDEST POP PUSH2 0x926 PUSH1 0x4 DUP1 CALLDATASIZE SUB DUP2 ADD SWAP1 PUSH2 0x921 SWAP2 SWAP1 PUSH2 0x2F62 JUMP JUMPDEST PUSH2 0x2246 JUMP JUMPDEST PUSH1 0x40 MLOAD PUSH2 0x933 SWAP2 SWAP1 PUSH2 0x2D23 JUMP JUMPDEST PUSH1 0x40 MLOAD DUP1 SWAP2 SUB SWAP1 RETURN JUMPDEST PUSH0 PUSH4 0x1FFC9A7 PUSH1 0xE0 SHL DUP3 PUSH28 0xFFFFFFFFFFFFFFFFFFFFFFFFFFFFFFFFFFFFFFFFFFFFFFFFFFFFFFFF NOT AND EQ DUP1 PUSH2 0x996 JUMPI POP PUSH4 0x80AC58CD PUSH1 0xE0 SHL DUP3 PUSH28 0xFFFFFFFFFFFFFFFFFFFFFFFFFFFFFFFFFFFFFFFFFFFFFFFFFFFFFFFF NOT AND EQ JUMPDEST DUP1 PUSH2 0x9C6 JUMPI POP PUSH4 0x5B5E139F PUSH1 0xE0 SHL DUP3 PUSH28 0xFFFFFFFFFFFFFFFFFFFFFFFFFFFFFFFFFFFFFFFFFFFFFFFFFFFFFFFF NOT AND EQ JUMPDEST SWAP1 POP SWAP2 SWAP1 POP JUMP JUMPDEST PUSH1 0x60 PUSH1 0x2 DUP1 SLOAD PUSH2 0x9DC SWAP1 PUSH2 0x3690 JUMP JUMPDEST DUP1 PUSH1 0x1F ADD PUSH1 0x20 DUP1 SWAP2 DIV MUL PUSH1 0x20 ADD PUSH1 0x40 MLOAD SWAP1 DUP2 ADD PUSH1 0x40 MSTORE DUP1 SWAP3 SWAP2 SWAP1 DUP2 DUP2 MSTORE PUSH1 0x20 ADD DUP3 DUP1 SLOAD PUSH2 0xA08 SWAP1 PUSH2 0x3690 JUMP JUMPDEST DUP1 ISZERO PUSH2 0xA53 JUMPI DUP1 PUSH1 0x1F LT PUSH2 0xA2A JUMPI PUSH2 0x100 DUP1 DUP4 SLOAD DIV MUL DUP4 MSTORE SWAP2 PUSH1 0x20 ADD SWAP2 PUSH2 0xA53 JUMP JUMPDEST DUP3 ADD SWAP2 SWAP1 PUSH0 MSTORE PUSH1 0x20 PUSH0 KECCAK256 SWAP1 JUMPDEST DUP2 SLOAD DUP2 MSTORE SWAP1 PUSH1 0x1 ADD SWAP1 PUSH1 0x20 ADD DUP1 DUP4 GT PUSH2 0xA36 JUMPI DUP3 SWAP1 SUB PUSH1 0x1F AND DUP3 ADD SWAP2 JUMPDEST POP POP POP POP POP SWAP1 POP SWAP1 JUMP JUMPDEST PUSH0 PUSH2 0xA67 DUP3 PUSH2 0x2263 JUMP JUMPDEST PUSH2 0xA7C JUMPI PUSH2 0xA7B PUSH4 0xCF4700E4 PUSH1 0xE0 SHL PUSH2 0x2306 JUMP JUMPDEST JUMPDEST PUSH1 0x6 PUSH0 DUP4 DUP2 MSTORE PUSH1 0x20 ADD SWAP1 DUP2 MSTORE PUSH1 0x20 ADD PUSH0 KECCAK256 PUSH0 ADD PUSH0 SWAP1 SLOAD SWAP1 PUSH2 0x100 EXP SWAP1 DIV PUSH20 0xFFFFFFFFFFFFFFFFFFFFFFFFFFFFFFFFFFFFFFFF AND SWAP1 POP SWAP2 SWAP1 POP JUMP JUMPDEST PUSH2 0xAC2 DUP3 DUP3 PUSH1 0x1 PUSH2 0x230E JUMP JUMPDEST POP POP JUMP JUMPDEST PUSH0 PUSH2 0xACF PUSH2 0x2438 JUMP JUMPDEST PUSH1 0x1 SLOAD PUSH0 SLOAD SUB SUB SWAP1 POP PUSH32 0xFFFFFFFFFFFFFFFFFFFFFFFFFFFFFFFFFFFFFFFFFFFFFFFFFFFFFFFFFFFFFFFF PUSH2 0xB01 PUSH2 0x2440 JUMP JUMPDEST EQ PUSH2 0xB0E JUMPI PUSH1 0x8 SLOAD DUP2 ADD SWAP1 POP JUMPDEST SWAP1 JUMP JUMPDEST PUSH1 0x10 PUSH1 0x2 SWAP1 SLOAD SWAP1 PUSH2 0x100 EXP SWAP1 DIV PUSH1 0xFF AND DUP2 JUMP JUMPDEST PUSH0 PUSH2 0xB2E DUP3 PUSH2 0x2467 JUMP JUMPDEST SWAP1 POP PUSH20 0xFFFFFFFFFFFFFFFFFFFFFFFFFFFFFFFFFFFFFFFF DUP5 PUSH20 0xFFFFFFFFFFFFFFFFFFFFFFFFFFFFFFFFFFFFFFFF AND AND SWAP4 POP DUP4 PUSH20 0xFFFFFFFFFFFFFFFFFFFFFFFFFFFFFFFFFFFFFFFF AND DUP2 PUSH20 0xFFFFFFFFFFFFFFFFFFFFFFFFFFFFFFFFFFFFFFFF AND EQ PUSH2 0xBA3 JUMPI PUSH2 0xBA2 PUSH4 0xA1148100 PUSH1 0xE0 SHL PUSH2 0x2306 JUMP JUMPDEST JUMPDEST PUSH0 DUP1 PUSH2 0xBAE DUP5 PUSH2 0x2576 JUMP JUMPDEST SWAP2 POP SWAP2 POP PUSH2 0xBC4 DUP2 DUP8 PUSH2 0xBBF PUSH2 0x2599 JUMP JUMPDEST PUSH2 0x25A0 JUMP JUMPDEST PUSH2 0xBEF JUMPI PUSH2 0xBD9 DUP7 PUSH2 0xBD4 PUSH2 0x2599 JUMP JUMPDEST PUSH2 0x2071 JUMP JUMPDEST PUSH2 0xBEE JUMPI PUSH2 0xBED PUSH4 0x59C896BE PUSH1 0xE0 SHL PUSH2 0x2306 JUMP JUMPDEST JUMPDEST JUMPDEST PUSH2 0xBFC DUP7 DUP7 DUP7 PUSH1 0x1 PUSH2 0x25E3 JUMP JUMPDEST DUP1 ISZERO PUSH2 0xC06 JUMPI PUSH0 DUP3 SSTORE JUMPDEST PUSH1 0x5 PUSH0 DUP8 PUSH20 0xFFFFFFFFFFFFFFFFFFFFFFFFFFFFFFFFFFFFFFFF AND PUSH20 0xFFFFFFFFFFFFFFFFFFFFFFFFFFFFFFFFFFFFFFFF AND DUP2 MSTORE PUSH1 0x20 ADD SWAP1 DUP2 MSTORE PUSH1 0x20 ADD PUSH0 KECCAK256 PUSH0 DUP2 SLOAD PUSH1 0x1 SWAP1 SUB SWAP2 SWAP1 POP DUP2 SWAP1 SSTORE POP PUSH1 0x5 PUSH0 DUP7 PUSH20 0xFFFFFFFFFFFFFFFFFFFFFFFFFFFFFFFFFFFFFFFF AND PUSH20 0xFFFFFFFFFFFFFFFFFFFFFFFFFFFFFFFFFFFFFFFF AND DUP2 MSTORE PUSH1 0x20 ADD SWAP1 DUP2 MSTORE PUSH1 0x20 ADD PUSH0 KECCAK256 PUSH0 DUP2 SLOAD PUSH1 0x1 ADD SWAP2 SWAP1 POP DUP2 SWAP1 SSTORE POP PUSH2 0xCCE DUP6 PUSH2 0xCAA DUP9 DUP9 DUP8 PUSH2 0x25E9 JUMP JUMPDEST PUSH29 0x200000000000000000000000000000000000000000000000000000000 OR PUSH2 0x2610 JUMP JUMPDEST PUSH1 0x4 PUSH0 DUP7 DUP2 MSTORE PUSH1 0x20 ADD SWAP1 DUP2 MSTORE PUSH1 0x20 ADD PUSH0 KECCAK256 DUP2 SWAP1 SSTORE POP PUSH0 PUSH29 0x200000000000000000000000000000000000000000000000000000000 DUP5 AND SUB PUSH2 0xD4A JUMPI PUSH0 PUSH1 0x1 DUP6 ADD SWAP1 POP PUSH0 PUSH1 0x4 PUSH0 DUP4 DUP2 MSTORE PUSH1 0x20 ADD SWAP1 DUP2 MSTORE PUSH1 0x20 ADD PUSH0 KECCAK256 SLOAD SUB PUSH2 0xD48 JUMPI PUSH0 SLOAD DUP2 EQ PUSH2 0xD47 JUMPI DUP4 PUSH1 0x4 PUSH0 DUP4 DUP2 MSTORE PUSH1 0x20 ADD SWAP1 DUP2 MSTORE PUSH1 0x20 ADD PUSH0 KECCAK256 DUP2 SWAP1 SSTORE POP JUMPDEST JUMPDEST POP JUMPDEST PUSH0 PUSH20 0xFFFFFFFFFFFFFFFFFFFFFFFFFFFFFFFFFFFFFFFF DUP7 PUSH20 0xFFFFFFFFFFFFFFFFFFFFFFFFFFFFFFFFFFFFFFFF AND AND SWAP1 POP DUP5 DUP2 DUP9 PUSH32 0xDDF252AD1BE2C89B69C2B068FC378DAA952BA7F163C4A11628F55A4DF523B3EF PUSH0 DUP1 LOG4 PUSH0 DUP2 SUB PUSH2 0xDB9 JUMPI PUSH2 0xDB8 PUSH4 0xEA553B34 PUSH1 0xE0 SHL PUSH2 0x2306 JUMP JUMPDEST JUMPDEST PUSH2 0xDC6 DUP8 DUP8 DUP8 PUSH1 0x1 PUSH2 0x263A JUMP JUMPDEST POP POP POP POP POP POP POP JUMP JUMPDEST PUSH1 0x1 PUSH1 0xA SLOAD EQ PUSH2 0xE14 JUMPI PUSH1 0x40 MLOAD PUSH32 0x8C379A000000000000000000000000000000000000000000000000000000000 DUP2 MSTORE PUSH1 0x4 ADD PUSH2 0xE0B SWAP1 PUSH2 0x370A JUMP JUMPDEST PUSH1 0x40 MLOAD DUP1 SWAP2 SUB SWAP1 REVERT JUMPDEST PUSH1 0x2 PUSH1 0xA DUP2 SWAP1 SSTORE POP PUSH1 0x1 PUSH1 0x10 PUSH1 0x2 PUSH2 0x100 EXP DUP2 SLOAD DUP2 PUSH1 0xFF MUL NOT AND SWAP1 DUP4 ISZERO ISZERO MUL OR SWAP1 SSTORE PUSH2 0xE75 JUMPI PUSH1 0x40 MLOAD PUSH32 0x8C379A000000000000000000000000000000000000000000000000000000000 DUP2 MSTORE PUSH1 0x4 ADD PUSH2 0xE6C SWAP1 PUSH2 0x3772 JUMP JUMPDEST PUSH1 0x40 MLOAD DUP1 SWAP2 SUB SWAP1 REVERT JUMPDEST PUSH1 0x4 DUP2 PUSH1 0x15 PUSH0 CALLER PUSH20 0xFFFFFFFFFFFFFFFFFFFFFFFFFFFFFFFFFFFFFFFF AND PUSH20 0xFFFFFFFFFFFFFFFFFFFFFFFFFFFFFFFFFFFFFFFF AND DUP2 MSTORE PUSH1 0x20 ADD SWAP1 DUP2 MSTORE PUSH1 0x20 ADD PUSH0 KECCAK256 SLOAD PUSH2 0xEC0 SWAP2 SWAP1 PUSH2 0x37BD JUMP JUMPDEST GT ISZERO PUSH2 0xEF8 JUMPI PUSH1 0x40 MLOAD PUSH32 0x58C7943400000000000000000000000000000000000000000000000000000000 DUP2 MSTORE PUSH1 0x4 ADD PUSH1 0x40 MLOAD DUP1 SWAP2 SUB SWAP1 REVERT JUMPDEST DUP1 PUSH1 0x15 PUSH0 CALLER PUSH20 0xFFFFFFFFFFFFFFFFFFFFFFFFFFFFFFFFFFFFFFFF AND PUSH20 0xFFFFFFFFFFFFFFFFFFFFFFFFFFFFFFFFFFFFFFFF AND DUP2 MSTORE PUSH1 0x20 ADD SWAP1 DUP2 MSTORE PUSH1 0x20 ADD PUSH0 KECCAK256 PUSH0 DUP3 DUP3 SLOAD PUSH2 0xF44 SWAP2 SWAP1 PUSH2 0x37BD JUMP JUMPDEST SWAP3 POP POP DUP2 SWAP1 SSTORE POP PUSH0 PUSH2 0xF54 PUSH2 0x2640 JUMP JUMPDEST SWAP1 POP PUSH1 0xC SLOAD DUP2 SUB PUSH2 0xF91 JUMPI PUSH1 0x40 MLOAD PUSH32 0x52DF9FE500000000000000000000000000000000000000000000000000000000 DUP2 MSTORE PUSH1 0x4 ADD PUSH1 0x40 MLOAD DUP1 SWAP2 SUB SWAP1 REVERT JUMPDEST PUSH0 DUP3 GT PUSH2 0xFCA JUMPI PUSH1 0x40 MLOAD PUSH32 0xD43E607500000000000000000000000000000000000000000000000000000000 DUP2 MSTORE PUSH1 0x4 ADD PUSH1 0x40 MLOAD DUP1 SWAP2 SUB SWAP1 REVERT JUMPDEST PUSH0 DUP3 DUP3 PUSH2 0xFD7 SWAP2 SWAP1 PUSH2 0x37BD JUMP JUMPDEST SWAP1 POP PUSH1 0xC SLOAD DUP2 GT ISZERO PUSH2 0x1015 JUMPI PUSH1 0x40 MLOAD PUSH32 0x3FFC0DA600000000000000000000000000000000000000000000000000000000 DUP2 MSTORE PUSH1 0x4 ADD PUSH1 0x40 MLOAD DUP1 SWAP2 SUB SWAP1 REVERT JUMPDEST PUSH0 PUSH1 0xE SLOAD DUP5 PUSH2 0x1024 SWAP2 SWAP1 PUSH2 0x37F0 JUMP JUMPDEST SWAP1 POP DUP1 CALLVALUE LT ISZERO PUSH2 0x1060 JUMPI PUSH1 0x40 MLOAD PUSH32 0x356680B700000000000000000000000000000000000000000000000000000000 DUP2 MSTORE PUSH1 0x4 ADD PUSH1 0x40 MLOAD DUP1 SWAP2 SUB SWAP1 REVERT JUMPDEST PUSH0 PUSH2 0x1069 PUSH2 0x2687 JUMP JUMPDEST SWAP1 POP PUSH0 PUSH1 0x1 DUP7 DUP4 PUSH2 0x107A SWAP2 SWAP1 PUSH2 0x37BD JUMP JUMPDEST PUSH2 0x1084 SWAP2 SWAP1 PUSH2 0x3831 JUMP JUMPDEST SWAP1 POP JUMPDEST DUP1 DUP3 GT PUSH2 0x10EC JUMPI PUSH1 0x1 NUMBER PUSH2 0x109B SWAP2 SWAP1 PUSH2 0x3831 JUMP JUMPDEST BLOCKHASH DUP3 PUSH1 0x40 MLOAD PUSH1 0x20 ADD PUSH2 0x10AE SWAP3 SWAP2 SWAP1 PUSH2 0x38A4 JUMP JUMPDEST PUSH1 0x40 MLOAD PUSH1 0x20 DUP2 DUP4 SUB SUB DUP2 MSTORE SWAP1 PUSH1 0x40 MSTORE DUP1 MLOAD SWAP1 PUSH1 0x20 ADD KECCAK256 PUSH1 0x11 PUSH0 DUP5 DUP2 MSTORE PUSH1 0x20 ADD SWAP1 DUP2 MSTORE PUSH1 0x20 ADD PUSH0 KECCAK256 DUP2 SWAP1 SSTORE POP DUP2 DUP1 PUSH2 0x10E4 SWAP1 PUSH2 0x38CF JUMP JUMPDEST SWAP3 POP POP PUSH2 0x1087 JUMP JUMPDEST PUSH2 0x10F6 CALLER DUP8 PUSH2 0x268F JUMP JUMPDEST POP POP POP POP POP PUSH1 0x1 PUSH1 0xA DUP2 SWAP1 SSTORE POP POP JUMP JUMPDEST PUSH1 0xD SLOAD DUP2 JUMP JUMPDEST PUSH1 0xC SLOAD DUP2 JUMP JUMPDEST PUSH1 0x14 PUSH0 SWAP1 SLOAD SWAP1 PUSH2 0x100 EXP SWAP1 DIV PUSH20 0xFFFFFFFFFFFFFFFFFFFFFFFFFFFFFFFFFFFFFFFF AND DUP2 JUMP JUMPDEST PUSH1 0x9 PUSH0 SWAP1 SLOAD SWAP1 PUSH2 0x100 EXP SWAP1 DIV PUSH20 0xFFFFFFFFFFFFFFFFFFFFFFFFFFFFFFFFFFFFFFFF AND PUSH20 0xFFFFFFFFFFFFFFFFFFFFFFFFFFFFFFFFFFFFFFFF AND CALLER PUSH20 0xFFFFFFFFFFFFFFFFFFFFFFFFFFFFFFFFFFFFFFFF AND EQ PUSH2 0x11C6 JUMPI PUSH1 0x40 MLOAD PUSH32 0x8C379A000000000000000000000000000000000000000000000000000000000 DUP2 MSTORE PUSH1 0x4 ADD PUSH2 0x11BD SWAP1 PUSH2 0x3960 JUMP JUMPDEST PUSH1 0x40 MLOAD DUP1 SWAP2 SUB SWAP1 REVERT JUMPDEST PUSH1 0x1 PUSH1 0xA SLOAD EQ PUSH2 0x120B JUMPI PUSH1 0x40 MLOAD PUSH32 0x8C379A000000000000000000000000000000000000000000000000000000000 DUP2 MSTORE PUSH1 0x4 ADD PUSH2 0x1202 SWAP1 PUSH2 0x370A JUMP JUMPDEST PUSH1 0x40 MLOAD DUP1 SWAP2 SUB SWAP1 REVERT JUMPDEST PUSH1 0x2 PUSH1 0xA DUP2 SWAP1 SSTORE POP PUSH0 CALLER PUSH20 0xFFFFFFFFFFFFFFFFFFFFFFFFFFFFFFFFFFFFFFFF AND SELFBALANCE PUSH1 0x40 MLOAD PUSH2 0x1238 SWAP1 PUSH2 0x39AB JUMP JUMPDEST PUSH0 PUSH1 0x40 MLOAD DUP1 DUP4 SUB DUP2 DUP6 DUP8 GAS CALL SWAP3 POP POP POP RETURNDATASIZE DUP1 PUSH0 DUP2 EQ PUSH2 0x1272 JUMPI PUSH1 0x40 MLOAD SWAP2 POP PUSH1 0x1F NOT PUSH1 0x3F RETURNDATASIZE ADD AND DUP3 ADD PUSH1 0x40 MSTORE RETURNDATASIZE DUP3 MSTORE RETURNDATASIZE PUSH0 PUSH1 0x20 DUP5 ADD RETURNDATACOPY PUSH2 0x1277 JUMP JUMPDEST PUSH1 0x60 SWAP2 POP JUMPDEST POP POP SWAP1 POP DUP1 PUSH2 0x12BB JUMPI PUSH1 0x40 MLOAD PUSH32 0x8C379A000000000000000000000000000000000000000000000000000000000 DUP2 MSTORE PUSH1 0x4 ADD PUSH2 0x12B2 SWAP1 PUSH2 0x3A09 JUMP JUMPDEST PUSH1 0x40 MLOAD DUP1 SWAP2 SUB SWAP1 REVERT JUMPDEST POP PUSH1 0x1 PUSH1 0xA DUP2 SWAP1 SSTORE POP JUMP JUMPDEST PUSH2 0x12E0 DUP4 DUP4 DUP4 PUSH1 0x40 MLOAD DUP1 PUSH1 0x20 ADD PUSH1 0x40 MSTORE DUP1 PUSH0 DUP2 MSTORE POP PUSH2 0x1EC8 JUMP JUMPDEST POP POP POP JUMP JUMPDEST PUSH1 0x15 PUSH1 0x20 MSTORE DUP1 PUSH0 MSTORE PUSH1 0x40 PUSH0 KECCAK256 PUSH0 SWAP2 POP SWAP1 POP SLOAD DUP2 JUMP JUMPDEST PUSH1 0x9 PUSH0 SWAP1 SLOAD SWAP1 PUSH2 0x100 EXP SWAP1 DIV PUSH20 0xFFFFFFFFFFFFFFFFFFFFFFFFFFFFFFFFFFFFFFFF AND PUSH20 0xFFFFFFFFFFFFFFFFFFFFFFFFFFFFFFFFFFFFFFFF AND CALLER PUSH20 0xFFFFFFFFFFFFFFFFFFFFFFFFFFFFFFFFFFFFFFFF AND EQ PUSH2 0x1389 JUMPI PUSH1 0x40 MLOAD PUSH32 0x8C379A000000000000000000000000000000000000000000000000000000000 DUP2 MSTORE PUSH1 0x4 ADD PUSH2 0x1380 SWAP1 PUSH2 0x3960 JUMP JUMPDEST PUSH1 0x40 MLOAD DUP1 SWAP2 SUB SWAP1 REVERT JUMPDEST DUP1 PUSH1 0x14 PUSH0 PUSH2 0x100 EXP DUP2 SLOAD DUP2 PUSH20 0xFFFFFFFFFFFFFFFFFFFFFFFFFFFFFFFFFFFFFFFF MUL NOT AND SWAP1 DUP4 PUSH20 0xFFFFFFFFFFFFFFFFFFFFFFFFFFFFFFFFFFFFFFFF AND MUL OR SWAP1 SSTORE POP POP JUMP JUMPDEST PUSH1 0x9 PUSH0 SWAP1 SLOAD SWAP1 PUSH2 0x100 EXP SWAP1 DIV PUSH20 0xFFFFFFFFFFFFFFFFFFFFFFFFFFFFFFFFFFFFFFFF AND PUSH20 0xFFFFFFFFFFFFFFFFFFFFFFFFFFFFFFFFFFFFFFFF AND CALLER PUSH20 0xFFFFFFFFFFFFFFFFFFFFFFFFFFFFFFFFFFFFFFFF AND EQ PUSH2 0x145B JUMPI PUSH1 0x40 MLOAD PUSH32 0x8C379A000000000000000000000000000000000000000000000000000000000 DUP2 MSTORE PUSH1 0x4 ADD PUSH2 0x1452 SWAP1 PUSH2 0x3960 JUMP JUMPDEST PUSH1 0x40 MLOAD DUP1 SWAP2 SUB SWAP1 REVERT JUMPDEST PUSH1 0x10 PUSH0 SWAP1 SLOAD SWAP1 PUSH2 0x100 EXP SWAP1 DIV PUSH1 0xFF AND ISZERO PUSH1 0x10 PUSH0 PUSH2 0x100 EXP DUP2 SLOAD DUP2 PUSH1 0xFF MUL NOT AND SWAP1 DUP4 ISZERO ISZERO MUL OR SWAP1 SSTORE POP JUMP JUMPDEST PUSH1 0x60 DUP1 PUSH0 DUP5 DUP5 SWAP1 POP SWAP1 POP PUSH1 0x40 MLOAD SWAP2 POP DUP1 DUP3 MSTORE DUP1 PUSH1 0x5 SHL SWAP1 POP DUP1 PUSH1 0x20 DUP4 ADD ADD PUSH1 0x40 MSTORE JUMPDEST PUSH0 DUP2 EQ PUSH2 0x14D6 JUMPI PUSH0 PUSH1 0x20 DUP3 SUB SWAP2 POP DUP2 DUP7 ADD CALLDATALOAD SWAP1 POP PUSH0 PUSH2 0x14C5 DUP3 PUSH2 0x1F2B JUMP JUMPDEST SWAP1 POP DUP1 DUP4 PUSH1 0x20 DUP7 ADD ADD MSTORE POP POP PUSH2 0x14A7 JUMP JUMPDEST DUP2 SWAP3 POP POP POP SWAP3 SWAP2 POP POP JUMP JUMPDEST PUSH0 PUSH2 0x14EB DUP3 PUSH2 0x2467 JUMP JUMPDEST SWAP1 POP SWAP2 SWAP1 POP JUMP JUMPDEST PUSH1 0x9 PUSH0 SWAP1 SLOAD SWAP1 PUSH2 0x100 EXP SWAP1 DIV PUSH20 0xFFFFFFFFFFFFFFFFFFFFFFFFFFFFFFFFFFFFFFFF AND PUSH20 0xFFFFFFFFFFFFFFFFFFFFFFFFFFFFFFFFFFFFFFFF AND CALLER PUSH20 0xFFFFFFFFFFFFFFFFFFFFFFFFFFFFFFFFFFFFFFFF AND EQ PUSH2 0x1581 JUMPI PUSH1 0x40 MLOAD PUSH32 0x8C379A000000000000000000000000000000000000000000000000000000000 DUP2 MSTORE PUSH1 0x4 ADD PUSH2 0x1578 SWAP1 PUSH2 0x3960 JUMP JUMPDEST PUSH1 0x40 MLOAD DUP1 SWAP2 SUB SWAP1 REVERT JUMPDEST PUSH1 0x10 PUSH1 0x2 SWAP1 SLOAD SWAP1 PUSH2 0x100 EXP SWAP1 DIV PUSH1 0xFF AND ISZERO PUSH1 0x10 PUSH1 0x2 PUSH2 0x100 EXP DUP2 SLOAD DUP2 PUSH1 0xFF MUL NOT AND SWAP1 DUP4 ISZERO ISZERO MUL OR SWAP1 SSTORE POP JUMP JUMPDEST PUSH1 0x9 PUSH0 SWAP1 SLOAD SWAP1 PUSH2 0x100 EXP SWAP1 DIV PUSH20 0xFFFFFFFFFFFFFFFFFFFFFFFFFFFFFFFFFFFFFFFF AND PUSH20 0xFFFFFFFFFFFFFFFFFFFFFFFFFFFFFFFFFFFFFFFF AND CALLER PUSH20 0xFFFFFFFFFFFFFFFFFFFFFFFFFFFFFFFFFFFFFFFF AND EQ PUSH2 0x163C JUMPI PUSH1 0x40 MLOAD PUSH32 0x8C379A000000000000000000000000000000000000000000000000000000000 DUP2 MSTORE PUSH1 0x4 ADD PUSH2 0x1633 SWAP1 PUSH2 0x3960 JUMP JUMPDEST PUSH1 0x40 MLOAD DUP1 SWAP2 SUB SWAP1 REVERT JUMPDEST PUSH1 0x1 PUSH1 0xA SLOAD EQ PUSH2 0x1681 JUMPI PUSH1 0x40 MLOAD PUSH32 0x8C379A000000000000000000000000000000000000000000000000000000000 DUP2 MSTORE PUSH1 0x4 ADD PUSH2 0x1678 SWAP1 PUSH2 0x370A JUMP JUMPDEST PUSH1 0x40 MLOAD DUP1 SWAP2 SUB SWAP1 REVERT JUMPDEST PUSH1 0x2 PUSH1 0xA DUP2 SWAP1 SSTORE POP PUSH0 DUP2 GT PUSH2 0x16C2 JUMPI PUSH1 0x40 MLOAD PUSH32 0xD43E607500000000000000000000000000000000000000000000000000000000 DUP2 MSTORE PUSH1 0x4 ADD PUSH1 0x40 MLOAD DUP1 SWAP2 SUB SWAP1 REVERT JUMPDEST PUSH0 PUSH2 0x16CB PUSH2 0x2687 JUMP JUMPDEST SWAP1 POP PUSH0 PUSH1 0x1 DUP4 DUP4 PUSH2 0x16DC SWAP2 SWAP1 PUSH2 0x37BD JUMP JUMPDEST PUSH2 0x16E6 SWAP2 SWAP1 PUSH2 0x3831 JUMP JUMPDEST SWAP1 POP JUMPDEST DUP1 DUP3 GT PUSH2 0x174E JUMPI PUSH1 0x1 NUMBER PUSH2 0x16FD SWAP2 SWAP1 PUSH2 0x3831 JUMP JUMPDEST BLOCKHASH DUP3 PUSH1 0x40 MLOAD PUSH1 0x20 ADD PUSH2 0x1710 SWAP3 SWAP2 SWAP1 PUSH2 0x38A4 JUMP JUMPDEST PUSH1 0x40 MLOAD PUSH1 0x20 DUP2 DUP4 SUB SUB DUP2 MSTORE SWAP1 PUSH1 0x40 MSTORE DUP1 MLOAD SWAP1 PUSH1 0x20 ADD KECCAK256 PUSH1 0x11 PUSH0 DUP5 DUP2 MSTORE PUSH1 0x20 ADD SWAP1 DUP2 MSTORE PUSH1 0x20 ADD PUSH0 KECCAK256 DUP2 SWAP1 SSTORE POP DUP2 DUP1 PUSH2 0x1746 SWAP1 PUSH2 0x38CF JUMP JUMPDEST SWAP3 POP POP PUSH2 0x16E9 JUMP JUMPDEST PUSH2 0x1758 CALLER DUP5 PUSH2 0x268F JUMP JUMPDEST POP POP PUSH1 0x1 PUSH1 0xA DUP2 SWAP1 SSTORE POP POP JUMP JUMPDEST PUSH0 DUP1 PUSH20 0xFFFFFFFFFFFFFFFFFFFFFFFFFFFFFFFFFFFFFFFF AND DUP3 PUSH20 0xFFFFFFFFFFFFFFFFFFFFFFFFFFFFFFFFFFFFFFFF AND SUB PUSH2 0x17AA JUMPI PUSH2 0x17A9 PUSH4 0x8F4EB604 PUSH1 0xE0 SHL PUSH2 0x2306 JUMP JUMPDEST JUMPDEST PUSH8 0xFFFFFFFFFFFFFFFF PUSH1 0x5 PUSH0 DUP5 PUSH20 0xFFFFFFFFFFFFFFFFFFFFFFFFFFFFFFFFFFFFFFFF AND PUSH20 0xFFFFFFFFFFFFFFFFFFFFFFFFFFFFFFFFFFFFFFFF AND DUP2 MSTORE PUSH1 0x20 ADD SWAP1 DUP2 MSTORE PUSH1 0x20 ADD PUSH0 KECCAK256 SLOAD AND SWAP1 POP SWAP2 SWAP1 POP JUMP JUMPDEST PUSH1 0x14 PUSH0 SWAP1 SLOAD SWAP1 PUSH2 0x100 EXP SWAP1 DIV PUSH20 0xFFFFFFFFFFFFFFFFFFFFFFFFFFFFFFFFFFFFFFFF AND PUSH20 0xFFFFFFFFFFFFFFFFFFFFFFFFFFFFFFFFFFFFFFFF AND CALLER PUSH20 0xFFFFFFFFFFFFFFFFFFFFFFFFFFFFFFFFFFFFFFFF AND EQ PUSH2 0x1888 JUMPI PUSH1 0x40 MLOAD PUSH32 0x8C379A000000000000000000000000000000000000000000000000000000000 DUP2 MSTORE PUSH1 0x4 ADD PUSH2 0x187F SWAP1 PUSH2 0x3A71 JUMP JUMPDEST PUSH1 0x40 MLOAD DUP1 SWAP2 SUB SWAP1 REVERT JUMPDEST PUSH1 0x1 PUSH1 0xA SLOAD EQ PUSH2 0x18CD JUMPI PUSH1 0x40 MLOAD PUSH32 0x8C379A000000000000000000000000000000000000000000000000000000000 DUP2 MSTORE PUSH1 0x4 ADD PUSH2 0x18C4 SWAP1 PUSH2 0x370A JUMP JUMPDEST PUSH1 0x40 MLOAD DUP1 SWAP2 SUB SWAP1 REVERT JUMPDEST PUSH1 0x2 PUSH1 0xA DUP2 SWAP1 SSTORE POP PUSH0 JUMPDEST DUP3 DUP3 SWAP1 POP DUP2 LT ISZERO PUSH2 0x196B JUMPI PUSH1 0x1 PUSH1 0x13 PUSH0 DUP6 DUP6 DUP6 DUP2 DUP2 LT PUSH2 0x18FA JUMPI PUSH2 0x18F9 PUSH2 0x3A8F JUMP JUMPDEST JUMPDEST SWAP1 POP PUSH1 0x20 MUL ADD PUSH1 0x20 DUP2 ADD SWAP1 PUSH2 0x190F SWAP2 SWAP1 PUSH2 0x2F62 JUMP JUMPDEST PUSH20 0xFFFFFFFFFFFFFFFFFFFFFFFFFFFFFFFFFFFFFFFF AND PUSH20 0xFFFFFFFFFFFFFFFFFFFFFFFFFFFFFFFFFFFFFFFF AND DUP2 MSTORE PUSH1 0x20 ADD SWAP1 DUP2 MSTORE PUSH1 0x20 ADD PUSH0 KECCAK256 PUSH0 PUSH2 0x100 EXP DUP2 SLOAD DUP2 PUSH1 0xFF MUL NOT AND SWAP1 DUP4 ISZERO ISZERO MUL OR SWAP1 SSTORE POP DUP1 DUP1 PUSH1 0x1 ADD SWAP2 POP POP PUSH2 0x18D7 JUMP JUMPDEST POP PUSH1 0x1 PUSH1 0xA DUP2 SWAP1 SSTORE POP POP POP JUMP JUMPDEST PUSH1 0x11 PUSH1 0x20 MSTORE DUP1 PUSH0 MSTORE PUSH1 0x40 PUSH0 KECCAK256 PUSH0 SWAP2 POP SWAP1 POP SLOAD DUP2 JUMP JUMPDEST PUSH1 0x1 PUSH1 0xA SLOAD EQ PUSH2 0x19D2 JUMPI PUSH1 0x40 MLOAD PUSH32 0x8C379A000000000000000000000000000000000000000000000000000000000 DUP2 MSTORE PUSH1 0x4 ADD PUSH2 0x19C9 SWAP1 PUSH2 0x370A JUMP JUMPDEST PUSH1 0x40 MLOAD DUP1 SWAP2 SUB SWAP1 REVERT JUMPDEST PUSH1 0x2 PUSH1 0xA DUP2 SWAP1 SSTORE POP PUSH1 0x1 PUSH1 0x10 PUSH0 PUSH2 0x100 EXP DUP2 SLOAD DUP2 PUSH1 0xFF MUL NOT AND SWAP1 DUP4 ISZERO ISZERO MUL OR SWAP1 SSTORE PUSH2 0x1A32 JUMPI PUSH1 0x40 MLOAD PUSH32 0x8C379A000000000000000000000000000000000000000000000000000000000 DUP2 MSTORE PUSH1 0x4 ADD PUSH2 0x1A29 SWAP1 PUSH2 0x3B06 JUMP JUMPDEST PUSH1 0x40 MLOAD DUP1 SWAP2 SUB SWAP1 REVERT JUMPDEST PUSH1 0x1 ISZERO ISZERO PUSH1 0x13 PUSH0 CALLER PUSH20 0xFFFFFFFFFFFFFFFFFFFFFFFFFFFFFFFFFFFFFFFF AND PUSH20 0xFFFFFFFFFFFFFFFFFFFFFFFFFFFFFFFFFFFFFFFF AND DUP2 MSTORE PUSH1 0x20 ADD SWAP1 DUP2 MSTORE PUSH1 0x20 ADD PUSH0 KECCAK256 PUSH0 SWAP1 SLOAD SWAP1 PUSH2 0x100 EXP SWAP1 DIV PUSH1 0xFF AND ISZERO ISZERO EQ PUSH2 0x1AC2 JUMPI PUSH1 0x40 MLOAD PUSH32 0x8C379A000000000000000000000000000000000000000000000000000000000 DUP2 MSTORE PUSH1 0x4 ADD PUSH2 0x1AB9 SWAP1 PUSH2 0x3B6E JUMP JUMPDEST PUSH1 0x40 MLOAD DUP1 SWAP2 SUB SWAP1 REVERT JUMPDEST PUSH1 0xF SLOAD DUP2 PUSH1 0x12 PUSH0 CALLER PUSH20 0xFFFFFFFFFFFFFFFFFFFFFFFFFFFFFFFFFFFFFFFF AND PUSH20 0xFFFFFFFFFFFFFFFFFFFFFFFFFFFFFFFFFFFFFFFF AND DUP2 MSTORE PUSH1 0x20 ADD SWAP1 DUP2 MSTORE PUSH1 0x20 ADD PUSH0 KECCAK256 SLOAD PUSH2 0x1B0E SWAP2 SWAP1 PUSH2 0x37BD JUMP JUMPDEST GT ISZERO PUSH2 0x1B4F JUMPI PUSH1 0x40 MLOAD PUSH32 0x8C379A000000000000000000000000000000000000000000000000000000000 DUP2 MSTORE PUSH1 0x4 ADD PUSH2 0x1B46 SWAP1 PUSH2 0x3BD6 JUMP JUMPDEST PUSH1 0x40 MLOAD DUP1 SWAP2 SUB SWAP1 REVERT JUMPDEST PUSH0 DUP2 GT PUSH2 0x1B88 JUMPI PUSH1 0x40 MLOAD PUSH32 0xD43E607500000000000000000000000000000000000000000000000000000000 DUP2 MSTORE PUSH1 0x4 ADD PUSH1 0x40 MLOAD DUP1 SWAP2 SUB SWAP1 REVERT JUMPDEST PUSH0 PUSH2 0x1B91 PUSH2 0x2687 JUMP JUMPDEST SWAP1 POP PUSH0 PUSH1 0x1 DUP4 DUP4 PUSH2 0x1BA2 SWAP2 SWAP1 PUSH2 0x37BD JUMP JUMPDEST PUSH2 0x1BAC SWAP2 SWAP1 PUSH2 0x3831 JUMP JUMPDEST SWAP1 POP JUMPDEST DUP1 DUP3 GT PUSH2 0x1C14 JUMPI PUSH1 0x1 NUMBER PUSH2 0x1BC3 SWAP2 SWAP1 PUSH2 0x3831 JUMP JUMPDEST BLOCKHASH DUP3 PUSH1 0x40 MLOAD PUSH1 0x20 ADD PUSH2 0x1BD6 SWAP3 SWAP2 SWAP1 PUSH2 0x38A4 JUMP JUMPDEST PUSH1 0x40 MLOAD PUSH1 0x20 DUP2 DUP4 SUB SUB DUP2 MSTORE SWAP1 PUSH1 0x40 MSTORE DUP1 MLOAD SWAP1 PUSH1 0x20 ADD KECCAK256 PUSH1 0x11 PUSH0 DUP5 DUP2 MSTORE PUSH1 0x20 ADD SWAP1 DUP2 MSTORE PUSH1 0x20 ADD PUSH0 KECCAK256 DUP2 SWAP1 SSTORE POP DUP2 DUP1 PUSH2 0x1C0C SWAP1 PUSH2 0x38CF JUMP JUMPDEST SWAP3 POP POP PUSH2 0x1BAF JUMP JUMPDEST DUP3 PUSH1 0x12 PUSH0 CALLER PUSH20 0xFFFFFFFFFFFFFFFFFFFFFFFFFFFFFFFFFFFFFFFF AND PUSH20 0xFFFFFFFFFFFFFFFFFFFFFFFFFFFFFFFFFFFFFFFF AND DUP2 MSTORE PUSH1 0x20 ADD SWAP1 DUP2 MSTORE PUSH1 0x20 ADD PUSH0 KECCAK256 PUSH0 DUP3 DUP3 SLOAD PUSH2 0x1C60 SWAP2 SWAP1 PUSH2 0x37BD JUMP JUMPDEST SWAP3 POP POP DUP2 SWAP1 SSTORE POP PUSH2 0x1C71 CALLER DUP5 PUSH2 0x268F JUMP JUMPDEST POP POP PUSH1 0x1 PUSH1 0xA DUP2 SWAP1 SSTORE POP POP JUMP JUMPDEST PUSH1 0x60 PUSH32 0xFFFFFFFFFFFFFFFFFFFFFFFFFFFFFFFFFFFFFFFFFFFFFFFFFFFFFFFFFFFFFFFF PUSH2 0x1CA9 PUSH2 0x2440 JUMP JUMPDEST EQ PUSH2 0x1CBF JUMPI PUSH2 0x1CBE PUSH4 0xBDBA09D7 PUSH1 0xE0 SHL PUSH2 0x2306 JUMP JUMPDEST JUMPDEST PUSH0 PUSH2 0x1CC8 PUSH2 0x2438 JUMP JUMPDEST SWAP1 POP PUSH0 PUSH2 0x1CD3 PUSH2 0x2687 JUMP JUMPDEST SWAP1 POP PUSH1 0x60 DUP2 DUP4 EQ PUSH2 0x1CEC JUMPI PUSH2 0x1CE9 DUP6 DUP5 DUP5 PUSH2 0x2803 JUMP JUMPDEST SWAP1 POP JUMPDEST DUP1 SWAP4 POP POP POP POP SWAP2 SWAP1 POP JUMP JUMPDEST PUSH1 0x9 PUSH0 SWAP1 SLOAD SWAP1 PUSH2 0x100 EXP SWAP1 DIV PUSH20 0xFFFFFFFFFFFFFFFFFFFFFFFFFFFFFFFFFFFFFFFF AND DUP2 JUMP JUMPDEST PUSH1 0x60 PUSH1 0x3 DUP1 SLOAD PUSH2 0x1D2B SWAP1 PUSH2 0x3690 JUMP JUMPDEST DUP1 PUSH1 0x1F ADD PUSH1 0x20 DUP1 SWAP2 DIV MUL PUSH1 0x20 ADD PUSH1 0x40 MLOAD SWAP1 DUP2 ADD PUSH1 0x40 MSTORE DUP1 SWAP3 SWAP2 SWAP1 DUP2 DUP2 MSTORE PUSH1 0x20 ADD DUP3 DUP1 SLOAD PUSH2 0x1D57 SWAP1 PUSH2 0x3690 JUMP JUMPDEST DUP1 ISZERO PUSH2 0x1DA2 JUMPI DUP1 PUSH1 0x1F LT PUSH2 0x1D79 JUMPI PUSH2 0x100 DUP1 DUP4 SLOAD DIV MUL DUP4 MSTORE SWAP2 PUSH1 0x20 ADD SWAP2 PUSH2 0x1DA2 JUMP JUMPDEST DUP3 ADD SWAP2 SWAP1 PUSH0 MSTORE PUSH1 0x20 PUSH0 KECCAK256 SWAP1 JUMPDEST DUP2 SLOAD DUP2 MSTORE SWAP1 PUSH1 0x1 ADD SWAP1 PUSH1 0x20 ADD DUP1 DUP4 GT PUSH2 0x1D85 JUMPI DUP3 SWAP1 SUB PUSH1 0x1F AND DUP3 ADD SWAP2 JUMPDEST POP POP POP POP POP SWAP1 POP SWAP1 JUMP JUMPDEST PUSH1 0x60 PUSH2 0x1DB9 DUP5 DUP5 DUP5 PUSH2 0x2803 JUMP JUMPDEST SWAP1 POP SWAP4 SWAP3 POP POP POP JUMP JUMPDEST DUP1 PUSH1 0x7 PUSH0 PUSH2 0x1DCE PUSH2 0x2599 JUMP JUMPDEST PUSH20 0xFFFFFFFFFFFFFFFFFFFFFFFFFFFFFFFFFFFFFFFF AND PUSH20 0xFFFFFFFFFFFFFFFFFFFFFFFFFFFFFFFFFFFFFFFF AND DUP2 MSTORE PUSH1 0x20 ADD SWAP1 DUP2 MSTORE PUSH1 0x20 ADD PUSH0 KECCAK256 PUSH0 DUP5 PUSH20 0xFFFFFFFFFFFFFFFFFFFFFFFFFFFFFFFFFFFFFFFF AND PUSH20 0xFFFFFFFFFFFFFFFFFFFFFFFFFFFFFFFFFFFFFFFF AND DUP2 MSTORE PUSH1 0x20 ADD SWAP1 DUP2 MSTORE PUSH1 0x20 ADD PUSH0 KECCAK256 PUSH0 PUSH2 0x100 EXP DUP2 SLOAD DUP2 PUSH1 0xFF MUL NOT AND SWAP1 DUP4 ISZERO ISZERO MUL OR SWAP1 SSTORE POP DUP2 PUSH20 0xFFFFFFFFFFFFFFFFFFFFFFFFFFFFFFFFFFFFFFFF AND PUSH2 0x1E77 PUSH2 0x2599 JUMP JUMPDEST PUSH20 0xFFFFFFFFFFFFFFFFFFFFFFFFFFFFFFFFFFFFFFFF AND PUSH32 0x17307EAB39AB6107E8899845AD3D59BD9653F200F220920489CA2B5937696C31 DUP4 PUSH1 0x40 MLOAD PUSH2 0x1EBC SWAP2 SWAP1 PUSH2 0x2D23 JUMP JUMPDEST PUSH1 0x40 MLOAD DUP1 SWAP2 SUB SWAP1 LOG3 POP POP JUMP JUMPDEST PUSH2 0x1ED3 DUP5 DUP5 DUP5 PUSH2 0xB24 JUMP JUMPDEST PUSH0 DUP4 PUSH20 0xFFFFFFFFFFFFFFFFFFFFFFFFFFFFFFFFFFFFFFFF AND EXTCODESIZE EQ PUSH2 0x1F13 JUMPI PUSH2 0x1EFD DUP5 DUP5 DUP5 DUP5 PUSH2 0x29B2 JUMP JUMPDEST PUSH2 0x1F12 JUMPI PUSH2 0x1F11 PUSH4 0xD1A57ED6 PUSH1 0xE0 SHL PUSH2 0x2306 JUMP JUMPDEST JUMPDEST JUMPDEST POP POP POP POP JUMP JUMPDEST PUSH1 0x10 PUSH0 SWAP1 SLOAD SWAP1 PUSH2 0x100 EXP SWAP1 DIV PUSH1 0xFF AND DUP2 JUMP JUMPDEST PUSH2 0x1F33 PUSH2 0x2C2D JUMP JUMPDEST PUSH2 0x1F3B PUSH2 0x2438 JUMP JUMPDEST DUP3 LT PUSH2 0x1F9A JUMPI PUSH2 0x1F49 PUSH2 0x2440 JUMP JUMPDEST DUP3 GT ISZERO PUSH2 0x1F60 JUMPI PUSH2 0x1F59 DUP3 PUSH2 0x2ADC JUMP JUMPDEST SWAP1 POP PUSH2 0x1F9B JUMP JUMPDEST PUSH2 0x1F68 PUSH2 0x2687 JUMP JUMPDEST DUP3 LT ISZERO PUSH2 0x1F99 JUMPI JUMPDEST PUSH2 0x1F79 DUP3 PUSH2 0x2B05 JUMP JUMPDEST PUSH2 0x1F89 JUMPI DUP2 PUSH1 0x1 SWAP1 SUB SWAP2 POP PUSH2 0x1F70 JUMP JUMPDEST PUSH2 0x1F92 DUP3 PUSH2 0x2ADC JUMP JUMPDEST SWAP1 POP PUSH2 0x1F9B JUMP JUMPDEST JUMPDEST JUMPDEST SWAP2 SWAP1 POP JUMP JUMPDEST PUSH1 0xE SLOAD DUP2 JUMP JUMPDEST PUSH1 0x60 PUSH1 0xB PUSH0 SWAP1 SLOAD SWAP1 PUSH2 0x100 EXP SWAP1 DIV PUSH20 0xFFFFFFFFFFFFFFFFFFFFFFFFFFFFFFFFFFFFFFFF AND PUSH20 0xFFFFFFFFFFFFFFFFFFFFFFFFFFFFFFFFFFFFFFFF AND PUSH4 0xC649C9A8 DUP4 PUSH1 0x11 PUSH0 DUP7 DUP2 MSTORE PUSH1 0x20 ADD SWAP1 DUP2 MSTORE PUSH1 0x20 ADD PUSH0 KECCAK256 SLOAD PUSH1 0x40 MLOAD DUP4 PUSH4 0xFFFFFFFF AND PUSH1 0xE0 SHL DUP2 MSTORE PUSH1 0x4 ADD PUSH2 0x2015 SWAP3 SWAP2 SWAP1 PUSH2 0x3BF4 JUMP JUMPDEST PUSH0 PUSH1 0x40 MLOAD DUP1 DUP4 SUB DUP2 DUP7 GAS STATICCALL ISZERO DUP1 ISZERO PUSH2 0x202F JUMPI RETURNDATASIZE PUSH0 DUP1 RETURNDATACOPY RETURNDATASIZE PUSH0 REVERT JUMPDEST POP POP POP POP PUSH1 0x40 MLOAD RETURNDATASIZE PUSH0 DUP3 RETURNDATACOPY RETURNDATASIZE PUSH1 0x1F NOT PUSH1 0x1F DUP3 ADD AND DUP3 ADD DUP1 PUSH1 0x40 MSTORE POP DUP2 ADD SWAP1 PUSH2 0x2057 SWAP2 SWAP1 PUSH2 0x3CB9 JUMP JUMPDEST SWAP1 POP SWAP2 SWAP1 POP JUMP JUMPDEST PUSH1 0x10 PUSH1 0x1 SWAP1 SLOAD SWAP1 PUSH2 0x100 EXP SWAP1 DIV PUSH1 0xFF AND DUP2 JUMP JUMPDEST PUSH0 PUSH1 0x7 PUSH0 DUP5 PUSH20 0xFFFFFFFFFFFFFFFFFFFFFFFFFFFFFFFFFFFFFFFF AND PUSH20 0xFFFFFFFFFFFFFFFFFFFFFFFFFFFFFFFFFFFFFFFF AND DUP2 MSTORE PUSH1 0x20 ADD SWAP1 DUP2 MSTORE PUSH1 0x20 ADD PUSH0 KECCAK256 PUSH0 DUP4 PUSH20 0xFFFFFFFFFFFFFFFFFFFFFFFFFFFFFFFFFFFFFFFF AND PUSH20 0xFFFFFFFFFFFFFFFFFFFFFFFFFFFFFFFFFFFFFFFF AND DUP2 MSTORE PUSH1 0x20 ADD SWAP1 DUP2 MSTORE PUSH1 0x20 ADD PUSH0 KECCAK256 PUSH0 SWAP1 SLOAD SWAP1 PUSH2 0x100 EXP SWAP1 DIV PUSH1 0xFF AND SWAP1 POP SWAP3 SWAP2 POP POP JUMP JUMPDEST PUSH1 0x12 PUSH1 0x20 MSTORE DUP1 PUSH0 MSTORE PUSH1 0x40 PUSH0 KECCAK256 PUSH0 SWAP2 POP SWAP1 POP SLOAD DUP2 JUMP JUMPDEST PUSH1 0xF SLOAD DUP2 JUMP JUMPDEST PUSH1 0x9 PUSH0 SWAP1 SLOAD SWAP1 PUSH2 0x100 EXP SWAP1 DIV PUSH20 0xFFFFFFFFFFFFFFFFFFFFFFFFFFFFFFFFFFFFFFFF AND PUSH20 0xFFFFFFFFFFFFFFFFFFFFFFFFFFFFFFFFFFFFFFFF AND CALLER PUSH20 0xFFFFFFFFFFFFFFFFFFFFFFFFFFFFFFFFFFFFFFFF AND EQ PUSH2 0x21A9 JUMPI PUSH1 0x40 MLOAD PUSH32 0x8C379A000000000000000000000000000000000000000000000000000000000 DUP2 MSTORE PUSH1 0x4 ADD PUSH2 0x21A0 SWAP1 PUSH2 0x3960 JUMP JUMPDEST PUSH1 0x40 MLOAD DUP1 SWAP2 SUB SWAP1 REVERT JUMPDEST DUP1 PUSH1 0x9 PUSH0 PUSH2 0x100 EXP DUP2 SLOAD DUP2 PUSH20 0xFFFFFFFFFFFFFFFFFFFFFFFFFFFFFFFFFFFFFFFF MUL NOT AND SWAP1 DUP4 PUSH20 0xFFFFFFFFFFFFFFFFFFFFFFFFFFFFFFFFFFFFFFFF AND MUL OR SWAP1 SSTORE POP DUP1 PUSH20 0xFFFFFFFFFFFFFFFFFFFFFFFFFFFFFFFFFFFFFFFF AND CALLER PUSH20 0xFFFFFFFFFFFFFFFFFFFFFFFFFFFFFFFFFFFFFFFF AND PUSH32 0x8BE0079C531659141344CD1FD0A4F28419497F9722A3DAAFE3B4186F6B6457E0 PUSH1 0x40 MLOAD PUSH1 0x40 MLOAD DUP1 SWAP2 SUB SWAP1 LOG3 POP JUMP JUMPDEST PUSH1 0x13 PUSH1 0x20 MSTORE DUP1 PUSH0 MSTORE PUSH1 0x40 PUSH0 KECCAK256 PUSH0 SWAP2 POP SLOAD SWAP1 PUSH2 0x100 EXP SWAP1 DIV PUSH1 0xFF AND DUP2 JUMP JUMPDEST PUSH0 DUP2 PUSH2 0x226D PUSH2 0x2438 JUMP JUMPDEST GT PUSH2 0x2300 JUMPI PUSH2 0x227A PUSH2 0x2440 JUMP JUMPDEST DUP3 GT ISZERO PUSH2 0x22A2 JUMPI PUSH2 0x229B PUSH1 0x4 PUSH0 DUP5 DUP2 MSTORE PUSH1 0x20 ADD SWAP1 DUP2 MSTORE PUSH1 0x20 ADD PUSH0 KECCAK256 SLOAD PUSH2 0x2B22 JUMP JUMPDEST SWAP1 POP PUSH2 0x2301 JUMP JUMPDEST PUSH0 SLOAD DUP3 LT ISZERO PUSH2 0x22FF JUMPI PUSH0 JUMPDEST PUSH0 PUSH1 0x4 PUSH0 DUP6 DUP2 MSTORE PUSH1 0x20 ADD SWAP1 DUP2 MSTORE PUSH1 0x20 ADD PUSH0 KECCAK256 SLOAD SWAP2 POP DUP2 SUB PUSH2 0x22D9 JUMPI DUP3 PUSH2 0x22D2 SWAP1 PUSH2 0x3D00 JUMP JUMPDEST SWAP3 POP PUSH2 0x22AD JUMP JUMPDEST PUSH0 PUSH29 0x100000000000000000000000000000000000000000000000000000000 DUP3 AND EQ SWAP2 POP POP JUMPDEST JUMPDEST JUMPDEST SWAP2 SWAP1 POP JUMP JUMPDEST DUP1 PUSH0 MSTORE PUSH1 0x4 PUSH0 REVERT JUMPDEST PUSH0 PUSH2 0x2318 DUP4 PUSH2 0x14E1 JUMP JUMPDEST SWAP1 POP DUP2 DUP1 ISZERO PUSH2 0x235A JUMPI POP DUP1 PUSH20 0xFFFFFFFFFFFFFFFFFFFFFFFFFFFFFFFFFFFFFFFF AND PUSH2 0x2341 PUSH2 0x2599 JUMP JUMPDEST PUSH20 0xFFFFFFFFFFFFFFFFFFFFFFFFFFFFFFFFFFFFFFFF AND EQ ISZERO JUMPDEST ISZERO PUSH2 0x2386 JUMPI PUSH2 0x2370 DUP2 PUSH2 0x236B PUSH2 0x2599 JUMP JUMPDEST PUSH2 0x2071 JUMP JUMPDEST PUSH2 0x2385 JUMPI PUSH2 0x2384 PUSH4 0xCFB3B942 PUSH1 0xE0 SHL PUSH2 0x2306 JUMP JUMPDEST JUMPDEST JUMPDEST DUP4 PUSH1 0x6 PUSH0 DUP6 DUP2 MSTORE PUSH1 0x20 ADD SWAP1 DUP2 MSTORE PUSH1 0x20 ADD PUSH0 KECCAK256 PUSH0 ADD PUSH0 PUSH2 0x100 EXP DUP2 SLOAD DUP2 PUSH20 0xFFFFFFFFFFFFFFFFFFFFFFFFFFFFFFFFFFFFFFFF MUL NOT AND SWAP1 DUP4 PUSH20 0xFFFFFFFFFFFFFFFFFFFFFFFFFFFFFFFFFFFFFFFF AND MUL OR SWAP1 SSTORE POP DUP3 DUP5 PUSH20 0xFFFFFFFFFFFFFFFFFFFFFFFFFFFFFFFFFFFFFFFF AND DUP3 PUSH20 0xFFFFFFFFFFFFFFFFFFFFFFFFFFFFFFFFFFFFFFFF AND PUSH32 0x8C5BE1E5EBEC7D5BD14F71427D1E84F3DD0314C0F7B2291E5B200AC8C7C3B925 PUSH1 0x40 MLOAD PUSH1 0x40 MLOAD DUP1 SWAP2 SUB SWAP1 LOG4 POP POP POP POP JUMP JUMPDEST PUSH0 PUSH1 0x1 SWAP1 POP SWAP1 JUMP JUMPDEST PUSH0 PUSH32 0xFFFFFFFFFFFFFFFFFFFFFFFFFFFFFFFFFFFFFFFFFFFFFFFFFFFFFFFFFFFFFFFF SWAP1 POP SWAP1 JUMP JUMPDEST PUSH0 DUP2 PUSH2 0x2471 PUSH2 0x2438 JUMP JUMPDEST GT PUSH2 0x2560 JUMPI PUSH1 0x4 PUSH0 DUP4 DUP2 MSTORE PUSH1 0x20 ADD SWAP1 DUP2 MSTORE PUSH1 0x20 ADD PUSH0 KECCAK256 SLOAD SWAP1 POP PUSH2 0x2492 PUSH2 0x2440 JUMP JUMPDEST DUP3 GT ISZERO PUSH2 0x24B7 JUMPI PUSH2 0x24A2 DUP2 PUSH2 0x2B22 JUMP JUMPDEST PUSH2 0x2571 JUMPI PUSH2 0x24B6 PUSH4 0xDF2D9B42 PUSH1 0xE0 SHL PUSH2 0x2306 JUMP JUMPDEST JUMPDEST PUSH0 DUP2 SUB PUSH2 0x2538 JUMPI PUSH0 SLOAD DUP3 LT PUSH2 0x24D7 JUMPI PUSH2 0x24D6 PUSH4 0xDF2D9B42 PUSH1 0xE0 SHL PUSH2 0x2306 JUMP JUMPDEST JUMPDEST JUMPDEST PUSH1 0x4 PUSH0 DUP4 PUSH1 0x1 SWAP1 SUB SWAP4 POP DUP4 DUP2 MSTORE PUSH1 0x20 ADD SWAP1 DUP2 MSTORE PUSH1 0x20 ADD PUSH0 KECCAK256 SLOAD SWAP1 POP PUSH0 DUP2 SUB ISZERO PUSH2 0x2533 JUMPI PUSH0 PUSH29 0x100000000000000000000000000000000000000000000000000000000 DUP3 AND SUB ISZERO PUSH2 0x2571 JUMPI PUSH2 0x2532 PUSH4 0xDF2D9B42 PUSH1 0xE0 SHL PUSH2 0x2306 JUMP JUMPDEST JUMPDEST PUSH2 0x24D8 JUMP JUMPDEST PUSH0 PUSH29 0x100000000000000000000000000000000000000000000000000000000 DUP3 AND SUB ISZERO PUSH2 0x2571 JUMPI JUMPDEST PUSH2 0x2570 PUSH4 0xDF2D9B42 PUSH1 0xE0 SHL PUSH2 0x2306 JUMP JUMPDEST JUMPDEST SWAP2 SWAP1 POP JUMP JUMPDEST PUSH0 DUP1 PUSH0 PUSH1 0x6 PUSH0 DUP6 DUP2 MSTORE PUSH1 0x20 ADD SWAP1 DUP2 MSTORE PUSH1 0x20 ADD PUSH0 KECCAK256 SWAP1 POP DUP1 SWAP3 POP DUP3 SLOAD SWAP2 POP POP SWAP2 POP SWAP2 JUMP JUMPDEST PUSH0 CALLER SWAP1 POP SWAP1 JUMP JUMPDEST PUSH0 PUSH20 0xFFFFFFFFFFFFFFFFFFFFFFFFFFFFFFFFFFFFFFFF DUP4 AND SWAP3 POP PUSH20 0xFFFFFFFFFFFFFFFFFFFFFFFFFFFFFFFFFFFFFFFF DUP3 AND SWAP2 POP DUP4 DUP3 EQ DUP4 DUP4 EQ OR SWAP1 POP SWAP4 SWAP3 POP POP POP JUMP JUMPDEST POP POP POP POP JUMP JUMPDEST PUSH0 DUP1 PUSH1 0xE8 DUP4 SWAP1 SHR SWAP1 POP PUSH1 0xE8 PUSH2 0x25FF DUP7 DUP7 DUP5 PUSH2 0x2B62 JUMP JUMPDEST PUSH3 0xFFFFFF AND SWAP1 SHL SWAP2 POP POP SWAP4 SWAP3 POP POP POP JUMP JUMPDEST PUSH0 PUSH20 0xFFFFFFFFFFFFFFFFFFFFFFFFFFFFFFFFFFFFFFFF DUP4 AND SWAP3 POP DUP2 TIMESTAMP PUSH1 0xA0 SHL OR DUP4 OR SWAP1 POP SWAP3 SWAP2 POP POP JUMP JUMPDEST POP POP POP POP JUMP JUMPDEST PUSH0 PUSH2 0x2649 PUSH2 0x2438 JUMP JUMPDEST PUSH0 SLOAD SUB SWAP1 POP PUSH32 0xFFFFFFFFFFFFFFFFFFFFFFFFFFFFFFFFFFFFFFFFFFFFFFFFFFFFFFFFFFFFFFFF PUSH2 0x2677 PUSH2 0x2440 JUMP JUMPDEST EQ PUSH2 0x2684 JUMPI PUSH1 0x8 SLOAD DUP2 ADD SWAP1 POP JUMPDEST SWAP1 JUMP JUMPDEST PUSH0 DUP1 SLOAD SWAP1 POP SWAP1 JUMP JUMPDEST PUSH0 DUP1 SLOAD SWAP1 POP PUSH0 DUP3 SUB PUSH2 0x26AC JUMPI PUSH2 0x26AB PUSH4 0xB562E8DD PUSH1 0xE0 SHL PUSH2 0x2306 JUMP JUMPDEST JUMPDEST PUSH2 0x26B8 PUSH0 DUP5 DUP4 DUP6 PUSH2 0x25E3 JUMP JUMPDEST PUSH2 0x26D6 DUP4 PUSH2 0x26C7 PUSH0 DUP7 PUSH0 PUSH2 0x25E9 JUMP JUMPDEST PUSH2 0x26D0 DUP6 PUSH2 0x2B6A JUMP JUMPDEST OR PUSH2 0x2610 JUMP JUMPDEST PUSH1 0x4 PUSH0 DUP4 DUP2 MSTORE PUSH1 0x20 ADD SWAP1 DUP2 MSTORE PUSH1 0x20 ADD PUSH0 KECCAK256 DUP2 SWAP1 SSTORE POP PUSH1 0x1 PUSH1 0x40 PUSH1 0x1 SWAP1 SHL OR DUP3 MUL PUSH1 0x5 PUSH0 DUP6 PUSH20 0xFFFFFFFFFFFFFFFFFFFFFFFFFFFFFFFFFFFFFFFF AND PUSH20 0xFFFFFFFFFFFFFFFFFFFFFFFFFFFFFFFFFFFFFFFF AND DUP2 MSTORE PUSH1 0x20 ADD SWAP1 DUP2 MSTORE PUSH1 0x20 ADD PUSH0 KECCAK256 PUSH0 DUP3 DUP3 SLOAD ADD SWAP3 POP POP DUP2 SWAP1 SSTORE POP PUSH0 PUSH20 0xFFFFFFFFFFFFFFFFFFFFFFFFFFFFFFFFFFFFFFFF DUP5 PUSH20 0xFFFFFFFFFFFFFFFFFFFFFFFFFFFFFFFFFFFFFFFF AND AND SWAP1 POP PUSH0 DUP2 SUB PUSH2 0x2787 JUMPI PUSH2 0x2786 PUSH4 0x2E076300 PUSH1 0xE0 SHL PUSH2 0x2306 JUMP JUMPDEST JUMPDEST PUSH0 DUP4 DUP4 ADD SWAP1 POP PUSH0 DUP4 SWAP1 POP PUSH2 0x2799 PUSH2 0x2440 JUMP JUMPDEST PUSH1 0x1 DUP4 SUB GT ISZERO PUSH2 0x27B4 JUMPI PUSH2 0x27B3 PUSH4 0x81647E3A PUSH1 0xE0 SHL PUSH2 0x2306 JUMP JUMPDEST JUMPDEST JUMPDEST DUP1 DUP4 PUSH0 PUSH32 0xDDF252AD1BE2C89B69C2B068FC378DAA952BA7F163C4A11628F55A4DF523B3EF PUSH0 DUP1 LOG4 DUP2 DUP2 PUSH1 0x1 ADD SWAP2 POP DUP2 SUB PUSH2 0x27B5 JUMPI DUP2 PUSH0 DUP2 SWAP1 SSTORE POP POP POP POP PUSH2 0x27FE PUSH0 DUP5 DUP4 DUP6 PUSH2 0x263A JUMP JUMPDEST POP POP POP JUMP JUMPDEST PUSH1 0x60 DUP2 DUP4 LT PUSH2 0x281D JUMPI PUSH2 0x281C PUSH4 0x32C1995A PUSH1 0xE0 SHL PUSH2 0x2306 JUMP JUMPDEST JUMPDEST PUSH2 0x2825 PUSH2 0x2438 JUMP JUMPDEST DUP4 LT ISZERO PUSH2 0x2837 JUMPI PUSH2 0x2834 PUSH2 0x2438 JUMP JUMPDEST SWAP3 POP JUMPDEST PUSH0 PUSH2 0x2840 PUSH2 0x2687 JUMP JUMPDEST SWAP1 POP PUSH0 PUSH32 0xFFFFFFFFFFFFFFFFFFFFFFFFFFFFFFFFFFFFFFFFFFFFFFFFFFFFFFFFFFFFFFFF PUSH2 0x286C PUSH2 0x2440 JUMP JUMPDEST SUB PUSH2 0x2877 JUMPI DUP2 PUSH2 0x2879 JUMP JUMPDEST DUP4 JUMPDEST SWAP1 POP DUP1 DUP5 LT PUSH2 0x2886 JUMPI DUP1 SWAP4 POP JUMPDEST PUSH0 PUSH2 0x2890 DUP8 PUSH2 0x1765 JUMP JUMPDEST SWAP1 POP DUP5 DUP7 LT PUSH2 0x289D JUMPI PUSH0 SWAP1 POP JUMPDEST PUSH0 DUP2 EQ PUSH2 0x29A8 JUMPI DUP1 DUP7 DUP7 SUB GT PUSH2 0x28B3 JUMPI DUP6 DUP6 SUB SWAP1 POP JUMPDEST PUSH0 PUSH1 0x40 MLOAD SWAP5 POP PUSH1 0x1 DUP3 ADD PUSH1 0x5 SHL DUP6 ADD SWAP1 POP DUP1 PUSH1 0x40 MSTORE PUSH0 PUSH2 0x28D2 DUP9 PUSH2 0x1F2B JUMP JUMPDEST SWAP1 POP PUSH0 DUP2 PUSH1 0x40 ADD MLOAD PUSH2 0x28E5 JUMPI DUP2 PUSH0 ADD MLOAD SWAP1 POP JUMPDEST PUSH0 JUMPDEST PUSH32 0xFFFFFFFFFFFFFFFFFFFFFFFFFFFFFFFFFFFFFFFFFFFFFFFFFFFFFFFFFFFFFFFF PUSH2 0x2910 PUSH2 0x2440 JUMP JUMPDEST EQ PUSH2 0x293E JUMPI DUP7 DUP11 SUB PUSH2 0x292A JUMPI PUSH1 0x1 PUSH2 0x2926 PUSH2 0x2440 JUMP JUMPDEST ADD SWAP10 POP JUMPDEST PUSH2 0x2932 PUSH2 0x2440 JUMP JUMPDEST DUP11 GT ISZERO PUSH2 0x293D JUMPI PUSH0 SWAP2 POP JUMPDEST JUMPDEST PUSH2 0x2947 DUP11 PUSH2 0x2ADC JUMP JUMPDEST SWAP3 POP PUSH1 0x40 DUP4 ADD MLOAD PUSH0 DUP2 EQ PUSH2 0x295D JUMPI PUSH0 SWAP3 POP PUSH2 0x2983 JUMP JUMPDEST DUP4 MLOAD ISZERO PUSH2 0x2969 JUMPI DUP4 MLOAD SWAP3 POP JUMPDEST DUP12 DUP4 XOR PUSH1 0x60 SHL PUSH2 0x2982 JUMPI PUSH1 0x1 DUP3 ADD SWAP2 POP DUP11 DUP3 PUSH1 0x5 SHL DUP11 ADD MSTORE JUMPDEST JUMPDEST POP PUSH1 0x1 DUP11 ADD SWAP10 POP DUP4 PUSH1 0x40 MSTORE DUP9 DUP11 EQ DUP1 PUSH2 0x299B JUMPI POP DUP5 DUP2 EQ JUMPDEST ISZERO PUSH2 0x28E7 JUMPI DUP1 DUP9 MSTORE POP POP POP POP JUMPDEST POP POP POP SWAP4 SWAP3 POP POP POP JUMP JUMPDEST PUSH0 DUP4 PUSH20 0xFFFFFFFFFFFFFFFFFFFFFFFFFFFFFFFFFFFFFFFF AND PUSH4 0x150B7A02 PUSH2 0x29D7 PUSH2 0x2599 JUMP JUMPDEST DUP8 DUP7 DUP7 PUSH1 0x40 MLOAD DUP6 PUSH4 0xFFFFFFFF AND PUSH1 0xE0 SHL DUP2 MSTORE PUSH1 0x4 ADD PUSH2 0x29F9 SWAP5 SWAP4 SWAP3 SWAP2 SWAP1 PUSH2 0x3D79 JUMP JUMPDEST PUSH1 0x20 PUSH1 0x40 MLOAD DUP1 DUP4 SUB DUP2 PUSH0 DUP8 GAS CALL SWAP3 POP POP POP DUP1 ISZERO PUSH2 0x2A34 JUMPI POP PUSH1 0x40 MLOAD RETURNDATASIZE PUSH1 0x1F NOT PUSH1 0x1F DUP3 ADD AND DUP3 ADD DUP1 PUSH1 0x40 MSTORE POP DUP2 ADD SWAP1 PUSH2 0x2A31 SWAP2 SWAP1 PUSH2 0x3DD7 JUMP JUMPDEST PUSH1 0x1 JUMPDEST PUSH2 0x2A89 JUMPI RETURNDATASIZE DUP1 PUSH0 DUP2 EQ PUSH2 0x2A62 JUMPI PUSH1 0x40 MLOAD SWAP2 POP PUSH1 0x1F NOT PUSH1 0x3F RETURNDATASIZE ADD AND DUP3 ADD PUSH1 0x40 MSTORE RETURNDATASIZE DUP3 MSTORE RETURNDATASIZE PUSH0 PUSH1 0x20 DUP5 ADD RETURNDATACOPY PUSH2 0x2A67 JUMP JUMPDEST PUSH1 0x60 SWAP2 POP JUMPDEST POP PUSH0 DUP2 MLOAD SUB PUSH2 0x2A81 JUMPI PUSH2 0x2A80 PUSH4 0xD1A57ED6 PUSH1 0xE0 SHL PUSH2 0x2306 JUMP JUMPDEST JUMPDEST DUP1 MLOAD DUP2 PUSH1 0x20 ADD REVERT JUMPDEST PUSH4 0x150B7A02 PUSH1 0xE0 SHL PUSH28 0xFFFFFFFFFFFFFFFFFFFFFFFFFFFFFFFFFFFFFFFFFFFFFFFFFFFFFFFF NOT AND DUP2 PUSH28 0xFFFFFFFFFFFFFFFFFFFFFFFFFFFFFFFFFFFFFFFFFFFFFFFFFFFFFFFF NOT AND EQ SWAP2 POP POP SWAP5 SWAP4 POP POP POP POP JUMP JUMPDEST PUSH2 0x2AE4 PUSH2 0x2C2D JUMP JUMPDEST PUSH2 0x2AFE PUSH1 0x4 PUSH0 DUP5 DUP2 MSTORE PUSH1 0x20 ADD SWAP1 DUP2 MSTORE PUSH1 0x20 ADD PUSH0 KECCAK256 SLOAD PUSH2 0x2B79 JUMP JUMPDEST SWAP1 POP SWAP2 SWAP1 POP JUMP JUMPDEST PUSH0 DUP1 PUSH1 0x4 PUSH0 DUP5 DUP2 MSTORE PUSH1 0x20 ADD SWAP1 DUP2 MSTORE PUSH1 0x20 ADD PUSH0 KECCAK256 SLOAD EQ ISZERO SWAP1 POP SWAP2 SWAP1 POP JUMP JUMPDEST PUSH0 PUSH29 0x100000000000000000000000000000000000000000000000000000000 DUP3 AND PUSH20 0xFFFFFFFFFFFFFFFFFFFFFFFFFFFFFFFFFFFFFFFF DUP4 AND GT SWAP1 POP SWAP2 SWAP1 POP JUMP JUMPDEST PUSH0 SWAP4 SWAP3 POP POP POP JUMP JUMPDEST PUSH0 PUSH1 0x1 DUP3 EQ PUSH1 0xE1 SHL SWAP1 POP SWAP2 SWAP1 POP JUMP JUMPDEST PUSH2 0x2B81 PUSH2 0x2C2D JUMP JUMPDEST DUP2 DUP2 PUSH0 ADD SWAP1 PUSH20 0xFFFFFFFFFFFFFFFFFFFFFFFFFFFFFFFFFFFFFFFF AND SWAP1 DUP2 PUSH20 0xFFFFFFFFFFFFFFFFFFFFFFFFFFFFFFFFFFFFFFFF AND DUP2 MSTORE POP POP PUSH1 0xA0 DUP3 SWAP1 SHR DUP2 PUSH1 0x20 ADD SWAP1 PUSH8 0xFFFFFFFFFFFFFFFF AND SWAP1 DUP2 PUSH8 0xFFFFFFFFFFFFFFFF AND DUP2 MSTORE POP POP PUSH0 PUSH29 0x100000000000000000000000000000000000000000000000000000000 DUP4 AND EQ ISZERO DUP2 PUSH1 0x40 ADD SWAP1 ISZERO ISZERO SWAP1 DUP2 ISZERO ISZERO DUP2 MSTORE POP POP PUSH1 0xE8 DUP3 SWAP1 SHR DUP2 PUSH1 0x60 ADD SWAP1 PUSH3 0xFFFFFF AND SWAP1 DUP2 PUSH3 0xFFFFFF AND DUP2 MSTORE POP POP SWAP2 SWAP1 POP JUMP JUMPDEST PUSH1 0x40 MLOAD DUP1 PUSH1 0x80 ADD PUSH1 0x40 MSTORE DUP1 PUSH0 PUSH20 0xFFFFFFFFFFFFFFFFFFFFFFFFFFFFFFFFFFFFFFFF AND DUP2 MSTORE PUSH1 0x20 ADD PUSH0 PUSH8 0xFFFFFFFFFFFFFFFF AND DUP2 MSTORE PUSH1 0x20 ADD PUSH0 ISZERO ISZERO DUP2 MSTORE PUSH1 0x20 ADD PUSH0 PUSH3 0xFFFFFF AND DUP2 MSTORE POP SWAP1 JUMP JUMPDEST PUSH0 PUSH1 0x40 MLOAD SWAP1 POP SWAP1 JUMP JUMPDEST PUSH0 DUP1 REVERT JUMPDEST PUSH0 DUP1 REVERT JUMPDEST PUSH0 PUSH32 0xFFFFFFFF00000000000000000000000000000000000000000000000000000000 DUP3 AND SWAP1 POP SWAP2 SWAP1 POP JUMP JUMPDEST PUSH2 0x2CBD DUP2 PUSH2 0x2C89 JUMP JUMPDEST DUP2 EQ PUSH2 0x2CC7 JUMPI PUSH0 DUP1 REVERT JUMPDEST POP JUMP JUMPDEST PUSH0 DUP2 CALLDATALOAD SWAP1 POP PUSH2 0x2CD8 DUP2 PUSH2 0x2CB4 JUMP JUMPDEST SWAP3 SWAP2 POP POP JUMP JUMPDEST PUSH0 PUSH1 0x20 DUP3 DUP5 SUB SLT ISZERO PUSH2 0x2CF3 JUMPI PUSH2 0x2CF2 PUSH2 0x2C81 JUMP JUMPDEST JUMPDEST PUSH0 PUSH2 0x2D00 DUP5 DUP3 DUP6 ADD PUSH2 0x2CCA JUMP JUMPDEST SWAP2 POP POP SWAP3 SWAP2 POP POP JUMP JUMPDEST PUSH0 DUP2 ISZERO ISZERO SWAP1 POP SWAP2 SWAP1 POP JUMP JUMPDEST PUSH2 0x2D1D DUP2 PUSH2 0x2D09 JUMP JUMPDEST DUP3 MSTORE POP POP JUMP JUMPDEST PUSH0 PUSH1 0x20 DUP3 ADD SWAP1 POP PUSH2 0x2D36 PUSH0 DUP4 ADD DUP5 PUSH2 0x2D14 JUMP JUMPDEST SWAP3 SWAP2 POP POP JUMP JUMPDEST PUSH0 DUP2 MLOAD SWAP1 POP SWAP2 SWAP1 POP JUMP JUMPDEST PUSH0 DUP3 DUP3 MSTORE PUSH1 0x20 DUP3 ADD SWAP1 POP SWAP3 SWAP2 POP POP JUMP JUMPDEST DUP3 DUP2 DUP4 MCOPY PUSH0 DUP4 DUP4 ADD MSTORE POP POP POP JUMP JUMPDEST PUSH0 PUSH1 0x1F NOT PUSH1 0x1F DUP4 ADD AND SWAP1 POP SWAP2 SWAP1 POP JUMP JUMPDEST PUSH0 PUSH2 0x2D7E DUP3 PUSH2 0x2D3C JUMP JUMPDEST PUSH2 0x2D88 DUP2 DUP6 PUSH2 0x2D46 JUMP JUMPDEST SWAP4 POP PUSH2 0x2D98 DUP2 DUP6 PUSH1 0x20 DUP7 ADD PUSH2 0x2D56 JUMP JUMPDEST PUSH2 0x2DA1 DUP2 PUSH2 0x2D64 JUMP JUMPDEST DUP5 ADD SWAP2 POP POP SWAP3 SWAP2 POP POP JUMP JUMPDEST PUSH0 PUSH1 0x20 DUP3 ADD SWAP1 POP DUP2 DUP2 SUB PUSH0 DUP4 ADD MSTORE PUSH2 0x2DC4 DUP2 DUP5 PUSH2 0x2D74 JUMP JUMPDEST SWAP1 POP SWAP3 SWAP2 POP POP JUMP JUMPDEST PUSH0 DUP2 SWAP1 POP SWAP2 SWAP1 POP JUMP JUMPDEST PUSH2 0x2DDE DUP2 PUSH2 0x2DCC JUMP JUMPDEST DUP2 EQ PUSH2 0x2DE8 JUMPI PUSH0 DUP1 REVERT JUMPDEST POP JUMP JUMPDEST PUSH0 DUP2 CALLDATALOAD SWAP1 POP PUSH2 0x2DF9 DUP2 PUSH2 0x2DD5 JUMP JUMPDEST SWAP3 SWAP2 POP POP JUMP JUMPDEST PUSH0 PUSH1 0x20 DUP3 DUP5 SUB SLT ISZERO PUSH2 0x2E14 JUMPI PUSH2 0x2E13 PUSH2 0x2C81 JUMP JUMPDEST JUMPDEST PUSH0 PUSH2 0x2E21 DUP5 DUP3 DUP6 ADD PUSH2 0x2DEB JUMP JUMPDEST SWAP2 POP POP SWAP3 SWAP2 POP POP JUMP JUMPDEST PUSH0 PUSH20 0xFFFFFFFFFFFFFFFFFFFFFFFFFFFFFFFFFFFFFFFF DUP3 AND SWAP1 POP SWAP2 SWAP1 POP JUMP JUMPDEST PUSH0 PUSH2 0x2E53 DUP3 PUSH2 0x2E2A JUMP JUMPDEST SWAP1 POP SWAP2 SWAP1 POP JUMP JUMPDEST PUSH2 0x2E63 DUP2 PUSH2 0x2E49 JUMP JUMPDEST DUP3 MSTORE POP POP JUMP JUMPDEST PUSH0 PUSH1 0x20 DUP3 ADD SWAP1 POP PUSH2 0x2E7C PUSH0 DUP4 ADD DUP5 PUSH2 0x2E5A JUMP JUMPDEST SWAP3 SWAP2 POP POP JUMP JUMPDEST PUSH2 0x2E8B DUP2 PUSH2 0x2E49 JUMP JUMPDEST DUP2 EQ PUSH2 0x2E95 JUMPI PUSH0 DUP1 REVERT JUMPDEST POP JUMP JUMPDEST PUSH0 DUP2 CALLDATALOAD SWAP1 POP PUSH2 0x2EA6 DUP2 PUSH2 0x2E82 JUMP JUMPDEST SWAP3 SWAP2 POP POP JUMP JUMPDEST PUSH0 DUP1 PUSH1 0x40 DUP4 DUP6 SUB SLT ISZERO PUSH2 0x2EC2 JUMPI PUSH2 0x2EC1 PUSH2 0x2C81 JUMP JUMPDEST JUMPDEST PUSH0 PUSH2 0x2ECF DUP6 DUP3 DUP7 ADD PUSH2 0x2E98 JUMP JUMPDEST SWAP3 POP POP PUSH1 0x20 PUSH2 0x2EE0 DUP6 DUP3 DUP7 ADD PUSH2 0x2DEB JUMP JUMPDEST SWAP2 POP POP SWAP3 POP SWAP3 SWAP1 POP JUMP JUMPDEST PUSH2 0x2EF3 DUP2 PUSH2 0x2DCC JUMP JUMPDEST DUP3 MSTORE POP POP JUMP JUMPDEST PUSH0 PUSH1 0x20 DUP3 ADD SWAP1 POP PUSH2 0x2F0C PUSH0 DUP4 ADD DUP5 PUSH2 0x2EEA JUMP JUMPDEST SWAP3 SWAP2 POP POP JUMP JUMPDEST PUSH0 DUP1 PUSH0 PUSH1 0x60 DUP5 DUP7 SUB SLT ISZERO PUSH2 0x2F29 JUMPI PUSH2 0x2F28 PUSH2 0x2C81 JUMP JUMPDEST JUMPDEST PUSH0 PUSH2 0x2F36 DUP7 DUP3 DUP8 ADD PUSH2 0x2E98 JUMP JUMPDEST SWAP4 POP POP PUSH1 0x20 PUSH2 0x2F47 DUP7 DUP3 DUP8 ADD PUSH2 0x2E98 JUMP JUMPDEST SWAP3 POP POP PUSH1 0x40 PUSH2 0x2F58 DUP7 DUP3 DUP8 ADD PUSH2 0x2DEB JUMP JUMPDEST SWAP2 POP POP SWAP3 POP SWAP3 POP SWAP3 JUMP JUMPDEST PUSH0 PUSH1 0x20 DUP3 DUP5 SUB SLT ISZERO PUSH2 0x2F77 JUMPI PUSH2 0x2F76 PUSH2 0x2C81 JUMP JUMPDEST JUMPDEST PUSH0 PUSH2 0x2F84 DUP5 DUP3 DUP6 ADD PUSH2 0x2E98 JUMP JUMPDEST SWAP2 POP POP SWAP3 SWAP2 POP POP JUMP JUMPDEST PUSH0 DUP1 REVERT JUMPDEST PUSH0 DUP1 REVERT JUMPDEST PUSH0 DUP1 REVERT JUMPDEST PUSH0 DUP1 DUP4 PUSH1 0x1F DUP5 ADD SLT PUSH2 0x2FAE JUMPI PUSH2 0x2FAD PUSH2 0x2F8D JUMP JUMPDEST JUMPDEST DUP3 CALLDATALOAD SWAP1 POP PUSH8 0xFFFFFFFFFFFFFFFF DUP2 GT ISZERO PUSH2 0x2FCB JUMPI PUSH2 0x2FCA PUSH2 0x2F91 JUMP JUMPDEST JUMPDEST PUSH1 0x20 DUP4 ADD SWAP2 POP DUP4 PUSH1 0x20 DUP3 MUL DUP4 ADD GT ISZERO PUSH2 0x2FE7 JUMPI PUSH2 0x2FE6 PUSH2 0x2F95 JUMP JUMPDEST JUMPDEST SWAP3 POP SWAP3 SWAP1 POP JUMP JUMPDEST PUSH0 DUP1 PUSH1 0x20 DUP4 DUP6 SUB SLT ISZERO PUSH2 0x3004 JUMPI PUSH2 0x3003 PUSH2 0x2C81 JUMP JUMPDEST JUMPDEST PUSH0 DUP4 ADD CALLDATALOAD PUSH8 0xFFFFFFFFFFFFFFFF DUP2 GT ISZERO PUSH2 0x3021 JUMPI PUSH2 0x3020 PUSH2 0x2C85 JUMP JUMPDEST JUMPDEST PUSH2 0x302D DUP6 DUP3 DUP7 ADD PUSH2 0x2F99 JUMP JUMPDEST SWAP3 POP SWAP3 POP POP SWAP3 POP SWAP3 SWAP1 POP JUMP JUMPDEST PUSH0 DUP2 MLOAD SWAP1 POP SWAP2 SWAP1 POP JUMP JUMPDEST PUSH0 DUP3 DUP3 MSTORE PUSH1 0x20 DUP3 ADD SWAP1 POP SWAP3 SWAP2 POP POP JUMP JUMPDEST PUSH0 DUP2 SWAP1 POP PUSH1 0x20 DUP3 ADD SWAP1 POP SWAP2 SWAP1 POP JUMP JUMPDEST PUSH2 0x306B DUP2 PUSH2 0x2E49 JUMP JUMPDEST DUP3 MSTORE POP POP JUMP JUMPDEST PUSH0 PUSH8 0xFFFFFFFFFFFFFFFF DUP3 AND SWAP1 POP SWAP2 SWAP1 POP JUMP JUMPDEST PUSH2 0x308D DUP2 PUSH2 0x3071 JUMP JUMPDEST DUP3 MSTORE POP POP JUMP JUMPDEST PUSH2 0x309C DUP2 PUSH2 0x2D09 JUMP JUMPDEST DUP3 MSTORE POP POP JUMP JUMPDEST PUSH0 PUSH3 0xFFFFFF DUP3 AND SWAP1 POP SWAP2 SWAP1 POP JUMP JUMPDEST PUSH2 0x30B9 DUP2 PUSH2 0x30A2 JUMP JUMPDEST DUP3 MSTORE POP POP JUMP JUMPDEST PUSH1 0x80 DUP3 ADD PUSH0 DUP3 ADD MLOAD PUSH2 0x30D3 PUSH0 DUP6 ADD DUP3 PUSH2 0x3062 JUMP JUMPDEST POP PUSH1 0x20 DUP3 ADD MLOAD PUSH2 0x30E6 PUSH1 0x20 DUP6 ADD DUP3 PUSH2 0x3084 JUMP JUMPDEST POP PUSH1 0x40 DUP3 ADD MLOAD PUSH2 0x30F9 PUSH1 0x40 DUP6 ADD DUP3 PUSH2 0x3093 JUMP JUMPDEST POP PUSH1 0x60 DUP3 ADD MLOAD PUSH2 0x310C PUSH1 0x60 DUP6 ADD DUP3 PUSH2 0x30B0 JUMP JUMPDEST POP POP POP POP JUMP JUMPDEST PUSH0 PUSH2 0x311D DUP4 DUP4 PUSH2 0x30BF JUMP JUMPDEST PUSH1 0x80 DUP4 ADD SWAP1 POP SWAP3 SWAP2 POP POP JUMP JUMPDEST PUSH0 PUSH1 0x20 DUP3 ADD SWAP1 POP SWAP2 SWAP1 POP JUMP JUMPDEST PUSH0 PUSH2 0x313F DUP3 PUSH2 0x3039 JUMP JUMPDEST PUSH2 0x3149 DUP2 DUP6 PUSH2 0x3043 JUMP JUMPDEST SWAP4 POP PUSH2 0x3154 DUP4 PUSH2 0x3053 JUMP JUMPDEST DUP1 PUSH0 JUMPDEST DUP4 DUP2 LT ISZERO PUSH2 0x3184 JUMPI DUP2 MLOAD PUSH2 0x316B DUP9 DUP3 PUSH2 0x3112 JUMP JUMPDEST SWAP8 POP PUSH2 0x3176 DUP4 PUSH2 0x3129 JUMP JUMPDEST SWAP3 POP POP PUSH1 0x1 DUP2 ADD SWAP1 POP PUSH2 0x3157 JUMP JUMPDEST POP DUP6 SWAP4 POP POP POP POP SWAP3 SWAP2 POP POP JUMP JUMPDEST PUSH0 PUSH1 0x20 DUP3 ADD SWAP1 POP DUP2 DUP2 SUB PUSH0 DUP4 ADD MSTORE PUSH2 0x31A9 DUP2 DUP5 PUSH2 0x3135 JUMP JUMPDEST SWAP1 POP SWAP3 SWAP2 POP POP JUMP JUMPDEST PUSH0 DUP1 DUP4 PUSH1 0x1F DUP5 ADD SLT PUSH2 0x31C6 JUMPI PUSH2 0x31C5 PUSH2 0x2F8D JUMP JUMPDEST JUMPDEST DUP3 CALLDATALOAD SWAP1 POP PUSH8 0xFFFFFFFFFFFFFFFF DUP2 GT ISZERO PUSH2 0x31E3 JUMPI PUSH2 0x31E2 PUSH2 0x2F91 JUMP JUMPDEST JUMPDEST PUSH1 0x20 DUP4 ADD SWAP2 POP DUP4 PUSH1 0x20 DUP3 MUL DUP4 ADD GT ISZERO PUSH2 0x31FF JUMPI PUSH2 0x31FE PUSH2 0x2F95 JUMP JUMPDEST JUMPDEST SWAP3 POP SWAP3 SWAP1 POP JUMP JUMPDEST PUSH0 DUP1 PUSH1 0x20 DUP4 DUP6 SUB SLT ISZERO PUSH2 0x321C JUMPI PUSH2 0x321B PUSH2 0x2C81 JUMP JUMPDEST JUMPDEST PUSH0 DUP4 ADD CALLDATALOAD PUSH8 0xFFFFFFFFFFFFFFFF DUP2 GT ISZERO PUSH2 0x3239 JUMPI PUSH2 0x3238 PUSH2 0x2C85 JUMP JUMPDEST JUMPDEST PUSH2 0x3245 DUP6 DUP3 DUP7 ADD PUSH2 0x31B1 JUMP JUMPDEST SWAP3 POP SWAP3 POP POP SWAP3 POP SWAP3 SWAP1 POP JUMP JUMPDEST PUSH0 DUP2 SWAP1 POP SWAP2 SWAP1 POP JUMP JUMPDEST PUSH2 0x3263 DUP2 PUSH2 0x3251 JUMP JUMPDEST DUP3 MSTORE POP POP JUMP JUMPDEST PUSH0 PUSH1 0x20 DUP3 ADD SWAP1 POP PUSH2 0x327C PUSH0 DUP4 ADD DUP5 PUSH2 0x325A JUMP JUMPDEST SWAP3 SWAP2 POP POP JUMP JUMPDEST PUSH0 DUP2 MLOAD SWAP1 POP SWAP2 SWAP1 POP JUMP JUMPDEST PUSH0 DUP3 DUP3 MSTORE PUSH1 0x20 DUP3 ADD SWAP1 POP SWAP3 SWAP2 POP POP JUMP JUMPDEST PUSH0 DUP2 SWAP1 POP PUSH1 0x20 DUP3 ADD SWAP1 POP SWAP2 SWAP1 POP JUMP JUMPDEST PUSH2 0x32B4 DUP2 PUSH2 0x2DCC JUMP JUMPDEST DUP3 MSTORE POP POP JUMP JUMPDEST PUSH0 PUSH2 0x32C5 DUP4 DUP4 PUSH2 0x32AB JUMP JUMPDEST PUSH1 0x20 DUP4 ADD SWAP1 POP SWAP3 SWAP2 POP POP JUMP JUMPDEST PUSH0 PUSH1 0x20 DUP3 ADD SWAP1 POP SWAP2 SWAP1 POP JUMP JUMPDEST PUSH0 PUSH2 0x32E7 DUP3 PUSH2 0x3282 JUMP JUMPDEST PUSH2 0x32F1 DUP2 DUP6 PUSH2 0x328C JUMP JUMPDEST SWAP4 POP PUSH2 0x32FC DUP4 PUSH2 0x329C JUMP JUMPDEST DUP1 PUSH0 JUMPDEST DUP4 DUP2 LT ISZERO PUSH2 0x332C JUMPI DUP2 MLOAD PUSH2 0x3313 DUP9 DUP3 PUSH2 0x32BA JUMP JUMPDEST SWAP8 POP PUSH2 0x331E DUP4 PUSH2 0x32D1 JUMP JUMPDEST SWAP3 POP POP PUSH1 0x1 DUP2 ADD SWAP1 POP PUSH2 0x32FF JUMP JUMPDEST POP DUP6 SWAP4 POP POP POP POP SWAP3 SWAP2 POP POP JUMP JUMPDEST PUSH0 PUSH1 0x20 DUP3 ADD SWAP1 POP DUP2 DUP2 SUB PUSH0 DUP4 ADD MSTORE PUSH2 0x3351 DUP2 DUP5 PUSH2 0x32DD JUMP JUMPDEST SWAP1 POP SWAP3 SWAP2 POP POP JUMP JUMPDEST PUSH0 DUP1 PUSH0 PUSH1 0x60 DUP5 DUP7 SUB SLT ISZERO PUSH2 0x3370 JUMPI PUSH2 0x336F PUSH2 0x2C81 JUMP JUMPDEST JUMPDEST PUSH0 PUSH2 0x337D DUP7 DUP3 DUP8 ADD PUSH2 0x2E98 JUMP JUMPDEST SWAP4 POP POP PUSH1 0x20 PUSH2 0x338E DUP7 DUP3 DUP8 ADD PUSH2 0x2DEB JUMP JUMPDEST SWAP3 POP POP PUSH1 0x40 PUSH2 0x339F DUP7 DUP3 DUP8 ADD PUSH2 0x2DEB JUMP JUMPDEST SWAP2 POP POP SWAP3 POP SWAP3 POP SWAP3 JUMP JUMPDEST PUSH2 0x33B2 DUP2 PUSH2 0x2D09 JUMP JUMPDEST DUP2 EQ PUSH2 0x33BC JUMPI PUSH0 DUP1 REVERT JUMPDEST POP JUMP JUMPDEST PUSH0 DUP2 CALLDATALOAD SWAP1 POP PUSH2 0x33CD DUP2 PUSH2 0x33A9 JUMP JUMPDEST SWAP3 SWAP2 POP POP JUMP JUMPDEST PUSH0 DUP1 PUSH1 0x40 DUP4 DUP6 SUB SLT ISZERO PUSH2 0x33E9 JUMPI PUSH2 0x33E8 PUSH2 0x2C81 JUMP JUMPDEST JUMPDEST PUSH0 PUSH2 0x33F6 DUP6 DUP3 DUP7 ADD PUSH2 0x2E98 JUMP JUMPDEST SWAP3 POP POP PUSH1 0x20 PUSH2 0x3407 DUP6 DUP3 DUP7 ADD PUSH2 0x33BF JUMP JUMPDEST SWAP2 POP POP SWAP3 POP SWAP3 SWAP1 POP JUMP JUMPDEST PUSH0 DUP1 REVERT JUMPDEST PUSH32 0x4E487B7100000000000000000000000000000000000000000000000000000000 PUSH0 MSTORE PUSH1 0x41 PUSH1 0x4 MSTORE PUSH1 0x24 PUSH0 REVERT JUMPDEST PUSH2 0x344B DUP3 PUSH2 0x2D64 JUMP JUMPDEST DUP2 ADD DUP2 DUP2 LT PUSH8 0xFFFFFFFFFFFFFFFF DUP3 GT OR ISZERO PUSH2 0x346A JUMPI PUSH2 0x3469 PUSH2 0x3415 JUMP JUMPDEST JUMPDEST DUP1 PUSH1 0x40 MSTORE POP POP POP JUMP JUMPDEST PUSH0 PUSH2 0x347C PUSH2 0x2C78 JUMP JUMPDEST SWAP1 POP PUSH2 0x3488 DUP3 DUP3 PUSH2 0x3442 JUMP JUMPDEST SWAP2 SWAP1 POP JUMP JUMPDEST PUSH0 PUSH8 0xFFFFFFFFFFFFFFFF DUP3 GT ISZERO PUSH2 0x34A7 JUMPI PUSH2 0x34A6 PUSH2 0x3415 JUMP JUMPDEST JUMPDEST PUSH2 0x34B0 DUP3 PUSH2 0x2D64 JUMP JUMPDEST SWAP1 POP PUSH1 0x20 DUP2 ADD SWAP1 POP SWAP2 SWAP1 POP JUMP JUMPDEST DUP3 DUP2 DUP4 CALLDATACOPY PUSH0 DUP4 DUP4 ADD MSTORE POP POP POP JUMP JUMPDEST PUSH0 PUSH2 0x34DD PUSH2 0x34D8 DUP5 PUSH2 0x348D JUMP JUMPDEST PUSH2 0x3473 JUMP JUMPDEST SWAP1 POP DUP3 DUP2 MSTORE PUSH1 0x20 DUP2 ADD DUP5 DUP5 DUP5 ADD GT ISZERO PUSH2 0x34F9 JUMPI PUSH2 0x34F8 PUSH2 0x3411 JUMP JUMPDEST JUMPDEST PUSH2 0x3504 DUP5 DUP3 DUP6 PUSH2 0x34BD JUMP JUMPDEST POP SWAP4 SWAP3 POP POP POP JUMP JUMPDEST PUSH0 DUP3 PUSH1 0x1F DUP4 ADD SLT PUSH2 0x3520 JUMPI PUSH2 0x351F PUSH2 0x2F8D JUMP JUMPDEST JUMPDEST DUP2 CALLDATALOAD PUSH2 0x3530 DUP5 DUP3 PUSH1 0x20 DUP7 ADD PUSH2 0x34CB JUMP JUMPDEST SWAP2 POP POP SWAP3 SWAP2 POP POP JUMP JUMPDEST PUSH0 DUP1 PUSH0 DUP1 PUSH1 0x80 DUP6 DUP8 SUB SLT ISZERO PUSH2 0x3551 JUMPI PUSH2 0x3550 PUSH2 0x2C81 JUMP JUMPDEST JUMPDEST PUSH0 PUSH2 0x355E DUP8 DUP3 DUP9 ADD PUSH2 0x2E98 JUMP JUMPDEST SWAP5 POP POP PUSH1 0x20 PUSH2 0x356F DUP8 DUP3 DUP9 ADD PUSH2 0x2E98 JUMP JUMPDEST SWAP4 POP POP PUSH1 0x40 PUSH2 0x3580 DUP8 DUP3 DUP9 ADD PUSH2 0x2DEB JUMP JUMPDEST SWAP3 POP POP PUSH1 0x60 DUP6 ADD CALLDATALOAD PUSH8 0xFFFFFFFFFFFFFFFF DUP2 GT ISZERO PUSH2 0x35A1 JUMPI PUSH2 0x35A0 PUSH2 0x2C85 JUMP JUMPDEST JUMPDEST PUSH2 0x35AD DUP8 DUP3 DUP9 ADD PUSH2 0x350C JUMP JUMPDEST SWAP2 POP POP SWAP3 SWAP6 SWAP2 SWAP5 POP SWAP3 POP JUMP JUMPDEST PUSH1 0x80 DUP3 ADD PUSH0 DUP3 ADD MLOAD PUSH2 0x35CD PUSH0 DUP6 ADD DUP3 PUSH2 0x3062 JUMP JUMPDEST POP PUSH1 0x20 DUP3 ADD MLOAD PUSH2 0x35E0 PUSH1 0x20 DUP6 ADD DUP3 PUSH2 0x3084 JUMP JUMPDEST POP PUSH1 0x40 DUP3 ADD MLOAD PUSH2 0x35F3 PUSH1 0x40 DUP6 ADD DUP3 PUSH2 0x3093 JUMP JUMPDEST POP PUSH1 0x60 DUP3 ADD MLOAD PUSH2 0x3606 PUSH1 0x60 DUP6 ADD DUP3 PUSH2 0x30B0 JUMP JUMPDEST POP POP POP POP JUMP JUMPDEST PUSH0 PUSH1 0x80 DUP3 ADD SWAP1 POP PUSH2 0x361F PUSH0 DUP4 ADD DUP5 PUSH2 0x35B9 JUMP JUMPDEST SWAP3 SWAP2 POP POP JUMP JUMPDEST PUSH0 DUP1 PUSH1 0x40 DUP4 DUP6 SUB SLT ISZERO PUSH2 0x363B JUMPI PUSH2 0x363A PUSH2 0x2C81 JUMP JUMPDEST JUMPDEST PUSH0 PUSH2 0x3648 DUP6 DUP3 DUP7 ADD PUSH2 0x2E98 JUMP JUMPDEST SWAP3 POP POP PUSH1 0x20 PUSH2 0x3659 DUP6 DUP3 DUP7 ADD PUSH2 0x2E98 JUMP JUMPDEST SWAP2 POP POP SWAP3 POP SWAP3 SWAP1 POP JUMP JUMPDEST PUSH32 0x4E487B7100000000000000000000000000000000000000000000000000000000 PUSH0 MSTORE PUSH1 0x22 PUSH1 0x4 MSTORE PUSH1 0x24 PUSH0 REVERT JUMPDEST PUSH0 PUSH1 0x2 DUP3 DIV SWAP1 POP PUSH1 0x1 DUP3 AND DUP1 PUSH2 0x36A7 JUMPI PUSH1 0x7F DUP3 AND SWAP2 POP JUMPDEST PUSH1 0x20 DUP3 LT DUP2 SUB PUSH2 0x36BA JUMPI PUSH2 0x36B9 PUSH2 0x3663 JUMP JUMPDEST JUMPDEST POP SWAP2 SWAP1 POP JUMP JUMPDEST PUSH32 0x5245454E5452414E435900000000000000000000000000000000000000000000 PUSH0 DUP3 ADD MSTORE POP JUMP JUMPDEST PUSH0 PUSH2 0x36F4 PUSH1 0xA DUP4 PUSH2 0x2D46 JUMP JUMPDEST SWAP2 POP PUSH2 0x36FF DUP3 PUSH2 0x36C0 JUMP JUMPDEST PUSH1 0x20 DUP3 ADD SWAP1 POP SWAP2 SWAP1 POP JUMP JUMPDEST PUSH0 PUSH1 0x20 DUP3 ADD SWAP1 POP DUP2 DUP2 SUB PUSH0 DUP4 ADD MSTORE PUSH2 0x3721 DUP2 PUSH2 0x36E8 JUMP JUMPDEST SWAP1 POP SWAP2 SWAP1 POP JUMP JUMPDEST PUSH32 0x7075626C6963206D696E74207068617365206973206E6F742061637469766500 PUSH0 DUP3 ADD MSTORE POP JUMP JUMPDEST PUSH0 PUSH2 0x375C PUSH1 0x1F DUP4 PUSH2 0x2D46 JUMP JUMPDEST SWAP2 POP PUSH2 0x3767 DUP3 PUSH2 0x3728 JUMP JUMPDEST PUSH1 0x20 DUP3 ADD SWAP1 POP SWAP2 SWAP1 POP JUMP JUMPDEST PUSH0 PUSH1 0x20 DUP3 ADD SWAP1 POP DUP2 DUP2 SUB PUSH0 DUP4 ADD MSTORE PUSH2 0x3789 DUP2 PUSH2 0x3750 JUMP JUMPDEST SWAP1 POP SWAP2 SWAP1 POP JUMP JUMPDEST PUSH32 0x4E487B7100000000000000000000000000000000000000000000000000000000 PUSH0 MSTORE PUSH1 0x11 PUSH1 0x4 MSTORE PUSH1 0x24 PUSH0 REVERT JUMPDEST PUSH0 PUSH2 0x37C7 DUP3 PUSH2 0x2DCC JUMP JUMPDEST SWAP2 POP PUSH2 0x37D2 DUP4 PUSH2 0x2DCC JUMP JUMPDEST SWAP3 POP DUP3 DUP3 ADD SWAP1 POP DUP1 DUP3 GT ISZERO PUSH2 0x37EA JUMPI PUSH2 0x37E9 PUSH2 0x3790 JUMP JUMPDEST JUMPDEST SWAP3 SWAP2 POP POP JUMP JUMPDEST PUSH0 PUSH2 0x37FA DUP3 PUSH2 0x2DCC JUMP JUMPDEST SWAP2 POP PUSH2 0x3805 DUP4 PUSH2 0x2DCC JUMP JUMPDEST SWAP3 POP DUP3 DUP3 MUL PUSH2 0x3813 DUP2 PUSH2 0x2DCC JUMP JUMPDEST SWAP2 POP DUP3 DUP3 DIV DUP5 EQ DUP4 ISZERO OR PUSH2 0x382A JUMPI PUSH2 0x3829 PUSH2 0x3790 JUMP JUMPDEST JUMPDEST POP SWAP3 SWAP2 POP POP JUMP JUMPDEST PUSH0 PUSH2 0x383B DUP3 PUSH2 0x2DCC JUMP JUMPDEST SWAP2 POP PUSH2 0x3846 DUP4 PUSH2 0x2DCC JUMP JUMPDEST SWAP3 POP DUP3 DUP3 SUB SWAP1 POP DUP2 DUP2 GT ISZERO PUSH2 0x385E JUMPI PUSH2 0x385D PUSH2 0x3790 JUMP JUMPDEST JUMPDEST SWAP3 SWAP2 POP POP JUMP JUMPDEST PUSH0 DUP2 SWAP1 POP SWAP2 SWAP1 POP JUMP JUMPDEST PUSH2 0x387E PUSH2 0x3879 DUP3 PUSH2 0x3251 JUMP JUMPDEST PUSH2 0x3864 JUMP JUMPDEST DUP3 MSTORE POP POP JUMP JUMPDEST PUSH0 DUP2 SWAP1 POP SWAP2 SWAP1 POP JUMP JUMPDEST PUSH2 0x389E PUSH2 0x3899 DUP3 PUSH2 0x2DCC JUMP JUMPDEST PUSH2 0x3884 JUMP JUMPDEST DUP3 MSTORE POP POP JUMP JUMPDEST PUSH0 PUSH2 0x38AF DUP3 DUP6 PUSH2 0x386D JUMP JUMPDEST PUSH1 0x20 DUP3 ADD SWAP2 POP PUSH2 0x38BF DUP3 DUP5 PUSH2 0x388D JUMP JUMPDEST PUSH1 0x20 DUP3 ADD SWAP2 POP DUP2 SWAP1 POP SWAP4 SWAP3 POP POP POP JUMP JUMPDEST PUSH0 PUSH2 0x38D9 DUP3 PUSH2 0x2DCC JUMP JUMPDEST SWAP2 POP PUSH32 0xFFFFFFFFFFFFFFFFFFFFFFFFFFFFFFFFFFFFFFFFFFFFFFFFFFFFFFFFFFFFFFFF DUP3 SUB PUSH2 0x390B JUMPI PUSH2 0x390A PUSH2 0x3790 JUMP JUMPDEST JUMPDEST PUSH1 0x1 DUP3 ADD SWAP1 POP SWAP2 SWAP1 POP JUMP JUMPDEST PUSH32 0x554E415554484F52495A45440000000000000000000000000000000000000000 PUSH0 DUP3 ADD MSTORE POP JUMP JUMPDEST PUSH0 PUSH2 0x394A PUSH1 0xC DUP4 PUSH2 0x2D46 JUMP JUMPDEST SWAP2 POP PUSH2 0x3955 DUP3 PUSH2 0x3916 JUMP JUMPDEST PUSH1 0x20 DUP3 ADD SWAP1 POP SWAP2 SWAP1 POP JUMP JUMPDEST PUSH0 PUSH1 0x20 DUP3 ADD SWAP1 POP DUP2 DUP2 SUB PUSH0 DUP4 ADD MSTORE PUSH2 0x3977 DUP2 PUSH2 0x393E JUMP JUMPDEST SWAP1 POP SWAP2 SWAP1 POP JUMP JUMPDEST PUSH0 DUP2 SWAP1 POP SWAP3 SWAP2 POP POP JUMP JUMPDEST POP JUMP JUMPDEST PUSH0 PUSH2 0x3996 PUSH0 DUP4 PUSH2 0x397E JUMP JUMPDEST SWAP2 POP PUSH2 0x39A1 DUP3 PUSH2 0x3988 JUMP JUMPDEST PUSH0 DUP3 ADD SWAP1 POP SWAP2 SWAP1 POP JUMP JUMPDEST PUSH0 PUSH2 0x39B5 DUP3 PUSH2 0x398B JUMP JUMPDEST SWAP2 POP DUP2 SWAP1 POP SWAP2 SWAP1 POP JUMP JUMPDEST PUSH32 0x5472616E73666572206661696C65642E00000000000000000000000000000000 PUSH0 DUP3 ADD MSTORE POP JUMP JUMPDEST PUSH0 PUSH2 0x39F3 PUSH1 0x10 DUP4 PUSH2 0x2D46 JUMP JUMPDEST SWAP2 POP PUSH2 0x39FE DUP3 PUSH2 0x39BF JUMP JUMPDEST PUSH1 0x20 DUP3 ADD SWAP1 POP SWAP2 SWAP1 POP JUMP JUMPDEST PUSH0 PUSH1 0x20 DUP3 ADD SWAP1 POP DUP2 DUP2 SUB PUSH0 DUP4 ADD MSTORE PUSH2 0x3A20 DUP2 PUSH2 0x39E7 JUMP JUMPDEST SWAP1 POP SWAP2 SWAP1 POP JUMP JUMPDEST PUSH32 0x436F6E74726F6C6C6572204F6E6C790000000000000000000000000000000000 PUSH0 DUP3 ADD MSTORE POP JUMP JUMPDEST PUSH0 PUSH2 0x3A5B PUSH1 0xF DUP4 PUSH2 0x2D46 JUMP JUMPDEST SWAP2 POP PUSH2 0x3A66 DUP3 PUSH2 0x3A27 JUMP JUMPDEST PUSH1 0x20 DUP3 ADD SWAP1 POP SWAP2 SWAP1 POP JUMP JUMPDEST PUSH0 PUSH1 0x20 DUP3 ADD SWAP1 POP DUP2 DUP2 SUB PUSH0 DUP4 ADD MSTORE PUSH2 0x3A88 DUP2 PUSH2 0x3A4F JUMP JUMPDEST SWAP1 POP SWAP2 SWAP1 POP JUMP JUMPDEST PUSH32 0x4E487B7100000000000000000000000000000000000000000000000000000000 PUSH0 MSTORE PUSH1 0x32 PUSH1 0x4 MSTORE PUSH1 0x24 PUSH0 REVERT JUMPDEST PUSH32 0x46726565206D696E74207068617365206973206E6F7420616374697665000000 PUSH0 DUP3 ADD MSTORE POP JUMP JUMPDEST PUSH0 PUSH2 0x3AF0 PUSH1 0x1D DUP4 PUSH2 0x2D46 JUMP JUMPDEST SWAP2 POP PUSH2 0x3AFB DUP3 PUSH2 0x3ABC JUMP JUMPDEST PUSH1 0x20 DUP3 ADD SWAP1 POP SWAP2 SWAP1 POP JUMP JUMPDEST PUSH0 PUSH1 0x20 DUP3 ADD SWAP1 POP DUP2 DUP2 SUB PUSH0 DUP4 ADD MSTORE PUSH2 0x3B1D DUP2 PUSH2 0x3AE4 JUMP JUMPDEST SWAP1 POP SWAP2 SWAP1 POP JUMP JUMPDEST PUSH32 0x4E6F74206F6E2077686974656C69737400000000000000000000000000000000 PUSH0 DUP3 ADD MSTORE POP JUMP JUMPDEST PUSH0 PUSH2 0x3B58 PUSH1 0x10 DUP4 PUSH2 0x2D46 JUMP JUMPDEST SWAP2 POP PUSH2 0x3B63 DUP3 PUSH2 0x3B24 JUMP JUMPDEST PUSH1 0x20 DUP3 ADD SWAP1 POP SWAP2 SWAP1 POP JUMP JUMPDEST PUSH0 PUSH1 0x20 DUP3 ADD SWAP1 POP DUP2 DUP2 SUB PUSH0 DUP4 ADD MSTORE PUSH2 0x3B85 DUP2 PUSH2 0x3B4C JUMP JUMPDEST SWAP1 POP SWAP2 SWAP1 POP JUMP JUMPDEST PUSH32 0x6F6E6C79206F6E65206672656520506570650000000000000000000000000000 PUSH0 DUP3 ADD MSTORE POP JUMP JUMPDEST PUSH0 PUSH2 0x3BC0 PUSH1 0x12 DUP4 PUSH2 0x2D46 JUMP JUMPDEST SWAP2 POP PUSH2 0x3BCB DUP3 PUSH2 0x3B8C JUMP JUMPDEST PUSH1 0x20 DUP3 ADD SWAP1 POP SWAP2 SWAP1 POP JUMP JUMPDEST PUSH0 PUSH1 0x20 DUP3 ADD SWAP1 POP DUP2 DUP2 SUB PUSH0 DUP4 ADD MSTORE PUSH2 0x3BED DUP2 PUSH2 0x3BB4 JUMP JUMPDEST SWAP1 POP SWAP2 SWAP1 POP JUMP JUMPDEST PUSH0 PUSH1 0x40 DUP3 ADD SWAP1 POP PUSH2 0x3C07 PUSH0 DUP4 ADD DUP6 PUSH2 0x2EEA JUMP JUMPDEST PUSH2 0x3C14 PUSH1 0x20 DUP4 ADD DUP5 PUSH2 0x325A JUMP JUMPDEST SWAP4 SWAP3 POP POP POP JUMP JUMPDEST PUSH0 PUSH8 0xFFFFFFFFFFFFFFFF DUP3 GT ISZERO PUSH2 0x3C35 JUMPI PUSH2 0x3C34 PUSH2 0x3415 JUMP JUMPDEST JUMPDEST PUSH2 0x3C3E DUP3 PUSH2 0x2D64 JUMP JUMPDEST SWAP1 POP PUSH1 0x20 DUP2 ADD SWAP1 POP SWAP2 SWAP1 POP JUMP JUMPDEST PUSH0 PUSH2 0x3C5D PUSH2 0x3C58 DUP5 PUSH2 0x3C1B JUMP JUMPDEST PUSH2 0x3473 JUMP JUMPDEST SWAP1 POP DUP3 DUP2 MSTORE PUSH1 0x20 DUP2 ADD DUP5 DUP5 DUP5 ADD GT ISZERO PUSH2 0x3C79 JUMPI PUSH2 0x3C78 PUSH2 0x3411 JUMP JUMPDEST JUMPDEST PUSH2 0x3C84 DUP5 DUP3 DUP6 PUSH2 0x2D56 JUMP JUMPDEST POP SWAP4 SWAP3 POP POP POP JUMP JUMPDEST PUSH0 DUP3 PUSH1 0x1F DUP4 ADD SLT PUSH2 0x3CA0 JUMPI PUSH2 0x3C9F PUSH2 0x2F8D JUMP JUMPDEST JUMPDEST DUP2 MLOAD PUSH2 0x3CB0 DUP5 DUP3 PUSH1 0x20 DUP7 ADD PUSH2 0x3C4B JUMP JUMPDEST SWAP2 POP POP SWAP3 SWAP2 POP POP JUMP JUMPDEST PUSH0 PUSH1 0x20 DUP3 DUP5 SUB SLT ISZERO PUSH2 0x3CCE JUMPI PUSH2 0x3CCD PUSH2 0x2C81 JUMP JUMPDEST JUMPDEST PUSH0 DUP3 ADD MLOAD PUSH8 0xFFFFFFFFFFFFFFFF DUP2 GT ISZERO PUSH2 0x3CEB JUMPI PUSH2 0x3CEA PUSH2 0x2C85 JUMP JUMPDEST JUMPDEST PUSH2 0x3CF7 DUP5 DUP3 DUP6 ADD PUSH2 0x3C8C JUMP JUMPDEST SWAP2 POP POP SWAP3 SWAP2 POP POP JUMP JUMPDEST PUSH0 PUSH2 0x3D0A DUP3 PUSH2 0x2DCC JUMP JUMPDEST SWAP2 POP PUSH0 DUP3 SUB PUSH2 0x3D1C JUMPI PUSH2 0x3D1B PUSH2 0x3790 JUMP JUMPDEST JUMPDEST PUSH1 0x1 DUP3 SUB SWAP1 POP SWAP2 SWAP1 POP JUMP JUMPDEST PUSH0 DUP2 MLOAD SWAP1 POP SWAP2 SWAP1 POP JUMP JUMPDEST PUSH0 DUP3 DUP3 MSTORE PUSH1 0x20 DUP3 ADD SWAP1 POP SWAP3 SWAP2 POP POP JUMP JUMPDEST PUSH0 PUSH2 0x3D4B DUP3 PUSH2 0x3D27 JUMP JUMPDEST PUSH2 0x3D55 DUP2 DUP6 PUSH2 0x3D31 JUMP JUMPDEST SWAP4 POP PUSH2 0x3D65 DUP2 DUP6 PUSH1 0x20 DUP7 ADD PUSH2 0x2D56 JUMP JUMPDEST PUSH2 0x3D6E DUP2 PUSH2 0x2D64 JUMP JUMPDEST DUP5 ADD SWAP2 POP POP SWAP3 SWAP2 POP POP JUMP JUMPDEST PUSH0 PUSH1 0x80 DUP3 ADD SWAP1 POP PUSH2 0x3D8C PUSH0 DUP4 ADD DUP8 PUSH2 0x2E5A JUMP JUMPDEST PUSH2 0x3D99 PUSH1 0x20 DUP4 ADD DUP7 PUSH2 0x2E5A JUMP JUMPDEST PUSH2 0x3DA6 PUSH1 0x40 DUP4 ADD DUP6 PUSH2 0x2EEA JUMP JUMPDEST DUP2 DUP2 SUB PUSH1 0x60 DUP4 ADD MSTORE PUSH2 0x3DB8 DUP2 DUP5 PUSH2 0x3D41 JUMP JUMPDEST SWAP1 POP SWAP6 SWAP5 POP POP POP POP POP JUMP JUMPDEST PUSH0 DUP2 MLOAD SWAP1 POP PUSH2 0x3DD1 DUP2 PUSH2 0x2CB4 JUMP JUMPDEST SWAP3 SWAP2 POP POP JUMP JUMPDEST PUSH0 PUSH1 0x20 DUP3 DUP5 SUB SLT ISZERO PUSH2 0x3DEC JUMPI PUSH2 0x3DEB PUSH2 0x2C81 JUMP JUMPDEST JUMPDEST PUSH0 PUSH2 0x3DF9 DUP5 DUP3 DUP6 ADD PUSH2 0x3DC3 JUMP JUMPDEST SWAP2 POP POP SWAP3 SWAP2 POP POP JUMP INVALID LOG2 PUSH5 0x6970667358 0x22 SLT KECCAK256 SWAP13 0xCA PUSH19 0xEF51D53CFCE46BA41536B08E84644240A91C9C 0x2A 0xAF PUSH32 0xFB059E4996DA5B64736F6C634300081A00330000000000000000000000000000 "
		},
		"gasEstimates": {
			"creation": {
				"codeDepositCost": "3185600",
				"executionCost": "infinite",
				"totalCost": "infinite"
			},
			"external": {
				"DevMint(uint256)": "infinite",
				"MAX_FREE()": "2513",
				"MAX_SUPPLY()": "2559",
				"MINT_COST()": "2514",
				"Total_Supply()": "2537",
				"addToWhiteList(address[])": "infinite",
				"amountMinted(address)": "2914",
				"approve(address,uint256)": "infinite",
				"balanceOf(address)": "2916",
				"changelistController(address)": "27018",
				"explicitOwnershipOf(uint256)": "infinite",
				"explicitOwnershipsOf(uint256[])": "infinite",
				"freeMint(uint256)": "infinite",
				"freePepes(address)": "2868",
				"freePhaseActive()": "2511",
				"getApproved(uint256)": "infinite",
				"isApprovedForAll(address,address)": "infinite",
				"listController()": "2554",
				"name()": "infinite",
				"owner()": "2553",
				"ownerOf(uint256)": "infinite",
				"publicMint(uint256)": "infinite",
				"publicPhaseActive()": "2563",
				"safeTransferFrom(address,address,uint256)": "infinite",
				"safeTransferFrom(address,address,uint256,bytes)": "infinite",
				"setApprovalForAll(address,bool)": "infinite",
				"supportsInterface(bytes4)": "759",
				"symbol()": "infinite",
				"toggleFreeMinting()": "28761",
				"togglePublicMinting()": "28929",
				"tokenIdToSeed(uint256)": "2844",
				"tokenURI(uint256)": "infinite",
				"tokensOfOwner(address)": "infinite",
				"tokensOfOwnerIn(address,uint256,uint256)": "infinite",
				"totalSupply()": "4769",
				"transferFrom(address,address,uint256)": "infinite",
				"transferOwnership(address)": "28538",
				"whiteListed(address)": "2965",
				"whitelistPhaseActive()": "2650",
				"withdraw()": "infinite"
			},
			"internal": {
				"_startTokenId()": "22"
			}
		},
		"methodIdentifiers": {
			"DevMint(uint256)": "6dc41da7",
			"MAX_FREE()": "ed6661c2",
			"MAX_SUPPLY()": "32cb6b0c",
			"MINT_COST()": "c662e481",
			"Total_Supply()": "306d6e87",
			"addToWhiteList(address[])": "740d73f3",
			"amountMinted(address)": "438a67e7",
			"approve(address,uint256)": "095ea7b3",
			"balanceOf(address)": "70a08231",
			"changelistController(address)": "481231a5",
			"explicitOwnershipOf(uint256)": "c23dc68f",
			"explicitOwnershipsOf(uint256[])": "5bbb2177",
			"freeMint(uint256)": "7c928fe9",
			"freePepes(address)": "ea994530",
			"freePhaseActive()": "beb81891",
			"getApproved(uint256)": "081812fc",
			"isApprovedForAll(address,address)": "e985e9c5",
			"listController()": "367b2a20",
			"name()": "06fdde03",
			"owner()": "8da5cb5b",
			"ownerOf(uint256)": "6352211e",
			"publicMint(uint256)": "2db11544",
			"publicPhaseActive()": "187e0f17",
			"safeTransferFrom(address,address,uint256)": "42842e0e",
			"safeTransferFrom(address,address,uint256,bytes)": "b88d4fde",
			"setApprovalForAll(address,bool)": "a22cb465",
			"supportsInterface(bytes4)": "01ffc9a7",
			"symbol()": "95d89b41",
			"toggleFreeMinting()": "4a7d3e81",
			"togglePublicMinting()": "6b8a21fc",
			"tokenIdToSeed(uint256)": "75e91691",
			"tokenURI(uint256)": "c87b56dd",
			"tokensOfOwner(address)": "8462151c",
			"tokensOfOwnerIn(address,uint256,uint256)": "99a2557a",
			"totalSupply()": "18160ddd",
			"transferFrom(address,address,uint256)": "23b872dd",
			"transferOwnership(address)": "f2fde38b",
			"whiteListed(address)": "fa0fca84",
			"whitelistPhaseActive()": "d12f743a",
			"withdraw()": "3ccfd60b"
		}
	},
	"abi": [
		{
			"inputs": [
				{
					"internalType": "address",
					"name": "_renderer",
					"type": "address"
				}
			],
			"stateMutability": "nonpayable",
			"type": "constructor"
		},
		{
			"inputs": [],
			"name": "AmountExceedsAvailableSupply",
			"type": "error"
		},
		{
			"inputs": [],
			"name": "AmountRequired",
			"type": "error"
		},
		{
			"inputs": [],
			"name": "ApprovalCallerNotOwnerNorApproved",
			"type": "error"
		},
		{
			"inputs": [],
			"name": "ApprovalQueryForNonexistentToken",
			"type": "error"
		},
		{
			"inputs": [],
			"name": "BalanceQueryForZeroAddress",
			"type": "error"
		},
		{
			"inputs": [],
			"name": "InsufficientFunds",
			"type": "error"
		},
		{
			"inputs": [],
			"name": "InvalidQueryRange",
			"type": "error"
		},
		{
			"inputs": [],
			"name": "MaxMintWouldBeExceeded",
			"type": "error"
		},
		{
			"inputs": [],
			"name": "MintERC2309QuantityExceedsLimit",
			"type": "error"
		},
		{
			"inputs": [],
			"name": "MintToZeroAddress",
			"type": "error"
		},
		{
			"inputs": [],
			"name": "MintZeroQuantity",
			"type": "error"
		},
		{
			"inputs": [],
			"name": "NotCompatibleWithSpotMints",
			"type": "error"
		},
		{
			"inputs": [],
			"name": "OnlyOneFreeMint",
			"type": "error"
		},
		{
			"inputs": [],
			"name": "OwnerQueryForNonexistentToken",
			"type": "error"
		},
		{
			"inputs": [],
			"name": "OwnershipNotInitializedForExtraData",
			"type": "error"
		},
		{
			"inputs": [],
			"name": "SequentialMintExceedsLimit",
			"type": "error"
		},
		{
			"inputs": [],
			"name": "SequentialUpToTooSmall",
			"type": "error"
		},
		{
			"inputs": [],
			"name": "SoldOut",
			"type": "error"
		},
		{
			"inputs": [],
			"name": "SpotMintTokenIdTooSmall",
			"type": "error"
		},
		{
			"inputs": [],
			"name": "TokenAlreadyExists",
			"type": "error"
		},
		{
			"inputs": [],
			"name": "TransferCallerNotOwnerNorApproved",
			"type": "error"
		},
		{
			"inputs": [],
			"name": "TransferFromIncorrectOwner",
			"type": "error"
		},
		{
			"inputs": [],
			"name": "TransferToNonERC721ReceiverImplementer",
			"type": "error"
		},
		{
			"inputs": [],
			"name": "TransferToZeroAddress",
			"type": "error"
		},
		{
			"inputs": [],
			"name": "URIQueryForNonexistentToken",
			"type": "error"
		},
		{
			"anonymous": false,
			"inputs": [
				{
					"indexed": true,
					"internalType": "address",
					"name": "owner",
					"type": "address"
				},
				{
					"indexed": true,
					"internalType": "address",
					"name": "approved",
					"type": "address"
				},
				{
					"indexed": true,
					"internalType": "uint256",
					"name": "tokenId",
					"type": "uint256"
				}
			],
			"name": "Approval",
			"type": "event"
		},
		{
			"anonymous": false,
			"inputs": [
				{
					"indexed": true,
					"internalType": "address",
					"name": "owner",
					"type": "address"
				},
				{
					"indexed": true,
					"internalType": "address",
					"name": "operator",
					"type": "address"
				},
				{
					"indexed": false,
					"internalType": "bool",
					"name": "approved",
					"type": "bool"
				}
			],
			"name": "ApprovalForAll",
			"type": "event"
		},
		{
			"anonymous": false,
			"inputs": [
				{
					"indexed": true,
					"internalType": "uint256",
					"name": "fromTokenId",
					"type": "uint256"
				},
				{
					"indexed": false,
					"internalType": "uint256",
					"name": "toTokenId",
					"type": "uint256"
				},
				{
					"indexed": true,
					"internalType": "address",
					"name": "from",
					"type": "address"
				},
				{
					"indexed": true,
					"internalType": "address",
					"name": "to",
					"type": "address"
				}
			],
			"name": "ConsecutiveTransfer",
			"type": "event"
		},
		{
			"anonymous": false,
			"inputs": [
				{
					"indexed": true,
					"internalType": "address",
					"name": "user",
					"type": "address"
				},
				{
					"indexed": true,
					"internalType": "address",
					"name": "newOwner",
					"type": "address"
				}
			],
			"name": "OwnershipTransferred",
			"type": "event"
		},
		{
			"anonymous": false,
			"inputs": [
				{
					"indexed": false,
					"internalType": "address",
					"name": "from",
					"type": "address"
				},
				{
					"indexed": false,
					"internalType": "uint256",
					"name": "amount",
					"type": "uint256"
				}
			],
			"name": "PaymentReceived",
			"type": "event"
		},
		{
			"anonymous": false,
			"inputs": [
				{
					"indexed": true,
					"internalType": "address",
					"name": "from",
					"type": "address"
				},
				{
					"indexed": true,
					"internalType": "address",
					"name": "to",
					"type": "address"
				},
				{
					"indexed": true,
					"internalType": "uint256",
					"name": "tokenId",
					"type": "uint256"
				}
			],
			"name": "Transfer",
			"type": "event"
		},
		{
			"inputs": [
				{
					"internalType": "uint256",
					"name": "amount",
					"type": "uint256"
				}
			],
			"name": "DevMint",
			"outputs": [],
			"stateMutability": "nonpayable",
			"type": "function"
		},
		{
			"inputs": [],
			"name": "MAX_FREE",
			"outputs": [
				{
					"internalType": "uint256",
					"name": "",
					"type": "uint256"
				}
			],
			"stateMutability": "view",
			"type": "function"
		},
		{
			"inputs": [],
			"name": "MAX_SUPPLY",
			"outputs": [
				{
					"internalType": "uint256",
					"name": "",
					"type": "uint256"
				}
			],
			"stateMutability": "view",
			"type": "function"
		},
		{
			"inputs": [],
			"name": "MINT_COST",
			"outputs": [
				{
					"internalType": "uint256",
					"name": "",
					"type": "uint256"
				}
			],
			"stateMutability": "view",
			"type": "function"
		},
		{
			"inputs": [],
			"name": "Total_Supply",
			"outputs": [
				{
					"internalType": "uint256",
					"name": "",
					"type": "uint256"
				}
			],
			"stateMutability": "view",
			"type": "function"
		},
		{
			"inputs": [
				{
					"internalType": "address[]",
					"name": "addresses",
					"type": "address[]"
				}
			],
			"name": "addToWhiteList",
			"outputs": [],
			"stateMutability": "nonpayable",
			"type": "function"
		},
		{
			"inputs": [
				{
					"internalType": "address",
					"name": "",
					"type": "address"
				}
			],
			"name": "amountMinted",
			"outputs": [
				{
					"internalType": "uint256",
					"name": "",
					"type": "uint256"
				}
			],
			"stateMutability": "view",
			"type": "function"
		},
		{
			"inputs": [
				{
					"internalType": "address",
					"name": "to",
					"type": "address"
				},
				{
					"internalType": "uint256",
					"name": "tokenId",
					"type": "uint256"
				}
			],
			"name": "approve",
			"outputs": [],
			"stateMutability": "payable",
			"type": "function"
		},
		{
			"inputs": [
				{
					"internalType": "address",
					"name": "owner",
					"type": "address"
				}
			],
			"name": "balanceOf",
			"outputs": [
				{
					"internalType": "uint256",
					"name": "",
					"type": "uint256"
				}
			],
			"stateMutability": "view",
			"type": "function"
		},
		{
			"inputs": [
				{
					"internalType": "address",
					"name": "_address",
					"type": "address"
				}
			],
			"name": "changelistController",
			"outputs": [],
			"stateMutability": "nonpayable",
			"type": "function"
		},
		{
			"inputs": [
				{
					"internalType": "uint256",
					"name": "tokenId",
					"type": "uint256"
				}
			],
			"name": "explicitOwnershipOf",
			"outputs": [
				{
					"components": [
						{
							"internalType": "address",
							"name": "addr",
							"type": "address"
						},
						{
							"internalType": "uint64",
							"name": "startTimestamp",
							"type": "uint64"
						},
						{
							"internalType": "bool",
							"name": "burned",
							"type": "bool"
						},
						{
							"internalType": "uint24",
							"name": "extraData",
							"type": "uint24"
						}
					],
					"internalType": "struct IERC721A.TokenOwnership",
					"name": "ownership",
					"type": "tuple"
				}
			],
			"stateMutability": "view",
			"type": "function"
		},
		{
			"inputs": [
				{
					"internalType": "uint256[]",
					"name": "tokenIds",
					"type": "uint256[]"
				}
			],
			"name": "explicitOwnershipsOf",
			"outputs": [
				{
					"components": [
						{
							"internalType": "address",
							"name": "addr",
							"type": "address"
						},
						{
							"internalType": "uint64",
							"name": "startTimestamp",
							"type": "uint64"
						},
						{
							"internalType": "bool",
							"name": "burned",
							"type": "bool"
						},
						{
							"internalType": "uint24",
							"name": "extraData",
							"type": "uint24"
						}
					],
					"internalType": "struct IERC721A.TokenOwnership[]",
					"name": "",
					"type": "tuple[]"
				}
			],
			"stateMutability": "view",
			"type": "function"
		},
		{
			"inputs": [
				{
					"internalType": "uint256",
					"name": "amount",
					"type": "uint256"
				}
			],
			"name": "freeMint",
			"outputs": [],
			"stateMutability": "nonpayable",
			"type": "function"
		},
		{
			"inputs": [
				{
					"internalType": "address",
					"name": "",
					"type": "address"
				}
			],
			"name": "freePepes",
			"outputs": [
				{
					"internalType": "uint256",
					"name": "",
					"type": "uint256"
				}
			],
			"stateMutability": "view",
			"type": "function"
		},
		{
			"inputs": [],
			"name": "freePhaseActive",
			"outputs": [
				{
					"internalType": "bool",
					"name": "",
					"type": "bool"
				}
			],
			"stateMutability": "view",
			"type": "function"
		},
		{
			"inputs": [
				{
					"internalType": "uint256",
					"name": "tokenId",
					"type": "uint256"
				}
			],
			"name": "getApproved",
			"outputs": [
				{
					"internalType": "address",
					"name": "",
					"type": "address"
				}
			],
			"stateMutability": "view",
			"type": "function"
		},
		{
			"inputs": [
				{
					"internalType": "address",
					"name": "owner",
					"type": "address"
				},
				{
					"internalType": "address",
					"name": "operator",
					"type": "address"
				}
			],
			"name": "isApprovedForAll",
			"outputs": [
				{
					"internalType": "bool",
					"name": "",
					"type": "bool"
				}
			],
			"stateMutability": "view",
			"type": "function"
		},
		{
			"inputs": [],
			"name": "listController",
			"outputs": [
				{
					"internalType": "address",
					"name": "",
					"type": "address"
				}
			],
			"stateMutability": "view",
			"type": "function"
		},
		{
			"inputs": [],
			"name": "name",
			"outputs": [
				{
					"internalType": "string",
					"name": "",
					"type": "string"
				}
			],
			"stateMutability": "view",
			"type": "function"
		},
		{
			"inputs": [],
			"name": "owner",
			"outputs": [
				{
					"internalType": "address",
					"name": "",
					"type": "address"
				}
			],
			"stateMutability": "view",
			"type": "function"
		},
		{
			"inputs": [
				{
					"internalType": "uint256",
					"name": "tokenId",
					"type": "uint256"
				}
			],
			"name": "ownerOf",
			"outputs": [
				{
					"internalType": "address",
					"name": "",
					"type": "address"
				}
			],
			"stateMutability": "view",
			"type": "function"
		},
		{
			"inputs": [
				{
					"internalType": "uint256",
					"name": "amount",
					"type": "uint256"
				}
			],
			"name": "publicMint",
			"outputs": [],
			"stateMutability": "payable",
			"type": "function"
		},
		{
			"inputs": [],
			"name": "publicPhaseActive",
			"outputs": [
				{
					"internalType": "bool",
					"name": "",
					"type": "bool"
				}
			],
			"stateMutability": "view",
			"type": "function"
		},
		{
			"inputs": [
				{
					"internalType": "address",
					"name": "from",
					"type": "address"
				},
				{
					"internalType": "address",
					"name": "to",
					"type": "address"
				},
				{
					"internalType": "uint256",
					"name": "tokenId",
					"type": "uint256"
				}
			],
			"name": "safeTransferFrom",
			"outputs": [],
			"stateMutability": "payable",
			"type": "function"
		},
		{
			"inputs": [
				{
					"internalType": "address",
					"name": "from",
					"type": "address"
				},
				{
					"internalType": "address",
					"name": "to",
					"type": "address"
				},
				{
					"internalType": "uint256",
					"name": "tokenId",
					"type": "uint256"
				},
				{
					"internalType": "bytes",
					"name": "_data",
					"type": "bytes"
				}
			],
			"name": "safeTransferFrom",
			"outputs": [],
			"stateMutability": "payable",
			"type": "function"
		},
		{
			"inputs": [
				{
					"internalType": "address",
					"name": "operator",
					"type": "address"
				},
				{
					"internalType": "bool",
					"name": "approved",
					"type": "bool"
				}
			],
			"name": "setApprovalForAll",
			"outputs": [],
			"stateMutability": "nonpayable",
			"type": "function"
		},
		{
			"inputs": [
				{
					"internalType": "bytes4",
					"name": "interfaceId",
					"type": "bytes4"
				}
			],
			"name": "supportsInterface",
			"outputs": [
				{
					"internalType": "bool",
					"name": "",
					"type": "bool"
				}
			],
			"stateMutability": "view",
			"type": "function"
		},
		{
			"inputs": [],
			"name": "symbol",
			"outputs": [
				{
					"internalType": "string",
					"name": "",
					"type": "string"
				}
			],
			"stateMutability": "view",
			"type": "function"
		},
		{
			"inputs": [],
			"name": "toggleFreeMinting",
			"outputs": [],
			"stateMutability": "nonpayable",
			"type": "function"
		},
		{
			"inputs": [],
			"name": "togglePublicMinting",
			"outputs": [],
			"stateMutability": "nonpayable",
			"type": "function"
		},
		{
			"inputs": [
				{
					"internalType": "uint256",
					"name": "",
					"type": "uint256"
				}
			],
			"name": "tokenIdToSeed",
			"outputs": [
				{
					"internalType": "bytes32",
					"name": "",
					"type": "bytes32"
				}
			],
			"stateMutability": "view",
			"type": "function"
		},
		{
			"inputs": [
				{
					"internalType": "uint256",
					"name": "tokenId",
					"type": "uint256"
				}
			],
			"name": "tokenURI",
			"outputs": [
				{
					"internalType": "string",
					"name": "",
					"type": "string"
				}
			],
			"stateMutability": "view",
			"type": "function"
		},
		{
			"inputs": [
				{
					"internalType": "address",
					"name": "owner",
					"type": "address"
				}
			],
			"name": "tokensOfOwner",
			"outputs": [
				{
					"internalType": "uint256[]",
					"name": "",
					"type": "uint256[]"
				}
			],
			"stateMutability": "view",
			"type": "function"
		},
		{
			"inputs": [
				{
					"internalType": "address",
					"name": "owner",
					"type": "address"
				},
				{
					"internalType": "uint256",
					"name": "start",
					"type": "uint256"
				},
				{
					"internalType": "uint256",
					"name": "stop",
					"type": "uint256"
				}
			],
			"name": "tokensOfOwnerIn",
			"outputs": [
				{
					"internalType": "uint256[]",
					"name": "",
					"type": "uint256[]"
				}
			],
			"stateMutability": "view",
			"type": "function"
		},
		{
			"inputs": [],
			"name": "totalSupply",
			"outputs": [
				{
					"internalType": "uint256",
					"name": "result",
					"type": "uint256"
				}
			],
			"stateMutability": "view",
			"type": "function"
		},
		{
			"inputs": [
				{
					"internalType": "address",
					"name": "from",
					"type": "address"
				},
				{
					"internalType": "address",
					"name": "to",
					"type": "address"
				},
				{
					"internalType": "uint256",
					"name": "tokenId",
					"type": "uint256"
				}
			],
			"name": "transferFrom",
			"outputs": [],
			"stateMutability": "payable",
			"type": "function"
		},
		{
			"inputs": [
				{
					"internalType": "address",
					"name": "newOwner",
					"type": "address"
				}
			],
			"name": "transferOwnership",
			"outputs": [],
			"stateMutability": "nonpayable",
			"type": "function"
		},
		{
			"inputs": [
				{
					"internalType": "address",
					"name": "",
					"type": "address"
				}
			],
			"name": "whiteListed",
			"outputs": [
				{
					"internalType": "bool",
					"name": "",
					"type": "bool"
				}
			],
			"stateMutability": "view",
			"type": "function"
		},
		{
			"inputs": [],
			"name": "whitelistPhaseActive",
			"outputs": [
				{
					"internalType": "bool",
					"name": "",
					"type": "bool"
				}
			],
			"stateMutability": "view",
			"type": "function"
		},
		{
			"inputs": [],
			"name": "withdraw",
			"outputs": [],
			"stateMutability": "nonpayable",
			"type": "function"
		}
	]
}