{
	"data": {
		"bytecode": {
			"linkReferences": {},
			"object": "60806040526001600a556103e8600c5569043c33c1937564800000600d5561017b600e555f600f5f6101000a81548160ff0219169083151502179055505f600f60016101000a81548160ff0219169083151502179055505f600f60026101000a81548160ff02191690831515021790555034801561007b575f80fd5b5060405161433a38038061433a833981810160405281019061009d919061036a565b336040518060400160405280600981526020017f48616d20506570657300000000000000000000000000000000000000000000008152506040518060400160405280600581526020017f4850455045000000000000000000000000000000000000000000000000000000815250816002908161011991906105f4565b50806003908161012991906105f4565b506101386102a260201b60201c565b5f8190555061014b6102a260201b60201c565b6101596102aa60201b60201c565b10156101765761017563fed8210f60e01b6102d160201b60201c565b5b50508060095f6101000a81548173ffffffffffffffffffffffffffffffffffffffff021916908373ffffffffffffffffffffffffffffffffffffffff1602179055508073ffffffffffffffffffffffffffffffffffffffff165f73ffffffffffffffffffffffffffffffffffffffff167f8be0079c531659141344cd1fd0a4f28419497f9722a3daafe3b4186f6b6457e060405160405180910390a350806010819055508160115f6101000a81548173ffffffffffffffffffffffffffffffffffffffff021916908373ffffffffffffffffffffffffffffffffffffffff16021790555082600b5f6101000a81548173ffffffffffffffffffffffffffffffffffffffff021916908373ffffffffffffffffffffffffffffffffffffffff1602179055505050506106c3565b5f6001905090565b5f7fffffffffffffffffffffffffffffffffffffffffffffffffffffffffffffffff905090565b805f5260045ffd5b5f80fd5b5f73ffffffffffffffffffffffffffffffffffffffff82169050919050565b5f610306826102dd565b9050919050565b610316816102fc565b8114610320575f80fd5b50565b5f815190506103318161030d565b92915050565b5f819050919050565b61034981610337565b8114610353575f80fd5b50565b5f8151905061036481610340565b92915050565b5f805f60608486031215610381576103806102d9565b5b5f61038e86828701610323565b935050602061039f86828701610323565b92505060406103b086828701610356565b9150509250925092565b5f81519050919050565b7f4e487b71000000000000000000000000000000000000000000000000000000005f52604160045260245ffd5b7f4e487b71000000000000000000000000000000000000000000000000000000005f52602260045260245ffd5b5f600282049050600182168061043557607f821691505b602082108103610448576104476103f1565b5b50919050565b5f819050815f5260205f209050919050565b5f6020601f8301049050919050565b5f82821b905092915050565b5f600883026104aa7fffffffffffffffffffffffffffffffffffffffffffffffffffffffffffffffff8261046f565b6104b4868361046f565b95508019841693508086168417925050509392505050565b5f819050919050565b5f819050919050565b5f6104f86104f36104ee846104cc565b6104d5565b6104cc565b9050919050565b5f819050919050565b610511836104de565b61052561051d826104ff565b84845461047b565b825550505050565b5f90565b61053961052d565b610544818484610508565b505050565b5b818110156105675761055c5f82610531565b60018101905061054a565b5050565b601f8211156105ac5761057d8161044e565b61058684610460565b81016020851015610595578190505b6105a96105a185610460565b830182610549565b50505b505050565b5f82821c905092915050565b5f6105cc5f19846008026105b1565b1980831691505092915050565b5f6105e483836105bd565b9150826002028217905092915050565b6105fd826103ba565b67ffffffffffffffff811115610616576106156103c4565b5b610620825461041e565b61062b82828561056b565b5f60209050601f83116001811461065c575f841561064a578287015190505b61065485826105d9565b8655506106bb565b601f19841661066a8661044e565b5f5b828110156106915784890151825560018201915060208501945060208101905061066c565b868310156106ae57848901516106aa601f8916826105bd565b8355505b6001600288020188555050505b505050505050565b613c6a806106d05f395ff3fe60806040526004361061022f575f3560e01c8063739656db1161012d578063beb81891116100aa578063d2c59d511161006e578063d2c59d5114610803578063e2f36dce14610819578063e985e9c514610841578063ed6661c21461087d578063f2fde38b146108a75761022f565b8063beb818911461070d578063c23dc68f14610737578063c662e48114610773578063c87b56dd1461079d578063d12f743a146107d95761022f565b806399a2557a116100f157806399a2557a1461063b578063a22cb46514610677578063ac785fbf1461069f578063b5d5bec1146106c9578063b88d4fde146106f15761022f565b8063739656db1461054757806375e916911461056f5780638462151c146105ab5780638da5cb5b146105e757806395d89b41146106115761022f565b806332cb6b0c116101bb5780634a7d3e811161017f5780634a7d3e81146104675780635bbb21771461047d5780636352211e146104b95780636b8a21fc146104f557806370a082311461050b5761022f565b806332cb6b0c146103a75780633ccfd60b146103d157806342842e0e146103e7578063438a67e7146104035780634783f0ef1461043f5761022f565b806318160ddd1161020257806318160ddd146102f1578063187e0f171461031b57806323b872dd146103455780632db11544146103615780632eb4a7ab1461037d5761022f565b806301ffc9a71461023357806306fdde031461026f578063081812fc14610299578063095ea7b3146102d5575b5f80fd5b34801561023e575f80fd5b5061025960048036038101906102549190612c04565b6108cf565b6040516102669190612c49565b60405180910390f35b34801561027a575f80fd5b50610283610960565b6040516102909190612cd2565b60405180910390f35b3480156102a4575f80fd5b506102bf60048036038101906102ba9190612d25565b6109f0565b6040516102cc9190612d8f565b60405180910390f35b6102ef60048036038101906102ea9190612dd2565b610a49565b005b3480156102fc575f80fd5b50610305610a59565b6040516103129190612e1f565b60405180910390f35b348015610326575f80fd5b5061032f610aa4565b60405161033c9190612c49565b60405180910390f35b61035f600480360381019061035a9190612e38565b610ab7565b005b61037b60048036038101906103769190612d25565b610d62565b005b348015610388575f80fd5b5061039161119b565b60405161039e9190612ea0565b60405180910390f35b3480156103b2575f80fd5b506103bb6111a1565b6040516103c89190612e1f565b60405180910390f35b3480156103dc575f80fd5b506103e56111a7565b005b61040160048036038101906103fc9190612e38565b611336565b005b34801561040e575f80fd5b5061042960048036038101906104249190612eb9565b611355565b6040516104369190612e1f565b60405180910390f35b34801561044a575f80fd5b5061046560048036038101906104609190612f0e565b61136a565b005b348015610472575f80fd5b5061047b611403565b005b348015610488575f80fd5b506104a3600480360381019061049e9190612f9a565b6114bc565b6040516104b0919061313d565b60405180910390f35b3480156104c4575f80fd5b506104df60048036038101906104da9190612d25565b611518565b6040516104ec9190612d8f565b60405180910390f35b348015610500575f80fd5b50610509611529565b005b348015610516575f80fd5b50610531600480360381019061052c9190612eb9565b6115e4565b60405161053e9190612e1f565b60405180910390f35b348015610552575f80fd5b5061056d6004803603810190610568919061315d565b611678565b005b34801561057a575f80fd5b5061059560048036038101906105909190612d25565b6117fe565b6040516105a29190612ea0565b60405180910390f35b3480156105b6575f80fd5b506105d160048036038101906105cc9190612eb9565b611813565b6040516105de9190613252565b60405180910390f35b3480156105f2575f80fd5b506105fb61188c565b6040516106089190612d8f565b60405180910390f35b34801561061c575f80fd5b506106256118b1565b6040516106329190612cd2565b60405180910390f35b348015610646575f80fd5b50610661600480360381019061065c9190613272565b611941565b60405161066e9190613252565b60405180910390f35b348015610682575f80fd5b5061069d600480360381019061069891906132ec565b611957565b005b3480156106aa575f80fd5b506106b3611a5d565b6040516106c09190612d8f565b60405180910390f35b3480156106d4575f80fd5b506106ef60048036038101906106ea9190612eb9565b611a82565b005b61070b60048036038101906107069190613452565b611b54565b005b348015610718575f80fd5b50610721611ba5565b60405161072e9190612c49565b60405180910390f35b348015610742575f80fd5b5061075d60048036038101906107589190612d25565b611bb7565b60405161076a9190613525565b60405180910390f35b34801561077e575f80fd5b50610787611c2c565b6040516107949190612e1f565b60405180910390f35b3480156107a8575f80fd5b506107c360048036038101906107be9190612d25565b611c32565b6040516107d09190612cd2565b60405180910390f35b3480156107e4575f80fd5b506107ed611cea565b6040516107fa9190612c49565b60405180910390f35b34801561080e575f80fd5b50610817611cfd565b005b348015610824575f80fd5b5061083f600480360381019061083a9190613593565b611db8565b005b34801561084c575f80fd5b506108676004803603810190610862919061315d565b611f73565b6040516108749190612c49565b60405180910390f35b348015610888575f80fd5b50610891612001565b60405161089e9190612e1f565b60405180910390f35b3480156108b2575f80fd5b506108cd60048036038101906108c89190612eb9565b612007565b005b5f6301ffc9a760e01b827bffffffffffffffffffffffffffffffffffffffffffffffffffffffff1916148061092957506380ac58cd60e01b827bffffffffffffffffffffffffffffffffffffffffffffffffffffffff1916145b806109595750635b5e139f60e01b827bffffffffffffffffffffffffffffffffffffffffffffffffffffffff1916145b9050919050565b60606002805461096f9061361d565b80601f016020809104026020016040519081016040528092919081815260200182805461099b9061361d565b80156109e65780601f106109bd576101008083540402835291602001916109e6565b820191905f5260205f20905b8154815290600101906020018083116109c957829003601f168201915b5050505050905090565b5f6109fa82612133565b610a0f57610a0e63cf4700e460e01b6121d6565b5b60065f8381526020019081526020015f205f015f9054906101000a900473ffffffffffffffffffffffffffffffffffffffff169050919050565b610a55828260016121de565b5050565b5f610a62612308565b6001545f54030390507fffffffffffffffffffffffffffffffffffffffffffffffffffffffffffffffff610a94612310565b14610aa157600854810190505b90565b600f60029054906101000a900460ff1681565b5f610ac182612337565b905073ffffffffffffffffffffffffffffffffffffffff8473ffffffffffffffffffffffffffffffffffffffff161693508373ffffffffffffffffffffffffffffffffffffffff168173ffffffffffffffffffffffffffffffffffffffff1614610b3657610b3563a114810060e01b6121d6565b5b5f80610b4184612446565b91509150610b578187610b52612469565b612470565b610b8257610b6c86610b67612469565b611f73565b610b8157610b806359c896be60e01b6121d6565b5b5b610b8f86868660016124b3565b8015610b99575f82555b60055f8773ffffffffffffffffffffffffffffffffffffffff1673ffffffffffffffffffffffffffffffffffffffff1681526020019081526020015f205f8154600190039190508190555060055f8673ffffffffffffffffffffffffffffffffffffffff1673ffffffffffffffffffffffffffffffffffffffff1681526020019081526020015f205f815460010191905081905550610c6185610c3d8888876124b9565b7c0200000000000000000000000000000000000000000000000000000000176124e0565b60045f8681526020019081526020015f20819055505f7c0200000000000000000000000000000000000000000000000000000000841603610cdd575f6001850190505f60045f8381526020019081526020015f205403610cdb575f548114610cda578360045f8381526020019081526020015f20819055505b5b505b5f73ffffffffffffffffffffffffffffffffffffffff8673ffffffffffffffffffffffffffffffffffffffff161690508481887fddf252ad1be2c89b69c2b068fc378daa952ba7f163c4a11628f55a4df523b3ef5f80a45f8103610d4c57610d4b63ea553b3460e01b6121d6565b5b610d59878787600161250a565b50505050505050565b6001600a5414610da7576040517f08c379a0000000000000000000000000000000000000000000000000000000008152600401610d9e90613697565b60405180910390fd5b6002600a819055506001600f60026101000a81548160ff0219169083151502179055610dd1575f80fd5b60048160135f3373ffffffffffffffffffffffffffffffffffffffff1673ffffffffffffffffffffffffffffffffffffffff1681526020019081526020015f2054610e1c91906136e2565b1115610e54576040517f58c7943400000000000000000000000000000000000000000000000000000000815260040160405180910390fd5b8060135f3373ffffffffffffffffffffffffffffffffffffffff1673ffffffffffffffffffffffffffffffffffffffff1681526020019081526020015f205f828254610ea091906136e2565b925050819055505f610eb0612510565b9050600c548103610eed576040517f52df9fe500000000000000000000000000000000000000000000000000000000815260040160405180910390fd5b5f8211610f26576040517fd43e607500000000000000000000000000000000000000000000000000000000815260040160405180910390fd5b5f8282610f3391906136e2565b9050600c54811115610f71576040517f3ffc0da600000000000000000000000000000000000000000000000000000000815260040160405180910390fd5b5f600d5484610f809190613715565b90508060115f9054906101000a900473ffffffffffffffffffffffffffffffffffffffff1673ffffffffffffffffffffffffffffffffffffffff166370a08231336040518263ffffffff1660e01b8152600401610fdd9190612d8f565b602060405180830381865afa158015610ff8573d5f803e3d5ffd5b505050506040513d601f19601f8201168201806040525081019061101c919061376a565b1015611054576040517f356680b700000000000000000000000000000000000000000000000000000000815260040160405180910390fd5b60115f9054906101000a900473ffffffffffffffffffffffffffffffffffffffff1673ffffffffffffffffffffffffffffffffffffffff166323b872dd3361dead846040518463ffffffff1660e01b81526004016110b493929190613795565b6020604051808303815f875af11580156110d0573d5f803e3d5ffd5b505050506040513d601f19601f820116820180604052508101906110f491906137de565b505f6110fe612557565b90505f6001868361110f91906136e2565b6111199190613809565b90505b808211611181576001436111309190613809565b408260405160200161114392919061387c565b6040516020818303038152906040528051906020012060125f8481526020019081526020015f20819055508180611179906138a7565b92505061111c565b61118b338761255f565b50505050506001600a8190555050565b60105481565b600c5481565b60095f9054906101000a900473ffffffffffffffffffffffffffffffffffffffff1673ffffffffffffffffffffffffffffffffffffffff163373ffffffffffffffffffffffffffffffffffffffff1614611236576040517f08c379a000000000000000000000000000000000000000000000000000000000815260040161122d90613938565b60405180910390fd5b6001600a541461127b576040517f08c379a000000000000000000000000000000000000000000000000000000000815260040161127290613697565b60405180910390fd5b6002600a819055505f3373ffffffffffffffffffffffffffffffffffffffff16476040516112a890613983565b5f6040518083038185875af1925050503d805f81146112e2576040519150601f19603f3d011682016040523d82523d5f602084013e6112e7565b606091505b505090508061132b576040517f08c379a0000000000000000000000000000000000000000000000000000000008152600401611322906139e1565b60405180910390fd5b506001600a81905550565b61135083838360405180602001604052805f815250611b54565b505050565b6013602052805f5260405f205f915090505481565b60095f9054906101000a900473ffffffffffffffffffffffffffffffffffffffff1673ffffffffffffffffffffffffffffffffffffffff163373ffffffffffffffffffffffffffffffffffffffff16146113f9576040517f08c379a00000000000000000000000000000000000000000000000000000000081526004016113f090613938565b60405180910390fd5b8060108190555050565b60095f9054906101000a900473ffffffffffffffffffffffffffffffffffffffff1673ffffffffffffffffffffffffffffffffffffffff163373ffffffffffffffffffffffffffffffffffffffff1614611492576040517f08c379a000000000000000000000000000000000000000000000000000000000815260040161148990613938565b60405180910390fd5b600f5f9054906101000a900460ff1615600f5f6101000a81548160ff021916908315150217905550565b6060805f84849050905060405191508082528060051b90508060208301016040525b5f811461150d575f6020820391508186013590505f6114fc82611bb7565b9050808360208601015250506114de565b819250505092915050565b5f61152282612337565b9050919050565b60095f9054906101000a900473ffffffffffffffffffffffffffffffffffffffff1673ffffffffffffffffffffffffffffffffffffffff163373ffffffffffffffffffffffffffffffffffffffff16146115b8576040517f08c379a00000000000000000000000000000000000000000000000000000000081526004016115af90613938565b60405180910390fd5b600f60029054906101000a900460ff1615600f60026101000a81548160ff021916908315150217905550565b5f8073ffffffffffffffffffffffffffffffffffffffff168273ffffffffffffffffffffffffffffffffffffffff160361162957611628638f4eb60460e01b6121d6565b5b67ffffffffffffffff60055f8473ffffffffffffffffffffffffffffffffffffffff1673ffffffffffffffffffffffffffffffffffffffff1681526020019081526020015f2054169050919050565b60095f9054906101000a900473ffffffffffffffffffffffffffffffffffffffff1673ffffffffffffffffffffffffffffffffffffffff163373ffffffffffffffffffffffffffffffffffffffff1614611707576040517f08c379a00000000000000000000000000000000000000000000000000000000081526004016116fe90613938565b60405180910390fd5b8173ffffffffffffffffffffffffffffffffffffffff1663a9059cbb828473ffffffffffffffffffffffffffffffffffffffff166370a08231306040518263ffffffff1660e01b815260040161175d9190612d8f565b602060405180830381865afa158015611778573d5f803e3d5ffd5b505050506040513d601f19601f8201168201806040525081019061179c919061376a565b6040518363ffffffff1660e01b81526004016117b99291906139ff565b6020604051808303815f875af11580156117d5573d5f803e3d5ffd5b505050506040513d601f19601f820116820180604052508101906117f991906137de565b505050565b6012602052805f5260405f205f915090505481565b60607fffffffffffffffffffffffffffffffffffffffffffffffffffffffffffffffff61183e612310565b146118545761185363bdba09d760e01b6121d6565b5b5f61185d612308565b90505f611868612557565b905060608183146118815761187e8584846126d3565b90505b809350505050919050565b60095f9054906101000a900473ffffffffffffffffffffffffffffffffffffffff1681565b6060600380546118c09061361d565b80601f01602080910402602001604051908101604052809291908181526020018280546118ec9061361d565b80156119375780601f1061190e57610100808354040283529160200191611937565b820191905f5260205f20905b81548152906001019060200180831161191a57829003601f168201915b5050505050905090565b606061194e8484846126d3565b90509392505050565b8060075f611963612469565b73ffffffffffffffffffffffffffffffffffffffff1673ffffffffffffffffffffffffffffffffffffffff1681526020019081526020015f205f8473ffffffffffffffffffffffffffffffffffffffff1673ffffffffffffffffffffffffffffffffffffffff1681526020019081526020015f205f6101000a81548160ff0219169083151502179055508173ffffffffffffffffffffffffffffffffffffffff16611a0c612469565b73ffffffffffffffffffffffffffffffffffffffff167f17307eab39ab6107e8899845ad3d59bd9653f200f220920489ca2b5937696c3183604051611a519190612c49565b60405180910390a35050565b60115f9054906101000a900473ffffffffffffffffffffffffffffffffffffffff1681565b60095f9054906101000a900473ffffffffffffffffffffffffffffffffffffffff1673ffffffffffffffffffffffffffffffffffffffff163373ffffffffffffffffffffffffffffffffffffffff1614611b11576040517f08c379a0000000000000000000000000000000000000000000000000000000008152600401611b0890613938565b60405180910390fd5b8060115f6101000a81548173ffffffffffffffffffffffffffffffffffffffff021916908373ffffffffffffffffffffffffffffffffffffffff16021790555050565b611b5f848484610ab7565b5f8373ffffffffffffffffffffffffffffffffffffffff163b14611b9f57611b8984848484612882565b611b9e57611b9d63d1a57ed660e01b6121d6565b5b5b50505050565b600f5f9054906101000a900460ff1681565b611bbf612b53565b611bc7612308565b8210611c2657611bd5612310565b821115611bec57611be5826129ac565b9050611c27565b611bf4612557565b821015611c25575b611c05826129d5565b611c155781600190039150611bfc565b611c1e826129ac565b9050611c27565b5b5b919050565b600d5481565b6060600b5f9054906101000a900473ffffffffffffffffffffffffffffffffffffffff1673ffffffffffffffffffffffffffffffffffffffff1663c649c9a88360125f8681526020019081526020015f20546040518363ffffffff1660e01b8152600401611ca1929190613a26565b5f60405180830381865afa158015611cbb573d5f803e3d5ffd5b505050506040513d5f823e3d601f19601f82011682018060405250810190611ce39190613aeb565b9050919050565b600f60019054906101000a900460ff1681565b60095f9054906101000a900473ffffffffffffffffffffffffffffffffffffffff1673ffffffffffffffffffffffffffffffffffffffff163373ffffffffffffffffffffffffffffffffffffffff1614611d8c576040517f08c379a0000000000000000000000000000000000000000000000000000000008152600401611d8390613938565b60405180910390fd5b600f60019054906101000a900460ff1615600f60016101000a81548160ff021916908315150217905550565b6001600a5414611dfd576040517f08c379a0000000000000000000000000000000000000000000000000000000008152600401611df490613697565b60405180910390fd5b6002600a819055506001600f5f6101000a81548160ff0219169083151502179055611e26575f80fd5b5f33604051602001611e389190612d8f565b604051602081830303815290604052805190602001209050611e5e8383601054846129f2565b611e94576040517f09bde33900000000000000000000000000000000000000000000000000000000815260040160405180910390fd5b5f8411611ecd576040517fd43e607500000000000000000000000000000000000000000000000000000000815260040160405180910390fd5b5f611ed6612557565b90505f60018683611ee791906136e2565b611ef19190613809565b90505b808211611f5957600143611f089190613809565b4082604051602001611f1b92919061387c565b6040516020818303038152906040528051906020012060125f8481526020019081526020015f20819055508180611f51906138a7565b925050611ef4565b611f63338761255f565b5050506001600a81905550505050565b5f60075f8473ffffffffffffffffffffffffffffffffffffffff1673ffffffffffffffffffffffffffffffffffffffff1681526020019081526020015f205f8373ffffffffffffffffffffffffffffffffffffffff1673ffffffffffffffffffffffffffffffffffffffff1681526020019081526020015f205f9054906101000a900460ff16905092915050565b600e5481565b60095f9054906101000a900473ffffffffffffffffffffffffffffffffffffffff1673ffffffffffffffffffffffffffffffffffffffff163373ffffffffffffffffffffffffffffffffffffffff1614612096576040517f08c379a000000000000000000000000000000000000000000000000000000000815260040161208d90613938565b60405180910390fd5b8060095f6101000a81548173ffffffffffffffffffffffffffffffffffffffff021916908373ffffffffffffffffffffffffffffffffffffffff1602179055508073ffffffffffffffffffffffffffffffffffffffff163373ffffffffffffffffffffffffffffffffffffffff167f8be0079c531659141344cd1fd0a4f28419497f9722a3daafe3b4186f6b6457e060405160405180910390a350565b5f8161213d612308565b116121d05761214a612310565b8211156121725761216b60045f8481526020019081526020015f2054612a48565b90506121d1565b5f548210156121cf575f5b5f60045f8581526020019081526020015f2054915081036121a957826121a290613b32565b925061217d565b5f7c01000000000000000000000000000000000000000000000000000000008216149150505b5b5b919050565b805f5260045ffd5b5f6121e883611518565b905081801561222a57508073ffffffffffffffffffffffffffffffffffffffff16612211612469565b73ffffffffffffffffffffffffffffffffffffffff1614155b15612256576122408161223b612469565b611f73565b6122555761225463cfb3b94260e01b6121d6565b5b5b8360065f8581526020019081526020015f205f015f6101000a81548173ffffffffffffffffffffffffffffffffffffffff021916908373ffffffffffffffffffffffffffffffffffffffff160217905550828473ffffffffffffffffffffffffffffffffffffffff168273ffffffffffffffffffffffffffffffffffffffff167f8c5be1e5ebec7d5bd14f71427d1e84f3dd0314c0f7b2291e5b200ac8c7c3b92560405160405180910390a450505050565b5f6001905090565b5f7fffffffffffffffffffffffffffffffffffffffffffffffffffffffffffffffff905090565b5f81612341612308565b116124305760045f8381526020019081526020015f20549050612362612310565b8211156123875761237281612a48565b6124415761238663df2d9b4260e01b6121d6565b5b5f8103612408575f5482106123a7576123a663df2d9b4260e01b6121d6565b5b5b60045f836001900393508381526020019081526020015f205490505f810315612403575f7c0100000000000000000000000000000000000000000000000000000000821603156124415761240263df2d9b4260e01b6121d6565b5b6123a8565b5f7c010000000000000000000000000000000000000000000000000000000082160315612441575b61244063df2d9b4260e01b6121d6565b5b919050565b5f805f60065f8581526020019081526020015f2090508092508254915050915091565b5f33905090565b5f73ffffffffffffffffffffffffffffffffffffffff8316925073ffffffffffffffffffffffffffffffffffffffff821691508382148383141790509392505050565b50505050565b5f8060e883901c905060e86124cf868684612a88565b62ffffff16901b9150509392505050565b5f73ffffffffffffffffffffffffffffffffffffffff83169250814260a01b178317905092915050565b50505050565b5f612519612308565b5f540390507fffffffffffffffffffffffffffffffffffffffffffffffffffffffffffffffff612547612310565b1461255457600854810190505b90565b5f8054905090565b5f805490505f820361257c5761257b63b562e8dd60e01b6121d6565b5b6125885f8483856124b3565b6125a6836125975f865f6124b9565b6125a085612a90565b176124e0565b60045f8381526020019081526020015f2081905550600160406001901b17820260055f8573ffffffffffffffffffffffffffffffffffffffff1673ffffffffffffffffffffffffffffffffffffffff1681526020019081526020015f205f82825401925050819055505f73ffffffffffffffffffffffffffffffffffffffff8473ffffffffffffffffffffffffffffffffffffffff161690505f810361265757612656632e07630060e01b6121d6565b5b5f83830190505f839050612669612310565b600183031115612684576126836381647e3a60e01b6121d6565b5b5b80835f7fddf252ad1be2c89b69c2b068fc378daa952ba7f163c4a11628f55a4df523b3ef5f80a481816001019150810361268557815f819055505050506126ce5f84838561250a565b505050565b60608183106126ed576126ec6332c1995a60e01b6121d6565b5b6126f5612308565b83101561270757612704612308565b92505b5f612710612557565b90505f7fffffffffffffffffffffffffffffffffffffffffffffffffffffffffffffffff61273c612310565b036127475781612749565b835b9050808410612756578093505b5f612760876115e4565b905084861061276d575f90505b5f81146128785780868603116127835785850390505b5f60405194506001820160051b85019050806040525f6127a288611bb7565b90505f81604001516127b557815f015190505b5f5b7fffffffffffffffffffffffffffffffffffffffffffffffffffffffffffffffff6127e0612310565b1461280e57868a036127fa5760016127f6612310565b0199505b612802612310565b8a111561280d575f91505b5b6128178a6129ac565b925060408301515f811461282d575f9250612853565b83511561283957835192505b8b831860601b612852576001820191508a8260051b8a01525b5b5060018a01995083604052888a148061286b57508481145b156127b757808852505050505b5050509392505050565b5f8373ffffffffffffffffffffffffffffffffffffffff1663150b7a026128a7612469565b8786866040518563ffffffff1660e01b81526004016128c99493929190613bab565b6020604051808303815f875af192505050801561290457506040513d601f19601f820116820180604052508101906129019190613c09565b60015b612959573d805f8114612932576040519150601f19603f3d011682016040523d82523d5f602084013e612937565b606091505b505f8151036129515761295063d1a57ed660e01b6121d6565b5b805181602001fd5b63150b7a0260e01b7bffffffffffffffffffffffffffffffffffffffffffffffffffffffff1916817bffffffffffffffffffffffffffffffffffffffffffffffffffffffff191614915050949350505050565b6129b4612b53565b6129ce60045f8481526020019081526020015f2054612a9f565b9050919050565b5f8060045f8481526020019081526020015f205414159050919050565b5f8315612a3b578360051b8501855b600115612a38578035841160051b8481528135602082185260405f209450602082019150828210612a325750612a38565b50612a01565b50505b8282149050949350505050565b5f7c0100000000000000000000000000000000000000000000000000000000821673ffffffffffffffffffffffffffffffffffffffff8316119050919050565b5f9392505050565b5f6001821460e11b9050919050565b612aa7612b53565b81815f019073ffffffffffffffffffffffffffffffffffffffff16908173ffffffffffffffffffffffffffffffffffffffff168152505060a082901c816020019067ffffffffffffffff16908167ffffffffffffffff16815250505f7c01000000000000000000000000000000000000000000000000000000008316141581604001901515908115158152505060e882901c816060019062ffffff16908162ffffff1681525050919050565b60405180608001604052805f73ffffffffffffffffffffffffffffffffffffffff1681526020015f67ffffffffffffffff1681526020015f151581526020015f62ffffff1681525090565b5f604051905090565b5f80fd5b5f80fd5b5f7fffffffff0000000000000000000000000000000000000000000000000000000082169050919050565b612be381612baf565b8114612bed575f80fd5b50565b5f81359050612bfe81612bda565b92915050565b5f60208284031215612c1957612c18612ba7565b5b5f612c2684828501612bf0565b91505092915050565b5f8115159050919050565b612c4381612c2f565b82525050565b5f602082019050612c5c5f830184612c3a565b92915050565b5f81519050919050565b5f82825260208201905092915050565b8281835e5f83830152505050565b5f601f19601f8301169050919050565b5f612ca482612c62565b612cae8185612c6c565b9350612cbe818560208601612c7c565b612cc781612c8a565b840191505092915050565b5f6020820190508181035f830152612cea8184612c9a565b905092915050565b5f819050919050565b612d0481612cf2565b8114612d0e575f80fd5b50565b5f81359050612d1f81612cfb565b92915050565b5f60208284031215612d3a57612d39612ba7565b5b5f612d4784828501612d11565b91505092915050565b5f73ffffffffffffffffffffffffffffffffffffffff82169050919050565b5f612d7982612d50565b9050919050565b612d8981612d6f565b82525050565b5f602082019050612da25f830184612d80565b92915050565b612db181612d6f565b8114612dbb575f80fd5b50565b5f81359050612dcc81612da8565b92915050565b5f8060408385031215612de857612de7612ba7565b5b5f612df585828601612dbe565b9250506020612e0685828601612d11565b9150509250929050565b612e1981612cf2565b82525050565b5f602082019050612e325f830184612e10565b92915050565b5f805f60608486031215612e4f57612e4e612ba7565b5b5f612e5c86828701612dbe565b9350506020612e6d86828701612dbe565b9250506040612e7e86828701612d11565b9150509250925092565b5f819050919050565b612e9a81612e88565b82525050565b5f602082019050612eb35f830184612e91565b92915050565b5f60208284031215612ece57612ecd612ba7565b5b5f612edb84828501612dbe565b91505092915050565b612eed81612e88565b8114612ef7575f80fd5b50565b5f81359050612f0881612ee4565b92915050565b5f60208284031215612f2357612f22612ba7565b5b5f612f3084828501612efa565b91505092915050565b5f80fd5b5f80fd5b5f80fd5b5f8083601f840112612f5a57612f59612f39565b5b8235905067ffffffffffffffff811115612f7757612f76612f3d565b5b602083019150836020820283011115612f9357612f92612f41565b5b9250929050565b5f8060208385031215612fb057612faf612ba7565b5b5f83013567ffffffffffffffff811115612fcd57612fcc612bab565b5b612fd985828601612f45565b92509250509250929050565b5f81519050919050565b5f82825260208201905092915050565b5f819050602082019050919050565b61301781612d6f565b82525050565b5f67ffffffffffffffff82169050919050565b6130398161301d565b82525050565b61304881612c2f565b82525050565b5f62ffffff82169050919050565b6130658161304e565b82525050565b608082015f82015161307f5f85018261300e565b5060208201516130926020850182613030565b5060408201516130a5604085018261303f565b5060608201516130b8606085018261305c565b50505050565b5f6130c9838361306b565b60808301905092915050565b5f602082019050919050565b5f6130eb82612fe5565b6130f58185612fef565b935061310083612fff565b805f5b8381101561313057815161311788826130be565b9750613122836130d5565b925050600181019050613103565b5085935050505092915050565b5f6020820190508181035f83015261315581846130e1565b905092915050565b5f806040838503121561317357613172612ba7565b5b5f61318085828601612dbe565b925050602061319185828601612dbe565b9150509250929050565b5f81519050919050565b5f82825260208201905092915050565b5f819050602082019050919050565b6131cd81612cf2565b82525050565b5f6131de83836131c4565b60208301905092915050565b5f602082019050919050565b5f6132008261319b565b61320a81856131a5565b9350613215836131b5565b805f5b8381101561324557815161322c88826131d3565b9750613237836131ea565b925050600181019050613218565b5085935050505092915050565b5f6020820190508181035f83015261326a81846131f6565b905092915050565b5f805f6060848603121561328957613288612ba7565b5b5f61329686828701612dbe565b93505060206132a786828701612d11565b92505060406132b886828701612d11565b9150509250925092565b6132cb81612c2f565b81146132d5575f80fd5b50565b5f813590506132e6816132c2565b92915050565b5f806040838503121561330257613301612ba7565b5b5f61330f85828601612dbe565b9250506020613320858286016132d8565b9150509250929050565b5f80fd5b7f4e487b71000000000000000000000000000000000000000000000000000000005f52604160045260245ffd5b61336482612c8a565b810181811067ffffffffffffffff821117156133835761338261332e565b5b80604052505050565b5f613395612b9e565b90506133a1828261335b565b919050565b5f67ffffffffffffffff8211156133c0576133bf61332e565b5b6133c982612c8a565b9050602081019050919050565b828183375f83830152505050565b5f6133f66133f1846133a6565b61338c565b9050828152602081018484840111156134125761341161332a565b5b61341d8482856133d6565b509392505050565b5f82601f83011261343957613438612f39565b5b81356134498482602086016133e4565b91505092915050565b5f805f806080858703121561346a57613469612ba7565b5b5f61347787828801612dbe565b945050602061348887828801612dbe565b935050604061349987828801612d11565b925050606085013567ffffffffffffffff8111156134ba576134b9612bab565b5b6134c687828801613425565b91505092959194509250565b608082015f8201516134e65f85018261300e565b5060208201516134f96020850182613030565b50604082015161350c604085018261303f565b50606082015161351f606085018261305c565b50505050565b5f6080820190506135385f8301846134d2565b92915050565b5f8083601f84011261355357613552612f39565b5b8235905067ffffffffffffffff8111156135705761356f612f3d565b5b60208301915083602082028301111561358c5761358b612f41565b5b9250929050565b5f805f604084860312156135aa576135a9612ba7565b5b5f6135b786828701612d11565b935050602084013567ffffffffffffffff8111156135d8576135d7612bab565b5b6135e48682870161353e565b92509250509250925092565b7f4e487b71000000000000000000000000000000000000000000000000000000005f52602260045260245ffd5b5f600282049050600182168061363457607f821691505b602082108103613647576136466135f0565b5b50919050565b7f5245454e5452414e4359000000000000000000000000000000000000000000005f82015250565b5f613681600a83612c6c565b915061368c8261364d565b602082019050919050565b5f6020820190508181035f8301526136ae81613675565b9050919050565b7f4e487b71000000000000000000000000000000000000000000000000000000005f52601160045260245ffd5b5f6136ec82612cf2565b91506136f783612cf2565b925082820190508082111561370f5761370e6136b5565b5b92915050565b5f61371f82612cf2565b915061372a83612cf2565b925082820261373881612cf2565b9150828204841483151761374f5761374e6136b5565b5b5092915050565b5f8151905061376481612cfb565b92915050565b5f6020828403121561377f5761377e612ba7565b5b5f61378c84828501613756565b91505092915050565b5f6060820190506137a85f830186612d80565b6137b56020830185612d80565b6137c26040830184612e10565b949350505050565b5f815190506137d8816132c2565b92915050565b5f602082840312156137f3576137f2612ba7565b5b5f613800848285016137ca565b91505092915050565b5f61381382612cf2565b915061381e83612cf2565b9250828203905081811115613836576138356136b5565b5b92915050565b5f819050919050565b61385661385182612e88565b61383c565b82525050565b5f819050919050565b61387661387182612cf2565b61385c565b82525050565b5f6138878285613845565b6020820191506138978284613865565b6020820191508190509392505050565b5f6138b182612cf2565b91507fffffffffffffffffffffffffffffffffffffffffffffffffffffffffffffffff82036138e3576138e26136b5565b5b600182019050919050565b7f554e415554484f52495a454400000000000000000000000000000000000000005f82015250565b5f613922600c83612c6c565b915061392d826138ee565b602082019050919050565b5f6020820190508181035f83015261394f81613916565b9050919050565b5f81905092915050565b50565b5f61396e5f83613956565b915061397982613960565b5f82019050919050565b5f61398d82613963565b9150819050919050565b7f5472616e73666572206661696c65642e000000000000000000000000000000005f82015250565b5f6139cb601083612c6c565b91506139d682613997565b602082019050919050565b5f6020820190508181035f8301526139f8816139bf565b9050919050565b5f604082019050613a125f830185612d80565b613a1f6020830184612e10565b9392505050565b5f604082019050613a395f830185612e10565b613a466020830184612e91565b9392505050565b5f67ffffffffffffffff821115613a6757613a6661332e565b5b613a7082612c8a565b9050602081019050919050565b5f613a8f613a8a84613a4d565b61338c565b905082815260208101848484011115613aab57613aaa61332a565b5b613ab6848285612c7c565b509392505050565b5f82601f830112613ad257613ad1612f39565b5b8151613ae2848260208601613a7d565b91505092915050565b5f60208284031215613b0057613aff612ba7565b5b5f82015167ffffffffffffffff811115613b1d57613b1c612bab565b5b613b2984828501613abe565b91505092915050565b5f613b3c82612cf2565b91505f8203613b4e57613b4d6136b5565b5b600182039050919050565b5f81519050919050565b5f82825260208201905092915050565b5f613b7d82613b59565b613b878185613b63565b9350613b97818560208601612c7c565b613ba081612c8a565b840191505092915050565b5f608082019050613bbe5f830187612d80565b613bcb6020830186612d80565b613bd86040830185612e10565b8181036060830152613bea8184613b73565b905095945050505050565b5f81519050613c0381612bda565b92915050565b5f60208284031215613c1e57613c1d612ba7565b5b5f613c2b84828501613bf5565b9150509291505056fea2646970667358221220c1d0334e7b9154e6b3ba086c527366d95cbef05ff04929e95880f52d04a2770f64736f6c634300081a0033",
			"opcodes": "PUSH1 0x80 PUSH1 0x40 MSTORE PUSH1 0x1 PUSH1 0xA SSTORE PUSH2 0x3E8 PUSH1 0xC SSTORE PUSH10 0x43C33C1937564800000 PUSH1 0xD SSTORE PUSH2 0x17B PUSH1 0xE SSTORE PUSH0 PUSH1 0xF PUSH0 PUSH2 0x100 EXP DUP2 SLOAD DUP2 PUSH1 0xFF MUL NOT AND SWAP1 DUP4 ISZERO ISZERO MUL OR SWAP1 SSTORE POP PUSH0 PUSH1 0xF PUSH1 0x1 PUSH2 0x100 EXP DUP2 SLOAD DUP2 PUSH1 0xFF MUL NOT AND SWAP1 DUP4 ISZERO ISZERO MUL OR SWAP1 SSTORE POP PUSH0 PUSH1 0xF PUSH1 0x2 PUSH2 0x100 EXP DUP2 SLOAD DUP2 PUSH1 0xFF MUL NOT AND SWAP1 DUP4 ISZERO ISZERO MUL OR SWAP1 SSTORE POP CALLVALUE DUP1 ISZERO PUSH2 0x7B JUMPI PUSH0 DUP1 REVERT JUMPDEST POP PUSH1 0x40 MLOAD PUSH2 0x433A CODESIZE SUB DUP1 PUSH2 0x433A DUP4 CODECOPY DUP2 DUP2 ADD PUSH1 0x40 MSTORE DUP2 ADD SWAP1 PUSH2 0x9D SWAP2 SWAP1 PUSH2 0x36A JUMP JUMPDEST CALLER PUSH1 0x40 MLOAD DUP1 PUSH1 0x40 ADD PUSH1 0x40 MSTORE DUP1 PUSH1 0x9 DUP2 MSTORE PUSH1 0x20 ADD PUSH32 0x48616D2050657065730000000000000000000000000000000000000000000000 DUP2 MSTORE POP PUSH1 0x40 MLOAD DUP1 PUSH1 0x40 ADD PUSH1 0x40 MSTORE DUP1 PUSH1 0x5 DUP2 MSTORE PUSH1 0x20 ADD PUSH32 0x4850455045000000000000000000000000000000000000000000000000000000 DUP2 MSTORE POP DUP2 PUSH1 0x2 SWAP1 DUP2 PUSH2 0x119 SWAP2 SWAP1 PUSH2 0x5F4 JUMP JUMPDEST POP DUP1 PUSH1 0x3 SWAP1 DUP2 PUSH2 0x129 SWAP2 SWAP1 PUSH2 0x5F4 JUMP JUMPDEST POP PUSH2 0x138 PUSH2 0x2A2 PUSH1 0x20 SHL PUSH1 0x20 SHR JUMP JUMPDEST PUSH0 DUP2 SWAP1 SSTORE POP PUSH2 0x14B PUSH2 0x2A2 PUSH1 0x20 SHL PUSH1 0x20 SHR JUMP JUMPDEST PUSH2 0x159 PUSH2 0x2AA PUSH1 0x20 SHL PUSH1 0x20 SHR JUMP JUMPDEST LT ISZERO PUSH2 0x176 JUMPI PUSH2 0x175 PUSH4 0xFED8210F PUSH1 0xE0 SHL PUSH2 0x2D1 PUSH1 0x20 SHL PUSH1 0x20 SHR JUMP JUMPDEST JUMPDEST POP POP DUP1 PUSH1 0x9 PUSH0 PUSH2 0x100 EXP DUP2 SLOAD DUP2 PUSH20 0xFFFFFFFFFFFFFFFFFFFFFFFFFFFFFFFFFFFFFFFF MUL NOT AND SWAP1 DUP4 PUSH20 0xFFFFFFFFFFFFFFFFFFFFFFFFFFFFFFFFFFFFFFFF AND MUL OR SWAP1 SSTORE POP DUP1 PUSH20 0xFFFFFFFFFFFFFFFFFFFFFFFFFFFFFFFFFFFFFFFF AND PUSH0 PUSH20 0xFFFFFFFFFFFFFFFFFFFFFFFFFFFFFFFFFFFFFFFF AND PUSH32 0x8BE0079C531659141344CD1FD0A4F28419497F9722A3DAAFE3B4186F6B6457E0 PUSH1 0x40 MLOAD PUSH1 0x40 MLOAD DUP1 SWAP2 SUB SWAP1 LOG3 POP DUP1 PUSH1 0x10 DUP2 SWAP1 SSTORE POP DUP2 PUSH1 0x11 PUSH0 PUSH2 0x100 EXP DUP2 SLOAD DUP2 PUSH20 0xFFFFFFFFFFFFFFFFFFFFFFFFFFFFFFFFFFFFFFFF MUL NOT AND SWAP1 DUP4 PUSH20 0xFFFFFFFFFFFFFFFFFFFFFFFFFFFFFFFFFFFFFFFF AND MUL OR SWAP1 SSTORE POP DUP3 PUSH1 0xB PUSH0 PUSH2 0x100 EXP DUP2 SLOAD DUP2 PUSH20 0xFFFFFFFFFFFFFFFFFFFFFFFFFFFFFFFFFFFFFFFF MUL NOT AND SWAP1 DUP4 PUSH20 0xFFFFFFFFFFFFFFFFFFFFFFFFFFFFFFFFFFFFFFFF AND MUL OR SWAP1 SSTORE POP POP POP POP PUSH2 0x6C3 JUMP JUMPDEST PUSH0 PUSH1 0x1 SWAP1 POP SWAP1 JUMP JUMPDEST PUSH0 PUSH32 0xFFFFFFFFFFFFFFFFFFFFFFFFFFFFFFFFFFFFFFFFFFFFFFFFFFFFFFFFFFFFFFFF SWAP1 POP SWAP1 JUMP JUMPDEST DUP1 PUSH0 MSTORE PUSH1 0x4 PUSH0 REVERT JUMPDEST PUSH0 DUP1 REVERT JUMPDEST PUSH0 PUSH20 0xFFFFFFFFFFFFFFFFFFFFFFFFFFFFFFFFFFFFFFFF DUP3 AND SWAP1 POP SWAP2 SWAP1 POP JUMP JUMPDEST PUSH0 PUSH2 0x306 DUP3 PUSH2 0x2DD JUMP JUMPDEST SWAP1 POP SWAP2 SWAP1 POP JUMP JUMPDEST PUSH2 0x316 DUP2 PUSH2 0x2FC JUMP JUMPDEST DUP2 EQ PUSH2 0x320 JUMPI PUSH0 DUP1 REVERT JUMPDEST POP JUMP JUMPDEST PUSH0 DUP2 MLOAD SWAP1 POP PUSH2 0x331 DUP2 PUSH2 0x30D JUMP JUMPDEST SWAP3 SWAP2 POP POP JUMP JUMPDEST PUSH0 DUP2 SWAP1 POP SWAP2 SWAP1 POP JUMP JUMPDEST PUSH2 0x349 DUP2 PUSH2 0x337 JUMP JUMPDEST DUP2 EQ PUSH2 0x353 JUMPI PUSH0 DUP1 REVERT JUMPDEST POP JUMP JUMPDEST PUSH0 DUP2 MLOAD SWAP1 POP PUSH2 0x364 DUP2 PUSH2 0x340 JUMP JUMPDEST SWAP3 SWAP2 POP POP JUMP JUMPDEST PUSH0 DUP1 PUSH0 PUSH1 0x60 DUP5 DUP7 SUB SLT ISZERO PUSH2 0x381 JUMPI PUSH2 0x380 PUSH2 0x2D9 JUMP JUMPDEST JUMPDEST PUSH0 PUSH2 0x38E DUP7 DUP3 DUP8 ADD PUSH2 0x323 JUMP JUMPDEST SWAP4 POP POP PUSH1 0x20 PUSH2 0x39F DUP7 DUP3 DUP8 ADD PUSH2 0x323 JUMP JUMPDEST SWAP3 POP POP PUSH1 0x40 PUSH2 0x3B0 DUP7 DUP3 DUP8 ADD PUSH2 0x356 JUMP JUMPDEST SWAP2 POP POP SWAP3 POP SWAP3 POP SWAP3 JUMP JUMPDEST PUSH0 DUP2 MLOAD SWAP1 POP SWAP2 SWAP1 POP JUMP JUMPDEST PUSH32 0x4E487B7100000000000000000000000000000000000000000000000000000000 PUSH0 MSTORE PUSH1 0x41 PUSH1 0x4 MSTORE PUSH1 0x24 PUSH0 REVERT JUMPDEST PUSH32 0x4E487B7100000000000000000000000000000000000000000000000000000000 PUSH0 MSTORE PUSH1 0x22 PUSH1 0x4 MSTORE PUSH1 0x24 PUSH0 REVERT JUMPDEST PUSH0 PUSH1 0x2 DUP3 DIV SWAP1 POP PUSH1 0x1 DUP3 AND DUP1 PUSH2 0x435 JUMPI PUSH1 0x7F DUP3 AND SWAP2 POP JUMPDEST PUSH1 0x20 DUP3 LT DUP2 SUB PUSH2 0x448 JUMPI PUSH2 0x447 PUSH2 0x3F1 JUMP JUMPDEST JUMPDEST POP SWAP2 SWAP1 POP JUMP JUMPDEST PUSH0 DUP2 SWAP1 POP DUP2 PUSH0 MSTORE PUSH1 0x20 PUSH0 KECCAK256 SWAP1 POP SWAP2 SWAP1 POP JUMP JUMPDEST PUSH0 PUSH1 0x20 PUSH1 0x1F DUP4 ADD DIV SWAP1 POP SWAP2 SWAP1 POP JUMP JUMPDEST PUSH0 DUP3 DUP3 SHL SWAP1 POP SWAP3 SWAP2 POP POP JUMP JUMPDEST PUSH0 PUSH1 0x8 DUP4 MUL PUSH2 0x4AA PUSH32 0xFFFFFFFFFFFFFFFFFFFFFFFFFFFFFFFFFFFFFFFFFFFFFFFFFFFFFFFFFFFFFFFF DUP3 PUSH2 0x46F JUMP JUMPDEST PUSH2 0x4B4 DUP7 DUP4 PUSH2 0x46F JUMP JUMPDEST SWAP6 POP DUP1 NOT DUP5 AND SWAP4 POP DUP1 DUP7 AND DUP5 OR SWAP3 POP POP POP SWAP4 SWAP3 POP POP POP JUMP JUMPDEST PUSH0 DUP2 SWAP1 POP SWAP2 SWAP1 POP JUMP JUMPDEST PUSH0 DUP2 SWAP1 POP SWAP2 SWAP1 POP JUMP JUMPDEST PUSH0 PUSH2 0x4F8 PUSH2 0x4F3 PUSH2 0x4EE DUP5 PUSH2 0x4CC JUMP JUMPDEST PUSH2 0x4D5 JUMP JUMPDEST PUSH2 0x4CC JUMP JUMPDEST SWAP1 POP SWAP2 SWAP1 POP JUMP JUMPDEST PUSH0 DUP2 SWAP1 POP SWAP2 SWAP1 POP JUMP JUMPDEST PUSH2 0x511 DUP4 PUSH2 0x4DE JUMP JUMPDEST PUSH2 0x525 PUSH2 0x51D DUP3 PUSH2 0x4FF JUMP JUMPDEST DUP5 DUP5 SLOAD PUSH2 0x47B JUMP JUMPDEST DUP3 SSTORE POP POP POP POP JUMP JUMPDEST PUSH0 SWAP1 JUMP JUMPDEST PUSH2 0x539 PUSH2 0x52D JUMP JUMPDEST PUSH2 0x544 DUP2 DUP5 DUP5 PUSH2 0x508 JUMP JUMPDEST POP POP POP JUMP JUMPDEST JUMPDEST DUP2 DUP2 LT ISZERO PUSH2 0x567 JUMPI PUSH2 0x55C PUSH0 DUP3 PUSH2 0x531 JUMP JUMPDEST PUSH1 0x1 DUP2 ADD SWAP1 POP PUSH2 0x54A JUMP JUMPDEST POP POP JUMP JUMPDEST PUSH1 0x1F DUP3 GT ISZERO PUSH2 0x5AC JUMPI PUSH2 0x57D DUP2 PUSH2 0x44E JUMP JUMPDEST PUSH2 0x586 DUP5 PUSH2 0x460 JUMP JUMPDEST DUP2 ADD PUSH1 0x20 DUP6 LT ISZERO PUSH2 0x595 JUMPI DUP2 SWAP1 POP JUMPDEST PUSH2 0x5A9 PUSH2 0x5A1 DUP6 PUSH2 0x460 JUMP JUMPDEST DUP4 ADD DUP3 PUSH2 0x549 JUMP JUMPDEST POP POP JUMPDEST POP POP POP JUMP JUMPDEST PUSH0 DUP3 DUP3 SHR SWAP1 POP SWAP3 SWAP2 POP POP JUMP JUMPDEST PUSH0 PUSH2 0x5CC PUSH0 NOT DUP5 PUSH1 0x8 MUL PUSH2 0x5B1 JUMP JUMPDEST NOT DUP1 DUP4 AND SWAP2 POP POP SWAP3 SWAP2 POP POP JUMP JUMPDEST PUSH0 PUSH2 0x5E4 DUP4 DUP4 PUSH2 0x5BD JUMP JUMPDEST SWAP2 POP DUP3 PUSH1 0x2 MUL DUP3 OR SWAP1 POP SWAP3 SWAP2 POP POP JUMP JUMPDEST PUSH2 0x5FD DUP3 PUSH2 0x3BA JUMP JUMPDEST PUSH8 0xFFFFFFFFFFFFFFFF DUP2 GT ISZERO PUSH2 0x616 JUMPI PUSH2 0x615 PUSH2 0x3C4 JUMP JUMPDEST JUMPDEST PUSH2 0x620 DUP3 SLOAD PUSH2 0x41E JUMP JUMPDEST PUSH2 0x62B DUP3 DUP3 DUP6 PUSH2 0x56B JUMP JUMPDEST PUSH0 PUSH1 0x20 SWAP1 POP PUSH1 0x1F DUP4 GT PUSH1 0x1 DUP2 EQ PUSH2 0x65C JUMPI PUSH0 DUP5 ISZERO PUSH2 0x64A JUMPI DUP3 DUP8 ADD MLOAD SWAP1 POP JUMPDEST PUSH2 0x654 DUP6 DUP3 PUSH2 0x5D9 JUMP JUMPDEST DUP7 SSTORE POP PUSH2 0x6BB JUMP JUMPDEST PUSH1 0x1F NOT DUP5 AND PUSH2 0x66A DUP7 PUSH2 0x44E JUMP JUMPDEST PUSH0 JUMPDEST DUP3 DUP2 LT ISZERO PUSH2 0x691 JUMPI DUP5 DUP10 ADD MLOAD DUP3 SSTORE PUSH1 0x1 DUP3 ADD SWAP2 POP PUSH1 0x20 DUP6 ADD SWAP5 POP PUSH1 0x20 DUP2 ADD SWAP1 POP PUSH2 0x66C JUMP JUMPDEST DUP7 DUP4 LT ISZERO PUSH2 0x6AE JUMPI DUP5 DUP10 ADD MLOAD PUSH2 0x6AA PUSH1 0x1F DUP10 AND DUP3 PUSH2 0x5BD JUMP JUMPDEST DUP4 SSTORE POP JUMPDEST PUSH1 0x1 PUSH1 0x2 DUP9 MUL ADD DUP9 SSTORE POP POP POP JUMPDEST POP POP POP POP POP POP JUMP JUMPDEST PUSH2 0x3C6A DUP1 PUSH2 0x6D0 PUSH0 CODECOPY PUSH0 RETURN INVALID PUSH1 0x80 PUSH1 0x40 MSTORE PUSH1 0x4 CALLDATASIZE LT PUSH2 0x22F JUMPI PUSH0 CALLDATALOAD PUSH1 0xE0 SHR DUP1 PUSH4 0x739656DB GT PUSH2 0x12D JUMPI DUP1 PUSH4 0xBEB81891 GT PUSH2 0xAA JUMPI DUP1 PUSH4 0xD2C59D51 GT PUSH2 0x6E JUMPI DUP1 PUSH4 0xD2C59D51 EQ PUSH2 0x803 JUMPI DUP1 PUSH4 0xE2F36DCE EQ PUSH2 0x819 JUMPI DUP1 PUSH4 0xE985E9C5 EQ PUSH2 0x841 JUMPI DUP1 PUSH4 0xED6661C2 EQ PUSH2 0x87D JUMPI DUP1 PUSH4 0xF2FDE38B EQ PUSH2 0x8A7 JUMPI PUSH2 0x22F JUMP JUMPDEST DUP1 PUSH4 0xBEB81891 EQ PUSH2 0x70D JUMPI DUP1 PUSH4 0xC23DC68F EQ PUSH2 0x737 JUMPI DUP1 PUSH4 0xC662E481 EQ PUSH2 0x773 JUMPI DUP1 PUSH4 0xC87B56DD EQ PUSH2 0x79D JUMPI DUP1 PUSH4 0xD12F743A EQ PUSH2 0x7D9 JUMPI PUSH2 0x22F JUMP JUMPDEST DUP1 PUSH4 0x99A2557A GT PUSH2 0xF1 JUMPI DUP1 PUSH4 0x99A2557A EQ PUSH2 0x63B JUMPI DUP1 PUSH4 0xA22CB465 EQ PUSH2 0x677 JUMPI DUP1 PUSH4 0xAC785FBF EQ PUSH2 0x69F JUMPI DUP1 PUSH4 0xB5D5BEC1 EQ PUSH2 0x6C9 JUMPI DUP1 PUSH4 0xB88D4FDE EQ PUSH2 0x6F1 JUMPI PUSH2 0x22F JUMP JUMPDEST DUP1 PUSH4 0x739656DB EQ PUSH2 0x547 JUMPI DUP1 PUSH4 0x75E91691 EQ PUSH2 0x56F JUMPI DUP1 PUSH4 0x8462151C EQ PUSH2 0x5AB JUMPI DUP1 PUSH4 0x8DA5CB5B EQ PUSH2 0x5E7 JUMPI DUP1 PUSH4 0x95D89B41 EQ PUSH2 0x611 JUMPI PUSH2 0x22F JUMP JUMPDEST DUP1 PUSH4 0x32CB6B0C GT PUSH2 0x1BB JUMPI DUP1 PUSH4 0x4A7D3E81 GT PUSH2 0x17F JUMPI DUP1 PUSH4 0x4A7D3E81 EQ PUSH2 0x467 JUMPI DUP1 PUSH4 0x5BBB2177 EQ PUSH2 0x47D JUMPI DUP1 PUSH4 0x6352211E EQ PUSH2 0x4B9 JUMPI DUP1 PUSH4 0x6B8A21FC EQ PUSH2 0x4F5 JUMPI DUP1 PUSH4 0x70A08231 EQ PUSH2 0x50B JUMPI PUSH2 0x22F JUMP JUMPDEST DUP1 PUSH4 0x32CB6B0C EQ PUSH2 0x3A7 JUMPI DUP1 PUSH4 0x3CCFD60B EQ PUSH2 0x3D1 JUMPI DUP1 PUSH4 0x42842E0E EQ PUSH2 0x3E7 JUMPI DUP1 PUSH4 0x438A67E7 EQ PUSH2 0x403 JUMPI DUP1 PUSH4 0x4783F0EF EQ PUSH2 0x43F JUMPI PUSH2 0x22F JUMP JUMPDEST DUP1 PUSH4 0x18160DDD GT PUSH2 0x202 JUMPI DUP1 PUSH4 0x18160DDD EQ PUSH2 0x2F1 JUMPI DUP1 PUSH4 0x187E0F17 EQ PUSH2 0x31B JUMPI DUP1 PUSH4 0x23B872DD EQ PUSH2 0x345 JUMPI DUP1 PUSH4 0x2DB11544 EQ PUSH2 0x361 JUMPI DUP1 PUSH4 0x2EB4A7AB EQ PUSH2 0x37D JUMPI PUSH2 0x22F JUMP JUMPDEST DUP1 PUSH4 0x1FFC9A7 EQ PUSH2 0x233 JUMPI DUP1 PUSH4 0x6FDDE03 EQ PUSH2 0x26F JUMPI DUP1 PUSH4 0x81812FC EQ PUSH2 0x299 JUMPI DUP1 PUSH4 0x95EA7B3 EQ PUSH2 0x2D5 JUMPI JUMPDEST PUSH0 DUP1 REVERT JUMPDEST CALLVALUE DUP1 ISZERO PUSH2 0x23E JUMPI PUSH0 DUP1 REVERT JUMPDEST POP PUSH2 0x259 PUSH1 0x4 DUP1 CALLDATASIZE SUB DUP2 ADD SWAP1 PUSH2 0x254 SWAP2 SWAP1 PUSH2 0x2C04 JUMP JUMPDEST PUSH2 0x8CF JUMP JUMPDEST PUSH1 0x40 MLOAD PUSH2 0x266 SWAP2 SWAP1 PUSH2 0x2C49 JUMP JUMPDEST PUSH1 0x40 MLOAD DUP1 SWAP2 SUB SWAP1 RETURN JUMPDEST CALLVALUE DUP1 ISZERO PUSH2 0x27A JUMPI PUSH0 DUP1 REVERT JUMPDEST POP PUSH2 0x283 PUSH2 0x960 JUMP JUMPDEST PUSH1 0x40 MLOAD PUSH2 0x290 SWAP2 SWAP1 PUSH2 0x2CD2 JUMP JUMPDEST PUSH1 0x40 MLOAD DUP1 SWAP2 SUB SWAP1 RETURN JUMPDEST CALLVALUE DUP1 ISZERO PUSH2 0x2A4 JUMPI PUSH0 DUP1 REVERT JUMPDEST POP PUSH2 0x2BF PUSH1 0x4 DUP1 CALLDATASIZE SUB DUP2 ADD SWAP1 PUSH2 0x2BA SWAP2 SWAP1 PUSH2 0x2D25 JUMP JUMPDEST PUSH2 0x9F0 JUMP JUMPDEST PUSH1 0x40 MLOAD PUSH2 0x2CC SWAP2 SWAP1 PUSH2 0x2D8F JUMP JUMPDEST PUSH1 0x40 MLOAD DUP1 SWAP2 SUB SWAP1 RETURN JUMPDEST PUSH2 0x2EF PUSH1 0x4 DUP1 CALLDATASIZE SUB DUP2 ADD SWAP1 PUSH2 0x2EA SWAP2 SWAP1 PUSH2 0x2DD2 JUMP JUMPDEST PUSH2 0xA49 JUMP JUMPDEST STOP JUMPDEST CALLVALUE DUP1 ISZERO PUSH2 0x2FC JUMPI PUSH0 DUP1 REVERT JUMPDEST POP PUSH2 0x305 PUSH2 0xA59 JUMP JUMPDEST PUSH1 0x40 MLOAD PUSH2 0x312 SWAP2 SWAP1 PUSH2 0x2E1F JUMP JUMPDEST PUSH1 0x40 MLOAD DUP1 SWAP2 SUB SWAP1 RETURN JUMPDEST CALLVALUE DUP1 ISZERO PUSH2 0x326 JUMPI PUSH0 DUP1 REVERT JUMPDEST POP PUSH2 0x32F PUSH2 0xAA4 JUMP JUMPDEST PUSH1 0x40 MLOAD PUSH2 0x33C SWAP2 SWAP1 PUSH2 0x2C49 JUMP JUMPDEST PUSH1 0x40 MLOAD DUP1 SWAP2 SUB SWAP1 RETURN JUMPDEST PUSH2 0x35F PUSH1 0x4 DUP1 CALLDATASIZE SUB DUP2 ADD SWAP1 PUSH2 0x35A SWAP2 SWAP1 PUSH2 0x2E38 JUMP JUMPDEST PUSH2 0xAB7 JUMP JUMPDEST STOP JUMPDEST PUSH2 0x37B PUSH1 0x4 DUP1 CALLDATASIZE SUB DUP2 ADD SWAP1 PUSH2 0x376 SWAP2 SWAP1 PUSH2 0x2D25 JUMP JUMPDEST PUSH2 0xD62 JUMP JUMPDEST STOP JUMPDEST CALLVALUE DUP1 ISZERO PUSH2 0x388 JUMPI PUSH0 DUP1 REVERT JUMPDEST POP PUSH2 0x391 PUSH2 0x119B JUMP JUMPDEST PUSH1 0x40 MLOAD PUSH2 0x39E SWAP2 SWAP1 PUSH2 0x2EA0 JUMP JUMPDEST PUSH1 0x40 MLOAD DUP1 SWAP2 SUB SWAP1 RETURN JUMPDEST CALLVALUE DUP1 ISZERO PUSH2 0x3B2 JUMPI PUSH0 DUP1 REVERT JUMPDEST POP PUSH2 0x3BB PUSH2 0x11A1 JUMP JUMPDEST PUSH1 0x40 MLOAD PUSH2 0x3C8 SWAP2 SWAP1 PUSH2 0x2E1F JUMP JUMPDEST PUSH1 0x40 MLOAD DUP1 SWAP2 SUB SWAP1 RETURN JUMPDEST CALLVALUE DUP1 ISZERO PUSH2 0x3DC JUMPI PUSH0 DUP1 REVERT JUMPDEST POP PUSH2 0x3E5 PUSH2 0x11A7 JUMP JUMPDEST STOP JUMPDEST PUSH2 0x401 PUSH1 0x4 DUP1 CALLDATASIZE SUB DUP2 ADD SWAP1 PUSH2 0x3FC SWAP2 SWAP1 PUSH2 0x2E38 JUMP JUMPDEST PUSH2 0x1336 JUMP JUMPDEST STOP JUMPDEST CALLVALUE DUP1 ISZERO PUSH2 0x40E JUMPI PUSH0 DUP1 REVERT JUMPDEST POP PUSH2 0x429 PUSH1 0x4 DUP1 CALLDATASIZE SUB DUP2 ADD SWAP1 PUSH2 0x424 SWAP2 SWAP1 PUSH2 0x2EB9 JUMP JUMPDEST PUSH2 0x1355 JUMP JUMPDEST PUSH1 0x40 MLOAD PUSH2 0x436 SWAP2 SWAP1 PUSH2 0x2E1F JUMP JUMPDEST PUSH1 0x40 MLOAD DUP1 SWAP2 SUB SWAP1 RETURN JUMPDEST CALLVALUE DUP1 ISZERO PUSH2 0x44A JUMPI PUSH0 DUP1 REVERT JUMPDEST POP PUSH2 0x465 PUSH1 0x4 DUP1 CALLDATASIZE SUB DUP2 ADD SWAP1 PUSH2 0x460 SWAP2 SWAP1 PUSH2 0x2F0E JUMP JUMPDEST PUSH2 0x136A JUMP JUMPDEST STOP JUMPDEST CALLVALUE DUP1 ISZERO PUSH2 0x472 JUMPI PUSH0 DUP1 REVERT JUMPDEST POP PUSH2 0x47B PUSH2 0x1403 JUMP JUMPDEST STOP JUMPDEST CALLVALUE DUP1 ISZERO PUSH2 0x488 JUMPI PUSH0 DUP1 REVERT JUMPDEST POP PUSH2 0x4A3 PUSH1 0x4 DUP1 CALLDATASIZE SUB DUP2 ADD SWAP1 PUSH2 0x49E SWAP2 SWAP1 PUSH2 0x2F9A JUMP JUMPDEST PUSH2 0x14BC JUMP JUMPDEST PUSH1 0x40 MLOAD PUSH2 0x4B0 SWAP2 SWAP1 PUSH2 0x313D JUMP JUMPDEST PUSH1 0x40 MLOAD DUP1 SWAP2 SUB SWAP1 RETURN JUMPDEST CALLVALUE DUP1 ISZERO PUSH2 0x4C4 JUMPI PUSH0 DUP1 REVERT JUMPDEST POP PUSH2 0x4DF PUSH1 0x4 DUP1 CALLDATASIZE SUB DUP2 ADD SWAP1 PUSH2 0x4DA SWAP2 SWAP1 PUSH2 0x2D25 JUMP JUMPDEST PUSH2 0x1518 JUMP JUMPDEST PUSH1 0x40 MLOAD PUSH2 0x4EC SWAP2 SWAP1 PUSH2 0x2D8F JUMP JUMPDEST PUSH1 0x40 MLOAD DUP1 SWAP2 SUB SWAP1 RETURN JUMPDEST CALLVALUE DUP1 ISZERO PUSH2 0x500 JUMPI PUSH0 DUP1 REVERT JUMPDEST POP PUSH2 0x509 PUSH2 0x1529 JUMP JUMPDEST STOP JUMPDEST CALLVALUE DUP1 ISZERO PUSH2 0x516 JUMPI PUSH0 DUP1 REVERT JUMPDEST POP PUSH2 0x531 PUSH1 0x4 DUP1 CALLDATASIZE SUB DUP2 ADD SWAP1 PUSH2 0x52C SWAP2 SWAP1 PUSH2 0x2EB9 JUMP JUMPDEST PUSH2 0x15E4 JUMP JUMPDEST PUSH1 0x40 MLOAD PUSH2 0x53E SWAP2 SWAP1 PUSH2 0x2E1F JUMP JUMPDEST PUSH1 0x40 MLOAD DUP1 SWAP2 SUB SWAP1 RETURN JUMPDEST CALLVALUE DUP1 ISZERO PUSH2 0x552 JUMPI PUSH0 DUP1 REVERT JUMPDEST POP PUSH2 0x56D PUSH1 0x4 DUP1 CALLDATASIZE SUB DUP2 ADD SWAP1 PUSH2 0x568 SWAP2 SWAP1 PUSH2 0x315D JUMP JUMPDEST PUSH2 0x1678 JUMP JUMPDEST STOP JUMPDEST CALLVALUE DUP1 ISZERO PUSH2 0x57A JUMPI PUSH0 DUP1 REVERT JUMPDEST POP PUSH2 0x595 PUSH1 0x4 DUP1 CALLDATASIZE SUB DUP2 ADD SWAP1 PUSH2 0x590 SWAP2 SWAP1 PUSH2 0x2D25 JUMP JUMPDEST PUSH2 0x17FE JUMP JUMPDEST PUSH1 0x40 MLOAD PUSH2 0x5A2 SWAP2 SWAP1 PUSH2 0x2EA0 JUMP JUMPDEST PUSH1 0x40 MLOAD DUP1 SWAP2 SUB SWAP1 RETURN JUMPDEST CALLVALUE DUP1 ISZERO PUSH2 0x5B6 JUMPI PUSH0 DUP1 REVERT JUMPDEST POP PUSH2 0x5D1 PUSH1 0x4 DUP1 CALLDATASIZE SUB DUP2 ADD SWAP1 PUSH2 0x5CC SWAP2 SWAP1 PUSH2 0x2EB9 JUMP JUMPDEST PUSH2 0x1813 JUMP JUMPDEST PUSH1 0x40 MLOAD PUSH2 0x5DE SWAP2 SWAP1 PUSH2 0x3252 JUMP JUMPDEST PUSH1 0x40 MLOAD DUP1 SWAP2 SUB SWAP1 RETURN JUMPDEST CALLVALUE DUP1 ISZERO PUSH2 0x5F2 JUMPI PUSH0 DUP1 REVERT JUMPDEST POP PUSH2 0x5FB PUSH2 0x188C JUMP JUMPDEST PUSH1 0x40 MLOAD PUSH2 0x608 SWAP2 SWAP1 PUSH2 0x2D8F JUMP JUMPDEST PUSH1 0x40 MLOAD DUP1 SWAP2 SUB SWAP1 RETURN JUMPDEST CALLVALUE DUP1 ISZERO PUSH2 0x61C JUMPI PUSH0 DUP1 REVERT JUMPDEST POP PUSH2 0x625 PUSH2 0x18B1 JUMP JUMPDEST PUSH1 0x40 MLOAD PUSH2 0x632 SWAP2 SWAP1 PUSH2 0x2CD2 JUMP JUMPDEST PUSH1 0x40 MLOAD DUP1 SWAP2 SUB SWAP1 RETURN JUMPDEST CALLVALUE DUP1 ISZERO PUSH2 0x646 JUMPI PUSH0 DUP1 REVERT JUMPDEST POP PUSH2 0x661 PUSH1 0x4 DUP1 CALLDATASIZE SUB DUP2 ADD SWAP1 PUSH2 0x65C SWAP2 SWAP1 PUSH2 0x3272 JUMP JUMPDEST PUSH2 0x1941 JUMP JUMPDEST PUSH1 0x40 MLOAD PUSH2 0x66E SWAP2 SWAP1 PUSH2 0x3252 JUMP JUMPDEST PUSH1 0x40 MLOAD DUP1 SWAP2 SUB SWAP1 RETURN JUMPDEST CALLVALUE DUP1 ISZERO PUSH2 0x682 JUMPI PUSH0 DUP1 REVERT JUMPDEST POP PUSH2 0x69D PUSH1 0x4 DUP1 CALLDATASIZE SUB DUP2 ADD SWAP1 PUSH2 0x698 SWAP2 SWAP1 PUSH2 0x32EC JUMP JUMPDEST PUSH2 0x1957 JUMP JUMPDEST STOP JUMPDEST CALLVALUE DUP1 ISZERO PUSH2 0x6AA JUMPI PUSH0 DUP1 REVERT JUMPDEST POP PUSH2 0x6B3 PUSH2 0x1A5D JUMP JUMPDEST PUSH1 0x40 MLOAD PUSH2 0x6C0 SWAP2 SWAP1 PUSH2 0x2D8F JUMP JUMPDEST PUSH1 0x40 MLOAD DUP1 SWAP2 SUB SWAP1 RETURN JUMPDEST CALLVALUE DUP1 ISZERO PUSH2 0x6D4 JUMPI PUSH0 DUP1 REVERT JUMPDEST POP PUSH2 0x6EF PUSH1 0x4 DUP1 CALLDATASIZE SUB DUP2 ADD SWAP1 PUSH2 0x6EA SWAP2 SWAP1 PUSH2 0x2EB9 JUMP JUMPDEST PUSH2 0x1A82 JUMP JUMPDEST STOP JUMPDEST PUSH2 0x70B PUSH1 0x4 DUP1 CALLDATASIZE SUB DUP2 ADD SWAP1 PUSH2 0x706 SWAP2 SWAP1 PUSH2 0x3452 JUMP JUMPDEST PUSH2 0x1B54 JUMP JUMPDEST STOP JUMPDEST CALLVALUE DUP1 ISZERO PUSH2 0x718 JUMPI PUSH0 DUP1 REVERT JUMPDEST POP PUSH2 0x721 PUSH2 0x1BA5 JUMP JUMPDEST PUSH1 0x40 MLOAD PUSH2 0x72E SWAP2 SWAP1 PUSH2 0x2C49 JUMP JUMPDEST PUSH1 0x40 MLOAD DUP1 SWAP2 SUB SWAP1 RETURN JUMPDEST CALLVALUE DUP1 ISZERO PUSH2 0x742 JUMPI PUSH0 DUP1 REVERT JUMPDEST POP PUSH2 0x75D PUSH1 0x4 DUP1 CALLDATASIZE SUB DUP2 ADD SWAP1 PUSH2 0x758 SWAP2 SWAP1 PUSH2 0x2D25 JUMP JUMPDEST PUSH2 0x1BB7 JUMP JUMPDEST PUSH1 0x40 MLOAD PUSH2 0x76A SWAP2 SWAP1 PUSH2 0x3525 JUMP JUMPDEST PUSH1 0x40 MLOAD DUP1 SWAP2 SUB SWAP1 RETURN JUMPDEST CALLVALUE DUP1 ISZERO PUSH2 0x77E JUMPI PUSH0 DUP1 REVERT JUMPDEST POP PUSH2 0x787 PUSH2 0x1C2C JUMP JUMPDEST PUSH1 0x40 MLOAD PUSH2 0x794 SWAP2 SWAP1 PUSH2 0x2E1F JUMP JUMPDEST PUSH1 0x40 MLOAD DUP1 SWAP2 SUB SWAP1 RETURN JUMPDEST CALLVALUE DUP1 ISZERO PUSH2 0x7A8 JUMPI PUSH0 DUP1 REVERT JUMPDEST POP PUSH2 0x7C3 PUSH1 0x4 DUP1 CALLDATASIZE SUB DUP2 ADD SWAP1 PUSH2 0x7BE SWAP2 SWAP1 PUSH2 0x2D25 JUMP JUMPDEST PUSH2 0x1C32 JUMP JUMPDEST PUSH1 0x40 MLOAD PUSH2 0x7D0 SWAP2 SWAP1 PUSH2 0x2CD2 JUMP JUMPDEST PUSH1 0x40 MLOAD DUP1 SWAP2 SUB SWAP1 RETURN JUMPDEST CALLVALUE DUP1 ISZERO PUSH2 0x7E4 JUMPI PUSH0 DUP1 REVERT JUMPDEST POP PUSH2 0x7ED PUSH2 0x1CEA JUMP JUMPDEST PUSH1 0x40 MLOAD PUSH2 0x7FA SWAP2 SWAP1 PUSH2 0x2C49 JUMP JUMPDEST PUSH1 0x40 MLOAD DUP1 SWAP2 SUB SWAP1 RETURN JUMPDEST CALLVALUE DUP1 ISZERO PUSH2 0x80E JUMPI PUSH0 DUP1 REVERT JUMPDEST POP PUSH2 0x817 PUSH2 0x1CFD JUMP JUMPDEST STOP JUMPDEST CALLVALUE DUP1 ISZERO PUSH2 0x824 JUMPI PUSH0 DUP1 REVERT JUMPDEST POP PUSH2 0x83F PUSH1 0x4 DUP1 CALLDATASIZE SUB DUP2 ADD SWAP1 PUSH2 0x83A SWAP2 SWAP1 PUSH2 0x3593 JUMP JUMPDEST PUSH2 0x1DB8 JUMP JUMPDEST STOP JUMPDEST CALLVALUE DUP1 ISZERO PUSH2 0x84C JUMPI PUSH0 DUP1 REVERT JUMPDEST POP PUSH2 0x867 PUSH1 0x4 DUP1 CALLDATASIZE SUB DUP2 ADD SWAP1 PUSH2 0x862 SWAP2 SWAP1 PUSH2 0x315D JUMP JUMPDEST PUSH2 0x1F73 JUMP JUMPDEST PUSH1 0x40 MLOAD PUSH2 0x874 SWAP2 SWAP1 PUSH2 0x2C49 JUMP JUMPDEST PUSH1 0x40 MLOAD DUP1 SWAP2 SUB SWAP1 RETURN JUMPDEST CALLVALUE DUP1 ISZERO PUSH2 0x888 JUMPI PUSH0 DUP1 REVERT JUMPDEST POP PUSH2 0x891 PUSH2 0x2001 JUMP JUMPDEST PUSH1 0x40 MLOAD PUSH2 0x89E SWAP2 SWAP1 PUSH2 0x2E1F JUMP JUMPDEST PUSH1 0x40 MLOAD DUP1 SWAP2 SUB SWAP1 RETURN JUMPDEST CALLVALUE DUP1 ISZERO PUSH2 0x8B2 JUMPI PUSH0 DUP1 REVERT JUMPDEST POP PUSH2 0x8CD PUSH1 0x4 DUP1 CALLDATASIZE SUB DUP2 ADD SWAP1 PUSH2 0x8C8 SWAP2 SWAP1 PUSH2 0x2EB9 JUMP JUMPDEST PUSH2 0x2007 JUMP JUMPDEST STOP JUMPDEST PUSH0 PUSH4 0x1FFC9A7 PUSH1 0xE0 SHL DUP3 PUSH28 0xFFFFFFFFFFFFFFFFFFFFFFFFFFFFFFFFFFFFFFFFFFFFFFFFFFFFFFFF NOT AND EQ DUP1 PUSH2 0x929 JUMPI POP PUSH4 0x80AC58CD PUSH1 0xE0 SHL DUP3 PUSH28 0xFFFFFFFFFFFFFFFFFFFFFFFFFFFFFFFFFFFFFFFFFFFFFFFFFFFFFFFF NOT AND EQ JUMPDEST DUP1 PUSH2 0x959 JUMPI POP PUSH4 0x5B5E139F PUSH1 0xE0 SHL DUP3 PUSH28 0xFFFFFFFFFFFFFFFFFFFFFFFFFFFFFFFFFFFFFFFFFFFFFFFFFFFFFFFF NOT AND EQ JUMPDEST SWAP1 POP SWAP2 SWAP1 POP JUMP JUMPDEST PUSH1 0x60 PUSH1 0x2 DUP1 SLOAD PUSH2 0x96F SWAP1 PUSH2 0x361D JUMP JUMPDEST DUP1 PUSH1 0x1F ADD PUSH1 0x20 DUP1 SWAP2 DIV MUL PUSH1 0x20 ADD PUSH1 0x40 MLOAD SWAP1 DUP2 ADD PUSH1 0x40 MSTORE DUP1 SWAP3 SWAP2 SWAP1 DUP2 DUP2 MSTORE PUSH1 0x20 ADD DUP3 DUP1 SLOAD PUSH2 0x99B SWAP1 PUSH2 0x361D JUMP JUMPDEST DUP1 ISZERO PUSH2 0x9E6 JUMPI DUP1 PUSH1 0x1F LT PUSH2 0x9BD JUMPI PUSH2 0x100 DUP1 DUP4 SLOAD DIV MUL DUP4 MSTORE SWAP2 PUSH1 0x20 ADD SWAP2 PUSH2 0x9E6 JUMP JUMPDEST DUP3 ADD SWAP2 SWAP1 PUSH0 MSTORE PUSH1 0x20 PUSH0 KECCAK256 SWAP1 JUMPDEST DUP2 SLOAD DUP2 MSTORE SWAP1 PUSH1 0x1 ADD SWAP1 PUSH1 0x20 ADD DUP1 DUP4 GT PUSH2 0x9C9 JUMPI DUP3 SWAP1 SUB PUSH1 0x1F AND DUP3 ADD SWAP2 JUMPDEST POP POP POP POP POP SWAP1 POP SWAP1 JUMP JUMPDEST PUSH0 PUSH2 0x9FA DUP3 PUSH2 0x2133 JUMP JUMPDEST PUSH2 0xA0F JUMPI PUSH2 0xA0E PUSH4 0xCF4700E4 PUSH1 0xE0 SHL PUSH2 0x21D6 JUMP JUMPDEST JUMPDEST PUSH1 0x6 PUSH0 DUP4 DUP2 MSTORE PUSH1 0x20 ADD SWAP1 DUP2 MSTORE PUSH1 0x20 ADD PUSH0 KECCAK256 PUSH0 ADD PUSH0 SWAP1 SLOAD SWAP1 PUSH2 0x100 EXP SWAP1 DIV PUSH20 0xFFFFFFFFFFFFFFFFFFFFFFFFFFFFFFFFFFFFFFFF AND SWAP1 POP SWAP2 SWAP1 POP JUMP JUMPDEST PUSH2 0xA55 DUP3 DUP3 PUSH1 0x1 PUSH2 0x21DE JUMP JUMPDEST POP POP JUMP JUMPDEST PUSH0 PUSH2 0xA62 PUSH2 0x2308 JUMP JUMPDEST PUSH1 0x1 SLOAD PUSH0 SLOAD SUB SUB SWAP1 POP PUSH32 0xFFFFFFFFFFFFFFFFFFFFFFFFFFFFFFFFFFFFFFFFFFFFFFFFFFFFFFFFFFFFFFFF PUSH2 0xA94 PUSH2 0x2310 JUMP JUMPDEST EQ PUSH2 0xAA1 JUMPI PUSH1 0x8 SLOAD DUP2 ADD SWAP1 POP JUMPDEST SWAP1 JUMP JUMPDEST PUSH1 0xF PUSH1 0x2 SWAP1 SLOAD SWAP1 PUSH2 0x100 EXP SWAP1 DIV PUSH1 0xFF AND DUP2 JUMP JUMPDEST PUSH0 PUSH2 0xAC1 DUP3 PUSH2 0x2337 JUMP JUMPDEST SWAP1 POP PUSH20 0xFFFFFFFFFFFFFFFFFFFFFFFFFFFFFFFFFFFFFFFF DUP5 PUSH20 0xFFFFFFFFFFFFFFFFFFFFFFFFFFFFFFFFFFFFFFFF AND AND SWAP4 POP DUP4 PUSH20 0xFFFFFFFFFFFFFFFFFFFFFFFFFFFFFFFFFFFFFFFF AND DUP2 PUSH20 0xFFFFFFFFFFFFFFFFFFFFFFFFFFFFFFFFFFFFFFFF AND EQ PUSH2 0xB36 JUMPI PUSH2 0xB35 PUSH4 0xA1148100 PUSH1 0xE0 SHL PUSH2 0x21D6 JUMP JUMPDEST JUMPDEST PUSH0 DUP1 PUSH2 0xB41 DUP5 PUSH2 0x2446 JUMP JUMPDEST SWAP2 POP SWAP2 POP PUSH2 0xB57 DUP2 DUP8 PUSH2 0xB52 PUSH2 0x2469 JUMP JUMPDEST PUSH2 0x2470 JUMP JUMPDEST PUSH2 0xB82 JUMPI PUSH2 0xB6C DUP7 PUSH2 0xB67 PUSH2 0x2469 JUMP JUMPDEST PUSH2 0x1F73 JUMP JUMPDEST PUSH2 0xB81 JUMPI PUSH2 0xB80 PUSH4 0x59C896BE PUSH1 0xE0 SHL PUSH2 0x21D6 JUMP JUMPDEST JUMPDEST JUMPDEST PUSH2 0xB8F DUP7 DUP7 DUP7 PUSH1 0x1 PUSH2 0x24B3 JUMP JUMPDEST DUP1 ISZERO PUSH2 0xB99 JUMPI PUSH0 DUP3 SSTORE JUMPDEST PUSH1 0x5 PUSH0 DUP8 PUSH20 0xFFFFFFFFFFFFFFFFFFFFFFFFFFFFFFFFFFFFFFFF AND PUSH20 0xFFFFFFFFFFFFFFFFFFFFFFFFFFFFFFFFFFFFFFFF AND DUP2 MSTORE PUSH1 0x20 ADD SWAP1 DUP2 MSTORE PUSH1 0x20 ADD PUSH0 KECCAK256 PUSH0 DUP2 SLOAD PUSH1 0x1 SWAP1 SUB SWAP2 SWAP1 POP DUP2 SWAP1 SSTORE POP PUSH1 0x5 PUSH0 DUP7 PUSH20 0xFFFFFFFFFFFFFFFFFFFFFFFFFFFFFFFFFFFFFFFF AND PUSH20 0xFFFFFFFFFFFFFFFFFFFFFFFFFFFFFFFFFFFFFFFF AND DUP2 MSTORE PUSH1 0x20 ADD SWAP1 DUP2 MSTORE PUSH1 0x20 ADD PUSH0 KECCAK256 PUSH0 DUP2 SLOAD PUSH1 0x1 ADD SWAP2 SWAP1 POP DUP2 SWAP1 SSTORE POP PUSH2 0xC61 DUP6 PUSH2 0xC3D DUP9 DUP9 DUP8 PUSH2 0x24B9 JUMP JUMPDEST PUSH29 0x200000000000000000000000000000000000000000000000000000000 OR PUSH2 0x24E0 JUMP JUMPDEST PUSH1 0x4 PUSH0 DUP7 DUP2 MSTORE PUSH1 0x20 ADD SWAP1 DUP2 MSTORE PUSH1 0x20 ADD PUSH0 KECCAK256 DUP2 SWAP1 SSTORE POP PUSH0 PUSH29 0x200000000000000000000000000000000000000000000000000000000 DUP5 AND SUB PUSH2 0xCDD JUMPI PUSH0 PUSH1 0x1 DUP6 ADD SWAP1 POP PUSH0 PUSH1 0x4 PUSH0 DUP4 DUP2 MSTORE PUSH1 0x20 ADD SWAP1 DUP2 MSTORE PUSH1 0x20 ADD PUSH0 KECCAK256 SLOAD SUB PUSH2 0xCDB JUMPI PUSH0 SLOAD DUP2 EQ PUSH2 0xCDA JUMPI DUP4 PUSH1 0x4 PUSH0 DUP4 DUP2 MSTORE PUSH1 0x20 ADD SWAP1 DUP2 MSTORE PUSH1 0x20 ADD PUSH0 KECCAK256 DUP2 SWAP1 SSTORE POP JUMPDEST JUMPDEST POP JUMPDEST PUSH0 PUSH20 0xFFFFFFFFFFFFFFFFFFFFFFFFFFFFFFFFFFFFFFFF DUP7 PUSH20 0xFFFFFFFFFFFFFFFFFFFFFFFFFFFFFFFFFFFFFFFF AND AND SWAP1 POP DUP5 DUP2 DUP9 PUSH32 0xDDF252AD1BE2C89B69C2B068FC378DAA952BA7F163C4A11628F55A4DF523B3EF PUSH0 DUP1 LOG4 PUSH0 DUP2 SUB PUSH2 0xD4C JUMPI PUSH2 0xD4B PUSH4 0xEA553B34 PUSH1 0xE0 SHL PUSH2 0x21D6 JUMP JUMPDEST JUMPDEST PUSH2 0xD59 DUP8 DUP8 DUP8 PUSH1 0x1 PUSH2 0x250A JUMP JUMPDEST POP POP POP POP POP POP POP JUMP JUMPDEST PUSH1 0x1 PUSH1 0xA SLOAD EQ PUSH2 0xDA7 JUMPI PUSH1 0x40 MLOAD PUSH32 0x8C379A000000000000000000000000000000000000000000000000000000000 DUP2 MSTORE PUSH1 0x4 ADD PUSH2 0xD9E SWAP1 PUSH2 0x3697 JUMP JUMPDEST PUSH1 0x40 MLOAD DUP1 SWAP2 SUB SWAP1 REVERT JUMPDEST PUSH1 0x2 PUSH1 0xA DUP2 SWAP1 SSTORE POP PUSH1 0x1 PUSH1 0xF PUSH1 0x2 PUSH2 0x100 EXP DUP2 SLOAD DUP2 PUSH1 0xFF MUL NOT AND SWAP1 DUP4 ISZERO ISZERO MUL OR SWAP1 SSTORE PUSH2 0xDD1 JUMPI PUSH0 DUP1 REVERT JUMPDEST PUSH1 0x4 DUP2 PUSH1 0x13 PUSH0 CALLER PUSH20 0xFFFFFFFFFFFFFFFFFFFFFFFFFFFFFFFFFFFFFFFF AND PUSH20 0xFFFFFFFFFFFFFFFFFFFFFFFFFFFFFFFFFFFFFFFF AND DUP2 MSTORE PUSH1 0x20 ADD SWAP1 DUP2 MSTORE PUSH1 0x20 ADD PUSH0 KECCAK256 SLOAD PUSH2 0xE1C SWAP2 SWAP1 PUSH2 0x36E2 JUMP JUMPDEST GT ISZERO PUSH2 0xE54 JUMPI PUSH1 0x40 MLOAD PUSH32 0x58C7943400000000000000000000000000000000000000000000000000000000 DUP2 MSTORE PUSH1 0x4 ADD PUSH1 0x40 MLOAD DUP1 SWAP2 SUB SWAP1 REVERT JUMPDEST DUP1 PUSH1 0x13 PUSH0 CALLER PUSH20 0xFFFFFFFFFFFFFFFFFFFFFFFFFFFFFFFFFFFFFFFF AND PUSH20 0xFFFFFFFFFFFFFFFFFFFFFFFFFFFFFFFFFFFFFFFF AND DUP2 MSTORE PUSH1 0x20 ADD SWAP1 DUP2 MSTORE PUSH1 0x20 ADD PUSH0 KECCAK256 PUSH0 DUP3 DUP3 SLOAD PUSH2 0xEA0 SWAP2 SWAP1 PUSH2 0x36E2 JUMP JUMPDEST SWAP3 POP POP DUP2 SWAP1 SSTORE POP PUSH0 PUSH2 0xEB0 PUSH2 0x2510 JUMP JUMPDEST SWAP1 POP PUSH1 0xC SLOAD DUP2 SUB PUSH2 0xEED JUMPI PUSH1 0x40 MLOAD PUSH32 0x52DF9FE500000000000000000000000000000000000000000000000000000000 DUP2 MSTORE PUSH1 0x4 ADD PUSH1 0x40 MLOAD DUP1 SWAP2 SUB SWAP1 REVERT JUMPDEST PUSH0 DUP3 GT PUSH2 0xF26 JUMPI PUSH1 0x40 MLOAD PUSH32 0xD43E607500000000000000000000000000000000000000000000000000000000 DUP2 MSTORE PUSH1 0x4 ADD PUSH1 0x40 MLOAD DUP1 SWAP2 SUB SWAP1 REVERT JUMPDEST PUSH0 DUP3 DUP3 PUSH2 0xF33 SWAP2 SWAP1 PUSH2 0x36E2 JUMP JUMPDEST SWAP1 POP PUSH1 0xC SLOAD DUP2 GT ISZERO PUSH2 0xF71 JUMPI PUSH1 0x40 MLOAD PUSH32 0x3FFC0DA600000000000000000000000000000000000000000000000000000000 DUP2 MSTORE PUSH1 0x4 ADD PUSH1 0x40 MLOAD DUP1 SWAP2 SUB SWAP1 REVERT JUMPDEST PUSH0 PUSH1 0xD SLOAD DUP5 PUSH2 0xF80 SWAP2 SWAP1 PUSH2 0x3715 JUMP JUMPDEST SWAP1 POP DUP1 PUSH1 0x11 PUSH0 SWAP1 SLOAD SWAP1 PUSH2 0x100 EXP SWAP1 DIV PUSH20 0xFFFFFFFFFFFFFFFFFFFFFFFFFFFFFFFFFFFFFFFF AND PUSH20 0xFFFFFFFFFFFFFFFFFFFFFFFFFFFFFFFFFFFFFFFF AND PUSH4 0x70A08231 CALLER PUSH1 0x40 MLOAD DUP3 PUSH4 0xFFFFFFFF AND PUSH1 0xE0 SHL DUP2 MSTORE PUSH1 0x4 ADD PUSH2 0xFDD SWAP2 SWAP1 PUSH2 0x2D8F JUMP JUMPDEST PUSH1 0x20 PUSH1 0x40 MLOAD DUP1 DUP4 SUB DUP2 DUP7 GAS STATICCALL ISZERO DUP1 ISZERO PUSH2 0xFF8 JUMPI RETURNDATASIZE PUSH0 DUP1 RETURNDATACOPY RETURNDATASIZE PUSH0 REVERT JUMPDEST POP POP POP POP PUSH1 0x40 MLOAD RETURNDATASIZE PUSH1 0x1F NOT PUSH1 0x1F DUP3 ADD AND DUP3 ADD DUP1 PUSH1 0x40 MSTORE POP DUP2 ADD SWAP1 PUSH2 0x101C SWAP2 SWAP1 PUSH2 0x376A JUMP JUMPDEST LT ISZERO PUSH2 0x1054 JUMPI PUSH1 0x40 MLOAD PUSH32 0x356680B700000000000000000000000000000000000000000000000000000000 DUP2 MSTORE PUSH1 0x4 ADD PUSH1 0x40 MLOAD DUP1 SWAP2 SUB SWAP1 REVERT JUMPDEST PUSH1 0x11 PUSH0 SWAP1 SLOAD SWAP1 PUSH2 0x100 EXP SWAP1 DIV PUSH20 0xFFFFFFFFFFFFFFFFFFFFFFFFFFFFFFFFFFFFFFFF AND PUSH20 0xFFFFFFFFFFFFFFFFFFFFFFFFFFFFFFFFFFFFFFFF AND PUSH4 0x23B872DD CALLER PUSH2 0xDEAD DUP5 PUSH1 0x40 MLOAD DUP5 PUSH4 0xFFFFFFFF AND PUSH1 0xE0 SHL DUP2 MSTORE PUSH1 0x4 ADD PUSH2 0x10B4 SWAP4 SWAP3 SWAP2 SWAP1 PUSH2 0x3795 JUMP JUMPDEST PUSH1 0x20 PUSH1 0x40 MLOAD DUP1 DUP4 SUB DUP2 PUSH0 DUP8 GAS CALL ISZERO DUP1 ISZERO PUSH2 0x10D0 JUMPI RETURNDATASIZE PUSH0 DUP1 RETURNDATACOPY RETURNDATASIZE PUSH0 REVERT JUMPDEST POP POP POP POP PUSH1 0x40 MLOAD RETURNDATASIZE PUSH1 0x1F NOT PUSH1 0x1F DUP3 ADD AND DUP3 ADD DUP1 PUSH1 0x40 MSTORE POP DUP2 ADD SWAP1 PUSH2 0x10F4 SWAP2 SWAP1 PUSH2 0x37DE JUMP JUMPDEST POP PUSH0 PUSH2 0x10FE PUSH2 0x2557 JUMP JUMPDEST SWAP1 POP PUSH0 PUSH1 0x1 DUP7 DUP4 PUSH2 0x110F SWAP2 SWAP1 PUSH2 0x36E2 JUMP JUMPDEST PUSH2 0x1119 SWAP2 SWAP1 PUSH2 0x3809 JUMP JUMPDEST SWAP1 POP JUMPDEST DUP1 DUP3 GT PUSH2 0x1181 JUMPI PUSH1 0x1 NUMBER PUSH2 0x1130 SWAP2 SWAP1 PUSH2 0x3809 JUMP JUMPDEST BLOCKHASH DUP3 PUSH1 0x40 MLOAD PUSH1 0x20 ADD PUSH2 0x1143 SWAP3 SWAP2 SWAP1 PUSH2 0x387C JUMP JUMPDEST PUSH1 0x40 MLOAD PUSH1 0x20 DUP2 DUP4 SUB SUB DUP2 MSTORE SWAP1 PUSH1 0x40 MSTORE DUP1 MLOAD SWAP1 PUSH1 0x20 ADD KECCAK256 PUSH1 0x12 PUSH0 DUP5 DUP2 MSTORE PUSH1 0x20 ADD SWAP1 DUP2 MSTORE PUSH1 0x20 ADD PUSH0 KECCAK256 DUP2 SWAP1 SSTORE POP DUP2 DUP1 PUSH2 0x1179 SWAP1 PUSH2 0x38A7 JUMP JUMPDEST SWAP3 POP POP PUSH2 0x111C JUMP JUMPDEST PUSH2 0x118B CALLER DUP8 PUSH2 0x255F JUMP JUMPDEST POP POP POP POP POP PUSH1 0x1 PUSH1 0xA DUP2 SWAP1 SSTORE POP POP JUMP JUMPDEST PUSH1 0x10 SLOAD DUP2 JUMP JUMPDEST PUSH1 0xC SLOAD DUP2 JUMP JUMPDEST PUSH1 0x9 PUSH0 SWAP1 SLOAD SWAP1 PUSH2 0x100 EXP SWAP1 DIV PUSH20 0xFFFFFFFFFFFFFFFFFFFFFFFFFFFFFFFFFFFFFFFF AND PUSH20 0xFFFFFFFFFFFFFFFFFFFFFFFFFFFFFFFFFFFFFFFF AND CALLER PUSH20 0xFFFFFFFFFFFFFFFFFFFFFFFFFFFFFFFFFFFFFFFF AND EQ PUSH2 0x1236 JUMPI PUSH1 0x40 MLOAD PUSH32 0x8C379A000000000000000000000000000000000000000000000000000000000 DUP2 MSTORE PUSH1 0x4 ADD PUSH2 0x122D SWAP1 PUSH2 0x3938 JUMP JUMPDEST PUSH1 0x40 MLOAD DUP1 SWAP2 SUB SWAP1 REVERT JUMPDEST PUSH1 0x1 PUSH1 0xA SLOAD EQ PUSH2 0x127B JUMPI PUSH1 0x40 MLOAD PUSH32 0x8C379A000000000000000000000000000000000000000000000000000000000 DUP2 MSTORE PUSH1 0x4 ADD PUSH2 0x1272 SWAP1 PUSH2 0x3697 JUMP JUMPDEST PUSH1 0x40 MLOAD DUP1 SWAP2 SUB SWAP1 REVERT JUMPDEST PUSH1 0x2 PUSH1 0xA DUP2 SWAP1 SSTORE POP PUSH0 CALLER PUSH20 0xFFFFFFFFFFFFFFFFFFFFFFFFFFFFFFFFFFFFFFFF AND SELFBALANCE PUSH1 0x40 MLOAD PUSH2 0x12A8 SWAP1 PUSH2 0x3983 JUMP JUMPDEST PUSH0 PUSH1 0x40 MLOAD DUP1 DUP4 SUB DUP2 DUP6 DUP8 GAS CALL SWAP3 POP POP POP RETURNDATASIZE DUP1 PUSH0 DUP2 EQ PUSH2 0x12E2 JUMPI PUSH1 0x40 MLOAD SWAP2 POP PUSH1 0x1F NOT PUSH1 0x3F RETURNDATASIZE ADD AND DUP3 ADD PUSH1 0x40 MSTORE RETURNDATASIZE DUP3 MSTORE RETURNDATASIZE PUSH0 PUSH1 0x20 DUP5 ADD RETURNDATACOPY PUSH2 0x12E7 JUMP JUMPDEST PUSH1 0x60 SWAP2 POP JUMPDEST POP POP SWAP1 POP DUP1 PUSH2 0x132B JUMPI PUSH1 0x40 MLOAD PUSH32 0x8C379A000000000000000000000000000000000000000000000000000000000 DUP2 MSTORE PUSH1 0x4 ADD PUSH2 0x1322 SWAP1 PUSH2 0x39E1 JUMP JUMPDEST PUSH1 0x40 MLOAD DUP1 SWAP2 SUB SWAP1 REVERT JUMPDEST POP PUSH1 0x1 PUSH1 0xA DUP2 SWAP1 SSTORE POP JUMP JUMPDEST PUSH2 0x1350 DUP4 DUP4 DUP4 PUSH1 0x40 MLOAD DUP1 PUSH1 0x20 ADD PUSH1 0x40 MSTORE DUP1 PUSH0 DUP2 MSTORE POP PUSH2 0x1B54 JUMP JUMPDEST POP POP POP JUMP JUMPDEST PUSH1 0x13 PUSH1 0x20 MSTORE DUP1 PUSH0 MSTORE PUSH1 0x40 PUSH0 KECCAK256 PUSH0 SWAP2 POP SWAP1 POP SLOAD DUP2 JUMP JUMPDEST PUSH1 0x9 PUSH0 SWAP1 SLOAD SWAP1 PUSH2 0x100 EXP SWAP1 DIV PUSH20 0xFFFFFFFFFFFFFFFFFFFFFFFFFFFFFFFFFFFFFFFF AND PUSH20 0xFFFFFFFFFFFFFFFFFFFFFFFFFFFFFFFFFFFFFFFF AND CALLER PUSH20 0xFFFFFFFFFFFFFFFFFFFFFFFFFFFFFFFFFFFFFFFF AND EQ PUSH2 0x13F9 JUMPI PUSH1 0x40 MLOAD PUSH32 0x8C379A000000000000000000000000000000000000000000000000000000000 DUP2 MSTORE PUSH1 0x4 ADD PUSH2 0x13F0 SWAP1 PUSH2 0x3938 JUMP JUMPDEST PUSH1 0x40 MLOAD DUP1 SWAP2 SUB SWAP1 REVERT JUMPDEST DUP1 PUSH1 0x10 DUP2 SWAP1 SSTORE POP POP JUMP JUMPDEST PUSH1 0x9 PUSH0 SWAP1 SLOAD SWAP1 PUSH2 0x100 EXP SWAP1 DIV PUSH20 0xFFFFFFFFFFFFFFFFFFFFFFFFFFFFFFFFFFFFFFFF AND PUSH20 0xFFFFFFFFFFFFFFFFFFFFFFFFFFFFFFFFFFFFFFFF AND CALLER PUSH20 0xFFFFFFFFFFFFFFFFFFFFFFFFFFFFFFFFFFFFFFFF AND EQ PUSH2 0x1492 JUMPI PUSH1 0x40 MLOAD PUSH32 0x8C379A000000000000000000000000000000000000000000000000000000000 DUP2 MSTORE PUSH1 0x4 ADD PUSH2 0x1489 SWAP1 PUSH2 0x3938 JUMP JUMPDEST PUSH1 0x40 MLOAD DUP1 SWAP2 SUB SWAP1 REVERT JUMPDEST PUSH1 0xF PUSH0 SWAP1 SLOAD SWAP1 PUSH2 0x100 EXP SWAP1 DIV PUSH1 0xFF AND ISZERO PUSH1 0xF PUSH0 PUSH2 0x100 EXP DUP2 SLOAD DUP2 PUSH1 0xFF MUL NOT AND SWAP1 DUP4 ISZERO ISZERO MUL OR SWAP1 SSTORE POP JUMP JUMPDEST PUSH1 0x60 DUP1 PUSH0 DUP5 DUP5 SWAP1 POP SWAP1 POP PUSH1 0x40 MLOAD SWAP2 POP DUP1 DUP3 MSTORE DUP1 PUSH1 0x5 SHL SWAP1 POP DUP1 PUSH1 0x20 DUP4 ADD ADD PUSH1 0x40 MSTORE JUMPDEST PUSH0 DUP2 EQ PUSH2 0x150D JUMPI PUSH0 PUSH1 0x20 DUP3 SUB SWAP2 POP DUP2 DUP7 ADD CALLDATALOAD SWAP1 POP PUSH0 PUSH2 0x14FC DUP3 PUSH2 0x1BB7 JUMP JUMPDEST SWAP1 POP DUP1 DUP4 PUSH1 0x20 DUP7 ADD ADD MSTORE POP POP PUSH2 0x14DE JUMP JUMPDEST DUP2 SWAP3 POP POP POP SWAP3 SWAP2 POP POP JUMP JUMPDEST PUSH0 PUSH2 0x1522 DUP3 PUSH2 0x2337 JUMP JUMPDEST SWAP1 POP SWAP2 SWAP1 POP JUMP JUMPDEST PUSH1 0x9 PUSH0 SWAP1 SLOAD SWAP1 PUSH2 0x100 EXP SWAP1 DIV PUSH20 0xFFFFFFFFFFFFFFFFFFFFFFFFFFFFFFFFFFFFFFFF AND PUSH20 0xFFFFFFFFFFFFFFFFFFFFFFFFFFFFFFFFFFFFFFFF AND CALLER PUSH20 0xFFFFFFFFFFFFFFFFFFFFFFFFFFFFFFFFFFFFFFFF AND EQ PUSH2 0x15B8 JUMPI PUSH1 0x40 MLOAD PUSH32 0x8C379A000000000000000000000000000000000000000000000000000000000 DUP2 MSTORE PUSH1 0x4 ADD PUSH2 0x15AF SWAP1 PUSH2 0x3938 JUMP JUMPDEST PUSH1 0x40 MLOAD DUP1 SWAP2 SUB SWAP1 REVERT JUMPDEST PUSH1 0xF PUSH1 0x2 SWAP1 SLOAD SWAP1 PUSH2 0x100 EXP SWAP1 DIV PUSH1 0xFF AND ISZERO PUSH1 0xF PUSH1 0x2 PUSH2 0x100 EXP DUP2 SLOAD DUP2 PUSH1 0xFF MUL NOT AND SWAP1 DUP4 ISZERO ISZERO MUL OR SWAP1 SSTORE POP JUMP JUMPDEST PUSH0 DUP1 PUSH20 0xFFFFFFFFFFFFFFFFFFFFFFFFFFFFFFFFFFFFFFFF AND DUP3 PUSH20 0xFFFFFFFFFFFFFFFFFFFFFFFFFFFFFFFFFFFFFFFF AND SUB PUSH2 0x1629 JUMPI PUSH2 0x1628 PUSH4 0x8F4EB604 PUSH1 0xE0 SHL PUSH2 0x21D6 JUMP JUMPDEST JUMPDEST PUSH8 0xFFFFFFFFFFFFFFFF PUSH1 0x5 PUSH0 DUP5 PUSH20 0xFFFFFFFFFFFFFFFFFFFFFFFFFFFFFFFFFFFFFFFF AND PUSH20 0xFFFFFFFFFFFFFFFFFFFFFFFFFFFFFFFFFFFFFFFF AND DUP2 MSTORE PUSH1 0x20 ADD SWAP1 DUP2 MSTORE PUSH1 0x20 ADD PUSH0 KECCAK256 SLOAD AND SWAP1 POP SWAP2 SWAP1 POP JUMP JUMPDEST PUSH1 0x9 PUSH0 SWAP1 SLOAD SWAP1 PUSH2 0x100 EXP SWAP1 DIV PUSH20 0xFFFFFFFFFFFFFFFFFFFFFFFFFFFFFFFFFFFFFFFF AND PUSH20 0xFFFFFFFFFFFFFFFFFFFFFFFFFFFFFFFFFFFFFFFF AND CALLER PUSH20 0xFFFFFFFFFFFFFFFFFFFFFFFFFFFFFFFFFFFFFFFF AND EQ PUSH2 0x1707 JUMPI PUSH1 0x40 MLOAD PUSH32 0x8C379A000000000000000000000000000000000000000000000000000000000 DUP2 MSTORE PUSH1 0x4 ADD PUSH2 0x16FE SWAP1 PUSH2 0x3938 JUMP JUMPDEST PUSH1 0x40 MLOAD DUP1 SWAP2 SUB SWAP1 REVERT JUMPDEST DUP2 PUSH20 0xFFFFFFFFFFFFFFFFFFFFFFFFFFFFFFFFFFFFFFFF AND PUSH4 0xA9059CBB DUP3 DUP5 PUSH20 0xFFFFFFFFFFFFFFFFFFFFFFFFFFFFFFFFFFFFFFFF AND PUSH4 0x70A08231 ADDRESS PUSH1 0x40 MLOAD DUP3 PUSH4 0xFFFFFFFF AND PUSH1 0xE0 SHL DUP2 MSTORE PUSH1 0x4 ADD PUSH2 0x175D SWAP2 SWAP1 PUSH2 0x2D8F JUMP JUMPDEST PUSH1 0x20 PUSH1 0x40 MLOAD DUP1 DUP4 SUB DUP2 DUP7 GAS STATICCALL ISZERO DUP1 ISZERO PUSH2 0x1778 JUMPI RETURNDATASIZE PUSH0 DUP1 RETURNDATACOPY RETURNDATASIZE PUSH0 REVERT JUMPDEST POP POP POP POP PUSH1 0x40 MLOAD RETURNDATASIZE PUSH1 0x1F NOT PUSH1 0x1F DUP3 ADD AND DUP3 ADD DUP1 PUSH1 0x40 MSTORE POP DUP2 ADD SWAP1 PUSH2 0x179C SWAP2 SWAP1 PUSH2 0x376A JUMP JUMPDEST PUSH1 0x40 MLOAD DUP4 PUSH4 0xFFFFFFFF AND PUSH1 0xE0 SHL DUP2 MSTORE PUSH1 0x4 ADD PUSH2 0x17B9 SWAP3 SWAP2 SWAP1 PUSH2 0x39FF JUMP JUMPDEST PUSH1 0x20 PUSH1 0x40 MLOAD DUP1 DUP4 SUB DUP2 PUSH0 DUP8 GAS CALL ISZERO DUP1 ISZERO PUSH2 0x17D5 JUMPI RETURNDATASIZE PUSH0 DUP1 RETURNDATACOPY RETURNDATASIZE PUSH0 REVERT JUMPDEST POP POP POP POP PUSH1 0x40 MLOAD RETURNDATASIZE PUSH1 0x1F NOT PUSH1 0x1F DUP3 ADD AND DUP3 ADD DUP1 PUSH1 0x40 MSTORE POP DUP2 ADD SWAP1 PUSH2 0x17F9 SWAP2 SWAP1 PUSH2 0x37DE JUMP JUMPDEST POP POP POP JUMP JUMPDEST PUSH1 0x12 PUSH1 0x20 MSTORE DUP1 PUSH0 MSTORE PUSH1 0x40 PUSH0 KECCAK256 PUSH0 SWAP2 POP SWAP1 POP SLOAD DUP2 JUMP JUMPDEST PUSH1 0x60 PUSH32 0xFFFFFFFFFFFFFFFFFFFFFFFFFFFFFFFFFFFFFFFFFFFFFFFFFFFFFFFFFFFFFFFF PUSH2 0x183E PUSH2 0x2310 JUMP JUMPDEST EQ PUSH2 0x1854 JUMPI PUSH2 0x1853 PUSH4 0xBDBA09D7 PUSH1 0xE0 SHL PUSH2 0x21D6 JUMP JUMPDEST JUMPDEST PUSH0 PUSH2 0x185D PUSH2 0x2308 JUMP JUMPDEST SWAP1 POP PUSH0 PUSH2 0x1868 PUSH2 0x2557 JUMP JUMPDEST SWAP1 POP PUSH1 0x60 DUP2 DUP4 EQ PUSH2 0x1881 JUMPI PUSH2 0x187E DUP6 DUP5 DUP5 PUSH2 0x26D3 JUMP JUMPDEST SWAP1 POP JUMPDEST DUP1 SWAP4 POP POP POP POP SWAP2 SWAP1 POP JUMP JUMPDEST PUSH1 0x9 PUSH0 SWAP1 SLOAD SWAP1 PUSH2 0x100 EXP SWAP1 DIV PUSH20 0xFFFFFFFFFFFFFFFFFFFFFFFFFFFFFFFFFFFFFFFF AND DUP2 JUMP JUMPDEST PUSH1 0x60 PUSH1 0x3 DUP1 SLOAD PUSH2 0x18C0 SWAP1 PUSH2 0x361D JUMP JUMPDEST DUP1 PUSH1 0x1F ADD PUSH1 0x20 DUP1 SWAP2 DIV MUL PUSH1 0x20 ADD PUSH1 0x40 MLOAD SWAP1 DUP2 ADD PUSH1 0x40 MSTORE DUP1 SWAP3 SWAP2 SWAP1 DUP2 DUP2 MSTORE PUSH1 0x20 ADD DUP3 DUP1 SLOAD PUSH2 0x18EC SWAP1 PUSH2 0x361D JUMP JUMPDEST DUP1 ISZERO PUSH2 0x1937 JUMPI DUP1 PUSH1 0x1F LT PUSH2 0x190E JUMPI PUSH2 0x100 DUP1 DUP4 SLOAD DIV MUL DUP4 MSTORE SWAP2 PUSH1 0x20 ADD SWAP2 PUSH2 0x1937 JUMP JUMPDEST DUP3 ADD SWAP2 SWAP1 PUSH0 MSTORE PUSH1 0x20 PUSH0 KECCAK256 SWAP1 JUMPDEST DUP2 SLOAD DUP2 MSTORE SWAP1 PUSH1 0x1 ADD SWAP1 PUSH1 0x20 ADD DUP1 DUP4 GT PUSH2 0x191A JUMPI DUP3 SWAP1 SUB PUSH1 0x1F AND DUP3 ADD SWAP2 JUMPDEST POP POP POP POP POP SWAP1 POP SWAP1 JUMP JUMPDEST PUSH1 0x60 PUSH2 0x194E DUP5 DUP5 DUP5 PUSH2 0x26D3 JUMP JUMPDEST SWAP1 POP SWAP4 SWAP3 POP POP POP JUMP JUMPDEST DUP1 PUSH1 0x7 PUSH0 PUSH2 0x1963 PUSH2 0x2469 JUMP JUMPDEST PUSH20 0xFFFFFFFFFFFFFFFFFFFFFFFFFFFFFFFFFFFFFFFF AND PUSH20 0xFFFFFFFFFFFFFFFFFFFFFFFFFFFFFFFFFFFFFFFF AND DUP2 MSTORE PUSH1 0x20 ADD SWAP1 DUP2 MSTORE PUSH1 0x20 ADD PUSH0 KECCAK256 PUSH0 DUP5 PUSH20 0xFFFFFFFFFFFFFFFFFFFFFFFFFFFFFFFFFFFFFFFF AND PUSH20 0xFFFFFFFFFFFFFFFFFFFFFFFFFFFFFFFFFFFFFFFF AND DUP2 MSTORE PUSH1 0x20 ADD SWAP1 DUP2 MSTORE PUSH1 0x20 ADD PUSH0 KECCAK256 PUSH0 PUSH2 0x100 EXP DUP2 SLOAD DUP2 PUSH1 0xFF MUL NOT AND SWAP1 DUP4 ISZERO ISZERO MUL OR SWAP1 SSTORE POP DUP2 PUSH20 0xFFFFFFFFFFFFFFFFFFFFFFFFFFFFFFFFFFFFFFFF AND PUSH2 0x1A0C PUSH2 0x2469 JUMP JUMPDEST PUSH20 0xFFFFFFFFFFFFFFFFFFFFFFFFFFFFFFFFFFFFFFFF AND PUSH32 0x17307EAB39AB6107E8899845AD3D59BD9653F200F220920489CA2B5937696C31 DUP4 PUSH1 0x40 MLOAD PUSH2 0x1A51 SWAP2 SWAP1 PUSH2 0x2C49 JUMP JUMPDEST PUSH1 0x40 MLOAD DUP1 SWAP2 SUB SWAP1 LOG3 POP POP JUMP JUMPDEST PUSH1 0x11 PUSH0 SWAP1 SLOAD SWAP1 PUSH2 0x100 EXP SWAP1 DIV PUSH20 0xFFFFFFFFFFFFFFFFFFFFFFFFFFFFFFFFFFFFFFFF AND DUP2 JUMP JUMPDEST PUSH1 0x9 PUSH0 SWAP1 SLOAD SWAP1 PUSH2 0x100 EXP SWAP1 DIV PUSH20 0xFFFFFFFFFFFFFFFFFFFFFFFFFFFFFFFFFFFFFFFF AND PUSH20 0xFFFFFFFFFFFFFFFFFFFFFFFFFFFFFFFFFFFFFFFF AND CALLER PUSH20 0xFFFFFFFFFFFFFFFFFFFFFFFFFFFFFFFFFFFFFFFF AND EQ PUSH2 0x1B11 JUMPI PUSH1 0x40 MLOAD PUSH32 0x8C379A000000000000000000000000000000000000000000000000000000000 DUP2 MSTORE PUSH1 0x4 ADD PUSH2 0x1B08 SWAP1 PUSH2 0x3938 JUMP JUMPDEST PUSH1 0x40 MLOAD DUP1 SWAP2 SUB SWAP1 REVERT JUMPDEST DUP1 PUSH1 0x11 PUSH0 PUSH2 0x100 EXP DUP2 SLOAD DUP2 PUSH20 0xFFFFFFFFFFFFFFFFFFFFFFFFFFFFFFFFFFFFFFFF MUL NOT AND SWAP1 DUP4 PUSH20 0xFFFFFFFFFFFFFFFFFFFFFFFFFFFFFFFFFFFFFFFF AND MUL OR SWAP1 SSTORE POP POP JUMP JUMPDEST PUSH2 0x1B5F DUP5 DUP5 DUP5 PUSH2 0xAB7 JUMP JUMPDEST PUSH0 DUP4 PUSH20 0xFFFFFFFFFFFFFFFFFFFFFFFFFFFFFFFFFFFFFFFF AND EXTCODESIZE EQ PUSH2 0x1B9F JUMPI PUSH2 0x1B89 DUP5 DUP5 DUP5 DUP5 PUSH2 0x2882 JUMP JUMPDEST PUSH2 0x1B9E JUMPI PUSH2 0x1B9D PUSH4 0xD1A57ED6 PUSH1 0xE0 SHL PUSH2 0x21D6 JUMP JUMPDEST JUMPDEST JUMPDEST POP POP POP POP JUMP JUMPDEST PUSH1 0xF PUSH0 SWAP1 SLOAD SWAP1 PUSH2 0x100 EXP SWAP1 DIV PUSH1 0xFF AND DUP2 JUMP JUMPDEST PUSH2 0x1BBF PUSH2 0x2B53 JUMP JUMPDEST PUSH2 0x1BC7 PUSH2 0x2308 JUMP JUMPDEST DUP3 LT PUSH2 0x1C26 JUMPI PUSH2 0x1BD5 PUSH2 0x2310 JUMP JUMPDEST DUP3 GT ISZERO PUSH2 0x1BEC JUMPI PUSH2 0x1BE5 DUP3 PUSH2 0x29AC JUMP JUMPDEST SWAP1 POP PUSH2 0x1C27 JUMP JUMPDEST PUSH2 0x1BF4 PUSH2 0x2557 JUMP JUMPDEST DUP3 LT ISZERO PUSH2 0x1C25 JUMPI JUMPDEST PUSH2 0x1C05 DUP3 PUSH2 0x29D5 JUMP JUMPDEST PUSH2 0x1C15 JUMPI DUP2 PUSH1 0x1 SWAP1 SUB SWAP2 POP PUSH2 0x1BFC JUMP JUMPDEST PUSH2 0x1C1E DUP3 PUSH2 0x29AC JUMP JUMPDEST SWAP1 POP PUSH2 0x1C27 JUMP JUMPDEST JUMPDEST JUMPDEST SWAP2 SWAP1 POP JUMP JUMPDEST PUSH1 0xD SLOAD DUP2 JUMP JUMPDEST PUSH1 0x60 PUSH1 0xB PUSH0 SWAP1 SLOAD SWAP1 PUSH2 0x100 EXP SWAP1 DIV PUSH20 0xFFFFFFFFFFFFFFFFFFFFFFFFFFFFFFFFFFFFFFFF AND PUSH20 0xFFFFFFFFFFFFFFFFFFFFFFFFFFFFFFFFFFFFFFFF AND PUSH4 0xC649C9A8 DUP4 PUSH1 0x12 PUSH0 DUP7 DUP2 MSTORE PUSH1 0x20 ADD SWAP1 DUP2 MSTORE PUSH1 0x20 ADD PUSH0 KECCAK256 SLOAD PUSH1 0x40 MLOAD DUP4 PUSH4 0xFFFFFFFF AND PUSH1 0xE0 SHL DUP2 MSTORE PUSH1 0x4 ADD PUSH2 0x1CA1 SWAP3 SWAP2 SWAP1 PUSH2 0x3A26 JUMP JUMPDEST PUSH0 PUSH1 0x40 MLOAD DUP1 DUP4 SUB DUP2 DUP7 GAS STATICCALL ISZERO DUP1 ISZERO PUSH2 0x1CBB JUMPI RETURNDATASIZE PUSH0 DUP1 RETURNDATACOPY RETURNDATASIZE PUSH0 REVERT JUMPDEST POP POP POP POP PUSH1 0x40 MLOAD RETURNDATASIZE PUSH0 DUP3 RETURNDATACOPY RETURNDATASIZE PUSH1 0x1F NOT PUSH1 0x1F DUP3 ADD AND DUP3 ADD DUP1 PUSH1 0x40 MSTORE POP DUP2 ADD SWAP1 PUSH2 0x1CE3 SWAP2 SWAP1 PUSH2 0x3AEB JUMP JUMPDEST SWAP1 POP SWAP2 SWAP1 POP JUMP JUMPDEST PUSH1 0xF PUSH1 0x1 SWAP1 SLOAD SWAP1 PUSH2 0x100 EXP SWAP1 DIV PUSH1 0xFF AND DUP2 JUMP JUMPDEST PUSH1 0x9 PUSH0 SWAP1 SLOAD SWAP1 PUSH2 0x100 EXP SWAP1 DIV PUSH20 0xFFFFFFFFFFFFFFFFFFFFFFFFFFFFFFFFFFFFFFFF AND PUSH20 0xFFFFFFFFFFFFFFFFFFFFFFFFFFFFFFFFFFFFFFFF AND CALLER PUSH20 0xFFFFFFFFFFFFFFFFFFFFFFFFFFFFFFFFFFFFFFFF AND EQ PUSH2 0x1D8C JUMPI PUSH1 0x40 MLOAD PUSH32 0x8C379A000000000000000000000000000000000000000000000000000000000 DUP2 MSTORE PUSH1 0x4 ADD PUSH2 0x1D83 SWAP1 PUSH2 0x3938 JUMP JUMPDEST PUSH1 0x40 MLOAD DUP1 SWAP2 SUB SWAP1 REVERT JUMPDEST PUSH1 0xF PUSH1 0x1 SWAP1 SLOAD SWAP1 PUSH2 0x100 EXP SWAP1 DIV PUSH1 0xFF AND ISZERO PUSH1 0xF PUSH1 0x1 PUSH2 0x100 EXP DUP2 SLOAD DUP2 PUSH1 0xFF MUL NOT AND SWAP1 DUP4 ISZERO ISZERO MUL OR SWAP1 SSTORE POP JUMP JUMPDEST PUSH1 0x1 PUSH1 0xA SLOAD EQ PUSH2 0x1DFD JUMPI PUSH1 0x40 MLOAD PUSH32 0x8C379A000000000000000000000000000000000000000000000000000000000 DUP2 MSTORE PUSH1 0x4 ADD PUSH2 0x1DF4 SWAP1 PUSH2 0x3697 JUMP JUMPDEST PUSH1 0x40 MLOAD DUP1 SWAP2 SUB SWAP1 REVERT JUMPDEST PUSH1 0x2 PUSH1 0xA DUP2 SWAP1 SSTORE POP PUSH1 0x1 PUSH1 0xF PUSH0 PUSH2 0x100 EXP DUP2 SLOAD DUP2 PUSH1 0xFF MUL NOT AND SWAP1 DUP4 ISZERO ISZERO MUL OR SWAP1 SSTORE PUSH2 0x1E26 JUMPI PUSH0 DUP1 REVERT JUMPDEST PUSH0 CALLER PUSH1 0x40 MLOAD PUSH1 0x20 ADD PUSH2 0x1E38 SWAP2 SWAP1 PUSH2 0x2D8F JUMP JUMPDEST PUSH1 0x40 MLOAD PUSH1 0x20 DUP2 DUP4 SUB SUB DUP2 MSTORE SWAP1 PUSH1 0x40 MSTORE DUP1 MLOAD SWAP1 PUSH1 0x20 ADD KECCAK256 SWAP1 POP PUSH2 0x1E5E DUP4 DUP4 PUSH1 0x10 SLOAD DUP5 PUSH2 0x29F2 JUMP JUMPDEST PUSH2 0x1E94 JUMPI PUSH1 0x40 MLOAD PUSH32 0x9BDE33900000000000000000000000000000000000000000000000000000000 DUP2 MSTORE PUSH1 0x4 ADD PUSH1 0x40 MLOAD DUP1 SWAP2 SUB SWAP1 REVERT JUMPDEST PUSH0 DUP5 GT PUSH2 0x1ECD JUMPI PUSH1 0x40 MLOAD PUSH32 0xD43E607500000000000000000000000000000000000000000000000000000000 DUP2 MSTORE PUSH1 0x4 ADD PUSH1 0x40 MLOAD DUP1 SWAP2 SUB SWAP1 REVERT JUMPDEST PUSH0 PUSH2 0x1ED6 PUSH2 0x2557 JUMP JUMPDEST SWAP1 POP PUSH0 PUSH1 0x1 DUP7 DUP4 PUSH2 0x1EE7 SWAP2 SWAP1 PUSH2 0x36E2 JUMP JUMPDEST PUSH2 0x1EF1 SWAP2 SWAP1 PUSH2 0x3809 JUMP JUMPDEST SWAP1 POP JUMPDEST DUP1 DUP3 GT PUSH2 0x1F59 JUMPI PUSH1 0x1 NUMBER PUSH2 0x1F08 SWAP2 SWAP1 PUSH2 0x3809 JUMP JUMPDEST BLOCKHASH DUP3 PUSH1 0x40 MLOAD PUSH1 0x20 ADD PUSH2 0x1F1B SWAP3 SWAP2 SWAP1 PUSH2 0x387C JUMP JUMPDEST PUSH1 0x40 MLOAD PUSH1 0x20 DUP2 DUP4 SUB SUB DUP2 MSTORE SWAP1 PUSH1 0x40 MSTORE DUP1 MLOAD SWAP1 PUSH1 0x20 ADD KECCAK256 PUSH1 0x12 PUSH0 DUP5 DUP2 MSTORE PUSH1 0x20 ADD SWAP1 DUP2 MSTORE PUSH1 0x20 ADD PUSH0 KECCAK256 DUP2 SWAP1 SSTORE POP DUP2 DUP1 PUSH2 0x1F51 SWAP1 PUSH2 0x38A7 JUMP JUMPDEST SWAP3 POP POP PUSH2 0x1EF4 JUMP JUMPDEST PUSH2 0x1F63 CALLER DUP8 PUSH2 0x255F JUMP JUMPDEST POP POP POP PUSH1 0x1 PUSH1 0xA DUP2 SWAP1 SSTORE POP POP POP POP JUMP JUMPDEST PUSH0 PUSH1 0x7 PUSH0 DUP5 PUSH20 0xFFFFFFFFFFFFFFFFFFFFFFFFFFFFFFFFFFFFFFFF AND PUSH20 0xFFFFFFFFFFFFFFFFFFFFFFFFFFFFFFFFFFFFFFFF AND DUP2 MSTORE PUSH1 0x20 ADD SWAP1 DUP2 MSTORE PUSH1 0x20 ADD PUSH0 KECCAK256 PUSH0 DUP4 PUSH20 0xFFFFFFFFFFFFFFFFFFFFFFFFFFFFFFFFFFFFFFFF AND PUSH20 0xFFFFFFFFFFFFFFFFFFFFFFFFFFFFFFFFFFFFFFFF AND DUP2 MSTORE PUSH1 0x20 ADD SWAP1 DUP2 MSTORE PUSH1 0x20 ADD PUSH0 KECCAK256 PUSH0 SWAP1 SLOAD SWAP1 PUSH2 0x100 EXP SWAP1 DIV PUSH1 0xFF AND SWAP1 POP SWAP3 SWAP2 POP POP JUMP JUMPDEST PUSH1 0xE SLOAD DUP2 JUMP JUMPDEST PUSH1 0x9 PUSH0 SWAP1 SLOAD SWAP1 PUSH2 0x100 EXP SWAP1 DIV PUSH20 0xFFFFFFFFFFFFFFFFFFFFFFFFFFFFFFFFFFFFFFFF AND PUSH20 0xFFFFFFFFFFFFFFFFFFFFFFFFFFFFFFFFFFFFFFFF AND CALLER PUSH20 0xFFFFFFFFFFFFFFFFFFFFFFFFFFFFFFFFFFFFFFFF AND EQ PUSH2 0x2096 JUMPI PUSH1 0x40 MLOAD PUSH32 0x8C379A000000000000000000000000000000000000000000000000000000000 DUP2 MSTORE PUSH1 0x4 ADD PUSH2 0x208D SWAP1 PUSH2 0x3938 JUMP JUMPDEST PUSH1 0x40 MLOAD DUP1 SWAP2 SUB SWAP1 REVERT JUMPDEST DUP1 PUSH1 0x9 PUSH0 PUSH2 0x100 EXP DUP2 SLOAD DUP2 PUSH20 0xFFFFFFFFFFFFFFFFFFFFFFFFFFFFFFFFFFFFFFFF MUL NOT AND SWAP1 DUP4 PUSH20 0xFFFFFFFFFFFFFFFFFFFFFFFFFFFFFFFFFFFFFFFF AND MUL OR SWAP1 SSTORE POP DUP1 PUSH20 0xFFFFFFFFFFFFFFFFFFFFFFFFFFFFFFFFFFFFFFFF AND CALLER PUSH20 0xFFFFFFFFFFFFFFFFFFFFFFFFFFFFFFFFFFFFFFFF AND PUSH32 0x8BE0079C531659141344CD1FD0A4F28419497F9722A3DAAFE3B4186F6B6457E0 PUSH1 0x40 MLOAD PUSH1 0x40 MLOAD DUP1 SWAP2 SUB SWAP1 LOG3 POP JUMP JUMPDEST PUSH0 DUP2 PUSH2 0x213D PUSH2 0x2308 JUMP JUMPDEST GT PUSH2 0x21D0 JUMPI PUSH2 0x214A PUSH2 0x2310 JUMP JUMPDEST DUP3 GT ISZERO PUSH2 0x2172 JUMPI PUSH2 0x216B PUSH1 0x4 PUSH0 DUP5 DUP2 MSTORE PUSH1 0x20 ADD SWAP1 DUP2 MSTORE PUSH1 0x20 ADD PUSH0 KECCAK256 SLOAD PUSH2 0x2A48 JUMP JUMPDEST SWAP1 POP PUSH2 0x21D1 JUMP JUMPDEST PUSH0 SLOAD DUP3 LT ISZERO PUSH2 0x21CF JUMPI PUSH0 JUMPDEST PUSH0 PUSH1 0x4 PUSH0 DUP6 DUP2 MSTORE PUSH1 0x20 ADD SWAP1 DUP2 MSTORE PUSH1 0x20 ADD PUSH0 KECCAK256 SLOAD SWAP2 POP DUP2 SUB PUSH2 0x21A9 JUMPI DUP3 PUSH2 0x21A2 SWAP1 PUSH2 0x3B32 JUMP JUMPDEST SWAP3 POP PUSH2 0x217D JUMP JUMPDEST PUSH0 PUSH29 0x100000000000000000000000000000000000000000000000000000000 DUP3 AND EQ SWAP2 POP POP JUMPDEST JUMPDEST JUMPDEST SWAP2 SWAP1 POP JUMP JUMPDEST DUP1 PUSH0 MSTORE PUSH1 0x4 PUSH0 REVERT JUMPDEST PUSH0 PUSH2 0x21E8 DUP4 PUSH2 0x1518 JUMP JUMPDEST SWAP1 POP DUP2 DUP1 ISZERO PUSH2 0x222A JUMPI POP DUP1 PUSH20 0xFFFFFFFFFFFFFFFFFFFFFFFFFFFFFFFFFFFFFFFF AND PUSH2 0x2211 PUSH2 0x2469 JUMP JUMPDEST PUSH20 0xFFFFFFFFFFFFFFFFFFFFFFFFFFFFFFFFFFFFFFFF AND EQ ISZERO JUMPDEST ISZERO PUSH2 0x2256 JUMPI PUSH2 0x2240 DUP2 PUSH2 0x223B PUSH2 0x2469 JUMP JUMPDEST PUSH2 0x1F73 JUMP JUMPDEST PUSH2 0x2255 JUMPI PUSH2 0x2254 PUSH4 0xCFB3B942 PUSH1 0xE0 SHL PUSH2 0x21D6 JUMP JUMPDEST JUMPDEST JUMPDEST DUP4 PUSH1 0x6 PUSH0 DUP6 DUP2 MSTORE PUSH1 0x20 ADD SWAP1 DUP2 MSTORE PUSH1 0x20 ADD PUSH0 KECCAK256 PUSH0 ADD PUSH0 PUSH2 0x100 EXP DUP2 SLOAD DUP2 PUSH20 0xFFFFFFFFFFFFFFFFFFFFFFFFFFFFFFFFFFFFFFFF MUL NOT AND SWAP1 DUP4 PUSH20 0xFFFFFFFFFFFFFFFFFFFFFFFFFFFFFFFFFFFFFFFF AND MUL OR SWAP1 SSTORE POP DUP3 DUP5 PUSH20 0xFFFFFFFFFFFFFFFFFFFFFFFFFFFFFFFFFFFFFFFF AND DUP3 PUSH20 0xFFFFFFFFFFFFFFFFFFFFFFFFFFFFFFFFFFFFFFFF AND PUSH32 0x8C5BE1E5EBEC7D5BD14F71427D1E84F3DD0314C0F7B2291E5B200AC8C7C3B925 PUSH1 0x40 MLOAD PUSH1 0x40 MLOAD DUP1 SWAP2 SUB SWAP1 LOG4 POP POP POP POP JUMP JUMPDEST PUSH0 PUSH1 0x1 SWAP1 POP SWAP1 JUMP JUMPDEST PUSH0 PUSH32 0xFFFFFFFFFFFFFFFFFFFFFFFFFFFFFFFFFFFFFFFFFFFFFFFFFFFFFFFFFFFFFFFF SWAP1 POP SWAP1 JUMP JUMPDEST PUSH0 DUP2 PUSH2 0x2341 PUSH2 0x2308 JUMP JUMPDEST GT PUSH2 0x2430 JUMPI PUSH1 0x4 PUSH0 DUP4 DUP2 MSTORE PUSH1 0x20 ADD SWAP1 DUP2 MSTORE PUSH1 0x20 ADD PUSH0 KECCAK256 SLOAD SWAP1 POP PUSH2 0x2362 PUSH2 0x2310 JUMP JUMPDEST DUP3 GT ISZERO PUSH2 0x2387 JUMPI PUSH2 0x2372 DUP2 PUSH2 0x2A48 JUMP JUMPDEST PUSH2 0x2441 JUMPI PUSH2 0x2386 PUSH4 0xDF2D9B42 PUSH1 0xE0 SHL PUSH2 0x21D6 JUMP JUMPDEST JUMPDEST PUSH0 DUP2 SUB PUSH2 0x2408 JUMPI PUSH0 SLOAD DUP3 LT PUSH2 0x23A7 JUMPI PUSH2 0x23A6 PUSH4 0xDF2D9B42 PUSH1 0xE0 SHL PUSH2 0x21D6 JUMP JUMPDEST JUMPDEST JUMPDEST PUSH1 0x4 PUSH0 DUP4 PUSH1 0x1 SWAP1 SUB SWAP4 POP DUP4 DUP2 MSTORE PUSH1 0x20 ADD SWAP1 DUP2 MSTORE PUSH1 0x20 ADD PUSH0 KECCAK256 SLOAD SWAP1 POP PUSH0 DUP2 SUB ISZERO PUSH2 0x2403 JUMPI PUSH0 PUSH29 0x100000000000000000000000000000000000000000000000000000000 DUP3 AND SUB ISZERO PUSH2 0x2441 JUMPI PUSH2 0x2402 PUSH4 0xDF2D9B42 PUSH1 0xE0 SHL PUSH2 0x21D6 JUMP JUMPDEST JUMPDEST PUSH2 0x23A8 JUMP JUMPDEST PUSH0 PUSH29 0x100000000000000000000000000000000000000000000000000000000 DUP3 AND SUB ISZERO PUSH2 0x2441 JUMPI JUMPDEST PUSH2 0x2440 PUSH4 0xDF2D9B42 PUSH1 0xE0 SHL PUSH2 0x21D6 JUMP JUMPDEST JUMPDEST SWAP2 SWAP1 POP JUMP JUMPDEST PUSH0 DUP1 PUSH0 PUSH1 0x6 PUSH0 DUP6 DUP2 MSTORE PUSH1 0x20 ADD SWAP1 DUP2 MSTORE PUSH1 0x20 ADD PUSH0 KECCAK256 SWAP1 POP DUP1 SWAP3 POP DUP3 SLOAD SWAP2 POP POP SWAP2 POP SWAP2 JUMP JUMPDEST PUSH0 CALLER SWAP1 POP SWAP1 JUMP JUMPDEST PUSH0 PUSH20 0xFFFFFFFFFFFFFFFFFFFFFFFFFFFFFFFFFFFFFFFF DUP4 AND SWAP3 POP PUSH20 0xFFFFFFFFFFFFFFFFFFFFFFFFFFFFFFFFFFFFFFFF DUP3 AND SWAP2 POP DUP4 DUP3 EQ DUP4 DUP4 EQ OR SWAP1 POP SWAP4 SWAP3 POP POP POP JUMP JUMPDEST POP POP POP POP JUMP JUMPDEST PUSH0 DUP1 PUSH1 0xE8 DUP4 SWAP1 SHR SWAP1 POP PUSH1 0xE8 PUSH2 0x24CF DUP7 DUP7 DUP5 PUSH2 0x2A88 JUMP JUMPDEST PUSH3 0xFFFFFF AND SWAP1 SHL SWAP2 POP POP SWAP4 SWAP3 POP POP POP JUMP JUMPDEST PUSH0 PUSH20 0xFFFFFFFFFFFFFFFFFFFFFFFFFFFFFFFFFFFFFFFF DUP4 AND SWAP3 POP DUP2 TIMESTAMP PUSH1 0xA0 SHL OR DUP4 OR SWAP1 POP SWAP3 SWAP2 POP POP JUMP JUMPDEST POP POP POP POP JUMP JUMPDEST PUSH0 PUSH2 0x2519 PUSH2 0x2308 JUMP JUMPDEST PUSH0 SLOAD SUB SWAP1 POP PUSH32 0xFFFFFFFFFFFFFFFFFFFFFFFFFFFFFFFFFFFFFFFFFFFFFFFFFFFFFFFFFFFFFFFF PUSH2 0x2547 PUSH2 0x2310 JUMP JUMPDEST EQ PUSH2 0x2554 JUMPI PUSH1 0x8 SLOAD DUP2 ADD SWAP1 POP JUMPDEST SWAP1 JUMP JUMPDEST PUSH0 DUP1 SLOAD SWAP1 POP SWAP1 JUMP JUMPDEST PUSH0 DUP1 SLOAD SWAP1 POP PUSH0 DUP3 SUB PUSH2 0x257C JUMPI PUSH2 0x257B PUSH4 0xB562E8DD PUSH1 0xE0 SHL PUSH2 0x21D6 JUMP JUMPDEST JUMPDEST PUSH2 0x2588 PUSH0 DUP5 DUP4 DUP6 PUSH2 0x24B3 JUMP JUMPDEST PUSH2 0x25A6 DUP4 PUSH2 0x2597 PUSH0 DUP7 PUSH0 PUSH2 0x24B9 JUMP JUMPDEST PUSH2 0x25A0 DUP6 PUSH2 0x2A90 JUMP JUMPDEST OR PUSH2 0x24E0 JUMP JUMPDEST PUSH1 0x4 PUSH0 DUP4 DUP2 MSTORE PUSH1 0x20 ADD SWAP1 DUP2 MSTORE PUSH1 0x20 ADD PUSH0 KECCAK256 DUP2 SWAP1 SSTORE POP PUSH1 0x1 PUSH1 0x40 PUSH1 0x1 SWAP1 SHL OR DUP3 MUL PUSH1 0x5 PUSH0 DUP6 PUSH20 0xFFFFFFFFFFFFFFFFFFFFFFFFFFFFFFFFFFFFFFFF AND PUSH20 0xFFFFFFFFFFFFFFFFFFFFFFFFFFFFFFFFFFFFFFFF AND DUP2 MSTORE PUSH1 0x20 ADD SWAP1 DUP2 MSTORE PUSH1 0x20 ADD PUSH0 KECCAK256 PUSH0 DUP3 DUP3 SLOAD ADD SWAP3 POP POP DUP2 SWAP1 SSTORE POP PUSH0 PUSH20 0xFFFFFFFFFFFFFFFFFFFFFFFFFFFFFFFFFFFFFFFF DUP5 PUSH20 0xFFFFFFFFFFFFFFFFFFFFFFFFFFFFFFFFFFFFFFFF AND AND SWAP1 POP PUSH0 DUP2 SUB PUSH2 0x2657 JUMPI PUSH2 0x2656 PUSH4 0x2E076300 PUSH1 0xE0 SHL PUSH2 0x21D6 JUMP JUMPDEST JUMPDEST PUSH0 DUP4 DUP4 ADD SWAP1 POP PUSH0 DUP4 SWAP1 POP PUSH2 0x2669 PUSH2 0x2310 JUMP JUMPDEST PUSH1 0x1 DUP4 SUB GT ISZERO PUSH2 0x2684 JUMPI PUSH2 0x2683 PUSH4 0x81647E3A PUSH1 0xE0 SHL PUSH2 0x21D6 JUMP JUMPDEST JUMPDEST JUMPDEST DUP1 DUP4 PUSH0 PUSH32 0xDDF252AD1BE2C89B69C2B068FC378DAA952BA7F163C4A11628F55A4DF523B3EF PUSH0 DUP1 LOG4 DUP2 DUP2 PUSH1 0x1 ADD SWAP2 POP DUP2 SUB PUSH2 0x2685 JUMPI DUP2 PUSH0 DUP2 SWAP1 SSTORE POP POP POP POP PUSH2 0x26CE PUSH0 DUP5 DUP4 DUP6 PUSH2 0x250A JUMP JUMPDEST POP POP POP JUMP JUMPDEST PUSH1 0x60 DUP2 DUP4 LT PUSH2 0x26ED JUMPI PUSH2 0x26EC PUSH4 0x32C1995A PUSH1 0xE0 SHL PUSH2 0x21D6 JUMP JUMPDEST JUMPDEST PUSH2 0x26F5 PUSH2 0x2308 JUMP JUMPDEST DUP4 LT ISZERO PUSH2 0x2707 JUMPI PUSH2 0x2704 PUSH2 0x2308 JUMP JUMPDEST SWAP3 POP JUMPDEST PUSH0 PUSH2 0x2710 PUSH2 0x2557 JUMP JUMPDEST SWAP1 POP PUSH0 PUSH32 0xFFFFFFFFFFFFFFFFFFFFFFFFFFFFFFFFFFFFFFFFFFFFFFFFFFFFFFFFFFFFFFFF PUSH2 0x273C PUSH2 0x2310 JUMP JUMPDEST SUB PUSH2 0x2747 JUMPI DUP2 PUSH2 0x2749 JUMP JUMPDEST DUP4 JUMPDEST SWAP1 POP DUP1 DUP5 LT PUSH2 0x2756 JUMPI DUP1 SWAP4 POP JUMPDEST PUSH0 PUSH2 0x2760 DUP8 PUSH2 0x15E4 JUMP JUMPDEST SWAP1 POP DUP5 DUP7 LT PUSH2 0x276D JUMPI PUSH0 SWAP1 POP JUMPDEST PUSH0 DUP2 EQ PUSH2 0x2878 JUMPI DUP1 DUP7 DUP7 SUB GT PUSH2 0x2783 JUMPI DUP6 DUP6 SUB SWAP1 POP JUMPDEST PUSH0 PUSH1 0x40 MLOAD SWAP5 POP PUSH1 0x1 DUP3 ADD PUSH1 0x5 SHL DUP6 ADD SWAP1 POP DUP1 PUSH1 0x40 MSTORE PUSH0 PUSH2 0x27A2 DUP9 PUSH2 0x1BB7 JUMP JUMPDEST SWAP1 POP PUSH0 DUP2 PUSH1 0x40 ADD MLOAD PUSH2 0x27B5 JUMPI DUP2 PUSH0 ADD MLOAD SWAP1 POP JUMPDEST PUSH0 JUMPDEST PUSH32 0xFFFFFFFFFFFFFFFFFFFFFFFFFFFFFFFFFFFFFFFFFFFFFFFFFFFFFFFFFFFFFFFF PUSH2 0x27E0 PUSH2 0x2310 JUMP JUMPDEST EQ PUSH2 0x280E JUMPI DUP7 DUP11 SUB PUSH2 0x27FA JUMPI PUSH1 0x1 PUSH2 0x27F6 PUSH2 0x2310 JUMP JUMPDEST ADD SWAP10 POP JUMPDEST PUSH2 0x2802 PUSH2 0x2310 JUMP JUMPDEST DUP11 GT ISZERO PUSH2 0x280D JUMPI PUSH0 SWAP2 POP JUMPDEST JUMPDEST PUSH2 0x2817 DUP11 PUSH2 0x29AC JUMP JUMPDEST SWAP3 POP PUSH1 0x40 DUP4 ADD MLOAD PUSH0 DUP2 EQ PUSH2 0x282D JUMPI PUSH0 SWAP3 POP PUSH2 0x2853 JUMP JUMPDEST DUP4 MLOAD ISZERO PUSH2 0x2839 JUMPI DUP4 MLOAD SWAP3 POP JUMPDEST DUP12 DUP4 XOR PUSH1 0x60 SHL PUSH2 0x2852 JUMPI PUSH1 0x1 DUP3 ADD SWAP2 POP DUP11 DUP3 PUSH1 0x5 SHL DUP11 ADD MSTORE JUMPDEST JUMPDEST POP PUSH1 0x1 DUP11 ADD SWAP10 POP DUP4 PUSH1 0x40 MSTORE DUP9 DUP11 EQ DUP1 PUSH2 0x286B JUMPI POP DUP5 DUP2 EQ JUMPDEST ISZERO PUSH2 0x27B7 JUMPI DUP1 DUP9 MSTORE POP POP POP POP JUMPDEST POP POP POP SWAP4 SWAP3 POP POP POP JUMP JUMPDEST PUSH0 DUP4 PUSH20 0xFFFFFFFFFFFFFFFFFFFFFFFFFFFFFFFFFFFFFFFF AND PUSH4 0x150B7A02 PUSH2 0x28A7 PUSH2 0x2469 JUMP JUMPDEST DUP8 DUP7 DUP7 PUSH1 0x40 MLOAD DUP6 PUSH4 0xFFFFFFFF AND PUSH1 0xE0 SHL DUP2 MSTORE PUSH1 0x4 ADD PUSH2 0x28C9 SWAP5 SWAP4 SWAP3 SWAP2 SWAP1 PUSH2 0x3BAB JUMP JUMPDEST PUSH1 0x20 PUSH1 0x40 MLOAD DUP1 DUP4 SUB DUP2 PUSH0 DUP8 GAS CALL SWAP3 POP POP POP DUP1 ISZERO PUSH2 0x2904 JUMPI POP PUSH1 0x40 MLOAD RETURNDATASIZE PUSH1 0x1F NOT PUSH1 0x1F DUP3 ADD AND DUP3 ADD DUP1 PUSH1 0x40 MSTORE POP DUP2 ADD SWAP1 PUSH2 0x2901 SWAP2 SWAP1 PUSH2 0x3C09 JUMP JUMPDEST PUSH1 0x1 JUMPDEST PUSH2 0x2959 JUMPI RETURNDATASIZE DUP1 PUSH0 DUP2 EQ PUSH2 0x2932 JUMPI PUSH1 0x40 MLOAD SWAP2 POP PUSH1 0x1F NOT PUSH1 0x3F RETURNDATASIZE ADD AND DUP3 ADD PUSH1 0x40 MSTORE RETURNDATASIZE DUP3 MSTORE RETURNDATASIZE PUSH0 PUSH1 0x20 DUP5 ADD RETURNDATACOPY PUSH2 0x2937 JUMP JUMPDEST PUSH1 0x60 SWAP2 POP JUMPDEST POP PUSH0 DUP2 MLOAD SUB PUSH2 0x2951 JUMPI PUSH2 0x2950 PUSH4 0xD1A57ED6 PUSH1 0xE0 SHL PUSH2 0x21D6 JUMP JUMPDEST JUMPDEST DUP1 MLOAD DUP2 PUSH1 0x20 ADD REVERT JUMPDEST PUSH4 0x150B7A02 PUSH1 0xE0 SHL PUSH28 0xFFFFFFFFFFFFFFFFFFFFFFFFFFFFFFFFFFFFFFFFFFFFFFFFFFFFFFFF NOT AND DUP2 PUSH28 0xFFFFFFFFFFFFFFFFFFFFFFFFFFFFFFFFFFFFFFFFFFFFFFFFFFFFFFFF NOT AND EQ SWAP2 POP POP SWAP5 SWAP4 POP POP POP POP JUMP JUMPDEST PUSH2 0x29B4 PUSH2 0x2B53 JUMP JUMPDEST PUSH2 0x29CE PUSH1 0x4 PUSH0 DUP5 DUP2 MSTORE PUSH1 0x20 ADD SWAP1 DUP2 MSTORE PUSH1 0x20 ADD PUSH0 KECCAK256 SLOAD PUSH2 0x2A9F JUMP JUMPDEST SWAP1 POP SWAP2 SWAP1 POP JUMP JUMPDEST PUSH0 DUP1 PUSH1 0x4 PUSH0 DUP5 DUP2 MSTORE PUSH1 0x20 ADD SWAP1 DUP2 MSTORE PUSH1 0x20 ADD PUSH0 KECCAK256 SLOAD EQ ISZERO SWAP1 POP SWAP2 SWAP1 POP JUMP JUMPDEST PUSH0 DUP4 ISZERO PUSH2 0x2A3B JUMPI DUP4 PUSH1 0x5 SHL DUP6 ADD DUP6 JUMPDEST PUSH1 0x1 ISZERO PUSH2 0x2A38 JUMPI DUP1 CALLDATALOAD DUP5 GT PUSH1 0x5 SHL DUP5 DUP2 MSTORE DUP2 CALLDATALOAD PUSH1 0x20 DUP3 XOR MSTORE PUSH1 0x40 PUSH0 KECCAK256 SWAP5 POP PUSH1 0x20 DUP3 ADD SWAP2 POP DUP3 DUP3 LT PUSH2 0x2A32 JUMPI POP PUSH2 0x2A38 JUMP JUMPDEST POP PUSH2 0x2A01 JUMP JUMPDEST POP POP JUMPDEST DUP3 DUP3 EQ SWAP1 POP SWAP5 SWAP4 POP POP POP POP JUMP JUMPDEST PUSH0 PUSH29 0x100000000000000000000000000000000000000000000000000000000 DUP3 AND PUSH20 0xFFFFFFFFFFFFFFFFFFFFFFFFFFFFFFFFFFFFFFFF DUP4 AND GT SWAP1 POP SWAP2 SWAP1 POP JUMP JUMPDEST PUSH0 SWAP4 SWAP3 POP POP POP JUMP JUMPDEST PUSH0 PUSH1 0x1 DUP3 EQ PUSH1 0xE1 SHL SWAP1 POP SWAP2 SWAP1 POP JUMP JUMPDEST PUSH2 0x2AA7 PUSH2 0x2B53 JUMP JUMPDEST DUP2 DUP2 PUSH0 ADD SWAP1 PUSH20 0xFFFFFFFFFFFFFFFFFFFFFFFFFFFFFFFFFFFFFFFF AND SWAP1 DUP2 PUSH20 0xFFFFFFFFFFFFFFFFFFFFFFFFFFFFFFFFFFFFFFFF AND DUP2 MSTORE POP POP PUSH1 0xA0 DUP3 SWAP1 SHR DUP2 PUSH1 0x20 ADD SWAP1 PUSH8 0xFFFFFFFFFFFFFFFF AND SWAP1 DUP2 PUSH8 0xFFFFFFFFFFFFFFFF AND DUP2 MSTORE POP POP PUSH0 PUSH29 0x100000000000000000000000000000000000000000000000000000000 DUP4 AND EQ ISZERO DUP2 PUSH1 0x40 ADD SWAP1 ISZERO ISZERO SWAP1 DUP2 ISZERO ISZERO DUP2 MSTORE POP POP PUSH1 0xE8 DUP3 SWAP1 SHR DUP2 PUSH1 0x60 ADD SWAP1 PUSH3 0xFFFFFF AND SWAP1 DUP2 PUSH3 0xFFFFFF AND DUP2 MSTORE POP POP SWAP2 SWAP1 POP JUMP JUMPDEST PUSH1 0x40 MLOAD DUP1 PUSH1 0x80 ADD PUSH1 0x40 MSTORE DUP1 PUSH0 PUSH20 0xFFFFFFFFFFFFFFFFFFFFFFFFFFFFFFFFFFFFFFFF AND DUP2 MSTORE PUSH1 0x20 ADD PUSH0 PUSH8 0xFFFFFFFFFFFFFFFF AND DUP2 MSTORE PUSH1 0x20 ADD PUSH0 ISZERO ISZERO DUP2 MSTORE PUSH1 0x20 ADD PUSH0 PUSH3 0xFFFFFF AND DUP2 MSTORE POP SWAP1 JUMP JUMPDEST PUSH0 PUSH1 0x40 MLOAD SWAP1 POP SWAP1 JUMP JUMPDEST PUSH0 DUP1 REVERT JUMPDEST PUSH0 DUP1 REVERT JUMPDEST PUSH0 PUSH32 0xFFFFFFFF00000000000000000000000000000000000000000000000000000000 DUP3 AND SWAP1 POP SWAP2 SWAP1 POP JUMP JUMPDEST PUSH2 0x2BE3 DUP2 PUSH2 0x2BAF JUMP JUMPDEST DUP2 EQ PUSH2 0x2BED JUMPI PUSH0 DUP1 REVERT JUMPDEST POP JUMP JUMPDEST PUSH0 DUP2 CALLDATALOAD SWAP1 POP PUSH2 0x2BFE DUP2 PUSH2 0x2BDA JUMP JUMPDEST SWAP3 SWAP2 POP POP JUMP JUMPDEST PUSH0 PUSH1 0x20 DUP3 DUP5 SUB SLT ISZERO PUSH2 0x2C19 JUMPI PUSH2 0x2C18 PUSH2 0x2BA7 JUMP JUMPDEST JUMPDEST PUSH0 PUSH2 0x2C26 DUP5 DUP3 DUP6 ADD PUSH2 0x2BF0 JUMP JUMPDEST SWAP2 POP POP SWAP3 SWAP2 POP POP JUMP JUMPDEST PUSH0 DUP2 ISZERO ISZERO SWAP1 POP SWAP2 SWAP1 POP JUMP JUMPDEST PUSH2 0x2C43 DUP2 PUSH2 0x2C2F JUMP JUMPDEST DUP3 MSTORE POP POP JUMP JUMPDEST PUSH0 PUSH1 0x20 DUP3 ADD SWAP1 POP PUSH2 0x2C5C PUSH0 DUP4 ADD DUP5 PUSH2 0x2C3A JUMP JUMPDEST SWAP3 SWAP2 POP POP JUMP JUMPDEST PUSH0 DUP2 MLOAD SWAP1 POP SWAP2 SWAP1 POP JUMP JUMPDEST PUSH0 DUP3 DUP3 MSTORE PUSH1 0x20 DUP3 ADD SWAP1 POP SWAP3 SWAP2 POP POP JUMP JUMPDEST DUP3 DUP2 DUP4 MCOPY PUSH0 DUP4 DUP4 ADD MSTORE POP POP POP JUMP JUMPDEST PUSH0 PUSH1 0x1F NOT PUSH1 0x1F DUP4 ADD AND SWAP1 POP SWAP2 SWAP1 POP JUMP JUMPDEST PUSH0 PUSH2 0x2CA4 DUP3 PUSH2 0x2C62 JUMP JUMPDEST PUSH2 0x2CAE DUP2 DUP6 PUSH2 0x2C6C JUMP JUMPDEST SWAP4 POP PUSH2 0x2CBE DUP2 DUP6 PUSH1 0x20 DUP7 ADD PUSH2 0x2C7C JUMP JUMPDEST PUSH2 0x2CC7 DUP2 PUSH2 0x2C8A JUMP JUMPDEST DUP5 ADD SWAP2 POP POP SWAP3 SWAP2 POP POP JUMP JUMPDEST PUSH0 PUSH1 0x20 DUP3 ADD SWAP1 POP DUP2 DUP2 SUB PUSH0 DUP4 ADD MSTORE PUSH2 0x2CEA DUP2 DUP5 PUSH2 0x2C9A JUMP JUMPDEST SWAP1 POP SWAP3 SWAP2 POP POP JUMP JUMPDEST PUSH0 DUP2 SWAP1 POP SWAP2 SWAP1 POP JUMP JUMPDEST PUSH2 0x2D04 DUP2 PUSH2 0x2CF2 JUMP JUMPDEST DUP2 EQ PUSH2 0x2D0E JUMPI PUSH0 DUP1 REVERT JUMPDEST POP JUMP JUMPDEST PUSH0 DUP2 CALLDATALOAD SWAP1 POP PUSH2 0x2D1F DUP2 PUSH2 0x2CFB JUMP JUMPDEST SWAP3 SWAP2 POP POP JUMP JUMPDEST PUSH0 PUSH1 0x20 DUP3 DUP5 SUB SLT ISZERO PUSH2 0x2D3A JUMPI PUSH2 0x2D39 PUSH2 0x2BA7 JUMP JUMPDEST JUMPDEST PUSH0 PUSH2 0x2D47 DUP5 DUP3 DUP6 ADD PUSH2 0x2D11 JUMP JUMPDEST SWAP2 POP POP SWAP3 SWAP2 POP POP JUMP JUMPDEST PUSH0 PUSH20 0xFFFFFFFFFFFFFFFFFFFFFFFFFFFFFFFFFFFFFFFF DUP3 AND SWAP1 POP SWAP2 SWAP1 POP JUMP JUMPDEST PUSH0 PUSH2 0x2D79 DUP3 PUSH2 0x2D50 JUMP JUMPDEST SWAP1 POP SWAP2 SWAP1 POP JUMP JUMPDEST PUSH2 0x2D89 DUP2 PUSH2 0x2D6F JUMP JUMPDEST DUP3 MSTORE POP POP JUMP JUMPDEST PUSH0 PUSH1 0x20 DUP3 ADD SWAP1 POP PUSH2 0x2DA2 PUSH0 DUP4 ADD DUP5 PUSH2 0x2D80 JUMP JUMPDEST SWAP3 SWAP2 POP POP JUMP JUMPDEST PUSH2 0x2DB1 DUP2 PUSH2 0x2D6F JUMP JUMPDEST DUP2 EQ PUSH2 0x2DBB JUMPI PUSH0 DUP1 REVERT JUMPDEST POP JUMP JUMPDEST PUSH0 DUP2 CALLDATALOAD SWAP1 POP PUSH2 0x2DCC DUP2 PUSH2 0x2DA8 JUMP JUMPDEST SWAP3 SWAP2 POP POP JUMP JUMPDEST PUSH0 DUP1 PUSH1 0x40 DUP4 DUP6 SUB SLT ISZERO PUSH2 0x2DE8 JUMPI PUSH2 0x2DE7 PUSH2 0x2BA7 JUMP JUMPDEST JUMPDEST PUSH0 PUSH2 0x2DF5 DUP6 DUP3 DUP7 ADD PUSH2 0x2DBE JUMP JUMPDEST SWAP3 POP POP PUSH1 0x20 PUSH2 0x2E06 DUP6 DUP3 DUP7 ADD PUSH2 0x2D11 JUMP JUMPDEST SWAP2 POP POP SWAP3 POP SWAP3 SWAP1 POP JUMP JUMPDEST PUSH2 0x2E19 DUP2 PUSH2 0x2CF2 JUMP JUMPDEST DUP3 MSTORE POP POP JUMP JUMPDEST PUSH0 PUSH1 0x20 DUP3 ADD SWAP1 POP PUSH2 0x2E32 PUSH0 DUP4 ADD DUP5 PUSH2 0x2E10 JUMP JUMPDEST SWAP3 SWAP2 POP POP JUMP JUMPDEST PUSH0 DUP1 PUSH0 PUSH1 0x60 DUP5 DUP7 SUB SLT ISZERO PUSH2 0x2E4F JUMPI PUSH2 0x2E4E PUSH2 0x2BA7 JUMP JUMPDEST JUMPDEST PUSH0 PUSH2 0x2E5C DUP7 DUP3 DUP8 ADD PUSH2 0x2DBE JUMP JUMPDEST SWAP4 POP POP PUSH1 0x20 PUSH2 0x2E6D DUP7 DUP3 DUP8 ADD PUSH2 0x2DBE JUMP JUMPDEST SWAP3 POP POP PUSH1 0x40 PUSH2 0x2E7E DUP7 DUP3 DUP8 ADD PUSH2 0x2D11 JUMP JUMPDEST SWAP2 POP POP SWAP3 POP SWAP3 POP SWAP3 JUMP JUMPDEST PUSH0 DUP2 SWAP1 POP SWAP2 SWAP1 POP JUMP JUMPDEST PUSH2 0x2E9A DUP2 PUSH2 0x2E88 JUMP JUMPDEST DUP3 MSTORE POP POP JUMP JUMPDEST PUSH0 PUSH1 0x20 DUP3 ADD SWAP1 POP PUSH2 0x2EB3 PUSH0 DUP4 ADD DUP5 PUSH2 0x2E91 JUMP JUMPDEST SWAP3 SWAP2 POP POP JUMP JUMPDEST PUSH0 PUSH1 0x20 DUP3 DUP5 SUB SLT ISZERO PUSH2 0x2ECE JUMPI PUSH2 0x2ECD PUSH2 0x2BA7 JUMP JUMPDEST JUMPDEST PUSH0 PUSH2 0x2EDB DUP5 DUP3 DUP6 ADD PUSH2 0x2DBE JUMP JUMPDEST SWAP2 POP POP SWAP3 SWAP2 POP POP JUMP JUMPDEST PUSH2 0x2EED DUP2 PUSH2 0x2E88 JUMP JUMPDEST DUP2 EQ PUSH2 0x2EF7 JUMPI PUSH0 DUP1 REVERT JUMPDEST POP JUMP JUMPDEST PUSH0 DUP2 CALLDATALOAD SWAP1 POP PUSH2 0x2F08 DUP2 PUSH2 0x2EE4 JUMP JUMPDEST SWAP3 SWAP2 POP POP JUMP JUMPDEST PUSH0 PUSH1 0x20 DUP3 DUP5 SUB SLT ISZERO PUSH2 0x2F23 JUMPI PUSH2 0x2F22 PUSH2 0x2BA7 JUMP JUMPDEST JUMPDEST PUSH0 PUSH2 0x2F30 DUP5 DUP3 DUP6 ADD PUSH2 0x2EFA JUMP JUMPDEST SWAP2 POP POP SWAP3 SWAP2 POP POP JUMP JUMPDEST PUSH0 DUP1 REVERT JUMPDEST PUSH0 DUP1 REVERT JUMPDEST PUSH0 DUP1 REVERT JUMPDEST PUSH0 DUP1 DUP4 PUSH1 0x1F DUP5 ADD SLT PUSH2 0x2F5A JUMPI PUSH2 0x2F59 PUSH2 0x2F39 JUMP JUMPDEST JUMPDEST DUP3 CALLDATALOAD SWAP1 POP PUSH8 0xFFFFFFFFFFFFFFFF DUP2 GT ISZERO PUSH2 0x2F77 JUMPI PUSH2 0x2F76 PUSH2 0x2F3D JUMP JUMPDEST JUMPDEST PUSH1 0x20 DUP4 ADD SWAP2 POP DUP4 PUSH1 0x20 DUP3 MUL DUP4 ADD GT ISZERO PUSH2 0x2F93 JUMPI PUSH2 0x2F92 PUSH2 0x2F41 JUMP JUMPDEST JUMPDEST SWAP3 POP SWAP3 SWAP1 POP JUMP JUMPDEST PUSH0 DUP1 PUSH1 0x20 DUP4 DUP6 SUB SLT ISZERO PUSH2 0x2FB0 JUMPI PUSH2 0x2FAF PUSH2 0x2BA7 JUMP JUMPDEST JUMPDEST PUSH0 DUP4 ADD CALLDATALOAD PUSH8 0xFFFFFFFFFFFFFFFF DUP2 GT ISZERO PUSH2 0x2FCD JUMPI PUSH2 0x2FCC PUSH2 0x2BAB JUMP JUMPDEST JUMPDEST PUSH2 0x2FD9 DUP6 DUP3 DUP7 ADD PUSH2 0x2F45 JUMP JUMPDEST SWAP3 POP SWAP3 POP POP SWAP3 POP SWAP3 SWAP1 POP JUMP JUMPDEST PUSH0 DUP2 MLOAD SWAP1 POP SWAP2 SWAP1 POP JUMP JUMPDEST PUSH0 DUP3 DUP3 MSTORE PUSH1 0x20 DUP3 ADD SWAP1 POP SWAP3 SWAP2 POP POP JUMP JUMPDEST PUSH0 DUP2 SWAP1 POP PUSH1 0x20 DUP3 ADD SWAP1 POP SWAP2 SWAP1 POP JUMP JUMPDEST PUSH2 0x3017 DUP2 PUSH2 0x2D6F JUMP JUMPDEST DUP3 MSTORE POP POP JUMP JUMPDEST PUSH0 PUSH8 0xFFFFFFFFFFFFFFFF DUP3 AND SWAP1 POP SWAP2 SWAP1 POP JUMP JUMPDEST PUSH2 0x3039 DUP2 PUSH2 0x301D JUMP JUMPDEST DUP3 MSTORE POP POP JUMP JUMPDEST PUSH2 0x3048 DUP2 PUSH2 0x2C2F JUMP JUMPDEST DUP3 MSTORE POP POP JUMP JUMPDEST PUSH0 PUSH3 0xFFFFFF DUP3 AND SWAP1 POP SWAP2 SWAP1 POP JUMP JUMPDEST PUSH2 0x3065 DUP2 PUSH2 0x304E JUMP JUMPDEST DUP3 MSTORE POP POP JUMP JUMPDEST PUSH1 0x80 DUP3 ADD PUSH0 DUP3 ADD MLOAD PUSH2 0x307F PUSH0 DUP6 ADD DUP3 PUSH2 0x300E JUMP JUMPDEST POP PUSH1 0x20 DUP3 ADD MLOAD PUSH2 0x3092 PUSH1 0x20 DUP6 ADD DUP3 PUSH2 0x3030 JUMP JUMPDEST POP PUSH1 0x40 DUP3 ADD MLOAD PUSH2 0x30A5 PUSH1 0x40 DUP6 ADD DUP3 PUSH2 0x303F JUMP JUMPDEST POP PUSH1 0x60 DUP3 ADD MLOAD PUSH2 0x30B8 PUSH1 0x60 DUP6 ADD DUP3 PUSH2 0x305C JUMP JUMPDEST POP POP POP POP JUMP JUMPDEST PUSH0 PUSH2 0x30C9 DUP4 DUP4 PUSH2 0x306B JUMP JUMPDEST PUSH1 0x80 DUP4 ADD SWAP1 POP SWAP3 SWAP2 POP POP JUMP JUMPDEST PUSH0 PUSH1 0x20 DUP3 ADD SWAP1 POP SWAP2 SWAP1 POP JUMP JUMPDEST PUSH0 PUSH2 0x30EB DUP3 PUSH2 0x2FE5 JUMP JUMPDEST PUSH2 0x30F5 DUP2 DUP6 PUSH2 0x2FEF JUMP JUMPDEST SWAP4 POP PUSH2 0x3100 DUP4 PUSH2 0x2FFF JUMP JUMPDEST DUP1 PUSH0 JUMPDEST DUP4 DUP2 LT ISZERO PUSH2 0x3130 JUMPI DUP2 MLOAD PUSH2 0x3117 DUP9 DUP3 PUSH2 0x30BE JUMP JUMPDEST SWAP8 POP PUSH2 0x3122 DUP4 PUSH2 0x30D5 JUMP JUMPDEST SWAP3 POP POP PUSH1 0x1 DUP2 ADD SWAP1 POP PUSH2 0x3103 JUMP JUMPDEST POP DUP6 SWAP4 POP POP POP POP SWAP3 SWAP2 POP POP JUMP JUMPDEST PUSH0 PUSH1 0x20 DUP3 ADD SWAP1 POP DUP2 DUP2 SUB PUSH0 DUP4 ADD MSTORE PUSH2 0x3155 DUP2 DUP5 PUSH2 0x30E1 JUMP JUMPDEST SWAP1 POP SWAP3 SWAP2 POP POP JUMP JUMPDEST PUSH0 DUP1 PUSH1 0x40 DUP4 DUP6 SUB SLT ISZERO PUSH2 0x3173 JUMPI PUSH2 0x3172 PUSH2 0x2BA7 JUMP JUMPDEST JUMPDEST PUSH0 PUSH2 0x3180 DUP6 DUP3 DUP7 ADD PUSH2 0x2DBE JUMP JUMPDEST SWAP3 POP POP PUSH1 0x20 PUSH2 0x3191 DUP6 DUP3 DUP7 ADD PUSH2 0x2DBE JUMP JUMPDEST SWAP2 POP POP SWAP3 POP SWAP3 SWAP1 POP JUMP JUMPDEST PUSH0 DUP2 MLOAD SWAP1 POP SWAP2 SWAP1 POP JUMP JUMPDEST PUSH0 DUP3 DUP3 MSTORE PUSH1 0x20 DUP3 ADD SWAP1 POP SWAP3 SWAP2 POP POP JUMP JUMPDEST PUSH0 DUP2 SWAP1 POP PUSH1 0x20 DUP3 ADD SWAP1 POP SWAP2 SWAP1 POP JUMP JUMPDEST PUSH2 0x31CD DUP2 PUSH2 0x2CF2 JUMP JUMPDEST DUP3 MSTORE POP POP JUMP JUMPDEST PUSH0 PUSH2 0x31DE DUP4 DUP4 PUSH2 0x31C4 JUMP JUMPDEST PUSH1 0x20 DUP4 ADD SWAP1 POP SWAP3 SWAP2 POP POP JUMP JUMPDEST PUSH0 PUSH1 0x20 DUP3 ADD SWAP1 POP SWAP2 SWAP1 POP JUMP JUMPDEST PUSH0 PUSH2 0x3200 DUP3 PUSH2 0x319B JUMP JUMPDEST PUSH2 0x320A DUP2 DUP6 PUSH2 0x31A5 JUMP JUMPDEST SWAP4 POP PUSH2 0x3215 DUP4 PUSH2 0x31B5 JUMP JUMPDEST DUP1 PUSH0 JUMPDEST DUP4 DUP2 LT ISZERO PUSH2 0x3245 JUMPI DUP2 MLOAD PUSH2 0x322C DUP9 DUP3 PUSH2 0x31D3 JUMP JUMPDEST SWAP8 POP PUSH2 0x3237 DUP4 PUSH2 0x31EA JUMP JUMPDEST SWAP3 POP POP PUSH1 0x1 DUP2 ADD SWAP1 POP PUSH2 0x3218 JUMP JUMPDEST POP DUP6 SWAP4 POP POP POP POP SWAP3 SWAP2 POP POP JUMP JUMPDEST PUSH0 PUSH1 0x20 DUP3 ADD SWAP1 POP DUP2 DUP2 SUB PUSH0 DUP4 ADD MSTORE PUSH2 0x326A DUP2 DUP5 PUSH2 0x31F6 JUMP JUMPDEST SWAP1 POP SWAP3 SWAP2 POP POP JUMP JUMPDEST PUSH0 DUP1 PUSH0 PUSH1 0x60 DUP5 DUP7 SUB SLT ISZERO PUSH2 0x3289 JUMPI PUSH2 0x3288 PUSH2 0x2BA7 JUMP JUMPDEST JUMPDEST PUSH0 PUSH2 0x3296 DUP7 DUP3 DUP8 ADD PUSH2 0x2DBE JUMP JUMPDEST SWAP4 POP POP PUSH1 0x20 PUSH2 0x32A7 DUP7 DUP3 DUP8 ADD PUSH2 0x2D11 JUMP JUMPDEST SWAP3 POP POP PUSH1 0x40 PUSH2 0x32B8 DUP7 DUP3 DUP8 ADD PUSH2 0x2D11 JUMP JUMPDEST SWAP2 POP POP SWAP3 POP SWAP3 POP SWAP3 JUMP JUMPDEST PUSH2 0x32CB DUP2 PUSH2 0x2C2F JUMP JUMPDEST DUP2 EQ PUSH2 0x32D5 JUMPI PUSH0 DUP1 REVERT JUMPDEST POP JUMP JUMPDEST PUSH0 DUP2 CALLDATALOAD SWAP1 POP PUSH2 0x32E6 DUP2 PUSH2 0x32C2 JUMP JUMPDEST SWAP3 SWAP2 POP POP JUMP JUMPDEST PUSH0 DUP1 PUSH1 0x40 DUP4 DUP6 SUB SLT ISZERO PUSH2 0x3302 JUMPI PUSH2 0x3301 PUSH2 0x2BA7 JUMP JUMPDEST JUMPDEST PUSH0 PUSH2 0x330F DUP6 DUP3 DUP7 ADD PUSH2 0x2DBE JUMP JUMPDEST SWAP3 POP POP PUSH1 0x20 PUSH2 0x3320 DUP6 DUP3 DUP7 ADD PUSH2 0x32D8 JUMP JUMPDEST SWAP2 POP POP SWAP3 POP SWAP3 SWAP1 POP JUMP JUMPDEST PUSH0 DUP1 REVERT JUMPDEST PUSH32 0x4E487B7100000000000000000000000000000000000000000000000000000000 PUSH0 MSTORE PUSH1 0x41 PUSH1 0x4 MSTORE PUSH1 0x24 PUSH0 REVERT JUMPDEST PUSH2 0x3364 DUP3 PUSH2 0x2C8A JUMP JUMPDEST DUP2 ADD DUP2 DUP2 LT PUSH8 0xFFFFFFFFFFFFFFFF DUP3 GT OR ISZERO PUSH2 0x3383 JUMPI PUSH2 0x3382 PUSH2 0x332E JUMP JUMPDEST JUMPDEST DUP1 PUSH1 0x40 MSTORE POP POP POP JUMP JUMPDEST PUSH0 PUSH2 0x3395 PUSH2 0x2B9E JUMP JUMPDEST SWAP1 POP PUSH2 0x33A1 DUP3 DUP3 PUSH2 0x335B JUMP JUMPDEST SWAP2 SWAP1 POP JUMP JUMPDEST PUSH0 PUSH8 0xFFFFFFFFFFFFFFFF DUP3 GT ISZERO PUSH2 0x33C0 JUMPI PUSH2 0x33BF PUSH2 0x332E JUMP JUMPDEST JUMPDEST PUSH2 0x33C9 DUP3 PUSH2 0x2C8A JUMP JUMPDEST SWAP1 POP PUSH1 0x20 DUP2 ADD SWAP1 POP SWAP2 SWAP1 POP JUMP JUMPDEST DUP3 DUP2 DUP4 CALLDATACOPY PUSH0 DUP4 DUP4 ADD MSTORE POP POP POP JUMP JUMPDEST PUSH0 PUSH2 0x33F6 PUSH2 0x33F1 DUP5 PUSH2 0x33A6 JUMP JUMPDEST PUSH2 0x338C JUMP JUMPDEST SWAP1 POP DUP3 DUP2 MSTORE PUSH1 0x20 DUP2 ADD DUP5 DUP5 DUP5 ADD GT ISZERO PUSH2 0x3412 JUMPI PUSH2 0x3411 PUSH2 0x332A JUMP JUMPDEST JUMPDEST PUSH2 0x341D DUP5 DUP3 DUP6 PUSH2 0x33D6 JUMP JUMPDEST POP SWAP4 SWAP3 POP POP POP JUMP JUMPDEST PUSH0 DUP3 PUSH1 0x1F DUP4 ADD SLT PUSH2 0x3439 JUMPI PUSH2 0x3438 PUSH2 0x2F39 JUMP JUMPDEST JUMPDEST DUP2 CALLDATALOAD PUSH2 0x3449 DUP5 DUP3 PUSH1 0x20 DUP7 ADD PUSH2 0x33E4 JUMP JUMPDEST SWAP2 POP POP SWAP3 SWAP2 POP POP JUMP JUMPDEST PUSH0 DUP1 PUSH0 DUP1 PUSH1 0x80 DUP6 DUP8 SUB SLT ISZERO PUSH2 0x346A JUMPI PUSH2 0x3469 PUSH2 0x2BA7 JUMP JUMPDEST JUMPDEST PUSH0 PUSH2 0x3477 DUP8 DUP3 DUP9 ADD PUSH2 0x2DBE JUMP JUMPDEST SWAP5 POP POP PUSH1 0x20 PUSH2 0x3488 DUP8 DUP3 DUP9 ADD PUSH2 0x2DBE JUMP JUMPDEST SWAP4 POP POP PUSH1 0x40 PUSH2 0x3499 DUP8 DUP3 DUP9 ADD PUSH2 0x2D11 JUMP JUMPDEST SWAP3 POP POP PUSH1 0x60 DUP6 ADD CALLDATALOAD PUSH8 0xFFFFFFFFFFFFFFFF DUP2 GT ISZERO PUSH2 0x34BA JUMPI PUSH2 0x34B9 PUSH2 0x2BAB JUMP JUMPDEST JUMPDEST PUSH2 0x34C6 DUP8 DUP3 DUP9 ADD PUSH2 0x3425 JUMP JUMPDEST SWAP2 POP POP SWAP3 SWAP6 SWAP2 SWAP5 POP SWAP3 POP JUMP JUMPDEST PUSH1 0x80 DUP3 ADD PUSH0 DUP3 ADD MLOAD PUSH2 0x34E6 PUSH0 DUP6 ADD DUP3 PUSH2 0x300E JUMP JUMPDEST POP PUSH1 0x20 DUP3 ADD MLOAD PUSH2 0x34F9 PUSH1 0x20 DUP6 ADD DUP3 PUSH2 0x3030 JUMP JUMPDEST POP PUSH1 0x40 DUP3 ADD MLOAD PUSH2 0x350C PUSH1 0x40 DUP6 ADD DUP3 PUSH2 0x303F JUMP JUMPDEST POP PUSH1 0x60 DUP3 ADD MLOAD PUSH2 0x351F PUSH1 0x60 DUP6 ADD DUP3 PUSH2 0x305C JUMP JUMPDEST POP POP POP POP JUMP JUMPDEST PUSH0 PUSH1 0x80 DUP3 ADD SWAP1 POP PUSH2 0x3538 PUSH0 DUP4 ADD DUP5 PUSH2 0x34D2 JUMP JUMPDEST SWAP3 SWAP2 POP POP JUMP JUMPDEST PUSH0 DUP1 DUP4 PUSH1 0x1F DUP5 ADD SLT PUSH2 0x3553 JUMPI PUSH2 0x3552 PUSH2 0x2F39 JUMP JUMPDEST JUMPDEST DUP3 CALLDATALOAD SWAP1 POP PUSH8 0xFFFFFFFFFFFFFFFF DUP2 GT ISZERO PUSH2 0x3570 JUMPI PUSH2 0x356F PUSH2 0x2F3D JUMP JUMPDEST JUMPDEST PUSH1 0x20 DUP4 ADD SWAP2 POP DUP4 PUSH1 0x20 DUP3 MUL DUP4 ADD GT ISZERO PUSH2 0x358C JUMPI PUSH2 0x358B PUSH2 0x2F41 JUMP JUMPDEST JUMPDEST SWAP3 POP SWAP3 SWAP1 POP JUMP JUMPDEST PUSH0 DUP1 PUSH0 PUSH1 0x40 DUP5 DUP7 SUB SLT ISZERO PUSH2 0x35AA JUMPI PUSH2 0x35A9 PUSH2 0x2BA7 JUMP JUMPDEST JUMPDEST PUSH0 PUSH2 0x35B7 DUP7 DUP3 DUP8 ADD PUSH2 0x2D11 JUMP JUMPDEST SWAP4 POP POP PUSH1 0x20 DUP5 ADD CALLDATALOAD PUSH8 0xFFFFFFFFFFFFFFFF DUP2 GT ISZERO PUSH2 0x35D8 JUMPI PUSH2 0x35D7 PUSH2 0x2BAB JUMP JUMPDEST JUMPDEST PUSH2 0x35E4 DUP7 DUP3 DUP8 ADD PUSH2 0x353E JUMP JUMPDEST SWAP3 POP SWAP3 POP POP SWAP3 POP SWAP3 POP SWAP3 JUMP JUMPDEST PUSH32 0x4E487B7100000000000000000000000000000000000000000000000000000000 PUSH0 MSTORE PUSH1 0x22 PUSH1 0x4 MSTORE PUSH1 0x24 PUSH0 REVERT JUMPDEST PUSH0 PUSH1 0x2 DUP3 DIV SWAP1 POP PUSH1 0x1 DUP3 AND DUP1 PUSH2 0x3634 JUMPI PUSH1 0x7F DUP3 AND SWAP2 POP JUMPDEST PUSH1 0x20 DUP3 LT DUP2 SUB PUSH2 0x3647 JUMPI PUSH2 0x3646 PUSH2 0x35F0 JUMP JUMPDEST JUMPDEST POP SWAP2 SWAP1 POP JUMP JUMPDEST PUSH32 0x5245454E5452414E435900000000000000000000000000000000000000000000 PUSH0 DUP3 ADD MSTORE POP JUMP JUMPDEST PUSH0 PUSH2 0x3681 PUSH1 0xA DUP4 PUSH2 0x2C6C JUMP JUMPDEST SWAP2 POP PUSH2 0x368C DUP3 PUSH2 0x364D JUMP JUMPDEST PUSH1 0x20 DUP3 ADD SWAP1 POP SWAP2 SWAP1 POP JUMP JUMPDEST PUSH0 PUSH1 0x20 DUP3 ADD SWAP1 POP DUP2 DUP2 SUB PUSH0 DUP4 ADD MSTORE PUSH2 0x36AE DUP2 PUSH2 0x3675 JUMP JUMPDEST SWAP1 POP SWAP2 SWAP1 POP JUMP JUMPDEST PUSH32 0x4E487B7100000000000000000000000000000000000000000000000000000000 PUSH0 MSTORE PUSH1 0x11 PUSH1 0x4 MSTORE PUSH1 0x24 PUSH0 REVERT JUMPDEST PUSH0 PUSH2 0x36EC DUP3 PUSH2 0x2CF2 JUMP JUMPDEST SWAP2 POP PUSH2 0x36F7 DUP4 PUSH2 0x2CF2 JUMP JUMPDEST SWAP3 POP DUP3 DUP3 ADD SWAP1 POP DUP1 DUP3 GT ISZERO PUSH2 0x370F JUMPI PUSH2 0x370E PUSH2 0x36B5 JUMP JUMPDEST JUMPDEST SWAP3 SWAP2 POP POP JUMP JUMPDEST PUSH0 PUSH2 0x371F DUP3 PUSH2 0x2CF2 JUMP JUMPDEST SWAP2 POP PUSH2 0x372A DUP4 PUSH2 0x2CF2 JUMP JUMPDEST SWAP3 POP DUP3 DUP3 MUL PUSH2 0x3738 DUP2 PUSH2 0x2CF2 JUMP JUMPDEST SWAP2 POP DUP3 DUP3 DIV DUP5 EQ DUP4 ISZERO OR PUSH2 0x374F JUMPI PUSH2 0x374E PUSH2 0x36B5 JUMP JUMPDEST JUMPDEST POP SWAP3 SWAP2 POP POP JUMP JUMPDEST PUSH0 DUP2 MLOAD SWAP1 POP PUSH2 0x3764 DUP2 PUSH2 0x2CFB JUMP JUMPDEST SWAP3 SWAP2 POP POP JUMP JUMPDEST PUSH0 PUSH1 0x20 DUP3 DUP5 SUB SLT ISZERO PUSH2 0x377F JUMPI PUSH2 0x377E PUSH2 0x2BA7 JUMP JUMPDEST JUMPDEST PUSH0 PUSH2 0x378C DUP5 DUP3 DUP6 ADD PUSH2 0x3756 JUMP JUMPDEST SWAP2 POP POP SWAP3 SWAP2 POP POP JUMP JUMPDEST PUSH0 PUSH1 0x60 DUP3 ADD SWAP1 POP PUSH2 0x37A8 PUSH0 DUP4 ADD DUP7 PUSH2 0x2D80 JUMP JUMPDEST PUSH2 0x37B5 PUSH1 0x20 DUP4 ADD DUP6 PUSH2 0x2D80 JUMP JUMPDEST PUSH2 0x37C2 PUSH1 0x40 DUP4 ADD DUP5 PUSH2 0x2E10 JUMP JUMPDEST SWAP5 SWAP4 POP POP POP POP JUMP JUMPDEST PUSH0 DUP2 MLOAD SWAP1 POP PUSH2 0x37D8 DUP2 PUSH2 0x32C2 JUMP JUMPDEST SWAP3 SWAP2 POP POP JUMP JUMPDEST PUSH0 PUSH1 0x20 DUP3 DUP5 SUB SLT ISZERO PUSH2 0x37F3 JUMPI PUSH2 0x37F2 PUSH2 0x2BA7 JUMP JUMPDEST JUMPDEST PUSH0 PUSH2 0x3800 DUP5 DUP3 DUP6 ADD PUSH2 0x37CA JUMP JUMPDEST SWAP2 POP POP SWAP3 SWAP2 POP POP JUMP JUMPDEST PUSH0 PUSH2 0x3813 DUP3 PUSH2 0x2CF2 JUMP JUMPDEST SWAP2 POP PUSH2 0x381E DUP4 PUSH2 0x2CF2 JUMP JUMPDEST SWAP3 POP DUP3 DUP3 SUB SWAP1 POP DUP2 DUP2 GT ISZERO PUSH2 0x3836 JUMPI PUSH2 0x3835 PUSH2 0x36B5 JUMP JUMPDEST JUMPDEST SWAP3 SWAP2 POP POP JUMP JUMPDEST PUSH0 DUP2 SWAP1 POP SWAP2 SWAP1 POP JUMP JUMPDEST PUSH2 0x3856 PUSH2 0x3851 DUP3 PUSH2 0x2E88 JUMP JUMPDEST PUSH2 0x383C JUMP JUMPDEST DUP3 MSTORE POP POP JUMP JUMPDEST PUSH0 DUP2 SWAP1 POP SWAP2 SWAP1 POP JUMP JUMPDEST PUSH2 0x3876 PUSH2 0x3871 DUP3 PUSH2 0x2CF2 JUMP JUMPDEST PUSH2 0x385C JUMP JUMPDEST DUP3 MSTORE POP POP JUMP JUMPDEST PUSH0 PUSH2 0x3887 DUP3 DUP6 PUSH2 0x3845 JUMP JUMPDEST PUSH1 0x20 DUP3 ADD SWAP2 POP PUSH2 0x3897 DUP3 DUP5 PUSH2 0x3865 JUMP JUMPDEST PUSH1 0x20 DUP3 ADD SWAP2 POP DUP2 SWAP1 POP SWAP4 SWAP3 POP POP POP JUMP JUMPDEST PUSH0 PUSH2 0x38B1 DUP3 PUSH2 0x2CF2 JUMP JUMPDEST SWAP2 POP PUSH32 0xFFFFFFFFFFFFFFFFFFFFFFFFFFFFFFFFFFFFFFFFFFFFFFFFFFFFFFFFFFFFFFFF DUP3 SUB PUSH2 0x38E3 JUMPI PUSH2 0x38E2 PUSH2 0x36B5 JUMP JUMPDEST JUMPDEST PUSH1 0x1 DUP3 ADD SWAP1 POP SWAP2 SWAP1 POP JUMP JUMPDEST PUSH32 0x554E415554484F52495A45440000000000000000000000000000000000000000 PUSH0 DUP3 ADD MSTORE POP JUMP JUMPDEST PUSH0 PUSH2 0x3922 PUSH1 0xC DUP4 PUSH2 0x2C6C JUMP JUMPDEST SWAP2 POP PUSH2 0x392D DUP3 PUSH2 0x38EE JUMP JUMPDEST PUSH1 0x20 DUP3 ADD SWAP1 POP SWAP2 SWAP1 POP JUMP JUMPDEST PUSH0 PUSH1 0x20 DUP3 ADD SWAP1 POP DUP2 DUP2 SUB PUSH0 DUP4 ADD MSTORE PUSH2 0x394F DUP2 PUSH2 0x3916 JUMP JUMPDEST SWAP1 POP SWAP2 SWAP1 POP JUMP JUMPDEST PUSH0 DUP2 SWAP1 POP SWAP3 SWAP2 POP POP JUMP JUMPDEST POP JUMP JUMPDEST PUSH0 PUSH2 0x396E PUSH0 DUP4 PUSH2 0x3956 JUMP JUMPDEST SWAP2 POP PUSH2 0x3979 DUP3 PUSH2 0x3960 JUMP JUMPDEST PUSH0 DUP3 ADD SWAP1 POP SWAP2 SWAP1 POP JUMP JUMPDEST PUSH0 PUSH2 0x398D DUP3 PUSH2 0x3963 JUMP JUMPDEST SWAP2 POP DUP2 SWAP1 POP SWAP2 SWAP1 POP JUMP JUMPDEST PUSH32 0x5472616E73666572206661696C65642E00000000000000000000000000000000 PUSH0 DUP3 ADD MSTORE POP JUMP JUMPDEST PUSH0 PUSH2 0x39CB PUSH1 0x10 DUP4 PUSH2 0x2C6C JUMP JUMPDEST SWAP2 POP PUSH2 0x39D6 DUP3 PUSH2 0x3997 JUMP JUMPDEST PUSH1 0x20 DUP3 ADD SWAP1 POP SWAP2 SWAP1 POP JUMP JUMPDEST PUSH0 PUSH1 0x20 DUP3 ADD SWAP1 POP DUP2 DUP2 SUB PUSH0 DUP4 ADD MSTORE PUSH2 0x39F8 DUP2 PUSH2 0x39BF JUMP JUMPDEST SWAP1 POP SWAP2 SWAP1 POP JUMP JUMPDEST PUSH0 PUSH1 0x40 DUP3 ADD SWAP1 POP PUSH2 0x3A12 PUSH0 DUP4 ADD DUP6 PUSH2 0x2D80 JUMP JUMPDEST PUSH2 0x3A1F PUSH1 0x20 DUP4 ADD DUP5 PUSH2 0x2E10 JUMP JUMPDEST SWAP4 SWAP3 POP POP POP JUMP JUMPDEST PUSH0 PUSH1 0x40 DUP3 ADD SWAP1 POP PUSH2 0x3A39 PUSH0 DUP4 ADD DUP6 PUSH2 0x2E10 JUMP JUMPDEST PUSH2 0x3A46 PUSH1 0x20 DUP4 ADD DUP5 PUSH2 0x2E91 JUMP JUMPDEST SWAP4 SWAP3 POP POP POP JUMP JUMPDEST PUSH0 PUSH8 0xFFFFFFFFFFFFFFFF DUP3 GT ISZERO PUSH2 0x3A67 JUMPI PUSH2 0x3A66 PUSH2 0x332E JUMP JUMPDEST JUMPDEST PUSH2 0x3A70 DUP3 PUSH2 0x2C8A JUMP JUMPDEST SWAP1 POP PUSH1 0x20 DUP2 ADD SWAP1 POP SWAP2 SWAP1 POP JUMP JUMPDEST PUSH0 PUSH2 0x3A8F PUSH2 0x3A8A DUP5 PUSH2 0x3A4D JUMP JUMPDEST PUSH2 0x338C JUMP JUMPDEST SWAP1 POP DUP3 DUP2 MSTORE PUSH1 0x20 DUP2 ADD DUP5 DUP5 DUP5 ADD GT ISZERO PUSH2 0x3AAB JUMPI PUSH2 0x3AAA PUSH2 0x332A JUMP JUMPDEST JUMPDEST PUSH2 0x3AB6 DUP5 DUP3 DUP6 PUSH2 0x2C7C JUMP JUMPDEST POP SWAP4 SWAP3 POP POP POP JUMP JUMPDEST PUSH0 DUP3 PUSH1 0x1F DUP4 ADD SLT PUSH2 0x3AD2 JUMPI PUSH2 0x3AD1 PUSH2 0x2F39 JUMP JUMPDEST JUMPDEST DUP2 MLOAD PUSH2 0x3AE2 DUP5 DUP3 PUSH1 0x20 DUP7 ADD PUSH2 0x3A7D JUMP JUMPDEST SWAP2 POP POP SWAP3 SWAP2 POP POP JUMP JUMPDEST PUSH0 PUSH1 0x20 DUP3 DUP5 SUB SLT ISZERO PUSH2 0x3B00 JUMPI PUSH2 0x3AFF PUSH2 0x2BA7 JUMP JUMPDEST JUMPDEST PUSH0 DUP3 ADD MLOAD PUSH8 0xFFFFFFFFFFFFFFFF DUP2 GT ISZERO PUSH2 0x3B1D JUMPI PUSH2 0x3B1C PUSH2 0x2BAB JUMP JUMPDEST JUMPDEST PUSH2 0x3B29 DUP5 DUP3 DUP6 ADD PUSH2 0x3ABE JUMP JUMPDEST SWAP2 POP POP SWAP3 SWAP2 POP POP JUMP JUMPDEST PUSH0 PUSH2 0x3B3C DUP3 PUSH2 0x2CF2 JUMP JUMPDEST SWAP2 POP PUSH0 DUP3 SUB PUSH2 0x3B4E JUMPI PUSH2 0x3B4D PUSH2 0x36B5 JUMP JUMPDEST JUMPDEST PUSH1 0x1 DUP3 SUB SWAP1 POP SWAP2 SWAP1 POP JUMP JUMPDEST PUSH0 DUP2 MLOAD SWAP1 POP SWAP2 SWAP1 POP JUMP JUMPDEST PUSH0 DUP3 DUP3 MSTORE PUSH1 0x20 DUP3 ADD SWAP1 POP SWAP3 SWAP2 POP POP JUMP JUMPDEST PUSH0 PUSH2 0x3B7D DUP3 PUSH2 0x3B59 JUMP JUMPDEST PUSH2 0x3B87 DUP2 DUP6 PUSH2 0x3B63 JUMP JUMPDEST SWAP4 POP PUSH2 0x3B97 DUP2 DUP6 PUSH1 0x20 DUP7 ADD PUSH2 0x2C7C JUMP JUMPDEST PUSH2 0x3BA0 DUP2 PUSH2 0x2C8A JUMP JUMPDEST DUP5 ADD SWAP2 POP POP SWAP3 SWAP2 POP POP JUMP JUMPDEST PUSH0 PUSH1 0x80 DUP3 ADD SWAP1 POP PUSH2 0x3BBE PUSH0 DUP4 ADD DUP8 PUSH2 0x2D80 JUMP JUMPDEST PUSH2 0x3BCB PUSH1 0x20 DUP4 ADD DUP7 PUSH2 0x2D80 JUMP JUMPDEST PUSH2 0x3BD8 PUSH1 0x40 DUP4 ADD DUP6 PUSH2 0x2E10 JUMP JUMPDEST DUP2 DUP2 SUB PUSH1 0x60 DUP4 ADD MSTORE PUSH2 0x3BEA DUP2 DUP5 PUSH2 0x3B73 JUMP JUMPDEST SWAP1 POP SWAP6 SWAP5 POP POP POP POP POP JUMP JUMPDEST PUSH0 DUP2 MLOAD SWAP1 POP PUSH2 0x3C03 DUP2 PUSH2 0x2BDA JUMP JUMPDEST SWAP3 SWAP2 POP POP JUMP JUMPDEST PUSH0 PUSH1 0x20 DUP3 DUP5 SUB SLT ISZERO PUSH2 0x3C1E JUMPI PUSH2 0x3C1D PUSH2 0x2BA7 JUMP JUMPDEST JUMPDEST PUSH0 PUSH2 0x3C2B DUP5 DUP3 DUP6 ADD PUSH2 0x3BF5 JUMP JUMPDEST SWAP2 POP POP SWAP3 SWAP2 POP POP JUMP INVALID LOG2 PUSH5 0x6970667358 0x22 SLT KECCAK256 0xC1 0xD0 CALLER 0x4E PUSH28 0x9154E6B3BA086C527366D95CBEF05FF04929E95880F52D04A2770F64 PUSH20 0x6F6C634300081A00330000000000000000000000 "
		},
		"gasEstimates": {
			"creation": {
				"codeDepositCost": "3093200",
				"executionCost": "infinite",
				"totalCost": "infinite"
			},
			"external": {
				"HAM()": "2597",
				"MAX_FREE()": "2535",
				"MAX_SUPPLY()": "2471",
				"MINT_COST()": "2514",
				"amountMinted(address)": "2914",
				"approve(address,uint256)": "infinite",
				"balanceOf(address)": "3003",
				"explicitOwnershipOf(uint256)": "infinite",
				"explicitOwnershipsOf(uint256[])": "infinite",
				"freeMint(uint256,bytes32[])": "infinite",
				"freePhaseActive()": "2511",
				"getApproved(uint256)": "infinite",
				"isApprovedForAll(address,address)": "infinite",
				"merkleRoot()": "2559",
				"name()": "infinite",
				"owner()": "2620",
				"ownerOf(uint256)": "infinite",
				"publicMint(uint256)": "infinite",
				"publicPhaseActive()": "2585",
				"safeTransferFrom(address,address,uint256)": "infinite",
				"safeTransferFrom(address,address,uint256,bytes)": "infinite",
				"setApprovalForAll(address,bool)": "infinite",
				"supportsInterface(bytes4)": "759",
				"symbol()": "infinite",
				"toggleFreeMinting()": "28761",
				"togglePublicMinting()": "28929",
				"toggleWLMinting()": "28862",
				"tokenIdToSeed(uint256)": "2822",
				"tokenURI(uint256)": "infinite",
				"tokensOfOwner(address)": "infinite",
				"tokensOfOwnerIn(address,uint256,uint256)": "infinite",
				"totalSupply()": "4680",
				"transferFrom(address,address,uint256)": "infinite",
				"transferOwnership(address)": "28560",
				"updateHAM(address)": "26995",
				"updateMerkleRoot(bytes32)": "24818",
				"whitelistPhaseActive()": "2650",
				"withdraw()": "infinite",
				"withdrawErc20(address,address)": "infinite"
			},
			"internal": {
				"_startTokenId()": "22"
			}
		},
		"methodIdentifiers": {
			"HAM()": "ac785fbf",
			"MAX_FREE()": "ed6661c2",
			"MAX_SUPPLY()": "32cb6b0c",
			"MINT_COST()": "c662e481",
			"amountMinted(address)": "438a67e7",
			"approve(address,uint256)": "095ea7b3",
			"balanceOf(address)": "70a08231",
			"explicitOwnershipOf(uint256)": "c23dc68f",
			"explicitOwnershipsOf(uint256[])": "5bbb2177",
			"freeMint(uint256,bytes32[])": "e2f36dce",
			"freePhaseActive()": "beb81891",
			"getApproved(uint256)": "081812fc",
			"isApprovedForAll(address,address)": "e985e9c5",
			"merkleRoot()": "2eb4a7ab",
			"name()": "06fdde03",
			"owner()": "8da5cb5b",
			"ownerOf(uint256)": "6352211e",
			"publicMint(uint256)": "2db11544",
			"publicPhaseActive()": "187e0f17",
			"safeTransferFrom(address,address,uint256)": "42842e0e",
			"safeTransferFrom(address,address,uint256,bytes)": "b88d4fde",
			"setApprovalForAll(address,bool)": "a22cb465",
			"supportsInterface(bytes4)": "01ffc9a7",
			"symbol()": "95d89b41",
			"toggleFreeMinting()": "4a7d3e81",
			"togglePublicMinting()": "6b8a21fc",
			"toggleWLMinting()": "d2c59d51",
			"tokenIdToSeed(uint256)": "75e91691",
			"tokenURI(uint256)": "c87b56dd",
			"tokensOfOwner(address)": "8462151c",
			"tokensOfOwnerIn(address,uint256,uint256)": "99a2557a",
			"totalSupply()": "18160ddd",
			"transferFrom(address,address,uint256)": "23b872dd",
			"transferOwnership(address)": "f2fde38b",
			"updateHAM(address)": "b5d5bec1",
			"updateMerkleRoot(bytes32)": "4783f0ef",
			"whitelistPhaseActive()": "d12f743a",
			"withdraw()": "3ccfd60b",
			"withdrawErc20(address,address)": "739656db"
		}
	},
	"abi": [
		{
			"inputs": [
				{
					"internalType": "address",
					"name": "_renderer",
					"type": "address"
				},
				{
					"internalType": "address",
					"name": "_HAM",
					"type": "address"
				},
				{
					"internalType": "bytes32",
					"name": "_merkleRoot",
					"type": "bytes32"
				}
			],
			"stateMutability": "nonpayable",
			"type": "constructor"
		},
		{
			"inputs": [],
			"name": "AmountExceedsAvailableSupply",
			"type": "error"
		},
		{
			"inputs": [],
			"name": "AmountRequired",
			"type": "error"
		},
		{
			"inputs": [],
			"name": "ApprovalCallerNotOwnerNorApproved",
			"type": "error"
		},
		{
			"inputs": [],
			"name": "ApprovalQueryForNonexistentToken",
			"type": "error"
		},
		{
			"inputs": [],
			"name": "BalanceQueryForZeroAddress",
			"type": "error"
		},
		{
			"inputs": [],
			"name": "InsufficientFunds",
			"type": "error"
		},
		{
			"inputs": [],
			"name": "InvalidProof",
			"type": "error"
		},
		{
			"inputs": [],
			"name": "InvalidQueryRange",
			"type": "error"
		},
		{
			"inputs": [],
			"name": "MaxMintWouldBeExceeded",
			"type": "error"
		},
		{
			"inputs": [],
			"name": "MintERC2309QuantityExceedsLimit",
			"type": "error"
		},
		{
			"inputs": [],
			"name": "MintToZeroAddress",
			"type": "error"
		},
		{
			"inputs": [],
			"name": "MintZeroQuantity",
			"type": "error"
		},
		{
			"inputs": [],
			"name": "NotCompatibleWithSpotMints",
			"type": "error"
		},
		{
			"inputs": [],
			"name": "OnlyOneFreeMint",
			"type": "error"
		},
		{
			"inputs": [],
			"name": "OwnerQueryForNonexistentToken",
			"type": "error"
		},
		{
			"inputs": [],
			"name": "OwnershipNotInitializedForExtraData",
			"type": "error"
		},
		{
			"inputs": [],
			"name": "SequentialMintExceedsLimit",
			"type": "error"
		},
		{
			"inputs": [],
			"name": "SequentialUpToTooSmall",
			"type": "error"
		},
		{
			"inputs": [],
			"name": "SoldOut",
			"type": "error"
		},
		{
			"inputs": [],
			"name": "SpotMintTokenIdTooSmall",
			"type": "error"
		},
		{
			"inputs": [],
			"name": "TokenAlreadyExists",
			"type": "error"
		},
		{
			"inputs": [],
			"name": "TransferCallerNotOwnerNorApproved",
			"type": "error"
		},
		{
			"inputs": [],
			"name": "TransferFromIncorrectOwner",
			"type": "error"
		},
		{
			"inputs": [],
			"name": "TransferToNonERC721ReceiverImplementer",
			"type": "error"
		},
		{
			"inputs": [],
			"name": "TransferToZeroAddress",
			"type": "error"
		},
		{
			"inputs": [],
			"name": "URIQueryForNonexistentToken",
			"type": "error"
		},
		{
			"anonymous": false,
			"inputs": [
				{
					"indexed": true,
					"internalType": "address",
					"name": "owner",
					"type": "address"
				},
				{
					"indexed": true,
					"internalType": "address",
					"name": "approved",
					"type": "address"
				},
				{
					"indexed": true,
					"internalType": "uint256",
					"name": "tokenId",
					"type": "uint256"
				}
			],
			"name": "Approval",
			"type": "event"
		},
		{
			"anonymous": false,
			"inputs": [
				{
					"indexed": true,
					"internalType": "address",
					"name": "owner",
					"type": "address"
				},
				{
					"indexed": true,
					"internalType": "address",
					"name": "operator",
					"type": "address"
				},
				{
					"indexed": false,
					"internalType": "bool",
					"name": "approved",
					"type": "bool"
				}
			],
			"name": "ApprovalForAll",
			"type": "event"
		},
		{
			"anonymous": false,
			"inputs": [
				{
					"indexed": true,
					"internalType": "uint256",
					"name": "fromTokenId",
					"type": "uint256"
				},
				{
					"indexed": false,
					"internalType": "uint256",
					"name": "toTokenId",
					"type": "uint256"
				},
				{
					"indexed": true,
					"internalType": "address",
					"name": "from",
					"type": "address"
				},
				{
					"indexed": true,
					"internalType": "address",
					"name": "to",
					"type": "address"
				}
			],
			"name": "ConsecutiveTransfer",
			"type": "event"
		},
		{
			"anonymous": false,
			"inputs": [
				{
					"indexed": true,
					"internalType": "address",
					"name": "user",
					"type": "address"
				},
				{
					"indexed": true,
					"internalType": "address",
					"name": "newOwner",
					"type": "address"
				}
			],
			"name": "OwnershipTransferred",
			"type": "event"
		},
		{
			"anonymous": false,
			"inputs": [
				{
					"indexed": false,
					"internalType": "address",
					"name": "from",
					"type": "address"
				},
				{
					"indexed": false,
					"internalType": "uint256",
					"name": "amount",
					"type": "uint256"
				}
			],
			"name": "PaymentReceived",
			"type": "event"
		},
		{
			"anonymous": false,
			"inputs": [
				{
					"indexed": true,
					"internalType": "address",
					"name": "from",
					"type": "address"
				},
				{
					"indexed": true,
					"internalType": "address",
					"name": "to",
					"type": "address"
				},
				{
					"indexed": true,
					"internalType": "uint256",
					"name": "tokenId",
					"type": "uint256"
				}
			],
			"name": "Transfer",
			"type": "event"
		},
		{
			"inputs": [],
			"name": "HAM",
			"outputs": [
				{
					"internalType": "address",
					"name": "",
					"type": "address"
				}
			],
			"stateMutability": "view",
			"type": "function"
		},
		{
			"inputs": [],
			"name": "MAX_FREE",
			"outputs": [
				{
					"internalType": "uint256",
					"name": "",
					"type": "uint256"
				}
			],
			"stateMutability": "view",
			"type": "function"
		},
		{
			"inputs": [],
			"name": "MAX_SUPPLY",
			"outputs": [
				{
					"internalType": "uint256",
					"name": "",
					"type": "uint256"
				}
			],
			"stateMutability": "view",
			"type": "function"
		},
		{
			"inputs": [],
			"name": "MINT_COST",
			"outputs": [
				{
					"internalType": "uint256",
					"name": "",
					"type": "uint256"
				}
			],
			"stateMutability": "view",
			"type": "function"
		},
		{
			"inputs": [
				{
					"internalType": "address",
					"name": "",
					"type": "address"
				}
			],
			"name": "amountMinted",
			"outputs": [
				{
					"internalType": "uint256",
					"name": "",
					"type": "uint256"
				}
			],
			"stateMutability": "view",
			"type": "function"
		},
		{
			"inputs": [
				{
					"internalType": "address",
					"name": "to",
					"type": "address"
				},
				{
					"internalType": "uint256",
					"name": "tokenId",
					"type": "uint256"
				}
			],
			"name": "approve",
			"outputs": [],
			"stateMutability": "payable",
			"type": "function"
		},
		{
			"inputs": [
				{
					"internalType": "address",
					"name": "owner",
					"type": "address"
				}
			],
			"name": "balanceOf",
			"outputs": [
				{
					"internalType": "uint256",
					"name": "",
					"type": "uint256"
				}
			],
			"stateMutability": "view",
			"type": "function"
		},
		{
			"inputs": [
				{
					"internalType": "uint256",
					"name": "tokenId",
					"type": "uint256"
				}
			],
			"name": "explicitOwnershipOf",
			"outputs": [
				{
					"components": [
						{
							"internalType": "address",
							"name": "addr",
							"type": "address"
						},
						{
							"internalType": "uint64",
							"name": "startTimestamp",
							"type": "uint64"
						},
						{
							"internalType": "bool",
							"name": "burned",
							"type": "bool"
						},
						{
							"internalType": "uint24",
							"name": "extraData",
							"type": "uint24"
						}
					],
					"internalType": "struct IERC721A.TokenOwnership",
					"name": "ownership",
					"type": "tuple"
				}
			],
			"stateMutability": "view",
			"type": "function"
		},
		{
			"inputs": [
				{
					"internalType": "uint256[]",
					"name": "tokenIds",
					"type": "uint256[]"
				}
			],
			"name": "explicitOwnershipsOf",
			"outputs": [
				{
					"components": [
						{
							"internalType": "address",
							"name": "addr",
							"type": "address"
						},
						{
							"internalType": "uint64",
							"name": "startTimestamp",
							"type": "uint64"
						},
						{
							"internalType": "bool",
							"name": "burned",
							"type": "bool"
						},
						{
							"internalType": "uint24",
							"name": "extraData",
							"type": "uint24"
						}
					],
					"internalType": "struct IERC721A.TokenOwnership[]",
					"name": "",
					"type": "tuple[]"
				}
			],
			"stateMutability": "view",
			"type": "function"
		},
		{
			"inputs": [
				{
					"internalType": "uint256",
					"name": "amount",
					"type": "uint256"
				},
				{
					"internalType": "bytes32[]",
					"name": "proof",
					"type": "bytes32[]"
				}
			],
			"name": "freeMint",
			"outputs": [],
			"stateMutability": "nonpayable",
			"type": "function"
		},
		{
			"inputs": [],
			"name": "freePhaseActive",
			"outputs": [
				{
					"internalType": "bool",
					"name": "",
					"type": "bool"
				}
			],
			"stateMutability": "view",
			"type": "function"
		},
		{
			"inputs": [
				{
					"internalType": "uint256",
					"name": "tokenId",
					"type": "uint256"
				}
			],
			"name": "getApproved",
			"outputs": [
				{
					"internalType": "address",
					"name": "",
					"type": "address"
				}
			],
			"stateMutability": "view",
			"type": "function"
		},
		{
			"inputs": [
				{
					"internalType": "address",
					"name": "owner",
					"type": "address"
				},
				{
					"internalType": "address",
					"name": "operator",
					"type": "address"
				}
			],
			"name": "isApprovedForAll",
			"outputs": [
				{
					"internalType": "bool",
					"name": "",
					"type": "bool"
				}
			],
			"stateMutability": "view",
			"type": "function"
		},
		{
			"inputs": [],
			"name": "merkleRoot",
			"outputs": [
				{
					"internalType": "bytes32",
					"name": "",
					"type": "bytes32"
				}
			],
			"stateMutability": "view",
			"type": "function"
		},
		{
			"inputs": [],
			"name": "name",
			"outputs": [
				{
					"internalType": "string",
					"name": "",
					"type": "string"
				}
			],
			"stateMutability": "view",
			"type": "function"
		},
		{
			"inputs": [],
			"name": "owner",
			"outputs": [
				{
					"internalType": "address",
					"name": "",
					"type": "address"
				}
			],
			"stateMutability": "view",
			"type": "function"
		},
		{
			"inputs": [
				{
					"internalType": "uint256",
					"name": "tokenId",
					"type": "uint256"
				}
			],
			"name": "ownerOf",
			"outputs": [
				{
					"internalType": "address",
					"name": "",
					"type": "address"
				}
			],
			"stateMutability": "view",
			"type": "function"
		},
		{
			"inputs": [
				{
					"internalType": "uint256",
					"name": "amount",
					"type": "uint256"
				}
			],
			"name": "publicMint",
			"outputs": [],
			"stateMutability": "payable",
			"type": "function"
		},
		{
			"inputs": [],
			"name": "publicPhaseActive",
			"outputs": [
				{
					"internalType": "bool",
					"name": "",
					"type": "bool"
				}
			],
			"stateMutability": "view",
			"type": "function"
		},
		{
			"inputs": [
				{
					"internalType": "address",
					"name": "from",
					"type": "address"
				},
				{
					"internalType": "address",
					"name": "to",
					"type": "address"
				},
				{
					"internalType": "uint256",
					"name": "tokenId",
					"type": "uint256"
				}
			],
			"name": "safeTransferFrom",
			"outputs": [],
			"stateMutability": "payable",
			"type": "function"
		},
		{
			"inputs": [
				{
					"internalType": "address",
					"name": "from",
					"type": "address"
				},
				{
					"internalType": "address",
					"name": "to",
					"type": "address"
				},
				{
					"internalType": "uint256",
					"name": "tokenId",
					"type": "uint256"
				},
				{
					"internalType": "bytes",
					"name": "_data",
					"type": "bytes"
				}
			],
			"name": "safeTransferFrom",
			"outputs": [],
			"stateMutability": "payable",
			"type": "function"
		},
		{
			"inputs": [
				{
					"internalType": "address",
					"name": "operator",
					"type": "address"
				},
				{
					"internalType": "bool",
					"name": "approved",
					"type": "bool"
				}
			],
			"name": "setApprovalForAll",
			"outputs": [],
			"stateMutability": "nonpayable",
			"type": "function"
		},
		{
			"inputs": [
				{
					"internalType": "bytes4",
					"name": "interfaceId",
					"type": "bytes4"
				}
			],
			"name": "supportsInterface",
			"outputs": [
				{
					"internalType": "bool",
					"name": "",
					"type": "bool"
				}
			],
			"stateMutability": "view",
			"type": "function"
		},
		{
			"inputs": [],
			"name": "symbol",
			"outputs": [
				{
					"internalType": "string",
					"name": "",
					"type": "string"
				}
			],
			"stateMutability": "view",
			"type": "function"
		},
		{
			"inputs": [],
			"name": "toggleFreeMinting",
			"outputs": [],
			"stateMutability": "nonpayable",
			"type": "function"
		},
		{
			"inputs": [],
			"name": "togglePublicMinting",
			"outputs": [],
			"stateMutability": "nonpayable",
			"type": "function"
		},
		{
			"inputs": [],
			"name": "toggleWLMinting",
			"outputs": [],
			"stateMutability": "nonpayable",
			"type": "function"
		},
		{
			"inputs": [
				{
					"internalType": "uint256",
					"name": "",
					"type": "uint256"
				}
			],
			"name": "tokenIdToSeed",
			"outputs": [
				{
					"internalType": "bytes32",
					"name": "",
					"type": "bytes32"
				}
			],
			"stateMutability": "view",
			"type": "function"
		},
		{
			"inputs": [
				{
					"internalType": "uint256",
					"name": "tokenId",
					"type": "uint256"
				}
			],
			"name": "tokenURI",
			"outputs": [
				{
					"internalType": "string",
					"name": "",
					"type": "string"
				}
			],
			"stateMutability": "view",
			"type": "function"
		},
		{
			"inputs": [
				{
					"internalType": "address",
					"name": "owner",
					"type": "address"
				}
			],
			"name": "tokensOfOwner",
			"outputs": [
				{
					"internalType": "uint256[]",
					"name": "",
					"type": "uint256[]"
				}
			],
			"stateMutability": "view",
			"type": "function"
		},
		{
			"inputs": [
				{
					"internalType": "address",
					"name": "owner",
					"type": "address"
				},
				{
					"internalType": "uint256",
					"name": "start",
					"type": "uint256"
				},
				{
					"internalType": "uint256",
					"name": "stop",
					"type": "uint256"
				}
			],
			"name": "tokensOfOwnerIn",
			"outputs": [
				{
					"internalType": "uint256[]",
					"name": "",
					"type": "uint256[]"
				}
			],
			"stateMutability": "view",
			"type": "function"
		},
		{
			"inputs": [],
			"name": "totalSupply",
			"outputs": [
				{
					"internalType": "uint256",
					"name": "result",
					"type": "uint256"
				}
			],
			"stateMutability": "view",
			"type": "function"
		},
		{
			"inputs": [
				{
					"internalType": "address",
					"name": "from",
					"type": "address"
				},
				{
					"internalType": "address",
					"name": "to",
					"type": "address"
				},
				{
					"internalType": "uint256",
					"name": "tokenId",
					"type": "uint256"
				}
			],
			"name": "transferFrom",
			"outputs": [],
			"stateMutability": "payable",
			"type": "function"
		},
		{
			"inputs": [
				{
					"internalType": "address",
					"name": "newOwner",
					"type": "address"
				}
			],
			"name": "transferOwnership",
			"outputs": [],
			"stateMutability": "nonpayable",
			"type": "function"
		},
		{
			"inputs": [
				{
					"internalType": "address",
					"name": "_HAM",
					"type": "address"
				}
			],
			"name": "updateHAM",
			"outputs": [],
			"stateMutability": "nonpayable",
			"type": "function"
		},
		{
			"inputs": [
				{
					"internalType": "bytes32",
					"name": "_merkleRoot",
					"type": "bytes32"
				}
			],
			"name": "updateMerkleRoot",
			"outputs": [],
			"stateMutability": "nonpayable",
			"type": "function"
		},
		{
			"inputs": [],
			"name": "whitelistPhaseActive",
			"outputs": [
				{
					"internalType": "bool",
					"name": "",
					"type": "bool"
				}
			],
			"stateMutability": "view",
			"type": "function"
		},
		{
			"inputs": [],
			"name": "withdraw",
			"outputs": [],
			"stateMutability": "nonpayable",
			"type": "function"
		},
		{
			"inputs": [
				{
					"internalType": "address",
					"name": "token",
					"type": "address"
				},
				{
					"internalType": "address",
					"name": "to",
					"type": "address"
				}
			],
			"name": "withdrawErc20",
			"outputs": [],
			"stateMutability": "nonpayable",
			"type": "function"
		}
	]
}