{
	"data": {
		"bytecode": {
			"linkReferences": {},
			"object": "60806040526001600a556103e8600c556611c37937e08000600d5561017b600e555f600f5f6101000a81548160ff0219169083151502179055505f600f60016101000a81548160ff0219169083151502179055505f600f60026101000a81548160ff021916908315150217905550348015610078575f80fd5b506040516138a63803806138a6833981810160405281019061009a91906102eb565b336040518060400160405280600981526020017f48616d20506570657300000000000000000000000000000000000000000000008152506040518060400160405280600581526020017f485045504500000000000000000000000000000000000000000000000000000081525081600290816101169190610550565b5080600390816101269190610550565b5061013561025660201b60201c565b5f8190555061014861025660201b60201c565b61015661025e60201b60201c565b10156101735761017263fed8210f60e01b61028560201b60201c565b5b50508060095f6101000a81548173ffffffffffffffffffffffffffffffffffffffff021916908373ffffffffffffffffffffffffffffffffffffffff1602179055508073ffffffffffffffffffffffffffffffffffffffff165f73ffffffffffffffffffffffffffffffffffffffff167f8be0079c531659141344cd1fd0a4f28419497f9722a3daafe3b4186f6b6457e060405160405180910390a35080600b5f6101000a81548173ffffffffffffffffffffffffffffffffffffffff021916908373ffffffffffffffffffffffffffffffffffffffff1602179055505061061f565b5f6001905090565b5f7fffffffffffffffffffffffffffffffffffffffffffffffffffffffffffffffff905090565b805f5260045ffd5b5f80fd5b5f73ffffffffffffffffffffffffffffffffffffffff82169050919050565b5f6102ba82610291565b9050919050565b6102ca816102b0565b81146102d4575f80fd5b50565b5f815190506102e5816102c1565b92915050565b5f60208284031215610300576102ff61028d565b5b5f61030d848285016102d7565b91505092915050565b5f81519050919050565b7f4e487b71000000000000000000000000000000000000000000000000000000005f52604160045260245ffd5b7f4e487b71000000000000000000000000000000000000000000000000000000005f52602260045260245ffd5b5f600282049050600182168061039157607f821691505b6020821081036103a4576103a361034d565b5b50919050565b5f819050815f5260205f209050919050565b5f6020601f8301049050919050565b5f82821b905092915050565b5f600883026104067fffffffffffffffffffffffffffffffffffffffffffffffffffffffffffffffff826103cb565b61041086836103cb565b95508019841693508086168417925050509392505050565b5f819050919050565b5f819050919050565b5f61045461044f61044a84610428565b610431565b610428565b9050919050565b5f819050919050565b61046d8361043a565b6104816104798261045b565b8484546103d7565b825550505050565b5f90565b610495610489565b6104a0818484610464565b505050565b5b818110156104c3576104b85f8261048d565b6001810190506104a6565b5050565b601f821115610508576104d9816103aa565b6104e2846103bc565b810160208510156104f1578190505b6105056104fd856103bc565b8301826104a5565b50505b505050565b5f82821c905092915050565b5f6105285f198460080261050d565b1980831691505092915050565b5f6105408383610519565b9150826002028217905092915050565b61055982610316565b67ffffffffffffffff81111561057257610571610320565b5b61057c825461037a565b6105878282856104c7565b5f60209050601f8311600181146105b8575f84156105a6578287015190505b6105b08582610535565b865550610617565b601f1984166105c6866103aa565b5f5b828110156105ed578489015182556001820191506020850194506020810190506105c8565b8683101561060a5784890151610606601f891682610519565b8355505b6001600288020188555050505b505050505050565b61327a8061062c5f395ff3fe6080604052600436106101ed575f3560e01c806370a082311161010c578063beb818911161009f578063d12f743a1161006e578063d12f743a146106cb578063d2c59d51146106f5578063e985e9c51461070b578063ed6661c214610747578063f2fde38b14610771576101ed565b8063beb81891146105ff578063c23dc68f14610629578063c662e48114610665578063c87b56dd1461068f576101ed565b806395d89b41116100db57806395d89b411461055557806399a2557a1461057f578063a22cb465146105bb578063b88d4fde146105e3576101ed565b806370a082311461047757806375e91691146104b35780638462151c146104ef5780638da5cb5b1461052b576101ed565b806332cb6b0c116101845780634a7d3e81116101535780634a7d3e81146103d35780635bbb2177146103e95780636352211e146104255780636b8a21fc14610461576101ed565b806332cb6b0c1461033b5780633ccfd60b1461036557806342842e0e1461037b578063438a67e714610397576101ed565b806318160ddd116101c057806318160ddd146102af578063187e0f17146102d957806323b872dd146103035780632db115441461031f576101ed565b806301ffc9a7146101f157806306fdde031461022d578063081812fc14610257578063095ea7b314610293575b5f80fd5b3480156101fc575f80fd5b506102176004803603810190610212919061241c565b610799565b6040516102249190612461565b60405180910390f35b348015610238575f80fd5b5061024161082a565b60405161024e9190612504565b60405180910390f35b348015610262575f80fd5b5061027d60048036038101906102789190612557565b6108ba565b60405161028a91906125c1565b60405180910390f35b6102ad60048036038101906102a89190612604565b610913565b005b3480156102ba575f80fd5b506102c3610923565b6040516102d09190612651565b60405180910390f35b3480156102e4575f80fd5b506102ed61096e565b6040516102fa9190612461565b60405180910390f35b61031d6004803603810190610318919061266a565b610981565b005b61033960048036038101906103349190612557565b610c2c565b005b348015610346575f80fd5b5061034f610ee0565b60405161035c9190612651565b60405180910390f35b348015610370575f80fd5b50610379610ee6565b005b6103956004803603810190610390919061266a565b611075565b005b3480156103a2575f80fd5b506103bd60048036038101906103b891906126ba565b611094565b6040516103ca9190612651565b60405180910390f35b3480156103de575f80fd5b506103e76110a9565b005b3480156103f4575f80fd5b5061040f600480360381019061040a9190612746565b611162565b60405161041c91906128e9565b60405180910390f35b348015610430575f80fd5b5061044b60048036038101906104469190612557565b6111be565b60405161045891906125c1565b60405180910390f35b34801561046c575f80fd5b506104756111cf565b005b348015610482575f80fd5b5061049d600480360381019061049891906126ba565b61128a565b6040516104aa9190612651565b60405180910390f35b3480156104be575f80fd5b506104d960048036038101906104d49190612557565b61131e565b6040516104e69190612921565b60405180910390f35b3480156104fa575f80fd5b50610515600480360381019061051091906126ba565b611333565b60405161052291906129f1565b60405180910390f35b348015610536575f80fd5b5061053f6113ac565b60405161054c91906125c1565b60405180910390f35b348015610560575f80fd5b506105696113d1565b6040516105769190612504565b60405180910390f35b34801561058a575f80fd5b506105a560048036038101906105a09190612a11565b611461565b6040516105b291906129f1565b60405180910390f35b3480156105c6575f80fd5b506105e160048036038101906105dc9190612a8b565b611477565b005b6105fd60048036038101906105f89190612bf1565b61157d565b005b34801561060a575f80fd5b506106136115ce565b6040516106209190612461565b60405180910390f35b348015610634575f80fd5b5061064f600480360381019061064a9190612557565b6115e0565b60405161065c9190612cc4565b60405180910390f35b348015610670575f80fd5b50610679611655565b6040516106869190612651565b60405180910390f35b34801561069a575f80fd5b506106b560048036038101906106b09190612557565b61165b565b6040516106c29190612504565b60405180910390f35b3480156106d6575f80fd5b506106df611713565b6040516106ec9190612461565b60405180910390f35b348015610700575f80fd5b50610709611726565b005b348015610716575f80fd5b50610731600480360381019061072c9190612cdd565b6117e1565b60405161073e9190612461565b60405180910390f35b348015610752575f80fd5b5061075b61186f565b6040516107689190612651565b60405180910390f35b34801561077c575f80fd5b50610797600480360381019061079291906126ba565b611875565b005b5f6301ffc9a760e01b827bffffffffffffffffffffffffffffffffffffffffffffffffffffffff191614806107f357506380ac58cd60e01b827bffffffffffffffffffffffffffffffffffffffffffffffffffffffff1916145b806108235750635b5e139f60e01b827bffffffffffffffffffffffffffffffffffffffffffffffffffffffff1916145b9050919050565b60606002805461083990612d48565b80601f016020809104026020016040519081016040528092919081815260200182805461086590612d48565b80156108b05780601f10610887576101008083540402835291602001916108b0565b820191905f5260205f20905b81548152906001019060200180831161089357829003601f168201915b5050505050905090565b5f6108c4826119a1565b6108d9576108d863cf4700e460e01b611a44565b5b60065f8381526020019081526020015f205f015f9054906101000a900473ffffffffffffffffffffffffffffffffffffffff169050919050565b61091f82826001611a4c565b5050565b5f61092c611b76565b6001545f54030390507fffffffffffffffffffffffffffffffffffffffffffffffffffffffffffffffff61095e611b7e565b1461096b57600854810190505b90565b600f60029054906101000a900460ff1681565b5f61098b82611ba5565b905073ffffffffffffffffffffffffffffffffffffffff8473ffffffffffffffffffffffffffffffffffffffff161693508373ffffffffffffffffffffffffffffffffffffffff168173ffffffffffffffffffffffffffffffffffffffff1614610a00576109ff63a114810060e01b611a44565b5b5f80610a0b84611cb4565b91509150610a218187610a1c611cd7565b611cde565b610a4c57610a3686610a31611cd7565b6117e1565b610a4b57610a4a6359c896be60e01b611a44565b5b5b610a598686866001611d21565b8015610a63575f82555b60055f8773ffffffffffffffffffffffffffffffffffffffff1673ffffffffffffffffffffffffffffffffffffffff1681526020019081526020015f205f8154600190039190508190555060055f8673ffffffffffffffffffffffffffffffffffffffff1673ffffffffffffffffffffffffffffffffffffffff1681526020019081526020015f205f815460010191905081905550610b2b85610b07888887611d27565b7c020000000000000000000000000000000000000000000000000000000017611d4e565b60045f8681526020019081526020015f20819055505f7c0200000000000000000000000000000000000000000000000000000000841603610ba7575f6001850190505f60045f8381526020019081526020015f205403610ba5575f548114610ba4578360045f8381526020019081526020015f20819055505b5b505b5f73ffffffffffffffffffffffffffffffffffffffff8673ffffffffffffffffffffffffffffffffffffffff161690508481887fddf252ad1be2c89b69c2b068fc378daa952ba7f163c4a11628f55a4df523b3ef5f80a45f8103610c1657610c1563ea553b3460e01b611a44565b5b610c238787876001611d78565b50505050505050565b6001600a5414610c71576040517f08c379a0000000000000000000000000000000000000000000000000000000008152600401610c6890612dc2565b60405180910390fd5b6002600a819055506001600f60026101000a81548160ff0219169083151502179055610c9b575f80fd5b60048160115f3373ffffffffffffffffffffffffffffffffffffffff1673ffffffffffffffffffffffffffffffffffffffff1681526020019081526020015f2054610ce69190612e0d565b1115610d1e576040517f58c7943400000000000000000000000000000000000000000000000000000000815260040160405180910390fd5b8060115f3373ffffffffffffffffffffffffffffffffffffffff1673ffffffffffffffffffffffffffffffffffffffff1681526020019081526020015f205f828254610d6a9190612e0d565b925050819055505f610d7a611d7e565b9050600c548103610db7576040517f52df9fe500000000000000000000000000000000000000000000000000000000815260040160405180910390fd5b5f8211610df0576040517fd43e607500000000000000000000000000000000000000000000000000000000815260040160405180910390fd5b5f8282610dfd9190612e0d565b9050600c54811115610e3b576040517f3ffc0da600000000000000000000000000000000000000000000000000000000815260040160405180910390fd5b5f610e44611dc5565b90505f60018583610e559190612e0d565b610e5f9190612e40565b90505b808211610ec757600143610e769190612e40565b4082604051602001610e89929190612eb3565b6040516020818303038152906040528051906020012060105f8481526020019081526020015f20819055508180610ebf90612ede565b925050610e62565b610ed13386611dcd565b505050506001600a8190555050565b600c5481565b60095f9054906101000a900473ffffffffffffffffffffffffffffffffffffffff1673ffffffffffffffffffffffffffffffffffffffff163373ffffffffffffffffffffffffffffffffffffffff1614610f75576040517f08c379a0000000000000000000000000000000000000000000000000000000008152600401610f6c90612f6f565b60405180910390fd5b6001600a5414610fba576040517f08c379a0000000000000000000000000000000000000000000000000000000008152600401610fb190612dc2565b60405180910390fd5b6002600a819055505f3373ffffffffffffffffffffffffffffffffffffffff1647604051610fe790612fba565b5f6040518083038185875af1925050503d805f8114611021576040519150601f19603f3d011682016040523d82523d5f602084013e611026565b606091505b505090508061106a576040517f08c379a000000000000000000000000000000000000000000000000000000000815260040161106190613018565b60405180910390fd5b506001600a81905550565b61108f83838360405180602001604052805f81525061157d565b505050565b6011602052805f5260405f205f915090505481565b60095f9054906101000a900473ffffffffffffffffffffffffffffffffffffffff1673ffffffffffffffffffffffffffffffffffffffff163373ffffffffffffffffffffffffffffffffffffffff1614611138576040517f08c379a000000000000000000000000000000000000000000000000000000000815260040161112f90612f6f565b60405180910390fd5b600f5f9054906101000a900460ff1615600f5f6101000a81548160ff021916908315150217905550565b6060805f84849050905060405191508082528060051b90508060208301016040525b5f81146111b3575f6020820391508186013590505f6111a2826115e0565b905080836020860101525050611184565b819250505092915050565b5f6111c882611ba5565b9050919050565b60095f9054906101000a900473ffffffffffffffffffffffffffffffffffffffff1673ffffffffffffffffffffffffffffffffffffffff163373ffffffffffffffffffffffffffffffffffffffff161461125e576040517f08c379a000000000000000000000000000000000000000000000000000000000815260040161125590612f6f565b60405180910390fd5b600f60029054906101000a900460ff1615600f60026101000a81548160ff021916908315150217905550565b5f8073ffffffffffffffffffffffffffffffffffffffff168273ffffffffffffffffffffffffffffffffffffffff16036112cf576112ce638f4eb60460e01b611a44565b5b67ffffffffffffffff60055f8473ffffffffffffffffffffffffffffffffffffffff1673ffffffffffffffffffffffffffffffffffffffff1681526020019081526020015f2054169050919050565b6010602052805f5260405f205f915090505481565b60607fffffffffffffffffffffffffffffffffffffffffffffffffffffffffffffffff61135e611b7e565b146113745761137363bdba09d760e01b611a44565b5b5f61137d611b76565b90505f611388611dc5565b905060608183146113a15761139e858484611f41565b90505b809350505050919050565b60095f9054906101000a900473ffffffffffffffffffffffffffffffffffffffff1681565b6060600380546113e090612d48565b80601f016020809104026020016040519081016040528092919081815260200182805461140c90612d48565b80156114575780601f1061142e57610100808354040283529160200191611457565b820191905f5260205f20905b81548152906001019060200180831161143a57829003601f168201915b5050505050905090565b606061146e848484611f41565b90509392505050565b8060075f611483611cd7565b73ffffffffffffffffffffffffffffffffffffffff1673ffffffffffffffffffffffffffffffffffffffff1681526020019081526020015f205f8473ffffffffffffffffffffffffffffffffffffffff1673ffffffffffffffffffffffffffffffffffffffff1681526020019081526020015f205f6101000a81548160ff0219169083151502179055508173ffffffffffffffffffffffffffffffffffffffff1661152c611cd7565b73ffffffffffffffffffffffffffffffffffffffff167f17307eab39ab6107e8899845ad3d59bd9653f200f220920489ca2b5937696c31836040516115719190612461565b60405180910390a35050565b611588848484610981565b5f8373ffffffffffffffffffffffffffffffffffffffff163b146115c8576115b2848484846120f0565b6115c7576115c663d1a57ed660e01b611a44565b5b5b50505050565b600f5f9054906101000a900460ff1681565b6115e861236b565b6115f0611b76565b821061164f576115fe611b7e565b8211156116155761160e8261221a565b9050611650565b61161d611dc5565b82101561164e575b61162e82612243565b61163e5781600190039150611625565b6116478261221a565b9050611650565b5b5b919050565b600d5481565b6060600b5f9054906101000a900473ffffffffffffffffffffffffffffffffffffffff1673ffffffffffffffffffffffffffffffffffffffff1663c649c9a88360105f8681526020019081526020015f20546040518363ffffffff1660e01b81526004016116ca929190613036565b5f60405180830381865afa1580156116e4573d5f803e3d5ffd5b505050506040513d5f823e3d601f19601f8201168201806040525081019061170c91906130fb565b9050919050565b600f60019054906101000a900460ff1681565b60095f9054906101000a900473ffffffffffffffffffffffffffffffffffffffff1673ffffffffffffffffffffffffffffffffffffffff163373ffffffffffffffffffffffffffffffffffffffff16146117b5576040517f08c379a00000000000000000000000000000000000000000000000000000000081526004016117ac90612f6f565b60405180910390fd5b600f60019054906101000a900460ff1615600f60016101000a81548160ff021916908315150217905550565b5f60075f8473ffffffffffffffffffffffffffffffffffffffff1673ffffffffffffffffffffffffffffffffffffffff1681526020019081526020015f205f8373ffffffffffffffffffffffffffffffffffffffff1673ffffffffffffffffffffffffffffffffffffffff1681526020019081526020015f205f9054906101000a900460ff16905092915050565b600e5481565b60095f9054906101000a900473ffffffffffffffffffffffffffffffffffffffff1673ffffffffffffffffffffffffffffffffffffffff163373ffffffffffffffffffffffffffffffffffffffff1614611904576040517f08c379a00000000000000000000000000000000000000000000000000000000081526004016118fb90612f6f565b60405180910390fd5b8060095f6101000a81548173ffffffffffffffffffffffffffffffffffffffff021916908373ffffffffffffffffffffffffffffffffffffffff1602179055508073ffffffffffffffffffffffffffffffffffffffff163373ffffffffffffffffffffffffffffffffffffffff167f8be0079c531659141344cd1fd0a4f28419497f9722a3daafe3b4186f6b6457e060405160405180910390a350565b5f816119ab611b76565b11611a3e576119b8611b7e565b8211156119e0576119d960045f8481526020019081526020015f2054612260565b9050611a3f565b5f54821015611a3d575f5b5f60045f8581526020019081526020015f205491508103611a175782611a1090613142565b92506119eb565b5f7c01000000000000000000000000000000000000000000000000000000008216149150505b5b5b919050565b805f5260045ffd5b5f611a56836111be565b9050818015611a9857508073ffffffffffffffffffffffffffffffffffffffff16611a7f611cd7565b73ffffffffffffffffffffffffffffffffffffffff1614155b15611ac457611aae81611aa9611cd7565b6117e1565b611ac357611ac263cfb3b94260e01b611a44565b5b5b8360065f8581526020019081526020015f205f015f6101000a81548173ffffffffffffffffffffffffffffffffffffffff021916908373ffffffffffffffffffffffffffffffffffffffff160217905550828473ffffffffffffffffffffffffffffffffffffffff168273ffffffffffffffffffffffffffffffffffffffff167f8c5be1e5ebec7d5bd14f71427d1e84f3dd0314c0f7b2291e5b200ac8c7c3b92560405160405180910390a450505050565b5f6001905090565b5f7fffffffffffffffffffffffffffffffffffffffffffffffffffffffffffffffff905090565b5f81611baf611b76565b11611c9e5760045f8381526020019081526020015f20549050611bd0611b7e565b821115611bf557611be081612260565b611caf57611bf463df2d9b4260e01b611a44565b5b5f8103611c76575f548210611c1557611c1463df2d9b4260e01b611a44565b5b5b60045f836001900393508381526020019081526020015f205490505f810315611c71575f7c010000000000000000000000000000000000000000000000000000000082160315611caf57611c7063df2d9b4260e01b611a44565b5b611c16565b5f7c010000000000000000000000000000000000000000000000000000000082160315611caf575b611cae63df2d9b4260e01b611a44565b5b919050565b5f805f60065f8581526020019081526020015f2090508092508254915050915091565b5f33905090565b5f73ffffffffffffffffffffffffffffffffffffffff8316925073ffffffffffffffffffffffffffffffffffffffff821691508382148383141790509392505050565b50505050565b5f8060e883901c905060e8611d3d8686846122a0565b62ffffff16901b9150509392505050565b5f73ffffffffffffffffffffffffffffffffffffffff83169250814260a01b178317905092915050565b50505050565b5f611d87611b76565b5f540390507fffffffffffffffffffffffffffffffffffffffffffffffffffffffffffffffff611db5611b7e565b14611dc257600854810190505b90565b5f8054905090565b5f805490505f8203611dea57611de963b562e8dd60e01b611a44565b5b611df65f848385611d21565b611e1483611e055f865f611d27565b611e0e856122a8565b17611d4e565b60045f8381526020019081526020015f2081905550600160406001901b17820260055f8573ffffffffffffffffffffffffffffffffffffffff1673ffffffffffffffffffffffffffffffffffffffff1681526020019081526020015f205f82825401925050819055505f73ffffffffffffffffffffffffffffffffffffffff8473ffffffffffffffffffffffffffffffffffffffff161690505f8103611ec557611ec4632e07630060e01b611a44565b5b5f83830190505f839050611ed7611b7e565b600183031115611ef257611ef16381647e3a60e01b611a44565b5b5b80835f7fddf252ad1be2c89b69c2b068fc378daa952ba7f163c4a11628f55a4df523b3ef5f80a4818160010191508103611ef357815f81905550505050611f3c5f848385611d78565b505050565b6060818310611f5b57611f5a6332c1995a60e01b611a44565b5b611f63611b76565b831015611f7557611f72611b76565b92505b5f611f7e611dc5565b90505f7fffffffffffffffffffffffffffffffffffffffffffffffffffffffffffffffff611faa611b7e565b03611fb55781611fb7565b835b9050808410611fc4578093505b5f611fce8761128a565b9050848610611fdb575f90505b5f81146120e6578086860311611ff15785850390505b5f60405194506001820160051b85019050806040525f612010886115e0565b90505f816040015161202357815f015190505b5f5b7fffffffffffffffffffffffffffffffffffffffffffffffffffffffffffffffff61204e611b7e565b1461207c57868a03612068576001612064611b7e565b0199505b612070611b7e565b8a111561207b575f91505b5b6120858a61221a565b925060408301515f811461209b575f92506120c1565b8351156120a757835192505b8b831860601b6120c0576001820191508a8260051b8a01525b5b5060018a01995083604052888a14806120d957508481145b1561202557808852505050505b5050509392505050565b5f8373ffffffffffffffffffffffffffffffffffffffff1663150b7a02612115611cd7565b8786866040518563ffffffff1660e01b815260040161213794939291906131bb565b6020604051808303815f875af192505050801561217257506040513d601f19601f8201168201806040525081019061216f9190613219565b60015b6121c7573d805f81146121a0576040519150601f19603f3d011682016040523d82523d5f602084013e6121a5565b606091505b505f8151036121bf576121be63d1a57ed660e01b611a44565b5b805181602001fd5b63150b7a0260e01b7bffffffffffffffffffffffffffffffffffffffffffffffffffffffff1916817bffffffffffffffffffffffffffffffffffffffffffffffffffffffff191614915050949350505050565b61222261236b565b61223c60045f8481526020019081526020015f20546122b7565b9050919050565b5f8060045f8481526020019081526020015f205414159050919050565b5f7c0100000000000000000000000000000000000000000000000000000000821673ffffffffffffffffffffffffffffffffffffffff8316119050919050565b5f9392505050565b5f6001821460e11b9050919050565b6122bf61236b565b81815f019073ffffffffffffffffffffffffffffffffffffffff16908173ffffffffffffffffffffffffffffffffffffffff168152505060a082901c816020019067ffffffffffffffff16908167ffffffffffffffff16815250505f7c01000000000000000000000000000000000000000000000000000000008316141581604001901515908115158152505060e882901c816060019062ffffff16908162ffffff1681525050919050565b60405180608001604052805f73ffffffffffffffffffffffffffffffffffffffff1681526020015f67ffffffffffffffff1681526020015f151581526020015f62ffffff1681525090565b5f604051905090565b5f80fd5b5f80fd5b5f7fffffffff0000000000000000000000000000000000000000000000000000000082169050919050565b6123fb816123c7565b8114612405575f80fd5b50565b5f81359050612416816123f2565b92915050565b5f60208284031215612431576124306123bf565b5b5f61243e84828501612408565b91505092915050565b5f8115159050919050565b61245b81612447565b82525050565b5f6020820190506124745f830184612452565b92915050565b5f81519050919050565b5f82825260208201905092915050565b5f5b838110156124b1578082015181840152602081019050612496565b5f8484015250505050565b5f601f19601f8301169050919050565b5f6124d68261247a565b6124e08185612484565b93506124f0818560208601612494565b6124f9816124bc565b840191505092915050565b5f6020820190508181035f83015261251c81846124cc565b905092915050565b5f819050919050565b61253681612524565b8114612540575f80fd5b50565b5f813590506125518161252d565b92915050565b5f6020828403121561256c5761256b6123bf565b5b5f61257984828501612543565b91505092915050565b5f73ffffffffffffffffffffffffffffffffffffffff82169050919050565b5f6125ab82612582565b9050919050565b6125bb816125a1565b82525050565b5f6020820190506125d45f8301846125b2565b92915050565b6125e3816125a1565b81146125ed575f80fd5b50565b5f813590506125fe816125da565b92915050565b5f806040838503121561261a576126196123bf565b5b5f612627858286016125f0565b925050602061263885828601612543565b9150509250929050565b61264b81612524565b82525050565b5f6020820190506126645f830184612642565b92915050565b5f805f60608486031215612681576126806123bf565b5b5f61268e868287016125f0565b935050602061269f868287016125f0565b92505060406126b086828701612543565b9150509250925092565b5f602082840312156126cf576126ce6123bf565b5b5f6126dc848285016125f0565b91505092915050565b5f80fd5b5f80fd5b5f80fd5b5f8083601f840112612706576127056126e5565b5b8235905067ffffffffffffffff811115612723576127226126e9565b5b60208301915083602082028301111561273f5761273e6126ed565b5b9250929050565b5f806020838503121561275c5761275b6123bf565b5b5f83013567ffffffffffffffff811115612779576127786123c3565b5b612785858286016126f1565b92509250509250929050565b5f81519050919050565b5f82825260208201905092915050565b5f819050602082019050919050565b6127c3816125a1565b82525050565b5f67ffffffffffffffff82169050919050565b6127e5816127c9565b82525050565b6127f481612447565b82525050565b5f62ffffff82169050919050565b612811816127fa565b82525050565b608082015f82015161282b5f8501826127ba565b50602082015161283e60208501826127dc565b50604082015161285160408501826127eb565b5060608201516128646060850182612808565b50505050565b5f6128758383612817565b60808301905092915050565b5f602082019050919050565b5f61289782612791565b6128a1818561279b565b93506128ac836127ab565b805f5b838110156128dc5781516128c3888261286a565b97506128ce83612881565b9250506001810190506128af565b5085935050505092915050565b5f6020820190508181035f830152612901818461288d565b905092915050565b5f819050919050565b61291b81612909565b82525050565b5f6020820190506129345f830184612912565b92915050565b5f81519050919050565b5f82825260208201905092915050565b5f819050602082019050919050565b61296c81612524565b82525050565b5f61297d8383612963565b60208301905092915050565b5f602082019050919050565b5f61299f8261293a565b6129a98185612944565b93506129b483612954565b805f5b838110156129e45781516129cb8882612972565b97506129d683612989565b9250506001810190506129b7565b5085935050505092915050565b5f6020820190508181035f830152612a098184612995565b905092915050565b5f805f60608486031215612a2857612a276123bf565b5b5f612a35868287016125f0565b9350506020612a4686828701612543565b9250506040612a5786828701612543565b9150509250925092565b612a6a81612447565b8114612a74575f80fd5b50565b5f81359050612a8581612a61565b92915050565b5f8060408385031215612aa157612aa06123bf565b5b5f612aae858286016125f0565b9250506020612abf85828601612a77565b9150509250929050565b5f80fd5b7f4e487b71000000000000000000000000000000000000000000000000000000005f52604160045260245ffd5b612b03826124bc565b810181811067ffffffffffffffff82111715612b2257612b21612acd565b5b80604052505050565b5f612b346123b6565b9050612b408282612afa565b919050565b5f67ffffffffffffffff821115612b5f57612b5e612acd565b5b612b68826124bc565b9050602081019050919050565b828183375f83830152505050565b5f612b95612b9084612b45565b612b2b565b905082815260208101848484011115612bb157612bb0612ac9565b5b612bbc848285612b75565b509392505050565b5f82601f830112612bd857612bd76126e5565b5b8135612be8848260208601612b83565b91505092915050565b5f805f8060808587031215612c0957612c086123bf565b5b5f612c16878288016125f0565b9450506020612c27878288016125f0565b9350506040612c3887828801612543565b925050606085013567ffffffffffffffff811115612c5957612c586123c3565b5b612c6587828801612bc4565b91505092959194509250565b608082015f820151612c855f8501826127ba565b506020820151612c9860208501826127dc565b506040820151612cab60408501826127eb565b506060820151612cbe6060850182612808565b50505050565b5f608082019050612cd75f830184612c71565b92915050565b5f8060408385031215612cf357612cf26123bf565b5b5f612d00858286016125f0565b9250506020612d11858286016125f0565b9150509250929050565b7f4e487b71000000000000000000000000000000000000000000000000000000005f52602260045260245ffd5b5f6002820490506001821680612d5f57607f821691505b602082108103612d7257612d71612d1b565b5b50919050565b7f5245454e5452414e4359000000000000000000000000000000000000000000005f82015250565b5f612dac600a83612484565b9150612db782612d78565b602082019050919050565b5f6020820190508181035f830152612dd981612da0565b9050919050565b7f4e487b71000000000000000000000000000000000000000000000000000000005f52601160045260245ffd5b5f612e1782612524565b9150612e2283612524565b9250828201905080821115612e3a57612e39612de0565b5b92915050565b5f612e4a82612524565b9150612e5583612524565b9250828203905081811115612e6d57612e6c612de0565b5b92915050565b5f819050919050565b612e8d612e8882612909565b612e73565b82525050565b5f819050919050565b612ead612ea882612524565b612e93565b82525050565b5f612ebe8285612e7c565b602082019150612ece8284612e9c565b6020820191508190509392505050565b5f612ee882612524565b91507fffffffffffffffffffffffffffffffffffffffffffffffffffffffffffffffff8203612f1a57612f19612de0565b5b600182019050919050565b7f554e415554484f52495a454400000000000000000000000000000000000000005f82015250565b5f612f59600c83612484565b9150612f6482612f25565b602082019050919050565b5f6020820190508181035f830152612f8681612f4d565b9050919050565b5f81905092915050565b50565b5f612fa55f83612f8d565b9150612fb082612f97565b5f82019050919050565b5f612fc482612f9a565b9150819050919050565b7f5472616e73666572206661696c65642e000000000000000000000000000000005f82015250565b5f613002601083612484565b915061300d82612fce565b602082019050919050565b5f6020820190508181035f83015261302f81612ff6565b9050919050565b5f6040820190506130495f830185612642565b6130566020830184612912565b9392505050565b5f67ffffffffffffffff82111561307757613076612acd565b5b613080826124bc565b9050602081019050919050565b5f61309f61309a8461305d565b612b2b565b9050828152602081018484840111156130bb576130ba612ac9565b5b6130c6848285612494565b509392505050565b5f82601f8301126130e2576130e16126e5565b5b81516130f284826020860161308d565b91505092915050565b5f602082840312156131105761310f6123bf565b5b5f82015167ffffffffffffffff81111561312d5761312c6123c3565b5b613139848285016130ce565b91505092915050565b5f61314c82612524565b91505f820361315e5761315d612de0565b5b600182039050919050565b5f81519050919050565b5f82825260208201905092915050565b5f61318d82613169565b6131978185613173565b93506131a7818560208601612494565b6131b0816124bc565b840191505092915050565b5f6080820190506131ce5f8301876125b2565b6131db60208301866125b2565b6131e86040830185612642565b81810360608301526131fa8184613183565b905095945050505050565b5f81519050613213816123f2565b92915050565b5f6020828403121561322e5761322d6123bf565b5b5f61323b84828501613205565b9150509291505056fea26469706673582212202d2a849c29021a61977763657d8528fc6ef0bee3058df720574c68ceaf940fc464736f6c634300081a0033",
			"opcodes": "PUSH1 0x80 PUSH1 0x40 MSTORE PUSH1 0x1 PUSH1 0xA SSTORE PUSH2 0x3E8 PUSH1 0xC SSTORE PUSH7 0x11C37937E08000 PUSH1 0xD SSTORE PUSH2 0x17B PUSH1 0xE SSTORE PUSH0 PUSH1 0xF PUSH0 PUSH2 0x100 EXP DUP2 SLOAD DUP2 PUSH1 0xFF MUL NOT AND SWAP1 DUP4 ISZERO ISZERO MUL OR SWAP1 SSTORE POP PUSH0 PUSH1 0xF PUSH1 0x1 PUSH2 0x100 EXP DUP2 SLOAD DUP2 PUSH1 0xFF MUL NOT AND SWAP1 DUP4 ISZERO ISZERO MUL OR SWAP1 SSTORE POP PUSH0 PUSH1 0xF PUSH1 0x2 PUSH2 0x100 EXP DUP2 SLOAD DUP2 PUSH1 0xFF MUL NOT AND SWAP1 DUP4 ISZERO ISZERO MUL OR SWAP1 SSTORE POP CALLVALUE DUP1 ISZERO PUSH2 0x78 JUMPI PUSH0 DUP1 REVERT JUMPDEST POP PUSH1 0x40 MLOAD PUSH2 0x38A6 CODESIZE SUB DUP1 PUSH2 0x38A6 DUP4 CODECOPY DUP2 DUP2 ADD PUSH1 0x40 MSTORE DUP2 ADD SWAP1 PUSH2 0x9A SWAP2 SWAP1 PUSH2 0x2EB JUMP JUMPDEST CALLER PUSH1 0x40 MLOAD DUP1 PUSH1 0x40 ADD PUSH1 0x40 MSTORE DUP1 PUSH1 0x9 DUP2 MSTORE PUSH1 0x20 ADD PUSH32 0x48616D2050657065730000000000000000000000000000000000000000000000 DUP2 MSTORE POP PUSH1 0x40 MLOAD DUP1 PUSH1 0x40 ADD PUSH1 0x40 MSTORE DUP1 PUSH1 0x5 DUP2 MSTORE PUSH1 0x20 ADD PUSH32 0x4850455045000000000000000000000000000000000000000000000000000000 DUP2 MSTORE POP DUP2 PUSH1 0x2 SWAP1 DUP2 PUSH2 0x116 SWAP2 SWAP1 PUSH2 0x550 JUMP JUMPDEST POP DUP1 PUSH1 0x3 SWAP1 DUP2 PUSH2 0x126 SWAP2 SWAP1 PUSH2 0x550 JUMP JUMPDEST POP PUSH2 0x135 PUSH2 0x256 PUSH1 0x20 SHL PUSH1 0x20 SHR JUMP JUMPDEST PUSH0 DUP2 SWAP1 SSTORE POP PUSH2 0x148 PUSH2 0x256 PUSH1 0x20 SHL PUSH1 0x20 SHR JUMP JUMPDEST PUSH2 0x156 PUSH2 0x25E PUSH1 0x20 SHL PUSH1 0x20 SHR JUMP JUMPDEST LT ISZERO PUSH2 0x173 JUMPI PUSH2 0x172 PUSH4 0xFED8210F PUSH1 0xE0 SHL PUSH2 0x285 PUSH1 0x20 SHL PUSH1 0x20 SHR JUMP JUMPDEST JUMPDEST POP POP DUP1 PUSH1 0x9 PUSH0 PUSH2 0x100 EXP DUP2 SLOAD DUP2 PUSH20 0xFFFFFFFFFFFFFFFFFFFFFFFFFFFFFFFFFFFFFFFF MUL NOT AND SWAP1 DUP4 PUSH20 0xFFFFFFFFFFFFFFFFFFFFFFFFFFFFFFFFFFFFFFFF AND MUL OR SWAP1 SSTORE POP DUP1 PUSH20 0xFFFFFFFFFFFFFFFFFFFFFFFFFFFFFFFFFFFFFFFF AND PUSH0 PUSH20 0xFFFFFFFFFFFFFFFFFFFFFFFFFFFFFFFFFFFFFFFF AND PUSH32 0x8BE0079C531659141344CD1FD0A4F28419497F9722A3DAAFE3B4186F6B6457E0 PUSH1 0x40 MLOAD PUSH1 0x40 MLOAD DUP1 SWAP2 SUB SWAP1 LOG3 POP DUP1 PUSH1 0xB PUSH0 PUSH2 0x100 EXP DUP2 SLOAD DUP2 PUSH20 0xFFFFFFFFFFFFFFFFFFFFFFFFFFFFFFFFFFFFFFFF MUL NOT AND SWAP1 DUP4 PUSH20 0xFFFFFFFFFFFFFFFFFFFFFFFFFFFFFFFFFFFFFFFF AND MUL OR SWAP1 SSTORE POP POP PUSH2 0x61F JUMP JUMPDEST PUSH0 PUSH1 0x1 SWAP1 POP SWAP1 JUMP JUMPDEST PUSH0 PUSH32 0xFFFFFFFFFFFFFFFFFFFFFFFFFFFFFFFFFFFFFFFFFFFFFFFFFFFFFFFFFFFFFFFF SWAP1 POP SWAP1 JUMP JUMPDEST DUP1 PUSH0 MSTORE PUSH1 0x4 PUSH0 REVERT JUMPDEST PUSH0 DUP1 REVERT JUMPDEST PUSH0 PUSH20 0xFFFFFFFFFFFFFFFFFFFFFFFFFFFFFFFFFFFFFFFF DUP3 AND SWAP1 POP SWAP2 SWAP1 POP JUMP JUMPDEST PUSH0 PUSH2 0x2BA DUP3 PUSH2 0x291 JUMP JUMPDEST SWAP1 POP SWAP2 SWAP1 POP JUMP JUMPDEST PUSH2 0x2CA DUP2 PUSH2 0x2B0 JUMP JUMPDEST DUP2 EQ PUSH2 0x2D4 JUMPI PUSH0 DUP1 REVERT JUMPDEST POP JUMP JUMPDEST PUSH0 DUP2 MLOAD SWAP1 POP PUSH2 0x2E5 DUP2 PUSH2 0x2C1 JUMP JUMPDEST SWAP3 SWAP2 POP POP JUMP JUMPDEST PUSH0 PUSH1 0x20 DUP3 DUP5 SUB SLT ISZERO PUSH2 0x300 JUMPI PUSH2 0x2FF PUSH2 0x28D JUMP JUMPDEST JUMPDEST PUSH0 PUSH2 0x30D DUP5 DUP3 DUP6 ADD PUSH2 0x2D7 JUMP JUMPDEST SWAP2 POP POP SWAP3 SWAP2 POP POP JUMP JUMPDEST PUSH0 DUP2 MLOAD SWAP1 POP SWAP2 SWAP1 POP JUMP JUMPDEST PUSH32 0x4E487B7100000000000000000000000000000000000000000000000000000000 PUSH0 MSTORE PUSH1 0x41 PUSH1 0x4 MSTORE PUSH1 0x24 PUSH0 REVERT JUMPDEST PUSH32 0x4E487B7100000000000000000000000000000000000000000000000000000000 PUSH0 MSTORE PUSH1 0x22 PUSH1 0x4 MSTORE PUSH1 0x24 PUSH0 REVERT JUMPDEST PUSH0 PUSH1 0x2 DUP3 DIV SWAP1 POP PUSH1 0x1 DUP3 AND DUP1 PUSH2 0x391 JUMPI PUSH1 0x7F DUP3 AND SWAP2 POP JUMPDEST PUSH1 0x20 DUP3 LT DUP2 SUB PUSH2 0x3A4 JUMPI PUSH2 0x3A3 PUSH2 0x34D JUMP JUMPDEST JUMPDEST POP SWAP2 SWAP1 POP JUMP JUMPDEST PUSH0 DUP2 SWAP1 POP DUP2 PUSH0 MSTORE PUSH1 0x20 PUSH0 KECCAK256 SWAP1 POP SWAP2 SWAP1 POP JUMP JUMPDEST PUSH0 PUSH1 0x20 PUSH1 0x1F DUP4 ADD DIV SWAP1 POP SWAP2 SWAP1 POP JUMP JUMPDEST PUSH0 DUP3 DUP3 SHL SWAP1 POP SWAP3 SWAP2 POP POP JUMP JUMPDEST PUSH0 PUSH1 0x8 DUP4 MUL PUSH2 0x406 PUSH32 0xFFFFFFFFFFFFFFFFFFFFFFFFFFFFFFFFFFFFFFFFFFFFFFFFFFFFFFFFFFFFFFFF DUP3 PUSH2 0x3CB JUMP JUMPDEST PUSH2 0x410 DUP7 DUP4 PUSH2 0x3CB JUMP JUMPDEST SWAP6 POP DUP1 NOT DUP5 AND SWAP4 POP DUP1 DUP7 AND DUP5 OR SWAP3 POP POP POP SWAP4 SWAP3 POP POP POP JUMP JUMPDEST PUSH0 DUP2 SWAP1 POP SWAP2 SWAP1 POP JUMP JUMPDEST PUSH0 DUP2 SWAP1 POP SWAP2 SWAP1 POP JUMP JUMPDEST PUSH0 PUSH2 0x454 PUSH2 0x44F PUSH2 0x44A DUP5 PUSH2 0x428 JUMP JUMPDEST PUSH2 0x431 JUMP JUMPDEST PUSH2 0x428 JUMP JUMPDEST SWAP1 POP SWAP2 SWAP1 POP JUMP JUMPDEST PUSH0 DUP2 SWAP1 POP SWAP2 SWAP1 POP JUMP JUMPDEST PUSH2 0x46D DUP4 PUSH2 0x43A JUMP JUMPDEST PUSH2 0x481 PUSH2 0x479 DUP3 PUSH2 0x45B JUMP JUMPDEST DUP5 DUP5 SLOAD PUSH2 0x3D7 JUMP JUMPDEST DUP3 SSTORE POP POP POP POP JUMP JUMPDEST PUSH0 SWAP1 JUMP JUMPDEST PUSH2 0x495 PUSH2 0x489 JUMP JUMPDEST PUSH2 0x4A0 DUP2 DUP5 DUP5 PUSH2 0x464 JUMP JUMPDEST POP POP POP JUMP JUMPDEST JUMPDEST DUP2 DUP2 LT ISZERO PUSH2 0x4C3 JUMPI PUSH2 0x4B8 PUSH0 DUP3 PUSH2 0x48D JUMP JUMPDEST PUSH1 0x1 DUP2 ADD SWAP1 POP PUSH2 0x4A6 JUMP JUMPDEST POP POP JUMP JUMPDEST PUSH1 0x1F DUP3 GT ISZERO PUSH2 0x508 JUMPI PUSH2 0x4D9 DUP2 PUSH2 0x3AA JUMP JUMPDEST PUSH2 0x4E2 DUP5 PUSH2 0x3BC JUMP JUMPDEST DUP2 ADD PUSH1 0x20 DUP6 LT ISZERO PUSH2 0x4F1 JUMPI DUP2 SWAP1 POP JUMPDEST PUSH2 0x505 PUSH2 0x4FD DUP6 PUSH2 0x3BC JUMP JUMPDEST DUP4 ADD DUP3 PUSH2 0x4A5 JUMP JUMPDEST POP POP JUMPDEST POP POP POP JUMP JUMPDEST PUSH0 DUP3 DUP3 SHR SWAP1 POP SWAP3 SWAP2 POP POP JUMP JUMPDEST PUSH0 PUSH2 0x528 PUSH0 NOT DUP5 PUSH1 0x8 MUL PUSH2 0x50D JUMP JUMPDEST NOT DUP1 DUP4 AND SWAP2 POP POP SWAP3 SWAP2 POP POP JUMP JUMPDEST PUSH0 PUSH2 0x540 DUP4 DUP4 PUSH2 0x519 JUMP JUMPDEST SWAP2 POP DUP3 PUSH1 0x2 MUL DUP3 OR SWAP1 POP SWAP3 SWAP2 POP POP JUMP JUMPDEST PUSH2 0x559 DUP3 PUSH2 0x316 JUMP JUMPDEST PUSH8 0xFFFFFFFFFFFFFFFF DUP2 GT ISZERO PUSH2 0x572 JUMPI PUSH2 0x571 PUSH2 0x320 JUMP JUMPDEST JUMPDEST PUSH2 0x57C DUP3 SLOAD PUSH2 0x37A JUMP JUMPDEST PUSH2 0x587 DUP3 DUP3 DUP6 PUSH2 0x4C7 JUMP JUMPDEST PUSH0 PUSH1 0x20 SWAP1 POP PUSH1 0x1F DUP4 GT PUSH1 0x1 DUP2 EQ PUSH2 0x5B8 JUMPI PUSH0 DUP5 ISZERO PUSH2 0x5A6 JUMPI DUP3 DUP8 ADD MLOAD SWAP1 POP JUMPDEST PUSH2 0x5B0 DUP6 DUP3 PUSH2 0x535 JUMP JUMPDEST DUP7 SSTORE POP PUSH2 0x617 JUMP JUMPDEST PUSH1 0x1F NOT DUP5 AND PUSH2 0x5C6 DUP7 PUSH2 0x3AA JUMP JUMPDEST PUSH0 JUMPDEST DUP3 DUP2 LT ISZERO PUSH2 0x5ED JUMPI DUP5 DUP10 ADD MLOAD DUP3 SSTORE PUSH1 0x1 DUP3 ADD SWAP2 POP PUSH1 0x20 DUP6 ADD SWAP5 POP PUSH1 0x20 DUP2 ADD SWAP1 POP PUSH2 0x5C8 JUMP JUMPDEST DUP7 DUP4 LT ISZERO PUSH2 0x60A JUMPI DUP5 DUP10 ADD MLOAD PUSH2 0x606 PUSH1 0x1F DUP10 AND DUP3 PUSH2 0x519 JUMP JUMPDEST DUP4 SSTORE POP JUMPDEST PUSH1 0x1 PUSH1 0x2 DUP9 MUL ADD DUP9 SSTORE POP POP POP JUMPDEST POP POP POP POP POP POP JUMP JUMPDEST PUSH2 0x327A DUP1 PUSH2 0x62C PUSH0 CODECOPY PUSH0 RETURN INVALID PUSH1 0x80 PUSH1 0x40 MSTORE PUSH1 0x4 CALLDATASIZE LT PUSH2 0x1ED JUMPI PUSH0 CALLDATALOAD PUSH1 0xE0 SHR DUP1 PUSH4 0x70A08231 GT PUSH2 0x10C JUMPI DUP1 PUSH4 0xBEB81891 GT PUSH2 0x9F JUMPI DUP1 PUSH4 0xD12F743A GT PUSH2 0x6E JUMPI DUP1 PUSH4 0xD12F743A EQ PUSH2 0x6CB JUMPI DUP1 PUSH4 0xD2C59D51 EQ PUSH2 0x6F5 JUMPI DUP1 PUSH4 0xE985E9C5 EQ PUSH2 0x70B JUMPI DUP1 PUSH4 0xED6661C2 EQ PUSH2 0x747 JUMPI DUP1 PUSH4 0xF2FDE38B EQ PUSH2 0x771 JUMPI PUSH2 0x1ED JUMP JUMPDEST DUP1 PUSH4 0xBEB81891 EQ PUSH2 0x5FF JUMPI DUP1 PUSH4 0xC23DC68F EQ PUSH2 0x629 JUMPI DUP1 PUSH4 0xC662E481 EQ PUSH2 0x665 JUMPI DUP1 PUSH4 0xC87B56DD EQ PUSH2 0x68F JUMPI PUSH2 0x1ED JUMP JUMPDEST DUP1 PUSH4 0x95D89B41 GT PUSH2 0xDB JUMPI DUP1 PUSH4 0x95D89B41 EQ PUSH2 0x555 JUMPI DUP1 PUSH4 0x99A2557A EQ PUSH2 0x57F JUMPI DUP1 PUSH4 0xA22CB465 EQ PUSH2 0x5BB JUMPI DUP1 PUSH4 0xB88D4FDE EQ PUSH2 0x5E3 JUMPI PUSH2 0x1ED JUMP JUMPDEST DUP1 PUSH4 0x70A08231 EQ PUSH2 0x477 JUMPI DUP1 PUSH4 0x75E91691 EQ PUSH2 0x4B3 JUMPI DUP1 PUSH4 0x8462151C EQ PUSH2 0x4EF JUMPI DUP1 PUSH4 0x8DA5CB5B EQ PUSH2 0x52B JUMPI PUSH2 0x1ED JUMP JUMPDEST DUP1 PUSH4 0x32CB6B0C GT PUSH2 0x184 JUMPI DUP1 PUSH4 0x4A7D3E81 GT PUSH2 0x153 JUMPI DUP1 PUSH4 0x4A7D3E81 EQ PUSH2 0x3D3 JUMPI DUP1 PUSH4 0x5BBB2177 EQ PUSH2 0x3E9 JUMPI DUP1 PUSH4 0x6352211E EQ PUSH2 0x425 JUMPI DUP1 PUSH4 0x6B8A21FC EQ PUSH2 0x461 JUMPI PUSH2 0x1ED JUMP JUMPDEST DUP1 PUSH4 0x32CB6B0C EQ PUSH2 0x33B JUMPI DUP1 PUSH4 0x3CCFD60B EQ PUSH2 0x365 JUMPI DUP1 PUSH4 0x42842E0E EQ PUSH2 0x37B JUMPI DUP1 PUSH4 0x438A67E7 EQ PUSH2 0x397 JUMPI PUSH2 0x1ED JUMP JUMPDEST DUP1 PUSH4 0x18160DDD GT PUSH2 0x1C0 JUMPI DUP1 PUSH4 0x18160DDD EQ PUSH2 0x2AF JUMPI DUP1 PUSH4 0x187E0F17 EQ PUSH2 0x2D9 JUMPI DUP1 PUSH4 0x23B872DD EQ PUSH2 0x303 JUMPI DUP1 PUSH4 0x2DB11544 EQ PUSH2 0x31F JUMPI PUSH2 0x1ED JUMP JUMPDEST DUP1 PUSH4 0x1FFC9A7 EQ PUSH2 0x1F1 JUMPI DUP1 PUSH4 0x6FDDE03 EQ PUSH2 0x22D JUMPI DUP1 PUSH4 0x81812FC EQ PUSH2 0x257 JUMPI DUP1 PUSH4 0x95EA7B3 EQ PUSH2 0x293 JUMPI JUMPDEST PUSH0 DUP1 REVERT JUMPDEST CALLVALUE DUP1 ISZERO PUSH2 0x1FC JUMPI PUSH0 DUP1 REVERT JUMPDEST POP PUSH2 0x217 PUSH1 0x4 DUP1 CALLDATASIZE SUB DUP2 ADD SWAP1 PUSH2 0x212 SWAP2 SWAP1 PUSH2 0x241C JUMP JUMPDEST PUSH2 0x799 JUMP JUMPDEST PUSH1 0x40 MLOAD PUSH2 0x224 SWAP2 SWAP1 PUSH2 0x2461 JUMP JUMPDEST PUSH1 0x40 MLOAD DUP1 SWAP2 SUB SWAP1 RETURN JUMPDEST CALLVALUE DUP1 ISZERO PUSH2 0x238 JUMPI PUSH0 DUP1 REVERT JUMPDEST POP PUSH2 0x241 PUSH2 0x82A JUMP JUMPDEST PUSH1 0x40 MLOAD PUSH2 0x24E SWAP2 SWAP1 PUSH2 0x2504 JUMP JUMPDEST PUSH1 0x40 MLOAD DUP1 SWAP2 SUB SWAP1 RETURN JUMPDEST CALLVALUE DUP1 ISZERO PUSH2 0x262 JUMPI PUSH0 DUP1 REVERT JUMPDEST POP PUSH2 0x27D PUSH1 0x4 DUP1 CALLDATASIZE SUB DUP2 ADD SWAP1 PUSH2 0x278 SWAP2 SWAP1 PUSH2 0x2557 JUMP JUMPDEST PUSH2 0x8BA JUMP JUMPDEST PUSH1 0x40 MLOAD PUSH2 0x28A SWAP2 SWAP1 PUSH2 0x25C1 JUMP JUMPDEST PUSH1 0x40 MLOAD DUP1 SWAP2 SUB SWAP1 RETURN JUMPDEST PUSH2 0x2AD PUSH1 0x4 DUP1 CALLDATASIZE SUB DUP2 ADD SWAP1 PUSH2 0x2A8 SWAP2 SWAP1 PUSH2 0x2604 JUMP JUMPDEST PUSH2 0x913 JUMP JUMPDEST STOP JUMPDEST CALLVALUE DUP1 ISZERO PUSH2 0x2BA JUMPI PUSH0 DUP1 REVERT JUMPDEST POP PUSH2 0x2C3 PUSH2 0x923 JUMP JUMPDEST PUSH1 0x40 MLOAD PUSH2 0x2D0 SWAP2 SWAP1 PUSH2 0x2651 JUMP JUMPDEST PUSH1 0x40 MLOAD DUP1 SWAP2 SUB SWAP1 RETURN JUMPDEST CALLVALUE DUP1 ISZERO PUSH2 0x2E4 JUMPI PUSH0 DUP1 REVERT JUMPDEST POP PUSH2 0x2ED PUSH2 0x96E JUMP JUMPDEST PUSH1 0x40 MLOAD PUSH2 0x2FA SWAP2 SWAP1 PUSH2 0x2461 JUMP JUMPDEST PUSH1 0x40 MLOAD DUP1 SWAP2 SUB SWAP1 RETURN JUMPDEST PUSH2 0x31D PUSH1 0x4 DUP1 CALLDATASIZE SUB DUP2 ADD SWAP1 PUSH2 0x318 SWAP2 SWAP1 PUSH2 0x266A JUMP JUMPDEST PUSH2 0x981 JUMP JUMPDEST STOP JUMPDEST PUSH2 0x339 PUSH1 0x4 DUP1 CALLDATASIZE SUB DUP2 ADD SWAP1 PUSH2 0x334 SWAP2 SWAP1 PUSH2 0x2557 JUMP JUMPDEST PUSH2 0xC2C JUMP JUMPDEST STOP JUMPDEST CALLVALUE DUP1 ISZERO PUSH2 0x346 JUMPI PUSH0 DUP1 REVERT JUMPDEST POP PUSH2 0x34F PUSH2 0xEE0 JUMP JUMPDEST PUSH1 0x40 MLOAD PUSH2 0x35C SWAP2 SWAP1 PUSH2 0x2651 JUMP JUMPDEST PUSH1 0x40 MLOAD DUP1 SWAP2 SUB SWAP1 RETURN JUMPDEST CALLVALUE DUP1 ISZERO PUSH2 0x370 JUMPI PUSH0 DUP1 REVERT JUMPDEST POP PUSH2 0x379 PUSH2 0xEE6 JUMP JUMPDEST STOP JUMPDEST PUSH2 0x395 PUSH1 0x4 DUP1 CALLDATASIZE SUB DUP2 ADD SWAP1 PUSH2 0x390 SWAP2 SWAP1 PUSH2 0x266A JUMP JUMPDEST PUSH2 0x1075 JUMP JUMPDEST STOP JUMPDEST CALLVALUE DUP1 ISZERO PUSH2 0x3A2 JUMPI PUSH0 DUP1 REVERT JUMPDEST POP PUSH2 0x3BD PUSH1 0x4 DUP1 CALLDATASIZE SUB DUP2 ADD SWAP1 PUSH2 0x3B8 SWAP2 SWAP1 PUSH2 0x26BA JUMP JUMPDEST PUSH2 0x1094 JUMP JUMPDEST PUSH1 0x40 MLOAD PUSH2 0x3CA SWAP2 SWAP1 PUSH2 0x2651 JUMP JUMPDEST PUSH1 0x40 MLOAD DUP1 SWAP2 SUB SWAP1 RETURN JUMPDEST CALLVALUE DUP1 ISZERO PUSH2 0x3DE JUMPI PUSH0 DUP1 REVERT JUMPDEST POP PUSH2 0x3E7 PUSH2 0x10A9 JUMP JUMPDEST STOP JUMPDEST CALLVALUE DUP1 ISZERO PUSH2 0x3F4 JUMPI PUSH0 DUP1 REVERT JUMPDEST POP PUSH2 0x40F PUSH1 0x4 DUP1 CALLDATASIZE SUB DUP2 ADD SWAP1 PUSH2 0x40A SWAP2 SWAP1 PUSH2 0x2746 JUMP JUMPDEST PUSH2 0x1162 JUMP JUMPDEST PUSH1 0x40 MLOAD PUSH2 0x41C SWAP2 SWAP1 PUSH2 0x28E9 JUMP JUMPDEST PUSH1 0x40 MLOAD DUP1 SWAP2 SUB SWAP1 RETURN JUMPDEST CALLVALUE DUP1 ISZERO PUSH2 0x430 JUMPI PUSH0 DUP1 REVERT JUMPDEST POP PUSH2 0x44B PUSH1 0x4 DUP1 CALLDATASIZE SUB DUP2 ADD SWAP1 PUSH2 0x446 SWAP2 SWAP1 PUSH2 0x2557 JUMP JUMPDEST PUSH2 0x11BE JUMP JUMPDEST PUSH1 0x40 MLOAD PUSH2 0x458 SWAP2 SWAP1 PUSH2 0x25C1 JUMP JUMPDEST PUSH1 0x40 MLOAD DUP1 SWAP2 SUB SWAP1 RETURN JUMPDEST CALLVALUE DUP1 ISZERO PUSH2 0x46C JUMPI PUSH0 DUP1 REVERT JUMPDEST POP PUSH2 0x475 PUSH2 0x11CF JUMP JUMPDEST STOP JUMPDEST CALLVALUE DUP1 ISZERO PUSH2 0x482 JUMPI PUSH0 DUP1 REVERT JUMPDEST POP PUSH2 0x49D PUSH1 0x4 DUP1 CALLDATASIZE SUB DUP2 ADD SWAP1 PUSH2 0x498 SWAP2 SWAP1 PUSH2 0x26BA JUMP JUMPDEST PUSH2 0x128A JUMP JUMPDEST PUSH1 0x40 MLOAD PUSH2 0x4AA SWAP2 SWAP1 PUSH2 0x2651 JUMP JUMPDEST PUSH1 0x40 MLOAD DUP1 SWAP2 SUB SWAP1 RETURN JUMPDEST CALLVALUE DUP1 ISZERO PUSH2 0x4BE JUMPI PUSH0 DUP1 REVERT JUMPDEST POP PUSH2 0x4D9 PUSH1 0x4 DUP1 CALLDATASIZE SUB DUP2 ADD SWAP1 PUSH2 0x4D4 SWAP2 SWAP1 PUSH2 0x2557 JUMP JUMPDEST PUSH2 0x131E JUMP JUMPDEST PUSH1 0x40 MLOAD PUSH2 0x4E6 SWAP2 SWAP1 PUSH2 0x2921 JUMP JUMPDEST PUSH1 0x40 MLOAD DUP1 SWAP2 SUB SWAP1 RETURN JUMPDEST CALLVALUE DUP1 ISZERO PUSH2 0x4FA JUMPI PUSH0 DUP1 REVERT JUMPDEST POP PUSH2 0x515 PUSH1 0x4 DUP1 CALLDATASIZE SUB DUP2 ADD SWAP1 PUSH2 0x510 SWAP2 SWAP1 PUSH2 0x26BA JUMP JUMPDEST PUSH2 0x1333 JUMP JUMPDEST PUSH1 0x40 MLOAD PUSH2 0x522 SWAP2 SWAP1 PUSH2 0x29F1 JUMP JUMPDEST PUSH1 0x40 MLOAD DUP1 SWAP2 SUB SWAP1 RETURN JUMPDEST CALLVALUE DUP1 ISZERO PUSH2 0x536 JUMPI PUSH0 DUP1 REVERT JUMPDEST POP PUSH2 0x53F PUSH2 0x13AC JUMP JUMPDEST PUSH1 0x40 MLOAD PUSH2 0x54C SWAP2 SWAP1 PUSH2 0x25C1 JUMP JUMPDEST PUSH1 0x40 MLOAD DUP1 SWAP2 SUB SWAP1 RETURN JUMPDEST CALLVALUE DUP1 ISZERO PUSH2 0x560 JUMPI PUSH0 DUP1 REVERT JUMPDEST POP PUSH2 0x569 PUSH2 0x13D1 JUMP JUMPDEST PUSH1 0x40 MLOAD PUSH2 0x576 SWAP2 SWAP1 PUSH2 0x2504 JUMP JUMPDEST PUSH1 0x40 MLOAD DUP1 SWAP2 SUB SWAP1 RETURN JUMPDEST CALLVALUE DUP1 ISZERO PUSH2 0x58A JUMPI PUSH0 DUP1 REVERT JUMPDEST POP PUSH2 0x5A5 PUSH1 0x4 DUP1 CALLDATASIZE SUB DUP2 ADD SWAP1 PUSH2 0x5A0 SWAP2 SWAP1 PUSH2 0x2A11 JUMP JUMPDEST PUSH2 0x1461 JUMP JUMPDEST PUSH1 0x40 MLOAD PUSH2 0x5B2 SWAP2 SWAP1 PUSH2 0x29F1 JUMP JUMPDEST PUSH1 0x40 MLOAD DUP1 SWAP2 SUB SWAP1 RETURN JUMPDEST CALLVALUE DUP1 ISZERO PUSH2 0x5C6 JUMPI PUSH0 DUP1 REVERT JUMPDEST POP PUSH2 0x5E1 PUSH1 0x4 DUP1 CALLDATASIZE SUB DUP2 ADD SWAP1 PUSH2 0x5DC SWAP2 SWAP1 PUSH2 0x2A8B JUMP JUMPDEST PUSH2 0x1477 JUMP JUMPDEST STOP JUMPDEST PUSH2 0x5FD PUSH1 0x4 DUP1 CALLDATASIZE SUB DUP2 ADD SWAP1 PUSH2 0x5F8 SWAP2 SWAP1 PUSH2 0x2BF1 JUMP JUMPDEST PUSH2 0x157D JUMP JUMPDEST STOP JUMPDEST CALLVALUE DUP1 ISZERO PUSH2 0x60A JUMPI PUSH0 DUP1 REVERT JUMPDEST POP PUSH2 0x613 PUSH2 0x15CE JUMP JUMPDEST PUSH1 0x40 MLOAD PUSH2 0x620 SWAP2 SWAP1 PUSH2 0x2461 JUMP JUMPDEST PUSH1 0x40 MLOAD DUP1 SWAP2 SUB SWAP1 RETURN JUMPDEST CALLVALUE DUP1 ISZERO PUSH2 0x634 JUMPI PUSH0 DUP1 REVERT JUMPDEST POP PUSH2 0x64F PUSH1 0x4 DUP1 CALLDATASIZE SUB DUP2 ADD SWAP1 PUSH2 0x64A SWAP2 SWAP1 PUSH2 0x2557 JUMP JUMPDEST PUSH2 0x15E0 JUMP JUMPDEST PUSH1 0x40 MLOAD PUSH2 0x65C SWAP2 SWAP1 PUSH2 0x2CC4 JUMP JUMPDEST PUSH1 0x40 MLOAD DUP1 SWAP2 SUB SWAP1 RETURN JUMPDEST CALLVALUE DUP1 ISZERO PUSH2 0x670 JUMPI PUSH0 DUP1 REVERT JUMPDEST POP PUSH2 0x679 PUSH2 0x1655 JUMP JUMPDEST PUSH1 0x40 MLOAD PUSH2 0x686 SWAP2 SWAP1 PUSH2 0x2651 JUMP JUMPDEST PUSH1 0x40 MLOAD DUP1 SWAP2 SUB SWAP1 RETURN JUMPDEST CALLVALUE DUP1 ISZERO PUSH2 0x69A JUMPI PUSH0 DUP1 REVERT JUMPDEST POP PUSH2 0x6B5 PUSH1 0x4 DUP1 CALLDATASIZE SUB DUP2 ADD SWAP1 PUSH2 0x6B0 SWAP2 SWAP1 PUSH2 0x2557 JUMP JUMPDEST PUSH2 0x165B JUMP JUMPDEST PUSH1 0x40 MLOAD PUSH2 0x6C2 SWAP2 SWAP1 PUSH2 0x2504 JUMP JUMPDEST PUSH1 0x40 MLOAD DUP1 SWAP2 SUB SWAP1 RETURN JUMPDEST CALLVALUE DUP1 ISZERO PUSH2 0x6D6 JUMPI PUSH0 DUP1 REVERT JUMPDEST POP PUSH2 0x6DF PUSH2 0x1713 JUMP JUMPDEST PUSH1 0x40 MLOAD PUSH2 0x6EC SWAP2 SWAP1 PUSH2 0x2461 JUMP JUMPDEST PUSH1 0x40 MLOAD DUP1 SWAP2 SUB SWAP1 RETURN JUMPDEST CALLVALUE DUP1 ISZERO PUSH2 0x700 JUMPI PUSH0 DUP1 REVERT JUMPDEST POP PUSH2 0x709 PUSH2 0x1726 JUMP JUMPDEST STOP JUMPDEST CALLVALUE DUP1 ISZERO PUSH2 0x716 JUMPI PUSH0 DUP1 REVERT JUMPDEST POP PUSH2 0x731 PUSH1 0x4 DUP1 CALLDATASIZE SUB DUP2 ADD SWAP1 PUSH2 0x72C SWAP2 SWAP1 PUSH2 0x2CDD JUMP JUMPDEST PUSH2 0x17E1 JUMP JUMPDEST PUSH1 0x40 MLOAD PUSH2 0x73E SWAP2 SWAP1 PUSH2 0x2461 JUMP JUMPDEST PUSH1 0x40 MLOAD DUP1 SWAP2 SUB SWAP1 RETURN JUMPDEST CALLVALUE DUP1 ISZERO PUSH2 0x752 JUMPI PUSH0 DUP1 REVERT JUMPDEST POP PUSH2 0x75B PUSH2 0x186F JUMP JUMPDEST PUSH1 0x40 MLOAD PUSH2 0x768 SWAP2 SWAP1 PUSH2 0x2651 JUMP JUMPDEST PUSH1 0x40 MLOAD DUP1 SWAP2 SUB SWAP1 RETURN JUMPDEST CALLVALUE DUP1 ISZERO PUSH2 0x77C JUMPI PUSH0 DUP1 REVERT JUMPDEST POP PUSH2 0x797 PUSH1 0x4 DUP1 CALLDATASIZE SUB DUP2 ADD SWAP1 PUSH2 0x792 SWAP2 SWAP1 PUSH2 0x26BA JUMP JUMPDEST PUSH2 0x1875 JUMP JUMPDEST STOP JUMPDEST PUSH0 PUSH4 0x1FFC9A7 PUSH1 0xE0 SHL DUP3 PUSH28 0xFFFFFFFFFFFFFFFFFFFFFFFFFFFFFFFFFFFFFFFFFFFFFFFFFFFFFFFF NOT AND EQ DUP1 PUSH2 0x7F3 JUMPI POP PUSH4 0x80AC58CD PUSH1 0xE0 SHL DUP3 PUSH28 0xFFFFFFFFFFFFFFFFFFFFFFFFFFFFFFFFFFFFFFFFFFFFFFFFFFFFFFFF NOT AND EQ JUMPDEST DUP1 PUSH2 0x823 JUMPI POP PUSH4 0x5B5E139F PUSH1 0xE0 SHL DUP3 PUSH28 0xFFFFFFFFFFFFFFFFFFFFFFFFFFFFFFFFFFFFFFFFFFFFFFFFFFFFFFFF NOT AND EQ JUMPDEST SWAP1 POP SWAP2 SWAP1 POP JUMP JUMPDEST PUSH1 0x60 PUSH1 0x2 DUP1 SLOAD PUSH2 0x839 SWAP1 PUSH2 0x2D48 JUMP JUMPDEST DUP1 PUSH1 0x1F ADD PUSH1 0x20 DUP1 SWAP2 DIV MUL PUSH1 0x20 ADD PUSH1 0x40 MLOAD SWAP1 DUP2 ADD PUSH1 0x40 MSTORE DUP1 SWAP3 SWAP2 SWAP1 DUP2 DUP2 MSTORE PUSH1 0x20 ADD DUP3 DUP1 SLOAD PUSH2 0x865 SWAP1 PUSH2 0x2D48 JUMP JUMPDEST DUP1 ISZERO PUSH2 0x8B0 JUMPI DUP1 PUSH1 0x1F LT PUSH2 0x887 JUMPI PUSH2 0x100 DUP1 DUP4 SLOAD DIV MUL DUP4 MSTORE SWAP2 PUSH1 0x20 ADD SWAP2 PUSH2 0x8B0 JUMP JUMPDEST DUP3 ADD SWAP2 SWAP1 PUSH0 MSTORE PUSH1 0x20 PUSH0 KECCAK256 SWAP1 JUMPDEST DUP2 SLOAD DUP2 MSTORE SWAP1 PUSH1 0x1 ADD SWAP1 PUSH1 0x20 ADD DUP1 DUP4 GT PUSH2 0x893 JUMPI DUP3 SWAP1 SUB PUSH1 0x1F AND DUP3 ADD SWAP2 JUMPDEST POP POP POP POP POP SWAP1 POP SWAP1 JUMP JUMPDEST PUSH0 PUSH2 0x8C4 DUP3 PUSH2 0x19A1 JUMP JUMPDEST PUSH2 0x8D9 JUMPI PUSH2 0x8D8 PUSH4 0xCF4700E4 PUSH1 0xE0 SHL PUSH2 0x1A44 JUMP JUMPDEST JUMPDEST PUSH1 0x6 PUSH0 DUP4 DUP2 MSTORE PUSH1 0x20 ADD SWAP1 DUP2 MSTORE PUSH1 0x20 ADD PUSH0 KECCAK256 PUSH0 ADD PUSH0 SWAP1 SLOAD SWAP1 PUSH2 0x100 EXP SWAP1 DIV PUSH20 0xFFFFFFFFFFFFFFFFFFFFFFFFFFFFFFFFFFFFFFFF AND SWAP1 POP SWAP2 SWAP1 POP JUMP JUMPDEST PUSH2 0x91F DUP3 DUP3 PUSH1 0x1 PUSH2 0x1A4C JUMP JUMPDEST POP POP JUMP JUMPDEST PUSH0 PUSH2 0x92C PUSH2 0x1B76 JUMP JUMPDEST PUSH1 0x1 SLOAD PUSH0 SLOAD SUB SUB SWAP1 POP PUSH32 0xFFFFFFFFFFFFFFFFFFFFFFFFFFFFFFFFFFFFFFFFFFFFFFFFFFFFFFFFFFFFFFFF PUSH2 0x95E PUSH2 0x1B7E JUMP JUMPDEST EQ PUSH2 0x96B JUMPI PUSH1 0x8 SLOAD DUP2 ADD SWAP1 POP JUMPDEST SWAP1 JUMP JUMPDEST PUSH1 0xF PUSH1 0x2 SWAP1 SLOAD SWAP1 PUSH2 0x100 EXP SWAP1 DIV PUSH1 0xFF AND DUP2 JUMP JUMPDEST PUSH0 PUSH2 0x98B DUP3 PUSH2 0x1BA5 JUMP JUMPDEST SWAP1 POP PUSH20 0xFFFFFFFFFFFFFFFFFFFFFFFFFFFFFFFFFFFFFFFF DUP5 PUSH20 0xFFFFFFFFFFFFFFFFFFFFFFFFFFFFFFFFFFFFFFFF AND AND SWAP4 POP DUP4 PUSH20 0xFFFFFFFFFFFFFFFFFFFFFFFFFFFFFFFFFFFFFFFF AND DUP2 PUSH20 0xFFFFFFFFFFFFFFFFFFFFFFFFFFFFFFFFFFFFFFFF AND EQ PUSH2 0xA00 JUMPI PUSH2 0x9FF PUSH4 0xA1148100 PUSH1 0xE0 SHL PUSH2 0x1A44 JUMP JUMPDEST JUMPDEST PUSH0 DUP1 PUSH2 0xA0B DUP5 PUSH2 0x1CB4 JUMP JUMPDEST SWAP2 POP SWAP2 POP PUSH2 0xA21 DUP2 DUP8 PUSH2 0xA1C PUSH2 0x1CD7 JUMP JUMPDEST PUSH2 0x1CDE JUMP JUMPDEST PUSH2 0xA4C JUMPI PUSH2 0xA36 DUP7 PUSH2 0xA31 PUSH2 0x1CD7 JUMP JUMPDEST PUSH2 0x17E1 JUMP JUMPDEST PUSH2 0xA4B JUMPI PUSH2 0xA4A PUSH4 0x59C896BE PUSH1 0xE0 SHL PUSH2 0x1A44 JUMP JUMPDEST JUMPDEST JUMPDEST PUSH2 0xA59 DUP7 DUP7 DUP7 PUSH1 0x1 PUSH2 0x1D21 JUMP JUMPDEST DUP1 ISZERO PUSH2 0xA63 JUMPI PUSH0 DUP3 SSTORE JUMPDEST PUSH1 0x5 PUSH0 DUP8 PUSH20 0xFFFFFFFFFFFFFFFFFFFFFFFFFFFFFFFFFFFFFFFF AND PUSH20 0xFFFFFFFFFFFFFFFFFFFFFFFFFFFFFFFFFFFFFFFF AND DUP2 MSTORE PUSH1 0x20 ADD SWAP1 DUP2 MSTORE PUSH1 0x20 ADD PUSH0 KECCAK256 PUSH0 DUP2 SLOAD PUSH1 0x1 SWAP1 SUB SWAP2 SWAP1 POP DUP2 SWAP1 SSTORE POP PUSH1 0x5 PUSH0 DUP7 PUSH20 0xFFFFFFFFFFFFFFFFFFFFFFFFFFFFFFFFFFFFFFFF AND PUSH20 0xFFFFFFFFFFFFFFFFFFFFFFFFFFFFFFFFFFFFFFFF AND DUP2 MSTORE PUSH1 0x20 ADD SWAP1 DUP2 MSTORE PUSH1 0x20 ADD PUSH0 KECCAK256 PUSH0 DUP2 SLOAD PUSH1 0x1 ADD SWAP2 SWAP1 POP DUP2 SWAP1 SSTORE POP PUSH2 0xB2B DUP6 PUSH2 0xB07 DUP9 DUP9 DUP8 PUSH2 0x1D27 JUMP JUMPDEST PUSH29 0x200000000000000000000000000000000000000000000000000000000 OR PUSH2 0x1D4E JUMP JUMPDEST PUSH1 0x4 PUSH0 DUP7 DUP2 MSTORE PUSH1 0x20 ADD SWAP1 DUP2 MSTORE PUSH1 0x20 ADD PUSH0 KECCAK256 DUP2 SWAP1 SSTORE POP PUSH0 PUSH29 0x200000000000000000000000000000000000000000000000000000000 DUP5 AND SUB PUSH2 0xBA7 JUMPI PUSH0 PUSH1 0x1 DUP6 ADD SWAP1 POP PUSH0 PUSH1 0x4 PUSH0 DUP4 DUP2 MSTORE PUSH1 0x20 ADD SWAP1 DUP2 MSTORE PUSH1 0x20 ADD PUSH0 KECCAK256 SLOAD SUB PUSH2 0xBA5 JUMPI PUSH0 SLOAD DUP2 EQ PUSH2 0xBA4 JUMPI DUP4 PUSH1 0x4 PUSH0 DUP4 DUP2 MSTORE PUSH1 0x20 ADD SWAP1 DUP2 MSTORE PUSH1 0x20 ADD PUSH0 KECCAK256 DUP2 SWAP1 SSTORE POP JUMPDEST JUMPDEST POP JUMPDEST PUSH0 PUSH20 0xFFFFFFFFFFFFFFFFFFFFFFFFFFFFFFFFFFFFFFFF DUP7 PUSH20 0xFFFFFFFFFFFFFFFFFFFFFFFFFFFFFFFFFFFFFFFF AND AND SWAP1 POP DUP5 DUP2 DUP9 PUSH32 0xDDF252AD1BE2C89B69C2B068FC378DAA952BA7F163C4A11628F55A4DF523B3EF PUSH0 DUP1 LOG4 PUSH0 DUP2 SUB PUSH2 0xC16 JUMPI PUSH2 0xC15 PUSH4 0xEA553B34 PUSH1 0xE0 SHL PUSH2 0x1A44 JUMP JUMPDEST JUMPDEST PUSH2 0xC23 DUP8 DUP8 DUP8 PUSH1 0x1 PUSH2 0x1D78 JUMP JUMPDEST POP POP POP POP POP POP POP JUMP JUMPDEST PUSH1 0x1 PUSH1 0xA SLOAD EQ PUSH2 0xC71 JUMPI PUSH1 0x40 MLOAD PUSH32 0x8C379A000000000000000000000000000000000000000000000000000000000 DUP2 MSTORE PUSH1 0x4 ADD PUSH2 0xC68 SWAP1 PUSH2 0x2DC2 JUMP JUMPDEST PUSH1 0x40 MLOAD DUP1 SWAP2 SUB SWAP1 REVERT JUMPDEST PUSH1 0x2 PUSH1 0xA DUP2 SWAP1 SSTORE POP PUSH1 0x1 PUSH1 0xF PUSH1 0x2 PUSH2 0x100 EXP DUP2 SLOAD DUP2 PUSH1 0xFF MUL NOT AND SWAP1 DUP4 ISZERO ISZERO MUL OR SWAP1 SSTORE PUSH2 0xC9B JUMPI PUSH0 DUP1 REVERT JUMPDEST PUSH1 0x4 DUP2 PUSH1 0x11 PUSH0 CALLER PUSH20 0xFFFFFFFFFFFFFFFFFFFFFFFFFFFFFFFFFFFFFFFF AND PUSH20 0xFFFFFFFFFFFFFFFFFFFFFFFFFFFFFFFFFFFFFFFF AND DUP2 MSTORE PUSH1 0x20 ADD SWAP1 DUP2 MSTORE PUSH1 0x20 ADD PUSH0 KECCAK256 SLOAD PUSH2 0xCE6 SWAP2 SWAP1 PUSH2 0x2E0D JUMP JUMPDEST GT ISZERO PUSH2 0xD1E JUMPI PUSH1 0x40 MLOAD PUSH32 0x58C7943400000000000000000000000000000000000000000000000000000000 DUP2 MSTORE PUSH1 0x4 ADD PUSH1 0x40 MLOAD DUP1 SWAP2 SUB SWAP1 REVERT JUMPDEST DUP1 PUSH1 0x11 PUSH0 CALLER PUSH20 0xFFFFFFFFFFFFFFFFFFFFFFFFFFFFFFFFFFFFFFFF AND PUSH20 0xFFFFFFFFFFFFFFFFFFFFFFFFFFFFFFFFFFFFFFFF AND DUP2 MSTORE PUSH1 0x20 ADD SWAP1 DUP2 MSTORE PUSH1 0x20 ADD PUSH0 KECCAK256 PUSH0 DUP3 DUP3 SLOAD PUSH2 0xD6A SWAP2 SWAP1 PUSH2 0x2E0D JUMP JUMPDEST SWAP3 POP POP DUP2 SWAP1 SSTORE POP PUSH0 PUSH2 0xD7A PUSH2 0x1D7E JUMP JUMPDEST SWAP1 POP PUSH1 0xC SLOAD DUP2 SUB PUSH2 0xDB7 JUMPI PUSH1 0x40 MLOAD PUSH32 0x52DF9FE500000000000000000000000000000000000000000000000000000000 DUP2 MSTORE PUSH1 0x4 ADD PUSH1 0x40 MLOAD DUP1 SWAP2 SUB SWAP1 REVERT JUMPDEST PUSH0 DUP3 GT PUSH2 0xDF0 JUMPI PUSH1 0x40 MLOAD PUSH32 0xD43E607500000000000000000000000000000000000000000000000000000000 DUP2 MSTORE PUSH1 0x4 ADD PUSH1 0x40 MLOAD DUP1 SWAP2 SUB SWAP1 REVERT JUMPDEST PUSH0 DUP3 DUP3 PUSH2 0xDFD SWAP2 SWAP1 PUSH2 0x2E0D JUMP JUMPDEST SWAP1 POP PUSH1 0xC SLOAD DUP2 GT ISZERO PUSH2 0xE3B JUMPI PUSH1 0x40 MLOAD PUSH32 0x3FFC0DA600000000000000000000000000000000000000000000000000000000 DUP2 MSTORE PUSH1 0x4 ADD PUSH1 0x40 MLOAD DUP1 SWAP2 SUB SWAP1 REVERT JUMPDEST PUSH0 PUSH2 0xE44 PUSH2 0x1DC5 JUMP JUMPDEST SWAP1 POP PUSH0 PUSH1 0x1 DUP6 DUP4 PUSH2 0xE55 SWAP2 SWAP1 PUSH2 0x2E0D JUMP JUMPDEST PUSH2 0xE5F SWAP2 SWAP1 PUSH2 0x2E40 JUMP JUMPDEST SWAP1 POP JUMPDEST DUP1 DUP3 GT PUSH2 0xEC7 JUMPI PUSH1 0x1 NUMBER PUSH2 0xE76 SWAP2 SWAP1 PUSH2 0x2E40 JUMP JUMPDEST BLOCKHASH DUP3 PUSH1 0x40 MLOAD PUSH1 0x20 ADD PUSH2 0xE89 SWAP3 SWAP2 SWAP1 PUSH2 0x2EB3 JUMP JUMPDEST PUSH1 0x40 MLOAD PUSH1 0x20 DUP2 DUP4 SUB SUB DUP2 MSTORE SWAP1 PUSH1 0x40 MSTORE DUP1 MLOAD SWAP1 PUSH1 0x20 ADD KECCAK256 PUSH1 0x10 PUSH0 DUP5 DUP2 MSTORE PUSH1 0x20 ADD SWAP1 DUP2 MSTORE PUSH1 0x20 ADD PUSH0 KECCAK256 DUP2 SWAP1 SSTORE POP DUP2 DUP1 PUSH2 0xEBF SWAP1 PUSH2 0x2EDE JUMP JUMPDEST SWAP3 POP POP PUSH2 0xE62 JUMP JUMPDEST PUSH2 0xED1 CALLER DUP7 PUSH2 0x1DCD JUMP JUMPDEST POP POP POP POP PUSH1 0x1 PUSH1 0xA DUP2 SWAP1 SSTORE POP POP JUMP JUMPDEST PUSH1 0xC SLOAD DUP2 JUMP JUMPDEST PUSH1 0x9 PUSH0 SWAP1 SLOAD SWAP1 PUSH2 0x100 EXP SWAP1 DIV PUSH20 0xFFFFFFFFFFFFFFFFFFFFFFFFFFFFFFFFFFFFFFFF AND PUSH20 0xFFFFFFFFFFFFFFFFFFFFFFFFFFFFFFFFFFFFFFFF AND CALLER PUSH20 0xFFFFFFFFFFFFFFFFFFFFFFFFFFFFFFFFFFFFFFFF AND EQ PUSH2 0xF75 JUMPI PUSH1 0x40 MLOAD PUSH32 0x8C379A000000000000000000000000000000000000000000000000000000000 DUP2 MSTORE PUSH1 0x4 ADD PUSH2 0xF6C SWAP1 PUSH2 0x2F6F JUMP JUMPDEST PUSH1 0x40 MLOAD DUP1 SWAP2 SUB SWAP1 REVERT JUMPDEST PUSH1 0x1 PUSH1 0xA SLOAD EQ PUSH2 0xFBA JUMPI PUSH1 0x40 MLOAD PUSH32 0x8C379A000000000000000000000000000000000000000000000000000000000 DUP2 MSTORE PUSH1 0x4 ADD PUSH2 0xFB1 SWAP1 PUSH2 0x2DC2 JUMP JUMPDEST PUSH1 0x40 MLOAD DUP1 SWAP2 SUB SWAP1 REVERT JUMPDEST PUSH1 0x2 PUSH1 0xA DUP2 SWAP1 SSTORE POP PUSH0 CALLER PUSH20 0xFFFFFFFFFFFFFFFFFFFFFFFFFFFFFFFFFFFFFFFF AND SELFBALANCE PUSH1 0x40 MLOAD PUSH2 0xFE7 SWAP1 PUSH2 0x2FBA JUMP JUMPDEST PUSH0 PUSH1 0x40 MLOAD DUP1 DUP4 SUB DUP2 DUP6 DUP8 GAS CALL SWAP3 POP POP POP RETURNDATASIZE DUP1 PUSH0 DUP2 EQ PUSH2 0x1021 JUMPI PUSH1 0x40 MLOAD SWAP2 POP PUSH1 0x1F NOT PUSH1 0x3F RETURNDATASIZE ADD AND DUP3 ADD PUSH1 0x40 MSTORE RETURNDATASIZE DUP3 MSTORE RETURNDATASIZE PUSH0 PUSH1 0x20 DUP5 ADD RETURNDATACOPY PUSH2 0x1026 JUMP JUMPDEST PUSH1 0x60 SWAP2 POP JUMPDEST POP POP SWAP1 POP DUP1 PUSH2 0x106A JUMPI PUSH1 0x40 MLOAD PUSH32 0x8C379A000000000000000000000000000000000000000000000000000000000 DUP2 MSTORE PUSH1 0x4 ADD PUSH2 0x1061 SWAP1 PUSH2 0x3018 JUMP JUMPDEST PUSH1 0x40 MLOAD DUP1 SWAP2 SUB SWAP1 REVERT JUMPDEST POP PUSH1 0x1 PUSH1 0xA DUP2 SWAP1 SSTORE POP JUMP JUMPDEST PUSH2 0x108F DUP4 DUP4 DUP4 PUSH1 0x40 MLOAD DUP1 PUSH1 0x20 ADD PUSH1 0x40 MSTORE DUP1 PUSH0 DUP2 MSTORE POP PUSH2 0x157D JUMP JUMPDEST POP POP POP JUMP JUMPDEST PUSH1 0x11 PUSH1 0x20 MSTORE DUP1 PUSH0 MSTORE PUSH1 0x40 PUSH0 KECCAK256 PUSH0 SWAP2 POP SWAP1 POP SLOAD DUP2 JUMP JUMPDEST PUSH1 0x9 PUSH0 SWAP1 SLOAD SWAP1 PUSH2 0x100 EXP SWAP1 DIV PUSH20 0xFFFFFFFFFFFFFFFFFFFFFFFFFFFFFFFFFFFFFFFF AND PUSH20 0xFFFFFFFFFFFFFFFFFFFFFFFFFFFFFFFFFFFFFFFF AND CALLER PUSH20 0xFFFFFFFFFFFFFFFFFFFFFFFFFFFFFFFFFFFFFFFF AND EQ PUSH2 0x1138 JUMPI PUSH1 0x40 MLOAD PUSH32 0x8C379A000000000000000000000000000000000000000000000000000000000 DUP2 MSTORE PUSH1 0x4 ADD PUSH2 0x112F SWAP1 PUSH2 0x2F6F JUMP JUMPDEST PUSH1 0x40 MLOAD DUP1 SWAP2 SUB SWAP1 REVERT JUMPDEST PUSH1 0xF PUSH0 SWAP1 SLOAD SWAP1 PUSH2 0x100 EXP SWAP1 DIV PUSH1 0xFF AND ISZERO PUSH1 0xF PUSH0 PUSH2 0x100 EXP DUP2 SLOAD DUP2 PUSH1 0xFF MUL NOT AND SWAP1 DUP4 ISZERO ISZERO MUL OR SWAP1 SSTORE POP JUMP JUMPDEST PUSH1 0x60 DUP1 PUSH0 DUP5 DUP5 SWAP1 POP SWAP1 POP PUSH1 0x40 MLOAD SWAP2 POP DUP1 DUP3 MSTORE DUP1 PUSH1 0x5 SHL SWAP1 POP DUP1 PUSH1 0x20 DUP4 ADD ADD PUSH1 0x40 MSTORE JUMPDEST PUSH0 DUP2 EQ PUSH2 0x11B3 JUMPI PUSH0 PUSH1 0x20 DUP3 SUB SWAP2 POP DUP2 DUP7 ADD CALLDATALOAD SWAP1 POP PUSH0 PUSH2 0x11A2 DUP3 PUSH2 0x15E0 JUMP JUMPDEST SWAP1 POP DUP1 DUP4 PUSH1 0x20 DUP7 ADD ADD MSTORE POP POP PUSH2 0x1184 JUMP JUMPDEST DUP2 SWAP3 POP POP POP SWAP3 SWAP2 POP POP JUMP JUMPDEST PUSH0 PUSH2 0x11C8 DUP3 PUSH2 0x1BA5 JUMP JUMPDEST SWAP1 POP SWAP2 SWAP1 POP JUMP JUMPDEST PUSH1 0x9 PUSH0 SWAP1 SLOAD SWAP1 PUSH2 0x100 EXP SWAP1 DIV PUSH20 0xFFFFFFFFFFFFFFFFFFFFFFFFFFFFFFFFFFFFFFFF AND PUSH20 0xFFFFFFFFFFFFFFFFFFFFFFFFFFFFFFFFFFFFFFFF AND CALLER PUSH20 0xFFFFFFFFFFFFFFFFFFFFFFFFFFFFFFFFFFFFFFFF AND EQ PUSH2 0x125E JUMPI PUSH1 0x40 MLOAD PUSH32 0x8C379A000000000000000000000000000000000000000000000000000000000 DUP2 MSTORE PUSH1 0x4 ADD PUSH2 0x1255 SWAP1 PUSH2 0x2F6F JUMP JUMPDEST PUSH1 0x40 MLOAD DUP1 SWAP2 SUB SWAP1 REVERT JUMPDEST PUSH1 0xF PUSH1 0x2 SWAP1 SLOAD SWAP1 PUSH2 0x100 EXP SWAP1 DIV PUSH1 0xFF AND ISZERO PUSH1 0xF PUSH1 0x2 PUSH2 0x100 EXP DUP2 SLOAD DUP2 PUSH1 0xFF MUL NOT AND SWAP1 DUP4 ISZERO ISZERO MUL OR SWAP1 SSTORE POP JUMP JUMPDEST PUSH0 DUP1 PUSH20 0xFFFFFFFFFFFFFFFFFFFFFFFFFFFFFFFFFFFFFFFF AND DUP3 PUSH20 0xFFFFFFFFFFFFFFFFFFFFFFFFFFFFFFFFFFFFFFFF AND SUB PUSH2 0x12CF JUMPI PUSH2 0x12CE PUSH4 0x8F4EB604 PUSH1 0xE0 SHL PUSH2 0x1A44 JUMP JUMPDEST JUMPDEST PUSH8 0xFFFFFFFFFFFFFFFF PUSH1 0x5 PUSH0 DUP5 PUSH20 0xFFFFFFFFFFFFFFFFFFFFFFFFFFFFFFFFFFFFFFFF AND PUSH20 0xFFFFFFFFFFFFFFFFFFFFFFFFFFFFFFFFFFFFFFFF AND DUP2 MSTORE PUSH1 0x20 ADD SWAP1 DUP2 MSTORE PUSH1 0x20 ADD PUSH0 KECCAK256 SLOAD AND SWAP1 POP SWAP2 SWAP1 POP JUMP JUMPDEST PUSH1 0x10 PUSH1 0x20 MSTORE DUP1 PUSH0 MSTORE PUSH1 0x40 PUSH0 KECCAK256 PUSH0 SWAP2 POP SWAP1 POP SLOAD DUP2 JUMP JUMPDEST PUSH1 0x60 PUSH32 0xFFFFFFFFFFFFFFFFFFFFFFFFFFFFFFFFFFFFFFFFFFFFFFFFFFFFFFFFFFFFFFFF PUSH2 0x135E PUSH2 0x1B7E JUMP JUMPDEST EQ PUSH2 0x1374 JUMPI PUSH2 0x1373 PUSH4 0xBDBA09D7 PUSH1 0xE0 SHL PUSH2 0x1A44 JUMP JUMPDEST JUMPDEST PUSH0 PUSH2 0x137D PUSH2 0x1B76 JUMP JUMPDEST SWAP1 POP PUSH0 PUSH2 0x1388 PUSH2 0x1DC5 JUMP JUMPDEST SWAP1 POP PUSH1 0x60 DUP2 DUP4 EQ PUSH2 0x13A1 JUMPI PUSH2 0x139E DUP6 DUP5 DUP5 PUSH2 0x1F41 JUMP JUMPDEST SWAP1 POP JUMPDEST DUP1 SWAP4 POP POP POP POP SWAP2 SWAP1 POP JUMP JUMPDEST PUSH1 0x9 PUSH0 SWAP1 SLOAD SWAP1 PUSH2 0x100 EXP SWAP1 DIV PUSH20 0xFFFFFFFFFFFFFFFFFFFFFFFFFFFFFFFFFFFFFFFF AND DUP2 JUMP JUMPDEST PUSH1 0x60 PUSH1 0x3 DUP1 SLOAD PUSH2 0x13E0 SWAP1 PUSH2 0x2D48 JUMP JUMPDEST DUP1 PUSH1 0x1F ADD PUSH1 0x20 DUP1 SWAP2 DIV MUL PUSH1 0x20 ADD PUSH1 0x40 MLOAD SWAP1 DUP2 ADD PUSH1 0x40 MSTORE DUP1 SWAP3 SWAP2 SWAP1 DUP2 DUP2 MSTORE PUSH1 0x20 ADD DUP3 DUP1 SLOAD PUSH2 0x140C SWAP1 PUSH2 0x2D48 JUMP JUMPDEST DUP1 ISZERO PUSH2 0x1457 JUMPI DUP1 PUSH1 0x1F LT PUSH2 0x142E JUMPI PUSH2 0x100 DUP1 DUP4 SLOAD DIV MUL DUP4 MSTORE SWAP2 PUSH1 0x20 ADD SWAP2 PUSH2 0x1457 JUMP JUMPDEST DUP3 ADD SWAP2 SWAP1 PUSH0 MSTORE PUSH1 0x20 PUSH0 KECCAK256 SWAP1 JUMPDEST DUP2 SLOAD DUP2 MSTORE SWAP1 PUSH1 0x1 ADD SWAP1 PUSH1 0x20 ADD DUP1 DUP4 GT PUSH2 0x143A JUMPI DUP3 SWAP1 SUB PUSH1 0x1F AND DUP3 ADD SWAP2 JUMPDEST POP POP POP POP POP SWAP1 POP SWAP1 JUMP JUMPDEST PUSH1 0x60 PUSH2 0x146E DUP5 DUP5 DUP5 PUSH2 0x1F41 JUMP JUMPDEST SWAP1 POP SWAP4 SWAP3 POP POP POP JUMP JUMPDEST DUP1 PUSH1 0x7 PUSH0 PUSH2 0x1483 PUSH2 0x1CD7 JUMP JUMPDEST PUSH20 0xFFFFFFFFFFFFFFFFFFFFFFFFFFFFFFFFFFFFFFFF AND PUSH20 0xFFFFFFFFFFFFFFFFFFFFFFFFFFFFFFFFFFFFFFFF AND DUP2 MSTORE PUSH1 0x20 ADD SWAP1 DUP2 MSTORE PUSH1 0x20 ADD PUSH0 KECCAK256 PUSH0 DUP5 PUSH20 0xFFFFFFFFFFFFFFFFFFFFFFFFFFFFFFFFFFFFFFFF AND PUSH20 0xFFFFFFFFFFFFFFFFFFFFFFFFFFFFFFFFFFFFFFFF AND DUP2 MSTORE PUSH1 0x20 ADD SWAP1 DUP2 MSTORE PUSH1 0x20 ADD PUSH0 KECCAK256 PUSH0 PUSH2 0x100 EXP DUP2 SLOAD DUP2 PUSH1 0xFF MUL NOT AND SWAP1 DUP4 ISZERO ISZERO MUL OR SWAP1 SSTORE POP DUP2 PUSH20 0xFFFFFFFFFFFFFFFFFFFFFFFFFFFFFFFFFFFFFFFF AND PUSH2 0x152C PUSH2 0x1CD7 JUMP JUMPDEST PUSH20 0xFFFFFFFFFFFFFFFFFFFFFFFFFFFFFFFFFFFFFFFF AND PUSH32 0x17307EAB39AB6107E8899845AD3D59BD9653F200F220920489CA2B5937696C31 DUP4 PUSH1 0x40 MLOAD PUSH2 0x1571 SWAP2 SWAP1 PUSH2 0x2461 JUMP JUMPDEST PUSH1 0x40 MLOAD DUP1 SWAP2 SUB SWAP1 LOG3 POP POP JUMP JUMPDEST PUSH2 0x1588 DUP5 DUP5 DUP5 PUSH2 0x981 JUMP JUMPDEST PUSH0 DUP4 PUSH20 0xFFFFFFFFFFFFFFFFFFFFFFFFFFFFFFFFFFFFFFFF AND EXTCODESIZE EQ PUSH2 0x15C8 JUMPI PUSH2 0x15B2 DUP5 DUP5 DUP5 DUP5 PUSH2 0x20F0 JUMP JUMPDEST PUSH2 0x15C7 JUMPI PUSH2 0x15C6 PUSH4 0xD1A57ED6 PUSH1 0xE0 SHL PUSH2 0x1A44 JUMP JUMPDEST JUMPDEST JUMPDEST POP POP POP POP JUMP JUMPDEST PUSH1 0xF PUSH0 SWAP1 SLOAD SWAP1 PUSH2 0x100 EXP SWAP1 DIV PUSH1 0xFF AND DUP2 JUMP JUMPDEST PUSH2 0x15E8 PUSH2 0x236B JUMP JUMPDEST PUSH2 0x15F0 PUSH2 0x1B76 JUMP JUMPDEST DUP3 LT PUSH2 0x164F JUMPI PUSH2 0x15FE PUSH2 0x1B7E JUMP JUMPDEST DUP3 GT ISZERO PUSH2 0x1615 JUMPI PUSH2 0x160E DUP3 PUSH2 0x221A JUMP JUMPDEST SWAP1 POP PUSH2 0x1650 JUMP JUMPDEST PUSH2 0x161D PUSH2 0x1DC5 JUMP JUMPDEST DUP3 LT ISZERO PUSH2 0x164E JUMPI JUMPDEST PUSH2 0x162E DUP3 PUSH2 0x2243 JUMP JUMPDEST PUSH2 0x163E JUMPI DUP2 PUSH1 0x1 SWAP1 SUB SWAP2 POP PUSH2 0x1625 JUMP JUMPDEST PUSH2 0x1647 DUP3 PUSH2 0x221A JUMP JUMPDEST SWAP1 POP PUSH2 0x1650 JUMP JUMPDEST JUMPDEST JUMPDEST SWAP2 SWAP1 POP JUMP JUMPDEST PUSH1 0xD SLOAD DUP2 JUMP JUMPDEST PUSH1 0x60 PUSH1 0xB PUSH0 SWAP1 SLOAD SWAP1 PUSH2 0x100 EXP SWAP1 DIV PUSH20 0xFFFFFFFFFFFFFFFFFFFFFFFFFFFFFFFFFFFFFFFF AND PUSH20 0xFFFFFFFFFFFFFFFFFFFFFFFFFFFFFFFFFFFFFFFF AND PUSH4 0xC649C9A8 DUP4 PUSH1 0x10 PUSH0 DUP7 DUP2 MSTORE PUSH1 0x20 ADD SWAP1 DUP2 MSTORE PUSH1 0x20 ADD PUSH0 KECCAK256 SLOAD PUSH1 0x40 MLOAD DUP4 PUSH4 0xFFFFFFFF AND PUSH1 0xE0 SHL DUP2 MSTORE PUSH1 0x4 ADD PUSH2 0x16CA SWAP3 SWAP2 SWAP1 PUSH2 0x3036 JUMP JUMPDEST PUSH0 PUSH1 0x40 MLOAD DUP1 DUP4 SUB DUP2 DUP7 GAS STATICCALL ISZERO DUP1 ISZERO PUSH2 0x16E4 JUMPI RETURNDATASIZE PUSH0 DUP1 RETURNDATACOPY RETURNDATASIZE PUSH0 REVERT JUMPDEST POP POP POP POP PUSH1 0x40 MLOAD RETURNDATASIZE PUSH0 DUP3 RETURNDATACOPY RETURNDATASIZE PUSH1 0x1F NOT PUSH1 0x1F DUP3 ADD AND DUP3 ADD DUP1 PUSH1 0x40 MSTORE POP DUP2 ADD SWAP1 PUSH2 0x170C SWAP2 SWAP1 PUSH2 0x30FB JUMP JUMPDEST SWAP1 POP SWAP2 SWAP1 POP JUMP JUMPDEST PUSH1 0xF PUSH1 0x1 SWAP1 SLOAD SWAP1 PUSH2 0x100 EXP SWAP1 DIV PUSH1 0xFF AND DUP2 JUMP JUMPDEST PUSH1 0x9 PUSH0 SWAP1 SLOAD SWAP1 PUSH2 0x100 EXP SWAP1 DIV PUSH20 0xFFFFFFFFFFFFFFFFFFFFFFFFFFFFFFFFFFFFFFFF AND PUSH20 0xFFFFFFFFFFFFFFFFFFFFFFFFFFFFFFFFFFFFFFFF AND CALLER PUSH20 0xFFFFFFFFFFFFFFFFFFFFFFFFFFFFFFFFFFFFFFFF AND EQ PUSH2 0x17B5 JUMPI PUSH1 0x40 MLOAD PUSH32 0x8C379A000000000000000000000000000000000000000000000000000000000 DUP2 MSTORE PUSH1 0x4 ADD PUSH2 0x17AC SWAP1 PUSH2 0x2F6F JUMP JUMPDEST PUSH1 0x40 MLOAD DUP1 SWAP2 SUB SWAP1 REVERT JUMPDEST PUSH1 0xF PUSH1 0x1 SWAP1 SLOAD SWAP1 PUSH2 0x100 EXP SWAP1 DIV PUSH1 0xFF AND ISZERO PUSH1 0xF PUSH1 0x1 PUSH2 0x100 EXP DUP2 SLOAD DUP2 PUSH1 0xFF MUL NOT AND SWAP1 DUP4 ISZERO ISZERO MUL OR SWAP1 SSTORE POP JUMP JUMPDEST PUSH0 PUSH1 0x7 PUSH0 DUP5 PUSH20 0xFFFFFFFFFFFFFFFFFFFFFFFFFFFFFFFFFFFFFFFF AND PUSH20 0xFFFFFFFFFFFFFFFFFFFFFFFFFFFFFFFFFFFFFFFF AND DUP2 MSTORE PUSH1 0x20 ADD SWAP1 DUP2 MSTORE PUSH1 0x20 ADD PUSH0 KECCAK256 PUSH0 DUP4 PUSH20 0xFFFFFFFFFFFFFFFFFFFFFFFFFFFFFFFFFFFFFFFF AND PUSH20 0xFFFFFFFFFFFFFFFFFFFFFFFFFFFFFFFFFFFFFFFF AND DUP2 MSTORE PUSH1 0x20 ADD SWAP1 DUP2 MSTORE PUSH1 0x20 ADD PUSH0 KECCAK256 PUSH0 SWAP1 SLOAD SWAP1 PUSH2 0x100 EXP SWAP1 DIV PUSH1 0xFF AND SWAP1 POP SWAP3 SWAP2 POP POP JUMP JUMPDEST PUSH1 0xE SLOAD DUP2 JUMP JUMPDEST PUSH1 0x9 PUSH0 SWAP1 SLOAD SWAP1 PUSH2 0x100 EXP SWAP1 DIV PUSH20 0xFFFFFFFFFFFFFFFFFFFFFFFFFFFFFFFFFFFFFFFF AND PUSH20 0xFFFFFFFFFFFFFFFFFFFFFFFFFFFFFFFFFFFFFFFF AND CALLER PUSH20 0xFFFFFFFFFFFFFFFFFFFFFFFFFFFFFFFFFFFFFFFF AND EQ PUSH2 0x1904 JUMPI PUSH1 0x40 MLOAD PUSH32 0x8C379A000000000000000000000000000000000000000000000000000000000 DUP2 MSTORE PUSH1 0x4 ADD PUSH2 0x18FB SWAP1 PUSH2 0x2F6F JUMP JUMPDEST PUSH1 0x40 MLOAD DUP1 SWAP2 SUB SWAP1 REVERT JUMPDEST DUP1 PUSH1 0x9 PUSH0 PUSH2 0x100 EXP DUP2 SLOAD DUP2 PUSH20 0xFFFFFFFFFFFFFFFFFFFFFFFFFFFFFFFFFFFFFFFF MUL NOT AND SWAP1 DUP4 PUSH20 0xFFFFFFFFFFFFFFFFFFFFFFFFFFFFFFFFFFFFFFFF AND MUL OR SWAP1 SSTORE POP DUP1 PUSH20 0xFFFFFFFFFFFFFFFFFFFFFFFFFFFFFFFFFFFFFFFF AND CALLER PUSH20 0xFFFFFFFFFFFFFFFFFFFFFFFFFFFFFFFFFFFFFFFF AND PUSH32 0x8BE0079C531659141344CD1FD0A4F28419497F9722A3DAAFE3B4186F6B6457E0 PUSH1 0x40 MLOAD PUSH1 0x40 MLOAD DUP1 SWAP2 SUB SWAP1 LOG3 POP JUMP JUMPDEST PUSH0 DUP2 PUSH2 0x19AB PUSH2 0x1B76 JUMP JUMPDEST GT PUSH2 0x1A3E JUMPI PUSH2 0x19B8 PUSH2 0x1B7E JUMP JUMPDEST DUP3 GT ISZERO PUSH2 0x19E0 JUMPI PUSH2 0x19D9 PUSH1 0x4 PUSH0 DUP5 DUP2 MSTORE PUSH1 0x20 ADD SWAP1 DUP2 MSTORE PUSH1 0x20 ADD PUSH0 KECCAK256 SLOAD PUSH2 0x2260 JUMP JUMPDEST SWAP1 POP PUSH2 0x1A3F JUMP JUMPDEST PUSH0 SLOAD DUP3 LT ISZERO PUSH2 0x1A3D JUMPI PUSH0 JUMPDEST PUSH0 PUSH1 0x4 PUSH0 DUP6 DUP2 MSTORE PUSH1 0x20 ADD SWAP1 DUP2 MSTORE PUSH1 0x20 ADD PUSH0 KECCAK256 SLOAD SWAP2 POP DUP2 SUB PUSH2 0x1A17 JUMPI DUP3 PUSH2 0x1A10 SWAP1 PUSH2 0x3142 JUMP JUMPDEST SWAP3 POP PUSH2 0x19EB JUMP JUMPDEST PUSH0 PUSH29 0x100000000000000000000000000000000000000000000000000000000 DUP3 AND EQ SWAP2 POP POP JUMPDEST JUMPDEST JUMPDEST SWAP2 SWAP1 POP JUMP JUMPDEST DUP1 PUSH0 MSTORE PUSH1 0x4 PUSH0 REVERT JUMPDEST PUSH0 PUSH2 0x1A56 DUP4 PUSH2 0x11BE JUMP JUMPDEST SWAP1 POP DUP2 DUP1 ISZERO PUSH2 0x1A98 JUMPI POP DUP1 PUSH20 0xFFFFFFFFFFFFFFFFFFFFFFFFFFFFFFFFFFFFFFFF AND PUSH2 0x1A7F PUSH2 0x1CD7 JUMP JUMPDEST PUSH20 0xFFFFFFFFFFFFFFFFFFFFFFFFFFFFFFFFFFFFFFFF AND EQ ISZERO JUMPDEST ISZERO PUSH2 0x1AC4 JUMPI PUSH2 0x1AAE DUP2 PUSH2 0x1AA9 PUSH2 0x1CD7 JUMP JUMPDEST PUSH2 0x17E1 JUMP JUMPDEST PUSH2 0x1AC3 JUMPI PUSH2 0x1AC2 PUSH4 0xCFB3B942 PUSH1 0xE0 SHL PUSH2 0x1A44 JUMP JUMPDEST JUMPDEST JUMPDEST DUP4 PUSH1 0x6 PUSH0 DUP6 DUP2 MSTORE PUSH1 0x20 ADD SWAP1 DUP2 MSTORE PUSH1 0x20 ADD PUSH0 KECCAK256 PUSH0 ADD PUSH0 PUSH2 0x100 EXP DUP2 SLOAD DUP2 PUSH20 0xFFFFFFFFFFFFFFFFFFFFFFFFFFFFFFFFFFFFFFFF MUL NOT AND SWAP1 DUP4 PUSH20 0xFFFFFFFFFFFFFFFFFFFFFFFFFFFFFFFFFFFFFFFF AND MUL OR SWAP1 SSTORE POP DUP3 DUP5 PUSH20 0xFFFFFFFFFFFFFFFFFFFFFFFFFFFFFFFFFFFFFFFF AND DUP3 PUSH20 0xFFFFFFFFFFFFFFFFFFFFFFFFFFFFFFFFFFFFFFFF AND PUSH32 0x8C5BE1E5EBEC7D5BD14F71427D1E84F3DD0314C0F7B2291E5B200AC8C7C3B925 PUSH1 0x40 MLOAD PUSH1 0x40 MLOAD DUP1 SWAP2 SUB SWAP1 LOG4 POP POP POP POP JUMP JUMPDEST PUSH0 PUSH1 0x1 SWAP1 POP SWAP1 JUMP JUMPDEST PUSH0 PUSH32 0xFFFFFFFFFFFFFFFFFFFFFFFFFFFFFFFFFFFFFFFFFFFFFFFFFFFFFFFFFFFFFFFF SWAP1 POP SWAP1 JUMP JUMPDEST PUSH0 DUP2 PUSH2 0x1BAF PUSH2 0x1B76 JUMP JUMPDEST GT PUSH2 0x1C9E JUMPI PUSH1 0x4 PUSH0 DUP4 DUP2 MSTORE PUSH1 0x20 ADD SWAP1 DUP2 MSTORE PUSH1 0x20 ADD PUSH0 KECCAK256 SLOAD SWAP1 POP PUSH2 0x1BD0 PUSH2 0x1B7E JUMP JUMPDEST DUP3 GT ISZERO PUSH2 0x1BF5 JUMPI PUSH2 0x1BE0 DUP2 PUSH2 0x2260 JUMP JUMPDEST PUSH2 0x1CAF JUMPI PUSH2 0x1BF4 PUSH4 0xDF2D9B42 PUSH1 0xE0 SHL PUSH2 0x1A44 JUMP JUMPDEST JUMPDEST PUSH0 DUP2 SUB PUSH2 0x1C76 JUMPI PUSH0 SLOAD DUP3 LT PUSH2 0x1C15 JUMPI PUSH2 0x1C14 PUSH4 0xDF2D9B42 PUSH1 0xE0 SHL PUSH2 0x1A44 JUMP JUMPDEST JUMPDEST JUMPDEST PUSH1 0x4 PUSH0 DUP4 PUSH1 0x1 SWAP1 SUB SWAP4 POP DUP4 DUP2 MSTORE PUSH1 0x20 ADD SWAP1 DUP2 MSTORE PUSH1 0x20 ADD PUSH0 KECCAK256 SLOAD SWAP1 POP PUSH0 DUP2 SUB ISZERO PUSH2 0x1C71 JUMPI PUSH0 PUSH29 0x100000000000000000000000000000000000000000000000000000000 DUP3 AND SUB ISZERO PUSH2 0x1CAF JUMPI PUSH2 0x1C70 PUSH4 0xDF2D9B42 PUSH1 0xE0 SHL PUSH2 0x1A44 JUMP JUMPDEST JUMPDEST PUSH2 0x1C16 JUMP JUMPDEST PUSH0 PUSH29 0x100000000000000000000000000000000000000000000000000000000 DUP3 AND SUB ISZERO PUSH2 0x1CAF JUMPI JUMPDEST PUSH2 0x1CAE PUSH4 0xDF2D9B42 PUSH1 0xE0 SHL PUSH2 0x1A44 JUMP JUMPDEST JUMPDEST SWAP2 SWAP1 POP JUMP JUMPDEST PUSH0 DUP1 PUSH0 PUSH1 0x6 PUSH0 DUP6 DUP2 MSTORE PUSH1 0x20 ADD SWAP1 DUP2 MSTORE PUSH1 0x20 ADD PUSH0 KECCAK256 SWAP1 POP DUP1 SWAP3 POP DUP3 SLOAD SWAP2 POP POP SWAP2 POP SWAP2 JUMP JUMPDEST PUSH0 CALLER SWAP1 POP SWAP1 JUMP JUMPDEST PUSH0 PUSH20 0xFFFFFFFFFFFFFFFFFFFFFFFFFFFFFFFFFFFFFFFF DUP4 AND SWAP3 POP PUSH20 0xFFFFFFFFFFFFFFFFFFFFFFFFFFFFFFFFFFFFFFFF DUP3 AND SWAP2 POP DUP4 DUP3 EQ DUP4 DUP4 EQ OR SWAP1 POP SWAP4 SWAP3 POP POP POP JUMP JUMPDEST POP POP POP POP JUMP JUMPDEST PUSH0 DUP1 PUSH1 0xE8 DUP4 SWAP1 SHR SWAP1 POP PUSH1 0xE8 PUSH2 0x1D3D DUP7 DUP7 DUP5 PUSH2 0x22A0 JUMP JUMPDEST PUSH3 0xFFFFFF AND SWAP1 SHL SWAP2 POP POP SWAP4 SWAP3 POP POP POP JUMP JUMPDEST PUSH0 PUSH20 0xFFFFFFFFFFFFFFFFFFFFFFFFFFFFFFFFFFFFFFFF DUP4 AND SWAP3 POP DUP2 TIMESTAMP PUSH1 0xA0 SHL OR DUP4 OR SWAP1 POP SWAP3 SWAP2 POP POP JUMP JUMPDEST POP POP POP POP JUMP JUMPDEST PUSH0 PUSH2 0x1D87 PUSH2 0x1B76 JUMP JUMPDEST PUSH0 SLOAD SUB SWAP1 POP PUSH32 0xFFFFFFFFFFFFFFFFFFFFFFFFFFFFFFFFFFFFFFFFFFFFFFFFFFFFFFFFFFFFFFFF PUSH2 0x1DB5 PUSH2 0x1B7E JUMP JUMPDEST EQ PUSH2 0x1DC2 JUMPI PUSH1 0x8 SLOAD DUP2 ADD SWAP1 POP JUMPDEST SWAP1 JUMP JUMPDEST PUSH0 DUP1 SLOAD SWAP1 POP SWAP1 JUMP JUMPDEST PUSH0 DUP1 SLOAD SWAP1 POP PUSH0 DUP3 SUB PUSH2 0x1DEA JUMPI PUSH2 0x1DE9 PUSH4 0xB562E8DD PUSH1 0xE0 SHL PUSH2 0x1A44 JUMP JUMPDEST JUMPDEST PUSH2 0x1DF6 PUSH0 DUP5 DUP4 DUP6 PUSH2 0x1D21 JUMP JUMPDEST PUSH2 0x1E14 DUP4 PUSH2 0x1E05 PUSH0 DUP7 PUSH0 PUSH2 0x1D27 JUMP JUMPDEST PUSH2 0x1E0E DUP6 PUSH2 0x22A8 JUMP JUMPDEST OR PUSH2 0x1D4E JUMP JUMPDEST PUSH1 0x4 PUSH0 DUP4 DUP2 MSTORE PUSH1 0x20 ADD SWAP1 DUP2 MSTORE PUSH1 0x20 ADD PUSH0 KECCAK256 DUP2 SWAP1 SSTORE POP PUSH1 0x1 PUSH1 0x40 PUSH1 0x1 SWAP1 SHL OR DUP3 MUL PUSH1 0x5 PUSH0 DUP6 PUSH20 0xFFFFFFFFFFFFFFFFFFFFFFFFFFFFFFFFFFFFFFFF AND PUSH20 0xFFFFFFFFFFFFFFFFFFFFFFFFFFFFFFFFFFFFFFFF AND DUP2 MSTORE PUSH1 0x20 ADD SWAP1 DUP2 MSTORE PUSH1 0x20 ADD PUSH0 KECCAK256 PUSH0 DUP3 DUP3 SLOAD ADD SWAP3 POP POP DUP2 SWAP1 SSTORE POP PUSH0 PUSH20 0xFFFFFFFFFFFFFFFFFFFFFFFFFFFFFFFFFFFFFFFF DUP5 PUSH20 0xFFFFFFFFFFFFFFFFFFFFFFFFFFFFFFFFFFFFFFFF AND AND SWAP1 POP PUSH0 DUP2 SUB PUSH2 0x1EC5 JUMPI PUSH2 0x1EC4 PUSH4 0x2E076300 PUSH1 0xE0 SHL PUSH2 0x1A44 JUMP JUMPDEST JUMPDEST PUSH0 DUP4 DUP4 ADD SWAP1 POP PUSH0 DUP4 SWAP1 POP PUSH2 0x1ED7 PUSH2 0x1B7E JUMP JUMPDEST PUSH1 0x1 DUP4 SUB GT ISZERO PUSH2 0x1EF2 JUMPI PUSH2 0x1EF1 PUSH4 0x81647E3A PUSH1 0xE0 SHL PUSH2 0x1A44 JUMP JUMPDEST JUMPDEST JUMPDEST DUP1 DUP4 PUSH0 PUSH32 0xDDF252AD1BE2C89B69C2B068FC378DAA952BA7F163C4A11628F55A4DF523B3EF PUSH0 DUP1 LOG4 DUP2 DUP2 PUSH1 0x1 ADD SWAP2 POP DUP2 SUB PUSH2 0x1EF3 JUMPI DUP2 PUSH0 DUP2 SWAP1 SSTORE POP POP POP POP PUSH2 0x1F3C PUSH0 DUP5 DUP4 DUP6 PUSH2 0x1D78 JUMP JUMPDEST POP POP POP JUMP JUMPDEST PUSH1 0x60 DUP2 DUP4 LT PUSH2 0x1F5B JUMPI PUSH2 0x1F5A PUSH4 0x32C1995A PUSH1 0xE0 SHL PUSH2 0x1A44 JUMP JUMPDEST JUMPDEST PUSH2 0x1F63 PUSH2 0x1B76 JUMP JUMPDEST DUP4 LT ISZERO PUSH2 0x1F75 JUMPI PUSH2 0x1F72 PUSH2 0x1B76 JUMP JUMPDEST SWAP3 POP JUMPDEST PUSH0 PUSH2 0x1F7E PUSH2 0x1DC5 JUMP JUMPDEST SWAP1 POP PUSH0 PUSH32 0xFFFFFFFFFFFFFFFFFFFFFFFFFFFFFFFFFFFFFFFFFFFFFFFFFFFFFFFFFFFFFFFF PUSH2 0x1FAA PUSH2 0x1B7E JUMP JUMPDEST SUB PUSH2 0x1FB5 JUMPI DUP2 PUSH2 0x1FB7 JUMP JUMPDEST DUP4 JUMPDEST SWAP1 POP DUP1 DUP5 LT PUSH2 0x1FC4 JUMPI DUP1 SWAP4 POP JUMPDEST PUSH0 PUSH2 0x1FCE DUP8 PUSH2 0x128A JUMP JUMPDEST SWAP1 POP DUP5 DUP7 LT PUSH2 0x1FDB JUMPI PUSH0 SWAP1 POP JUMPDEST PUSH0 DUP2 EQ PUSH2 0x20E6 JUMPI DUP1 DUP7 DUP7 SUB GT PUSH2 0x1FF1 JUMPI DUP6 DUP6 SUB SWAP1 POP JUMPDEST PUSH0 PUSH1 0x40 MLOAD SWAP5 POP PUSH1 0x1 DUP3 ADD PUSH1 0x5 SHL DUP6 ADD SWAP1 POP DUP1 PUSH1 0x40 MSTORE PUSH0 PUSH2 0x2010 DUP9 PUSH2 0x15E0 JUMP JUMPDEST SWAP1 POP PUSH0 DUP2 PUSH1 0x40 ADD MLOAD PUSH2 0x2023 JUMPI DUP2 PUSH0 ADD MLOAD SWAP1 POP JUMPDEST PUSH0 JUMPDEST PUSH32 0xFFFFFFFFFFFFFFFFFFFFFFFFFFFFFFFFFFFFFFFFFFFFFFFFFFFFFFFFFFFFFFFF PUSH2 0x204E PUSH2 0x1B7E JUMP JUMPDEST EQ PUSH2 0x207C JUMPI DUP7 DUP11 SUB PUSH2 0x2068 JUMPI PUSH1 0x1 PUSH2 0x2064 PUSH2 0x1B7E JUMP JUMPDEST ADD SWAP10 POP JUMPDEST PUSH2 0x2070 PUSH2 0x1B7E JUMP JUMPDEST DUP11 GT ISZERO PUSH2 0x207B JUMPI PUSH0 SWAP2 POP JUMPDEST JUMPDEST PUSH2 0x2085 DUP11 PUSH2 0x221A JUMP JUMPDEST SWAP3 POP PUSH1 0x40 DUP4 ADD MLOAD PUSH0 DUP2 EQ PUSH2 0x209B JUMPI PUSH0 SWAP3 POP PUSH2 0x20C1 JUMP JUMPDEST DUP4 MLOAD ISZERO PUSH2 0x20A7 JUMPI DUP4 MLOAD SWAP3 POP JUMPDEST DUP12 DUP4 XOR PUSH1 0x60 SHL PUSH2 0x20C0 JUMPI PUSH1 0x1 DUP3 ADD SWAP2 POP DUP11 DUP3 PUSH1 0x5 SHL DUP11 ADD MSTORE JUMPDEST JUMPDEST POP PUSH1 0x1 DUP11 ADD SWAP10 POP DUP4 PUSH1 0x40 MSTORE DUP9 DUP11 EQ DUP1 PUSH2 0x20D9 JUMPI POP DUP5 DUP2 EQ JUMPDEST ISZERO PUSH2 0x2025 JUMPI DUP1 DUP9 MSTORE POP POP POP POP JUMPDEST POP POP POP SWAP4 SWAP3 POP POP POP JUMP JUMPDEST PUSH0 DUP4 PUSH20 0xFFFFFFFFFFFFFFFFFFFFFFFFFFFFFFFFFFFFFFFF AND PUSH4 0x150B7A02 PUSH2 0x2115 PUSH2 0x1CD7 JUMP JUMPDEST DUP8 DUP7 DUP7 PUSH1 0x40 MLOAD DUP6 PUSH4 0xFFFFFFFF AND PUSH1 0xE0 SHL DUP2 MSTORE PUSH1 0x4 ADD PUSH2 0x2137 SWAP5 SWAP4 SWAP3 SWAP2 SWAP1 PUSH2 0x31BB JUMP JUMPDEST PUSH1 0x20 PUSH1 0x40 MLOAD DUP1 DUP4 SUB DUP2 PUSH0 DUP8 GAS CALL SWAP3 POP POP POP DUP1 ISZERO PUSH2 0x2172 JUMPI POP PUSH1 0x40 MLOAD RETURNDATASIZE PUSH1 0x1F NOT PUSH1 0x1F DUP3 ADD AND DUP3 ADD DUP1 PUSH1 0x40 MSTORE POP DUP2 ADD SWAP1 PUSH2 0x216F SWAP2 SWAP1 PUSH2 0x3219 JUMP JUMPDEST PUSH1 0x1 JUMPDEST PUSH2 0x21C7 JUMPI RETURNDATASIZE DUP1 PUSH0 DUP2 EQ PUSH2 0x21A0 JUMPI PUSH1 0x40 MLOAD SWAP2 POP PUSH1 0x1F NOT PUSH1 0x3F RETURNDATASIZE ADD AND DUP3 ADD PUSH1 0x40 MSTORE RETURNDATASIZE DUP3 MSTORE RETURNDATASIZE PUSH0 PUSH1 0x20 DUP5 ADD RETURNDATACOPY PUSH2 0x21A5 JUMP JUMPDEST PUSH1 0x60 SWAP2 POP JUMPDEST POP PUSH0 DUP2 MLOAD SUB PUSH2 0x21BF JUMPI PUSH2 0x21BE PUSH4 0xD1A57ED6 PUSH1 0xE0 SHL PUSH2 0x1A44 JUMP JUMPDEST JUMPDEST DUP1 MLOAD DUP2 PUSH1 0x20 ADD REVERT JUMPDEST PUSH4 0x150B7A02 PUSH1 0xE0 SHL PUSH28 0xFFFFFFFFFFFFFFFFFFFFFFFFFFFFFFFFFFFFFFFFFFFFFFFFFFFFFFFF NOT AND DUP2 PUSH28 0xFFFFFFFFFFFFFFFFFFFFFFFFFFFFFFFFFFFFFFFFFFFFFFFFFFFFFFFF NOT AND EQ SWAP2 POP POP SWAP5 SWAP4 POP POP POP POP JUMP JUMPDEST PUSH2 0x2222 PUSH2 0x236B JUMP JUMPDEST PUSH2 0x223C PUSH1 0x4 PUSH0 DUP5 DUP2 MSTORE PUSH1 0x20 ADD SWAP1 DUP2 MSTORE PUSH1 0x20 ADD PUSH0 KECCAK256 SLOAD PUSH2 0x22B7 JUMP JUMPDEST SWAP1 POP SWAP2 SWAP1 POP JUMP JUMPDEST PUSH0 DUP1 PUSH1 0x4 PUSH0 DUP5 DUP2 MSTORE PUSH1 0x20 ADD SWAP1 DUP2 MSTORE PUSH1 0x20 ADD PUSH0 KECCAK256 SLOAD EQ ISZERO SWAP1 POP SWAP2 SWAP1 POP JUMP JUMPDEST PUSH0 PUSH29 0x100000000000000000000000000000000000000000000000000000000 DUP3 AND PUSH20 0xFFFFFFFFFFFFFFFFFFFFFFFFFFFFFFFFFFFFFFFF DUP4 AND GT SWAP1 POP SWAP2 SWAP1 POP JUMP JUMPDEST PUSH0 SWAP4 SWAP3 POP POP POP JUMP JUMPDEST PUSH0 PUSH1 0x1 DUP3 EQ PUSH1 0xE1 SHL SWAP1 POP SWAP2 SWAP1 POP JUMP JUMPDEST PUSH2 0x22BF PUSH2 0x236B JUMP JUMPDEST DUP2 DUP2 PUSH0 ADD SWAP1 PUSH20 0xFFFFFFFFFFFFFFFFFFFFFFFFFFFFFFFFFFFFFFFF AND SWAP1 DUP2 PUSH20 0xFFFFFFFFFFFFFFFFFFFFFFFFFFFFFFFFFFFFFFFF AND DUP2 MSTORE POP POP PUSH1 0xA0 DUP3 SWAP1 SHR DUP2 PUSH1 0x20 ADD SWAP1 PUSH8 0xFFFFFFFFFFFFFFFF AND SWAP1 DUP2 PUSH8 0xFFFFFFFFFFFFFFFF AND DUP2 MSTORE POP POP PUSH0 PUSH29 0x100000000000000000000000000000000000000000000000000000000 DUP4 AND EQ ISZERO DUP2 PUSH1 0x40 ADD SWAP1 ISZERO ISZERO SWAP1 DUP2 ISZERO ISZERO DUP2 MSTORE POP POP PUSH1 0xE8 DUP3 SWAP1 SHR DUP2 PUSH1 0x60 ADD SWAP1 PUSH3 0xFFFFFF AND SWAP1 DUP2 PUSH3 0xFFFFFF AND DUP2 MSTORE POP POP SWAP2 SWAP1 POP JUMP JUMPDEST PUSH1 0x40 MLOAD DUP1 PUSH1 0x80 ADD PUSH1 0x40 MSTORE DUP1 PUSH0 PUSH20 0xFFFFFFFFFFFFFFFFFFFFFFFFFFFFFFFFFFFFFFFF AND DUP2 MSTORE PUSH1 0x20 ADD PUSH0 PUSH8 0xFFFFFFFFFFFFFFFF AND DUP2 MSTORE PUSH1 0x20 ADD PUSH0 ISZERO ISZERO DUP2 MSTORE PUSH1 0x20 ADD PUSH0 PUSH3 0xFFFFFF AND DUP2 MSTORE POP SWAP1 JUMP JUMPDEST PUSH0 PUSH1 0x40 MLOAD SWAP1 POP SWAP1 JUMP JUMPDEST PUSH0 DUP1 REVERT JUMPDEST PUSH0 DUP1 REVERT JUMPDEST PUSH0 PUSH32 0xFFFFFFFF00000000000000000000000000000000000000000000000000000000 DUP3 AND SWAP1 POP SWAP2 SWAP1 POP JUMP JUMPDEST PUSH2 0x23FB DUP2 PUSH2 0x23C7 JUMP JUMPDEST DUP2 EQ PUSH2 0x2405 JUMPI PUSH0 DUP1 REVERT JUMPDEST POP JUMP JUMPDEST PUSH0 DUP2 CALLDATALOAD SWAP1 POP PUSH2 0x2416 DUP2 PUSH2 0x23F2 JUMP JUMPDEST SWAP3 SWAP2 POP POP JUMP JUMPDEST PUSH0 PUSH1 0x20 DUP3 DUP5 SUB SLT ISZERO PUSH2 0x2431 JUMPI PUSH2 0x2430 PUSH2 0x23BF JUMP JUMPDEST JUMPDEST PUSH0 PUSH2 0x243E DUP5 DUP3 DUP6 ADD PUSH2 0x2408 JUMP JUMPDEST SWAP2 POP POP SWAP3 SWAP2 POP POP JUMP JUMPDEST PUSH0 DUP2 ISZERO ISZERO SWAP1 POP SWAP2 SWAP1 POP JUMP JUMPDEST PUSH2 0x245B DUP2 PUSH2 0x2447 JUMP JUMPDEST DUP3 MSTORE POP POP JUMP JUMPDEST PUSH0 PUSH1 0x20 DUP3 ADD SWAP1 POP PUSH2 0x2474 PUSH0 DUP4 ADD DUP5 PUSH2 0x2452 JUMP JUMPDEST SWAP3 SWAP2 POP POP JUMP JUMPDEST PUSH0 DUP2 MLOAD SWAP1 POP SWAP2 SWAP1 POP JUMP JUMPDEST PUSH0 DUP3 DUP3 MSTORE PUSH1 0x20 DUP3 ADD SWAP1 POP SWAP3 SWAP2 POP POP JUMP JUMPDEST PUSH0 JUMPDEST DUP4 DUP2 LT ISZERO PUSH2 0x24B1 JUMPI DUP1 DUP3 ADD MLOAD DUP2 DUP5 ADD MSTORE PUSH1 0x20 DUP2 ADD SWAP1 POP PUSH2 0x2496 JUMP JUMPDEST PUSH0 DUP5 DUP5 ADD MSTORE POP POP POP POP JUMP JUMPDEST PUSH0 PUSH1 0x1F NOT PUSH1 0x1F DUP4 ADD AND SWAP1 POP SWAP2 SWAP1 POP JUMP JUMPDEST PUSH0 PUSH2 0x24D6 DUP3 PUSH2 0x247A JUMP JUMPDEST PUSH2 0x24E0 DUP2 DUP6 PUSH2 0x2484 JUMP JUMPDEST SWAP4 POP PUSH2 0x24F0 DUP2 DUP6 PUSH1 0x20 DUP7 ADD PUSH2 0x2494 JUMP JUMPDEST PUSH2 0x24F9 DUP2 PUSH2 0x24BC JUMP JUMPDEST DUP5 ADD SWAP2 POP POP SWAP3 SWAP2 POP POP JUMP JUMPDEST PUSH0 PUSH1 0x20 DUP3 ADD SWAP1 POP DUP2 DUP2 SUB PUSH0 DUP4 ADD MSTORE PUSH2 0x251C DUP2 DUP5 PUSH2 0x24CC JUMP JUMPDEST SWAP1 POP SWAP3 SWAP2 POP POP JUMP JUMPDEST PUSH0 DUP2 SWAP1 POP SWAP2 SWAP1 POP JUMP JUMPDEST PUSH2 0x2536 DUP2 PUSH2 0x2524 JUMP JUMPDEST DUP2 EQ PUSH2 0x2540 JUMPI PUSH0 DUP1 REVERT JUMPDEST POP JUMP JUMPDEST PUSH0 DUP2 CALLDATALOAD SWAP1 POP PUSH2 0x2551 DUP2 PUSH2 0x252D JUMP JUMPDEST SWAP3 SWAP2 POP POP JUMP JUMPDEST PUSH0 PUSH1 0x20 DUP3 DUP5 SUB SLT ISZERO PUSH2 0x256C JUMPI PUSH2 0x256B PUSH2 0x23BF JUMP JUMPDEST JUMPDEST PUSH0 PUSH2 0x2579 DUP5 DUP3 DUP6 ADD PUSH2 0x2543 JUMP JUMPDEST SWAP2 POP POP SWAP3 SWAP2 POP POP JUMP JUMPDEST PUSH0 PUSH20 0xFFFFFFFFFFFFFFFFFFFFFFFFFFFFFFFFFFFFFFFF DUP3 AND SWAP1 POP SWAP2 SWAP1 POP JUMP JUMPDEST PUSH0 PUSH2 0x25AB DUP3 PUSH2 0x2582 JUMP JUMPDEST SWAP1 POP SWAP2 SWAP1 POP JUMP JUMPDEST PUSH2 0x25BB DUP2 PUSH2 0x25A1 JUMP JUMPDEST DUP3 MSTORE POP POP JUMP JUMPDEST PUSH0 PUSH1 0x20 DUP3 ADD SWAP1 POP PUSH2 0x25D4 PUSH0 DUP4 ADD DUP5 PUSH2 0x25B2 JUMP JUMPDEST SWAP3 SWAP2 POP POP JUMP JUMPDEST PUSH2 0x25E3 DUP2 PUSH2 0x25A1 JUMP JUMPDEST DUP2 EQ PUSH2 0x25ED JUMPI PUSH0 DUP1 REVERT JUMPDEST POP JUMP JUMPDEST PUSH0 DUP2 CALLDATALOAD SWAP1 POP PUSH2 0x25FE DUP2 PUSH2 0x25DA JUMP JUMPDEST SWAP3 SWAP2 POP POP JUMP JUMPDEST PUSH0 DUP1 PUSH1 0x40 DUP4 DUP6 SUB SLT ISZERO PUSH2 0x261A JUMPI PUSH2 0x2619 PUSH2 0x23BF JUMP JUMPDEST JUMPDEST PUSH0 PUSH2 0x2627 DUP6 DUP3 DUP7 ADD PUSH2 0x25F0 JUMP JUMPDEST SWAP3 POP POP PUSH1 0x20 PUSH2 0x2638 DUP6 DUP3 DUP7 ADD PUSH2 0x2543 JUMP JUMPDEST SWAP2 POP POP SWAP3 POP SWAP3 SWAP1 POP JUMP JUMPDEST PUSH2 0x264B DUP2 PUSH2 0x2524 JUMP JUMPDEST DUP3 MSTORE POP POP JUMP JUMPDEST PUSH0 PUSH1 0x20 DUP3 ADD SWAP1 POP PUSH2 0x2664 PUSH0 DUP4 ADD DUP5 PUSH2 0x2642 JUMP JUMPDEST SWAP3 SWAP2 POP POP JUMP JUMPDEST PUSH0 DUP1 PUSH0 PUSH1 0x60 DUP5 DUP7 SUB SLT ISZERO PUSH2 0x2681 JUMPI PUSH2 0x2680 PUSH2 0x23BF JUMP JUMPDEST JUMPDEST PUSH0 PUSH2 0x268E DUP7 DUP3 DUP8 ADD PUSH2 0x25F0 JUMP JUMPDEST SWAP4 POP POP PUSH1 0x20 PUSH2 0x269F DUP7 DUP3 DUP8 ADD PUSH2 0x25F0 JUMP JUMPDEST SWAP3 POP POP PUSH1 0x40 PUSH2 0x26B0 DUP7 DUP3 DUP8 ADD PUSH2 0x2543 JUMP JUMPDEST SWAP2 POP POP SWAP3 POP SWAP3 POP SWAP3 JUMP JUMPDEST PUSH0 PUSH1 0x20 DUP3 DUP5 SUB SLT ISZERO PUSH2 0x26CF JUMPI PUSH2 0x26CE PUSH2 0x23BF JUMP JUMPDEST JUMPDEST PUSH0 PUSH2 0x26DC DUP5 DUP3 DUP6 ADD PUSH2 0x25F0 JUMP JUMPDEST SWAP2 POP POP SWAP3 SWAP2 POP POP JUMP JUMPDEST PUSH0 DUP1 REVERT JUMPDEST PUSH0 DUP1 REVERT JUMPDEST PUSH0 DUP1 REVERT JUMPDEST PUSH0 DUP1 DUP4 PUSH1 0x1F DUP5 ADD SLT PUSH2 0x2706 JUMPI PUSH2 0x2705 PUSH2 0x26E5 JUMP JUMPDEST JUMPDEST DUP3 CALLDATALOAD SWAP1 POP PUSH8 0xFFFFFFFFFFFFFFFF DUP2 GT ISZERO PUSH2 0x2723 JUMPI PUSH2 0x2722 PUSH2 0x26E9 JUMP JUMPDEST JUMPDEST PUSH1 0x20 DUP4 ADD SWAP2 POP DUP4 PUSH1 0x20 DUP3 MUL DUP4 ADD GT ISZERO PUSH2 0x273F JUMPI PUSH2 0x273E PUSH2 0x26ED JUMP JUMPDEST JUMPDEST SWAP3 POP SWAP3 SWAP1 POP JUMP JUMPDEST PUSH0 DUP1 PUSH1 0x20 DUP4 DUP6 SUB SLT ISZERO PUSH2 0x275C JUMPI PUSH2 0x275B PUSH2 0x23BF JUMP JUMPDEST JUMPDEST PUSH0 DUP4 ADD CALLDATALOAD PUSH8 0xFFFFFFFFFFFFFFFF DUP2 GT ISZERO PUSH2 0x2779 JUMPI PUSH2 0x2778 PUSH2 0x23C3 JUMP JUMPDEST JUMPDEST PUSH2 0x2785 DUP6 DUP3 DUP7 ADD PUSH2 0x26F1 JUMP JUMPDEST SWAP3 POP SWAP3 POP POP SWAP3 POP SWAP3 SWAP1 POP JUMP JUMPDEST PUSH0 DUP2 MLOAD SWAP1 POP SWAP2 SWAP1 POP JUMP JUMPDEST PUSH0 DUP3 DUP3 MSTORE PUSH1 0x20 DUP3 ADD SWAP1 POP SWAP3 SWAP2 POP POP JUMP JUMPDEST PUSH0 DUP2 SWAP1 POP PUSH1 0x20 DUP3 ADD SWAP1 POP SWAP2 SWAP1 POP JUMP JUMPDEST PUSH2 0x27C3 DUP2 PUSH2 0x25A1 JUMP JUMPDEST DUP3 MSTORE POP POP JUMP JUMPDEST PUSH0 PUSH8 0xFFFFFFFFFFFFFFFF DUP3 AND SWAP1 POP SWAP2 SWAP1 POP JUMP JUMPDEST PUSH2 0x27E5 DUP2 PUSH2 0x27C9 JUMP JUMPDEST DUP3 MSTORE POP POP JUMP JUMPDEST PUSH2 0x27F4 DUP2 PUSH2 0x2447 JUMP JUMPDEST DUP3 MSTORE POP POP JUMP JUMPDEST PUSH0 PUSH3 0xFFFFFF DUP3 AND SWAP1 POP SWAP2 SWAP1 POP JUMP JUMPDEST PUSH2 0x2811 DUP2 PUSH2 0x27FA JUMP JUMPDEST DUP3 MSTORE POP POP JUMP JUMPDEST PUSH1 0x80 DUP3 ADD PUSH0 DUP3 ADD MLOAD PUSH2 0x282B PUSH0 DUP6 ADD DUP3 PUSH2 0x27BA JUMP JUMPDEST POP PUSH1 0x20 DUP3 ADD MLOAD PUSH2 0x283E PUSH1 0x20 DUP6 ADD DUP3 PUSH2 0x27DC JUMP JUMPDEST POP PUSH1 0x40 DUP3 ADD MLOAD PUSH2 0x2851 PUSH1 0x40 DUP6 ADD DUP3 PUSH2 0x27EB JUMP JUMPDEST POP PUSH1 0x60 DUP3 ADD MLOAD PUSH2 0x2864 PUSH1 0x60 DUP6 ADD DUP3 PUSH2 0x2808 JUMP JUMPDEST POP POP POP POP JUMP JUMPDEST PUSH0 PUSH2 0x2875 DUP4 DUP4 PUSH2 0x2817 JUMP JUMPDEST PUSH1 0x80 DUP4 ADD SWAP1 POP SWAP3 SWAP2 POP POP JUMP JUMPDEST PUSH0 PUSH1 0x20 DUP3 ADD SWAP1 POP SWAP2 SWAP1 POP JUMP JUMPDEST PUSH0 PUSH2 0x2897 DUP3 PUSH2 0x2791 JUMP JUMPDEST PUSH2 0x28A1 DUP2 DUP6 PUSH2 0x279B JUMP JUMPDEST SWAP4 POP PUSH2 0x28AC DUP4 PUSH2 0x27AB JUMP JUMPDEST DUP1 PUSH0 JUMPDEST DUP4 DUP2 LT ISZERO PUSH2 0x28DC JUMPI DUP2 MLOAD PUSH2 0x28C3 DUP9 DUP3 PUSH2 0x286A JUMP JUMPDEST SWAP8 POP PUSH2 0x28CE DUP4 PUSH2 0x2881 JUMP JUMPDEST SWAP3 POP POP PUSH1 0x1 DUP2 ADD SWAP1 POP PUSH2 0x28AF JUMP JUMPDEST POP DUP6 SWAP4 POP POP POP POP SWAP3 SWAP2 POP POP JUMP JUMPDEST PUSH0 PUSH1 0x20 DUP3 ADD SWAP1 POP DUP2 DUP2 SUB PUSH0 DUP4 ADD MSTORE PUSH2 0x2901 DUP2 DUP5 PUSH2 0x288D JUMP JUMPDEST SWAP1 POP SWAP3 SWAP2 POP POP JUMP JUMPDEST PUSH0 DUP2 SWAP1 POP SWAP2 SWAP1 POP JUMP JUMPDEST PUSH2 0x291B DUP2 PUSH2 0x2909 JUMP JUMPDEST DUP3 MSTORE POP POP JUMP JUMPDEST PUSH0 PUSH1 0x20 DUP3 ADD SWAP1 POP PUSH2 0x2934 PUSH0 DUP4 ADD DUP5 PUSH2 0x2912 JUMP JUMPDEST SWAP3 SWAP2 POP POP JUMP JUMPDEST PUSH0 DUP2 MLOAD SWAP1 POP SWAP2 SWAP1 POP JUMP JUMPDEST PUSH0 DUP3 DUP3 MSTORE PUSH1 0x20 DUP3 ADD SWAP1 POP SWAP3 SWAP2 POP POP JUMP JUMPDEST PUSH0 DUP2 SWAP1 POP PUSH1 0x20 DUP3 ADD SWAP1 POP SWAP2 SWAP1 POP JUMP JUMPDEST PUSH2 0x296C DUP2 PUSH2 0x2524 JUMP JUMPDEST DUP3 MSTORE POP POP JUMP JUMPDEST PUSH0 PUSH2 0x297D DUP4 DUP4 PUSH2 0x2963 JUMP JUMPDEST PUSH1 0x20 DUP4 ADD SWAP1 POP SWAP3 SWAP2 POP POP JUMP JUMPDEST PUSH0 PUSH1 0x20 DUP3 ADD SWAP1 POP SWAP2 SWAP1 POP JUMP JUMPDEST PUSH0 PUSH2 0x299F DUP3 PUSH2 0x293A JUMP JUMPDEST PUSH2 0x29A9 DUP2 DUP6 PUSH2 0x2944 JUMP JUMPDEST SWAP4 POP PUSH2 0x29B4 DUP4 PUSH2 0x2954 JUMP JUMPDEST DUP1 PUSH0 JUMPDEST DUP4 DUP2 LT ISZERO PUSH2 0x29E4 JUMPI DUP2 MLOAD PUSH2 0x29CB DUP9 DUP3 PUSH2 0x2972 JUMP JUMPDEST SWAP8 POP PUSH2 0x29D6 DUP4 PUSH2 0x2989 JUMP JUMPDEST SWAP3 POP POP PUSH1 0x1 DUP2 ADD SWAP1 POP PUSH2 0x29B7 JUMP JUMPDEST POP DUP6 SWAP4 POP POP POP POP SWAP3 SWAP2 POP POP JUMP JUMPDEST PUSH0 PUSH1 0x20 DUP3 ADD SWAP1 POP DUP2 DUP2 SUB PUSH0 DUP4 ADD MSTORE PUSH2 0x2A09 DUP2 DUP5 PUSH2 0x2995 JUMP JUMPDEST SWAP1 POP SWAP3 SWAP2 POP POP JUMP JUMPDEST PUSH0 DUP1 PUSH0 PUSH1 0x60 DUP5 DUP7 SUB SLT ISZERO PUSH2 0x2A28 JUMPI PUSH2 0x2A27 PUSH2 0x23BF JUMP JUMPDEST JUMPDEST PUSH0 PUSH2 0x2A35 DUP7 DUP3 DUP8 ADD PUSH2 0x25F0 JUMP JUMPDEST SWAP4 POP POP PUSH1 0x20 PUSH2 0x2A46 DUP7 DUP3 DUP8 ADD PUSH2 0x2543 JUMP JUMPDEST SWAP3 POP POP PUSH1 0x40 PUSH2 0x2A57 DUP7 DUP3 DUP8 ADD PUSH2 0x2543 JUMP JUMPDEST SWAP2 POP POP SWAP3 POP SWAP3 POP SWAP3 JUMP JUMPDEST PUSH2 0x2A6A DUP2 PUSH2 0x2447 JUMP JUMPDEST DUP2 EQ PUSH2 0x2A74 JUMPI PUSH0 DUP1 REVERT JUMPDEST POP JUMP JUMPDEST PUSH0 DUP2 CALLDATALOAD SWAP1 POP PUSH2 0x2A85 DUP2 PUSH2 0x2A61 JUMP JUMPDEST SWAP3 SWAP2 POP POP JUMP JUMPDEST PUSH0 DUP1 PUSH1 0x40 DUP4 DUP6 SUB SLT ISZERO PUSH2 0x2AA1 JUMPI PUSH2 0x2AA0 PUSH2 0x23BF JUMP JUMPDEST JUMPDEST PUSH0 PUSH2 0x2AAE DUP6 DUP3 DUP7 ADD PUSH2 0x25F0 JUMP JUMPDEST SWAP3 POP POP PUSH1 0x20 PUSH2 0x2ABF DUP6 DUP3 DUP7 ADD PUSH2 0x2A77 JUMP JUMPDEST SWAP2 POP POP SWAP3 POP SWAP3 SWAP1 POP JUMP JUMPDEST PUSH0 DUP1 REVERT JUMPDEST PUSH32 0x4E487B7100000000000000000000000000000000000000000000000000000000 PUSH0 MSTORE PUSH1 0x41 PUSH1 0x4 MSTORE PUSH1 0x24 PUSH0 REVERT JUMPDEST PUSH2 0x2B03 DUP3 PUSH2 0x24BC JUMP JUMPDEST DUP2 ADD DUP2 DUP2 LT PUSH8 0xFFFFFFFFFFFFFFFF DUP3 GT OR ISZERO PUSH2 0x2B22 JUMPI PUSH2 0x2B21 PUSH2 0x2ACD JUMP JUMPDEST JUMPDEST DUP1 PUSH1 0x40 MSTORE POP POP POP JUMP JUMPDEST PUSH0 PUSH2 0x2B34 PUSH2 0x23B6 JUMP JUMPDEST SWAP1 POP PUSH2 0x2B40 DUP3 DUP3 PUSH2 0x2AFA JUMP JUMPDEST SWAP2 SWAP1 POP JUMP JUMPDEST PUSH0 PUSH8 0xFFFFFFFFFFFFFFFF DUP3 GT ISZERO PUSH2 0x2B5F JUMPI PUSH2 0x2B5E PUSH2 0x2ACD JUMP JUMPDEST JUMPDEST PUSH2 0x2B68 DUP3 PUSH2 0x24BC JUMP JUMPDEST SWAP1 POP PUSH1 0x20 DUP2 ADD SWAP1 POP SWAP2 SWAP1 POP JUMP JUMPDEST DUP3 DUP2 DUP4 CALLDATACOPY PUSH0 DUP4 DUP4 ADD MSTORE POP POP POP JUMP JUMPDEST PUSH0 PUSH2 0x2B95 PUSH2 0x2B90 DUP5 PUSH2 0x2B45 JUMP JUMPDEST PUSH2 0x2B2B JUMP JUMPDEST SWAP1 POP DUP3 DUP2 MSTORE PUSH1 0x20 DUP2 ADD DUP5 DUP5 DUP5 ADD GT ISZERO PUSH2 0x2BB1 JUMPI PUSH2 0x2BB0 PUSH2 0x2AC9 JUMP JUMPDEST JUMPDEST PUSH2 0x2BBC DUP5 DUP3 DUP6 PUSH2 0x2B75 JUMP JUMPDEST POP SWAP4 SWAP3 POP POP POP JUMP JUMPDEST PUSH0 DUP3 PUSH1 0x1F DUP4 ADD SLT PUSH2 0x2BD8 JUMPI PUSH2 0x2BD7 PUSH2 0x26E5 JUMP JUMPDEST JUMPDEST DUP2 CALLDATALOAD PUSH2 0x2BE8 DUP5 DUP3 PUSH1 0x20 DUP7 ADD PUSH2 0x2B83 JUMP JUMPDEST SWAP2 POP POP SWAP3 SWAP2 POP POP JUMP JUMPDEST PUSH0 DUP1 PUSH0 DUP1 PUSH1 0x80 DUP6 DUP8 SUB SLT ISZERO PUSH2 0x2C09 JUMPI PUSH2 0x2C08 PUSH2 0x23BF JUMP JUMPDEST JUMPDEST PUSH0 PUSH2 0x2C16 DUP8 DUP3 DUP9 ADD PUSH2 0x25F0 JUMP JUMPDEST SWAP5 POP POP PUSH1 0x20 PUSH2 0x2C27 DUP8 DUP3 DUP9 ADD PUSH2 0x25F0 JUMP JUMPDEST SWAP4 POP POP PUSH1 0x40 PUSH2 0x2C38 DUP8 DUP3 DUP9 ADD PUSH2 0x2543 JUMP JUMPDEST SWAP3 POP POP PUSH1 0x60 DUP6 ADD CALLDATALOAD PUSH8 0xFFFFFFFFFFFFFFFF DUP2 GT ISZERO PUSH2 0x2C59 JUMPI PUSH2 0x2C58 PUSH2 0x23C3 JUMP JUMPDEST JUMPDEST PUSH2 0x2C65 DUP8 DUP3 DUP9 ADD PUSH2 0x2BC4 JUMP JUMPDEST SWAP2 POP POP SWAP3 SWAP6 SWAP2 SWAP5 POP SWAP3 POP JUMP JUMPDEST PUSH1 0x80 DUP3 ADD PUSH0 DUP3 ADD MLOAD PUSH2 0x2C85 PUSH0 DUP6 ADD DUP3 PUSH2 0x27BA JUMP JUMPDEST POP PUSH1 0x20 DUP3 ADD MLOAD PUSH2 0x2C98 PUSH1 0x20 DUP6 ADD DUP3 PUSH2 0x27DC JUMP JUMPDEST POP PUSH1 0x40 DUP3 ADD MLOAD PUSH2 0x2CAB PUSH1 0x40 DUP6 ADD DUP3 PUSH2 0x27EB JUMP JUMPDEST POP PUSH1 0x60 DUP3 ADD MLOAD PUSH2 0x2CBE PUSH1 0x60 DUP6 ADD DUP3 PUSH2 0x2808 JUMP JUMPDEST POP POP POP POP JUMP JUMPDEST PUSH0 PUSH1 0x80 DUP3 ADD SWAP1 POP PUSH2 0x2CD7 PUSH0 DUP4 ADD DUP5 PUSH2 0x2C71 JUMP JUMPDEST SWAP3 SWAP2 POP POP JUMP JUMPDEST PUSH0 DUP1 PUSH1 0x40 DUP4 DUP6 SUB SLT ISZERO PUSH2 0x2CF3 JUMPI PUSH2 0x2CF2 PUSH2 0x23BF JUMP JUMPDEST JUMPDEST PUSH0 PUSH2 0x2D00 DUP6 DUP3 DUP7 ADD PUSH2 0x25F0 JUMP JUMPDEST SWAP3 POP POP PUSH1 0x20 PUSH2 0x2D11 DUP6 DUP3 DUP7 ADD PUSH2 0x25F0 JUMP JUMPDEST SWAP2 POP POP SWAP3 POP SWAP3 SWAP1 POP JUMP JUMPDEST PUSH32 0x4E487B7100000000000000000000000000000000000000000000000000000000 PUSH0 MSTORE PUSH1 0x22 PUSH1 0x4 MSTORE PUSH1 0x24 PUSH0 REVERT JUMPDEST PUSH0 PUSH1 0x2 DUP3 DIV SWAP1 POP PUSH1 0x1 DUP3 AND DUP1 PUSH2 0x2D5F JUMPI PUSH1 0x7F DUP3 AND SWAP2 POP JUMPDEST PUSH1 0x20 DUP3 LT DUP2 SUB PUSH2 0x2D72 JUMPI PUSH2 0x2D71 PUSH2 0x2D1B JUMP JUMPDEST JUMPDEST POP SWAP2 SWAP1 POP JUMP JUMPDEST PUSH32 0x5245454E5452414E435900000000000000000000000000000000000000000000 PUSH0 DUP3 ADD MSTORE POP JUMP JUMPDEST PUSH0 PUSH2 0x2DAC PUSH1 0xA DUP4 PUSH2 0x2484 JUMP JUMPDEST SWAP2 POP PUSH2 0x2DB7 DUP3 PUSH2 0x2D78 JUMP JUMPDEST PUSH1 0x20 DUP3 ADD SWAP1 POP SWAP2 SWAP1 POP JUMP JUMPDEST PUSH0 PUSH1 0x20 DUP3 ADD SWAP1 POP DUP2 DUP2 SUB PUSH0 DUP4 ADD MSTORE PUSH2 0x2DD9 DUP2 PUSH2 0x2DA0 JUMP JUMPDEST SWAP1 POP SWAP2 SWAP1 POP JUMP JUMPDEST PUSH32 0x4E487B7100000000000000000000000000000000000000000000000000000000 PUSH0 MSTORE PUSH1 0x11 PUSH1 0x4 MSTORE PUSH1 0x24 PUSH0 REVERT JUMPDEST PUSH0 PUSH2 0x2E17 DUP3 PUSH2 0x2524 JUMP JUMPDEST SWAP2 POP PUSH2 0x2E22 DUP4 PUSH2 0x2524 JUMP JUMPDEST SWAP3 POP DUP3 DUP3 ADD SWAP1 POP DUP1 DUP3 GT ISZERO PUSH2 0x2E3A JUMPI PUSH2 0x2E39 PUSH2 0x2DE0 JUMP JUMPDEST JUMPDEST SWAP3 SWAP2 POP POP JUMP JUMPDEST PUSH0 PUSH2 0x2E4A DUP3 PUSH2 0x2524 JUMP JUMPDEST SWAP2 POP PUSH2 0x2E55 DUP4 PUSH2 0x2524 JUMP JUMPDEST SWAP3 POP DUP3 DUP3 SUB SWAP1 POP DUP2 DUP2 GT ISZERO PUSH2 0x2E6D JUMPI PUSH2 0x2E6C PUSH2 0x2DE0 JUMP JUMPDEST JUMPDEST SWAP3 SWAP2 POP POP JUMP JUMPDEST PUSH0 DUP2 SWAP1 POP SWAP2 SWAP1 POP JUMP JUMPDEST PUSH2 0x2E8D PUSH2 0x2E88 DUP3 PUSH2 0x2909 JUMP JUMPDEST PUSH2 0x2E73 JUMP JUMPDEST DUP3 MSTORE POP POP JUMP JUMPDEST PUSH0 DUP2 SWAP1 POP SWAP2 SWAP1 POP JUMP JUMPDEST PUSH2 0x2EAD PUSH2 0x2EA8 DUP3 PUSH2 0x2524 JUMP JUMPDEST PUSH2 0x2E93 JUMP JUMPDEST DUP3 MSTORE POP POP JUMP JUMPDEST PUSH0 PUSH2 0x2EBE DUP3 DUP6 PUSH2 0x2E7C JUMP JUMPDEST PUSH1 0x20 DUP3 ADD SWAP2 POP PUSH2 0x2ECE DUP3 DUP5 PUSH2 0x2E9C JUMP JUMPDEST PUSH1 0x20 DUP3 ADD SWAP2 POP DUP2 SWAP1 POP SWAP4 SWAP3 POP POP POP JUMP JUMPDEST PUSH0 PUSH2 0x2EE8 DUP3 PUSH2 0x2524 JUMP JUMPDEST SWAP2 POP PUSH32 0xFFFFFFFFFFFFFFFFFFFFFFFFFFFFFFFFFFFFFFFFFFFFFFFFFFFFFFFFFFFFFFFF DUP3 SUB PUSH2 0x2F1A JUMPI PUSH2 0x2F19 PUSH2 0x2DE0 JUMP JUMPDEST JUMPDEST PUSH1 0x1 DUP3 ADD SWAP1 POP SWAP2 SWAP1 POP JUMP JUMPDEST PUSH32 0x554E415554484F52495A45440000000000000000000000000000000000000000 PUSH0 DUP3 ADD MSTORE POP JUMP JUMPDEST PUSH0 PUSH2 0x2F59 PUSH1 0xC DUP4 PUSH2 0x2484 JUMP JUMPDEST SWAP2 POP PUSH2 0x2F64 DUP3 PUSH2 0x2F25 JUMP JUMPDEST PUSH1 0x20 DUP3 ADD SWAP1 POP SWAP2 SWAP1 POP JUMP JUMPDEST PUSH0 PUSH1 0x20 DUP3 ADD SWAP1 POP DUP2 DUP2 SUB PUSH0 DUP4 ADD MSTORE PUSH2 0x2F86 DUP2 PUSH2 0x2F4D JUMP JUMPDEST SWAP1 POP SWAP2 SWAP1 POP JUMP JUMPDEST PUSH0 DUP2 SWAP1 POP SWAP3 SWAP2 POP POP JUMP JUMPDEST POP JUMP JUMPDEST PUSH0 PUSH2 0x2FA5 PUSH0 DUP4 PUSH2 0x2F8D JUMP JUMPDEST SWAP2 POP PUSH2 0x2FB0 DUP3 PUSH2 0x2F97 JUMP JUMPDEST PUSH0 DUP3 ADD SWAP1 POP SWAP2 SWAP1 POP JUMP JUMPDEST PUSH0 PUSH2 0x2FC4 DUP3 PUSH2 0x2F9A JUMP JUMPDEST SWAP2 POP DUP2 SWAP1 POP SWAP2 SWAP1 POP JUMP JUMPDEST PUSH32 0x5472616E73666572206661696C65642E00000000000000000000000000000000 PUSH0 DUP3 ADD MSTORE POP JUMP JUMPDEST PUSH0 PUSH2 0x3002 PUSH1 0x10 DUP4 PUSH2 0x2484 JUMP JUMPDEST SWAP2 POP PUSH2 0x300D DUP3 PUSH2 0x2FCE JUMP JUMPDEST PUSH1 0x20 DUP3 ADD SWAP1 POP SWAP2 SWAP1 POP JUMP JUMPDEST PUSH0 PUSH1 0x20 DUP3 ADD SWAP1 POP DUP2 DUP2 SUB PUSH0 DUP4 ADD MSTORE PUSH2 0x302F DUP2 PUSH2 0x2FF6 JUMP JUMPDEST SWAP1 POP SWAP2 SWAP1 POP JUMP JUMPDEST PUSH0 PUSH1 0x40 DUP3 ADD SWAP1 POP PUSH2 0x3049 PUSH0 DUP4 ADD DUP6 PUSH2 0x2642 JUMP JUMPDEST PUSH2 0x3056 PUSH1 0x20 DUP4 ADD DUP5 PUSH2 0x2912 JUMP JUMPDEST SWAP4 SWAP3 POP POP POP JUMP JUMPDEST PUSH0 PUSH8 0xFFFFFFFFFFFFFFFF DUP3 GT ISZERO PUSH2 0x3077 JUMPI PUSH2 0x3076 PUSH2 0x2ACD JUMP JUMPDEST JUMPDEST PUSH2 0x3080 DUP3 PUSH2 0x24BC JUMP JUMPDEST SWAP1 POP PUSH1 0x20 DUP2 ADD SWAP1 POP SWAP2 SWAP1 POP JUMP JUMPDEST PUSH0 PUSH2 0x309F PUSH2 0x309A DUP5 PUSH2 0x305D JUMP JUMPDEST PUSH2 0x2B2B JUMP JUMPDEST SWAP1 POP DUP3 DUP2 MSTORE PUSH1 0x20 DUP2 ADD DUP5 DUP5 DUP5 ADD GT ISZERO PUSH2 0x30BB JUMPI PUSH2 0x30BA PUSH2 0x2AC9 JUMP JUMPDEST JUMPDEST PUSH2 0x30C6 DUP5 DUP3 DUP6 PUSH2 0x2494 JUMP JUMPDEST POP SWAP4 SWAP3 POP POP POP JUMP JUMPDEST PUSH0 DUP3 PUSH1 0x1F DUP4 ADD SLT PUSH2 0x30E2 JUMPI PUSH2 0x30E1 PUSH2 0x26E5 JUMP JUMPDEST JUMPDEST DUP2 MLOAD PUSH2 0x30F2 DUP5 DUP3 PUSH1 0x20 DUP7 ADD PUSH2 0x308D JUMP JUMPDEST SWAP2 POP POP SWAP3 SWAP2 POP POP JUMP JUMPDEST PUSH0 PUSH1 0x20 DUP3 DUP5 SUB SLT ISZERO PUSH2 0x3110 JUMPI PUSH2 0x310F PUSH2 0x23BF JUMP JUMPDEST JUMPDEST PUSH0 DUP3 ADD MLOAD PUSH8 0xFFFFFFFFFFFFFFFF DUP2 GT ISZERO PUSH2 0x312D JUMPI PUSH2 0x312C PUSH2 0x23C3 JUMP JUMPDEST JUMPDEST PUSH2 0x3139 DUP5 DUP3 DUP6 ADD PUSH2 0x30CE JUMP JUMPDEST SWAP2 POP POP SWAP3 SWAP2 POP POP JUMP JUMPDEST PUSH0 PUSH2 0x314C DUP3 PUSH2 0x2524 JUMP JUMPDEST SWAP2 POP PUSH0 DUP3 SUB PUSH2 0x315E JUMPI PUSH2 0x315D PUSH2 0x2DE0 JUMP JUMPDEST JUMPDEST PUSH1 0x1 DUP3 SUB SWAP1 POP SWAP2 SWAP1 POP JUMP JUMPDEST PUSH0 DUP2 MLOAD SWAP1 POP SWAP2 SWAP1 POP JUMP JUMPDEST PUSH0 DUP3 DUP3 MSTORE PUSH1 0x20 DUP3 ADD SWAP1 POP SWAP3 SWAP2 POP POP JUMP JUMPDEST PUSH0 PUSH2 0x318D DUP3 PUSH2 0x3169 JUMP JUMPDEST PUSH2 0x3197 DUP2 DUP6 PUSH2 0x3173 JUMP JUMPDEST SWAP4 POP PUSH2 0x31A7 DUP2 DUP6 PUSH1 0x20 DUP7 ADD PUSH2 0x2494 JUMP JUMPDEST PUSH2 0x31B0 DUP2 PUSH2 0x24BC JUMP JUMPDEST DUP5 ADD SWAP2 POP POP SWAP3 SWAP2 POP POP JUMP JUMPDEST PUSH0 PUSH1 0x80 DUP3 ADD SWAP1 POP PUSH2 0x31CE PUSH0 DUP4 ADD DUP8 PUSH2 0x25B2 JUMP JUMPDEST PUSH2 0x31DB PUSH1 0x20 DUP4 ADD DUP7 PUSH2 0x25B2 JUMP JUMPDEST PUSH2 0x31E8 PUSH1 0x40 DUP4 ADD DUP6 PUSH2 0x2642 JUMP JUMPDEST DUP2 DUP2 SUB PUSH1 0x60 DUP4 ADD MSTORE PUSH2 0x31FA DUP2 DUP5 PUSH2 0x3183 JUMP JUMPDEST SWAP1 POP SWAP6 SWAP5 POP POP POP POP POP JUMP JUMPDEST PUSH0 DUP2 MLOAD SWAP1 POP PUSH2 0x3213 DUP2 PUSH2 0x23F2 JUMP JUMPDEST SWAP3 SWAP2 POP POP JUMP JUMPDEST PUSH0 PUSH1 0x20 DUP3 DUP5 SUB SLT ISZERO PUSH2 0x322E JUMPI PUSH2 0x322D PUSH2 0x23BF JUMP JUMPDEST JUMPDEST PUSH0 PUSH2 0x323B DUP5 DUP3 DUP6 ADD PUSH2 0x3205 JUMP JUMPDEST SWAP2 POP POP SWAP3 SWAP2 POP POP JUMP INVALID LOG2 PUSH5 0x6970667358 0x22 SLT KECCAK256 0x2D 0x2A DUP5 SWAP13 0x29 MUL BYTE PUSH2 0x9777 PUSH4 0x657D8528 0xFC PUSH15 0xF0BEE3058DF720574C68CEAF940FC4 PUSH5 0x736F6C6343 STOP ADDMOD BYTE STOP CALLER "
		},
		"gasEstimates": {
			"creation": {
				"codeDepositCost": "2584400",
				"executionCost": "infinite",
				"totalCost": "infinite"
			},
			"external": {
				"MAX_FREE()": "2535",
				"MAX_SUPPLY()": "2471",
				"MINT_COST()": "2514",
				"amountMinted(address)": "2914",
				"approve(address,uint256)": "infinite",
				"balanceOf(address)": "2916",
				"explicitOwnershipOf(uint256)": "infinite",
				"explicitOwnershipsOf(uint256[])": "infinite",
				"freePhaseActive()": "2511",
				"getApproved(uint256)": "infinite",
				"isApprovedForAll(address,address)": "infinite",
				"name()": "infinite",
				"owner()": "2620",
				"ownerOf(uint256)": "infinite",
				"publicMint(uint256)": "infinite",
				"publicPhaseActive()": "2585",
				"safeTransferFrom(address,address,uint256)": "infinite",
				"safeTransferFrom(address,address,uint256,bytes)": "infinite",
				"setApprovalForAll(address,bool)": "infinite",
				"supportsInterface(bytes4)": "759",
				"symbol()": "infinite",
				"toggleFreeMinting()": "28761",
				"togglePublicMinting()": "28929",
				"toggleWLMinting()": "28884",
				"tokenIdToSeed(uint256)": "2822",
				"tokenURI(uint256)": "infinite",
				"tokensOfOwner(address)": "infinite",
				"tokensOfOwnerIn(address,uint256,uint256)": "infinite",
				"totalSupply()": "4680",
				"transferFrom(address,address,uint256)": "infinite",
				"transferOwnership(address)": "28560",
				"whitelistPhaseActive()": "2561",
				"withdraw()": "infinite"
			},
			"internal": {
				"_startTokenId()": "22"
			}
		},
		"methodIdentifiers": {
			"MAX_FREE()": "ed6661c2",
			"MAX_SUPPLY()": "32cb6b0c",
			"MINT_COST()": "c662e481",
			"amountMinted(address)": "438a67e7",
			"approve(address,uint256)": "095ea7b3",
			"balanceOf(address)": "70a08231",
			"explicitOwnershipOf(uint256)": "c23dc68f",
			"explicitOwnershipsOf(uint256[])": "5bbb2177",
			"freePhaseActive()": "beb81891",
			"getApproved(uint256)": "081812fc",
			"isApprovedForAll(address,address)": "e985e9c5",
			"name()": "06fdde03",
			"owner()": "8da5cb5b",
			"ownerOf(uint256)": "6352211e",
			"publicMint(uint256)": "2db11544",
			"publicPhaseActive()": "187e0f17",
			"safeTransferFrom(address,address,uint256)": "42842e0e",
			"safeTransferFrom(address,address,uint256,bytes)": "b88d4fde",
			"setApprovalForAll(address,bool)": "a22cb465",
			"supportsInterface(bytes4)": "01ffc9a7",
			"symbol()": "95d89b41",
			"toggleFreeMinting()": "4a7d3e81",
			"togglePublicMinting()": "6b8a21fc",
			"toggleWLMinting()": "d2c59d51",
			"tokenIdToSeed(uint256)": "75e91691",
			"tokenURI(uint256)": "c87b56dd",
			"tokensOfOwner(address)": "8462151c",
			"tokensOfOwnerIn(address,uint256,uint256)": "99a2557a",
			"totalSupply()": "18160ddd",
			"transferFrom(address,address,uint256)": "23b872dd",
			"transferOwnership(address)": "f2fde38b",
			"whitelistPhaseActive()": "d12f743a",
			"withdraw()": "3ccfd60b"
		}
	},
	"abi": [
		{
			"inputs": [
				{
					"internalType": "address",
					"name": "_renderer",
					"type": "address"
				}
			],
			"stateMutability": "nonpayable",
			"type": "constructor"
		},
		{
			"inputs": [],
			"name": "AmountExceedsAvailableSupply",
			"type": "error"
		},
		{
			"inputs": [],
			"name": "AmountRequired",
			"type": "error"
		},
		{
			"inputs": [],
			"name": "ApprovalCallerNotOwnerNorApproved",
			"type": "error"
		},
		{
			"inputs": [],
			"name": "ApprovalQueryForNonexistentToken",
			"type": "error"
		},
		{
			"inputs": [],
			"name": "BalanceQueryForZeroAddress",
			"type": "error"
		},
		{
			"inputs": [],
			"name": "InvalidProof",
			"type": "error"
		},
		{
			"inputs": [],
			"name": "InvalidQueryRange",
			"type": "error"
		},
		{
			"inputs": [],
			"name": "MaxMintWouldBeExceeded",
			"type": "error"
		},
		{
			"inputs": [],
			"name": "MintERC2309QuantityExceedsLimit",
			"type": "error"
		},
		{
			"inputs": [],
			"name": "MintToZeroAddress",
			"type": "error"
		},
		{
			"inputs": [],
			"name": "MintZeroQuantity",
			"type": "error"
		},
		{
			"inputs": [],
			"name": "NotCompatibleWithSpotMints",
			"type": "error"
		},
		{
			"inputs": [],
			"name": "OnlyOneFreeMint",
			"type": "error"
		},
		{
			"inputs": [],
			"name": "OwnerQueryForNonexistentToken",
			"type": "error"
		},
		{
			"inputs": [],
			"name": "OwnershipNotInitializedForExtraData",
			"type": "error"
		},
		{
			"inputs": [],
			"name": "SequentialMintExceedsLimit",
			"type": "error"
		},
		{
			"inputs": [],
			"name": "SequentialUpToTooSmall",
			"type": "error"
		},
		{
			"inputs": [],
			"name": "SoldOut",
			"type": "error"
		},
		{
			"inputs": [],
			"name": "SpotMintTokenIdTooSmall",
			"type": "error"
		},
		{
			"inputs": [],
			"name": "TokenAlreadyExists",
			"type": "error"
		},
		{
			"inputs": [],
			"name": "TransferCallerNotOwnerNorApproved",
			"type": "error"
		},
		{
			"inputs": [],
			"name": "TransferFromIncorrectOwner",
			"type": "error"
		},
		{
			"inputs": [],
			"name": "TransferToNonERC721ReceiverImplementer",
			"type": "error"
		},
		{
			"inputs": [],
			"name": "TransferToZeroAddress",
			"type": "error"
		},
		{
			"inputs": [],
			"name": "URIQueryForNonexistentToken",
			"type": "error"
		},
		{
			"anonymous": false,
			"inputs": [
				{
					"indexed": true,
					"internalType": "address",
					"name": "owner",
					"type": "address"
				},
				{
					"indexed": true,
					"internalType": "address",
					"name": "approved",
					"type": "address"
				},
				{
					"indexed": true,
					"internalType": "uint256",
					"name": "tokenId",
					"type": "uint256"
				}
			],
			"name": "Approval",
			"type": "event"
		},
		{
			"anonymous": false,
			"inputs": [
				{
					"indexed": true,
					"internalType": "address",
					"name": "owner",
					"type": "address"
				},
				{
					"indexed": true,
					"internalType": "address",
					"name": "operator",
					"type": "address"
				},
				{
					"indexed": false,
					"internalType": "bool",
					"name": "approved",
					"type": "bool"
				}
			],
			"name": "ApprovalForAll",
			"type": "event"
		},
		{
			"anonymous": false,
			"inputs": [
				{
					"indexed": true,
					"internalType": "uint256",
					"name": "fromTokenId",
					"type": "uint256"
				},
				{
					"indexed": false,
					"internalType": "uint256",
					"name": "toTokenId",
					"type": "uint256"
				},
				{
					"indexed": true,
					"internalType": "address",
					"name": "from",
					"type": "address"
				},
				{
					"indexed": true,
					"internalType": "address",
					"name": "to",
					"type": "address"
				}
			],
			"name": "ConsecutiveTransfer",
			"type": "event"
		},
		{
			"anonymous": false,
			"inputs": [
				{
					"indexed": true,
					"internalType": "address",
					"name": "user",
					"type": "address"
				},
				{
					"indexed": true,
					"internalType": "address",
					"name": "newOwner",
					"type": "address"
				}
			],
			"name": "OwnershipTransferred",
			"type": "event"
		},
		{
			"anonymous": false,
			"inputs": [
				{
					"indexed": false,
					"internalType": "address",
					"name": "from",
					"type": "address"
				},
				{
					"indexed": false,
					"internalType": "uint256",
					"name": "amount",
					"type": "uint256"
				}
			],
			"name": "PaymentReceived",
			"type": "event"
		},
		{
			"anonymous": false,
			"inputs": [
				{
					"indexed": true,
					"internalType": "address",
					"name": "from",
					"type": "address"
				},
				{
					"indexed": true,
					"internalType": "address",
					"name": "to",
					"type": "address"
				},
				{
					"indexed": true,
					"internalType": "uint256",
					"name": "tokenId",
					"type": "uint256"
				}
			],
			"name": "Transfer",
			"type": "event"
		},
		{
			"inputs": [],
			"name": "MAX_FREE",
			"outputs": [
				{
					"internalType": "uint256",
					"name": "",
					"type": "uint256"
				}
			],
			"stateMutability": "view",
			"type": "function"
		},
		{
			"inputs": [],
			"name": "MAX_SUPPLY",
			"outputs": [
				{
					"internalType": "uint256",
					"name": "",
					"type": "uint256"
				}
			],
			"stateMutability": "view",
			"type": "function"
		},
		{
			"inputs": [],
			"name": "MINT_COST",
			"outputs": [
				{
					"internalType": "uint256",
					"name": "",
					"type": "uint256"
				}
			],
			"stateMutability": "view",
			"type": "function"
		},
		{
			"inputs": [
				{
					"internalType": "address",
					"name": "",
					"type": "address"
				}
			],
			"name": "amountMinted",
			"outputs": [
				{
					"internalType": "uint256",
					"name": "",
					"type": "uint256"
				}
			],
			"stateMutability": "view",
			"type": "function"
		},
		{
			"inputs": [
				{
					"internalType": "address",
					"name": "to",
					"type": "address"
				},
				{
					"internalType": "uint256",
					"name": "tokenId",
					"type": "uint256"
				}
			],
			"name": "approve",
			"outputs": [],
			"stateMutability": "payable",
			"type": "function"
		},
		{
			"inputs": [
				{
					"internalType": "address",
					"name": "owner",
					"type": "address"
				}
			],
			"name": "balanceOf",
			"outputs": [
				{
					"internalType": "uint256",
					"name": "",
					"type": "uint256"
				}
			],
			"stateMutability": "view",
			"type": "function"
		},
		{
			"inputs": [
				{
					"internalType": "uint256",
					"name": "tokenId",
					"type": "uint256"
				}
			],
			"name": "explicitOwnershipOf",
			"outputs": [
				{
					"components": [
						{
							"internalType": "address",
							"name": "addr",
							"type": "address"
						},
						{
							"internalType": "uint64",
							"name": "startTimestamp",
							"type": "uint64"
						},
						{
							"internalType": "bool",
							"name": "burned",
							"type": "bool"
						},
						{
							"internalType": "uint24",
							"name": "extraData",
							"type": "uint24"
						}
					],
					"internalType": "struct IERC721A.TokenOwnership",
					"name": "ownership",
					"type": "tuple"
				}
			],
			"stateMutability": "view",
			"type": "function"
		},
		{
			"inputs": [
				{
					"internalType": "uint256[]",
					"name": "tokenIds",
					"type": "uint256[]"
				}
			],
			"name": "explicitOwnershipsOf",
			"outputs": [
				{
					"components": [
						{
							"internalType": "address",
							"name": "addr",
							"type": "address"
						},
						{
							"internalType": "uint64",
							"name": "startTimestamp",
							"type": "uint64"
						},
						{
							"internalType": "bool",
							"name": "burned",
							"type": "bool"
						},
						{
							"internalType": "uint24",
							"name": "extraData",
							"type": "uint24"
						}
					],
					"internalType": "struct IERC721A.TokenOwnership[]",
					"name": "",
					"type": "tuple[]"
				}
			],
			"stateMutability": "view",
			"type": "function"
		},
		{
			"inputs": [],
			"name": "freePhaseActive",
			"outputs": [
				{
					"internalType": "bool",
					"name": "",
					"type": "bool"
				}
			],
			"stateMutability": "view",
			"type": "function"
		},
		{
			"inputs": [
				{
					"internalType": "uint256",
					"name": "tokenId",
					"type": "uint256"
				}
			],
			"name": "getApproved",
			"outputs": [
				{
					"internalType": "address",
					"name": "",
					"type": "address"
				}
			],
			"stateMutability": "view",
			"type": "function"
		},
		{
			"inputs": [
				{
					"internalType": "address",
					"name": "owner",
					"type": "address"
				},
				{
					"internalType": "address",
					"name": "operator",
					"type": "address"
				}
			],
			"name": "isApprovedForAll",
			"outputs": [
				{
					"internalType": "bool",
					"name": "",
					"type": "bool"
				}
			],
			"stateMutability": "view",
			"type": "function"
		},
		{
			"inputs": [],
			"name": "name",
			"outputs": [
				{
					"internalType": "string",
					"name": "",
					"type": "string"
				}
			],
			"stateMutability": "view",
			"type": "function"
		},
		{
			"inputs": [],
			"name": "owner",
			"outputs": [
				{
					"internalType": "address",
					"name": "",
					"type": "address"
				}
			],
			"stateMutability": "view",
			"type": "function"
		},
		{
			"inputs": [
				{
					"internalType": "uint256",
					"name": "tokenId",
					"type": "uint256"
				}
			],
			"name": "ownerOf",
			"outputs": [
				{
					"internalType": "address",
					"name": "",
					"type": "address"
				}
			],
			"stateMutability": "view",
			"type": "function"
		},
		{
			"inputs": [
				{
					"internalType": "uint256",
					"name": "amount",
					"type": "uint256"
				}
			],
			"name": "publicMint",
			"outputs": [],
			"stateMutability": "payable",
			"type": "function"
		},
		{
			"inputs": [],
			"name": "publicPhaseActive",
			"outputs": [
				{
					"internalType": "bool",
					"name": "",
					"type": "bool"
				}
			],
			"stateMutability": "view",
			"type": "function"
		},
		{
			"inputs": [
				{
					"internalType": "address",
					"name": "from",
					"type": "address"
				},
				{
					"internalType": "address",
					"name": "to",
					"type": "address"
				},
				{
					"internalType": "uint256",
					"name": "tokenId",
					"type": "uint256"
				}
			],
			"name": "safeTransferFrom",
			"outputs": [],
			"stateMutability": "payable",
			"type": "function"
		},
		{
			"inputs": [
				{
					"internalType": "address",
					"name": "from",
					"type": "address"
				},
				{
					"internalType": "address",
					"name": "to",
					"type": "address"
				},
				{
					"internalType": "uint256",
					"name": "tokenId",
					"type": "uint256"
				},
				{
					"internalType": "bytes",
					"name": "_data",
					"type": "bytes"
				}
			],
			"name": "safeTransferFrom",
			"outputs": [],
			"stateMutability": "payable",
			"type": "function"
		},
		{
			"inputs": [
				{
					"internalType": "address",
					"name": "operator",
					"type": "address"
				},
				{
					"internalType": "bool",
					"name": "approved",
					"type": "bool"
				}
			],
			"name": "setApprovalForAll",
			"outputs": [],
			"stateMutability": "nonpayable",
			"type": "function"
		},
		{
			"inputs": [
				{
					"internalType": "bytes4",
					"name": "interfaceId",
					"type": "bytes4"
				}
			],
			"name": "supportsInterface",
			"outputs": [
				{
					"internalType": "bool",
					"name": "",
					"type": "bool"
				}
			],
			"stateMutability": "view",
			"type": "function"
		},
		{
			"inputs": [],
			"name": "symbol",
			"outputs": [
				{
					"internalType": "string",
					"name": "",
					"type": "string"
				}
			],
			"stateMutability": "view",
			"type": "function"
		},
		{
			"inputs": [],
			"name": "toggleFreeMinting",
			"outputs": [],
			"stateMutability": "nonpayable",
			"type": "function"
		},
		{
			"inputs": [],
			"name": "togglePublicMinting",
			"outputs": [],
			"stateMutability": "nonpayable",
			"type": "function"
		},
		{
			"inputs": [],
			"name": "toggleWLMinting",
			"outputs": [],
			"stateMutability": "nonpayable",
			"type": "function"
		},
		{
			"inputs": [
				{
					"internalType": "uint256",
					"name": "",
					"type": "uint256"
				}
			],
			"name": "tokenIdToSeed",
			"outputs": [
				{
					"internalType": "bytes32",
					"name": "",
					"type": "bytes32"
				}
			],
			"stateMutability": "view",
			"type": "function"
		},
		{
			"inputs": [
				{
					"internalType": "uint256",
					"name": "tokenId",
					"type": "uint256"
				}
			],
			"name": "tokenURI",
			"outputs": [
				{
					"internalType": "string",
					"name": "",
					"type": "string"
				}
			],
			"stateMutability": "view",
			"type": "function"
		},
		{
			"inputs": [
				{
					"internalType": "address",
					"name": "owner",
					"type": "address"
				}
			],
			"name": "tokensOfOwner",
			"outputs": [
				{
					"internalType": "uint256[]",
					"name": "",
					"type": "uint256[]"
				}
			],
			"stateMutability": "view",
			"type": "function"
		},
		{
			"inputs": [
				{
					"internalType": "address",
					"name": "owner",
					"type": "address"
				},
				{
					"internalType": "uint256",
					"name": "start",
					"type": "uint256"
				},
				{
					"internalType": "uint256",
					"name": "stop",
					"type": "uint256"
				}
			],
			"name": "tokensOfOwnerIn",
			"outputs": [
				{
					"internalType": "uint256[]",
					"name": "",
					"type": "uint256[]"
				}
			],
			"stateMutability": "view",
			"type": "function"
		},
		{
			"inputs": [],
			"name": "totalSupply",
			"outputs": [
				{
					"internalType": "uint256",
					"name": "result",
					"type": "uint256"
				}
			],
			"stateMutability": "view",
			"type": "function"
		},
		{
			"inputs": [
				{
					"internalType": "address",
					"name": "from",
					"type": "address"
				},
				{
					"internalType": "address",
					"name": "to",
					"type": "address"
				},
				{
					"internalType": "uint256",
					"name": "tokenId",
					"type": "uint256"
				}
			],
			"name": "transferFrom",
			"outputs": [],
			"stateMutability": "payable",
			"type": "function"
		},
		{
			"inputs": [
				{
					"internalType": "address",
					"name": "newOwner",
					"type": "address"
				}
			],
			"name": "transferOwnership",
			"outputs": [],
			"stateMutability": "nonpayable",
			"type": "function"
		},
		{
			"inputs": [],
			"name": "whitelistPhaseActive",
			"outputs": [
				{
					"internalType": "bool",
					"name": "",
					"type": "bool"
				}
			],
			"stateMutability": "view",
			"type": "function"
		},
		{
			"inputs": [],
			"name": "withdraw",
			"outputs": [],
			"stateMutability": "nonpayable",
			"type": "function"
		}
	]
}