{
	"data": {
		"bytecode": {
			"linkReferences": {},
			"object": "60806040526040518060600160405280602781526020016131bb602791396003908161002b9190610374565b50348015610037575f80fd5b506040516131e23803806131e2833981810160405281019061005991906104b2565b33805f806101000a81548173ffffffffffffffffffffffffffffffffffffffff021916908373ffffffffffffffffffffffffffffffffffffffff1602179055508073ffffffffffffffffffffffffffffffffffffffff165f73ffffffffffffffffffffffffffffffffffffffff167f8be0079c531659141344cd1fd0a4f28419497f9722a3daafe3b4186f6b6457e060405160405180910390a3508060015f6101000a81548173ffffffffffffffffffffffffffffffffffffffff021916908373ffffffffffffffffffffffffffffffffffffffff160217905550506104dd565b5f81519050919050565b7f4e487b71000000000000000000000000000000000000000000000000000000005f52604160045260245ffd5b7f4e487b71000000000000000000000000000000000000000000000000000000005f52602260045260245ffd5b5f60028204905060018216806101b557607f821691505b6020821081036101c8576101c7610171565b5b50919050565b5f819050815f5260205f209050919050565b5f6020601f8301049050919050565b5f82821b905092915050565b5f6008830261022a7fffffffffffffffffffffffffffffffffffffffffffffffffffffffffffffffff826101ef565b61023486836101ef565b95508019841693508086168417925050509392505050565b5f819050919050565b5f819050919050565b5f61027861027361026e8461024c565b610255565b61024c565b9050919050565b5f819050919050565b6102918361025e565b6102a561029d8261027f565b8484546101fb565b825550505050565b5f90565b6102b96102ad565b6102c4818484610288565b505050565b5b818110156102e7576102dc5f826102b1565b6001810190506102ca565b5050565b601f82111561032c576102fd816101ce565b610306846101e0565b81016020851015610315578190505b610329610321856101e0565b8301826102c9565b50505b505050565b5f82821c905092915050565b5f61034c5f1984600802610331565b1980831691505092915050565b5f610364838361033d565b9150826002028217905092915050565b61037d8261013a565b67ffffffffffffffff81111561039657610395610144565b5b6103a0825461019e565b6103ab8282856102eb565b5f60209050601f8311600181146103dc575f84156103ca578287015190505b6103d48582610359565b86555061043b565b601f1984166103ea866101ce565b5f5b82811015610411578489015182556001820191506020850194506020810190506103ec565b8683101561042e578489015161042a601f89168261033d565b8355505b6001600288020188555050505b505050505050565b5f80fd5b5f73ffffffffffffffffffffffffffffffffffffffff82169050919050565b5f61047082610447565b9050919050565b5f61048182610466565b9050919050565b61049181610477565b811461049b575f80fd5b50565b5f815190506104ac81610488565b92915050565b5f602082840312156104c7576104c6610443565b5b5f6104d48482850161049e565b91505092915050565b612cd1806104ea5f395ff3fe608060405234801561000f575f80fd5b50600436106100a7575f3560e01c8063866ec8cc1161006f578063866ec8cc146101755780638da5cb5b146101a5578063c649c9a8146101c3578063e735b48a146101f3578063e9da00f21461020f578063f2fde38b1461022d576100a7565b806312a4cd7a146100ab578063374db538146100db578063456c851e146100f95780637e78f28b14610129578063826590e514610145575b5f80fd5b6100c560048036038101906100c091906116e4565b610249565b6040516100d2919061177f565b60405180910390f35b6100e3610282565b6040516100f0919061177f565b60405180910390f35b610113600480360381019061010e91906117d2565b6102b3565b604051610120919061177f565b60405180910390f35b610143600480360381019061013e9190611871565b610309565b005b61015f600480360381019061015a91906116e4565b6104ab565b60405161016c9190611961565b60405180910390f35b61018f600480360381019061018a91906116e4565b6106bb565b60405161019c919061177f565b60405180910390f35b6101ad6106da565b6040516101ba91906119b9565b60405180910390f35b6101dd60048036038101906101d891906117d2565b6106fd565b6040516101ea919061177f565b60405180910390f35b61020d60048036038101906102089190611afa565b610738565b005b6102176107d8565b60405161022491906119b9565b60405180910390f35b61024760048036038101906102429190611b6b565b6107fd565b005b606061025c610257836106bb565b610926565b60405160200161026c9190611c1a565b6040516020818303038152906040529050919050565b60606102ae60025f9054906101000a900473ffffffffffffffffffffffffffffffffffffffff16610ab6565b905090565b60605f6102bf836104ab565b90506102ca84610aed565b60036102d583610b3c565b6102de84610b75565b6040516020016102f19493929190611ee6565b60405160208183030381529060405291505092915050565b5f8054906101000a900473ffffffffffffffffffffffffffffffffffffffff1673ffffffffffffffffffffffffffffffffffffffff163373ffffffffffffffffffffffffffffffffffffffff1614610396576040517f08c379a000000000000000000000000000000000000000000000000000000000815260040161038d90611faf565b60405180910390fd5b5f73ffffffffffffffffffffffffffffffffffffffff1660025f9054906101000a900473ffffffffffffffffffffffffffffffffffffffff1673ffffffffffffffffffffffffffffffffffffffff161461041c576040517fe48ea9d000000000000000000000000000000000000000000000000000000000815260040160405180910390fd5b61046882828080601f0160208091040260200160405190810160405280939291908181526020018383808284375f81840152601f19601f820116905080830192505050505050506112ca565b60025f6101000a81548173ffffffffffffffffffffffffffffffffffffffff021916908373ffffffffffffffffffffffffffffffffffffffff1602179055505050565b6104b3611657565b5f825f1c90505f604051806101400160405280601084901c61ffff168152602001602084901c61ffff168152602001603084901c61ffff168152602001604084901c61ffff168152602001605084901c61ffff168152602001606084901c61ffff168152602001607084901c61ffff168152602001608084901c61ffff168152602001609084901c61ffff16815260200160a084901c61ffff1681525090506040518060e00160405280602861056f845f015160016064611390565b111561057b575f61058c565b61058b835f015160016003611390565b5b8152602001600a6105a4846020015160016064611390565b11156105c0576105bb836020015160046007611390565b6105c2565b5f5b8152602001600f6105da846040015160016064611390565b11156105f6576105f1836040015160086010611390565b6105f8565b5f5b81526020016019610610846060015160016064611390565b111561062c57610627836060015160116018611390565b61062e565b5f5b8152602001600f610646846080015160016064611390565b11156106625761065d836080015160196029611390565b610664565b5f5b8152602001601461067c8460a0015160016064611390565b1115610698576106938360a00151602a602f611390565b61069a565b5f5b81526020016106af8360c001515f6005611390565b81525092505050919050565b60605f6106c7836104ab565b90506106d2816113c8565b915050919050565b5f8054906101000a900473ffffffffffffffffffffffffffffffffffffffff1681565b606061071161070c84846102b3565b610926565b6040516020016107219190612017565b604051602081830303815290604052905092915050565b5f8054906101000a900473ffffffffffffffffffffffffffffffffffffffff1673ffffffffffffffffffffffffffffffffffffffff163373ffffffffffffffffffffffffffffffffffffffff16146107c5576040517f08c379a00000000000000000000000000000000000000000000000000000000081526004016107bc90611faf565b60405180910390fd5b80600390816107d491906121c3565b5050565b60025f9054906101000a900473ffffffffffffffffffffffffffffffffffffffff1681565b5f8054906101000a900473ffffffffffffffffffffffffffffffffffffffff1673ffffffffffffffffffffffffffffffffffffffff163373ffffffffffffffffffffffffffffffffffffffff161461088a576040517f08c379a000000000000000000000000000000000000000000000000000000000815260040161088190611faf565b60405180910390fd5b805f806101000a81548173ffffffffffffffffffffffffffffffffffffffff021916908373ffffffffffffffffffffffffffffffffffffffff1602179055508073ffffffffffffffffffffffffffffffffffffffff163373ffffffffffffffffffffffffffffffffffffffff167f8be0079c531659141344cd1fd0a4f28419497f9722a3daafe3b4186f6b6457e060405160405180910390a350565b60605f825190505f810361094b5760405180602001604052805f815250915050610ab1565b5f600360028361095b91906122bf565b610965919061231f565b6004610971919061234f565b90505f60208261098191906122bf565b67ffffffffffffffff81111561099a576109996119d6565b5b6040519080825280601f01601f1916602001820160405280156109cc5781602001600182028036833780820191505090505b5090505f604051806060016040528060408152602001612c5c60409139905060018101602083015f5b86811015610a6e5760038101905062ffffff818a015116603f8160121c168401518060081b905060ff603f83600c1c1686015116810190508060081b905060ff603f8360061c1686015116810190508060081b905060ff603f831686015116810190508060e01b905080845260048401935050506109f5565b506003860660018114610a885760028114610a9857610aa3565b613d3d60f01b6002830352610aa3565b603d60f81b60018303525b508484525050819450505050505b919050565b6060610ae6826001808573ffffffffffffffffffffffffffffffffffffffff163b610ae19190612390565b61154b565b9050919050565b606060a060405101806040526020810391505f825281835b600115610b2757600184039350600a81066030018453600a8104905080610b05575b50828103602084039350808452505050919050565b6060610b4f610b4a836113c8565b610926565b604051602001610b5f9190611c1a565b6040516020818303038152906040529050919050565b6060610b7f611679565b5f5b60078110156111f4575f848260078110610b9e57610b9d6123c3565b5b602002015190505f82148015610bb457505f8114155b15610caf57610c936040518060400160405280600481526020017f536b696e0000000000000000000000000000000000000000000000000000000081525060015f9054906101000a900473ffffffffffffffffffffffffffffffffffffffff1673ffffffffffffffffffffffffffffffffffffffff166398e4f581846040518263ffffffff1660e01b8152600401610c4c91906123ff565b5f60405180830381865afa158015610c66573d5f803e3d5ffd5b505050506040513d5f823e3d601f19601f82011682018060405250810190610c8e9190612486565b611574565b838360068110610ca657610ca56123c3565b5b60200201819052505b600182148015610cbf57505f8114155b15610dba57610d9e6040518060400160405280600581526020017f50616e747300000000000000000000000000000000000000000000000000000081525060015f9054906101000a900473ffffffffffffffffffffffffffffffffffffffff1673ffffffffffffffffffffffffffffffffffffffff16634337932d846040518263ffffffff1660e01b8152600401610d5791906123ff565b5f60405180830381865afa158015610d71573d5f803e3d5ffd5b505050506040513d5f823e3d601f19601f82011682018060405250810190610d999190612486565b611574565b838360068110610db157610db06123c3565b5b60200201819052505b600282148015610dca57505f8114155b15610ec557610ea96040518060400160405280600581526020017f536869727400000000000000000000000000000000000000000000000000000081525060015f9054906101000a900473ffffffffffffffffffffffffffffffffffffffff1673ffffffffffffffffffffffffffffffffffffffff16634c9c05ea846040518263ffffffff1660e01b8152600401610e6291906123ff565b5f60405180830381865afa158015610e7c573d5f803e3d5ffd5b505050506040513d5f823e3d601f19601f82011682018060405250810190610ea49190612486565b611574565b838360068110610ebc57610ebb6123c3565b5b60200201819052505b600382148015610ed557505f8114155b15610fd057610fb46040518060400160405280600481526020017f457965730000000000000000000000000000000000000000000000000000000081525060015f9054906101000a900473ffffffffffffffffffffffffffffffffffffffff1673ffffffffffffffffffffffffffffffffffffffff1663c4d30bfa846040518263ffffffff1660e01b8152600401610f6d91906123ff565b5f60405180830381865afa158015610f87573d5f803e3d5ffd5b505050506040513d5f823e3d601f19601f82011682018060405250810190610faf9190612486565b611574565b838360068110610fc757610fc66123c3565b5b60200201819052505b600482148015610fe057505f8114155b156110db576110bf6040518060400160405280600381526020017f486174000000000000000000000000000000000000000000000000000000000081525060015f9054906101000a900473ffffffffffffffffffffffffffffffffffffffff1673ffffffffffffffffffffffffffffffffffffffff1663d2571f88846040518263ffffffff1660e01b815260040161107891906123ff565b5f60405180830381865afa158015611092573d5f803e3d5ffd5b505050506040513d5f823e3d601f19601f820116820180604052508101906110ba9190612486565b611574565b8383600681106110d2576110d16123c3565b5b60200201819052505b6005821480156110eb57505f8114155b156111e6576111ca6040518060400160405280600781526020017f5370656369616c0000000000000000000000000000000000000000000000000081525060015f9054906101000a900473ffffffffffffffffffffffffffffffffffffffff1673ffffffffffffffffffffffffffffffffffffffff1663e1d916f7846040518263ffffffff1660e01b815260040161118391906123ff565b5f60405180830381865afa15801561119d573d5f803e3d5ffd5b505050506040513d5f823e3d601f19601f820116820180604052508101906111c59190612486565b611574565b8383600681106111dd576111dc6123c3565b5b60200201819052505b508080600101915050610b81565b5060605f5b60068110156112bf575f838260068110611216576112156123c3565b5b60200201515111156112b257815f83511161123f5760405180602001604052805f815250611276565b6040518060400160405280600181526020017f2c000000000000000000000000000000000000000000000000000000000000008152505b848360068110611289576112886123c3565b5b60200201516040516020016112a0939291906124cd565b60405160208183030381529060405291505b80806001019150506111f9565b508092505050919050565b5f80826040516020016112dd919061256b565b60405160208183030381529060405290505f8160405160200161130091906125d6565b60405160208183030381529060405290508051602082015ff092505f73ffffffffffffffffffffffffffffffffffffffff168373ffffffffffffffffffffffffffffffffffffffff1603611389576040517f08c379a000000000000000000000000000000000000000000000000000000000815260040161138090612641565b60405180910390fd5b5050919050565b5f6001838361139f9190612390565b6113a991906122bf565b846113b4919061265f565b836113bf91906122bf565b90509392505050565b60605f6113d55f806115a0565b6040516020016113e591906126b2565b60405160208183030381529060405290505f5b6006811015611464575f848260078110611415576114146123c3565b5b602002015190505f81036114295750611457565b82611433826115dc565b6040516020016114449291906126d3565b6040516020818303038152906040529250505b80806001019150506113f8565b5061146d611629565b60015f9054906101000a900473ffffffffffffffffffffffffffffffffffffffff1673ffffffffffffffffffffffffffffffffffffffff1663c76ab940856006600781106114be576114bd6123c3565b5b60200201516040518263ffffffff1660e01b81526004016114df91906123ff565b5f60405180830381865afa1580156114f9573d5f803e3d5ffd5b505050506040513d5f823e3d601f19601f820116820180604052508101906115219190612486565b82604051602001611534939291906127fa565b604051602081830303815290604052915050919050565b60606040519050601f19601f6020840101168101604052818152818360208301863c9392505050565b60608282604051602001611589929190612929565b604051602081830303815290604052905092915050565b60606115ab83610aed565b6115b483610aed565b6040516020016115c5929190612a27565b604051602081830303815290604052905092915050565b60605f60406003846115ee919061265f565b6115f8919061234f565b90505f604060038561160a919061231f565b611614919061234f565b905061162082826115a0565b92505050919050565b6060611633610282565b6040516020016116439190612c2f565b604051602081830303815290604052905090565b6040518060e00160405280600790602082028036833780820191505090505090565b6040518060c001604052806006905b60608152602001906001900390816116885790505090565b5f604051905090565b5f80fd5b5f80fd5b5f819050919050565b6116c3816116b1565b81146116cd575f80fd5b50565b5f813590506116de816116ba565b92915050565b5f602082840312156116f9576116f86116a9565b5b5f611706848285016116d0565b91505092915050565b5f81519050919050565b5f82825260208201905092915050565b8281835e5f83830152505050565b5f601f19601f8301169050919050565b5f6117518261170f565b61175b8185611719565b935061176b818560208601611729565b61177481611737565b840191505092915050565b5f6020820190508181035f8301526117978184611747565b905092915050565b5f819050919050565b6117b18161179f565b81146117bb575f80fd5b50565b5f813590506117cc816117a8565b92915050565b5f80604083850312156117e8576117e76116a9565b5b5f6117f5858286016117be565b9250506020611806858286016116d0565b9150509250929050565b5f80fd5b5f80fd5b5f80fd5b5f8083601f84011261183157611830611810565b5b8235905067ffffffffffffffff81111561184e5761184d611814565b5b60208301915083600182028301111561186a57611869611818565b5b9250929050565b5f8060208385031215611887576118866116a9565b5b5f83013567ffffffffffffffff8111156118a4576118a36116ad565b5b6118b08582860161181c565b92509250509250929050565b5f60079050919050565b5f81905092915050565b5f819050919050565b6118e28161179f565b82525050565b5f6118f383836118d9565b60208301905092915050565b5f602082019050919050565b611914816118bc565b61191e81846118c6565b9250611929826118d0565b805f5b8381101561195957815161194087826118e8565b965061194b836118ff565b92505060018101905061192c565b505050505050565b5f60e0820190506119745f83018461190b565b92915050565b5f73ffffffffffffffffffffffffffffffffffffffff82169050919050565b5f6119a38261197a565b9050919050565b6119b381611999565b82525050565b5f6020820190506119cc5f8301846119aa565b92915050565b5f80fd5b7f4e487b71000000000000000000000000000000000000000000000000000000005f52604160045260245ffd5b611a0c82611737565b810181811067ffffffffffffffff82111715611a2b57611a2a6119d6565b5b80604052505050565b5f611a3d6116a0565b9050611a498282611a03565b919050565b5f67ffffffffffffffff821115611a6857611a676119d6565b5b611a7182611737565b9050602081019050919050565b828183375f83830152505050565b5f611a9e611a9984611a4e565b611a34565b905082815260208101848484011115611aba57611ab96119d2565b5b611ac5848285611a7e565b509392505050565b5f82601f830112611ae157611ae0611810565b5b8135611af1848260208601611a8c565b91505092915050565b5f60208284031215611b0f57611b0e6116a9565b5b5f82013567ffffffffffffffff811115611b2c57611b2b6116ad565b5b611b3884828501611acd565b91505092915050565b611b4a81611999565b8114611b54575f80fd5b50565b5f81359050611b6581611b41565b92915050565b5f60208284031215611b8057611b7f6116a9565b5b5f611b8d84828501611b57565b91505092915050565b5f81905092915050565b7f646174613a696d6167652f7376672b786d6c3b6261736536342c0000000000005f82015250565b5f611bd4601a83611b96565b9150611bdf82611ba0565b601a82019050919050565b5f611bf48261170f565b611bfe8185611b96565b9350611c0e818560208601611729565b80840191505092915050565b5f611c2482611bc8565b9150611c308284611bea565b915081905092915050565b7f7b226e616d65223a202248616d205065706520230000000000000000000000005f82015250565b5f611c6f601483611b96565b9150611c7a82611c3b565b601482019050919050565b7f222c20226465736372697074696f6e223a2022000000000000000000000000005f82015250565b5f611cb9601383611b96565b9150611cc482611c85565b601382019050919050565b7f4e487b71000000000000000000000000000000000000000000000000000000005f52602260045260245ffd5b5f6002820490506001821680611d1357607f821691505b602082108103611d2657611d25611ccf565b5b50919050565b5f819050815f5260205f209050919050565b5f8154611d4a81611cfc565b611d548186611b96565b9450600182165f8114611d6e5760018114611d8357611db5565b60ff1983168652811515820286019350611db5565b611d8c85611d2c565b5f5b83811015611dad57815481890152600182019150602081019050611d8e565b838801955050505b50505092915050565b7f222c0000000000000000000000000000000000000000000000000000000000005f82015250565b5f611df2600283611b96565b9150611dfd82611dbe565b600282019050919050565b7f22696d616765223a2200000000000000000000000000000000000000000000005f82015250565b5f611e3c600983611b96565b9150611e4782611e08565b600982019050919050565b7f222c2261747472696275746573223a5b000000000000000000000000000000005f82015250565b5f611e86601083611b96565b9150611e9182611e52565b601082019050919050565b7f5d7d0000000000000000000000000000000000000000000000000000000000005f82015250565b5f611ed0600283611b96565b9150611edb82611e9c565b600282019050919050565b5f611ef082611c63565b9150611efc8287611bea565b9150611f0782611cad565b9150611f138286611d3e565b9150611f1e82611de6565b9150611f2982611e30565b9150611f358285611bea565b9150611f4082611e7a565b9150611f4c8284611bea565b9150611f5782611ec4565b915081905095945050505050565b7f554e415554484f52495a454400000000000000000000000000000000000000005f82015250565b5f611f99600c83611719565b9150611fa482611f65565b602082019050919050565b5f6020820190508181035f830152611fc681611f8d565b9050919050565b7f646174613a6170706c69636174696f6e2f6a736f6e3b6261736536342c0000005f82015250565b5f612001601d83611b96565b915061200c82611fcd565b601d82019050919050565b5f61202182611ff5565b915061202d8284611bea565b915081905092915050565b5f6020601f8301049050919050565b5f82821b905092915050565b5f600883026120827fffffffffffffffffffffffffffffffffffffffffffffffffffffffffffffffff82612047565b61208c8683612047565b95508019841693508086168417925050509392505050565b5f819050919050565b5f6120c76120c26120bd8461179f565b6120a4565b61179f565b9050919050565b5f819050919050565b6120e0836120ad565b6120f46120ec826120ce565b848454612053565b825550505050565b5f90565b6121086120fc565b6121138184846120d7565b505050565b5b818110156121365761212b5f82612100565b600181019050612119565b5050565b601f82111561217b5761214c81611d2c565b61215584612038565b81016020851015612164578190505b61217861217085612038565b830182612118565b50505b505050565b5f82821c905092915050565b5f61219b5f1984600802612180565b1980831691505092915050565b5f6121b3838361218c565b9150826002028217905092915050565b6121cc8261170f565b67ffffffffffffffff8111156121e5576121e46119d6565b5b6121ef8254611cfc565b6121fa82828561213a565b5f60209050601f83116001811461222b575f8415612219578287015190505b61222385826121a8565b86555061228a565b601f19841661223986611d2c565b5f5b828110156122605784890151825560018201915060208501945060208101905061223b565b8683101561227d5784890151612279601f89168261218c565b8355505b6001600288020188555050505b505050505050565b7f4e487b71000000000000000000000000000000000000000000000000000000005f52601160045260245ffd5b5f6122c98261179f565b91506122d48361179f565b92508282019050808211156122ec576122eb612292565b5b92915050565b7f4e487b71000000000000000000000000000000000000000000000000000000005f52601260045260245ffd5b5f6123298261179f565b91506123348361179f565b925082612344576123436122f2565b5b828204905092915050565b5f6123598261179f565b91506123648361179f565b92508282026123728161179f565b9150828204841483151761238957612388612292565b5b5092915050565b5f61239a8261179f565b91506123a58361179f565b92508282039050818111156123bd576123bc612292565b5b92915050565b7f4e487b71000000000000000000000000000000000000000000000000000000005f52603260045260245ffd5b6123f98161179f565b82525050565b5f6020820190506124125f8301846123f0565b92915050565b5f61242a61242584611a4e565b611a34565b905082815260208101848484011115612446576124456119d2565b5b612451848285611729565b509392505050565b5f82601f83011261246d5761246c611810565b5b815161247d848260208601612418565b91505092915050565b5f6020828403121561249b5761249a6116a9565b5b5f82015167ffffffffffffffff8111156124b8576124b76116ad565b5b6124c484828501612459565b91505092915050565b5f6124d88286611bea565b91506124e48285611bea565b91506124f08284611bea565b9150819050949350505050565b5f8082015250565b5f612511600183611b96565b915061251c826124fd565b600182019050919050565b5f81519050919050565b5f81905092915050565b5f61254582612527565b61254f8185612531565b935061255f818560208601611729565b80840191505092915050565b5f61257582612505565b9150612581828461253b565b915081905092915050565b7f600b5981380380925939f30000000000000000000000000000000000000000005f82015250565b5f6125c0600b83611b96565b91506125cb8261258c565b600b82019050919050565b5f6125e0826125b4565b91506125ec828461253b565b915081905092915050565b7f4445504c4f594d454e545f4641494c45440000000000000000000000000000005f82015250565b5f61262b601183611719565b9150612636826125f7565b602082019050919050565b5f6020820190508181035f8301526126588161261f565b9050919050565b5f6126698261179f565b91506126748361179f565b925082612684576126836122f2565b5b828206905092915050565b50565b5f61269d5f83611b96565b91506126a88261268f565b5f82019050919050565b5f6126bc82612692565b91506126c88284611bea565b915081905092915050565b5f6126de8285611bea565b91506126ea8284611bea565b91508190509392505050565b7f3c726563742077696474683d27363427206865696768743d273634272066696c5f8201527f6c3d270000000000000000000000000000000000000000000000000000000000602082015250565b5f612750602383611b96565b915061275b826126f6565b602382019050919050565b7f27202f3e000000000000000000000000000000000000000000000000000000005f82015250565b5f61279a600483611b96565b91506127a582612766565b600482019050919050565b7f3c2f673e3c2f7376673e000000000000000000000000000000000000000000005f82015250565b5f6127e4600a83611b96565b91506127ef826127b0565b600a82019050919050565b5f6128058286611bea565b915061281082612744565b915061281c8285611bea565b91506128278261278e565b91506128338284611bea565b915061283e826127d8565b9150819050949350505050565b7f7b2274726169745f74797065223a2200000000000000000000000000000000005f82015250565b5f61287f600f83611b96565b915061288a8261284b565b600f82019050919050565b7f222c2276616c7565223a220000000000000000000000000000000000000000005f82015250565b5f6128c9600b83611b96565b91506128d482612895565b600b82019050919050565b7f227d0000000000000000000000000000000000000000000000000000000000005f82015250565b5f612913600283611b96565b915061291e826128df565b600282019050919050565b5f61293382612873565b915061293f8285611bea565b915061294a826128bd565b91506129568284611bea565b915061296182612907565b91508190509392505050565b7f3c757365206865696768743d273634272077696474683d2736342720687265665f8201527f3d2723732720783d272d00000000000000000000000000000000000000000000602082015250565b5f6129c7602a83611b96565b91506129d28261296d565b602a82019050919050565b7f2720793d272d00000000000000000000000000000000000000000000000000005f82015250565b5f612a11600683611b96565b9150612a1c826129dd565b600682019050919050565b5f612a31826129bb565b9150612a3d8285611bea565b9150612a4882612a05565b9150612a548284611bea565b9150612a5f8261278e565b91508190509392505050565b7f3c7376672076657273696f6e3d22312e312220786d6c6e733d22687474703a2f5f8201527f2f7777772e77332e6f72672f323030302f737667222076696577426f783d223060208201527f203020363420363422206865696768743d22363430222077696474683d22363460408201527f30223e3c646566733e3c696d616765206865696768743d22313032342220776960608201527f6474683d223139322220696d6167652d72656e646572696e673d22706978656c60808201527f61746564222069643d22732220687265663d22646174613a696d6167652f706e60a08201527f673b6261736536342c000000000000000000000000000000000000000000000060c082015250565b5f612b8360c983611b96565b9150612b8e82612a6b565b60c982019050919050565b7f22202f3e3c636c6970506174682069643d2263223e3c726563742077696474685f8201527f3d22363422206865696768743d22363422202f3e3c2f636c6970506174683e3c60208201527f2f646566733e3c6720636c69702d706174683d2275726c28236329223e000000604082015250565b5f612c19605d83611b96565b9150612c2482612b99565b605d82019050919050565b5f612c3982612b77565b9150612c458284611bea565b9150612c5082612c0d565b91508190509291505056fe4142434445464748494a4b4c4d4e4f505152535455565758595a6162636465666768696a6b6c6d6e6f707172737475767778797a303132333435363738392b2fa2646970667358221220bf15ae178c4b6a9cee0171ccb83807b8ed53755d4e19c948a9714e236e91062a64736f6c634300081a003331303030206261736564205065706573206c6976696e67206f6e2048616d20436861696e204c33",
			"opcodes": "PUSH1 0x80 PUSH1 0x40 MSTORE PUSH1 0x40 MLOAD DUP1 PUSH1 0x60 ADD PUSH1 0x40 MSTORE DUP1 PUSH1 0x27 DUP2 MSTORE PUSH1 0x20 ADD PUSH2 0x31BB PUSH1 0x27 SWAP2 CODECOPY PUSH1 0x3 SWAP1 DUP2 PUSH2 0x2B SWAP2 SWAP1 PUSH2 0x374 JUMP JUMPDEST POP CALLVALUE DUP1 ISZERO PUSH2 0x37 JUMPI PUSH0 DUP1 REVERT JUMPDEST POP PUSH1 0x40 MLOAD PUSH2 0x31E2 CODESIZE SUB DUP1 PUSH2 0x31E2 DUP4 CODECOPY DUP2 DUP2 ADD PUSH1 0x40 MSTORE DUP2 ADD SWAP1 PUSH2 0x59 SWAP2 SWAP1 PUSH2 0x4B2 JUMP JUMPDEST CALLER DUP1 PUSH0 DUP1 PUSH2 0x100 EXP DUP2 SLOAD DUP2 PUSH20 0xFFFFFFFFFFFFFFFFFFFFFFFFFFFFFFFFFFFFFFFF MUL NOT AND SWAP1 DUP4 PUSH20 0xFFFFFFFFFFFFFFFFFFFFFFFFFFFFFFFFFFFFFFFF AND MUL OR SWAP1 SSTORE POP DUP1 PUSH20 0xFFFFFFFFFFFFFFFFFFFFFFFFFFFFFFFFFFFFFFFF AND PUSH0 PUSH20 0xFFFFFFFFFFFFFFFFFFFFFFFFFFFFFFFFFFFFFFFF AND PUSH32 0x8BE0079C531659141344CD1FD0A4F28419497F9722A3DAAFE3B4186F6B6457E0 PUSH1 0x40 MLOAD PUSH1 0x40 MLOAD DUP1 SWAP2 SUB SWAP1 LOG3 POP DUP1 PUSH1 0x1 PUSH0 PUSH2 0x100 EXP DUP2 SLOAD DUP2 PUSH20 0xFFFFFFFFFFFFFFFFFFFFFFFFFFFFFFFFFFFFFFFF MUL NOT AND SWAP1 DUP4 PUSH20 0xFFFFFFFFFFFFFFFFFFFFFFFFFFFFFFFFFFFFFFFF AND MUL OR SWAP1 SSTORE POP POP PUSH2 0x4DD JUMP JUMPDEST PUSH0 DUP2 MLOAD SWAP1 POP SWAP2 SWAP1 POP JUMP JUMPDEST PUSH32 0x4E487B7100000000000000000000000000000000000000000000000000000000 PUSH0 MSTORE PUSH1 0x41 PUSH1 0x4 MSTORE PUSH1 0x24 PUSH0 REVERT JUMPDEST PUSH32 0x4E487B7100000000000000000000000000000000000000000000000000000000 PUSH0 MSTORE PUSH1 0x22 PUSH1 0x4 MSTORE PUSH1 0x24 PUSH0 REVERT JUMPDEST PUSH0 PUSH1 0x2 DUP3 DIV SWAP1 POP PUSH1 0x1 DUP3 AND DUP1 PUSH2 0x1B5 JUMPI PUSH1 0x7F DUP3 AND SWAP2 POP JUMPDEST PUSH1 0x20 DUP3 LT DUP2 SUB PUSH2 0x1C8 JUMPI PUSH2 0x1C7 PUSH2 0x171 JUMP JUMPDEST JUMPDEST POP SWAP2 SWAP1 POP JUMP JUMPDEST PUSH0 DUP2 SWAP1 POP DUP2 PUSH0 MSTORE PUSH1 0x20 PUSH0 KECCAK256 SWAP1 POP SWAP2 SWAP1 POP JUMP JUMPDEST PUSH0 PUSH1 0x20 PUSH1 0x1F DUP4 ADD DIV SWAP1 POP SWAP2 SWAP1 POP JUMP JUMPDEST PUSH0 DUP3 DUP3 SHL SWAP1 POP SWAP3 SWAP2 POP POP JUMP JUMPDEST PUSH0 PUSH1 0x8 DUP4 MUL PUSH2 0x22A PUSH32 0xFFFFFFFFFFFFFFFFFFFFFFFFFFFFFFFFFFFFFFFFFFFFFFFFFFFFFFFFFFFFFFFF DUP3 PUSH2 0x1EF JUMP JUMPDEST PUSH2 0x234 DUP7 DUP4 PUSH2 0x1EF JUMP JUMPDEST SWAP6 POP DUP1 NOT DUP5 AND SWAP4 POP DUP1 DUP7 AND DUP5 OR SWAP3 POP POP POP SWAP4 SWAP3 POP POP POP JUMP JUMPDEST PUSH0 DUP2 SWAP1 POP SWAP2 SWAP1 POP JUMP JUMPDEST PUSH0 DUP2 SWAP1 POP SWAP2 SWAP1 POP JUMP JUMPDEST PUSH0 PUSH2 0x278 PUSH2 0x273 PUSH2 0x26E DUP5 PUSH2 0x24C JUMP JUMPDEST PUSH2 0x255 JUMP JUMPDEST PUSH2 0x24C JUMP JUMPDEST SWAP1 POP SWAP2 SWAP1 POP JUMP JUMPDEST PUSH0 DUP2 SWAP1 POP SWAP2 SWAP1 POP JUMP JUMPDEST PUSH2 0x291 DUP4 PUSH2 0x25E JUMP JUMPDEST PUSH2 0x2A5 PUSH2 0x29D DUP3 PUSH2 0x27F JUMP JUMPDEST DUP5 DUP5 SLOAD PUSH2 0x1FB JUMP JUMPDEST DUP3 SSTORE POP POP POP POP JUMP JUMPDEST PUSH0 SWAP1 JUMP JUMPDEST PUSH2 0x2B9 PUSH2 0x2AD JUMP JUMPDEST PUSH2 0x2C4 DUP2 DUP5 DUP5 PUSH2 0x288 JUMP JUMPDEST POP POP POP JUMP JUMPDEST JUMPDEST DUP2 DUP2 LT ISZERO PUSH2 0x2E7 JUMPI PUSH2 0x2DC PUSH0 DUP3 PUSH2 0x2B1 JUMP JUMPDEST PUSH1 0x1 DUP2 ADD SWAP1 POP PUSH2 0x2CA JUMP JUMPDEST POP POP JUMP JUMPDEST PUSH1 0x1F DUP3 GT ISZERO PUSH2 0x32C JUMPI PUSH2 0x2FD DUP2 PUSH2 0x1CE JUMP JUMPDEST PUSH2 0x306 DUP5 PUSH2 0x1E0 JUMP JUMPDEST DUP2 ADD PUSH1 0x20 DUP6 LT ISZERO PUSH2 0x315 JUMPI DUP2 SWAP1 POP JUMPDEST PUSH2 0x329 PUSH2 0x321 DUP6 PUSH2 0x1E0 JUMP JUMPDEST DUP4 ADD DUP3 PUSH2 0x2C9 JUMP JUMPDEST POP POP JUMPDEST POP POP POP JUMP JUMPDEST PUSH0 DUP3 DUP3 SHR SWAP1 POP SWAP3 SWAP2 POP POP JUMP JUMPDEST PUSH0 PUSH2 0x34C PUSH0 NOT DUP5 PUSH1 0x8 MUL PUSH2 0x331 JUMP JUMPDEST NOT DUP1 DUP4 AND SWAP2 POP POP SWAP3 SWAP2 POP POP JUMP JUMPDEST PUSH0 PUSH2 0x364 DUP4 DUP4 PUSH2 0x33D JUMP JUMPDEST SWAP2 POP DUP3 PUSH1 0x2 MUL DUP3 OR SWAP1 POP SWAP3 SWAP2 POP POP JUMP JUMPDEST PUSH2 0x37D DUP3 PUSH2 0x13A JUMP JUMPDEST PUSH8 0xFFFFFFFFFFFFFFFF DUP2 GT ISZERO PUSH2 0x396 JUMPI PUSH2 0x395 PUSH2 0x144 JUMP JUMPDEST JUMPDEST PUSH2 0x3A0 DUP3 SLOAD PUSH2 0x19E JUMP JUMPDEST PUSH2 0x3AB DUP3 DUP3 DUP6 PUSH2 0x2EB JUMP JUMPDEST PUSH0 PUSH1 0x20 SWAP1 POP PUSH1 0x1F DUP4 GT PUSH1 0x1 DUP2 EQ PUSH2 0x3DC JUMPI PUSH0 DUP5 ISZERO PUSH2 0x3CA JUMPI DUP3 DUP8 ADD MLOAD SWAP1 POP JUMPDEST PUSH2 0x3D4 DUP6 DUP3 PUSH2 0x359 JUMP JUMPDEST DUP7 SSTORE POP PUSH2 0x43B JUMP JUMPDEST PUSH1 0x1F NOT DUP5 AND PUSH2 0x3EA DUP7 PUSH2 0x1CE JUMP JUMPDEST PUSH0 JUMPDEST DUP3 DUP2 LT ISZERO PUSH2 0x411 JUMPI DUP5 DUP10 ADD MLOAD DUP3 SSTORE PUSH1 0x1 DUP3 ADD SWAP2 POP PUSH1 0x20 DUP6 ADD SWAP5 POP PUSH1 0x20 DUP2 ADD SWAP1 POP PUSH2 0x3EC JUMP JUMPDEST DUP7 DUP4 LT ISZERO PUSH2 0x42E JUMPI DUP5 DUP10 ADD MLOAD PUSH2 0x42A PUSH1 0x1F DUP10 AND DUP3 PUSH2 0x33D JUMP JUMPDEST DUP4 SSTORE POP JUMPDEST PUSH1 0x1 PUSH1 0x2 DUP9 MUL ADD DUP9 SSTORE POP POP POP JUMPDEST POP POP POP POP POP POP JUMP JUMPDEST PUSH0 DUP1 REVERT JUMPDEST PUSH0 PUSH20 0xFFFFFFFFFFFFFFFFFFFFFFFFFFFFFFFFFFFFFFFF DUP3 AND SWAP1 POP SWAP2 SWAP1 POP JUMP JUMPDEST PUSH0 PUSH2 0x470 DUP3 PUSH2 0x447 JUMP JUMPDEST SWAP1 POP SWAP2 SWAP1 POP JUMP JUMPDEST PUSH0 PUSH2 0x481 DUP3 PUSH2 0x466 JUMP JUMPDEST SWAP1 POP SWAP2 SWAP1 POP JUMP JUMPDEST PUSH2 0x491 DUP2 PUSH2 0x477 JUMP JUMPDEST DUP2 EQ PUSH2 0x49B JUMPI PUSH0 DUP1 REVERT JUMPDEST POP JUMP JUMPDEST PUSH0 DUP2 MLOAD SWAP1 POP PUSH2 0x4AC DUP2 PUSH2 0x488 JUMP JUMPDEST SWAP3 SWAP2 POP POP JUMP JUMPDEST PUSH0 PUSH1 0x20 DUP3 DUP5 SUB SLT ISZERO PUSH2 0x4C7 JUMPI PUSH2 0x4C6 PUSH2 0x443 JUMP JUMPDEST JUMPDEST PUSH0 PUSH2 0x4D4 DUP5 DUP3 DUP6 ADD PUSH2 0x49E JUMP JUMPDEST SWAP2 POP POP SWAP3 SWAP2 POP POP JUMP JUMPDEST PUSH2 0x2CD1 DUP1 PUSH2 0x4EA PUSH0 CODECOPY PUSH0 RETURN INVALID PUSH1 0x80 PUSH1 0x40 MSTORE CALLVALUE DUP1 ISZERO PUSH2 0xF JUMPI PUSH0 DUP1 REVERT JUMPDEST POP PUSH1 0x4 CALLDATASIZE LT PUSH2 0xA7 JUMPI PUSH0 CALLDATALOAD PUSH1 0xE0 SHR DUP1 PUSH4 0x866EC8CC GT PUSH2 0x6F JUMPI DUP1 PUSH4 0x866EC8CC EQ PUSH2 0x175 JUMPI DUP1 PUSH4 0x8DA5CB5B EQ PUSH2 0x1A5 JUMPI DUP1 PUSH4 0xC649C9A8 EQ PUSH2 0x1C3 JUMPI DUP1 PUSH4 0xE735B48A EQ PUSH2 0x1F3 JUMPI DUP1 PUSH4 0xE9DA00F2 EQ PUSH2 0x20F JUMPI DUP1 PUSH4 0xF2FDE38B EQ PUSH2 0x22D JUMPI PUSH2 0xA7 JUMP JUMPDEST DUP1 PUSH4 0x12A4CD7A EQ PUSH2 0xAB JUMPI DUP1 PUSH4 0x374DB538 EQ PUSH2 0xDB JUMPI DUP1 PUSH4 0x456C851E EQ PUSH2 0xF9 JUMPI DUP1 PUSH4 0x7E78F28B EQ PUSH2 0x129 JUMPI DUP1 PUSH4 0x826590E5 EQ PUSH2 0x145 JUMPI JUMPDEST PUSH0 DUP1 REVERT JUMPDEST PUSH2 0xC5 PUSH1 0x4 DUP1 CALLDATASIZE SUB DUP2 ADD SWAP1 PUSH2 0xC0 SWAP2 SWAP1 PUSH2 0x16E4 JUMP JUMPDEST PUSH2 0x249 JUMP JUMPDEST PUSH1 0x40 MLOAD PUSH2 0xD2 SWAP2 SWAP1 PUSH2 0x177F JUMP JUMPDEST PUSH1 0x40 MLOAD DUP1 SWAP2 SUB SWAP1 RETURN JUMPDEST PUSH2 0xE3 PUSH2 0x282 JUMP JUMPDEST PUSH1 0x40 MLOAD PUSH2 0xF0 SWAP2 SWAP1 PUSH2 0x177F JUMP JUMPDEST PUSH1 0x40 MLOAD DUP1 SWAP2 SUB SWAP1 RETURN JUMPDEST PUSH2 0x113 PUSH1 0x4 DUP1 CALLDATASIZE SUB DUP2 ADD SWAP1 PUSH2 0x10E SWAP2 SWAP1 PUSH2 0x17D2 JUMP JUMPDEST PUSH2 0x2B3 JUMP JUMPDEST PUSH1 0x40 MLOAD PUSH2 0x120 SWAP2 SWAP1 PUSH2 0x177F JUMP JUMPDEST PUSH1 0x40 MLOAD DUP1 SWAP2 SUB SWAP1 RETURN JUMPDEST PUSH2 0x143 PUSH1 0x4 DUP1 CALLDATASIZE SUB DUP2 ADD SWAP1 PUSH2 0x13E SWAP2 SWAP1 PUSH2 0x1871 JUMP JUMPDEST PUSH2 0x309 JUMP JUMPDEST STOP JUMPDEST PUSH2 0x15F PUSH1 0x4 DUP1 CALLDATASIZE SUB DUP2 ADD SWAP1 PUSH2 0x15A SWAP2 SWAP1 PUSH2 0x16E4 JUMP JUMPDEST PUSH2 0x4AB JUMP JUMPDEST PUSH1 0x40 MLOAD PUSH2 0x16C SWAP2 SWAP1 PUSH2 0x1961 JUMP JUMPDEST PUSH1 0x40 MLOAD DUP1 SWAP2 SUB SWAP1 RETURN JUMPDEST PUSH2 0x18F PUSH1 0x4 DUP1 CALLDATASIZE SUB DUP2 ADD SWAP1 PUSH2 0x18A SWAP2 SWAP1 PUSH2 0x16E4 JUMP JUMPDEST PUSH2 0x6BB JUMP JUMPDEST PUSH1 0x40 MLOAD PUSH2 0x19C SWAP2 SWAP1 PUSH2 0x177F JUMP JUMPDEST PUSH1 0x40 MLOAD DUP1 SWAP2 SUB SWAP1 RETURN JUMPDEST PUSH2 0x1AD PUSH2 0x6DA JUMP JUMPDEST PUSH1 0x40 MLOAD PUSH2 0x1BA SWAP2 SWAP1 PUSH2 0x19B9 JUMP JUMPDEST PUSH1 0x40 MLOAD DUP1 SWAP2 SUB SWAP1 RETURN JUMPDEST PUSH2 0x1DD PUSH1 0x4 DUP1 CALLDATASIZE SUB DUP2 ADD SWAP1 PUSH2 0x1D8 SWAP2 SWAP1 PUSH2 0x17D2 JUMP JUMPDEST PUSH2 0x6FD JUMP JUMPDEST PUSH1 0x40 MLOAD PUSH2 0x1EA SWAP2 SWAP1 PUSH2 0x177F JUMP JUMPDEST PUSH1 0x40 MLOAD DUP1 SWAP2 SUB SWAP1 RETURN JUMPDEST PUSH2 0x20D PUSH1 0x4 DUP1 CALLDATASIZE SUB DUP2 ADD SWAP1 PUSH2 0x208 SWAP2 SWAP1 PUSH2 0x1AFA JUMP JUMPDEST PUSH2 0x738 JUMP JUMPDEST STOP JUMPDEST PUSH2 0x217 PUSH2 0x7D8 JUMP JUMPDEST PUSH1 0x40 MLOAD PUSH2 0x224 SWAP2 SWAP1 PUSH2 0x19B9 JUMP JUMPDEST PUSH1 0x40 MLOAD DUP1 SWAP2 SUB SWAP1 RETURN JUMPDEST PUSH2 0x247 PUSH1 0x4 DUP1 CALLDATASIZE SUB DUP2 ADD SWAP1 PUSH2 0x242 SWAP2 SWAP1 PUSH2 0x1B6B JUMP JUMPDEST PUSH2 0x7FD JUMP JUMPDEST STOP JUMPDEST PUSH1 0x60 PUSH2 0x25C PUSH2 0x257 DUP4 PUSH2 0x6BB JUMP JUMPDEST PUSH2 0x926 JUMP JUMPDEST PUSH1 0x40 MLOAD PUSH1 0x20 ADD PUSH2 0x26C SWAP2 SWAP1 PUSH2 0x1C1A JUMP JUMPDEST PUSH1 0x40 MLOAD PUSH1 0x20 DUP2 DUP4 SUB SUB DUP2 MSTORE SWAP1 PUSH1 0x40 MSTORE SWAP1 POP SWAP2 SWAP1 POP JUMP JUMPDEST PUSH1 0x60 PUSH2 0x2AE PUSH1 0x2 PUSH0 SWAP1 SLOAD SWAP1 PUSH2 0x100 EXP SWAP1 DIV PUSH20 0xFFFFFFFFFFFFFFFFFFFFFFFFFFFFFFFFFFFFFFFF AND PUSH2 0xAB6 JUMP JUMPDEST SWAP1 POP SWAP1 JUMP JUMPDEST PUSH1 0x60 PUSH0 PUSH2 0x2BF DUP4 PUSH2 0x4AB JUMP JUMPDEST SWAP1 POP PUSH2 0x2CA DUP5 PUSH2 0xAED JUMP JUMPDEST PUSH1 0x3 PUSH2 0x2D5 DUP4 PUSH2 0xB3C JUMP JUMPDEST PUSH2 0x2DE DUP5 PUSH2 0xB75 JUMP JUMPDEST PUSH1 0x40 MLOAD PUSH1 0x20 ADD PUSH2 0x2F1 SWAP5 SWAP4 SWAP3 SWAP2 SWAP1 PUSH2 0x1EE6 JUMP JUMPDEST PUSH1 0x40 MLOAD PUSH1 0x20 DUP2 DUP4 SUB SUB DUP2 MSTORE SWAP1 PUSH1 0x40 MSTORE SWAP2 POP POP SWAP3 SWAP2 POP POP JUMP JUMPDEST PUSH0 DUP1 SLOAD SWAP1 PUSH2 0x100 EXP SWAP1 DIV PUSH20 0xFFFFFFFFFFFFFFFFFFFFFFFFFFFFFFFFFFFFFFFF AND PUSH20 0xFFFFFFFFFFFFFFFFFFFFFFFFFFFFFFFFFFFFFFFF AND CALLER PUSH20 0xFFFFFFFFFFFFFFFFFFFFFFFFFFFFFFFFFFFFFFFF AND EQ PUSH2 0x396 JUMPI PUSH1 0x40 MLOAD PUSH32 0x8C379A000000000000000000000000000000000000000000000000000000000 DUP2 MSTORE PUSH1 0x4 ADD PUSH2 0x38D SWAP1 PUSH2 0x1FAF JUMP JUMPDEST PUSH1 0x40 MLOAD DUP1 SWAP2 SUB SWAP1 REVERT JUMPDEST PUSH0 PUSH20 0xFFFFFFFFFFFFFFFFFFFFFFFFFFFFFFFFFFFFFFFF AND PUSH1 0x2 PUSH0 SWAP1 SLOAD SWAP1 PUSH2 0x100 EXP SWAP1 DIV PUSH20 0xFFFFFFFFFFFFFFFFFFFFFFFFFFFFFFFFFFFFFFFF AND PUSH20 0xFFFFFFFFFFFFFFFFFFFFFFFFFFFFFFFFFFFFFFFF AND EQ PUSH2 0x41C JUMPI PUSH1 0x40 MLOAD PUSH32 0xE48EA9D000000000000000000000000000000000000000000000000000000000 DUP2 MSTORE PUSH1 0x4 ADD PUSH1 0x40 MLOAD DUP1 SWAP2 SUB SWAP1 REVERT JUMPDEST PUSH2 0x468 DUP3 DUP3 DUP1 DUP1 PUSH1 0x1F ADD PUSH1 0x20 DUP1 SWAP2 DIV MUL PUSH1 0x20 ADD PUSH1 0x40 MLOAD SWAP1 DUP2 ADD PUSH1 0x40 MSTORE DUP1 SWAP4 SWAP3 SWAP2 SWAP1 DUP2 DUP2 MSTORE PUSH1 0x20 ADD DUP4 DUP4 DUP1 DUP3 DUP5 CALLDATACOPY PUSH0 DUP2 DUP5 ADD MSTORE PUSH1 0x1F NOT PUSH1 0x1F DUP3 ADD AND SWAP1 POP DUP1 DUP4 ADD SWAP3 POP POP POP POP POP POP POP PUSH2 0x12CA JUMP JUMPDEST PUSH1 0x2 PUSH0 PUSH2 0x100 EXP DUP2 SLOAD DUP2 PUSH20 0xFFFFFFFFFFFFFFFFFFFFFFFFFFFFFFFFFFFFFFFF MUL NOT AND SWAP1 DUP4 PUSH20 0xFFFFFFFFFFFFFFFFFFFFFFFFFFFFFFFFFFFFFFFF AND MUL OR SWAP1 SSTORE POP POP POP JUMP JUMPDEST PUSH2 0x4B3 PUSH2 0x1657 JUMP JUMPDEST PUSH0 DUP3 PUSH0 SHR SWAP1 POP PUSH0 PUSH1 0x40 MLOAD DUP1 PUSH2 0x140 ADD PUSH1 0x40 MSTORE DUP1 PUSH1 0x10 DUP5 SWAP1 SHR PUSH2 0xFFFF AND DUP2 MSTORE PUSH1 0x20 ADD PUSH1 0x20 DUP5 SWAP1 SHR PUSH2 0xFFFF AND DUP2 MSTORE PUSH1 0x20 ADD PUSH1 0x30 DUP5 SWAP1 SHR PUSH2 0xFFFF AND DUP2 MSTORE PUSH1 0x20 ADD PUSH1 0x40 DUP5 SWAP1 SHR PUSH2 0xFFFF AND DUP2 MSTORE PUSH1 0x20 ADD PUSH1 0x50 DUP5 SWAP1 SHR PUSH2 0xFFFF AND DUP2 MSTORE PUSH1 0x20 ADD PUSH1 0x60 DUP5 SWAP1 SHR PUSH2 0xFFFF AND DUP2 MSTORE PUSH1 0x20 ADD PUSH1 0x70 DUP5 SWAP1 SHR PUSH2 0xFFFF AND DUP2 MSTORE PUSH1 0x20 ADD PUSH1 0x80 DUP5 SWAP1 SHR PUSH2 0xFFFF AND DUP2 MSTORE PUSH1 0x20 ADD PUSH1 0x90 DUP5 SWAP1 SHR PUSH2 0xFFFF AND DUP2 MSTORE PUSH1 0x20 ADD PUSH1 0xA0 DUP5 SWAP1 SHR PUSH2 0xFFFF AND DUP2 MSTORE POP SWAP1 POP PUSH1 0x40 MLOAD DUP1 PUSH1 0xE0 ADD PUSH1 0x40 MSTORE DUP1 PUSH1 0x28 PUSH2 0x56F DUP5 PUSH0 ADD MLOAD PUSH1 0x1 PUSH1 0x64 PUSH2 0x1390 JUMP JUMPDEST GT ISZERO PUSH2 0x57B JUMPI PUSH0 PUSH2 0x58C JUMP JUMPDEST PUSH2 0x58B DUP4 PUSH0 ADD MLOAD PUSH1 0x1 PUSH1 0x3 PUSH2 0x1390 JUMP JUMPDEST JUMPDEST DUP2 MSTORE PUSH1 0x20 ADD PUSH1 0xA PUSH2 0x5A4 DUP5 PUSH1 0x20 ADD MLOAD PUSH1 0x1 PUSH1 0x64 PUSH2 0x1390 JUMP JUMPDEST GT ISZERO PUSH2 0x5C0 JUMPI PUSH2 0x5BB DUP4 PUSH1 0x20 ADD MLOAD PUSH1 0x4 PUSH1 0x7 PUSH2 0x1390 JUMP JUMPDEST PUSH2 0x5C2 JUMP JUMPDEST PUSH0 JUMPDEST DUP2 MSTORE PUSH1 0x20 ADD PUSH1 0xF PUSH2 0x5DA DUP5 PUSH1 0x40 ADD MLOAD PUSH1 0x1 PUSH1 0x64 PUSH2 0x1390 JUMP JUMPDEST GT ISZERO PUSH2 0x5F6 JUMPI PUSH2 0x5F1 DUP4 PUSH1 0x40 ADD MLOAD PUSH1 0x8 PUSH1 0x10 PUSH2 0x1390 JUMP JUMPDEST PUSH2 0x5F8 JUMP JUMPDEST PUSH0 JUMPDEST DUP2 MSTORE PUSH1 0x20 ADD PUSH1 0x19 PUSH2 0x610 DUP5 PUSH1 0x60 ADD MLOAD PUSH1 0x1 PUSH1 0x64 PUSH2 0x1390 JUMP JUMPDEST GT ISZERO PUSH2 0x62C JUMPI PUSH2 0x627 DUP4 PUSH1 0x60 ADD MLOAD PUSH1 0x11 PUSH1 0x18 PUSH2 0x1390 JUMP JUMPDEST PUSH2 0x62E JUMP JUMPDEST PUSH0 JUMPDEST DUP2 MSTORE PUSH1 0x20 ADD PUSH1 0xF PUSH2 0x646 DUP5 PUSH1 0x80 ADD MLOAD PUSH1 0x1 PUSH1 0x64 PUSH2 0x1390 JUMP JUMPDEST GT ISZERO PUSH2 0x662 JUMPI PUSH2 0x65D DUP4 PUSH1 0x80 ADD MLOAD PUSH1 0x19 PUSH1 0x29 PUSH2 0x1390 JUMP JUMPDEST PUSH2 0x664 JUMP JUMPDEST PUSH0 JUMPDEST DUP2 MSTORE PUSH1 0x20 ADD PUSH1 0x14 PUSH2 0x67C DUP5 PUSH1 0xA0 ADD MLOAD PUSH1 0x1 PUSH1 0x64 PUSH2 0x1390 JUMP JUMPDEST GT ISZERO PUSH2 0x698 JUMPI PUSH2 0x693 DUP4 PUSH1 0xA0 ADD MLOAD PUSH1 0x2A PUSH1 0x2F PUSH2 0x1390 JUMP JUMPDEST PUSH2 0x69A JUMP JUMPDEST PUSH0 JUMPDEST DUP2 MSTORE PUSH1 0x20 ADD PUSH2 0x6AF DUP4 PUSH1 0xC0 ADD MLOAD PUSH0 PUSH1 0x5 PUSH2 0x1390 JUMP JUMPDEST DUP2 MSTORE POP SWAP3 POP POP POP SWAP2 SWAP1 POP JUMP JUMPDEST PUSH1 0x60 PUSH0 PUSH2 0x6C7 DUP4 PUSH2 0x4AB JUMP JUMPDEST SWAP1 POP PUSH2 0x6D2 DUP2 PUSH2 0x13C8 JUMP JUMPDEST SWAP2 POP POP SWAP2 SWAP1 POP JUMP JUMPDEST PUSH0 DUP1 SLOAD SWAP1 PUSH2 0x100 EXP SWAP1 DIV PUSH20 0xFFFFFFFFFFFFFFFFFFFFFFFFFFFFFFFFFFFFFFFF AND DUP2 JUMP JUMPDEST PUSH1 0x60 PUSH2 0x711 PUSH2 0x70C DUP5 DUP5 PUSH2 0x2B3 JUMP JUMPDEST PUSH2 0x926 JUMP JUMPDEST PUSH1 0x40 MLOAD PUSH1 0x20 ADD PUSH2 0x721 SWAP2 SWAP1 PUSH2 0x2017 JUMP JUMPDEST PUSH1 0x40 MLOAD PUSH1 0x20 DUP2 DUP4 SUB SUB DUP2 MSTORE SWAP1 PUSH1 0x40 MSTORE SWAP1 POP SWAP3 SWAP2 POP POP JUMP JUMPDEST PUSH0 DUP1 SLOAD SWAP1 PUSH2 0x100 EXP SWAP1 DIV PUSH20 0xFFFFFFFFFFFFFFFFFFFFFFFFFFFFFFFFFFFFFFFF AND PUSH20 0xFFFFFFFFFFFFFFFFFFFFFFFFFFFFFFFFFFFFFFFF AND CALLER PUSH20 0xFFFFFFFFFFFFFFFFFFFFFFFFFFFFFFFFFFFFFFFF AND EQ PUSH2 0x7C5 JUMPI PUSH1 0x40 MLOAD PUSH32 0x8C379A000000000000000000000000000000000000000000000000000000000 DUP2 MSTORE PUSH1 0x4 ADD PUSH2 0x7BC SWAP1 PUSH2 0x1FAF JUMP JUMPDEST PUSH1 0x40 MLOAD DUP1 SWAP2 SUB SWAP1 REVERT JUMPDEST DUP1 PUSH1 0x3 SWAP1 DUP2 PUSH2 0x7D4 SWAP2 SWAP1 PUSH2 0x21C3 JUMP JUMPDEST POP POP JUMP JUMPDEST PUSH1 0x2 PUSH0 SWAP1 SLOAD SWAP1 PUSH2 0x100 EXP SWAP1 DIV PUSH20 0xFFFFFFFFFFFFFFFFFFFFFFFFFFFFFFFFFFFFFFFF AND DUP2 JUMP JUMPDEST PUSH0 DUP1 SLOAD SWAP1 PUSH2 0x100 EXP SWAP1 DIV PUSH20 0xFFFFFFFFFFFFFFFFFFFFFFFFFFFFFFFFFFFFFFFF AND PUSH20 0xFFFFFFFFFFFFFFFFFFFFFFFFFFFFFFFFFFFFFFFF AND CALLER PUSH20 0xFFFFFFFFFFFFFFFFFFFFFFFFFFFFFFFFFFFFFFFF AND EQ PUSH2 0x88A JUMPI PUSH1 0x40 MLOAD PUSH32 0x8C379A000000000000000000000000000000000000000000000000000000000 DUP2 MSTORE PUSH1 0x4 ADD PUSH2 0x881 SWAP1 PUSH2 0x1FAF JUMP JUMPDEST PUSH1 0x40 MLOAD DUP1 SWAP2 SUB SWAP1 REVERT JUMPDEST DUP1 PUSH0 DUP1 PUSH2 0x100 EXP DUP2 SLOAD DUP2 PUSH20 0xFFFFFFFFFFFFFFFFFFFFFFFFFFFFFFFFFFFFFFFF MUL NOT AND SWAP1 DUP4 PUSH20 0xFFFFFFFFFFFFFFFFFFFFFFFFFFFFFFFFFFFFFFFF AND MUL OR SWAP1 SSTORE POP DUP1 PUSH20 0xFFFFFFFFFFFFFFFFFFFFFFFFFFFFFFFFFFFFFFFF AND CALLER PUSH20 0xFFFFFFFFFFFFFFFFFFFFFFFFFFFFFFFFFFFFFFFF AND PUSH32 0x8BE0079C531659141344CD1FD0A4F28419497F9722A3DAAFE3B4186F6B6457E0 PUSH1 0x40 MLOAD PUSH1 0x40 MLOAD DUP1 SWAP2 SUB SWAP1 LOG3 POP JUMP JUMPDEST PUSH1 0x60 PUSH0 DUP3 MLOAD SWAP1 POP PUSH0 DUP2 SUB PUSH2 0x94B JUMPI PUSH1 0x40 MLOAD DUP1 PUSH1 0x20 ADD PUSH1 0x40 MSTORE DUP1 PUSH0 DUP2 MSTORE POP SWAP2 POP POP PUSH2 0xAB1 JUMP JUMPDEST PUSH0 PUSH1 0x3 PUSH1 0x2 DUP4 PUSH2 0x95B SWAP2 SWAP1 PUSH2 0x22BF JUMP JUMPDEST PUSH2 0x965 SWAP2 SWAP1 PUSH2 0x231F JUMP JUMPDEST PUSH1 0x4 PUSH2 0x971 SWAP2 SWAP1 PUSH2 0x234F JUMP JUMPDEST SWAP1 POP PUSH0 PUSH1 0x20 DUP3 PUSH2 0x981 SWAP2 SWAP1 PUSH2 0x22BF JUMP JUMPDEST PUSH8 0xFFFFFFFFFFFFFFFF DUP2 GT ISZERO PUSH2 0x99A JUMPI PUSH2 0x999 PUSH2 0x19D6 JUMP JUMPDEST JUMPDEST PUSH1 0x40 MLOAD SWAP1 DUP1 DUP3 MSTORE DUP1 PUSH1 0x1F ADD PUSH1 0x1F NOT AND PUSH1 0x20 ADD DUP3 ADD PUSH1 0x40 MSTORE DUP1 ISZERO PUSH2 0x9CC JUMPI DUP2 PUSH1 0x20 ADD PUSH1 0x1 DUP3 MUL DUP1 CALLDATASIZE DUP4 CALLDATACOPY DUP1 DUP3 ADD SWAP2 POP POP SWAP1 POP JUMPDEST POP SWAP1 POP PUSH0 PUSH1 0x40 MLOAD DUP1 PUSH1 0x60 ADD PUSH1 0x40 MSTORE DUP1 PUSH1 0x40 DUP2 MSTORE PUSH1 0x20 ADD PUSH2 0x2C5C PUSH1 0x40 SWAP2 CODECOPY SWAP1 POP PUSH1 0x1 DUP2 ADD PUSH1 0x20 DUP4 ADD PUSH0 JUMPDEST DUP7 DUP2 LT ISZERO PUSH2 0xA6E JUMPI PUSH1 0x3 DUP2 ADD SWAP1 POP PUSH3 0xFFFFFF DUP2 DUP11 ADD MLOAD AND PUSH1 0x3F DUP2 PUSH1 0x12 SHR AND DUP5 ADD MLOAD DUP1 PUSH1 0x8 SHL SWAP1 POP PUSH1 0xFF PUSH1 0x3F DUP4 PUSH1 0xC SHR AND DUP7 ADD MLOAD AND DUP2 ADD SWAP1 POP DUP1 PUSH1 0x8 SHL SWAP1 POP PUSH1 0xFF PUSH1 0x3F DUP4 PUSH1 0x6 SHR AND DUP7 ADD MLOAD AND DUP2 ADD SWAP1 POP DUP1 PUSH1 0x8 SHL SWAP1 POP PUSH1 0xFF PUSH1 0x3F DUP4 AND DUP7 ADD MLOAD AND DUP2 ADD SWAP1 POP DUP1 PUSH1 0xE0 SHL SWAP1 POP DUP1 DUP5 MSTORE PUSH1 0x4 DUP5 ADD SWAP4 POP POP POP PUSH2 0x9F5 JUMP JUMPDEST POP PUSH1 0x3 DUP7 MOD PUSH1 0x1 DUP2 EQ PUSH2 0xA88 JUMPI PUSH1 0x2 DUP2 EQ PUSH2 0xA98 JUMPI PUSH2 0xAA3 JUMP JUMPDEST PUSH2 0x3D3D PUSH1 0xF0 SHL PUSH1 0x2 DUP4 SUB MSTORE PUSH2 0xAA3 JUMP JUMPDEST PUSH1 0x3D PUSH1 0xF8 SHL PUSH1 0x1 DUP4 SUB MSTORE JUMPDEST POP DUP5 DUP5 MSTORE POP POP DUP2 SWAP5 POP POP POP POP POP JUMPDEST SWAP2 SWAP1 POP JUMP JUMPDEST PUSH1 0x60 PUSH2 0xAE6 DUP3 PUSH1 0x1 DUP1 DUP6 PUSH20 0xFFFFFFFFFFFFFFFFFFFFFFFFFFFFFFFFFFFFFFFF AND EXTCODESIZE PUSH2 0xAE1 SWAP2 SWAP1 PUSH2 0x2390 JUMP JUMPDEST PUSH2 0x154B JUMP JUMPDEST SWAP1 POP SWAP2 SWAP1 POP JUMP JUMPDEST PUSH1 0x60 PUSH1 0xA0 PUSH1 0x40 MLOAD ADD DUP1 PUSH1 0x40 MSTORE PUSH1 0x20 DUP2 SUB SWAP2 POP PUSH0 DUP3 MSTORE DUP2 DUP4 JUMPDEST PUSH1 0x1 ISZERO PUSH2 0xB27 JUMPI PUSH1 0x1 DUP5 SUB SWAP4 POP PUSH1 0xA DUP2 MOD PUSH1 0x30 ADD DUP5 MSTORE8 PUSH1 0xA DUP2 DIV SWAP1 POP DUP1 PUSH2 0xB05 JUMPI JUMPDEST POP DUP3 DUP2 SUB PUSH1 0x20 DUP5 SUB SWAP4 POP DUP1 DUP5 MSTORE POP POP POP SWAP2 SWAP1 POP JUMP JUMPDEST PUSH1 0x60 PUSH2 0xB4F PUSH2 0xB4A DUP4 PUSH2 0x13C8 JUMP JUMPDEST PUSH2 0x926 JUMP JUMPDEST PUSH1 0x40 MLOAD PUSH1 0x20 ADD PUSH2 0xB5F SWAP2 SWAP1 PUSH2 0x1C1A JUMP JUMPDEST PUSH1 0x40 MLOAD PUSH1 0x20 DUP2 DUP4 SUB SUB DUP2 MSTORE SWAP1 PUSH1 0x40 MSTORE SWAP1 POP SWAP2 SWAP1 POP JUMP JUMPDEST PUSH1 0x60 PUSH2 0xB7F PUSH2 0x1679 JUMP JUMPDEST PUSH0 JUMPDEST PUSH1 0x7 DUP2 LT ISZERO PUSH2 0x11F4 JUMPI PUSH0 DUP5 DUP3 PUSH1 0x7 DUP2 LT PUSH2 0xB9E JUMPI PUSH2 0xB9D PUSH2 0x23C3 JUMP JUMPDEST JUMPDEST PUSH1 0x20 MUL ADD MLOAD SWAP1 POP PUSH0 DUP3 EQ DUP1 ISZERO PUSH2 0xBB4 JUMPI POP PUSH0 DUP2 EQ ISZERO JUMPDEST ISZERO PUSH2 0xCAF JUMPI PUSH2 0xC93 PUSH1 0x40 MLOAD DUP1 PUSH1 0x40 ADD PUSH1 0x40 MSTORE DUP1 PUSH1 0x4 DUP2 MSTORE PUSH1 0x20 ADD PUSH32 0x536B696E00000000000000000000000000000000000000000000000000000000 DUP2 MSTORE POP PUSH1 0x1 PUSH0 SWAP1 SLOAD SWAP1 PUSH2 0x100 EXP SWAP1 DIV PUSH20 0xFFFFFFFFFFFFFFFFFFFFFFFFFFFFFFFFFFFFFFFF AND PUSH20 0xFFFFFFFFFFFFFFFFFFFFFFFFFFFFFFFFFFFFFFFF AND PUSH4 0x98E4F581 DUP5 PUSH1 0x40 MLOAD DUP3 PUSH4 0xFFFFFFFF AND PUSH1 0xE0 SHL DUP2 MSTORE PUSH1 0x4 ADD PUSH2 0xC4C SWAP2 SWAP1 PUSH2 0x23FF JUMP JUMPDEST PUSH0 PUSH1 0x40 MLOAD DUP1 DUP4 SUB DUP2 DUP7 GAS STATICCALL ISZERO DUP1 ISZERO PUSH2 0xC66 JUMPI RETURNDATASIZE PUSH0 DUP1 RETURNDATACOPY RETURNDATASIZE PUSH0 REVERT JUMPDEST POP POP POP POP PUSH1 0x40 MLOAD RETURNDATASIZE PUSH0 DUP3 RETURNDATACOPY RETURNDATASIZE PUSH1 0x1F NOT PUSH1 0x1F DUP3 ADD AND DUP3 ADD DUP1 PUSH1 0x40 MSTORE POP DUP2 ADD SWAP1 PUSH2 0xC8E SWAP2 SWAP1 PUSH2 0x2486 JUMP JUMPDEST PUSH2 0x1574 JUMP JUMPDEST DUP4 DUP4 PUSH1 0x6 DUP2 LT PUSH2 0xCA6 JUMPI PUSH2 0xCA5 PUSH2 0x23C3 JUMP JUMPDEST JUMPDEST PUSH1 0x20 MUL ADD DUP2 SWAP1 MSTORE POP JUMPDEST PUSH1 0x1 DUP3 EQ DUP1 ISZERO PUSH2 0xCBF JUMPI POP PUSH0 DUP2 EQ ISZERO JUMPDEST ISZERO PUSH2 0xDBA JUMPI PUSH2 0xD9E PUSH1 0x40 MLOAD DUP1 PUSH1 0x40 ADD PUSH1 0x40 MSTORE DUP1 PUSH1 0x5 DUP2 MSTORE PUSH1 0x20 ADD PUSH32 0x50616E7473000000000000000000000000000000000000000000000000000000 DUP2 MSTORE POP PUSH1 0x1 PUSH0 SWAP1 SLOAD SWAP1 PUSH2 0x100 EXP SWAP1 DIV PUSH20 0xFFFFFFFFFFFFFFFFFFFFFFFFFFFFFFFFFFFFFFFF AND PUSH20 0xFFFFFFFFFFFFFFFFFFFFFFFFFFFFFFFFFFFFFFFF AND PUSH4 0x4337932D DUP5 PUSH1 0x40 MLOAD DUP3 PUSH4 0xFFFFFFFF AND PUSH1 0xE0 SHL DUP2 MSTORE PUSH1 0x4 ADD PUSH2 0xD57 SWAP2 SWAP1 PUSH2 0x23FF JUMP JUMPDEST PUSH0 PUSH1 0x40 MLOAD DUP1 DUP4 SUB DUP2 DUP7 GAS STATICCALL ISZERO DUP1 ISZERO PUSH2 0xD71 JUMPI RETURNDATASIZE PUSH0 DUP1 RETURNDATACOPY RETURNDATASIZE PUSH0 REVERT JUMPDEST POP POP POP POP PUSH1 0x40 MLOAD RETURNDATASIZE PUSH0 DUP3 RETURNDATACOPY RETURNDATASIZE PUSH1 0x1F NOT PUSH1 0x1F DUP3 ADD AND DUP3 ADD DUP1 PUSH1 0x40 MSTORE POP DUP2 ADD SWAP1 PUSH2 0xD99 SWAP2 SWAP1 PUSH2 0x2486 JUMP JUMPDEST PUSH2 0x1574 JUMP JUMPDEST DUP4 DUP4 PUSH1 0x6 DUP2 LT PUSH2 0xDB1 JUMPI PUSH2 0xDB0 PUSH2 0x23C3 JUMP JUMPDEST JUMPDEST PUSH1 0x20 MUL ADD DUP2 SWAP1 MSTORE POP JUMPDEST PUSH1 0x2 DUP3 EQ DUP1 ISZERO PUSH2 0xDCA JUMPI POP PUSH0 DUP2 EQ ISZERO JUMPDEST ISZERO PUSH2 0xEC5 JUMPI PUSH2 0xEA9 PUSH1 0x40 MLOAD DUP1 PUSH1 0x40 ADD PUSH1 0x40 MSTORE DUP1 PUSH1 0x5 DUP2 MSTORE PUSH1 0x20 ADD PUSH32 0x5368697274000000000000000000000000000000000000000000000000000000 DUP2 MSTORE POP PUSH1 0x1 PUSH0 SWAP1 SLOAD SWAP1 PUSH2 0x100 EXP SWAP1 DIV PUSH20 0xFFFFFFFFFFFFFFFFFFFFFFFFFFFFFFFFFFFFFFFF AND PUSH20 0xFFFFFFFFFFFFFFFFFFFFFFFFFFFFFFFFFFFFFFFF AND PUSH4 0x4C9C05EA DUP5 PUSH1 0x40 MLOAD DUP3 PUSH4 0xFFFFFFFF AND PUSH1 0xE0 SHL DUP2 MSTORE PUSH1 0x4 ADD PUSH2 0xE62 SWAP2 SWAP1 PUSH2 0x23FF JUMP JUMPDEST PUSH0 PUSH1 0x40 MLOAD DUP1 DUP4 SUB DUP2 DUP7 GAS STATICCALL ISZERO DUP1 ISZERO PUSH2 0xE7C JUMPI RETURNDATASIZE PUSH0 DUP1 RETURNDATACOPY RETURNDATASIZE PUSH0 REVERT JUMPDEST POP POP POP POP PUSH1 0x40 MLOAD RETURNDATASIZE PUSH0 DUP3 RETURNDATACOPY RETURNDATASIZE PUSH1 0x1F NOT PUSH1 0x1F DUP3 ADD AND DUP3 ADD DUP1 PUSH1 0x40 MSTORE POP DUP2 ADD SWAP1 PUSH2 0xEA4 SWAP2 SWAP1 PUSH2 0x2486 JUMP JUMPDEST PUSH2 0x1574 JUMP JUMPDEST DUP4 DUP4 PUSH1 0x6 DUP2 LT PUSH2 0xEBC JUMPI PUSH2 0xEBB PUSH2 0x23C3 JUMP JUMPDEST JUMPDEST PUSH1 0x20 MUL ADD DUP2 SWAP1 MSTORE POP JUMPDEST PUSH1 0x3 DUP3 EQ DUP1 ISZERO PUSH2 0xED5 JUMPI POP PUSH0 DUP2 EQ ISZERO JUMPDEST ISZERO PUSH2 0xFD0 JUMPI PUSH2 0xFB4 PUSH1 0x40 MLOAD DUP1 PUSH1 0x40 ADD PUSH1 0x40 MSTORE DUP1 PUSH1 0x4 DUP2 MSTORE PUSH1 0x20 ADD PUSH32 0x4579657300000000000000000000000000000000000000000000000000000000 DUP2 MSTORE POP PUSH1 0x1 PUSH0 SWAP1 SLOAD SWAP1 PUSH2 0x100 EXP SWAP1 DIV PUSH20 0xFFFFFFFFFFFFFFFFFFFFFFFFFFFFFFFFFFFFFFFF AND PUSH20 0xFFFFFFFFFFFFFFFFFFFFFFFFFFFFFFFFFFFFFFFF AND PUSH4 0xC4D30BFA DUP5 PUSH1 0x40 MLOAD DUP3 PUSH4 0xFFFFFFFF AND PUSH1 0xE0 SHL DUP2 MSTORE PUSH1 0x4 ADD PUSH2 0xF6D SWAP2 SWAP1 PUSH2 0x23FF JUMP JUMPDEST PUSH0 PUSH1 0x40 MLOAD DUP1 DUP4 SUB DUP2 DUP7 GAS STATICCALL ISZERO DUP1 ISZERO PUSH2 0xF87 JUMPI RETURNDATASIZE PUSH0 DUP1 RETURNDATACOPY RETURNDATASIZE PUSH0 REVERT JUMPDEST POP POP POP POP PUSH1 0x40 MLOAD RETURNDATASIZE PUSH0 DUP3 RETURNDATACOPY RETURNDATASIZE PUSH1 0x1F NOT PUSH1 0x1F DUP3 ADD AND DUP3 ADD DUP1 PUSH1 0x40 MSTORE POP DUP2 ADD SWAP1 PUSH2 0xFAF SWAP2 SWAP1 PUSH2 0x2486 JUMP JUMPDEST PUSH2 0x1574 JUMP JUMPDEST DUP4 DUP4 PUSH1 0x6 DUP2 LT PUSH2 0xFC7 JUMPI PUSH2 0xFC6 PUSH2 0x23C3 JUMP JUMPDEST JUMPDEST PUSH1 0x20 MUL ADD DUP2 SWAP1 MSTORE POP JUMPDEST PUSH1 0x4 DUP3 EQ DUP1 ISZERO PUSH2 0xFE0 JUMPI POP PUSH0 DUP2 EQ ISZERO JUMPDEST ISZERO PUSH2 0x10DB JUMPI PUSH2 0x10BF PUSH1 0x40 MLOAD DUP1 PUSH1 0x40 ADD PUSH1 0x40 MSTORE DUP1 PUSH1 0x3 DUP2 MSTORE PUSH1 0x20 ADD PUSH32 0x4861740000000000000000000000000000000000000000000000000000000000 DUP2 MSTORE POP PUSH1 0x1 PUSH0 SWAP1 SLOAD SWAP1 PUSH2 0x100 EXP SWAP1 DIV PUSH20 0xFFFFFFFFFFFFFFFFFFFFFFFFFFFFFFFFFFFFFFFF AND PUSH20 0xFFFFFFFFFFFFFFFFFFFFFFFFFFFFFFFFFFFFFFFF AND PUSH4 0xD2571F88 DUP5 PUSH1 0x40 MLOAD DUP3 PUSH4 0xFFFFFFFF AND PUSH1 0xE0 SHL DUP2 MSTORE PUSH1 0x4 ADD PUSH2 0x1078 SWAP2 SWAP1 PUSH2 0x23FF JUMP JUMPDEST PUSH0 PUSH1 0x40 MLOAD DUP1 DUP4 SUB DUP2 DUP7 GAS STATICCALL ISZERO DUP1 ISZERO PUSH2 0x1092 JUMPI RETURNDATASIZE PUSH0 DUP1 RETURNDATACOPY RETURNDATASIZE PUSH0 REVERT JUMPDEST POP POP POP POP PUSH1 0x40 MLOAD RETURNDATASIZE PUSH0 DUP3 RETURNDATACOPY RETURNDATASIZE PUSH1 0x1F NOT PUSH1 0x1F DUP3 ADD AND DUP3 ADD DUP1 PUSH1 0x40 MSTORE POP DUP2 ADD SWAP1 PUSH2 0x10BA SWAP2 SWAP1 PUSH2 0x2486 JUMP JUMPDEST PUSH2 0x1574 JUMP JUMPDEST DUP4 DUP4 PUSH1 0x6 DUP2 LT PUSH2 0x10D2 JUMPI PUSH2 0x10D1 PUSH2 0x23C3 JUMP JUMPDEST JUMPDEST PUSH1 0x20 MUL ADD DUP2 SWAP1 MSTORE POP JUMPDEST PUSH1 0x5 DUP3 EQ DUP1 ISZERO PUSH2 0x10EB JUMPI POP PUSH0 DUP2 EQ ISZERO JUMPDEST ISZERO PUSH2 0x11E6 JUMPI PUSH2 0x11CA PUSH1 0x40 MLOAD DUP1 PUSH1 0x40 ADD PUSH1 0x40 MSTORE DUP1 PUSH1 0x7 DUP2 MSTORE PUSH1 0x20 ADD PUSH32 0x5370656369616C00000000000000000000000000000000000000000000000000 DUP2 MSTORE POP PUSH1 0x1 PUSH0 SWAP1 SLOAD SWAP1 PUSH2 0x100 EXP SWAP1 DIV PUSH20 0xFFFFFFFFFFFFFFFFFFFFFFFFFFFFFFFFFFFFFFFF AND PUSH20 0xFFFFFFFFFFFFFFFFFFFFFFFFFFFFFFFFFFFFFFFF AND PUSH4 0xE1D916F7 DUP5 PUSH1 0x40 MLOAD DUP3 PUSH4 0xFFFFFFFF AND PUSH1 0xE0 SHL DUP2 MSTORE PUSH1 0x4 ADD PUSH2 0x1183 SWAP2 SWAP1 PUSH2 0x23FF JUMP JUMPDEST PUSH0 PUSH1 0x40 MLOAD DUP1 DUP4 SUB DUP2 DUP7 GAS STATICCALL ISZERO DUP1 ISZERO PUSH2 0x119D JUMPI RETURNDATASIZE PUSH0 DUP1 RETURNDATACOPY RETURNDATASIZE PUSH0 REVERT JUMPDEST POP POP POP POP PUSH1 0x40 MLOAD RETURNDATASIZE PUSH0 DUP3 RETURNDATACOPY RETURNDATASIZE PUSH1 0x1F NOT PUSH1 0x1F DUP3 ADD AND DUP3 ADD DUP1 PUSH1 0x40 MSTORE POP DUP2 ADD SWAP1 PUSH2 0x11C5 SWAP2 SWAP1 PUSH2 0x2486 JUMP JUMPDEST PUSH2 0x1574 JUMP JUMPDEST DUP4 DUP4 PUSH1 0x6 DUP2 LT PUSH2 0x11DD JUMPI PUSH2 0x11DC PUSH2 0x23C3 JUMP JUMPDEST JUMPDEST PUSH1 0x20 MUL ADD DUP2 SWAP1 MSTORE POP JUMPDEST POP DUP1 DUP1 PUSH1 0x1 ADD SWAP2 POP POP PUSH2 0xB81 JUMP JUMPDEST POP PUSH1 0x60 PUSH0 JUMPDEST PUSH1 0x6 DUP2 LT ISZERO PUSH2 0x12BF JUMPI PUSH0 DUP4 DUP3 PUSH1 0x6 DUP2 LT PUSH2 0x1216 JUMPI PUSH2 0x1215 PUSH2 0x23C3 JUMP JUMPDEST JUMPDEST PUSH1 0x20 MUL ADD MLOAD MLOAD GT ISZERO PUSH2 0x12B2 JUMPI DUP2 PUSH0 DUP4 MLOAD GT PUSH2 0x123F JUMPI PUSH1 0x40 MLOAD DUP1 PUSH1 0x20 ADD PUSH1 0x40 MSTORE DUP1 PUSH0 DUP2 MSTORE POP PUSH2 0x1276 JUMP JUMPDEST PUSH1 0x40 MLOAD DUP1 PUSH1 0x40 ADD PUSH1 0x40 MSTORE DUP1 PUSH1 0x1 DUP2 MSTORE PUSH1 0x20 ADD PUSH32 0x2C00000000000000000000000000000000000000000000000000000000000000 DUP2 MSTORE POP JUMPDEST DUP5 DUP4 PUSH1 0x6 DUP2 LT PUSH2 0x1289 JUMPI PUSH2 0x1288 PUSH2 0x23C3 JUMP JUMPDEST JUMPDEST PUSH1 0x20 MUL ADD MLOAD PUSH1 0x40 MLOAD PUSH1 0x20 ADD PUSH2 0x12A0 SWAP4 SWAP3 SWAP2 SWAP1 PUSH2 0x24CD JUMP JUMPDEST PUSH1 0x40 MLOAD PUSH1 0x20 DUP2 DUP4 SUB SUB DUP2 MSTORE SWAP1 PUSH1 0x40 MSTORE SWAP2 POP JUMPDEST DUP1 DUP1 PUSH1 0x1 ADD SWAP2 POP POP PUSH2 0x11F9 JUMP JUMPDEST POP DUP1 SWAP3 POP POP POP SWAP2 SWAP1 POP JUMP JUMPDEST PUSH0 DUP1 DUP3 PUSH1 0x40 MLOAD PUSH1 0x20 ADD PUSH2 0x12DD SWAP2 SWAP1 PUSH2 0x256B JUMP JUMPDEST PUSH1 0x40 MLOAD PUSH1 0x20 DUP2 DUP4 SUB SUB DUP2 MSTORE SWAP1 PUSH1 0x40 MSTORE SWAP1 POP PUSH0 DUP2 PUSH1 0x40 MLOAD PUSH1 0x20 ADD PUSH2 0x1300 SWAP2 SWAP1 PUSH2 0x25D6 JUMP JUMPDEST PUSH1 0x40 MLOAD PUSH1 0x20 DUP2 DUP4 SUB SUB DUP2 MSTORE SWAP1 PUSH1 0x40 MSTORE SWAP1 POP DUP1 MLOAD PUSH1 0x20 DUP3 ADD PUSH0 CREATE SWAP3 POP PUSH0 PUSH20 0xFFFFFFFFFFFFFFFFFFFFFFFFFFFFFFFFFFFFFFFF AND DUP4 PUSH20 0xFFFFFFFFFFFFFFFFFFFFFFFFFFFFFFFFFFFFFFFF AND SUB PUSH2 0x1389 JUMPI PUSH1 0x40 MLOAD PUSH32 0x8C379A000000000000000000000000000000000000000000000000000000000 DUP2 MSTORE PUSH1 0x4 ADD PUSH2 0x1380 SWAP1 PUSH2 0x2641 JUMP JUMPDEST PUSH1 0x40 MLOAD DUP1 SWAP2 SUB SWAP1 REVERT JUMPDEST POP POP SWAP2 SWAP1 POP JUMP JUMPDEST PUSH0 PUSH1 0x1 DUP4 DUP4 PUSH2 0x139F SWAP2 SWAP1 PUSH2 0x2390 JUMP JUMPDEST PUSH2 0x13A9 SWAP2 SWAP1 PUSH2 0x22BF JUMP JUMPDEST DUP5 PUSH2 0x13B4 SWAP2 SWAP1 PUSH2 0x265F JUMP JUMPDEST DUP4 PUSH2 0x13BF SWAP2 SWAP1 PUSH2 0x22BF JUMP JUMPDEST SWAP1 POP SWAP4 SWAP3 POP POP POP JUMP JUMPDEST PUSH1 0x60 PUSH0 PUSH2 0x13D5 PUSH0 DUP1 PUSH2 0x15A0 JUMP JUMPDEST PUSH1 0x40 MLOAD PUSH1 0x20 ADD PUSH2 0x13E5 SWAP2 SWAP1 PUSH2 0x26B2 JUMP JUMPDEST PUSH1 0x40 MLOAD PUSH1 0x20 DUP2 DUP4 SUB SUB DUP2 MSTORE SWAP1 PUSH1 0x40 MSTORE SWAP1 POP PUSH0 JUMPDEST PUSH1 0x6 DUP2 LT ISZERO PUSH2 0x1464 JUMPI PUSH0 DUP5 DUP3 PUSH1 0x7 DUP2 LT PUSH2 0x1415 JUMPI PUSH2 0x1414 PUSH2 0x23C3 JUMP JUMPDEST JUMPDEST PUSH1 0x20 MUL ADD MLOAD SWAP1 POP PUSH0 DUP2 SUB PUSH2 0x1429 JUMPI POP PUSH2 0x1457 JUMP JUMPDEST DUP3 PUSH2 0x1433 DUP3 PUSH2 0x15DC JUMP JUMPDEST PUSH1 0x40 MLOAD PUSH1 0x20 ADD PUSH2 0x1444 SWAP3 SWAP2 SWAP1 PUSH2 0x26D3 JUMP JUMPDEST PUSH1 0x40 MLOAD PUSH1 0x20 DUP2 DUP4 SUB SUB DUP2 MSTORE SWAP1 PUSH1 0x40 MSTORE SWAP3 POP POP JUMPDEST DUP1 DUP1 PUSH1 0x1 ADD SWAP2 POP POP PUSH2 0x13F8 JUMP JUMPDEST POP PUSH2 0x146D PUSH2 0x1629 JUMP JUMPDEST PUSH1 0x1 PUSH0 SWAP1 SLOAD SWAP1 PUSH2 0x100 EXP SWAP1 DIV PUSH20 0xFFFFFFFFFFFFFFFFFFFFFFFFFFFFFFFFFFFFFFFF AND PUSH20 0xFFFFFFFFFFFFFFFFFFFFFFFFFFFFFFFFFFFFFFFF AND PUSH4 0xC76AB940 DUP6 PUSH1 0x6 PUSH1 0x7 DUP2 LT PUSH2 0x14BE JUMPI PUSH2 0x14BD PUSH2 0x23C3 JUMP JUMPDEST JUMPDEST PUSH1 0x20 MUL ADD MLOAD PUSH1 0x40 MLOAD DUP3 PUSH4 0xFFFFFFFF AND PUSH1 0xE0 SHL DUP2 MSTORE PUSH1 0x4 ADD PUSH2 0x14DF SWAP2 SWAP1 PUSH2 0x23FF JUMP JUMPDEST PUSH0 PUSH1 0x40 MLOAD DUP1 DUP4 SUB DUP2 DUP7 GAS STATICCALL ISZERO DUP1 ISZERO PUSH2 0x14F9 JUMPI RETURNDATASIZE PUSH0 DUP1 RETURNDATACOPY RETURNDATASIZE PUSH0 REVERT JUMPDEST POP POP POP POP PUSH1 0x40 MLOAD RETURNDATASIZE PUSH0 DUP3 RETURNDATACOPY RETURNDATASIZE PUSH1 0x1F NOT PUSH1 0x1F DUP3 ADD AND DUP3 ADD DUP1 PUSH1 0x40 MSTORE POP DUP2 ADD SWAP1 PUSH2 0x1521 SWAP2 SWAP1 PUSH2 0x2486 JUMP JUMPDEST DUP3 PUSH1 0x40 MLOAD PUSH1 0x20 ADD PUSH2 0x1534 SWAP4 SWAP3 SWAP2 SWAP1 PUSH2 0x27FA JUMP JUMPDEST PUSH1 0x40 MLOAD PUSH1 0x20 DUP2 DUP4 SUB SUB DUP2 MSTORE SWAP1 PUSH1 0x40 MSTORE SWAP2 POP POP SWAP2 SWAP1 POP JUMP JUMPDEST PUSH1 0x60 PUSH1 0x40 MLOAD SWAP1 POP PUSH1 0x1F NOT PUSH1 0x1F PUSH1 0x20 DUP5 ADD ADD AND DUP2 ADD PUSH1 0x40 MSTORE DUP2 DUP2 MSTORE DUP2 DUP4 PUSH1 0x20 DUP4 ADD DUP7 EXTCODECOPY SWAP4 SWAP3 POP POP POP JUMP JUMPDEST PUSH1 0x60 DUP3 DUP3 PUSH1 0x40 MLOAD PUSH1 0x20 ADD PUSH2 0x1589 SWAP3 SWAP2 SWAP1 PUSH2 0x2929 JUMP JUMPDEST PUSH1 0x40 MLOAD PUSH1 0x20 DUP2 DUP4 SUB SUB DUP2 MSTORE SWAP1 PUSH1 0x40 MSTORE SWAP1 POP SWAP3 SWAP2 POP POP JUMP JUMPDEST PUSH1 0x60 PUSH2 0x15AB DUP4 PUSH2 0xAED JUMP JUMPDEST PUSH2 0x15B4 DUP4 PUSH2 0xAED JUMP JUMPDEST PUSH1 0x40 MLOAD PUSH1 0x20 ADD PUSH2 0x15C5 SWAP3 SWAP2 SWAP1 PUSH2 0x2A27 JUMP JUMPDEST PUSH1 0x40 MLOAD PUSH1 0x20 DUP2 DUP4 SUB SUB DUP2 MSTORE SWAP1 PUSH1 0x40 MSTORE SWAP1 POP SWAP3 SWAP2 POP POP JUMP JUMPDEST PUSH1 0x60 PUSH0 PUSH1 0x40 PUSH1 0x3 DUP5 PUSH2 0x15EE SWAP2 SWAP1 PUSH2 0x265F JUMP JUMPDEST PUSH2 0x15F8 SWAP2 SWAP1 PUSH2 0x234F JUMP JUMPDEST SWAP1 POP PUSH0 PUSH1 0x40 PUSH1 0x3 DUP6 PUSH2 0x160A SWAP2 SWAP1 PUSH2 0x231F JUMP JUMPDEST PUSH2 0x1614 SWAP2 SWAP1 PUSH2 0x234F JUMP JUMPDEST SWAP1 POP PUSH2 0x1620 DUP3 DUP3 PUSH2 0x15A0 JUMP JUMPDEST SWAP3 POP POP POP SWAP2 SWAP1 POP JUMP JUMPDEST PUSH1 0x60 PUSH2 0x1633 PUSH2 0x282 JUMP JUMPDEST PUSH1 0x40 MLOAD PUSH1 0x20 ADD PUSH2 0x1643 SWAP2 SWAP1 PUSH2 0x2C2F JUMP JUMPDEST PUSH1 0x40 MLOAD PUSH1 0x20 DUP2 DUP4 SUB SUB DUP2 MSTORE SWAP1 PUSH1 0x40 MSTORE SWAP1 POP SWAP1 JUMP JUMPDEST PUSH1 0x40 MLOAD DUP1 PUSH1 0xE0 ADD PUSH1 0x40 MSTORE DUP1 PUSH1 0x7 SWAP1 PUSH1 0x20 DUP3 MUL DUP1 CALLDATASIZE DUP4 CALLDATACOPY DUP1 DUP3 ADD SWAP2 POP POP SWAP1 POP POP SWAP1 JUMP JUMPDEST PUSH1 0x40 MLOAD DUP1 PUSH1 0xC0 ADD PUSH1 0x40 MSTORE DUP1 PUSH1 0x6 SWAP1 JUMPDEST PUSH1 0x60 DUP2 MSTORE PUSH1 0x20 ADD SWAP1 PUSH1 0x1 SWAP1 SUB SWAP1 DUP2 PUSH2 0x1688 JUMPI SWAP1 POP POP SWAP1 JUMP JUMPDEST PUSH0 PUSH1 0x40 MLOAD SWAP1 POP SWAP1 JUMP JUMPDEST PUSH0 DUP1 REVERT JUMPDEST PUSH0 DUP1 REVERT JUMPDEST PUSH0 DUP2 SWAP1 POP SWAP2 SWAP1 POP JUMP JUMPDEST PUSH2 0x16C3 DUP2 PUSH2 0x16B1 JUMP JUMPDEST DUP2 EQ PUSH2 0x16CD JUMPI PUSH0 DUP1 REVERT JUMPDEST POP JUMP JUMPDEST PUSH0 DUP2 CALLDATALOAD SWAP1 POP PUSH2 0x16DE DUP2 PUSH2 0x16BA JUMP JUMPDEST SWAP3 SWAP2 POP POP JUMP JUMPDEST PUSH0 PUSH1 0x20 DUP3 DUP5 SUB SLT ISZERO PUSH2 0x16F9 JUMPI PUSH2 0x16F8 PUSH2 0x16A9 JUMP JUMPDEST JUMPDEST PUSH0 PUSH2 0x1706 DUP5 DUP3 DUP6 ADD PUSH2 0x16D0 JUMP JUMPDEST SWAP2 POP POP SWAP3 SWAP2 POP POP JUMP JUMPDEST PUSH0 DUP2 MLOAD SWAP1 POP SWAP2 SWAP1 POP JUMP JUMPDEST PUSH0 DUP3 DUP3 MSTORE PUSH1 0x20 DUP3 ADD SWAP1 POP SWAP3 SWAP2 POP POP JUMP JUMPDEST DUP3 DUP2 DUP4 MCOPY PUSH0 DUP4 DUP4 ADD MSTORE POP POP POP JUMP JUMPDEST PUSH0 PUSH1 0x1F NOT PUSH1 0x1F DUP4 ADD AND SWAP1 POP SWAP2 SWAP1 POP JUMP JUMPDEST PUSH0 PUSH2 0x1751 DUP3 PUSH2 0x170F JUMP JUMPDEST PUSH2 0x175B DUP2 DUP6 PUSH2 0x1719 JUMP JUMPDEST SWAP4 POP PUSH2 0x176B DUP2 DUP6 PUSH1 0x20 DUP7 ADD PUSH2 0x1729 JUMP JUMPDEST PUSH2 0x1774 DUP2 PUSH2 0x1737 JUMP JUMPDEST DUP5 ADD SWAP2 POP POP SWAP3 SWAP2 POP POP JUMP JUMPDEST PUSH0 PUSH1 0x20 DUP3 ADD SWAP1 POP DUP2 DUP2 SUB PUSH0 DUP4 ADD MSTORE PUSH2 0x1797 DUP2 DUP5 PUSH2 0x1747 JUMP JUMPDEST SWAP1 POP SWAP3 SWAP2 POP POP JUMP JUMPDEST PUSH0 DUP2 SWAP1 POP SWAP2 SWAP1 POP JUMP JUMPDEST PUSH2 0x17B1 DUP2 PUSH2 0x179F JUMP JUMPDEST DUP2 EQ PUSH2 0x17BB JUMPI PUSH0 DUP1 REVERT JUMPDEST POP JUMP JUMPDEST PUSH0 DUP2 CALLDATALOAD SWAP1 POP PUSH2 0x17CC DUP2 PUSH2 0x17A8 JUMP JUMPDEST SWAP3 SWAP2 POP POP JUMP JUMPDEST PUSH0 DUP1 PUSH1 0x40 DUP4 DUP6 SUB SLT ISZERO PUSH2 0x17E8 JUMPI PUSH2 0x17E7 PUSH2 0x16A9 JUMP JUMPDEST JUMPDEST PUSH0 PUSH2 0x17F5 DUP6 DUP3 DUP7 ADD PUSH2 0x17BE JUMP JUMPDEST SWAP3 POP POP PUSH1 0x20 PUSH2 0x1806 DUP6 DUP3 DUP7 ADD PUSH2 0x16D0 JUMP JUMPDEST SWAP2 POP POP SWAP3 POP SWAP3 SWAP1 POP JUMP JUMPDEST PUSH0 DUP1 REVERT JUMPDEST PUSH0 DUP1 REVERT JUMPDEST PUSH0 DUP1 REVERT JUMPDEST PUSH0 DUP1 DUP4 PUSH1 0x1F DUP5 ADD SLT PUSH2 0x1831 JUMPI PUSH2 0x1830 PUSH2 0x1810 JUMP JUMPDEST JUMPDEST DUP3 CALLDATALOAD SWAP1 POP PUSH8 0xFFFFFFFFFFFFFFFF DUP2 GT ISZERO PUSH2 0x184E JUMPI PUSH2 0x184D PUSH2 0x1814 JUMP JUMPDEST JUMPDEST PUSH1 0x20 DUP4 ADD SWAP2 POP DUP4 PUSH1 0x1 DUP3 MUL DUP4 ADD GT ISZERO PUSH2 0x186A JUMPI PUSH2 0x1869 PUSH2 0x1818 JUMP JUMPDEST JUMPDEST SWAP3 POP SWAP3 SWAP1 POP JUMP JUMPDEST PUSH0 DUP1 PUSH1 0x20 DUP4 DUP6 SUB SLT ISZERO PUSH2 0x1887 JUMPI PUSH2 0x1886 PUSH2 0x16A9 JUMP JUMPDEST JUMPDEST PUSH0 DUP4 ADD CALLDATALOAD PUSH8 0xFFFFFFFFFFFFFFFF DUP2 GT ISZERO PUSH2 0x18A4 JUMPI PUSH2 0x18A3 PUSH2 0x16AD JUMP JUMPDEST JUMPDEST PUSH2 0x18B0 DUP6 DUP3 DUP7 ADD PUSH2 0x181C JUMP JUMPDEST SWAP3 POP SWAP3 POP POP SWAP3 POP SWAP3 SWAP1 POP JUMP JUMPDEST PUSH0 PUSH1 0x7 SWAP1 POP SWAP2 SWAP1 POP JUMP JUMPDEST PUSH0 DUP2 SWAP1 POP SWAP3 SWAP2 POP POP JUMP JUMPDEST PUSH0 DUP2 SWAP1 POP SWAP2 SWAP1 POP JUMP JUMPDEST PUSH2 0x18E2 DUP2 PUSH2 0x179F JUMP JUMPDEST DUP3 MSTORE POP POP JUMP JUMPDEST PUSH0 PUSH2 0x18F3 DUP4 DUP4 PUSH2 0x18D9 JUMP JUMPDEST PUSH1 0x20 DUP4 ADD SWAP1 POP SWAP3 SWAP2 POP POP JUMP JUMPDEST PUSH0 PUSH1 0x20 DUP3 ADD SWAP1 POP SWAP2 SWAP1 POP JUMP JUMPDEST PUSH2 0x1914 DUP2 PUSH2 0x18BC JUMP JUMPDEST PUSH2 0x191E DUP2 DUP5 PUSH2 0x18C6 JUMP JUMPDEST SWAP3 POP PUSH2 0x1929 DUP3 PUSH2 0x18D0 JUMP JUMPDEST DUP1 PUSH0 JUMPDEST DUP4 DUP2 LT ISZERO PUSH2 0x1959 JUMPI DUP2 MLOAD PUSH2 0x1940 DUP8 DUP3 PUSH2 0x18E8 JUMP JUMPDEST SWAP7 POP PUSH2 0x194B DUP4 PUSH2 0x18FF JUMP JUMPDEST SWAP3 POP POP PUSH1 0x1 DUP2 ADD SWAP1 POP PUSH2 0x192C JUMP JUMPDEST POP POP POP POP POP POP JUMP JUMPDEST PUSH0 PUSH1 0xE0 DUP3 ADD SWAP1 POP PUSH2 0x1974 PUSH0 DUP4 ADD DUP5 PUSH2 0x190B JUMP JUMPDEST SWAP3 SWAP2 POP POP JUMP JUMPDEST PUSH0 PUSH20 0xFFFFFFFFFFFFFFFFFFFFFFFFFFFFFFFFFFFFFFFF DUP3 AND SWAP1 POP SWAP2 SWAP1 POP JUMP JUMPDEST PUSH0 PUSH2 0x19A3 DUP3 PUSH2 0x197A JUMP JUMPDEST SWAP1 POP SWAP2 SWAP1 POP JUMP JUMPDEST PUSH2 0x19B3 DUP2 PUSH2 0x1999 JUMP JUMPDEST DUP3 MSTORE POP POP JUMP JUMPDEST PUSH0 PUSH1 0x20 DUP3 ADD SWAP1 POP PUSH2 0x19CC PUSH0 DUP4 ADD DUP5 PUSH2 0x19AA JUMP JUMPDEST SWAP3 SWAP2 POP POP JUMP JUMPDEST PUSH0 DUP1 REVERT JUMPDEST PUSH32 0x4E487B7100000000000000000000000000000000000000000000000000000000 PUSH0 MSTORE PUSH1 0x41 PUSH1 0x4 MSTORE PUSH1 0x24 PUSH0 REVERT JUMPDEST PUSH2 0x1A0C DUP3 PUSH2 0x1737 JUMP JUMPDEST DUP2 ADD DUP2 DUP2 LT PUSH8 0xFFFFFFFFFFFFFFFF DUP3 GT OR ISZERO PUSH2 0x1A2B JUMPI PUSH2 0x1A2A PUSH2 0x19D6 JUMP JUMPDEST JUMPDEST DUP1 PUSH1 0x40 MSTORE POP POP POP JUMP JUMPDEST PUSH0 PUSH2 0x1A3D PUSH2 0x16A0 JUMP JUMPDEST SWAP1 POP PUSH2 0x1A49 DUP3 DUP3 PUSH2 0x1A03 JUMP JUMPDEST SWAP2 SWAP1 POP JUMP JUMPDEST PUSH0 PUSH8 0xFFFFFFFFFFFFFFFF DUP3 GT ISZERO PUSH2 0x1A68 JUMPI PUSH2 0x1A67 PUSH2 0x19D6 JUMP JUMPDEST JUMPDEST PUSH2 0x1A71 DUP3 PUSH2 0x1737 JUMP JUMPDEST SWAP1 POP PUSH1 0x20 DUP2 ADD SWAP1 POP SWAP2 SWAP1 POP JUMP JUMPDEST DUP3 DUP2 DUP4 CALLDATACOPY PUSH0 DUP4 DUP4 ADD MSTORE POP POP POP JUMP JUMPDEST PUSH0 PUSH2 0x1A9E PUSH2 0x1A99 DUP5 PUSH2 0x1A4E JUMP JUMPDEST PUSH2 0x1A34 JUMP JUMPDEST SWAP1 POP DUP3 DUP2 MSTORE PUSH1 0x20 DUP2 ADD DUP5 DUP5 DUP5 ADD GT ISZERO PUSH2 0x1ABA JUMPI PUSH2 0x1AB9 PUSH2 0x19D2 JUMP JUMPDEST JUMPDEST PUSH2 0x1AC5 DUP5 DUP3 DUP6 PUSH2 0x1A7E JUMP JUMPDEST POP SWAP4 SWAP3 POP POP POP JUMP JUMPDEST PUSH0 DUP3 PUSH1 0x1F DUP4 ADD SLT PUSH2 0x1AE1 JUMPI PUSH2 0x1AE0 PUSH2 0x1810 JUMP JUMPDEST JUMPDEST DUP2 CALLDATALOAD PUSH2 0x1AF1 DUP5 DUP3 PUSH1 0x20 DUP7 ADD PUSH2 0x1A8C JUMP JUMPDEST SWAP2 POP POP SWAP3 SWAP2 POP POP JUMP JUMPDEST PUSH0 PUSH1 0x20 DUP3 DUP5 SUB SLT ISZERO PUSH2 0x1B0F JUMPI PUSH2 0x1B0E PUSH2 0x16A9 JUMP JUMPDEST JUMPDEST PUSH0 DUP3 ADD CALLDATALOAD PUSH8 0xFFFFFFFFFFFFFFFF DUP2 GT ISZERO PUSH2 0x1B2C JUMPI PUSH2 0x1B2B PUSH2 0x16AD JUMP JUMPDEST JUMPDEST PUSH2 0x1B38 DUP5 DUP3 DUP6 ADD PUSH2 0x1ACD JUMP JUMPDEST SWAP2 POP POP SWAP3 SWAP2 POP POP JUMP JUMPDEST PUSH2 0x1B4A DUP2 PUSH2 0x1999 JUMP JUMPDEST DUP2 EQ PUSH2 0x1B54 JUMPI PUSH0 DUP1 REVERT JUMPDEST POP JUMP JUMPDEST PUSH0 DUP2 CALLDATALOAD SWAP1 POP PUSH2 0x1B65 DUP2 PUSH2 0x1B41 JUMP JUMPDEST SWAP3 SWAP2 POP POP JUMP JUMPDEST PUSH0 PUSH1 0x20 DUP3 DUP5 SUB SLT ISZERO PUSH2 0x1B80 JUMPI PUSH2 0x1B7F PUSH2 0x16A9 JUMP JUMPDEST JUMPDEST PUSH0 PUSH2 0x1B8D DUP5 DUP3 DUP6 ADD PUSH2 0x1B57 JUMP JUMPDEST SWAP2 POP POP SWAP3 SWAP2 POP POP JUMP JUMPDEST PUSH0 DUP2 SWAP1 POP SWAP3 SWAP2 POP POP JUMP JUMPDEST PUSH32 0x646174613A696D6167652F7376672B786D6C3B6261736536342C000000000000 PUSH0 DUP3 ADD MSTORE POP JUMP JUMPDEST PUSH0 PUSH2 0x1BD4 PUSH1 0x1A DUP4 PUSH2 0x1B96 JUMP JUMPDEST SWAP2 POP PUSH2 0x1BDF DUP3 PUSH2 0x1BA0 JUMP JUMPDEST PUSH1 0x1A DUP3 ADD SWAP1 POP SWAP2 SWAP1 POP JUMP JUMPDEST PUSH0 PUSH2 0x1BF4 DUP3 PUSH2 0x170F JUMP JUMPDEST PUSH2 0x1BFE DUP2 DUP6 PUSH2 0x1B96 JUMP JUMPDEST SWAP4 POP PUSH2 0x1C0E DUP2 DUP6 PUSH1 0x20 DUP7 ADD PUSH2 0x1729 JUMP JUMPDEST DUP1 DUP5 ADD SWAP2 POP POP SWAP3 SWAP2 POP POP JUMP JUMPDEST PUSH0 PUSH2 0x1C24 DUP3 PUSH2 0x1BC8 JUMP JUMPDEST SWAP2 POP PUSH2 0x1C30 DUP3 DUP5 PUSH2 0x1BEA JUMP JUMPDEST SWAP2 POP DUP2 SWAP1 POP SWAP3 SWAP2 POP POP JUMP JUMPDEST PUSH32 0x7B226E616D65223A202248616D20506570652023000000000000000000000000 PUSH0 DUP3 ADD MSTORE POP JUMP JUMPDEST PUSH0 PUSH2 0x1C6F PUSH1 0x14 DUP4 PUSH2 0x1B96 JUMP JUMPDEST SWAP2 POP PUSH2 0x1C7A DUP3 PUSH2 0x1C3B JUMP JUMPDEST PUSH1 0x14 DUP3 ADD SWAP1 POP SWAP2 SWAP1 POP JUMP JUMPDEST PUSH32 0x222C20226465736372697074696F6E223A202200000000000000000000000000 PUSH0 DUP3 ADD MSTORE POP JUMP JUMPDEST PUSH0 PUSH2 0x1CB9 PUSH1 0x13 DUP4 PUSH2 0x1B96 JUMP JUMPDEST SWAP2 POP PUSH2 0x1CC4 DUP3 PUSH2 0x1C85 JUMP JUMPDEST PUSH1 0x13 DUP3 ADD SWAP1 POP SWAP2 SWAP1 POP JUMP JUMPDEST PUSH32 0x4E487B7100000000000000000000000000000000000000000000000000000000 PUSH0 MSTORE PUSH1 0x22 PUSH1 0x4 MSTORE PUSH1 0x24 PUSH0 REVERT JUMPDEST PUSH0 PUSH1 0x2 DUP3 DIV SWAP1 POP PUSH1 0x1 DUP3 AND DUP1 PUSH2 0x1D13 JUMPI PUSH1 0x7F DUP3 AND SWAP2 POP JUMPDEST PUSH1 0x20 DUP3 LT DUP2 SUB PUSH2 0x1D26 JUMPI PUSH2 0x1D25 PUSH2 0x1CCF JUMP JUMPDEST JUMPDEST POP SWAP2 SWAP1 POP JUMP JUMPDEST PUSH0 DUP2 SWAP1 POP DUP2 PUSH0 MSTORE PUSH1 0x20 PUSH0 KECCAK256 SWAP1 POP SWAP2 SWAP1 POP JUMP JUMPDEST PUSH0 DUP2 SLOAD PUSH2 0x1D4A DUP2 PUSH2 0x1CFC JUMP JUMPDEST PUSH2 0x1D54 DUP2 DUP7 PUSH2 0x1B96 JUMP JUMPDEST SWAP5 POP PUSH1 0x1 DUP3 AND PUSH0 DUP2 EQ PUSH2 0x1D6E JUMPI PUSH1 0x1 DUP2 EQ PUSH2 0x1D83 JUMPI PUSH2 0x1DB5 JUMP JUMPDEST PUSH1 0xFF NOT DUP4 AND DUP7 MSTORE DUP2 ISZERO ISZERO DUP3 MUL DUP7 ADD SWAP4 POP PUSH2 0x1DB5 JUMP JUMPDEST PUSH2 0x1D8C DUP6 PUSH2 0x1D2C JUMP JUMPDEST PUSH0 JUMPDEST DUP4 DUP2 LT ISZERO PUSH2 0x1DAD JUMPI DUP2 SLOAD DUP2 DUP10 ADD MSTORE PUSH1 0x1 DUP3 ADD SWAP2 POP PUSH1 0x20 DUP2 ADD SWAP1 POP PUSH2 0x1D8E JUMP JUMPDEST DUP4 DUP9 ADD SWAP6 POP POP POP JUMPDEST POP POP POP SWAP3 SWAP2 POP POP JUMP JUMPDEST PUSH32 0x222C000000000000000000000000000000000000000000000000000000000000 PUSH0 DUP3 ADD MSTORE POP JUMP JUMPDEST PUSH0 PUSH2 0x1DF2 PUSH1 0x2 DUP4 PUSH2 0x1B96 JUMP JUMPDEST SWAP2 POP PUSH2 0x1DFD DUP3 PUSH2 0x1DBE JUMP JUMPDEST PUSH1 0x2 DUP3 ADD SWAP1 POP SWAP2 SWAP1 POP JUMP JUMPDEST PUSH32 0x22696D616765223A220000000000000000000000000000000000000000000000 PUSH0 DUP3 ADD MSTORE POP JUMP JUMPDEST PUSH0 PUSH2 0x1E3C PUSH1 0x9 DUP4 PUSH2 0x1B96 JUMP JUMPDEST SWAP2 POP PUSH2 0x1E47 DUP3 PUSH2 0x1E08 JUMP JUMPDEST PUSH1 0x9 DUP3 ADD SWAP1 POP SWAP2 SWAP1 POP JUMP JUMPDEST PUSH32 0x222C2261747472696275746573223A5B00000000000000000000000000000000 PUSH0 DUP3 ADD MSTORE POP JUMP JUMPDEST PUSH0 PUSH2 0x1E86 PUSH1 0x10 DUP4 PUSH2 0x1B96 JUMP JUMPDEST SWAP2 POP PUSH2 0x1E91 DUP3 PUSH2 0x1E52 JUMP JUMPDEST PUSH1 0x10 DUP3 ADD SWAP1 POP SWAP2 SWAP1 POP JUMP JUMPDEST PUSH32 0x5D7D000000000000000000000000000000000000000000000000000000000000 PUSH0 DUP3 ADD MSTORE POP JUMP JUMPDEST PUSH0 PUSH2 0x1ED0 PUSH1 0x2 DUP4 PUSH2 0x1B96 JUMP JUMPDEST SWAP2 POP PUSH2 0x1EDB DUP3 PUSH2 0x1E9C JUMP JUMPDEST PUSH1 0x2 DUP3 ADD SWAP1 POP SWAP2 SWAP1 POP JUMP JUMPDEST PUSH0 PUSH2 0x1EF0 DUP3 PUSH2 0x1C63 JUMP JUMPDEST SWAP2 POP PUSH2 0x1EFC DUP3 DUP8 PUSH2 0x1BEA JUMP JUMPDEST SWAP2 POP PUSH2 0x1F07 DUP3 PUSH2 0x1CAD JUMP JUMPDEST SWAP2 POP PUSH2 0x1F13 DUP3 DUP7 PUSH2 0x1D3E JUMP JUMPDEST SWAP2 POP PUSH2 0x1F1E DUP3 PUSH2 0x1DE6 JUMP JUMPDEST SWAP2 POP PUSH2 0x1F29 DUP3 PUSH2 0x1E30 JUMP JUMPDEST SWAP2 POP PUSH2 0x1F35 DUP3 DUP6 PUSH2 0x1BEA JUMP JUMPDEST SWAP2 POP PUSH2 0x1F40 DUP3 PUSH2 0x1E7A JUMP JUMPDEST SWAP2 POP PUSH2 0x1F4C DUP3 DUP5 PUSH2 0x1BEA JUMP JUMPDEST SWAP2 POP PUSH2 0x1F57 DUP3 PUSH2 0x1EC4 JUMP JUMPDEST SWAP2 POP DUP2 SWAP1 POP SWAP6 SWAP5 POP POP POP POP POP JUMP JUMPDEST PUSH32 0x554E415554484F52495A45440000000000000000000000000000000000000000 PUSH0 DUP3 ADD MSTORE POP JUMP JUMPDEST PUSH0 PUSH2 0x1F99 PUSH1 0xC DUP4 PUSH2 0x1719 JUMP JUMPDEST SWAP2 POP PUSH2 0x1FA4 DUP3 PUSH2 0x1F65 JUMP JUMPDEST PUSH1 0x20 DUP3 ADD SWAP1 POP SWAP2 SWAP1 POP JUMP JUMPDEST PUSH0 PUSH1 0x20 DUP3 ADD SWAP1 POP DUP2 DUP2 SUB PUSH0 DUP4 ADD MSTORE PUSH2 0x1FC6 DUP2 PUSH2 0x1F8D JUMP JUMPDEST SWAP1 POP SWAP2 SWAP1 POP JUMP JUMPDEST PUSH32 0x646174613A6170706C69636174696F6E2F6A736F6E3B6261736536342C000000 PUSH0 DUP3 ADD MSTORE POP JUMP JUMPDEST PUSH0 PUSH2 0x2001 PUSH1 0x1D DUP4 PUSH2 0x1B96 JUMP JUMPDEST SWAP2 POP PUSH2 0x200C DUP3 PUSH2 0x1FCD JUMP JUMPDEST PUSH1 0x1D DUP3 ADD SWAP1 POP SWAP2 SWAP1 POP JUMP JUMPDEST PUSH0 PUSH2 0x2021 DUP3 PUSH2 0x1FF5 JUMP JUMPDEST SWAP2 POP PUSH2 0x202D DUP3 DUP5 PUSH2 0x1BEA JUMP JUMPDEST SWAP2 POP DUP2 SWAP1 POP SWAP3 SWAP2 POP POP JUMP JUMPDEST PUSH0 PUSH1 0x20 PUSH1 0x1F DUP4 ADD DIV SWAP1 POP SWAP2 SWAP1 POP JUMP JUMPDEST PUSH0 DUP3 DUP3 SHL SWAP1 POP SWAP3 SWAP2 POP POP JUMP JUMPDEST PUSH0 PUSH1 0x8 DUP4 MUL PUSH2 0x2082 PUSH32 0xFFFFFFFFFFFFFFFFFFFFFFFFFFFFFFFFFFFFFFFFFFFFFFFFFFFFFFFFFFFFFFFF DUP3 PUSH2 0x2047 JUMP JUMPDEST PUSH2 0x208C DUP7 DUP4 PUSH2 0x2047 JUMP JUMPDEST SWAP6 POP DUP1 NOT DUP5 AND SWAP4 POP DUP1 DUP7 AND DUP5 OR SWAP3 POP POP POP SWAP4 SWAP3 POP POP POP JUMP JUMPDEST PUSH0 DUP2 SWAP1 POP SWAP2 SWAP1 POP JUMP JUMPDEST PUSH0 PUSH2 0x20C7 PUSH2 0x20C2 PUSH2 0x20BD DUP5 PUSH2 0x179F JUMP JUMPDEST PUSH2 0x20A4 JUMP JUMPDEST PUSH2 0x179F JUMP JUMPDEST SWAP1 POP SWAP2 SWAP1 POP JUMP JUMPDEST PUSH0 DUP2 SWAP1 POP SWAP2 SWAP1 POP JUMP JUMPDEST PUSH2 0x20E0 DUP4 PUSH2 0x20AD JUMP JUMPDEST PUSH2 0x20F4 PUSH2 0x20EC DUP3 PUSH2 0x20CE JUMP JUMPDEST DUP5 DUP5 SLOAD PUSH2 0x2053 JUMP JUMPDEST DUP3 SSTORE POP POP POP POP JUMP JUMPDEST PUSH0 SWAP1 JUMP JUMPDEST PUSH2 0x2108 PUSH2 0x20FC JUMP JUMPDEST PUSH2 0x2113 DUP2 DUP5 DUP5 PUSH2 0x20D7 JUMP JUMPDEST POP POP POP JUMP JUMPDEST JUMPDEST DUP2 DUP2 LT ISZERO PUSH2 0x2136 JUMPI PUSH2 0x212B PUSH0 DUP3 PUSH2 0x2100 JUMP JUMPDEST PUSH1 0x1 DUP2 ADD SWAP1 POP PUSH2 0x2119 JUMP JUMPDEST POP POP JUMP JUMPDEST PUSH1 0x1F DUP3 GT ISZERO PUSH2 0x217B JUMPI PUSH2 0x214C DUP2 PUSH2 0x1D2C JUMP JUMPDEST PUSH2 0x2155 DUP5 PUSH2 0x2038 JUMP JUMPDEST DUP2 ADD PUSH1 0x20 DUP6 LT ISZERO PUSH2 0x2164 JUMPI DUP2 SWAP1 POP JUMPDEST PUSH2 0x2178 PUSH2 0x2170 DUP6 PUSH2 0x2038 JUMP JUMPDEST DUP4 ADD DUP3 PUSH2 0x2118 JUMP JUMPDEST POP POP JUMPDEST POP POP POP JUMP JUMPDEST PUSH0 DUP3 DUP3 SHR SWAP1 POP SWAP3 SWAP2 POP POP JUMP JUMPDEST PUSH0 PUSH2 0x219B PUSH0 NOT DUP5 PUSH1 0x8 MUL PUSH2 0x2180 JUMP JUMPDEST NOT DUP1 DUP4 AND SWAP2 POP POP SWAP3 SWAP2 POP POP JUMP JUMPDEST PUSH0 PUSH2 0x21B3 DUP4 DUP4 PUSH2 0x218C JUMP JUMPDEST SWAP2 POP DUP3 PUSH1 0x2 MUL DUP3 OR SWAP1 POP SWAP3 SWAP2 POP POP JUMP JUMPDEST PUSH2 0x21CC DUP3 PUSH2 0x170F JUMP JUMPDEST PUSH8 0xFFFFFFFFFFFFFFFF DUP2 GT ISZERO PUSH2 0x21E5 JUMPI PUSH2 0x21E4 PUSH2 0x19D6 JUMP JUMPDEST JUMPDEST PUSH2 0x21EF DUP3 SLOAD PUSH2 0x1CFC JUMP JUMPDEST PUSH2 0x21FA DUP3 DUP3 DUP6 PUSH2 0x213A JUMP JUMPDEST PUSH0 PUSH1 0x20 SWAP1 POP PUSH1 0x1F DUP4 GT PUSH1 0x1 DUP2 EQ PUSH2 0x222B JUMPI PUSH0 DUP5 ISZERO PUSH2 0x2219 JUMPI DUP3 DUP8 ADD MLOAD SWAP1 POP JUMPDEST PUSH2 0x2223 DUP6 DUP3 PUSH2 0x21A8 JUMP JUMPDEST DUP7 SSTORE POP PUSH2 0x228A JUMP JUMPDEST PUSH1 0x1F NOT DUP5 AND PUSH2 0x2239 DUP7 PUSH2 0x1D2C JUMP JUMPDEST PUSH0 JUMPDEST DUP3 DUP2 LT ISZERO PUSH2 0x2260 JUMPI DUP5 DUP10 ADD MLOAD DUP3 SSTORE PUSH1 0x1 DUP3 ADD SWAP2 POP PUSH1 0x20 DUP6 ADD SWAP5 POP PUSH1 0x20 DUP2 ADD SWAP1 POP PUSH2 0x223B JUMP JUMPDEST DUP7 DUP4 LT ISZERO PUSH2 0x227D JUMPI DUP5 DUP10 ADD MLOAD PUSH2 0x2279 PUSH1 0x1F DUP10 AND DUP3 PUSH2 0x218C JUMP JUMPDEST DUP4 SSTORE POP JUMPDEST PUSH1 0x1 PUSH1 0x2 DUP9 MUL ADD DUP9 SSTORE POP POP POP JUMPDEST POP POP POP POP POP POP JUMP JUMPDEST PUSH32 0x4E487B7100000000000000000000000000000000000000000000000000000000 PUSH0 MSTORE PUSH1 0x11 PUSH1 0x4 MSTORE PUSH1 0x24 PUSH0 REVERT JUMPDEST PUSH0 PUSH2 0x22C9 DUP3 PUSH2 0x179F JUMP JUMPDEST SWAP2 POP PUSH2 0x22D4 DUP4 PUSH2 0x179F JUMP JUMPDEST SWAP3 POP DUP3 DUP3 ADD SWAP1 POP DUP1 DUP3 GT ISZERO PUSH2 0x22EC JUMPI PUSH2 0x22EB PUSH2 0x2292 JUMP JUMPDEST JUMPDEST SWAP3 SWAP2 POP POP JUMP JUMPDEST PUSH32 0x4E487B7100000000000000000000000000000000000000000000000000000000 PUSH0 MSTORE PUSH1 0x12 PUSH1 0x4 MSTORE PUSH1 0x24 PUSH0 REVERT JUMPDEST PUSH0 PUSH2 0x2329 DUP3 PUSH2 0x179F JUMP JUMPDEST SWAP2 POP PUSH2 0x2334 DUP4 PUSH2 0x179F JUMP JUMPDEST SWAP3 POP DUP3 PUSH2 0x2344 JUMPI PUSH2 0x2343 PUSH2 0x22F2 JUMP JUMPDEST JUMPDEST DUP3 DUP3 DIV SWAP1 POP SWAP3 SWAP2 POP POP JUMP JUMPDEST PUSH0 PUSH2 0x2359 DUP3 PUSH2 0x179F JUMP JUMPDEST SWAP2 POP PUSH2 0x2364 DUP4 PUSH2 0x179F JUMP JUMPDEST SWAP3 POP DUP3 DUP3 MUL PUSH2 0x2372 DUP2 PUSH2 0x179F JUMP JUMPDEST SWAP2 POP DUP3 DUP3 DIV DUP5 EQ DUP4 ISZERO OR PUSH2 0x2389 JUMPI PUSH2 0x2388 PUSH2 0x2292 JUMP JUMPDEST JUMPDEST POP SWAP3 SWAP2 POP POP JUMP JUMPDEST PUSH0 PUSH2 0x239A DUP3 PUSH2 0x179F JUMP JUMPDEST SWAP2 POP PUSH2 0x23A5 DUP4 PUSH2 0x179F JUMP JUMPDEST SWAP3 POP DUP3 DUP3 SUB SWAP1 POP DUP2 DUP2 GT ISZERO PUSH2 0x23BD JUMPI PUSH2 0x23BC PUSH2 0x2292 JUMP JUMPDEST JUMPDEST SWAP3 SWAP2 POP POP JUMP JUMPDEST PUSH32 0x4E487B7100000000000000000000000000000000000000000000000000000000 PUSH0 MSTORE PUSH1 0x32 PUSH1 0x4 MSTORE PUSH1 0x24 PUSH0 REVERT JUMPDEST PUSH2 0x23F9 DUP2 PUSH2 0x179F JUMP JUMPDEST DUP3 MSTORE POP POP JUMP JUMPDEST PUSH0 PUSH1 0x20 DUP3 ADD SWAP1 POP PUSH2 0x2412 PUSH0 DUP4 ADD DUP5 PUSH2 0x23F0 JUMP JUMPDEST SWAP3 SWAP2 POP POP JUMP JUMPDEST PUSH0 PUSH2 0x242A PUSH2 0x2425 DUP5 PUSH2 0x1A4E JUMP JUMPDEST PUSH2 0x1A34 JUMP JUMPDEST SWAP1 POP DUP3 DUP2 MSTORE PUSH1 0x20 DUP2 ADD DUP5 DUP5 DUP5 ADD GT ISZERO PUSH2 0x2446 JUMPI PUSH2 0x2445 PUSH2 0x19D2 JUMP JUMPDEST JUMPDEST PUSH2 0x2451 DUP5 DUP3 DUP6 PUSH2 0x1729 JUMP JUMPDEST POP SWAP4 SWAP3 POP POP POP JUMP JUMPDEST PUSH0 DUP3 PUSH1 0x1F DUP4 ADD SLT PUSH2 0x246D JUMPI PUSH2 0x246C PUSH2 0x1810 JUMP JUMPDEST JUMPDEST DUP2 MLOAD PUSH2 0x247D DUP5 DUP3 PUSH1 0x20 DUP7 ADD PUSH2 0x2418 JUMP JUMPDEST SWAP2 POP POP SWAP3 SWAP2 POP POP JUMP JUMPDEST PUSH0 PUSH1 0x20 DUP3 DUP5 SUB SLT ISZERO PUSH2 0x249B JUMPI PUSH2 0x249A PUSH2 0x16A9 JUMP JUMPDEST JUMPDEST PUSH0 DUP3 ADD MLOAD PUSH8 0xFFFFFFFFFFFFFFFF DUP2 GT ISZERO PUSH2 0x24B8 JUMPI PUSH2 0x24B7 PUSH2 0x16AD JUMP JUMPDEST JUMPDEST PUSH2 0x24C4 DUP5 DUP3 DUP6 ADD PUSH2 0x2459 JUMP JUMPDEST SWAP2 POP POP SWAP3 SWAP2 POP POP JUMP JUMPDEST PUSH0 PUSH2 0x24D8 DUP3 DUP7 PUSH2 0x1BEA JUMP JUMPDEST SWAP2 POP PUSH2 0x24E4 DUP3 DUP6 PUSH2 0x1BEA JUMP JUMPDEST SWAP2 POP PUSH2 0x24F0 DUP3 DUP5 PUSH2 0x1BEA JUMP JUMPDEST SWAP2 POP DUP2 SWAP1 POP SWAP5 SWAP4 POP POP POP POP JUMP JUMPDEST PUSH0 DUP1 DUP3 ADD MSTORE POP JUMP JUMPDEST PUSH0 PUSH2 0x2511 PUSH1 0x1 DUP4 PUSH2 0x1B96 JUMP JUMPDEST SWAP2 POP PUSH2 0x251C DUP3 PUSH2 0x24FD JUMP JUMPDEST PUSH1 0x1 DUP3 ADD SWAP1 POP SWAP2 SWAP1 POP JUMP JUMPDEST PUSH0 DUP2 MLOAD SWAP1 POP SWAP2 SWAP1 POP JUMP JUMPDEST PUSH0 DUP2 SWAP1 POP SWAP3 SWAP2 POP POP JUMP JUMPDEST PUSH0 PUSH2 0x2545 DUP3 PUSH2 0x2527 JUMP JUMPDEST PUSH2 0x254F DUP2 DUP6 PUSH2 0x2531 JUMP JUMPDEST SWAP4 POP PUSH2 0x255F DUP2 DUP6 PUSH1 0x20 DUP7 ADD PUSH2 0x1729 JUMP JUMPDEST DUP1 DUP5 ADD SWAP2 POP POP SWAP3 SWAP2 POP POP JUMP JUMPDEST PUSH0 PUSH2 0x2575 DUP3 PUSH2 0x2505 JUMP JUMPDEST SWAP2 POP PUSH2 0x2581 DUP3 DUP5 PUSH2 0x253B JUMP JUMPDEST SWAP2 POP DUP2 SWAP1 POP SWAP3 SWAP2 POP POP JUMP JUMPDEST PUSH32 0x600B5981380380925939F3000000000000000000000000000000000000000000 PUSH0 DUP3 ADD MSTORE POP JUMP JUMPDEST PUSH0 PUSH2 0x25C0 PUSH1 0xB DUP4 PUSH2 0x1B96 JUMP JUMPDEST SWAP2 POP PUSH2 0x25CB DUP3 PUSH2 0x258C JUMP JUMPDEST PUSH1 0xB DUP3 ADD SWAP1 POP SWAP2 SWAP1 POP JUMP JUMPDEST PUSH0 PUSH2 0x25E0 DUP3 PUSH2 0x25B4 JUMP JUMPDEST SWAP2 POP PUSH2 0x25EC DUP3 DUP5 PUSH2 0x253B JUMP JUMPDEST SWAP2 POP DUP2 SWAP1 POP SWAP3 SWAP2 POP POP JUMP JUMPDEST PUSH32 0x4445504C4F594D454E545F4641494C4544000000000000000000000000000000 PUSH0 DUP3 ADD MSTORE POP JUMP JUMPDEST PUSH0 PUSH2 0x262B PUSH1 0x11 DUP4 PUSH2 0x1719 JUMP JUMPDEST SWAP2 POP PUSH2 0x2636 DUP3 PUSH2 0x25F7 JUMP JUMPDEST PUSH1 0x20 DUP3 ADD SWAP1 POP SWAP2 SWAP1 POP JUMP JUMPDEST PUSH0 PUSH1 0x20 DUP3 ADD SWAP1 POP DUP2 DUP2 SUB PUSH0 DUP4 ADD MSTORE PUSH2 0x2658 DUP2 PUSH2 0x261F JUMP JUMPDEST SWAP1 POP SWAP2 SWAP1 POP JUMP JUMPDEST PUSH0 PUSH2 0x2669 DUP3 PUSH2 0x179F JUMP JUMPDEST SWAP2 POP PUSH2 0x2674 DUP4 PUSH2 0x179F JUMP JUMPDEST SWAP3 POP DUP3 PUSH2 0x2684 JUMPI PUSH2 0x2683 PUSH2 0x22F2 JUMP JUMPDEST JUMPDEST DUP3 DUP3 MOD SWAP1 POP SWAP3 SWAP2 POP POP JUMP JUMPDEST POP JUMP JUMPDEST PUSH0 PUSH2 0x269D PUSH0 DUP4 PUSH2 0x1B96 JUMP JUMPDEST SWAP2 POP PUSH2 0x26A8 DUP3 PUSH2 0x268F JUMP JUMPDEST PUSH0 DUP3 ADD SWAP1 POP SWAP2 SWAP1 POP JUMP JUMPDEST PUSH0 PUSH2 0x26BC DUP3 PUSH2 0x2692 JUMP JUMPDEST SWAP2 POP PUSH2 0x26C8 DUP3 DUP5 PUSH2 0x1BEA JUMP JUMPDEST SWAP2 POP DUP2 SWAP1 POP SWAP3 SWAP2 POP POP JUMP JUMPDEST PUSH0 PUSH2 0x26DE DUP3 DUP6 PUSH2 0x1BEA JUMP JUMPDEST SWAP2 POP PUSH2 0x26EA DUP3 DUP5 PUSH2 0x1BEA JUMP JUMPDEST SWAP2 POP DUP2 SWAP1 POP SWAP4 SWAP3 POP POP POP JUMP JUMPDEST PUSH32 0x3C726563742077696474683D27363427206865696768743D273634272066696C PUSH0 DUP3 ADD MSTORE PUSH32 0x6C3D270000000000000000000000000000000000000000000000000000000000 PUSH1 0x20 DUP3 ADD MSTORE POP JUMP JUMPDEST PUSH0 PUSH2 0x2750 PUSH1 0x23 DUP4 PUSH2 0x1B96 JUMP JUMPDEST SWAP2 POP PUSH2 0x275B DUP3 PUSH2 0x26F6 JUMP JUMPDEST PUSH1 0x23 DUP3 ADD SWAP1 POP SWAP2 SWAP1 POP JUMP JUMPDEST PUSH32 0x27202F3E00000000000000000000000000000000000000000000000000000000 PUSH0 DUP3 ADD MSTORE POP JUMP JUMPDEST PUSH0 PUSH2 0x279A PUSH1 0x4 DUP4 PUSH2 0x1B96 JUMP JUMPDEST SWAP2 POP PUSH2 0x27A5 DUP3 PUSH2 0x2766 JUMP JUMPDEST PUSH1 0x4 DUP3 ADD SWAP1 POP SWAP2 SWAP1 POP JUMP JUMPDEST PUSH32 0x3C2F673E3C2F7376673E00000000000000000000000000000000000000000000 PUSH0 DUP3 ADD MSTORE POP JUMP JUMPDEST PUSH0 PUSH2 0x27E4 PUSH1 0xA DUP4 PUSH2 0x1B96 JUMP JUMPDEST SWAP2 POP PUSH2 0x27EF DUP3 PUSH2 0x27B0 JUMP JUMPDEST PUSH1 0xA DUP3 ADD SWAP1 POP SWAP2 SWAP1 POP JUMP JUMPDEST PUSH0 PUSH2 0x2805 DUP3 DUP7 PUSH2 0x1BEA JUMP JUMPDEST SWAP2 POP PUSH2 0x2810 DUP3 PUSH2 0x2744 JUMP JUMPDEST SWAP2 POP PUSH2 0x281C DUP3 DUP6 PUSH2 0x1BEA JUMP JUMPDEST SWAP2 POP PUSH2 0x2827 DUP3 PUSH2 0x278E JUMP JUMPDEST SWAP2 POP PUSH2 0x2833 DUP3 DUP5 PUSH2 0x1BEA JUMP JUMPDEST SWAP2 POP PUSH2 0x283E DUP3 PUSH2 0x27D8 JUMP JUMPDEST SWAP2 POP DUP2 SWAP1 POP SWAP5 SWAP4 POP POP POP POP JUMP JUMPDEST PUSH32 0x7B2274726169745F74797065223A220000000000000000000000000000000000 PUSH0 DUP3 ADD MSTORE POP JUMP JUMPDEST PUSH0 PUSH2 0x287F PUSH1 0xF DUP4 PUSH2 0x1B96 JUMP JUMPDEST SWAP2 POP PUSH2 0x288A DUP3 PUSH2 0x284B JUMP JUMPDEST PUSH1 0xF DUP3 ADD SWAP1 POP SWAP2 SWAP1 POP JUMP JUMPDEST PUSH32 0x222C2276616C7565223A22000000000000000000000000000000000000000000 PUSH0 DUP3 ADD MSTORE POP JUMP JUMPDEST PUSH0 PUSH2 0x28C9 PUSH1 0xB DUP4 PUSH2 0x1B96 JUMP JUMPDEST SWAP2 POP PUSH2 0x28D4 DUP3 PUSH2 0x2895 JUMP JUMPDEST PUSH1 0xB DUP3 ADD SWAP1 POP SWAP2 SWAP1 POP JUMP JUMPDEST PUSH32 0x227D000000000000000000000000000000000000000000000000000000000000 PUSH0 DUP3 ADD MSTORE POP JUMP JUMPDEST PUSH0 PUSH2 0x2913 PUSH1 0x2 DUP4 PUSH2 0x1B96 JUMP JUMPDEST SWAP2 POP PUSH2 0x291E DUP3 PUSH2 0x28DF JUMP JUMPDEST PUSH1 0x2 DUP3 ADD SWAP1 POP SWAP2 SWAP1 POP JUMP JUMPDEST PUSH0 PUSH2 0x2933 DUP3 PUSH2 0x2873 JUMP JUMPDEST SWAP2 POP PUSH2 0x293F DUP3 DUP6 PUSH2 0x1BEA JUMP JUMPDEST SWAP2 POP PUSH2 0x294A DUP3 PUSH2 0x28BD JUMP JUMPDEST SWAP2 POP PUSH2 0x2956 DUP3 DUP5 PUSH2 0x1BEA JUMP JUMPDEST SWAP2 POP PUSH2 0x2961 DUP3 PUSH2 0x2907 JUMP JUMPDEST SWAP2 POP DUP2 SWAP1 POP SWAP4 SWAP3 POP POP POP JUMP JUMPDEST PUSH32 0x3C757365206865696768743D273634272077696474683D273634272068726566 PUSH0 DUP3 ADD MSTORE PUSH32 0x3D2723732720783D272D00000000000000000000000000000000000000000000 PUSH1 0x20 DUP3 ADD MSTORE POP JUMP JUMPDEST PUSH0 PUSH2 0x29C7 PUSH1 0x2A DUP4 PUSH2 0x1B96 JUMP JUMPDEST SWAP2 POP PUSH2 0x29D2 DUP3 PUSH2 0x296D JUMP JUMPDEST PUSH1 0x2A DUP3 ADD SWAP1 POP SWAP2 SWAP1 POP JUMP JUMPDEST PUSH32 0x2720793D272D0000000000000000000000000000000000000000000000000000 PUSH0 DUP3 ADD MSTORE POP JUMP JUMPDEST PUSH0 PUSH2 0x2A11 PUSH1 0x6 DUP4 PUSH2 0x1B96 JUMP JUMPDEST SWAP2 POP PUSH2 0x2A1C DUP3 PUSH2 0x29DD JUMP JUMPDEST PUSH1 0x6 DUP3 ADD SWAP1 POP SWAP2 SWAP1 POP JUMP JUMPDEST PUSH0 PUSH2 0x2A31 DUP3 PUSH2 0x29BB JUMP JUMPDEST SWAP2 POP PUSH2 0x2A3D DUP3 DUP6 PUSH2 0x1BEA JUMP JUMPDEST SWAP2 POP PUSH2 0x2A48 DUP3 PUSH2 0x2A05 JUMP JUMPDEST SWAP2 POP PUSH2 0x2A54 DUP3 DUP5 PUSH2 0x1BEA JUMP JUMPDEST SWAP2 POP PUSH2 0x2A5F DUP3 PUSH2 0x278E JUMP JUMPDEST SWAP2 POP DUP2 SWAP1 POP SWAP4 SWAP3 POP POP POP JUMP JUMPDEST PUSH32 0x3C7376672076657273696F6E3D22312E312220786D6C6E733D22687474703A2F PUSH0 DUP3 ADD MSTORE PUSH32 0x2F7777772E77332E6F72672F323030302F737667222076696577426F783D2230 PUSH1 0x20 DUP3 ADD MSTORE PUSH32 0x203020363420363422206865696768743D22363430222077696474683D223634 PUSH1 0x40 DUP3 ADD MSTORE PUSH32 0x30223E3C646566733E3C696D616765206865696768743D223130323422207769 PUSH1 0x60 DUP3 ADD MSTORE PUSH32 0x6474683D223139322220696D6167652D72656E646572696E673D22706978656C PUSH1 0x80 DUP3 ADD MSTORE PUSH32 0x61746564222069643D22732220687265663D22646174613A696D6167652F706E PUSH1 0xA0 DUP3 ADD MSTORE PUSH32 0x673B6261736536342C0000000000000000000000000000000000000000000000 PUSH1 0xC0 DUP3 ADD MSTORE POP JUMP JUMPDEST PUSH0 PUSH2 0x2B83 PUSH1 0xC9 DUP4 PUSH2 0x1B96 JUMP JUMPDEST SWAP2 POP PUSH2 0x2B8E DUP3 PUSH2 0x2A6B JUMP JUMPDEST PUSH1 0xC9 DUP3 ADD SWAP1 POP SWAP2 SWAP1 POP JUMP JUMPDEST PUSH32 0x22202F3E3C636C6970506174682069643D2263223E3C72656374207769647468 PUSH0 DUP3 ADD MSTORE PUSH32 0x3D22363422206865696768743D22363422202F3E3C2F636C6970506174683E3C PUSH1 0x20 DUP3 ADD MSTORE PUSH32 0x2F646566733E3C6720636C69702D706174683D2275726C28236329223E000000 PUSH1 0x40 DUP3 ADD MSTORE POP JUMP JUMPDEST PUSH0 PUSH2 0x2C19 PUSH1 0x5D DUP4 PUSH2 0x1B96 JUMP JUMPDEST SWAP2 POP PUSH2 0x2C24 DUP3 PUSH2 0x2B99 JUMP JUMPDEST PUSH1 0x5D DUP3 ADD SWAP1 POP SWAP2 SWAP1 POP JUMP JUMPDEST PUSH0 PUSH2 0x2C39 DUP3 PUSH2 0x2B77 JUMP JUMPDEST SWAP2 POP PUSH2 0x2C45 DUP3 DUP5 PUSH2 0x1BEA JUMP JUMPDEST SWAP2 POP PUSH2 0x2C50 DUP3 PUSH2 0x2C0D JUMP JUMPDEST SWAP2 POP DUP2 SWAP1 POP SWAP3 SWAP2 POP POP JUMP INVALID COINBASE TIMESTAMP NUMBER PREVRANDAO GASLIMIT CHAINID SELFBALANCE BASEFEE BLOBHASH BLOBBASEFEE 0x4B 0x4C 0x4D 0x4E 0x4F POP MLOAD MSTORE MSTORE8 SLOAD SSTORE JUMP JUMPI PC MSIZE GAS PUSH2 0x6263 PUSH5 0x6566676869 PUSH11 0x6B6C6D6E6F707172737475 PUSH23 0x7778797A303132333435363738392B2FA2646970667358 0x22 SLT KECCAK256 0xBF ISZERO 0xAE OR DUP13 0x4B PUSH11 0x9CEE0171CCB83807B8ED53 PUSH22 0x5D4E19C948A9714E236E91062A64736F6C634300081A STOP CALLER BALANCE ADDRESS ADDRESS ADDRESS KECCAK256 PUSH3 0x617365 PUSH5 0x2050657065 PUSH20 0x206C6976696E67206F6E2048616D20436861696E KECCAK256 0x4C CALLER "
		},
		"gasEstimates": {
			"creation": {
				"codeDepositCost": "2294600",
				"executionCost": "infinite",
				"totalCost": "infinite"
			},
			"external": {
				"getJsonString(uint256,bytes32)": "infinite",
				"getJsonUri(uint256,bytes32)": "infinite",
				"getSvg(bytes32)": "infinite",
				"getSvgDataUri(bytes32)": "infinite",
				"getTraits(bytes32)": "infinite",
				"getTraitsImage()": "infinite",
				"owner()": "2527",
				"setTraitsImage(string)": "infinite",
				"traitsImagePointer()": "2596",
				"transferOwnership(address)": "28535",
				"updateDescription(string)": "infinite"
			},
			"internal": {
				"_getPart(uint256)": "infinite",
				"_getSvg(uint256[7] memory)": "infinite",
				"_getSvgDataUri(uint256[7] memory)": "infinite",
				"_getTraitMetadata(uint256[7] memory)": "infinite",
				"_getTraitString(string memory,string memory)": "infinite",
				"_getUseString(uint256,uint256)": "infinite",
				"_r(uint256,uint256,uint256)": "infinite",
				"_svgStart()": "infinite"
			}
		},
		"methodIdentifiers": {
			"getJsonString(uint256,bytes32)": "456c851e",
			"getJsonUri(uint256,bytes32)": "c649c9a8",
			"getSvg(bytes32)": "866ec8cc",
			"getSvgDataUri(bytes32)": "12a4cd7a",
			"getTraits(bytes32)": "826590e5",
			"getTraitsImage()": "374db538",
			"owner()": "8da5cb5b",
			"setTraitsImage(string)": "7e78f28b",
			"traitsImagePointer()": "e9da00f2",
			"transferOwnership(address)": "f2fde38b",
			"updateDescription(string)": "e735b48a"
		}
	},
	"abi": [
		{
			"inputs": [
				{
					"internalType": "contract HamPepeTraits",
					"name": "_traitsMetaData",
					"type": "address"
				}
			],
			"stateMutability": "nonpayable",
			"type": "constructor"
		},
		{
			"inputs": [],
			"name": "TraitsImageAlreadySet",
			"type": "error"
		},
		{
			"anonymous": false,
			"inputs": [
				{
					"indexed": true,
					"internalType": "address",
					"name": "user",
					"type": "address"
				},
				{
					"indexed": true,
					"internalType": "address",
					"name": "newOwner",
					"type": "address"
				}
			],
			"name": "OwnershipTransferred",
			"type": "event"
		},
		{
			"inputs": [
				{
					"internalType": "uint256",
					"name": "tokenId",
					"type": "uint256"
				},
				{
					"internalType": "bytes32",
					"name": "seed",
					"type": "bytes32"
				}
			],
			"name": "getJsonString",
			"outputs": [
				{
					"internalType": "string",
					"name": "",
					"type": "string"
				}
			],
			"stateMutability": "view",
			"type": "function"
		},
		{
			"inputs": [
				{
					"internalType": "uint256",
					"name": "tokenId",
					"type": "uint256"
				},
				{
					"internalType": "bytes32",
					"name": "seed",
					"type": "bytes32"
				}
			],
			"name": "getJsonUri",
			"outputs": [
				{
					"internalType": "string",
					"name": "",
					"type": "string"
				}
			],
			"stateMutability": "view",
			"type": "function"
		},
		{
			"inputs": [
				{
					"internalType": "bytes32",
					"name": "_seed",
					"type": "bytes32"
				}
			],
			"name": "getSvg",
			"outputs": [
				{
					"internalType": "string",
					"name": "",
					"type": "string"
				}
			],
			"stateMutability": "view",
			"type": "function"
		},
		{
			"inputs": [
				{
					"internalType": "bytes32",
					"name": "seed",
					"type": "bytes32"
				}
			],
			"name": "getSvgDataUri",
			"outputs": [
				{
					"internalType": "string",
					"name": "",
					"type": "string"
				}
			],
			"stateMutability": "view",
			"type": "function"
		},
		{
			"inputs": [
				{
					"internalType": "bytes32",
					"name": "_seed",
					"type": "bytes32"
				}
			],
			"name": "getTraits",
			"outputs": [
				{
					"internalType": "uint256[7]",
					"name": "traits",
					"type": "uint256[7]"
				}
			],
			"stateMutability": "pure",
			"type": "function"
		},
		{
			"inputs": [],
			"name": "getTraitsImage",
			"outputs": [
				{
					"internalType": "string",
					"name": "",
					"type": "string"
				}
			],
			"stateMutability": "view",
			"type": "function"
		},
		{
			"inputs": [],
			"name": "owner",
			"outputs": [
				{
					"internalType": "address",
					"name": "",
					"type": "address"
				}
			],
			"stateMutability": "view",
			"type": "function"
		},
		{
			"inputs": [
				{
					"internalType": "string",
					"name": "data",
					"type": "string"
				}
			],
			"name": "setTraitsImage",
			"outputs": [],
			"stateMutability": "nonpayable",
			"type": "function"
		},
		{
			"inputs": [],
			"name": "traitsImagePointer",
			"outputs": [
				{
					"internalType": "address",
					"name": "",
					"type": "address"
				}
			],
			"stateMutability": "view",
			"type": "function"
		},
		{
			"inputs": [
				{
					"internalType": "address",
					"name": "newOwner",
					"type": "address"
				}
			],
			"name": "transferOwnership",
			"outputs": [],
			"stateMutability": "nonpayable",
			"type": "function"
		},
		{
			"inputs": [
				{
					"internalType": "string",
					"name": "d",
					"type": "string"
				}
			],
			"name": "updateDescription",
			"outputs": [],
			"stateMutability": "nonpayable",
			"type": "function"
		}
	]
}