{
	"data": {
		"bytecode": {
			"linkReferences": {},
			"object": "60806040526040518060600160405280602781526020016131c9602791396003908161002b9190610374565b50348015610037575f80fd5b506040516131f03803806131f0833981810160405281019061005991906104b2565b33805f806101000a81548173ffffffffffffffffffffffffffffffffffffffff021916908373ffffffffffffffffffffffffffffffffffffffff1602179055508073ffffffffffffffffffffffffffffffffffffffff165f73ffffffffffffffffffffffffffffffffffffffff167f8be0079c531659141344cd1fd0a4f28419497f9722a3daafe3b4186f6b6457e060405160405180910390a3508060015f6101000a81548173ffffffffffffffffffffffffffffffffffffffff021916908373ffffffffffffffffffffffffffffffffffffffff160217905550506104dd565b5f81519050919050565b7f4e487b71000000000000000000000000000000000000000000000000000000005f52604160045260245ffd5b7f4e487b71000000000000000000000000000000000000000000000000000000005f52602260045260245ffd5b5f60028204905060018216806101b557607f821691505b6020821081036101c8576101c7610171565b5b50919050565b5f819050815f5260205f209050919050565b5f6020601f8301049050919050565b5f82821b905092915050565b5f6008830261022a7fffffffffffffffffffffffffffffffffffffffffffffffffffffffffffffffff826101ef565b61023486836101ef565b95508019841693508086168417925050509392505050565b5f819050919050565b5f819050919050565b5f61027861027361026e8461024c565b610255565b61024c565b9050919050565b5f819050919050565b6102918361025e565b6102a561029d8261027f565b8484546101fb565b825550505050565b5f90565b6102b96102ad565b6102c4818484610288565b505050565b5b818110156102e7576102dc5f826102b1565b6001810190506102ca565b5050565b601f82111561032c576102fd816101ce565b610306846101e0565b81016020851015610315578190505b610329610321856101e0565b8301826102c9565b50505b505050565b5f82821c905092915050565b5f61034c5f1984600802610331565b1980831691505092915050565b5f610364838361033d565b9150826002028217905092915050565b61037d8261013a565b67ffffffffffffffff81111561039657610395610144565b5b6103a0825461019e565b6103ab8282856102eb565b5f60209050601f8311600181146103dc575f84156103ca578287015190505b6103d48582610359565b86555061043b565b601f1984166103ea866101ce565b5f5b82811015610411578489015182556001820191506020850194506020810190506103ec565b8683101561042e578489015161042a601f89168261033d565b8355505b6001600288020188555050505b505050505050565b5f80fd5b5f73ffffffffffffffffffffffffffffffffffffffff82169050919050565b5f61047082610447565b9050919050565b5f61048182610466565b9050919050565b61049181610477565b811461049b575f80fd5b50565b5f815190506104ac81610488565b92915050565b5f602082840312156104c7576104c6610443565b5b5f6104d48482850161049e565b91505092915050565b612cdf806104ea5f395ff3fe608060405234801561000f575f80fd5b50600436106100a7575f3560e01c8063866ec8cc1161006f578063866ec8cc146101755780638da5cb5b146101a5578063c649c9a8146101c3578063e735b48a146101f3578063e9da00f21461020f578063f2fde38b1461022d576100a7565b806312a4cd7a146100ab578063374db538146100db578063456c851e146100f95780637e78f28b14610129578063826590e514610145575b5f80fd5b6100c560048036038101906100c091906116f2565b610249565b6040516100d2919061178d565b60405180910390f35b6100e3610282565b6040516100f0919061178d565b60405180910390f35b610113600480360381019061010e91906117e0565b6102b3565b604051610120919061178d565b60405180910390f35b610143600480360381019061013e919061187f565b610309565b005b61015f600480360381019061015a91906116f2565b6104ab565b60405161016c919061196f565b60405180910390f35b61018f600480360381019061018a91906116f2565b6106c9565b60405161019c919061178d565b60405180910390f35b6101ad6106e8565b6040516101ba91906119c7565b60405180910390f35b6101dd60048036038101906101d891906117e0565b61070b565b6040516101ea919061178d565b60405180910390f35b61020d60048036038101906102089190611b08565b610746565b005b6102176107e6565b60405161022491906119c7565b60405180910390f35b61024760048036038101906102429190611b79565b61080b565b005b606061025c610257836106c9565b610934565b60405160200161026c9190611c28565b6040516020818303038152906040529050919050565b60606102ae60025f9054906101000a900473ffffffffffffffffffffffffffffffffffffffff16610ac4565b905090565b60605f6102bf836104ab565b90506102ca84610afb565b60036102d583610b4a565b6102de84610b83565b6040516020016102f19493929190611ef4565b60405160208183030381529060405291505092915050565b5f8054906101000a900473ffffffffffffffffffffffffffffffffffffffff1673ffffffffffffffffffffffffffffffffffffffff163373ffffffffffffffffffffffffffffffffffffffff1614610396576040517f08c379a000000000000000000000000000000000000000000000000000000000815260040161038d90611fbd565b60405180910390fd5b5f73ffffffffffffffffffffffffffffffffffffffff1660025f9054906101000a900473ffffffffffffffffffffffffffffffffffffffff1673ffffffffffffffffffffffffffffffffffffffff161461041c576040517fe48ea9d000000000000000000000000000000000000000000000000000000000815260040160405180910390fd5b61046882828080601f0160208091040260200160405190810160405280939291908181526020018383808284375f81840152601f19601f820116905080830192505050505050506112d8565b60025f6101000a81548173ffffffffffffffffffffffffffffffffffffffff021916908373ffffffffffffffffffffffffffffffffffffffff1602179055505050565b6104b3611665565b5f825f1c90505f604051806101400160405280601084901c61ffff168152602001602084901c61ffff168152602001603084901c61ffff168152602001604084901c61ffff168152602001605084901c61ffff168152602001606084901c61ffff168152602001607084901c61ffff168152602001608084901c61ffff168152602001609084901c61ffff16815260200160a084901c61ffff1681525090505f604b61056683606001516001606461139e565b111590506040518060e001604052806028610587855f01516001606461139e565b1115610593575f6105a4565b6105a3845f01516001600361139e565b5b8152602001600a6105bc85602001516001606461139e565b11156105d8576105d384602001516004600a61139e565b6105da565b5f5b8152602001600f6105f285604001516001606461139e565b111561060e576106098460400151600b601661139e565b610610565b5f5b815260200182610620575f610632565b61063184606001516017601e61139e565b5b81526020018280156106555750605561065285608001516001606461139e565b11155b61065f575f610671565b6106708460800151601f602f61139e565b5b815260200160146106898560a001516001606461139e565b11156106a5576106a08460a001516030603561139e565b6106a7565b5f5b81526020016106bc8460c001515f600561139e565b8152509350505050919050565b60605f6106d5836104ab565b90506106e0816113d6565b915050919050565b5f8054906101000a900473ffffffffffffffffffffffffffffffffffffffff1681565b606061071f61071a84846102b3565b610934565b60405160200161072f9190612025565b604051602081830303815290604052905092915050565b5f8054906101000a900473ffffffffffffffffffffffffffffffffffffffff1673ffffffffffffffffffffffffffffffffffffffff163373ffffffffffffffffffffffffffffffffffffffff16146107d3576040517f08c379a00000000000000000000000000000000000000000000000000000000081526004016107ca90611fbd565b60405180910390fd5b80600390816107e291906121d1565b5050565b60025f9054906101000a900473ffffffffffffffffffffffffffffffffffffffff1681565b5f8054906101000a900473ffffffffffffffffffffffffffffffffffffffff1673ffffffffffffffffffffffffffffffffffffffff163373ffffffffffffffffffffffffffffffffffffffff1614610898576040517f08c379a000000000000000000000000000000000000000000000000000000000815260040161088f90611fbd565b60405180910390fd5b805f806101000a81548173ffffffffffffffffffffffffffffffffffffffff021916908373ffffffffffffffffffffffffffffffffffffffff1602179055508073ffffffffffffffffffffffffffffffffffffffff163373ffffffffffffffffffffffffffffffffffffffff167f8be0079c531659141344cd1fd0a4f28419497f9722a3daafe3b4186f6b6457e060405160405180910390a350565b60605f825190505f81036109595760405180602001604052805f815250915050610abf565b5f600360028361096991906122cd565b610973919061232d565b600461097f919061235d565b90505f60208261098f91906122cd565b67ffffffffffffffff8111156109a8576109a76119e4565b5b6040519080825280601f01601f1916602001820160405280156109da5781602001600182028036833780820191505090505b5090505f604051806060016040528060408152602001612c6a60409139905060018101602083015f5b86811015610a7c5760038101905062ffffff818a015116603f8160121c168401518060081b905060ff603f83600c1c1686015116810190508060081b905060ff603f8360061c1686015116810190508060081b905060ff603f831686015116810190508060e01b90508084526004840193505050610a03565b506003860660018114610a965760028114610aa657610ab1565b613d3d60f01b6002830352610ab1565b603d60f81b60018303525b508484525050819450505050505b919050565b6060610af4826001808573ffffffffffffffffffffffffffffffffffffffff163b610aef919061239e565b611559565b9050919050565b606060a060405101806040526020810391505f825281835b600115610b3557600184039350600a81066030018453600a8104905080610b13575b50828103602084039350808452505050919050565b6060610b5d610b58836113d6565b610934565b604051602001610b6d9190611c28565b6040516020818303038152906040529050919050565b6060610b8d611687565b5f5b6007811015611202575f848260078110610bac57610bab6123d1565b5b602002015190505f82148015610bc257505f8114155b15610cbd57610ca16040518060400160405280600481526020017f536b696e0000000000000000000000000000000000000000000000000000000081525060015f9054906101000a900473ffffffffffffffffffffffffffffffffffffffff1673ffffffffffffffffffffffffffffffffffffffff166398e4f581846040518263ffffffff1660e01b8152600401610c5a919061240d565b5f60405180830381865afa158015610c74573d5f803e3d5ffd5b505050506040513d5f823e3d601f19601f82011682018060405250810190610c9c9190612494565b611582565b838360068110610cb457610cb36123d1565b5b60200201819052505b600182148015610ccd57505f8114155b15610dc857610dac6040518060400160405280600581526020017f50616e747300000000000000000000000000000000000000000000000000000081525060015f9054906101000a900473ffffffffffffffffffffffffffffffffffffffff1673ffffffffffffffffffffffffffffffffffffffff16634337932d846040518263ffffffff1660e01b8152600401610d65919061240d565b5f60405180830381865afa158015610d7f573d5f803e3d5ffd5b505050506040513d5f823e3d601f19601f82011682018060405250810190610da79190612494565b611582565b838360068110610dbf57610dbe6123d1565b5b60200201819052505b600282148015610dd857505f8114155b15610ed357610eb76040518060400160405280600581526020017f536869727400000000000000000000000000000000000000000000000000000081525060015f9054906101000a900473ffffffffffffffffffffffffffffffffffffffff1673ffffffffffffffffffffffffffffffffffffffff16634c9c05ea846040518263ffffffff1660e01b8152600401610e70919061240d565b5f60405180830381865afa158015610e8a573d5f803e3d5ffd5b505050506040513d5f823e3d601f19601f82011682018060405250810190610eb29190612494565b611582565b838360068110610eca57610ec96123d1565b5b60200201819052505b600382148015610ee357505f8114155b15610fde57610fc26040518060400160405280600481526020017f457965730000000000000000000000000000000000000000000000000000000081525060015f9054906101000a900473ffffffffffffffffffffffffffffffffffffffff1673ffffffffffffffffffffffffffffffffffffffff1663c4d30bfa846040518263ffffffff1660e01b8152600401610f7b919061240d565b5f60405180830381865afa158015610f95573d5f803e3d5ffd5b505050506040513d5f823e3d601f19601f82011682018060405250810190610fbd9190612494565b611582565b838360068110610fd557610fd46123d1565b5b60200201819052505b600482148015610fee57505f8114155b156110e9576110cd6040518060400160405280600381526020017f486174000000000000000000000000000000000000000000000000000000000081525060015f9054906101000a900473ffffffffffffffffffffffffffffffffffffffff1673ffffffffffffffffffffffffffffffffffffffff1663d2571f88846040518263ffffffff1660e01b8152600401611086919061240d565b5f60405180830381865afa1580156110a0573d5f803e3d5ffd5b505050506040513d5f823e3d601f19601f820116820180604052508101906110c89190612494565b611582565b8383600681106110e0576110df6123d1565b5b60200201819052505b6005821480156110f957505f8114155b156111f4576111d86040518060400160405280600781526020017f5370656369616c0000000000000000000000000000000000000000000000000081525060015f9054906101000a900473ffffffffffffffffffffffffffffffffffffffff1673ffffffffffffffffffffffffffffffffffffffff1663e1d916f7846040518263ffffffff1660e01b8152600401611191919061240d565b5f60405180830381865afa1580156111ab573d5f803e3d5ffd5b505050506040513d5f823e3d601f19601f820116820180604052508101906111d39190612494565b611582565b8383600681106111eb576111ea6123d1565b5b60200201819052505b508080600101915050610b8f565b5060605f5b60068110156112cd575f838260068110611224576112236123d1565b5b60200201515111156112c057815f83511161124d5760405180602001604052805f815250611284565b6040518060400160405280600181526020017f2c000000000000000000000000000000000000000000000000000000000000008152505b848360068110611297576112966123d1565b5b60200201516040516020016112ae939291906124db565b60405160208183030381529060405291505b8080600101915050611207565b508092505050919050565b5f80826040516020016112eb9190612579565b60405160208183030381529060405290505f8160405160200161130e91906125e4565b60405160208183030381529060405290508051602082015ff092505f73ffffffffffffffffffffffffffffffffffffffff168373ffffffffffffffffffffffffffffffffffffffff1603611397576040517f08c379a000000000000000000000000000000000000000000000000000000000815260040161138e9061264f565b60405180910390fd5b5050919050565b5f600183836113ad919061239e565b6113b791906122cd565b846113c2919061266d565b836113cd91906122cd565b90509392505050565b60605f6113e35f806115ae565b6040516020016113f391906126c0565b60405160208183030381529060405290505f5b6006811015611472575f848260078110611423576114226123d1565b5b602002015190505f81036114375750611465565b82611441826115ea565b6040516020016114529291906126e1565b6040516020818303038152906040529250505b8080600101915050611406565b5061147b611637565b60015f9054906101000a900473ffffffffffffffffffffffffffffffffffffffff1673ffffffffffffffffffffffffffffffffffffffff1663c76ab940856006600781106114cc576114cb6123d1565b5b60200201516040518263ffffffff1660e01b81526004016114ed919061240d565b5f60405180830381865afa158015611507573d5f803e3d5ffd5b505050506040513d5f823e3d601f19601f8201168201806040525081019061152f9190612494565b8260405160200161154293929190612808565b604051602081830303815290604052915050919050565b60606040519050601f19601f6020840101168101604052818152818360208301863c9392505050565b60608282604051602001611597929190612937565b604051602081830303815290604052905092915050565b60606115b983610afb565b6115c283610afb565b6040516020016115d3929190612a35565b604051602081830303815290604052905092915050565b60605f60406003846115fc919061266d565b611606919061235d565b90505f6040600385611618919061232d565b611622919061235d565b905061162e82826115ae565b92505050919050565b6060611641610282565b6040516020016116519190612c3d565b604051602081830303815290604052905090565b6040518060e00160405280600790602082028036833780820191505090505090565b6040518060c001604052806006905b60608152602001906001900390816116965790505090565b5f604051905090565b5f80fd5b5f80fd5b5f819050919050565b6116d1816116bf565b81146116db575f80fd5b50565b5f813590506116ec816116c8565b92915050565b5f60208284031215611707576117066116b7565b5b5f611714848285016116de565b91505092915050565b5f81519050919050565b5f82825260208201905092915050565b8281835e5f83830152505050565b5f601f19601f8301169050919050565b5f61175f8261171d565b6117698185611727565b9350611779818560208601611737565b61178281611745565b840191505092915050565b5f6020820190508181035f8301526117a58184611755565b905092915050565b5f819050919050565b6117bf816117ad565b81146117c9575f80fd5b50565b5f813590506117da816117b6565b92915050565b5f80604083850312156117f6576117f56116b7565b5b5f611803858286016117cc565b9250506020611814858286016116de565b9150509250929050565b5f80fd5b5f80fd5b5f80fd5b5f8083601f84011261183f5761183e61181e565b5b8235905067ffffffffffffffff81111561185c5761185b611822565b5b60208301915083600182028301111561187857611877611826565b5b9250929050565b5f8060208385031215611895576118946116b7565b5b5f83013567ffffffffffffffff8111156118b2576118b16116bb565b5b6118be8582860161182a565b92509250509250929050565b5f60079050919050565b5f81905092915050565b5f819050919050565b6118f0816117ad565b82525050565b5f61190183836118e7565b60208301905092915050565b5f602082019050919050565b611922816118ca565b61192c81846118d4565b9250611937826118de565b805f5b8381101561196757815161194e87826118f6565b96506119598361190d565b92505060018101905061193a565b505050505050565b5f60e0820190506119825f830184611919565b92915050565b5f73ffffffffffffffffffffffffffffffffffffffff82169050919050565b5f6119b182611988565b9050919050565b6119c1816119a7565b82525050565b5f6020820190506119da5f8301846119b8565b92915050565b5f80fd5b7f4e487b71000000000000000000000000000000000000000000000000000000005f52604160045260245ffd5b611a1a82611745565b810181811067ffffffffffffffff82111715611a3957611a386119e4565b5b80604052505050565b5f611a4b6116ae565b9050611a578282611a11565b919050565b5f67ffffffffffffffff821115611a7657611a756119e4565b5b611a7f82611745565b9050602081019050919050565b828183375f83830152505050565b5f611aac611aa784611a5c565b611a42565b905082815260208101848484011115611ac857611ac76119e0565b5b611ad3848285611a8c565b509392505050565b5f82601f830112611aef57611aee61181e565b5b8135611aff848260208601611a9a565b91505092915050565b5f60208284031215611b1d57611b1c6116b7565b5b5f82013567ffffffffffffffff811115611b3a57611b396116bb565b5b611b4684828501611adb565b91505092915050565b611b58816119a7565b8114611b62575f80fd5b50565b5f81359050611b7381611b4f565b92915050565b5f60208284031215611b8e57611b8d6116b7565b5b5f611b9b84828501611b65565b91505092915050565b5f81905092915050565b7f646174613a696d6167652f7376672b786d6c3b6261736536342c0000000000005f82015250565b5f611be2601a83611ba4565b9150611bed82611bae565b601a82019050919050565b5f611c028261171d565b611c0c8185611ba4565b9350611c1c818560208601611737565b80840191505092915050565b5f611c3282611bd6565b9150611c3e8284611bf8565b915081905092915050565b7f7b226e616d65223a202248616d205065706520230000000000000000000000005f82015250565b5f611c7d601483611ba4565b9150611c8882611c49565b601482019050919050565b7f222c20226465736372697074696f6e223a2022000000000000000000000000005f82015250565b5f611cc7601383611ba4565b9150611cd282611c93565b601382019050919050565b7f4e487b71000000000000000000000000000000000000000000000000000000005f52602260045260245ffd5b5f6002820490506001821680611d2157607f821691505b602082108103611d3457611d33611cdd565b5b50919050565b5f819050815f5260205f209050919050565b5f8154611d5881611d0a565b611d628186611ba4565b9450600182165f8114611d7c5760018114611d9157611dc3565b60ff1983168652811515820286019350611dc3565b611d9a85611d3a565b5f5b83811015611dbb57815481890152600182019150602081019050611d9c565b838801955050505b50505092915050565b7f222c0000000000000000000000000000000000000000000000000000000000005f82015250565b5f611e00600283611ba4565b9150611e0b82611dcc565b600282019050919050565b7f22696d616765223a2200000000000000000000000000000000000000000000005f82015250565b5f611e4a600983611ba4565b9150611e5582611e16565b600982019050919050565b7f222c2261747472696275746573223a5b000000000000000000000000000000005f82015250565b5f611e94601083611ba4565b9150611e9f82611e60565b601082019050919050565b7f5d7d0000000000000000000000000000000000000000000000000000000000005f82015250565b5f611ede600283611ba4565b9150611ee982611eaa565b600282019050919050565b5f611efe82611c71565b9150611f0a8287611bf8565b9150611f1582611cbb565b9150611f218286611d4c565b9150611f2c82611df4565b9150611f3782611e3e565b9150611f438285611bf8565b9150611f4e82611e88565b9150611f5a8284611bf8565b9150611f6582611ed2565b915081905095945050505050565b7f554e415554484f52495a454400000000000000000000000000000000000000005f82015250565b5f611fa7600c83611727565b9150611fb282611f73565b602082019050919050565b5f6020820190508181035f830152611fd481611f9b565b9050919050565b7f646174613a6170706c69636174696f6e2f6a736f6e3b6261736536342c0000005f82015250565b5f61200f601d83611ba4565b915061201a82611fdb565b601d82019050919050565b5f61202f82612003565b915061203b8284611bf8565b915081905092915050565b5f6020601f8301049050919050565b5f82821b905092915050565b5f600883026120907fffffffffffffffffffffffffffffffffffffffffffffffffffffffffffffffff82612055565b61209a8683612055565b95508019841693508086168417925050509392505050565b5f819050919050565b5f6120d56120d06120cb846117ad565b6120b2565b6117ad565b9050919050565b5f819050919050565b6120ee836120bb565b6121026120fa826120dc565b848454612061565b825550505050565b5f90565b61211661210a565b6121218184846120e5565b505050565b5b81811015612144576121395f8261210e565b600181019050612127565b5050565b601f8211156121895761215a81611d3a565b61216384612046565b81016020851015612172578190505b61218661217e85612046565b830182612126565b50505b505050565b5f82821c905092915050565b5f6121a95f198460080261218e565b1980831691505092915050565b5f6121c1838361219a565b9150826002028217905092915050565b6121da8261171d565b67ffffffffffffffff8111156121f3576121f26119e4565b5b6121fd8254611d0a565b612208828285612148565b5f60209050601f831160018114612239575f8415612227578287015190505b61223185826121b6565b865550612298565b601f19841661224786611d3a565b5f5b8281101561226e57848901518255600182019150602085019450602081019050612249565b8683101561228b5784890151612287601f89168261219a565b8355505b6001600288020188555050505b505050505050565b7f4e487b71000000000000000000000000000000000000000000000000000000005f52601160045260245ffd5b5f6122d7826117ad565b91506122e2836117ad565b92508282019050808211156122fa576122f96122a0565b5b92915050565b7f4e487b71000000000000000000000000000000000000000000000000000000005f52601260045260245ffd5b5f612337826117ad565b9150612342836117ad565b92508261235257612351612300565b5b828204905092915050565b5f612367826117ad565b9150612372836117ad565b9250828202612380816117ad565b91508282048414831517612397576123966122a0565b5b5092915050565b5f6123a8826117ad565b91506123b3836117ad565b92508282039050818111156123cb576123ca6122a0565b5b92915050565b7f4e487b71000000000000000000000000000000000000000000000000000000005f52603260045260245ffd5b612407816117ad565b82525050565b5f6020820190506124205f8301846123fe565b92915050565b5f61243861243384611a5c565b611a42565b905082815260208101848484011115612454576124536119e0565b5b61245f848285611737565b509392505050565b5f82601f83011261247b5761247a61181e565b5b815161248b848260208601612426565b91505092915050565b5f602082840312156124a9576124a86116b7565b5b5f82015167ffffffffffffffff8111156124c6576124c56116bb565b5b6124d284828501612467565b91505092915050565b5f6124e68286611bf8565b91506124f28285611bf8565b91506124fe8284611bf8565b9150819050949350505050565b5f8082015250565b5f61251f600183611ba4565b915061252a8261250b565b600182019050919050565b5f81519050919050565b5f81905092915050565b5f61255382612535565b61255d818561253f565b935061256d818560208601611737565b80840191505092915050565b5f61258382612513565b915061258f8284612549565b915081905092915050565b7f600b5981380380925939f30000000000000000000000000000000000000000005f82015250565b5f6125ce600b83611ba4565b91506125d98261259a565b600b82019050919050565b5f6125ee826125c2565b91506125fa8284612549565b915081905092915050565b7f4445504c4f594d454e545f4641494c45440000000000000000000000000000005f82015250565b5f612639601183611727565b915061264482612605565b602082019050919050565b5f6020820190508181035f8301526126668161262d565b9050919050565b5f612677826117ad565b9150612682836117ad565b92508261269257612691612300565b5b828206905092915050565b50565b5f6126ab5f83611ba4565b91506126b68261269d565b5f82019050919050565b5f6126ca826126a0565b91506126d68284611bf8565b915081905092915050565b5f6126ec8285611bf8565b91506126f88284611bf8565b91508190509392505050565b7f3c726563742077696474683d27363427206865696768743d273634272066696c5f8201527f6c3d270000000000000000000000000000000000000000000000000000000000602082015250565b5f61275e602383611ba4565b915061276982612704565b602382019050919050565b7f27202f3e000000000000000000000000000000000000000000000000000000005f82015250565b5f6127a8600483611ba4565b91506127b382612774565b600482019050919050565b7f3c2f673e3c2f7376673e000000000000000000000000000000000000000000005f82015250565b5f6127f2600a83611ba4565b91506127fd826127be565b600a82019050919050565b5f6128138286611bf8565b915061281e82612752565b915061282a8285611bf8565b91506128358261279c565b91506128418284611bf8565b915061284c826127e6565b9150819050949350505050565b7f7b2274726169745f74797065223a2200000000000000000000000000000000005f82015250565b5f61288d600f83611ba4565b915061289882612859565b600f82019050919050565b7f222c2276616c7565223a220000000000000000000000000000000000000000005f82015250565b5f6128d7600b83611ba4565b91506128e2826128a3565b600b82019050919050565b7f227d0000000000000000000000000000000000000000000000000000000000005f82015250565b5f612921600283611ba4565b915061292c826128ed565b600282019050919050565b5f61294182612881565b915061294d8285611bf8565b9150612958826128cb565b91506129648284611bf8565b915061296f82612915565b91508190509392505050565b7f3c757365206865696768743d273634272077696474683d2736342720687265665f8201527f3d2723732720783d272d00000000000000000000000000000000000000000000602082015250565b5f6129d5602a83611ba4565b91506129e08261297b565b602a82019050919050565b7f2720793d272d00000000000000000000000000000000000000000000000000005f82015250565b5f612a1f600683611ba4565b9150612a2a826129eb565b600682019050919050565b5f612a3f826129c9565b9150612a4b8285611bf8565b9150612a5682612a13565b9150612a628284611bf8565b9150612a6d8261279c565b91508190509392505050565b7f3c7376672076657273696f6e3d22312e312220786d6c6e733d22687474703a2f5f8201527f2f7777772e77332e6f72672f323030302f737667222076696577426f783d223060208201527f203020363420363422206865696768743d22363430222077696474683d22363460408201527f30223e3c646566733e3c696d616765206865696768743d22313135322220776960608201527f6474683d223139322220696d6167652d72656e646572696e673d22706978656c60808201527f61746564222069643d22732220687265663d22646174613a696d6167652f706e60a08201527f673b6261736536342c000000000000000000000000000000000000000000000060c082015250565b5f612b9160c983611ba4565b9150612b9c82612a79565b60c982019050919050565b7f22202f3e3c636c6970506174682069643d2263223e3c726563742077696474685f8201527f3d22363422206865696768743d22363422202f3e3c2f636c6970506174683e3c60208201527f2f646566733e3c6720636c69702d706174683d2275726c28236329223e000000604082015250565b5f612c27605d83611ba4565b9150612c3282612ba7565b605d82019050919050565b5f612c4782612b85565b9150612c538284611bf8565b9150612c5e82612c1b565b91508190509291505056fe4142434445464748494a4b4c4d4e4f505152535455565758595a6162636465666768696a6b6c6d6e6f707172737475767778797a303132333435363738392b2fa26469706673582212204e52131fd5cd714b5b89a5f13089bfa76807d95c8da9c2924ea59f36a127367b64736f6c634300081a003331303030206261736564205065706573206c6976696e67206f6e2048616d20436861696e204c33",
			"opcodes": "PUSH1 0x80 PUSH1 0x40 MSTORE PUSH1 0x40 MLOAD DUP1 PUSH1 0x60 ADD PUSH1 0x40 MSTORE DUP1 PUSH1 0x27 DUP2 MSTORE PUSH1 0x20 ADD PUSH2 0x31C9 PUSH1 0x27 SWAP2 CODECOPY PUSH1 0x3 SWAP1 DUP2 PUSH2 0x2B SWAP2 SWAP1 PUSH2 0x374 JUMP JUMPDEST POP CALLVALUE DUP1 ISZERO PUSH2 0x37 JUMPI PUSH0 DUP1 REVERT JUMPDEST POP PUSH1 0x40 MLOAD PUSH2 0x31F0 CODESIZE SUB DUP1 PUSH2 0x31F0 DUP4 CODECOPY DUP2 DUP2 ADD PUSH1 0x40 MSTORE DUP2 ADD SWAP1 PUSH2 0x59 SWAP2 SWAP1 PUSH2 0x4B2 JUMP JUMPDEST CALLER DUP1 PUSH0 DUP1 PUSH2 0x100 EXP DUP2 SLOAD DUP2 PUSH20 0xFFFFFFFFFFFFFFFFFFFFFFFFFFFFFFFFFFFFFFFF MUL NOT AND SWAP1 DUP4 PUSH20 0xFFFFFFFFFFFFFFFFFFFFFFFFFFFFFFFFFFFFFFFF AND MUL OR SWAP1 SSTORE POP DUP1 PUSH20 0xFFFFFFFFFFFFFFFFFFFFFFFFFFFFFFFFFFFFFFFF AND PUSH0 PUSH20 0xFFFFFFFFFFFFFFFFFFFFFFFFFFFFFFFFFFFFFFFF AND PUSH32 0x8BE0079C531659141344CD1FD0A4F28419497F9722A3DAAFE3B4186F6B6457E0 PUSH1 0x40 MLOAD PUSH1 0x40 MLOAD DUP1 SWAP2 SUB SWAP1 LOG3 POP DUP1 PUSH1 0x1 PUSH0 PUSH2 0x100 EXP DUP2 SLOAD DUP2 PUSH20 0xFFFFFFFFFFFFFFFFFFFFFFFFFFFFFFFFFFFFFFFF MUL NOT AND SWAP1 DUP4 PUSH20 0xFFFFFFFFFFFFFFFFFFFFFFFFFFFFFFFFFFFFFFFF AND MUL OR SWAP1 SSTORE POP POP PUSH2 0x4DD JUMP JUMPDEST PUSH0 DUP2 MLOAD SWAP1 POP SWAP2 SWAP1 POP JUMP JUMPDEST PUSH32 0x4E487B7100000000000000000000000000000000000000000000000000000000 PUSH0 MSTORE PUSH1 0x41 PUSH1 0x4 MSTORE PUSH1 0x24 PUSH0 REVERT JUMPDEST PUSH32 0x4E487B7100000000000000000000000000000000000000000000000000000000 PUSH0 MSTORE PUSH1 0x22 PUSH1 0x4 MSTORE PUSH1 0x24 PUSH0 REVERT JUMPDEST PUSH0 PUSH1 0x2 DUP3 DIV SWAP1 POP PUSH1 0x1 DUP3 AND DUP1 PUSH2 0x1B5 JUMPI PUSH1 0x7F DUP3 AND SWAP2 POP JUMPDEST PUSH1 0x20 DUP3 LT DUP2 SUB PUSH2 0x1C8 JUMPI PUSH2 0x1C7 PUSH2 0x171 JUMP JUMPDEST JUMPDEST POP SWAP2 SWAP1 POP JUMP JUMPDEST PUSH0 DUP2 SWAP1 POP DUP2 PUSH0 MSTORE PUSH1 0x20 PUSH0 KECCAK256 SWAP1 POP SWAP2 SWAP1 POP JUMP JUMPDEST PUSH0 PUSH1 0x20 PUSH1 0x1F DUP4 ADD DIV SWAP1 POP SWAP2 SWAP1 POP JUMP JUMPDEST PUSH0 DUP3 DUP3 SHL SWAP1 POP SWAP3 SWAP2 POP POP JUMP JUMPDEST PUSH0 PUSH1 0x8 DUP4 MUL PUSH2 0x22A PUSH32 0xFFFFFFFFFFFFFFFFFFFFFFFFFFFFFFFFFFFFFFFFFFFFFFFFFFFFFFFFFFFFFFFF DUP3 PUSH2 0x1EF JUMP JUMPDEST PUSH2 0x234 DUP7 DUP4 PUSH2 0x1EF JUMP JUMPDEST SWAP6 POP DUP1 NOT DUP5 AND SWAP4 POP DUP1 DUP7 AND DUP5 OR SWAP3 POP POP POP SWAP4 SWAP3 POP POP POP JUMP JUMPDEST PUSH0 DUP2 SWAP1 POP SWAP2 SWAP1 POP JUMP JUMPDEST PUSH0 DUP2 SWAP1 POP SWAP2 SWAP1 POP JUMP JUMPDEST PUSH0 PUSH2 0x278 PUSH2 0x273 PUSH2 0x26E DUP5 PUSH2 0x24C JUMP JUMPDEST PUSH2 0x255 JUMP JUMPDEST PUSH2 0x24C JUMP JUMPDEST SWAP1 POP SWAP2 SWAP1 POP JUMP JUMPDEST PUSH0 DUP2 SWAP1 POP SWAP2 SWAP1 POP JUMP JUMPDEST PUSH2 0x291 DUP4 PUSH2 0x25E JUMP JUMPDEST PUSH2 0x2A5 PUSH2 0x29D DUP3 PUSH2 0x27F JUMP JUMPDEST DUP5 DUP5 SLOAD PUSH2 0x1FB JUMP JUMPDEST DUP3 SSTORE POP POP POP POP JUMP JUMPDEST PUSH0 SWAP1 JUMP JUMPDEST PUSH2 0x2B9 PUSH2 0x2AD JUMP JUMPDEST PUSH2 0x2C4 DUP2 DUP5 DUP5 PUSH2 0x288 JUMP JUMPDEST POP POP POP JUMP JUMPDEST JUMPDEST DUP2 DUP2 LT ISZERO PUSH2 0x2E7 JUMPI PUSH2 0x2DC PUSH0 DUP3 PUSH2 0x2B1 JUMP JUMPDEST PUSH1 0x1 DUP2 ADD SWAP1 POP PUSH2 0x2CA JUMP JUMPDEST POP POP JUMP JUMPDEST PUSH1 0x1F DUP3 GT ISZERO PUSH2 0x32C JUMPI PUSH2 0x2FD DUP2 PUSH2 0x1CE JUMP JUMPDEST PUSH2 0x306 DUP5 PUSH2 0x1E0 JUMP JUMPDEST DUP2 ADD PUSH1 0x20 DUP6 LT ISZERO PUSH2 0x315 JUMPI DUP2 SWAP1 POP JUMPDEST PUSH2 0x329 PUSH2 0x321 DUP6 PUSH2 0x1E0 JUMP JUMPDEST DUP4 ADD DUP3 PUSH2 0x2C9 JUMP JUMPDEST POP POP JUMPDEST POP POP POP JUMP JUMPDEST PUSH0 DUP3 DUP3 SHR SWAP1 POP SWAP3 SWAP2 POP POP JUMP JUMPDEST PUSH0 PUSH2 0x34C PUSH0 NOT DUP5 PUSH1 0x8 MUL PUSH2 0x331 JUMP JUMPDEST NOT DUP1 DUP4 AND SWAP2 POP POP SWAP3 SWAP2 POP POP JUMP JUMPDEST PUSH0 PUSH2 0x364 DUP4 DUP4 PUSH2 0x33D JUMP JUMPDEST SWAP2 POP DUP3 PUSH1 0x2 MUL DUP3 OR SWAP1 POP SWAP3 SWAP2 POP POP JUMP JUMPDEST PUSH2 0x37D DUP3 PUSH2 0x13A JUMP JUMPDEST PUSH8 0xFFFFFFFFFFFFFFFF DUP2 GT ISZERO PUSH2 0x396 JUMPI PUSH2 0x395 PUSH2 0x144 JUMP JUMPDEST JUMPDEST PUSH2 0x3A0 DUP3 SLOAD PUSH2 0x19E JUMP JUMPDEST PUSH2 0x3AB DUP3 DUP3 DUP6 PUSH2 0x2EB JUMP JUMPDEST PUSH0 PUSH1 0x20 SWAP1 POP PUSH1 0x1F DUP4 GT PUSH1 0x1 DUP2 EQ PUSH2 0x3DC JUMPI PUSH0 DUP5 ISZERO PUSH2 0x3CA JUMPI DUP3 DUP8 ADD MLOAD SWAP1 POP JUMPDEST PUSH2 0x3D4 DUP6 DUP3 PUSH2 0x359 JUMP JUMPDEST DUP7 SSTORE POP PUSH2 0x43B JUMP JUMPDEST PUSH1 0x1F NOT DUP5 AND PUSH2 0x3EA DUP7 PUSH2 0x1CE JUMP JUMPDEST PUSH0 JUMPDEST DUP3 DUP2 LT ISZERO PUSH2 0x411 JUMPI DUP5 DUP10 ADD MLOAD DUP3 SSTORE PUSH1 0x1 DUP3 ADD SWAP2 POP PUSH1 0x20 DUP6 ADD SWAP5 POP PUSH1 0x20 DUP2 ADD SWAP1 POP PUSH2 0x3EC JUMP JUMPDEST DUP7 DUP4 LT ISZERO PUSH2 0x42E JUMPI DUP5 DUP10 ADD MLOAD PUSH2 0x42A PUSH1 0x1F DUP10 AND DUP3 PUSH2 0x33D JUMP JUMPDEST DUP4 SSTORE POP JUMPDEST PUSH1 0x1 PUSH1 0x2 DUP9 MUL ADD DUP9 SSTORE POP POP POP JUMPDEST POP POP POP POP POP POP JUMP JUMPDEST PUSH0 DUP1 REVERT JUMPDEST PUSH0 PUSH20 0xFFFFFFFFFFFFFFFFFFFFFFFFFFFFFFFFFFFFFFFF DUP3 AND SWAP1 POP SWAP2 SWAP1 POP JUMP JUMPDEST PUSH0 PUSH2 0x470 DUP3 PUSH2 0x447 JUMP JUMPDEST SWAP1 POP SWAP2 SWAP1 POP JUMP JUMPDEST PUSH0 PUSH2 0x481 DUP3 PUSH2 0x466 JUMP JUMPDEST SWAP1 POP SWAP2 SWAP1 POP JUMP JUMPDEST PUSH2 0x491 DUP2 PUSH2 0x477 JUMP JUMPDEST DUP2 EQ PUSH2 0x49B JUMPI PUSH0 DUP1 REVERT JUMPDEST POP JUMP JUMPDEST PUSH0 DUP2 MLOAD SWAP1 POP PUSH2 0x4AC DUP2 PUSH2 0x488 JUMP JUMPDEST SWAP3 SWAP2 POP POP JUMP JUMPDEST PUSH0 PUSH1 0x20 DUP3 DUP5 SUB SLT ISZERO PUSH2 0x4C7 JUMPI PUSH2 0x4C6 PUSH2 0x443 JUMP JUMPDEST JUMPDEST PUSH0 PUSH2 0x4D4 DUP5 DUP3 DUP6 ADD PUSH2 0x49E JUMP JUMPDEST SWAP2 POP POP SWAP3 SWAP2 POP POP JUMP JUMPDEST PUSH2 0x2CDF DUP1 PUSH2 0x4EA PUSH0 CODECOPY PUSH0 RETURN INVALID PUSH1 0x80 PUSH1 0x40 MSTORE CALLVALUE DUP1 ISZERO PUSH2 0xF JUMPI PUSH0 DUP1 REVERT JUMPDEST POP PUSH1 0x4 CALLDATASIZE LT PUSH2 0xA7 JUMPI PUSH0 CALLDATALOAD PUSH1 0xE0 SHR DUP1 PUSH4 0x866EC8CC GT PUSH2 0x6F JUMPI DUP1 PUSH4 0x866EC8CC EQ PUSH2 0x175 JUMPI DUP1 PUSH4 0x8DA5CB5B EQ PUSH2 0x1A5 JUMPI DUP1 PUSH4 0xC649C9A8 EQ PUSH2 0x1C3 JUMPI DUP1 PUSH4 0xE735B48A EQ PUSH2 0x1F3 JUMPI DUP1 PUSH4 0xE9DA00F2 EQ PUSH2 0x20F JUMPI DUP1 PUSH4 0xF2FDE38B EQ PUSH2 0x22D JUMPI PUSH2 0xA7 JUMP JUMPDEST DUP1 PUSH4 0x12A4CD7A EQ PUSH2 0xAB JUMPI DUP1 PUSH4 0x374DB538 EQ PUSH2 0xDB JUMPI DUP1 PUSH4 0x456C851E EQ PUSH2 0xF9 JUMPI DUP1 PUSH4 0x7E78F28B EQ PUSH2 0x129 JUMPI DUP1 PUSH4 0x826590E5 EQ PUSH2 0x145 JUMPI JUMPDEST PUSH0 DUP1 REVERT JUMPDEST PUSH2 0xC5 PUSH1 0x4 DUP1 CALLDATASIZE SUB DUP2 ADD SWAP1 PUSH2 0xC0 SWAP2 SWAP1 PUSH2 0x16F2 JUMP JUMPDEST PUSH2 0x249 JUMP JUMPDEST PUSH1 0x40 MLOAD PUSH2 0xD2 SWAP2 SWAP1 PUSH2 0x178D JUMP JUMPDEST PUSH1 0x40 MLOAD DUP1 SWAP2 SUB SWAP1 RETURN JUMPDEST PUSH2 0xE3 PUSH2 0x282 JUMP JUMPDEST PUSH1 0x40 MLOAD PUSH2 0xF0 SWAP2 SWAP1 PUSH2 0x178D JUMP JUMPDEST PUSH1 0x40 MLOAD DUP1 SWAP2 SUB SWAP1 RETURN JUMPDEST PUSH2 0x113 PUSH1 0x4 DUP1 CALLDATASIZE SUB DUP2 ADD SWAP1 PUSH2 0x10E SWAP2 SWAP1 PUSH2 0x17E0 JUMP JUMPDEST PUSH2 0x2B3 JUMP JUMPDEST PUSH1 0x40 MLOAD PUSH2 0x120 SWAP2 SWAP1 PUSH2 0x178D JUMP JUMPDEST PUSH1 0x40 MLOAD DUP1 SWAP2 SUB SWAP1 RETURN JUMPDEST PUSH2 0x143 PUSH1 0x4 DUP1 CALLDATASIZE SUB DUP2 ADD SWAP1 PUSH2 0x13E SWAP2 SWAP1 PUSH2 0x187F JUMP JUMPDEST PUSH2 0x309 JUMP JUMPDEST STOP JUMPDEST PUSH2 0x15F PUSH1 0x4 DUP1 CALLDATASIZE SUB DUP2 ADD SWAP1 PUSH2 0x15A SWAP2 SWAP1 PUSH2 0x16F2 JUMP JUMPDEST PUSH2 0x4AB JUMP JUMPDEST PUSH1 0x40 MLOAD PUSH2 0x16C SWAP2 SWAP1 PUSH2 0x196F JUMP JUMPDEST PUSH1 0x40 MLOAD DUP1 SWAP2 SUB SWAP1 RETURN JUMPDEST PUSH2 0x18F PUSH1 0x4 DUP1 CALLDATASIZE SUB DUP2 ADD SWAP1 PUSH2 0x18A SWAP2 SWAP1 PUSH2 0x16F2 JUMP JUMPDEST PUSH2 0x6C9 JUMP JUMPDEST PUSH1 0x40 MLOAD PUSH2 0x19C SWAP2 SWAP1 PUSH2 0x178D JUMP JUMPDEST PUSH1 0x40 MLOAD DUP1 SWAP2 SUB SWAP1 RETURN JUMPDEST PUSH2 0x1AD PUSH2 0x6E8 JUMP JUMPDEST PUSH1 0x40 MLOAD PUSH2 0x1BA SWAP2 SWAP1 PUSH2 0x19C7 JUMP JUMPDEST PUSH1 0x40 MLOAD DUP1 SWAP2 SUB SWAP1 RETURN JUMPDEST PUSH2 0x1DD PUSH1 0x4 DUP1 CALLDATASIZE SUB DUP2 ADD SWAP1 PUSH2 0x1D8 SWAP2 SWAP1 PUSH2 0x17E0 JUMP JUMPDEST PUSH2 0x70B JUMP JUMPDEST PUSH1 0x40 MLOAD PUSH2 0x1EA SWAP2 SWAP1 PUSH2 0x178D JUMP JUMPDEST PUSH1 0x40 MLOAD DUP1 SWAP2 SUB SWAP1 RETURN JUMPDEST PUSH2 0x20D PUSH1 0x4 DUP1 CALLDATASIZE SUB DUP2 ADD SWAP1 PUSH2 0x208 SWAP2 SWAP1 PUSH2 0x1B08 JUMP JUMPDEST PUSH2 0x746 JUMP JUMPDEST STOP JUMPDEST PUSH2 0x217 PUSH2 0x7E6 JUMP JUMPDEST PUSH1 0x40 MLOAD PUSH2 0x224 SWAP2 SWAP1 PUSH2 0x19C7 JUMP JUMPDEST PUSH1 0x40 MLOAD DUP1 SWAP2 SUB SWAP1 RETURN JUMPDEST PUSH2 0x247 PUSH1 0x4 DUP1 CALLDATASIZE SUB DUP2 ADD SWAP1 PUSH2 0x242 SWAP2 SWAP1 PUSH2 0x1B79 JUMP JUMPDEST PUSH2 0x80B JUMP JUMPDEST STOP JUMPDEST PUSH1 0x60 PUSH2 0x25C PUSH2 0x257 DUP4 PUSH2 0x6C9 JUMP JUMPDEST PUSH2 0x934 JUMP JUMPDEST PUSH1 0x40 MLOAD PUSH1 0x20 ADD PUSH2 0x26C SWAP2 SWAP1 PUSH2 0x1C28 JUMP JUMPDEST PUSH1 0x40 MLOAD PUSH1 0x20 DUP2 DUP4 SUB SUB DUP2 MSTORE SWAP1 PUSH1 0x40 MSTORE SWAP1 POP SWAP2 SWAP1 POP JUMP JUMPDEST PUSH1 0x60 PUSH2 0x2AE PUSH1 0x2 PUSH0 SWAP1 SLOAD SWAP1 PUSH2 0x100 EXP SWAP1 DIV PUSH20 0xFFFFFFFFFFFFFFFFFFFFFFFFFFFFFFFFFFFFFFFF AND PUSH2 0xAC4 JUMP JUMPDEST SWAP1 POP SWAP1 JUMP JUMPDEST PUSH1 0x60 PUSH0 PUSH2 0x2BF DUP4 PUSH2 0x4AB JUMP JUMPDEST SWAP1 POP PUSH2 0x2CA DUP5 PUSH2 0xAFB JUMP JUMPDEST PUSH1 0x3 PUSH2 0x2D5 DUP4 PUSH2 0xB4A JUMP JUMPDEST PUSH2 0x2DE DUP5 PUSH2 0xB83 JUMP JUMPDEST PUSH1 0x40 MLOAD PUSH1 0x20 ADD PUSH2 0x2F1 SWAP5 SWAP4 SWAP3 SWAP2 SWAP1 PUSH2 0x1EF4 JUMP JUMPDEST PUSH1 0x40 MLOAD PUSH1 0x20 DUP2 DUP4 SUB SUB DUP2 MSTORE SWAP1 PUSH1 0x40 MSTORE SWAP2 POP POP SWAP3 SWAP2 POP POP JUMP JUMPDEST PUSH0 DUP1 SLOAD SWAP1 PUSH2 0x100 EXP SWAP1 DIV PUSH20 0xFFFFFFFFFFFFFFFFFFFFFFFFFFFFFFFFFFFFFFFF AND PUSH20 0xFFFFFFFFFFFFFFFFFFFFFFFFFFFFFFFFFFFFFFFF AND CALLER PUSH20 0xFFFFFFFFFFFFFFFFFFFFFFFFFFFFFFFFFFFFFFFF AND EQ PUSH2 0x396 JUMPI PUSH1 0x40 MLOAD PUSH32 0x8C379A000000000000000000000000000000000000000000000000000000000 DUP2 MSTORE PUSH1 0x4 ADD PUSH2 0x38D SWAP1 PUSH2 0x1FBD JUMP JUMPDEST PUSH1 0x40 MLOAD DUP1 SWAP2 SUB SWAP1 REVERT JUMPDEST PUSH0 PUSH20 0xFFFFFFFFFFFFFFFFFFFFFFFFFFFFFFFFFFFFFFFF AND PUSH1 0x2 PUSH0 SWAP1 SLOAD SWAP1 PUSH2 0x100 EXP SWAP1 DIV PUSH20 0xFFFFFFFFFFFFFFFFFFFFFFFFFFFFFFFFFFFFFFFF AND PUSH20 0xFFFFFFFFFFFFFFFFFFFFFFFFFFFFFFFFFFFFFFFF AND EQ PUSH2 0x41C JUMPI PUSH1 0x40 MLOAD PUSH32 0xE48EA9D000000000000000000000000000000000000000000000000000000000 DUP2 MSTORE PUSH1 0x4 ADD PUSH1 0x40 MLOAD DUP1 SWAP2 SUB SWAP1 REVERT JUMPDEST PUSH2 0x468 DUP3 DUP3 DUP1 DUP1 PUSH1 0x1F ADD PUSH1 0x20 DUP1 SWAP2 DIV MUL PUSH1 0x20 ADD PUSH1 0x40 MLOAD SWAP1 DUP2 ADD PUSH1 0x40 MSTORE DUP1 SWAP4 SWAP3 SWAP2 SWAP1 DUP2 DUP2 MSTORE PUSH1 0x20 ADD DUP4 DUP4 DUP1 DUP3 DUP5 CALLDATACOPY PUSH0 DUP2 DUP5 ADD MSTORE PUSH1 0x1F NOT PUSH1 0x1F DUP3 ADD AND SWAP1 POP DUP1 DUP4 ADD SWAP3 POP POP POP POP POP POP POP PUSH2 0x12D8 JUMP JUMPDEST PUSH1 0x2 PUSH0 PUSH2 0x100 EXP DUP2 SLOAD DUP2 PUSH20 0xFFFFFFFFFFFFFFFFFFFFFFFFFFFFFFFFFFFFFFFF MUL NOT AND SWAP1 DUP4 PUSH20 0xFFFFFFFFFFFFFFFFFFFFFFFFFFFFFFFFFFFFFFFF AND MUL OR SWAP1 SSTORE POP POP POP JUMP JUMPDEST PUSH2 0x4B3 PUSH2 0x1665 JUMP JUMPDEST PUSH0 DUP3 PUSH0 SHR SWAP1 POP PUSH0 PUSH1 0x40 MLOAD DUP1 PUSH2 0x140 ADD PUSH1 0x40 MSTORE DUP1 PUSH1 0x10 DUP5 SWAP1 SHR PUSH2 0xFFFF AND DUP2 MSTORE PUSH1 0x20 ADD PUSH1 0x20 DUP5 SWAP1 SHR PUSH2 0xFFFF AND DUP2 MSTORE PUSH1 0x20 ADD PUSH1 0x30 DUP5 SWAP1 SHR PUSH2 0xFFFF AND DUP2 MSTORE PUSH1 0x20 ADD PUSH1 0x40 DUP5 SWAP1 SHR PUSH2 0xFFFF AND DUP2 MSTORE PUSH1 0x20 ADD PUSH1 0x50 DUP5 SWAP1 SHR PUSH2 0xFFFF AND DUP2 MSTORE PUSH1 0x20 ADD PUSH1 0x60 DUP5 SWAP1 SHR PUSH2 0xFFFF AND DUP2 MSTORE PUSH1 0x20 ADD PUSH1 0x70 DUP5 SWAP1 SHR PUSH2 0xFFFF AND DUP2 MSTORE PUSH1 0x20 ADD PUSH1 0x80 DUP5 SWAP1 SHR PUSH2 0xFFFF AND DUP2 MSTORE PUSH1 0x20 ADD PUSH1 0x90 DUP5 SWAP1 SHR PUSH2 0xFFFF AND DUP2 MSTORE PUSH1 0x20 ADD PUSH1 0xA0 DUP5 SWAP1 SHR PUSH2 0xFFFF AND DUP2 MSTORE POP SWAP1 POP PUSH0 PUSH1 0x4B PUSH2 0x566 DUP4 PUSH1 0x60 ADD MLOAD PUSH1 0x1 PUSH1 0x64 PUSH2 0x139E JUMP JUMPDEST GT ISZERO SWAP1 POP PUSH1 0x40 MLOAD DUP1 PUSH1 0xE0 ADD PUSH1 0x40 MSTORE DUP1 PUSH1 0x28 PUSH2 0x587 DUP6 PUSH0 ADD MLOAD PUSH1 0x1 PUSH1 0x64 PUSH2 0x139E JUMP JUMPDEST GT ISZERO PUSH2 0x593 JUMPI PUSH0 PUSH2 0x5A4 JUMP JUMPDEST PUSH2 0x5A3 DUP5 PUSH0 ADD MLOAD PUSH1 0x1 PUSH1 0x3 PUSH2 0x139E JUMP JUMPDEST JUMPDEST DUP2 MSTORE PUSH1 0x20 ADD PUSH1 0xA PUSH2 0x5BC DUP6 PUSH1 0x20 ADD MLOAD PUSH1 0x1 PUSH1 0x64 PUSH2 0x139E JUMP JUMPDEST GT ISZERO PUSH2 0x5D8 JUMPI PUSH2 0x5D3 DUP5 PUSH1 0x20 ADD MLOAD PUSH1 0x4 PUSH1 0xA PUSH2 0x139E JUMP JUMPDEST PUSH2 0x5DA JUMP JUMPDEST PUSH0 JUMPDEST DUP2 MSTORE PUSH1 0x20 ADD PUSH1 0xF PUSH2 0x5F2 DUP6 PUSH1 0x40 ADD MLOAD PUSH1 0x1 PUSH1 0x64 PUSH2 0x139E JUMP JUMPDEST GT ISZERO PUSH2 0x60E JUMPI PUSH2 0x609 DUP5 PUSH1 0x40 ADD MLOAD PUSH1 0xB PUSH1 0x16 PUSH2 0x139E JUMP JUMPDEST PUSH2 0x610 JUMP JUMPDEST PUSH0 JUMPDEST DUP2 MSTORE PUSH1 0x20 ADD DUP3 PUSH2 0x620 JUMPI PUSH0 PUSH2 0x632 JUMP JUMPDEST PUSH2 0x631 DUP5 PUSH1 0x60 ADD MLOAD PUSH1 0x17 PUSH1 0x1E PUSH2 0x139E JUMP JUMPDEST JUMPDEST DUP2 MSTORE PUSH1 0x20 ADD DUP3 DUP1 ISZERO PUSH2 0x655 JUMPI POP PUSH1 0x55 PUSH2 0x652 DUP6 PUSH1 0x80 ADD MLOAD PUSH1 0x1 PUSH1 0x64 PUSH2 0x139E JUMP JUMPDEST GT ISZERO JUMPDEST PUSH2 0x65F JUMPI PUSH0 PUSH2 0x671 JUMP JUMPDEST PUSH2 0x670 DUP5 PUSH1 0x80 ADD MLOAD PUSH1 0x1F PUSH1 0x2F PUSH2 0x139E JUMP JUMPDEST JUMPDEST DUP2 MSTORE PUSH1 0x20 ADD PUSH1 0x14 PUSH2 0x689 DUP6 PUSH1 0xA0 ADD MLOAD PUSH1 0x1 PUSH1 0x64 PUSH2 0x139E JUMP JUMPDEST GT ISZERO PUSH2 0x6A5 JUMPI PUSH2 0x6A0 DUP5 PUSH1 0xA0 ADD MLOAD PUSH1 0x30 PUSH1 0x35 PUSH2 0x139E JUMP JUMPDEST PUSH2 0x6A7 JUMP JUMPDEST PUSH0 JUMPDEST DUP2 MSTORE PUSH1 0x20 ADD PUSH2 0x6BC DUP5 PUSH1 0xC0 ADD MLOAD PUSH0 PUSH1 0x5 PUSH2 0x139E JUMP JUMPDEST DUP2 MSTORE POP SWAP4 POP POP POP POP SWAP2 SWAP1 POP JUMP JUMPDEST PUSH1 0x60 PUSH0 PUSH2 0x6D5 DUP4 PUSH2 0x4AB JUMP JUMPDEST SWAP1 POP PUSH2 0x6E0 DUP2 PUSH2 0x13D6 JUMP JUMPDEST SWAP2 POP POP SWAP2 SWAP1 POP JUMP JUMPDEST PUSH0 DUP1 SLOAD SWAP1 PUSH2 0x100 EXP SWAP1 DIV PUSH20 0xFFFFFFFFFFFFFFFFFFFFFFFFFFFFFFFFFFFFFFFF AND DUP2 JUMP JUMPDEST PUSH1 0x60 PUSH2 0x71F PUSH2 0x71A DUP5 DUP5 PUSH2 0x2B3 JUMP JUMPDEST PUSH2 0x934 JUMP JUMPDEST PUSH1 0x40 MLOAD PUSH1 0x20 ADD PUSH2 0x72F SWAP2 SWAP1 PUSH2 0x2025 JUMP JUMPDEST PUSH1 0x40 MLOAD PUSH1 0x20 DUP2 DUP4 SUB SUB DUP2 MSTORE SWAP1 PUSH1 0x40 MSTORE SWAP1 POP SWAP3 SWAP2 POP POP JUMP JUMPDEST PUSH0 DUP1 SLOAD SWAP1 PUSH2 0x100 EXP SWAP1 DIV PUSH20 0xFFFFFFFFFFFFFFFFFFFFFFFFFFFFFFFFFFFFFFFF AND PUSH20 0xFFFFFFFFFFFFFFFFFFFFFFFFFFFFFFFFFFFFFFFF AND CALLER PUSH20 0xFFFFFFFFFFFFFFFFFFFFFFFFFFFFFFFFFFFFFFFF AND EQ PUSH2 0x7D3 JUMPI PUSH1 0x40 MLOAD PUSH32 0x8C379A000000000000000000000000000000000000000000000000000000000 DUP2 MSTORE PUSH1 0x4 ADD PUSH2 0x7CA SWAP1 PUSH2 0x1FBD JUMP JUMPDEST PUSH1 0x40 MLOAD DUP1 SWAP2 SUB SWAP1 REVERT JUMPDEST DUP1 PUSH1 0x3 SWAP1 DUP2 PUSH2 0x7E2 SWAP2 SWAP1 PUSH2 0x21D1 JUMP JUMPDEST POP POP JUMP JUMPDEST PUSH1 0x2 PUSH0 SWAP1 SLOAD SWAP1 PUSH2 0x100 EXP SWAP1 DIV PUSH20 0xFFFFFFFFFFFFFFFFFFFFFFFFFFFFFFFFFFFFFFFF AND DUP2 JUMP JUMPDEST PUSH0 DUP1 SLOAD SWAP1 PUSH2 0x100 EXP SWAP1 DIV PUSH20 0xFFFFFFFFFFFFFFFFFFFFFFFFFFFFFFFFFFFFFFFF AND PUSH20 0xFFFFFFFFFFFFFFFFFFFFFFFFFFFFFFFFFFFFFFFF AND CALLER PUSH20 0xFFFFFFFFFFFFFFFFFFFFFFFFFFFFFFFFFFFFFFFF AND EQ PUSH2 0x898 JUMPI PUSH1 0x40 MLOAD PUSH32 0x8C379A000000000000000000000000000000000000000000000000000000000 DUP2 MSTORE PUSH1 0x4 ADD PUSH2 0x88F SWAP1 PUSH2 0x1FBD JUMP JUMPDEST PUSH1 0x40 MLOAD DUP1 SWAP2 SUB SWAP1 REVERT JUMPDEST DUP1 PUSH0 DUP1 PUSH2 0x100 EXP DUP2 SLOAD DUP2 PUSH20 0xFFFFFFFFFFFFFFFFFFFFFFFFFFFFFFFFFFFFFFFF MUL NOT AND SWAP1 DUP4 PUSH20 0xFFFFFFFFFFFFFFFFFFFFFFFFFFFFFFFFFFFFFFFF AND MUL OR SWAP1 SSTORE POP DUP1 PUSH20 0xFFFFFFFFFFFFFFFFFFFFFFFFFFFFFFFFFFFFFFFF AND CALLER PUSH20 0xFFFFFFFFFFFFFFFFFFFFFFFFFFFFFFFFFFFFFFFF AND PUSH32 0x8BE0079C531659141344CD1FD0A4F28419497F9722A3DAAFE3B4186F6B6457E0 PUSH1 0x40 MLOAD PUSH1 0x40 MLOAD DUP1 SWAP2 SUB SWAP1 LOG3 POP JUMP JUMPDEST PUSH1 0x60 PUSH0 DUP3 MLOAD SWAP1 POP PUSH0 DUP2 SUB PUSH2 0x959 JUMPI PUSH1 0x40 MLOAD DUP1 PUSH1 0x20 ADD PUSH1 0x40 MSTORE DUP1 PUSH0 DUP2 MSTORE POP SWAP2 POP POP PUSH2 0xABF JUMP JUMPDEST PUSH0 PUSH1 0x3 PUSH1 0x2 DUP4 PUSH2 0x969 SWAP2 SWAP1 PUSH2 0x22CD JUMP JUMPDEST PUSH2 0x973 SWAP2 SWAP1 PUSH2 0x232D JUMP JUMPDEST PUSH1 0x4 PUSH2 0x97F SWAP2 SWAP1 PUSH2 0x235D JUMP JUMPDEST SWAP1 POP PUSH0 PUSH1 0x20 DUP3 PUSH2 0x98F SWAP2 SWAP1 PUSH2 0x22CD JUMP JUMPDEST PUSH8 0xFFFFFFFFFFFFFFFF DUP2 GT ISZERO PUSH2 0x9A8 JUMPI PUSH2 0x9A7 PUSH2 0x19E4 JUMP JUMPDEST JUMPDEST PUSH1 0x40 MLOAD SWAP1 DUP1 DUP3 MSTORE DUP1 PUSH1 0x1F ADD PUSH1 0x1F NOT AND PUSH1 0x20 ADD DUP3 ADD PUSH1 0x40 MSTORE DUP1 ISZERO PUSH2 0x9DA JUMPI DUP2 PUSH1 0x20 ADD PUSH1 0x1 DUP3 MUL DUP1 CALLDATASIZE DUP4 CALLDATACOPY DUP1 DUP3 ADD SWAP2 POP POP SWAP1 POP JUMPDEST POP SWAP1 POP PUSH0 PUSH1 0x40 MLOAD DUP1 PUSH1 0x60 ADD PUSH1 0x40 MSTORE DUP1 PUSH1 0x40 DUP2 MSTORE PUSH1 0x20 ADD PUSH2 0x2C6A PUSH1 0x40 SWAP2 CODECOPY SWAP1 POP PUSH1 0x1 DUP2 ADD PUSH1 0x20 DUP4 ADD PUSH0 JUMPDEST DUP7 DUP2 LT ISZERO PUSH2 0xA7C JUMPI PUSH1 0x3 DUP2 ADD SWAP1 POP PUSH3 0xFFFFFF DUP2 DUP11 ADD MLOAD AND PUSH1 0x3F DUP2 PUSH1 0x12 SHR AND DUP5 ADD MLOAD DUP1 PUSH1 0x8 SHL SWAP1 POP PUSH1 0xFF PUSH1 0x3F DUP4 PUSH1 0xC SHR AND DUP7 ADD MLOAD AND DUP2 ADD SWAP1 POP DUP1 PUSH1 0x8 SHL SWAP1 POP PUSH1 0xFF PUSH1 0x3F DUP4 PUSH1 0x6 SHR AND DUP7 ADD MLOAD AND DUP2 ADD SWAP1 POP DUP1 PUSH1 0x8 SHL SWAP1 POP PUSH1 0xFF PUSH1 0x3F DUP4 AND DUP7 ADD MLOAD AND DUP2 ADD SWAP1 POP DUP1 PUSH1 0xE0 SHL SWAP1 POP DUP1 DUP5 MSTORE PUSH1 0x4 DUP5 ADD SWAP4 POP POP POP PUSH2 0xA03 JUMP JUMPDEST POP PUSH1 0x3 DUP7 MOD PUSH1 0x1 DUP2 EQ PUSH2 0xA96 JUMPI PUSH1 0x2 DUP2 EQ PUSH2 0xAA6 JUMPI PUSH2 0xAB1 JUMP JUMPDEST PUSH2 0x3D3D PUSH1 0xF0 SHL PUSH1 0x2 DUP4 SUB MSTORE PUSH2 0xAB1 JUMP JUMPDEST PUSH1 0x3D PUSH1 0xF8 SHL PUSH1 0x1 DUP4 SUB MSTORE JUMPDEST POP DUP5 DUP5 MSTORE POP POP DUP2 SWAP5 POP POP POP POP POP JUMPDEST SWAP2 SWAP1 POP JUMP JUMPDEST PUSH1 0x60 PUSH2 0xAF4 DUP3 PUSH1 0x1 DUP1 DUP6 PUSH20 0xFFFFFFFFFFFFFFFFFFFFFFFFFFFFFFFFFFFFFFFF AND EXTCODESIZE PUSH2 0xAEF SWAP2 SWAP1 PUSH2 0x239E JUMP JUMPDEST PUSH2 0x1559 JUMP JUMPDEST SWAP1 POP SWAP2 SWAP1 POP JUMP JUMPDEST PUSH1 0x60 PUSH1 0xA0 PUSH1 0x40 MLOAD ADD DUP1 PUSH1 0x40 MSTORE PUSH1 0x20 DUP2 SUB SWAP2 POP PUSH0 DUP3 MSTORE DUP2 DUP4 JUMPDEST PUSH1 0x1 ISZERO PUSH2 0xB35 JUMPI PUSH1 0x1 DUP5 SUB SWAP4 POP PUSH1 0xA DUP2 MOD PUSH1 0x30 ADD DUP5 MSTORE8 PUSH1 0xA DUP2 DIV SWAP1 POP DUP1 PUSH2 0xB13 JUMPI JUMPDEST POP DUP3 DUP2 SUB PUSH1 0x20 DUP5 SUB SWAP4 POP DUP1 DUP5 MSTORE POP POP POP SWAP2 SWAP1 POP JUMP JUMPDEST PUSH1 0x60 PUSH2 0xB5D PUSH2 0xB58 DUP4 PUSH2 0x13D6 JUMP JUMPDEST PUSH2 0x934 JUMP JUMPDEST PUSH1 0x40 MLOAD PUSH1 0x20 ADD PUSH2 0xB6D SWAP2 SWAP1 PUSH2 0x1C28 JUMP JUMPDEST PUSH1 0x40 MLOAD PUSH1 0x20 DUP2 DUP4 SUB SUB DUP2 MSTORE SWAP1 PUSH1 0x40 MSTORE SWAP1 POP SWAP2 SWAP1 POP JUMP JUMPDEST PUSH1 0x60 PUSH2 0xB8D PUSH2 0x1687 JUMP JUMPDEST PUSH0 JUMPDEST PUSH1 0x7 DUP2 LT ISZERO PUSH2 0x1202 JUMPI PUSH0 DUP5 DUP3 PUSH1 0x7 DUP2 LT PUSH2 0xBAC JUMPI PUSH2 0xBAB PUSH2 0x23D1 JUMP JUMPDEST JUMPDEST PUSH1 0x20 MUL ADD MLOAD SWAP1 POP PUSH0 DUP3 EQ DUP1 ISZERO PUSH2 0xBC2 JUMPI POP PUSH0 DUP2 EQ ISZERO JUMPDEST ISZERO PUSH2 0xCBD JUMPI PUSH2 0xCA1 PUSH1 0x40 MLOAD DUP1 PUSH1 0x40 ADD PUSH1 0x40 MSTORE DUP1 PUSH1 0x4 DUP2 MSTORE PUSH1 0x20 ADD PUSH32 0x536B696E00000000000000000000000000000000000000000000000000000000 DUP2 MSTORE POP PUSH1 0x1 PUSH0 SWAP1 SLOAD SWAP1 PUSH2 0x100 EXP SWAP1 DIV PUSH20 0xFFFFFFFFFFFFFFFFFFFFFFFFFFFFFFFFFFFFFFFF AND PUSH20 0xFFFFFFFFFFFFFFFFFFFFFFFFFFFFFFFFFFFFFFFF AND PUSH4 0x98E4F581 DUP5 PUSH1 0x40 MLOAD DUP3 PUSH4 0xFFFFFFFF AND PUSH1 0xE0 SHL DUP2 MSTORE PUSH1 0x4 ADD PUSH2 0xC5A SWAP2 SWAP1 PUSH2 0x240D JUMP JUMPDEST PUSH0 PUSH1 0x40 MLOAD DUP1 DUP4 SUB DUP2 DUP7 GAS STATICCALL ISZERO DUP1 ISZERO PUSH2 0xC74 JUMPI RETURNDATASIZE PUSH0 DUP1 RETURNDATACOPY RETURNDATASIZE PUSH0 REVERT JUMPDEST POP POP POP POP PUSH1 0x40 MLOAD RETURNDATASIZE PUSH0 DUP3 RETURNDATACOPY RETURNDATASIZE PUSH1 0x1F NOT PUSH1 0x1F DUP3 ADD AND DUP3 ADD DUP1 PUSH1 0x40 MSTORE POP DUP2 ADD SWAP1 PUSH2 0xC9C SWAP2 SWAP1 PUSH2 0x2494 JUMP JUMPDEST PUSH2 0x1582 JUMP JUMPDEST DUP4 DUP4 PUSH1 0x6 DUP2 LT PUSH2 0xCB4 JUMPI PUSH2 0xCB3 PUSH2 0x23D1 JUMP JUMPDEST JUMPDEST PUSH1 0x20 MUL ADD DUP2 SWAP1 MSTORE POP JUMPDEST PUSH1 0x1 DUP3 EQ DUP1 ISZERO PUSH2 0xCCD JUMPI POP PUSH0 DUP2 EQ ISZERO JUMPDEST ISZERO PUSH2 0xDC8 JUMPI PUSH2 0xDAC PUSH1 0x40 MLOAD DUP1 PUSH1 0x40 ADD PUSH1 0x40 MSTORE DUP1 PUSH1 0x5 DUP2 MSTORE PUSH1 0x20 ADD PUSH32 0x50616E7473000000000000000000000000000000000000000000000000000000 DUP2 MSTORE POP PUSH1 0x1 PUSH0 SWAP1 SLOAD SWAP1 PUSH2 0x100 EXP SWAP1 DIV PUSH20 0xFFFFFFFFFFFFFFFFFFFFFFFFFFFFFFFFFFFFFFFF AND PUSH20 0xFFFFFFFFFFFFFFFFFFFFFFFFFFFFFFFFFFFFFFFF AND PUSH4 0x4337932D DUP5 PUSH1 0x40 MLOAD DUP3 PUSH4 0xFFFFFFFF AND PUSH1 0xE0 SHL DUP2 MSTORE PUSH1 0x4 ADD PUSH2 0xD65 SWAP2 SWAP1 PUSH2 0x240D JUMP JUMPDEST PUSH0 PUSH1 0x40 MLOAD DUP1 DUP4 SUB DUP2 DUP7 GAS STATICCALL ISZERO DUP1 ISZERO PUSH2 0xD7F JUMPI RETURNDATASIZE PUSH0 DUP1 RETURNDATACOPY RETURNDATASIZE PUSH0 REVERT JUMPDEST POP POP POP POP PUSH1 0x40 MLOAD RETURNDATASIZE PUSH0 DUP3 RETURNDATACOPY RETURNDATASIZE PUSH1 0x1F NOT PUSH1 0x1F DUP3 ADD AND DUP3 ADD DUP1 PUSH1 0x40 MSTORE POP DUP2 ADD SWAP1 PUSH2 0xDA7 SWAP2 SWAP1 PUSH2 0x2494 JUMP JUMPDEST PUSH2 0x1582 JUMP JUMPDEST DUP4 DUP4 PUSH1 0x6 DUP2 LT PUSH2 0xDBF JUMPI PUSH2 0xDBE PUSH2 0x23D1 JUMP JUMPDEST JUMPDEST PUSH1 0x20 MUL ADD DUP2 SWAP1 MSTORE POP JUMPDEST PUSH1 0x2 DUP3 EQ DUP1 ISZERO PUSH2 0xDD8 JUMPI POP PUSH0 DUP2 EQ ISZERO JUMPDEST ISZERO PUSH2 0xED3 JUMPI PUSH2 0xEB7 PUSH1 0x40 MLOAD DUP1 PUSH1 0x40 ADD PUSH1 0x40 MSTORE DUP1 PUSH1 0x5 DUP2 MSTORE PUSH1 0x20 ADD PUSH32 0x5368697274000000000000000000000000000000000000000000000000000000 DUP2 MSTORE POP PUSH1 0x1 PUSH0 SWAP1 SLOAD SWAP1 PUSH2 0x100 EXP SWAP1 DIV PUSH20 0xFFFFFFFFFFFFFFFFFFFFFFFFFFFFFFFFFFFFFFFF AND PUSH20 0xFFFFFFFFFFFFFFFFFFFFFFFFFFFFFFFFFFFFFFFF AND PUSH4 0x4C9C05EA DUP5 PUSH1 0x40 MLOAD DUP3 PUSH4 0xFFFFFFFF AND PUSH1 0xE0 SHL DUP2 MSTORE PUSH1 0x4 ADD PUSH2 0xE70 SWAP2 SWAP1 PUSH2 0x240D JUMP JUMPDEST PUSH0 PUSH1 0x40 MLOAD DUP1 DUP4 SUB DUP2 DUP7 GAS STATICCALL ISZERO DUP1 ISZERO PUSH2 0xE8A JUMPI RETURNDATASIZE PUSH0 DUP1 RETURNDATACOPY RETURNDATASIZE PUSH0 REVERT JUMPDEST POP POP POP POP PUSH1 0x40 MLOAD RETURNDATASIZE PUSH0 DUP3 RETURNDATACOPY RETURNDATASIZE PUSH1 0x1F NOT PUSH1 0x1F DUP3 ADD AND DUP3 ADD DUP1 PUSH1 0x40 MSTORE POP DUP2 ADD SWAP1 PUSH2 0xEB2 SWAP2 SWAP1 PUSH2 0x2494 JUMP JUMPDEST PUSH2 0x1582 JUMP JUMPDEST DUP4 DUP4 PUSH1 0x6 DUP2 LT PUSH2 0xECA JUMPI PUSH2 0xEC9 PUSH2 0x23D1 JUMP JUMPDEST JUMPDEST PUSH1 0x20 MUL ADD DUP2 SWAP1 MSTORE POP JUMPDEST PUSH1 0x3 DUP3 EQ DUP1 ISZERO PUSH2 0xEE3 JUMPI POP PUSH0 DUP2 EQ ISZERO JUMPDEST ISZERO PUSH2 0xFDE JUMPI PUSH2 0xFC2 PUSH1 0x40 MLOAD DUP1 PUSH1 0x40 ADD PUSH1 0x40 MSTORE DUP1 PUSH1 0x4 DUP2 MSTORE PUSH1 0x20 ADD PUSH32 0x4579657300000000000000000000000000000000000000000000000000000000 DUP2 MSTORE POP PUSH1 0x1 PUSH0 SWAP1 SLOAD SWAP1 PUSH2 0x100 EXP SWAP1 DIV PUSH20 0xFFFFFFFFFFFFFFFFFFFFFFFFFFFFFFFFFFFFFFFF AND PUSH20 0xFFFFFFFFFFFFFFFFFFFFFFFFFFFFFFFFFFFFFFFF AND PUSH4 0xC4D30BFA DUP5 PUSH1 0x40 MLOAD DUP3 PUSH4 0xFFFFFFFF AND PUSH1 0xE0 SHL DUP2 MSTORE PUSH1 0x4 ADD PUSH2 0xF7B SWAP2 SWAP1 PUSH2 0x240D JUMP JUMPDEST PUSH0 PUSH1 0x40 MLOAD DUP1 DUP4 SUB DUP2 DUP7 GAS STATICCALL ISZERO DUP1 ISZERO PUSH2 0xF95 JUMPI RETURNDATASIZE PUSH0 DUP1 RETURNDATACOPY RETURNDATASIZE PUSH0 REVERT JUMPDEST POP POP POP POP PUSH1 0x40 MLOAD RETURNDATASIZE PUSH0 DUP3 RETURNDATACOPY RETURNDATASIZE PUSH1 0x1F NOT PUSH1 0x1F DUP3 ADD AND DUP3 ADD DUP1 PUSH1 0x40 MSTORE POP DUP2 ADD SWAP1 PUSH2 0xFBD SWAP2 SWAP1 PUSH2 0x2494 JUMP JUMPDEST PUSH2 0x1582 JUMP JUMPDEST DUP4 DUP4 PUSH1 0x6 DUP2 LT PUSH2 0xFD5 JUMPI PUSH2 0xFD4 PUSH2 0x23D1 JUMP JUMPDEST JUMPDEST PUSH1 0x20 MUL ADD DUP2 SWAP1 MSTORE POP JUMPDEST PUSH1 0x4 DUP3 EQ DUP1 ISZERO PUSH2 0xFEE JUMPI POP PUSH0 DUP2 EQ ISZERO JUMPDEST ISZERO PUSH2 0x10E9 JUMPI PUSH2 0x10CD PUSH1 0x40 MLOAD DUP1 PUSH1 0x40 ADD PUSH1 0x40 MSTORE DUP1 PUSH1 0x3 DUP2 MSTORE PUSH1 0x20 ADD PUSH32 0x4861740000000000000000000000000000000000000000000000000000000000 DUP2 MSTORE POP PUSH1 0x1 PUSH0 SWAP1 SLOAD SWAP1 PUSH2 0x100 EXP SWAP1 DIV PUSH20 0xFFFFFFFFFFFFFFFFFFFFFFFFFFFFFFFFFFFFFFFF AND PUSH20 0xFFFFFFFFFFFFFFFFFFFFFFFFFFFFFFFFFFFFFFFF AND PUSH4 0xD2571F88 DUP5 PUSH1 0x40 MLOAD DUP3 PUSH4 0xFFFFFFFF AND PUSH1 0xE0 SHL DUP2 MSTORE PUSH1 0x4 ADD PUSH2 0x1086 SWAP2 SWAP1 PUSH2 0x240D JUMP JUMPDEST PUSH0 PUSH1 0x40 MLOAD DUP1 DUP4 SUB DUP2 DUP7 GAS STATICCALL ISZERO DUP1 ISZERO PUSH2 0x10A0 JUMPI RETURNDATASIZE PUSH0 DUP1 RETURNDATACOPY RETURNDATASIZE PUSH0 REVERT JUMPDEST POP POP POP POP PUSH1 0x40 MLOAD RETURNDATASIZE PUSH0 DUP3 RETURNDATACOPY RETURNDATASIZE PUSH1 0x1F NOT PUSH1 0x1F DUP3 ADD AND DUP3 ADD DUP1 PUSH1 0x40 MSTORE POP DUP2 ADD SWAP1 PUSH2 0x10C8 SWAP2 SWAP1 PUSH2 0x2494 JUMP JUMPDEST PUSH2 0x1582 JUMP JUMPDEST DUP4 DUP4 PUSH1 0x6 DUP2 LT PUSH2 0x10E0 JUMPI PUSH2 0x10DF PUSH2 0x23D1 JUMP JUMPDEST JUMPDEST PUSH1 0x20 MUL ADD DUP2 SWAP1 MSTORE POP JUMPDEST PUSH1 0x5 DUP3 EQ DUP1 ISZERO PUSH2 0x10F9 JUMPI POP PUSH0 DUP2 EQ ISZERO JUMPDEST ISZERO PUSH2 0x11F4 JUMPI PUSH2 0x11D8 PUSH1 0x40 MLOAD DUP1 PUSH1 0x40 ADD PUSH1 0x40 MSTORE DUP1 PUSH1 0x7 DUP2 MSTORE PUSH1 0x20 ADD PUSH32 0x5370656369616C00000000000000000000000000000000000000000000000000 DUP2 MSTORE POP PUSH1 0x1 PUSH0 SWAP1 SLOAD SWAP1 PUSH2 0x100 EXP SWAP1 DIV PUSH20 0xFFFFFFFFFFFFFFFFFFFFFFFFFFFFFFFFFFFFFFFF AND PUSH20 0xFFFFFFFFFFFFFFFFFFFFFFFFFFFFFFFFFFFFFFFF AND PUSH4 0xE1D916F7 DUP5 PUSH1 0x40 MLOAD DUP3 PUSH4 0xFFFFFFFF AND PUSH1 0xE0 SHL DUP2 MSTORE PUSH1 0x4 ADD PUSH2 0x1191 SWAP2 SWAP1 PUSH2 0x240D JUMP JUMPDEST PUSH0 PUSH1 0x40 MLOAD DUP1 DUP4 SUB DUP2 DUP7 GAS STATICCALL ISZERO DUP1 ISZERO PUSH2 0x11AB JUMPI RETURNDATASIZE PUSH0 DUP1 RETURNDATACOPY RETURNDATASIZE PUSH0 REVERT JUMPDEST POP POP POP POP PUSH1 0x40 MLOAD RETURNDATASIZE PUSH0 DUP3 RETURNDATACOPY RETURNDATASIZE PUSH1 0x1F NOT PUSH1 0x1F DUP3 ADD AND DUP3 ADD DUP1 PUSH1 0x40 MSTORE POP DUP2 ADD SWAP1 PUSH2 0x11D3 SWAP2 SWAP1 PUSH2 0x2494 JUMP JUMPDEST PUSH2 0x1582 JUMP JUMPDEST DUP4 DUP4 PUSH1 0x6 DUP2 LT PUSH2 0x11EB JUMPI PUSH2 0x11EA PUSH2 0x23D1 JUMP JUMPDEST JUMPDEST PUSH1 0x20 MUL ADD DUP2 SWAP1 MSTORE POP JUMPDEST POP DUP1 DUP1 PUSH1 0x1 ADD SWAP2 POP POP PUSH2 0xB8F JUMP JUMPDEST POP PUSH1 0x60 PUSH0 JUMPDEST PUSH1 0x6 DUP2 LT ISZERO PUSH2 0x12CD JUMPI PUSH0 DUP4 DUP3 PUSH1 0x6 DUP2 LT PUSH2 0x1224 JUMPI PUSH2 0x1223 PUSH2 0x23D1 JUMP JUMPDEST JUMPDEST PUSH1 0x20 MUL ADD MLOAD MLOAD GT ISZERO PUSH2 0x12C0 JUMPI DUP2 PUSH0 DUP4 MLOAD GT PUSH2 0x124D JUMPI PUSH1 0x40 MLOAD DUP1 PUSH1 0x20 ADD PUSH1 0x40 MSTORE DUP1 PUSH0 DUP2 MSTORE POP PUSH2 0x1284 JUMP JUMPDEST PUSH1 0x40 MLOAD DUP1 PUSH1 0x40 ADD PUSH1 0x40 MSTORE DUP1 PUSH1 0x1 DUP2 MSTORE PUSH1 0x20 ADD PUSH32 0x2C00000000000000000000000000000000000000000000000000000000000000 DUP2 MSTORE POP JUMPDEST DUP5 DUP4 PUSH1 0x6 DUP2 LT PUSH2 0x1297 JUMPI PUSH2 0x1296 PUSH2 0x23D1 JUMP JUMPDEST JUMPDEST PUSH1 0x20 MUL ADD MLOAD PUSH1 0x40 MLOAD PUSH1 0x20 ADD PUSH2 0x12AE SWAP4 SWAP3 SWAP2 SWAP1 PUSH2 0x24DB JUMP JUMPDEST PUSH1 0x40 MLOAD PUSH1 0x20 DUP2 DUP4 SUB SUB DUP2 MSTORE SWAP1 PUSH1 0x40 MSTORE SWAP2 POP JUMPDEST DUP1 DUP1 PUSH1 0x1 ADD SWAP2 POP POP PUSH2 0x1207 JUMP JUMPDEST POP DUP1 SWAP3 POP POP POP SWAP2 SWAP1 POP JUMP JUMPDEST PUSH0 DUP1 DUP3 PUSH1 0x40 MLOAD PUSH1 0x20 ADD PUSH2 0x12EB SWAP2 SWAP1 PUSH2 0x2579 JUMP JUMPDEST PUSH1 0x40 MLOAD PUSH1 0x20 DUP2 DUP4 SUB SUB DUP2 MSTORE SWAP1 PUSH1 0x40 MSTORE SWAP1 POP PUSH0 DUP2 PUSH1 0x40 MLOAD PUSH1 0x20 ADD PUSH2 0x130E SWAP2 SWAP1 PUSH2 0x25E4 JUMP JUMPDEST PUSH1 0x40 MLOAD PUSH1 0x20 DUP2 DUP4 SUB SUB DUP2 MSTORE SWAP1 PUSH1 0x40 MSTORE SWAP1 POP DUP1 MLOAD PUSH1 0x20 DUP3 ADD PUSH0 CREATE SWAP3 POP PUSH0 PUSH20 0xFFFFFFFFFFFFFFFFFFFFFFFFFFFFFFFFFFFFFFFF AND DUP4 PUSH20 0xFFFFFFFFFFFFFFFFFFFFFFFFFFFFFFFFFFFFFFFF AND SUB PUSH2 0x1397 JUMPI PUSH1 0x40 MLOAD PUSH32 0x8C379A000000000000000000000000000000000000000000000000000000000 DUP2 MSTORE PUSH1 0x4 ADD PUSH2 0x138E SWAP1 PUSH2 0x264F JUMP JUMPDEST PUSH1 0x40 MLOAD DUP1 SWAP2 SUB SWAP1 REVERT JUMPDEST POP POP SWAP2 SWAP1 POP JUMP JUMPDEST PUSH0 PUSH1 0x1 DUP4 DUP4 PUSH2 0x13AD SWAP2 SWAP1 PUSH2 0x239E JUMP JUMPDEST PUSH2 0x13B7 SWAP2 SWAP1 PUSH2 0x22CD JUMP JUMPDEST DUP5 PUSH2 0x13C2 SWAP2 SWAP1 PUSH2 0x266D JUMP JUMPDEST DUP4 PUSH2 0x13CD SWAP2 SWAP1 PUSH2 0x22CD JUMP JUMPDEST SWAP1 POP SWAP4 SWAP3 POP POP POP JUMP JUMPDEST PUSH1 0x60 PUSH0 PUSH2 0x13E3 PUSH0 DUP1 PUSH2 0x15AE JUMP JUMPDEST PUSH1 0x40 MLOAD PUSH1 0x20 ADD PUSH2 0x13F3 SWAP2 SWAP1 PUSH2 0x26C0 JUMP JUMPDEST PUSH1 0x40 MLOAD PUSH1 0x20 DUP2 DUP4 SUB SUB DUP2 MSTORE SWAP1 PUSH1 0x40 MSTORE SWAP1 POP PUSH0 JUMPDEST PUSH1 0x6 DUP2 LT ISZERO PUSH2 0x1472 JUMPI PUSH0 DUP5 DUP3 PUSH1 0x7 DUP2 LT PUSH2 0x1423 JUMPI PUSH2 0x1422 PUSH2 0x23D1 JUMP JUMPDEST JUMPDEST PUSH1 0x20 MUL ADD MLOAD SWAP1 POP PUSH0 DUP2 SUB PUSH2 0x1437 JUMPI POP PUSH2 0x1465 JUMP JUMPDEST DUP3 PUSH2 0x1441 DUP3 PUSH2 0x15EA JUMP JUMPDEST PUSH1 0x40 MLOAD PUSH1 0x20 ADD PUSH2 0x1452 SWAP3 SWAP2 SWAP1 PUSH2 0x26E1 JUMP JUMPDEST PUSH1 0x40 MLOAD PUSH1 0x20 DUP2 DUP4 SUB SUB DUP2 MSTORE SWAP1 PUSH1 0x40 MSTORE SWAP3 POP POP JUMPDEST DUP1 DUP1 PUSH1 0x1 ADD SWAP2 POP POP PUSH2 0x1406 JUMP JUMPDEST POP PUSH2 0x147B PUSH2 0x1637 JUMP JUMPDEST PUSH1 0x1 PUSH0 SWAP1 SLOAD SWAP1 PUSH2 0x100 EXP SWAP1 DIV PUSH20 0xFFFFFFFFFFFFFFFFFFFFFFFFFFFFFFFFFFFFFFFF AND PUSH20 0xFFFFFFFFFFFFFFFFFFFFFFFFFFFFFFFFFFFFFFFF AND PUSH4 0xC76AB940 DUP6 PUSH1 0x6 PUSH1 0x7 DUP2 LT PUSH2 0x14CC JUMPI PUSH2 0x14CB PUSH2 0x23D1 JUMP JUMPDEST JUMPDEST PUSH1 0x20 MUL ADD MLOAD PUSH1 0x40 MLOAD DUP3 PUSH4 0xFFFFFFFF AND PUSH1 0xE0 SHL DUP2 MSTORE PUSH1 0x4 ADD PUSH2 0x14ED SWAP2 SWAP1 PUSH2 0x240D JUMP JUMPDEST PUSH0 PUSH1 0x40 MLOAD DUP1 DUP4 SUB DUP2 DUP7 GAS STATICCALL ISZERO DUP1 ISZERO PUSH2 0x1507 JUMPI RETURNDATASIZE PUSH0 DUP1 RETURNDATACOPY RETURNDATASIZE PUSH0 REVERT JUMPDEST POP POP POP POP PUSH1 0x40 MLOAD RETURNDATASIZE PUSH0 DUP3 RETURNDATACOPY RETURNDATASIZE PUSH1 0x1F NOT PUSH1 0x1F DUP3 ADD AND DUP3 ADD DUP1 PUSH1 0x40 MSTORE POP DUP2 ADD SWAP1 PUSH2 0x152F SWAP2 SWAP1 PUSH2 0x2494 JUMP JUMPDEST DUP3 PUSH1 0x40 MLOAD PUSH1 0x20 ADD PUSH2 0x1542 SWAP4 SWAP3 SWAP2 SWAP1 PUSH2 0x2808 JUMP JUMPDEST PUSH1 0x40 MLOAD PUSH1 0x20 DUP2 DUP4 SUB SUB DUP2 MSTORE SWAP1 PUSH1 0x40 MSTORE SWAP2 POP POP SWAP2 SWAP1 POP JUMP JUMPDEST PUSH1 0x60 PUSH1 0x40 MLOAD SWAP1 POP PUSH1 0x1F NOT PUSH1 0x1F PUSH1 0x20 DUP5 ADD ADD AND DUP2 ADD PUSH1 0x40 MSTORE DUP2 DUP2 MSTORE DUP2 DUP4 PUSH1 0x20 DUP4 ADD DUP7 EXTCODECOPY SWAP4 SWAP3 POP POP POP JUMP JUMPDEST PUSH1 0x60 DUP3 DUP3 PUSH1 0x40 MLOAD PUSH1 0x20 ADD PUSH2 0x1597 SWAP3 SWAP2 SWAP1 PUSH2 0x2937 JUMP JUMPDEST PUSH1 0x40 MLOAD PUSH1 0x20 DUP2 DUP4 SUB SUB DUP2 MSTORE SWAP1 PUSH1 0x40 MSTORE SWAP1 POP SWAP3 SWAP2 POP POP JUMP JUMPDEST PUSH1 0x60 PUSH2 0x15B9 DUP4 PUSH2 0xAFB JUMP JUMPDEST PUSH2 0x15C2 DUP4 PUSH2 0xAFB JUMP JUMPDEST PUSH1 0x40 MLOAD PUSH1 0x20 ADD PUSH2 0x15D3 SWAP3 SWAP2 SWAP1 PUSH2 0x2A35 JUMP JUMPDEST PUSH1 0x40 MLOAD PUSH1 0x20 DUP2 DUP4 SUB SUB DUP2 MSTORE SWAP1 PUSH1 0x40 MSTORE SWAP1 POP SWAP3 SWAP2 POP POP JUMP JUMPDEST PUSH1 0x60 PUSH0 PUSH1 0x40 PUSH1 0x3 DUP5 PUSH2 0x15FC SWAP2 SWAP1 PUSH2 0x266D JUMP JUMPDEST PUSH2 0x1606 SWAP2 SWAP1 PUSH2 0x235D JUMP JUMPDEST SWAP1 POP PUSH0 PUSH1 0x40 PUSH1 0x3 DUP6 PUSH2 0x1618 SWAP2 SWAP1 PUSH2 0x232D JUMP JUMPDEST PUSH2 0x1622 SWAP2 SWAP1 PUSH2 0x235D JUMP JUMPDEST SWAP1 POP PUSH2 0x162E DUP3 DUP3 PUSH2 0x15AE JUMP JUMPDEST SWAP3 POP POP POP SWAP2 SWAP1 POP JUMP JUMPDEST PUSH1 0x60 PUSH2 0x1641 PUSH2 0x282 JUMP JUMPDEST PUSH1 0x40 MLOAD PUSH1 0x20 ADD PUSH2 0x1651 SWAP2 SWAP1 PUSH2 0x2C3D JUMP JUMPDEST PUSH1 0x40 MLOAD PUSH1 0x20 DUP2 DUP4 SUB SUB DUP2 MSTORE SWAP1 PUSH1 0x40 MSTORE SWAP1 POP SWAP1 JUMP JUMPDEST PUSH1 0x40 MLOAD DUP1 PUSH1 0xE0 ADD PUSH1 0x40 MSTORE DUP1 PUSH1 0x7 SWAP1 PUSH1 0x20 DUP3 MUL DUP1 CALLDATASIZE DUP4 CALLDATACOPY DUP1 DUP3 ADD SWAP2 POP POP SWAP1 POP POP SWAP1 JUMP JUMPDEST PUSH1 0x40 MLOAD DUP1 PUSH1 0xC0 ADD PUSH1 0x40 MSTORE DUP1 PUSH1 0x6 SWAP1 JUMPDEST PUSH1 0x60 DUP2 MSTORE PUSH1 0x20 ADD SWAP1 PUSH1 0x1 SWAP1 SUB SWAP1 DUP2 PUSH2 0x1696 JUMPI SWAP1 POP POP SWAP1 JUMP JUMPDEST PUSH0 PUSH1 0x40 MLOAD SWAP1 POP SWAP1 JUMP JUMPDEST PUSH0 DUP1 REVERT JUMPDEST PUSH0 DUP1 REVERT JUMPDEST PUSH0 DUP2 SWAP1 POP SWAP2 SWAP1 POP JUMP JUMPDEST PUSH2 0x16D1 DUP2 PUSH2 0x16BF JUMP JUMPDEST DUP2 EQ PUSH2 0x16DB JUMPI PUSH0 DUP1 REVERT JUMPDEST POP JUMP JUMPDEST PUSH0 DUP2 CALLDATALOAD SWAP1 POP PUSH2 0x16EC DUP2 PUSH2 0x16C8 JUMP JUMPDEST SWAP3 SWAP2 POP POP JUMP JUMPDEST PUSH0 PUSH1 0x20 DUP3 DUP5 SUB SLT ISZERO PUSH2 0x1707 JUMPI PUSH2 0x1706 PUSH2 0x16B7 JUMP JUMPDEST JUMPDEST PUSH0 PUSH2 0x1714 DUP5 DUP3 DUP6 ADD PUSH2 0x16DE JUMP JUMPDEST SWAP2 POP POP SWAP3 SWAP2 POP POP JUMP JUMPDEST PUSH0 DUP2 MLOAD SWAP1 POP SWAP2 SWAP1 POP JUMP JUMPDEST PUSH0 DUP3 DUP3 MSTORE PUSH1 0x20 DUP3 ADD SWAP1 POP SWAP3 SWAP2 POP POP JUMP JUMPDEST DUP3 DUP2 DUP4 MCOPY PUSH0 DUP4 DUP4 ADD MSTORE POP POP POP JUMP JUMPDEST PUSH0 PUSH1 0x1F NOT PUSH1 0x1F DUP4 ADD AND SWAP1 POP SWAP2 SWAP1 POP JUMP JUMPDEST PUSH0 PUSH2 0x175F DUP3 PUSH2 0x171D JUMP JUMPDEST PUSH2 0x1769 DUP2 DUP6 PUSH2 0x1727 JUMP JUMPDEST SWAP4 POP PUSH2 0x1779 DUP2 DUP6 PUSH1 0x20 DUP7 ADD PUSH2 0x1737 JUMP JUMPDEST PUSH2 0x1782 DUP2 PUSH2 0x1745 JUMP JUMPDEST DUP5 ADD SWAP2 POP POP SWAP3 SWAP2 POP POP JUMP JUMPDEST PUSH0 PUSH1 0x20 DUP3 ADD SWAP1 POP DUP2 DUP2 SUB PUSH0 DUP4 ADD MSTORE PUSH2 0x17A5 DUP2 DUP5 PUSH2 0x1755 JUMP JUMPDEST SWAP1 POP SWAP3 SWAP2 POP POP JUMP JUMPDEST PUSH0 DUP2 SWAP1 POP SWAP2 SWAP1 POP JUMP JUMPDEST PUSH2 0x17BF DUP2 PUSH2 0x17AD JUMP JUMPDEST DUP2 EQ PUSH2 0x17C9 JUMPI PUSH0 DUP1 REVERT JUMPDEST POP JUMP JUMPDEST PUSH0 DUP2 CALLDATALOAD SWAP1 POP PUSH2 0x17DA DUP2 PUSH2 0x17B6 JUMP JUMPDEST SWAP3 SWAP2 POP POP JUMP JUMPDEST PUSH0 DUP1 PUSH1 0x40 DUP4 DUP6 SUB SLT ISZERO PUSH2 0x17F6 JUMPI PUSH2 0x17F5 PUSH2 0x16B7 JUMP JUMPDEST JUMPDEST PUSH0 PUSH2 0x1803 DUP6 DUP3 DUP7 ADD PUSH2 0x17CC JUMP JUMPDEST SWAP3 POP POP PUSH1 0x20 PUSH2 0x1814 DUP6 DUP3 DUP7 ADD PUSH2 0x16DE JUMP JUMPDEST SWAP2 POP POP SWAP3 POP SWAP3 SWAP1 POP JUMP JUMPDEST PUSH0 DUP1 REVERT JUMPDEST PUSH0 DUP1 REVERT JUMPDEST PUSH0 DUP1 REVERT JUMPDEST PUSH0 DUP1 DUP4 PUSH1 0x1F DUP5 ADD SLT PUSH2 0x183F JUMPI PUSH2 0x183E PUSH2 0x181E JUMP JUMPDEST JUMPDEST DUP3 CALLDATALOAD SWAP1 POP PUSH8 0xFFFFFFFFFFFFFFFF DUP2 GT ISZERO PUSH2 0x185C JUMPI PUSH2 0x185B PUSH2 0x1822 JUMP JUMPDEST JUMPDEST PUSH1 0x20 DUP4 ADD SWAP2 POP DUP4 PUSH1 0x1 DUP3 MUL DUP4 ADD GT ISZERO PUSH2 0x1878 JUMPI PUSH2 0x1877 PUSH2 0x1826 JUMP JUMPDEST JUMPDEST SWAP3 POP SWAP3 SWAP1 POP JUMP JUMPDEST PUSH0 DUP1 PUSH1 0x20 DUP4 DUP6 SUB SLT ISZERO PUSH2 0x1895 JUMPI PUSH2 0x1894 PUSH2 0x16B7 JUMP JUMPDEST JUMPDEST PUSH0 DUP4 ADD CALLDATALOAD PUSH8 0xFFFFFFFFFFFFFFFF DUP2 GT ISZERO PUSH2 0x18B2 JUMPI PUSH2 0x18B1 PUSH2 0x16BB JUMP JUMPDEST JUMPDEST PUSH2 0x18BE DUP6 DUP3 DUP7 ADD PUSH2 0x182A JUMP JUMPDEST SWAP3 POP SWAP3 POP POP SWAP3 POP SWAP3 SWAP1 POP JUMP JUMPDEST PUSH0 PUSH1 0x7 SWAP1 POP SWAP2 SWAP1 POP JUMP JUMPDEST PUSH0 DUP2 SWAP1 POP SWAP3 SWAP2 POP POP JUMP JUMPDEST PUSH0 DUP2 SWAP1 POP SWAP2 SWAP1 POP JUMP JUMPDEST PUSH2 0x18F0 DUP2 PUSH2 0x17AD JUMP JUMPDEST DUP3 MSTORE POP POP JUMP JUMPDEST PUSH0 PUSH2 0x1901 DUP4 DUP4 PUSH2 0x18E7 JUMP JUMPDEST PUSH1 0x20 DUP4 ADD SWAP1 POP SWAP3 SWAP2 POP POP JUMP JUMPDEST PUSH0 PUSH1 0x20 DUP3 ADD SWAP1 POP SWAP2 SWAP1 POP JUMP JUMPDEST PUSH2 0x1922 DUP2 PUSH2 0x18CA JUMP JUMPDEST PUSH2 0x192C DUP2 DUP5 PUSH2 0x18D4 JUMP JUMPDEST SWAP3 POP PUSH2 0x1937 DUP3 PUSH2 0x18DE JUMP JUMPDEST DUP1 PUSH0 JUMPDEST DUP4 DUP2 LT ISZERO PUSH2 0x1967 JUMPI DUP2 MLOAD PUSH2 0x194E DUP8 DUP3 PUSH2 0x18F6 JUMP JUMPDEST SWAP7 POP PUSH2 0x1959 DUP4 PUSH2 0x190D JUMP JUMPDEST SWAP3 POP POP PUSH1 0x1 DUP2 ADD SWAP1 POP PUSH2 0x193A JUMP JUMPDEST POP POP POP POP POP POP JUMP JUMPDEST PUSH0 PUSH1 0xE0 DUP3 ADD SWAP1 POP PUSH2 0x1982 PUSH0 DUP4 ADD DUP5 PUSH2 0x1919 JUMP JUMPDEST SWAP3 SWAP2 POP POP JUMP JUMPDEST PUSH0 PUSH20 0xFFFFFFFFFFFFFFFFFFFFFFFFFFFFFFFFFFFFFFFF DUP3 AND SWAP1 POP SWAP2 SWAP1 POP JUMP JUMPDEST PUSH0 PUSH2 0x19B1 DUP3 PUSH2 0x1988 JUMP JUMPDEST SWAP1 POP SWAP2 SWAP1 POP JUMP JUMPDEST PUSH2 0x19C1 DUP2 PUSH2 0x19A7 JUMP JUMPDEST DUP3 MSTORE POP POP JUMP JUMPDEST PUSH0 PUSH1 0x20 DUP3 ADD SWAP1 POP PUSH2 0x19DA PUSH0 DUP4 ADD DUP5 PUSH2 0x19B8 JUMP JUMPDEST SWAP3 SWAP2 POP POP JUMP JUMPDEST PUSH0 DUP1 REVERT JUMPDEST PUSH32 0x4E487B7100000000000000000000000000000000000000000000000000000000 PUSH0 MSTORE PUSH1 0x41 PUSH1 0x4 MSTORE PUSH1 0x24 PUSH0 REVERT JUMPDEST PUSH2 0x1A1A DUP3 PUSH2 0x1745 JUMP JUMPDEST DUP2 ADD DUP2 DUP2 LT PUSH8 0xFFFFFFFFFFFFFFFF DUP3 GT OR ISZERO PUSH2 0x1A39 JUMPI PUSH2 0x1A38 PUSH2 0x19E4 JUMP JUMPDEST JUMPDEST DUP1 PUSH1 0x40 MSTORE POP POP POP JUMP JUMPDEST PUSH0 PUSH2 0x1A4B PUSH2 0x16AE JUMP JUMPDEST SWAP1 POP PUSH2 0x1A57 DUP3 DUP3 PUSH2 0x1A11 JUMP JUMPDEST SWAP2 SWAP1 POP JUMP JUMPDEST PUSH0 PUSH8 0xFFFFFFFFFFFFFFFF DUP3 GT ISZERO PUSH2 0x1A76 JUMPI PUSH2 0x1A75 PUSH2 0x19E4 JUMP JUMPDEST JUMPDEST PUSH2 0x1A7F DUP3 PUSH2 0x1745 JUMP JUMPDEST SWAP1 POP PUSH1 0x20 DUP2 ADD SWAP1 POP SWAP2 SWAP1 POP JUMP JUMPDEST DUP3 DUP2 DUP4 CALLDATACOPY PUSH0 DUP4 DUP4 ADD MSTORE POP POP POP JUMP JUMPDEST PUSH0 PUSH2 0x1AAC PUSH2 0x1AA7 DUP5 PUSH2 0x1A5C JUMP JUMPDEST PUSH2 0x1A42 JUMP JUMPDEST SWAP1 POP DUP3 DUP2 MSTORE PUSH1 0x20 DUP2 ADD DUP5 DUP5 DUP5 ADD GT ISZERO PUSH2 0x1AC8 JUMPI PUSH2 0x1AC7 PUSH2 0x19E0 JUMP JUMPDEST JUMPDEST PUSH2 0x1AD3 DUP5 DUP3 DUP6 PUSH2 0x1A8C JUMP JUMPDEST POP SWAP4 SWAP3 POP POP POP JUMP JUMPDEST PUSH0 DUP3 PUSH1 0x1F DUP4 ADD SLT PUSH2 0x1AEF JUMPI PUSH2 0x1AEE PUSH2 0x181E JUMP JUMPDEST JUMPDEST DUP2 CALLDATALOAD PUSH2 0x1AFF DUP5 DUP3 PUSH1 0x20 DUP7 ADD PUSH2 0x1A9A JUMP JUMPDEST SWAP2 POP POP SWAP3 SWAP2 POP POP JUMP JUMPDEST PUSH0 PUSH1 0x20 DUP3 DUP5 SUB SLT ISZERO PUSH2 0x1B1D JUMPI PUSH2 0x1B1C PUSH2 0x16B7 JUMP JUMPDEST JUMPDEST PUSH0 DUP3 ADD CALLDATALOAD PUSH8 0xFFFFFFFFFFFFFFFF DUP2 GT ISZERO PUSH2 0x1B3A JUMPI PUSH2 0x1B39 PUSH2 0x16BB JUMP JUMPDEST JUMPDEST PUSH2 0x1B46 DUP5 DUP3 DUP6 ADD PUSH2 0x1ADB JUMP JUMPDEST SWAP2 POP POP SWAP3 SWAP2 POP POP JUMP JUMPDEST PUSH2 0x1B58 DUP2 PUSH2 0x19A7 JUMP JUMPDEST DUP2 EQ PUSH2 0x1B62 JUMPI PUSH0 DUP1 REVERT JUMPDEST POP JUMP JUMPDEST PUSH0 DUP2 CALLDATALOAD SWAP1 POP PUSH2 0x1B73 DUP2 PUSH2 0x1B4F JUMP JUMPDEST SWAP3 SWAP2 POP POP JUMP JUMPDEST PUSH0 PUSH1 0x20 DUP3 DUP5 SUB SLT ISZERO PUSH2 0x1B8E JUMPI PUSH2 0x1B8D PUSH2 0x16B7 JUMP JUMPDEST JUMPDEST PUSH0 PUSH2 0x1B9B DUP5 DUP3 DUP6 ADD PUSH2 0x1B65 JUMP JUMPDEST SWAP2 POP POP SWAP3 SWAP2 POP POP JUMP JUMPDEST PUSH0 DUP2 SWAP1 POP SWAP3 SWAP2 POP POP JUMP JUMPDEST PUSH32 0x646174613A696D6167652F7376672B786D6C3B6261736536342C000000000000 PUSH0 DUP3 ADD MSTORE POP JUMP JUMPDEST PUSH0 PUSH2 0x1BE2 PUSH1 0x1A DUP4 PUSH2 0x1BA4 JUMP JUMPDEST SWAP2 POP PUSH2 0x1BED DUP3 PUSH2 0x1BAE JUMP JUMPDEST PUSH1 0x1A DUP3 ADD SWAP1 POP SWAP2 SWAP1 POP JUMP JUMPDEST PUSH0 PUSH2 0x1C02 DUP3 PUSH2 0x171D JUMP JUMPDEST PUSH2 0x1C0C DUP2 DUP6 PUSH2 0x1BA4 JUMP JUMPDEST SWAP4 POP PUSH2 0x1C1C DUP2 DUP6 PUSH1 0x20 DUP7 ADD PUSH2 0x1737 JUMP JUMPDEST DUP1 DUP5 ADD SWAP2 POP POP SWAP3 SWAP2 POP POP JUMP JUMPDEST PUSH0 PUSH2 0x1C32 DUP3 PUSH2 0x1BD6 JUMP JUMPDEST SWAP2 POP PUSH2 0x1C3E DUP3 DUP5 PUSH2 0x1BF8 JUMP JUMPDEST SWAP2 POP DUP2 SWAP1 POP SWAP3 SWAP2 POP POP JUMP JUMPDEST PUSH32 0x7B226E616D65223A202248616D20506570652023000000000000000000000000 PUSH0 DUP3 ADD MSTORE POP JUMP JUMPDEST PUSH0 PUSH2 0x1C7D PUSH1 0x14 DUP4 PUSH2 0x1BA4 JUMP JUMPDEST SWAP2 POP PUSH2 0x1C88 DUP3 PUSH2 0x1C49 JUMP JUMPDEST PUSH1 0x14 DUP3 ADD SWAP1 POP SWAP2 SWAP1 POP JUMP JUMPDEST PUSH32 0x222C20226465736372697074696F6E223A202200000000000000000000000000 PUSH0 DUP3 ADD MSTORE POP JUMP JUMPDEST PUSH0 PUSH2 0x1CC7 PUSH1 0x13 DUP4 PUSH2 0x1BA4 JUMP JUMPDEST SWAP2 POP PUSH2 0x1CD2 DUP3 PUSH2 0x1C93 JUMP JUMPDEST PUSH1 0x13 DUP3 ADD SWAP1 POP SWAP2 SWAP1 POP JUMP JUMPDEST PUSH32 0x4E487B7100000000000000000000000000000000000000000000000000000000 PUSH0 MSTORE PUSH1 0x22 PUSH1 0x4 MSTORE PUSH1 0x24 PUSH0 REVERT JUMPDEST PUSH0 PUSH1 0x2 DUP3 DIV SWAP1 POP PUSH1 0x1 DUP3 AND DUP1 PUSH2 0x1D21 JUMPI PUSH1 0x7F DUP3 AND SWAP2 POP JUMPDEST PUSH1 0x20 DUP3 LT DUP2 SUB PUSH2 0x1D34 JUMPI PUSH2 0x1D33 PUSH2 0x1CDD JUMP JUMPDEST JUMPDEST POP SWAP2 SWAP1 POP JUMP JUMPDEST PUSH0 DUP2 SWAP1 POP DUP2 PUSH0 MSTORE PUSH1 0x20 PUSH0 KECCAK256 SWAP1 POP SWAP2 SWAP1 POP JUMP JUMPDEST PUSH0 DUP2 SLOAD PUSH2 0x1D58 DUP2 PUSH2 0x1D0A JUMP JUMPDEST PUSH2 0x1D62 DUP2 DUP7 PUSH2 0x1BA4 JUMP JUMPDEST SWAP5 POP PUSH1 0x1 DUP3 AND PUSH0 DUP2 EQ PUSH2 0x1D7C JUMPI PUSH1 0x1 DUP2 EQ PUSH2 0x1D91 JUMPI PUSH2 0x1DC3 JUMP JUMPDEST PUSH1 0xFF NOT DUP4 AND DUP7 MSTORE DUP2 ISZERO ISZERO DUP3 MUL DUP7 ADD SWAP4 POP PUSH2 0x1DC3 JUMP JUMPDEST PUSH2 0x1D9A DUP6 PUSH2 0x1D3A JUMP JUMPDEST PUSH0 JUMPDEST DUP4 DUP2 LT ISZERO PUSH2 0x1DBB JUMPI DUP2 SLOAD DUP2 DUP10 ADD MSTORE PUSH1 0x1 DUP3 ADD SWAP2 POP PUSH1 0x20 DUP2 ADD SWAP1 POP PUSH2 0x1D9C JUMP JUMPDEST DUP4 DUP9 ADD SWAP6 POP POP POP JUMPDEST POP POP POP SWAP3 SWAP2 POP POP JUMP JUMPDEST PUSH32 0x222C000000000000000000000000000000000000000000000000000000000000 PUSH0 DUP3 ADD MSTORE POP JUMP JUMPDEST PUSH0 PUSH2 0x1E00 PUSH1 0x2 DUP4 PUSH2 0x1BA4 JUMP JUMPDEST SWAP2 POP PUSH2 0x1E0B DUP3 PUSH2 0x1DCC JUMP JUMPDEST PUSH1 0x2 DUP3 ADD SWAP1 POP SWAP2 SWAP1 POP JUMP JUMPDEST PUSH32 0x22696D616765223A220000000000000000000000000000000000000000000000 PUSH0 DUP3 ADD MSTORE POP JUMP JUMPDEST PUSH0 PUSH2 0x1E4A PUSH1 0x9 DUP4 PUSH2 0x1BA4 JUMP JUMPDEST SWAP2 POP PUSH2 0x1E55 DUP3 PUSH2 0x1E16 JUMP JUMPDEST PUSH1 0x9 DUP3 ADD SWAP1 POP SWAP2 SWAP1 POP JUMP JUMPDEST PUSH32 0x222C2261747472696275746573223A5B00000000000000000000000000000000 PUSH0 DUP3 ADD MSTORE POP JUMP JUMPDEST PUSH0 PUSH2 0x1E94 PUSH1 0x10 DUP4 PUSH2 0x1BA4 JUMP JUMPDEST SWAP2 POP PUSH2 0x1E9F DUP3 PUSH2 0x1E60 JUMP JUMPDEST PUSH1 0x10 DUP3 ADD SWAP1 POP SWAP2 SWAP1 POP JUMP JUMPDEST PUSH32 0x5D7D000000000000000000000000000000000000000000000000000000000000 PUSH0 DUP3 ADD MSTORE POP JUMP JUMPDEST PUSH0 PUSH2 0x1EDE PUSH1 0x2 DUP4 PUSH2 0x1BA4 JUMP JUMPDEST SWAP2 POP PUSH2 0x1EE9 DUP3 PUSH2 0x1EAA JUMP JUMPDEST PUSH1 0x2 DUP3 ADD SWAP1 POP SWAP2 SWAP1 POP JUMP JUMPDEST PUSH0 PUSH2 0x1EFE DUP3 PUSH2 0x1C71 JUMP JUMPDEST SWAP2 POP PUSH2 0x1F0A DUP3 DUP8 PUSH2 0x1BF8 JUMP JUMPDEST SWAP2 POP PUSH2 0x1F15 DUP3 PUSH2 0x1CBB JUMP JUMPDEST SWAP2 POP PUSH2 0x1F21 DUP3 DUP7 PUSH2 0x1D4C JUMP JUMPDEST SWAP2 POP PUSH2 0x1F2C DUP3 PUSH2 0x1DF4 JUMP JUMPDEST SWAP2 POP PUSH2 0x1F37 DUP3 PUSH2 0x1E3E JUMP JUMPDEST SWAP2 POP PUSH2 0x1F43 DUP3 DUP6 PUSH2 0x1BF8 JUMP JUMPDEST SWAP2 POP PUSH2 0x1F4E DUP3 PUSH2 0x1E88 JUMP JUMPDEST SWAP2 POP PUSH2 0x1F5A DUP3 DUP5 PUSH2 0x1BF8 JUMP JUMPDEST SWAP2 POP PUSH2 0x1F65 DUP3 PUSH2 0x1ED2 JUMP JUMPDEST SWAP2 POP DUP2 SWAP1 POP SWAP6 SWAP5 POP POP POP POP POP JUMP JUMPDEST PUSH32 0x554E415554484F52495A45440000000000000000000000000000000000000000 PUSH0 DUP3 ADD MSTORE POP JUMP JUMPDEST PUSH0 PUSH2 0x1FA7 PUSH1 0xC DUP4 PUSH2 0x1727 JUMP JUMPDEST SWAP2 POP PUSH2 0x1FB2 DUP3 PUSH2 0x1F73 JUMP JUMPDEST PUSH1 0x20 DUP3 ADD SWAP1 POP SWAP2 SWAP1 POP JUMP JUMPDEST PUSH0 PUSH1 0x20 DUP3 ADD SWAP1 POP DUP2 DUP2 SUB PUSH0 DUP4 ADD MSTORE PUSH2 0x1FD4 DUP2 PUSH2 0x1F9B JUMP JUMPDEST SWAP1 POP SWAP2 SWAP1 POP JUMP JUMPDEST PUSH32 0x646174613A6170706C69636174696F6E2F6A736F6E3B6261736536342C000000 PUSH0 DUP3 ADD MSTORE POP JUMP JUMPDEST PUSH0 PUSH2 0x200F PUSH1 0x1D DUP4 PUSH2 0x1BA4 JUMP JUMPDEST SWAP2 POP PUSH2 0x201A DUP3 PUSH2 0x1FDB JUMP JUMPDEST PUSH1 0x1D DUP3 ADD SWAP1 POP SWAP2 SWAP1 POP JUMP JUMPDEST PUSH0 PUSH2 0x202F DUP3 PUSH2 0x2003 JUMP JUMPDEST SWAP2 POP PUSH2 0x203B DUP3 DUP5 PUSH2 0x1BF8 JUMP JUMPDEST SWAP2 POP DUP2 SWAP1 POP SWAP3 SWAP2 POP POP JUMP JUMPDEST PUSH0 PUSH1 0x20 PUSH1 0x1F DUP4 ADD DIV SWAP1 POP SWAP2 SWAP1 POP JUMP JUMPDEST PUSH0 DUP3 DUP3 SHL SWAP1 POP SWAP3 SWAP2 POP POP JUMP JUMPDEST PUSH0 PUSH1 0x8 DUP4 MUL PUSH2 0x2090 PUSH32 0xFFFFFFFFFFFFFFFFFFFFFFFFFFFFFFFFFFFFFFFFFFFFFFFFFFFFFFFFFFFFFFFF DUP3 PUSH2 0x2055 JUMP JUMPDEST PUSH2 0x209A DUP7 DUP4 PUSH2 0x2055 JUMP JUMPDEST SWAP6 POP DUP1 NOT DUP5 AND SWAP4 POP DUP1 DUP7 AND DUP5 OR SWAP3 POP POP POP SWAP4 SWAP3 POP POP POP JUMP JUMPDEST PUSH0 DUP2 SWAP1 POP SWAP2 SWAP1 POP JUMP JUMPDEST PUSH0 PUSH2 0x20D5 PUSH2 0x20D0 PUSH2 0x20CB DUP5 PUSH2 0x17AD JUMP JUMPDEST PUSH2 0x20B2 JUMP JUMPDEST PUSH2 0x17AD JUMP JUMPDEST SWAP1 POP SWAP2 SWAP1 POP JUMP JUMPDEST PUSH0 DUP2 SWAP1 POP SWAP2 SWAP1 POP JUMP JUMPDEST PUSH2 0x20EE DUP4 PUSH2 0x20BB JUMP JUMPDEST PUSH2 0x2102 PUSH2 0x20FA DUP3 PUSH2 0x20DC JUMP JUMPDEST DUP5 DUP5 SLOAD PUSH2 0x2061 JUMP JUMPDEST DUP3 SSTORE POP POP POP POP JUMP JUMPDEST PUSH0 SWAP1 JUMP JUMPDEST PUSH2 0x2116 PUSH2 0x210A JUMP JUMPDEST PUSH2 0x2121 DUP2 DUP5 DUP5 PUSH2 0x20E5 JUMP JUMPDEST POP POP POP JUMP JUMPDEST JUMPDEST DUP2 DUP2 LT ISZERO PUSH2 0x2144 JUMPI PUSH2 0x2139 PUSH0 DUP3 PUSH2 0x210E JUMP JUMPDEST PUSH1 0x1 DUP2 ADD SWAP1 POP PUSH2 0x2127 JUMP JUMPDEST POP POP JUMP JUMPDEST PUSH1 0x1F DUP3 GT ISZERO PUSH2 0x2189 JUMPI PUSH2 0x215A DUP2 PUSH2 0x1D3A JUMP JUMPDEST PUSH2 0x2163 DUP5 PUSH2 0x2046 JUMP JUMPDEST DUP2 ADD PUSH1 0x20 DUP6 LT ISZERO PUSH2 0x2172 JUMPI DUP2 SWAP1 POP JUMPDEST PUSH2 0x2186 PUSH2 0x217E DUP6 PUSH2 0x2046 JUMP JUMPDEST DUP4 ADD DUP3 PUSH2 0x2126 JUMP JUMPDEST POP POP JUMPDEST POP POP POP JUMP JUMPDEST PUSH0 DUP3 DUP3 SHR SWAP1 POP SWAP3 SWAP2 POP POP JUMP JUMPDEST PUSH0 PUSH2 0x21A9 PUSH0 NOT DUP5 PUSH1 0x8 MUL PUSH2 0x218E JUMP JUMPDEST NOT DUP1 DUP4 AND SWAP2 POP POP SWAP3 SWAP2 POP POP JUMP JUMPDEST PUSH0 PUSH2 0x21C1 DUP4 DUP4 PUSH2 0x219A JUMP JUMPDEST SWAP2 POP DUP3 PUSH1 0x2 MUL DUP3 OR SWAP1 POP SWAP3 SWAP2 POP POP JUMP JUMPDEST PUSH2 0x21DA DUP3 PUSH2 0x171D JUMP JUMPDEST PUSH8 0xFFFFFFFFFFFFFFFF DUP2 GT ISZERO PUSH2 0x21F3 JUMPI PUSH2 0x21F2 PUSH2 0x19E4 JUMP JUMPDEST JUMPDEST PUSH2 0x21FD DUP3 SLOAD PUSH2 0x1D0A JUMP JUMPDEST PUSH2 0x2208 DUP3 DUP3 DUP6 PUSH2 0x2148 JUMP JUMPDEST PUSH0 PUSH1 0x20 SWAP1 POP PUSH1 0x1F DUP4 GT PUSH1 0x1 DUP2 EQ PUSH2 0x2239 JUMPI PUSH0 DUP5 ISZERO PUSH2 0x2227 JUMPI DUP3 DUP8 ADD MLOAD SWAP1 POP JUMPDEST PUSH2 0x2231 DUP6 DUP3 PUSH2 0x21B6 JUMP JUMPDEST DUP7 SSTORE POP PUSH2 0x2298 JUMP JUMPDEST PUSH1 0x1F NOT DUP5 AND PUSH2 0x2247 DUP7 PUSH2 0x1D3A JUMP JUMPDEST PUSH0 JUMPDEST DUP3 DUP2 LT ISZERO PUSH2 0x226E JUMPI DUP5 DUP10 ADD MLOAD DUP3 SSTORE PUSH1 0x1 DUP3 ADD SWAP2 POP PUSH1 0x20 DUP6 ADD SWAP5 POP PUSH1 0x20 DUP2 ADD SWAP1 POP PUSH2 0x2249 JUMP JUMPDEST DUP7 DUP4 LT ISZERO PUSH2 0x228B JUMPI DUP5 DUP10 ADD MLOAD PUSH2 0x2287 PUSH1 0x1F DUP10 AND DUP3 PUSH2 0x219A JUMP JUMPDEST DUP4 SSTORE POP JUMPDEST PUSH1 0x1 PUSH1 0x2 DUP9 MUL ADD DUP9 SSTORE POP POP POP JUMPDEST POP POP POP POP POP POP JUMP JUMPDEST PUSH32 0x4E487B7100000000000000000000000000000000000000000000000000000000 PUSH0 MSTORE PUSH1 0x11 PUSH1 0x4 MSTORE PUSH1 0x24 PUSH0 REVERT JUMPDEST PUSH0 PUSH2 0x22D7 DUP3 PUSH2 0x17AD JUMP JUMPDEST SWAP2 POP PUSH2 0x22E2 DUP4 PUSH2 0x17AD JUMP JUMPDEST SWAP3 POP DUP3 DUP3 ADD SWAP1 POP DUP1 DUP3 GT ISZERO PUSH2 0x22FA JUMPI PUSH2 0x22F9 PUSH2 0x22A0 JUMP JUMPDEST JUMPDEST SWAP3 SWAP2 POP POP JUMP JUMPDEST PUSH32 0x4E487B7100000000000000000000000000000000000000000000000000000000 PUSH0 MSTORE PUSH1 0x12 PUSH1 0x4 MSTORE PUSH1 0x24 PUSH0 REVERT JUMPDEST PUSH0 PUSH2 0x2337 DUP3 PUSH2 0x17AD JUMP JUMPDEST SWAP2 POP PUSH2 0x2342 DUP4 PUSH2 0x17AD JUMP JUMPDEST SWAP3 POP DUP3 PUSH2 0x2352 JUMPI PUSH2 0x2351 PUSH2 0x2300 JUMP JUMPDEST JUMPDEST DUP3 DUP3 DIV SWAP1 POP SWAP3 SWAP2 POP POP JUMP JUMPDEST PUSH0 PUSH2 0x2367 DUP3 PUSH2 0x17AD JUMP JUMPDEST SWAP2 POP PUSH2 0x2372 DUP4 PUSH2 0x17AD JUMP JUMPDEST SWAP3 POP DUP3 DUP3 MUL PUSH2 0x2380 DUP2 PUSH2 0x17AD JUMP JUMPDEST SWAP2 POP DUP3 DUP3 DIV DUP5 EQ DUP4 ISZERO OR PUSH2 0x2397 JUMPI PUSH2 0x2396 PUSH2 0x22A0 JUMP JUMPDEST JUMPDEST POP SWAP3 SWAP2 POP POP JUMP JUMPDEST PUSH0 PUSH2 0x23A8 DUP3 PUSH2 0x17AD JUMP JUMPDEST SWAP2 POP PUSH2 0x23B3 DUP4 PUSH2 0x17AD JUMP JUMPDEST SWAP3 POP DUP3 DUP3 SUB SWAP1 POP DUP2 DUP2 GT ISZERO PUSH2 0x23CB JUMPI PUSH2 0x23CA PUSH2 0x22A0 JUMP JUMPDEST JUMPDEST SWAP3 SWAP2 POP POP JUMP JUMPDEST PUSH32 0x4E487B7100000000000000000000000000000000000000000000000000000000 PUSH0 MSTORE PUSH1 0x32 PUSH1 0x4 MSTORE PUSH1 0x24 PUSH0 REVERT JUMPDEST PUSH2 0x2407 DUP2 PUSH2 0x17AD JUMP JUMPDEST DUP3 MSTORE POP POP JUMP JUMPDEST PUSH0 PUSH1 0x20 DUP3 ADD SWAP1 POP PUSH2 0x2420 PUSH0 DUP4 ADD DUP5 PUSH2 0x23FE JUMP JUMPDEST SWAP3 SWAP2 POP POP JUMP JUMPDEST PUSH0 PUSH2 0x2438 PUSH2 0x2433 DUP5 PUSH2 0x1A5C JUMP JUMPDEST PUSH2 0x1A42 JUMP JUMPDEST SWAP1 POP DUP3 DUP2 MSTORE PUSH1 0x20 DUP2 ADD DUP5 DUP5 DUP5 ADD GT ISZERO PUSH2 0x2454 JUMPI PUSH2 0x2453 PUSH2 0x19E0 JUMP JUMPDEST JUMPDEST PUSH2 0x245F DUP5 DUP3 DUP6 PUSH2 0x1737 JUMP JUMPDEST POP SWAP4 SWAP3 POP POP POP JUMP JUMPDEST PUSH0 DUP3 PUSH1 0x1F DUP4 ADD SLT PUSH2 0x247B JUMPI PUSH2 0x247A PUSH2 0x181E JUMP JUMPDEST JUMPDEST DUP2 MLOAD PUSH2 0x248B DUP5 DUP3 PUSH1 0x20 DUP7 ADD PUSH2 0x2426 JUMP JUMPDEST SWAP2 POP POP SWAP3 SWAP2 POP POP JUMP JUMPDEST PUSH0 PUSH1 0x20 DUP3 DUP5 SUB SLT ISZERO PUSH2 0x24A9 JUMPI PUSH2 0x24A8 PUSH2 0x16B7 JUMP JUMPDEST JUMPDEST PUSH0 DUP3 ADD MLOAD PUSH8 0xFFFFFFFFFFFFFFFF DUP2 GT ISZERO PUSH2 0x24C6 JUMPI PUSH2 0x24C5 PUSH2 0x16BB JUMP JUMPDEST JUMPDEST PUSH2 0x24D2 DUP5 DUP3 DUP6 ADD PUSH2 0x2467 JUMP JUMPDEST SWAP2 POP POP SWAP3 SWAP2 POP POP JUMP JUMPDEST PUSH0 PUSH2 0x24E6 DUP3 DUP7 PUSH2 0x1BF8 JUMP JUMPDEST SWAP2 POP PUSH2 0x24F2 DUP3 DUP6 PUSH2 0x1BF8 JUMP JUMPDEST SWAP2 POP PUSH2 0x24FE DUP3 DUP5 PUSH2 0x1BF8 JUMP JUMPDEST SWAP2 POP DUP2 SWAP1 POP SWAP5 SWAP4 POP POP POP POP JUMP JUMPDEST PUSH0 DUP1 DUP3 ADD MSTORE POP JUMP JUMPDEST PUSH0 PUSH2 0x251F PUSH1 0x1 DUP4 PUSH2 0x1BA4 JUMP JUMPDEST SWAP2 POP PUSH2 0x252A DUP3 PUSH2 0x250B JUMP JUMPDEST PUSH1 0x1 DUP3 ADD SWAP1 POP SWAP2 SWAP1 POP JUMP JUMPDEST PUSH0 DUP2 MLOAD SWAP1 POP SWAP2 SWAP1 POP JUMP JUMPDEST PUSH0 DUP2 SWAP1 POP SWAP3 SWAP2 POP POP JUMP JUMPDEST PUSH0 PUSH2 0x2553 DUP3 PUSH2 0x2535 JUMP JUMPDEST PUSH2 0x255D DUP2 DUP6 PUSH2 0x253F JUMP JUMPDEST SWAP4 POP PUSH2 0x256D DUP2 DUP6 PUSH1 0x20 DUP7 ADD PUSH2 0x1737 JUMP JUMPDEST DUP1 DUP5 ADD SWAP2 POP POP SWAP3 SWAP2 POP POP JUMP JUMPDEST PUSH0 PUSH2 0x2583 DUP3 PUSH2 0x2513 JUMP JUMPDEST SWAP2 POP PUSH2 0x258F DUP3 DUP5 PUSH2 0x2549 JUMP JUMPDEST SWAP2 POP DUP2 SWAP1 POP SWAP3 SWAP2 POP POP JUMP JUMPDEST PUSH32 0x600B5981380380925939F3000000000000000000000000000000000000000000 PUSH0 DUP3 ADD MSTORE POP JUMP JUMPDEST PUSH0 PUSH2 0x25CE PUSH1 0xB DUP4 PUSH2 0x1BA4 JUMP JUMPDEST SWAP2 POP PUSH2 0x25D9 DUP3 PUSH2 0x259A JUMP JUMPDEST PUSH1 0xB DUP3 ADD SWAP1 POP SWAP2 SWAP1 POP JUMP JUMPDEST PUSH0 PUSH2 0x25EE DUP3 PUSH2 0x25C2 JUMP JUMPDEST SWAP2 POP PUSH2 0x25FA DUP3 DUP5 PUSH2 0x2549 JUMP JUMPDEST SWAP2 POP DUP2 SWAP1 POP SWAP3 SWAP2 POP POP JUMP JUMPDEST PUSH32 0x4445504C4F594D454E545F4641494C4544000000000000000000000000000000 PUSH0 DUP3 ADD MSTORE POP JUMP JUMPDEST PUSH0 PUSH2 0x2639 PUSH1 0x11 DUP4 PUSH2 0x1727 JUMP JUMPDEST SWAP2 POP PUSH2 0x2644 DUP3 PUSH2 0x2605 JUMP JUMPDEST PUSH1 0x20 DUP3 ADD SWAP1 POP SWAP2 SWAP1 POP JUMP JUMPDEST PUSH0 PUSH1 0x20 DUP3 ADD SWAP1 POP DUP2 DUP2 SUB PUSH0 DUP4 ADD MSTORE PUSH2 0x2666 DUP2 PUSH2 0x262D JUMP JUMPDEST SWAP1 POP SWAP2 SWAP1 POP JUMP JUMPDEST PUSH0 PUSH2 0x2677 DUP3 PUSH2 0x17AD JUMP JUMPDEST SWAP2 POP PUSH2 0x2682 DUP4 PUSH2 0x17AD JUMP JUMPDEST SWAP3 POP DUP3 PUSH2 0x2692 JUMPI PUSH2 0x2691 PUSH2 0x2300 JUMP JUMPDEST JUMPDEST DUP3 DUP3 MOD SWAP1 POP SWAP3 SWAP2 POP POP JUMP JUMPDEST POP JUMP JUMPDEST PUSH0 PUSH2 0x26AB PUSH0 DUP4 PUSH2 0x1BA4 JUMP JUMPDEST SWAP2 POP PUSH2 0x26B6 DUP3 PUSH2 0x269D JUMP JUMPDEST PUSH0 DUP3 ADD SWAP1 POP SWAP2 SWAP1 POP JUMP JUMPDEST PUSH0 PUSH2 0x26CA DUP3 PUSH2 0x26A0 JUMP JUMPDEST SWAP2 POP PUSH2 0x26D6 DUP3 DUP5 PUSH2 0x1BF8 JUMP JUMPDEST SWAP2 POP DUP2 SWAP1 POP SWAP3 SWAP2 POP POP JUMP JUMPDEST PUSH0 PUSH2 0x26EC DUP3 DUP6 PUSH2 0x1BF8 JUMP JUMPDEST SWAP2 POP PUSH2 0x26F8 DUP3 DUP5 PUSH2 0x1BF8 JUMP JUMPDEST SWAP2 POP DUP2 SWAP1 POP SWAP4 SWAP3 POP POP POP JUMP JUMPDEST PUSH32 0x3C726563742077696474683D27363427206865696768743D273634272066696C PUSH0 DUP3 ADD MSTORE PUSH32 0x6C3D270000000000000000000000000000000000000000000000000000000000 PUSH1 0x20 DUP3 ADD MSTORE POP JUMP JUMPDEST PUSH0 PUSH2 0x275E PUSH1 0x23 DUP4 PUSH2 0x1BA4 JUMP JUMPDEST SWAP2 POP PUSH2 0x2769 DUP3 PUSH2 0x2704 JUMP JUMPDEST PUSH1 0x23 DUP3 ADD SWAP1 POP SWAP2 SWAP1 POP JUMP JUMPDEST PUSH32 0x27202F3E00000000000000000000000000000000000000000000000000000000 PUSH0 DUP3 ADD MSTORE POP JUMP JUMPDEST PUSH0 PUSH2 0x27A8 PUSH1 0x4 DUP4 PUSH2 0x1BA4 JUMP JUMPDEST SWAP2 POP PUSH2 0x27B3 DUP3 PUSH2 0x2774 JUMP JUMPDEST PUSH1 0x4 DUP3 ADD SWAP1 POP SWAP2 SWAP1 POP JUMP JUMPDEST PUSH32 0x3C2F673E3C2F7376673E00000000000000000000000000000000000000000000 PUSH0 DUP3 ADD MSTORE POP JUMP JUMPDEST PUSH0 PUSH2 0x27F2 PUSH1 0xA DUP4 PUSH2 0x1BA4 JUMP JUMPDEST SWAP2 POP PUSH2 0x27FD DUP3 PUSH2 0x27BE JUMP JUMPDEST PUSH1 0xA DUP3 ADD SWAP1 POP SWAP2 SWAP1 POP JUMP JUMPDEST PUSH0 PUSH2 0x2813 DUP3 DUP7 PUSH2 0x1BF8 JUMP JUMPDEST SWAP2 POP PUSH2 0x281E DUP3 PUSH2 0x2752 JUMP JUMPDEST SWAP2 POP PUSH2 0x282A DUP3 DUP6 PUSH2 0x1BF8 JUMP JUMPDEST SWAP2 POP PUSH2 0x2835 DUP3 PUSH2 0x279C JUMP JUMPDEST SWAP2 POP PUSH2 0x2841 DUP3 DUP5 PUSH2 0x1BF8 JUMP JUMPDEST SWAP2 POP PUSH2 0x284C DUP3 PUSH2 0x27E6 JUMP JUMPDEST SWAP2 POP DUP2 SWAP1 POP SWAP5 SWAP4 POP POP POP POP JUMP JUMPDEST PUSH32 0x7B2274726169745F74797065223A220000000000000000000000000000000000 PUSH0 DUP3 ADD MSTORE POP JUMP JUMPDEST PUSH0 PUSH2 0x288D PUSH1 0xF DUP4 PUSH2 0x1BA4 JUMP JUMPDEST SWAP2 POP PUSH2 0x2898 DUP3 PUSH2 0x2859 JUMP JUMPDEST PUSH1 0xF DUP3 ADD SWAP1 POP SWAP2 SWAP1 POP JUMP JUMPDEST PUSH32 0x222C2276616C7565223A22000000000000000000000000000000000000000000 PUSH0 DUP3 ADD MSTORE POP JUMP JUMPDEST PUSH0 PUSH2 0x28D7 PUSH1 0xB DUP4 PUSH2 0x1BA4 JUMP JUMPDEST SWAP2 POP PUSH2 0x28E2 DUP3 PUSH2 0x28A3 JUMP JUMPDEST PUSH1 0xB DUP3 ADD SWAP1 POP SWAP2 SWAP1 POP JUMP JUMPDEST PUSH32 0x227D000000000000000000000000000000000000000000000000000000000000 PUSH0 DUP3 ADD MSTORE POP JUMP JUMPDEST PUSH0 PUSH2 0x2921 PUSH1 0x2 DUP4 PUSH2 0x1BA4 JUMP JUMPDEST SWAP2 POP PUSH2 0x292C DUP3 PUSH2 0x28ED JUMP JUMPDEST PUSH1 0x2 DUP3 ADD SWAP1 POP SWAP2 SWAP1 POP JUMP JUMPDEST PUSH0 PUSH2 0x2941 DUP3 PUSH2 0x2881 JUMP JUMPDEST SWAP2 POP PUSH2 0x294D DUP3 DUP6 PUSH2 0x1BF8 JUMP JUMPDEST SWAP2 POP PUSH2 0x2958 DUP3 PUSH2 0x28CB JUMP JUMPDEST SWAP2 POP PUSH2 0x2964 DUP3 DUP5 PUSH2 0x1BF8 JUMP JUMPDEST SWAP2 POP PUSH2 0x296F DUP3 PUSH2 0x2915 JUMP JUMPDEST SWAP2 POP DUP2 SWAP1 POP SWAP4 SWAP3 POP POP POP JUMP JUMPDEST PUSH32 0x3C757365206865696768743D273634272077696474683D273634272068726566 PUSH0 DUP3 ADD MSTORE PUSH32 0x3D2723732720783D272D00000000000000000000000000000000000000000000 PUSH1 0x20 DUP3 ADD MSTORE POP JUMP JUMPDEST PUSH0 PUSH2 0x29D5 PUSH1 0x2A DUP4 PUSH2 0x1BA4 JUMP JUMPDEST SWAP2 POP PUSH2 0x29E0 DUP3 PUSH2 0x297B JUMP JUMPDEST PUSH1 0x2A DUP3 ADD SWAP1 POP SWAP2 SWAP1 POP JUMP JUMPDEST PUSH32 0x2720793D272D0000000000000000000000000000000000000000000000000000 PUSH0 DUP3 ADD MSTORE POP JUMP JUMPDEST PUSH0 PUSH2 0x2A1F PUSH1 0x6 DUP4 PUSH2 0x1BA4 JUMP JUMPDEST SWAP2 POP PUSH2 0x2A2A DUP3 PUSH2 0x29EB JUMP JUMPDEST PUSH1 0x6 DUP3 ADD SWAP1 POP SWAP2 SWAP1 POP JUMP JUMPDEST PUSH0 PUSH2 0x2A3F DUP3 PUSH2 0x29C9 JUMP JUMPDEST SWAP2 POP PUSH2 0x2A4B DUP3 DUP6 PUSH2 0x1BF8 JUMP JUMPDEST SWAP2 POP PUSH2 0x2A56 DUP3 PUSH2 0x2A13 JUMP JUMPDEST SWAP2 POP PUSH2 0x2A62 DUP3 DUP5 PUSH2 0x1BF8 JUMP JUMPDEST SWAP2 POP PUSH2 0x2A6D DUP3 PUSH2 0x279C JUMP JUMPDEST SWAP2 POP DUP2 SWAP1 POP SWAP4 SWAP3 POP POP POP JUMP JUMPDEST PUSH32 0x3C7376672076657273696F6E3D22312E312220786D6C6E733D22687474703A2F PUSH0 DUP3 ADD MSTORE PUSH32 0x2F7777772E77332E6F72672F323030302F737667222076696577426F783D2230 PUSH1 0x20 DUP3 ADD MSTORE PUSH32 0x203020363420363422206865696768743D22363430222077696474683D223634 PUSH1 0x40 DUP3 ADD MSTORE PUSH32 0x30223E3C646566733E3C696D616765206865696768743D223131353222207769 PUSH1 0x60 DUP3 ADD MSTORE PUSH32 0x6474683D223139322220696D6167652D72656E646572696E673D22706978656C PUSH1 0x80 DUP3 ADD MSTORE PUSH32 0x61746564222069643D22732220687265663D22646174613A696D6167652F706E PUSH1 0xA0 DUP3 ADD MSTORE PUSH32 0x673B6261736536342C0000000000000000000000000000000000000000000000 PUSH1 0xC0 DUP3 ADD MSTORE POP JUMP JUMPDEST PUSH0 PUSH2 0x2B91 PUSH1 0xC9 DUP4 PUSH2 0x1BA4 JUMP JUMPDEST SWAP2 POP PUSH2 0x2B9C DUP3 PUSH2 0x2A79 JUMP JUMPDEST PUSH1 0xC9 DUP3 ADD SWAP1 POP SWAP2 SWAP1 POP JUMP JUMPDEST PUSH32 0x22202F3E3C636C6970506174682069643D2263223E3C72656374207769647468 PUSH0 DUP3 ADD MSTORE PUSH32 0x3D22363422206865696768743D22363422202F3E3C2F636C6970506174683E3C PUSH1 0x20 DUP3 ADD MSTORE PUSH32 0x2F646566733E3C6720636C69702D706174683D2275726C28236329223E000000 PUSH1 0x40 DUP3 ADD MSTORE POP JUMP JUMPDEST PUSH0 PUSH2 0x2C27 PUSH1 0x5D DUP4 PUSH2 0x1BA4 JUMP JUMPDEST SWAP2 POP PUSH2 0x2C32 DUP3 PUSH2 0x2BA7 JUMP JUMPDEST PUSH1 0x5D DUP3 ADD SWAP1 POP SWAP2 SWAP1 POP JUMP JUMPDEST PUSH0 PUSH2 0x2C47 DUP3 PUSH2 0x2B85 JUMP JUMPDEST SWAP2 POP PUSH2 0x2C53 DUP3 DUP5 PUSH2 0x1BF8 JUMP JUMPDEST SWAP2 POP PUSH2 0x2C5E DUP3 PUSH2 0x2C1B JUMP JUMPDEST SWAP2 POP DUP2 SWAP1 POP SWAP3 SWAP2 POP POP JUMP INVALID COINBASE TIMESTAMP NUMBER PREVRANDAO GASLIMIT CHAINID SELFBALANCE BASEFEE BLOBHASH BLOBBASEFEE 0x4B 0x4C 0x4D 0x4E 0x4F POP MLOAD MSTORE MSTORE8 SLOAD SSTORE JUMP JUMPI PC MSIZE GAS PUSH2 0x6263 PUSH5 0x6566676869 PUSH11 0x6B6C6D6E6F707172737475 PUSH23 0x7778797A303132333435363738392B2FA2646970667358 0x22 SLT KECCAK256 0x4E MSTORE SGT 0x1F 0xD5 0xCD PUSH18 0x4B5B89A5F13089BFA76807D95C8DA9C2924E 0xA5 SWAP16 CALLDATASIZE LOG1 0x27 CALLDATASIZE PUSH28 0x64736F6C634300081A00333130303020626173656420506570657320 PUSH13 0x6976696E67206F6E2048616D20 NUMBER PUSH9 0x61696E204C33000000 "
		},
		"gasEstimates": {
			"creation": {
				"codeDepositCost": "2297400",
				"executionCost": "infinite",
				"totalCost": "infinite"
			},
			"external": {
				"getJsonString(uint256,bytes32)": "infinite",
				"getJsonUri(uint256,bytes32)": "infinite",
				"getSvg(bytes32)": "infinite",
				"getSvgDataUri(bytes32)": "infinite",
				"getTraits(bytes32)": "infinite",
				"getTraitsImage()": "infinite",
				"owner()": "2527",
				"setTraitsImage(string)": "infinite",
				"traitsImagePointer()": "2596",
				"transferOwnership(address)": "28535",
				"updateDescription(string)": "infinite"
			},
			"internal": {
				"_getPart(uint256)": "infinite",
				"_getSvg(uint256[7] memory)": "infinite",
				"_getSvgDataUri(uint256[7] memory)": "infinite",
				"_getTraitMetadata(uint256[7] memory)": "infinite",
				"_getTraitString(string memory,string memory)": "infinite",
				"_getUseString(uint256,uint256)": "infinite",
				"_r(uint256,uint256,uint256)": "infinite",
				"_svgStart()": "infinite"
			}
		},
		"methodIdentifiers": {
			"getJsonString(uint256,bytes32)": "456c851e",
			"getJsonUri(uint256,bytes32)": "c649c9a8",
			"getSvg(bytes32)": "866ec8cc",
			"getSvgDataUri(bytes32)": "12a4cd7a",
			"getTraits(bytes32)": "826590e5",
			"getTraitsImage()": "374db538",
			"owner()": "8da5cb5b",
			"setTraitsImage(string)": "7e78f28b",
			"traitsImagePointer()": "e9da00f2",
			"transferOwnership(address)": "f2fde38b",
			"updateDescription(string)": "e735b48a"
		}
	},
	"abi": [
		{
			"inputs": [
				{
					"internalType": "contract HamPepeTraits",
					"name": "_traitsMetaData",
					"type": "address"
				}
			],
			"stateMutability": "nonpayable",
			"type": "constructor"
		},
		{
			"inputs": [],
			"name": "TraitsImageAlreadySet",
			"type": "error"
		},
		{
			"anonymous": false,
			"inputs": [
				{
					"indexed": true,
					"internalType": "address",
					"name": "user",
					"type": "address"
				},
				{
					"indexed": true,
					"internalType": "address",
					"name": "newOwner",
					"type": "address"
				}
			],
			"name": "OwnershipTransferred",
			"type": "event"
		},
		{
			"inputs": [
				{
					"internalType": "uint256",
					"name": "tokenId",
					"type": "uint256"
				},
				{
					"internalType": "bytes32",
					"name": "seed",
					"type": "bytes32"
				}
			],
			"name": "getJsonString",
			"outputs": [
				{
					"internalType": "string",
					"name": "",
					"type": "string"
				}
			],
			"stateMutability": "view",
			"type": "function"
		},
		{
			"inputs": [
				{
					"internalType": "uint256",
					"name": "tokenId",
					"type": "uint256"
				},
				{
					"internalType": "bytes32",
					"name": "seed",
					"type": "bytes32"
				}
			],
			"name": "getJsonUri",
			"outputs": [
				{
					"internalType": "string",
					"name": "",
					"type": "string"
				}
			],
			"stateMutability": "view",
			"type": "function"
		},
		{
			"inputs": [
				{
					"internalType": "bytes32",
					"name": "_seed",
					"type": "bytes32"
				}
			],
			"name": "getSvg",
			"outputs": [
				{
					"internalType": "string",
					"name": "",
					"type": "string"
				}
			],
			"stateMutability": "view",
			"type": "function"
		},
		{
			"inputs": [
				{
					"internalType": "bytes32",
					"name": "seed",
					"type": "bytes32"
				}
			],
			"name": "getSvgDataUri",
			"outputs": [
				{
					"internalType": "string",
					"name": "",
					"type": "string"
				}
			],
			"stateMutability": "view",
			"type": "function"
		},
		{
			"inputs": [
				{
					"internalType": "bytes32",
					"name": "_seed",
					"type": "bytes32"
				}
			],
			"name": "getTraits",
			"outputs": [
				{
					"internalType": "uint256[7]",
					"name": "traits",
					"type": "uint256[7]"
				}
			],
			"stateMutability": "pure",
			"type": "function"
		},
		{
			"inputs": [],
			"name": "getTraitsImage",
			"outputs": [
				{
					"internalType": "string",
					"name": "",
					"type": "string"
				}
			],
			"stateMutability": "view",
			"type": "function"
		},
		{
			"inputs": [],
			"name": "owner",
			"outputs": [
				{
					"internalType": "address",
					"name": "",
					"type": "address"
				}
			],
			"stateMutability": "view",
			"type": "function"
		},
		{
			"inputs": [
				{
					"internalType": "string",
					"name": "data",
					"type": "string"
				}
			],
			"name": "setTraitsImage",
			"outputs": [],
			"stateMutability": "nonpayable",
			"type": "function"
		},
		{
			"inputs": [],
			"name": "traitsImagePointer",
			"outputs": [
				{
					"internalType": "address",
					"name": "",
					"type": "address"
				}
			],
			"stateMutability": "view",
			"type": "function"
		},
		{
			"inputs": [
				{
					"internalType": "address",
					"name": "newOwner",
					"type": "address"
				}
			],
			"name": "transferOwnership",
			"outputs": [],
			"stateMutability": "nonpayable",
			"type": "function"
		},
		{
			"inputs": [
				{
					"internalType": "string",
					"name": "d",
					"type": "string"
				}
			],
			"name": "updateDescription",
			"outputs": [],
			"stateMutability": "nonpayable",
			"type": "function"
		}
	]
}